:1000000000000220B5020000DD020000DF02000057
:10001000E1020000E3020000E50200000000000031
:100020000000000000000000000000009911000026
:10003000E902000000000000B9110000ED0200001C
:1000400065460000995F0200254B0000EF020000AA
:10005000EF020000EF02000081490000EF02000003
:10006000EF020000EF020000EF020000EF020000CC
:10007000EF020000354C0000EF020000EF0200002C
:10008000EF020000B9120000EF020000EF020000D2
:10009000EF020000EF020000EF020000EF0200009C
:1000A000EF020000EF020000554E0000EF020000DA
:1000B000EF020000EF02000000000000000000005E
:1000C000EF020000EF020000EF020000EF0200006C
:1000D0002D880200EF020000EF020000EF02000096
:1000E000EF0200000000000000000000000000001F
:1000F00000000000EF02000000000000EF0200001E
:1001000000000000000000000000000000000000EF
:1001100000000000000000000000000000000000DF
:1001200000000000000000000000000000000000CF
:1001300000000000000000000000000000000000BF
:1001400000000000000000000000000000000000AF
:10015000000000000000000000000000000000009F
:10016000000000000000000000000000000000008F
:10017000000000000000000000000000000000007F
:10018000000000000000000000000000000000006F
:10019000000000000000000000000000000000005F
:1001A000000000000000000000000000000000004F
:1001B000000000000000000000000000000000003F
:1001C000000000000000000000000000000000002F
:1001D000000000000000000000000000000000001F
:1001E000000000000000000000000000000000000F
:1001F00000000000000000000000000000000000FF
:1002000010B5054C237833B9044B13B10448AFF350
:1002100000800123237010BDA8040020000000000E
:100220001CCC020008B5034B1BB103490348AFF3D4
:10023000008008BD00000000AC0400201CCC0200BF
:10024000154B002B08BF134B9D46A3F5803A0021A8
:100250008B460F461348144A121A28F076FE0F4BAD
:10026000002B00D098470E4B002B00D09847002061
:10027000002104000D000D48002802D00C48AFF307
:10028000008028F0EBFD2000290005F08FFE28F00B
:10029000BFFD00BF000008000000022000000000B9
:1002A00000000000A80400206C6C0020000000008A
:1002B000000000000649074A074B9B1A03DD043B78
:1002C000C858D050FBDC05F0E3FFFFF7B9FF000092
:1002D000E8CC020000000020A8040020FEE7FEE7B2
:1002E000FEE7FEE7FEE7FEE7FEE7FEE7FEE7FEE7E6
:1002F000F0B595B01C46164608460D4603F08CFD39
:100300001A9B0D93CDE9086400242346082205A911
:1003100028460A948DF82C400C9403F09BFD079B13
:100320000293BDF81830ADF80C30BDF81A30ADF8B6
:100330000E309DF814308DF8114003F00302012AAD
:100340001DD1BDF81440059EC3F3C203C4F383144A
:100350008DF81030A20008230EA9284603F07AFD7C
:10036000C6F3952608AB0093224602AB0EA9304691
:1003700000F02EFD284603F053FD15B0F0BD022A13
:10038000F8D1BDF81640C3F3C203A4098DF81030AC
:100390000827082C264628BF08263B4632460EA9C9
:1003A000284603F057FDA41B08AB02AA31460EA84D
:1003B000374400F071FD002CEBD1DBE7014B01224B
:1003C0001A707047050500207047000070B50F4D8A
:1003D00006460FCD88B06C460FC495E80F00002E7E
:1003E00084E80F004FF006030093094A09484FF0D4
:1003F000805308BF00226946069304F017F808B13D
:1004000002F020FF044B1E7008B070BDDCA6020095
:10041000BD03000000000020C404002007B5044B09
:100420000093044A4023FFF763FF03B05DF804FB29
:1004300039040000C504002038B50D4B0D4D0020D7
:1004400018700D4804782D5DD2B21C4665B1043099
:1004500005F0BCF908B102F0F5FE084B1A7812B1AC
:100460002378002BFBD038BD0C3004F04BFFF1E7B4
:1004700005050020BC54002000000020C40400201A
:1004800008B50848084A0378D35C3BB1043005F04E
:100490002FF90020BDE80840FFF798BF0C3004F0AA
:1004A000D7FEF6E700000020BC5400200120FFF733
:1004B0008DBF000008B5FFF7F9FF0421034800F0E5
:1004C000E5FB034B01225A7108BD00BFB8CC020006
:1004D00014000020037813F0040216D003F0030385
:1004E000012B03D0022B09D0012070470A68008835
:1004F0000232C0F3831002440A60F5E70B684288B9
:10050000023303EB92130B60EEE7104670470000D6
:100510002DE9F04F484C87B00F460546861C002059
:10052000019202F07BFF23683B60D4E9012313446E
:10053000226801339B1A04F21C4704F5836A04F213
:100540001448B34219D3019A0023002A6CD0012227
:1005500062F3010343F0040365F389132168A26881
:100560000A4003320E44002044F82230266002F094
:1005700057FF012007B0BDE8F08F0121384602F097
:1005800087FF504602F09DFF404602F09AFF0DF1B2
:1005900018096068D4F808B049F8100D00EA0B009B
:1005A000033004EB80004946FFF794FF029BB0B98B
:1005B0000BEA030204EB8202D16803919A1C013317
:1005C00003EA0B0B04EB8B0C01F00303012B0292EB
:1005D000DCF80CB020D0022B04D083460BE00BEAF1
:1005E0000300DDE7BDF80E309B0903334FEA1B4BD8
:1005F00002EB93030293404602F066FF08B1029BB0
:1006000063605946384602F043FFD4E9012313449E
:10061000226801339B1A94E7BDF80C30C3F38313AF
:100620004FEA1B4B1344E5E7022262F3010343F058
:10063000040365F39F5391E7D805002030B50A4BBA
:100640000A4A0B49D21AD20800239A4201D1052046
:1006500006E031F823500468A54202D1036000206F
:1006600030BD0133F1E700BF38CC0200B8CC020046
:10067000100400202DE9F84F224B2348FF229A60F6
:100680000022C3F81824C3E90022C3F8142483F815
:10069000202403F07AFB804688B91C481C4E1D4D6F
:1006A000DFF874A003F0E4FCAD1BED084446AC4257
:1006B00008D10023184919481A469C421BD14046CC
:1006C000BDE8F88F4FF000094F4606EBC40BBC4263
:1006D0000AD0142256F83710DBF8000028F0A0FFEB
:1006E0000028C8BF09F101090137BD42EFD12AF83E
:1006F00024900134DBE701EB830540F823206A8076
:100700000133DAE7D8050020C8CC02001CA702009C
:1007100038CC0200B8CC02001004002050040020A5
:1007200007B5019031B9019A064B53F8320003B076
:100730005DF804FB01A8FFF781FF0028F3D000203B
:10074000F5E700BF38CC0200094B013903EBC000CC
:10075000032909D8DFE801F00A02040604207047E3
:100760000079704740797047002070470220704739
:1007700038CC020030B5124C00EB400054F8215048
:100780008240072303FA00F06A4002400D4B6A40A2
:10079000C2F3821044F8212003EB8101C2F3C203AB
:1007A000834238BF0346C2F34220834202F007026D
:1007B00038BF03469A4238BF1A464A8030BD00BF50
:1007C000500400201004002037B5164B93F8203455
:1007D00004460BB918B90024204603B030BD28F0F8
:1007E00017FF02AA013042F8080D012301A90E48A3
:1007F00003F04CFC05460028EDD12146009A0198F3
:1008000028F07FFBDDE900231344074803F8015C6F
:10081000009903F072FC0099034803F087FC019CE7
:10082000DAE700BFD80500201CA70200034BD3E97C
:100830000030C31A58425841704700BFD805002005
:100840002DE9F04F85B0FFF7F1FF0646002840F094
:1008500018818D4DC5F81804BFF34F8F6868AC68D8
:1008600004AF47F8100D2040033005EB80003946F7
:10087000FFF730FE009B18B1D5F81824002A66D087
:1008800004EA0302991C013305EB8202234005EBC5
:100890008303D268DB68029302F00303022B019208
:1008A000009169D1BDF8063078489DF804604FEAA0
:1008B000931ABAF1500FD14628BF4FF0500969F38F
:1008C0008F1309F10801ADF8063003F076FAC6F38C
:1008D000C2068046002800F0BB8003F09DFA01A903
:1008E00000230822404603F0AAFA009924EA0107EF
:1008F0000137BF00B94538D95FFA89F997B3FFB21C
:10090000A9EB0709214003315FFA89FBB946604F23
:1009100005EB810108234A46404603F090FA37B1BF
:1009200009F108035A463946404603F088FA009B0D
:100930000AF1030A03EB9A030093D5F81834002B4D
:1009400050D1D5F81044DFF85C9107276FE02A6892
:100950009A4204D86A60304605B0BDE8F08F04EAD8
:10096000030081E74A49BB46D4E72140033108230D
:100970004A4605EB8101D7E7012B69D1BDF8046038
:100980004248C6F38311062928BF062161F3891660
:1009900002318900ADF8046003F00FFAC6F3C20615
:1009A0008046002854D003F037FA0023082201A91A
:1009B000404603F044FA0027BDF80420C2F3831236
:1009C000BB1C97424FEA8303B7D200994A1C2140CF
:1009D0000331009205EB81010422404603F02FFA17
:1009E0000137E9E7404603F01BFAFFF71FFF80F0ED
:1009F0000100C6B2AFE7E3685A79B2B11B79BDF81E
:100A0000081003EB430259F8211007FA02F3052EF0
:100A100003EA010323FA02F308BF0326B34204D317
:100A2000236841461B6820469847E3681C68002CF1
:100A3000E1D1404603F0F4F9204602F0EFFCD5F88E
:100A400018340BB9009B6B60002002F0E9FCCCE786
:100A5000D5F8104474B90F4B5B88012BC5D90E4BE8
:100A60000E480F49C01AC008000440F0020000F010
:100A700073F8BAE7236820469B689847E3681C68C8
:100A8000E8E7002667E700BFD8050020C8CC0200D1
:100A9000E40500202C04002038CC020070CC0200B9
:100AA00028A70200500400202DE9F74F284C80466B
:100AB0000F46924601A9012218469B46D4F8089099
:100AC000FFF726FD88B3019D0026A91C5E4506EBB5
:100AD000010234D100211F4802F0A4FC80F3100071
:100AE0006A1C02EA090204EB8202000405EA090317
:100AF000033340EA1840D06014F8232068F3C5029D
:100B000004F8232034F8232066F3891224F82320E4
:100B100054F82320012167F39F2244F8232061F336
:100B200001026FF3820204F8232094F820341BB1F1
:100B3000FFF786FE0028FBD103B0BDE8F08F09EA7D
:100B4000020204EB82025AF82630D3600136BDE778
:100B5000D8050020F409002000231A46FFF7A4BF9F
:100B600013B502AC012344F8042D2246FFF79CFF85
:100B700002B010BD07B5CDE9002302236A46FFF796
:100B800093FF03B05DF804FB1FB5CDE90123069B7D
:100B9000039301AA0323FFF787FF05B05DF804FB69
:100BA0001FB5CDE90023069B0293079B03936A467A
:100BB0000423FFF779FF05B05DF804FB2DE9F34747
:100BC0008046304CD01C8A46174601A90022800876
:100BD000A568FFF79DFC002840D0DDF80490A668CA
:100BE00009F10200019001362840361AB6000330A0
:100BF000B74204EB80003BD83A46514628F081F9D1
:100C00000021214802F00EFC80F3100009F10103DD
:100C10002B4004EB83034FEA184242EA0040D860BD
:100C200005EA0903033304EB830214F8231068F385
:100C3000C50104F8231034F823106FF38F1124F842
:100C40002310518867F38F11518014F8232002215B
:100C500061F301026FF3820204F8232094F8203438
:100C60001BB1FFF7EDFD0028FBD102B0BDE8F08716
:100C70003246514628F045F9BA1B0AEB060104F149
:100C80000C00BBE7D8050020F40900202DE9F8434B
:100C90001F4B8846D3F81014054600240A469AB91B
:100CA000E9680C71D3F81014A1B9C3F81054EB68BB
:100CB0001A60184F184EF61BF6084FF00009B145A0
:100CC00011D12046BDE8F883D2681079A04218D02F
:100CD0001268E4E7C968EA6809681160D3F810345B
:100CE000DB681D60E5E707EBC9034946DA79EB6885
:100CF000424528BF42461879FFF73CFD09F101093A
:100D0000DDE701340A2CC9D14FF0FF34D9E700BF29
:100D1000D805002038CC0200B8CC020010B5037A08
:100D2000052B0C460FD0437A23B1084A08492046C8
:100D300002F029FC0749204602F025FC2046BDE8C8
:100D4000104002F015BC002AF8D0F3E783A7020098
:100D500071B20200A5A7020073B5C38804460D4610
:100D600033B1144A00921449144A284602F00BFC8D
:100D7000217A05291CD0637A4BB1A088FFF7E4FCE7
:100D80000F4B104953F82020284602F0FCFB227A32
:100D90000D4BA08853F822600021FFF7C1FC0B49DE
:100DA00003463246284602B0BDE8704002F0EBBB75
:100DB00002B070BD83A7020090A7020088A70200BE
:100DC00050A7020071B20200B4A70200A8A7020057
:100DD0002DE9F04385B01F460C9D002306460C46C6
:100DE000904695F80C902B7329463846FFF7B4FFD0
:100DF000B8F1060F09D8DFE808F00412181F2833ED
:100E000040003146284602F0BEFB00222946384603
:100E1000FFF784FF85F80C9005B0BDE8F0832268E9
:100E20003146284602F0AFFBEFE7D4E90023314614
:100E3000284602F0A8FBE8E7A36800933146D4E90E
:100E40000023284602F09FFBDFE7E3680193A368D5
:100E500000933146D4E90023284602F094FBD4E7FE
:100E600023690293E3680193A36800933146D4E9B0
:100E70000023284602F087FBC7E7636903932369D1
:100E80000293E3680193A36800933146D4E90023F9
:100E9000284602F078FBB8E708292DE9F84F80468C
:100EA0000E4617461C4635D8002593F80C901D7346
:100EB00019461046FFF750FFDFF88CA0DFF88CB022
:100EC000AE4229D918F805205946204602F05BFBAE
:100ED0000135082DF4D11A49DFF874B0204602F02C
:100EE00052FB4FF0000A564524D918F80A507E2DBF
:100EF00017D92E225946204602F045FB0AF1010A75
:100F0000BAF1080FEFD1012221463846FFF706FF5C
:100F100084F80C90BDE8F88F5146204602F033FB70
:100F2000D6E727F0BFFF2844427812F0970FE0D0B1
:100F30002A46DFE70349204602F025FBDEE700BF33
:100F40007EA702007CA702007AA7020074A7020015
:100F500080A70200074B1B5C1F2B8ABF064A4FF07D
:100F6000A04203F01F03D2F80405D840C04300F0AC
:100F70000100704719A8020000030050074B1B5CDA
:100F80001F2B86BF03F01F0305494FF0A04101222C
:100F900002FA03F3C1F80C35704700BF19A802002C
:100FA00000030050074B1B5C1F2B86BF03F01F0381
:100FB00005494FF0A041012202FA03F3C1F80835B8
:100FC000704700BF19A802000003005008B50020B8
:100FD000FFF7E8FF0120FFF7E5FF0220FFF7E2FF40
:100FE0000320BDE80840FFF7DDBF08B50020FFF78C
:100FF000C5FF0120FFF7C2FF0220FFF7BFFF03205C
:10100000BDE80840FFF7BABF0A4B185C1F288ABF2B
:10101000094B4FF0A04300F01F00D3F80425012135
:10102000814021EA02000A40C3F80805C3F80C25F4
:10103000704700BF19A80200000300500B2809D018
:101040000C2809D0182809D019280CBF03204FF00C
:10105000FF30704700207047012070470220704722
:10106000C20710B504460CD54FF0A0430322C3F8C5
:101070003427C3F83827C3F83C27C3F84027FFF7C5
:10108000A5FFA3070AD54FF0A0430C22C3F82C27D5
:10109000C3F83027C3F86027C3F8642710BD0000E9
:1010A00038B5430704461CBF20F00704083400F09D
:1010B00001FE0C4B1A681AB90B4A22F007021A609B
:1010C0000A490A6841F6F7701444844208D8A242DB
:1010D00006D21D680C60154400F086FE284638BD17
:1010E0000025F9E7940A0020A00A0020982A002091
:1010F000704700F108034FF0FF324360C0E902235C
:101100000361002303607047002303617047436855
:101110004B609A688A609A685160996008610368B8
:101120000133036070470A68531C30B50AD1036964
:101130005A684A6091608B605960086103680133A6
:10114000036030BD00F108035C6825689542EFD864
:101150002346F9E7D0E9012103699160D0E9011242
:1011600051605A68824204BF82685A60002202615C
:101170001A68013A1A60186870470000054800684C
:1011800080F3088862B661B6BFF34F8FBFF36F8FED
:1011900000DF00BF00000000064B19680868B0E8D7
:1011A000F04F80F30988BFF36F8F4FF0000080F39A
:1011B00011887047A02A0020EFF30980BFF36F8FDA
:1011C000144B1A681EF0100F08BF20ED108A20E99A
:1011D000F04F10604DF8043D4FF0400080F311884F
:1011E000BFF34F8FBFF36F8F00F0AAFE4FF00000E8
:1011F00080F3118808BC19680868B0E8F04F1EF049
:10120000100F08BFB0EC108A80F30988BFF36F8F0E
:10121000704700BFA02A0020402383F31188FEE717
:101220004FF0807340E90213054B40F80C3C6FF01F
:10123000020340F8202C40F8243C4438704700BF9B
:10124000191200000F4C08B5E02384F8223000F09A
:1012500067F80D4B00221A60D4F888300B4A43F42B
:101260007003C4F88830536843F0404353602369E7
:1012700043F010032361FFF781FF402383F31188BC
:10128000FEE700BF00ED00E09C2A002030EF00E008
:10129000402383F31188024A1368013313607047B7
:1012A0009C2A0020034A1368013B13600BB983F3A7
:1012B000118870479C2A002073B5EFF311864023F4
:1012C00083F31188144B0022D3F80445C3F800219E
:1012D00003F580731B680193019B00F0F3FC241A53
:1012E00024F07F44012C04D900F00CFF022818BF21
:1012F0000124002514F1FF3409D225B1074B4FF02A
:1013000080525A6040BF86F3118802B070BD00F071
:10131000E5FC0543EEE700BF0010014000ED00E0F2
:1013200008B5002002F08CFF0A4B0B491F22C3F8BE
:1013300008250122C3F804230A601A600222C3F8B8
:101340004423064BE02283F811234FF400321A6045
:1013500008BD00BF001001400810014000E100E09E
:1013600010B50446FFF794FFA46BFFF79BFFB4FA98
:1013700084F0400910BD70B51546026C866B0446BA
:1013800042B905689DB9406800F01EFF65600136EE
:10139000A66370BD6DB9806827F0B3FDA368226CA9
:1013A00013446268A360934201D32368A3600020C2
:1013B000EDE7C06827F0A5FD236CE26821685B4279
:1013C0001A448A42E2603EBF62689B18E360022DC5
:1013D000EDD10EB1013EEAE73046D8E7034610B43E
:1013E0001A6C084662B1D9685C681144A142D960A0
:1013F00024BF1968D960D9685DF8044B27F081BD16
:101400005DF8044B704770B50446FFF741FF94F850
:10141000455004F124066DB2002D14DCFF2384F83E
:101420004530FFF73FFFFFF733FF94F8445004F1D6
:1014300010066DB2002D12DCFF2384F84430BDE8A5
:101440007040FFF72FBF636A002BE7D0304600F0F3
:10145000E1FD08B100F04AFE013D6DB2DCE7236911
:10146000002BE9D0304600F0D5FD08B100F03EFE7B
:10147000013D6DB2DEE7000038B504460D46FFF7CA
:1014800007FFD4E90F302268A2604343D1181B1A2A
:1014900013446160E3600021FF23A16384F84430BA
:1014A00084F845309DB923696BB104F1100000F058
:1014B000B1FD40B10A4B4FF080525A6040BFBFF3BC
:1014C0004F8FBFF36F8FFFF7EDFE012038BD04F1A2
:1014D0001000FFF70EFE04F12400FFF70AFEF2E70A
:1014E00000ED00E070B50646484348300D46FFF772
:1014F000D7FD044638B145B92060C4E90F65012124
:101500002046FFF7B9FF204670BD00F14803036095
:10151000F3E700002DE9FF470026DFF8F490019281
:1015200004468A461F46B046FFF7B2FEA26BE36B45
:101530009A4201D3022F1AD13A4651462046FFF76C
:101540001AFF636A1BB104F1240000F063FD40B18F
:101550002F4B4FF080525A6040BFBFF34F8FBFF305
:101560006F8FFFF79FFE012004B0BDE8F087019D5B
:101570001DB9FFF797FE0020F6E716B902A800F0A4
:1015800081FDFFF78FFE00F095FBFFF781FE94F8D9
:101590004430FF2B08BF84F8448094F84530FF2B7B
:1015A00008BF84F84580FFF77DFE01A902A800F07E
:1015B00075FD30BBFFF76CFEA26BE36B9A420ED158
:1015C000FFF770FE019904F1100000F0FFFC2046C7
:1015D000FFF719FF00F008FC48B10126A4E7FFF768
:1015E00061FE2046FFF70FFF00F0FEFBF5E74FF02E
:1015F0008053C9F8043040BFBFF34F8FBFF36F8FE4
:10160000EBE72046FFF7FFFE00F0EEFBB3E700BF7D
:1016100000ED00E010B5024600210120FFF762FF57
:10162000044638B10023C0E90033C3601A461946A6
:10163000FFF770FF204610BD38B50446456800F03E
:101640005BFD85420AD1E368013BE36023B91A469A
:1016500019462046FFF75EFF012000E0002038BD5C
:10166000F8B505461746EFF31186402282F311883C
:10167000806BEA6B904201D3022B1ED195F8454056
:101680001A4664B22846FFF776FE631C10D16B6AD7
:101690000BB9012009E005F1240000F0BBFC002893
:1016A000F7D0002FF5D00120386086F31188F8BDFF
:1016B000013464B285F84540EBE70020F5E700000F
:1016C0002DE9F04385B00026DFF8E490019204464E
:1016D00088463746FFF7DCFDA56BDDB14146204665
:1016E000013DFFF77BFEA56323696BB104F1100098
:1016F00000F090FC40B12E4B4FF080525A6040BF3A
:10170000BFF34F8FBFF36F8FFFF7CCFD012005B004
:10171000BDE8F083019D1DB9FFF7C4FD0020F6E789
:1017200016B902A800F0AEFCFFF7BCFD00F0C2FA4B
:10173000FFF7AEFD94F84430FF2B08BF84F84470E7
:1017400094F84530FF2B08BF84F84570FFF7AAFDD9
:1017500001A902A800F0A2FCF8B92046FFF700FE9C
:10176000A8B1019904F1240000F030FC2046FFF7F5
:101770004AFE00F039FB40B94FF08053C9F80430FD
:1017800040BFBFF34F8FBFF36F8F0126A2E7204604
:10179000FFF739FE00F028FBF7E72046FFF733FE9E
:1017A00000F022FB2046FFF7DBFD0028EDD0B5E777
:1017B00000ED00E02DE9F04385B00025DFF81C9135
:1017C000019104462F462E46FFF762FDA36BEBB155
:1017D000013BA363236813B900F06EFD60602369C9
:1017E0006BB104F1100000F015FC40B13B4B4FF021
:1017F00080525A6040BFBFF34F8FBFF36F8FFFF728
:1018000051FD0125284605B0BDE8F083DDF80480D0
:10181000B8F1000F03D1FFF745FD0025F2E717B936
:1018200002A800F02FFCFFF73DFD00F043FAFFF7A0
:101830002FFD94F84430FF2B08BF84F8446094F8DF
:101840004530FF2B08BF84F84560FFF72BFD01A949
:1018500002A800F023FC48BB2046FFF781FDF8B149
:1018600023683BB9FFF714FD606800F05BFC054698
:10187000FFF718FD019904F1240000F0A7FB2046B2
:10188000FFF7C1FD00F0B0FA40B94FF08053C9F83E
:10189000043040BFBFF34F8FBFF36F8F012793E733
:1018A0002046FFF7B0FD00F09FFAF7E72046FFF76C
:1018B000AAFD00F099FA2046FFF752FD0028EDD06E
:1018C000002D9FD0FFF7E4FC616A19B1236B196802
:1018D000C1F10401606800F0AFFC9CE700ED00E09E
:1018E00070B5044646680D4600F006FC864204D1F9
:1018F000E3680133E360012070BD29462046FFF70D
:1019000059FF0028F8D0E3680133E360F4E70000F2
:10191000054B1A6812B19A682AB9012243F83210AD
:1019200003EBC20358607047AC54002070B5044606
:101930000D461646FFF7ACFC94F84430FF2B04BF6D
:10194000002384F8443094F84530FF2B04BF002373
:1019500084F84530FFF7A6FCA36B2BB93246294625
:1019600004F1240000F042FB2046BDE87040FFF780
:101970004ABD0000064A13681968064B19B94FF0B2
:10198000FF321A6070471268D268D2685268F8E76E
:10199000A42A0020402B0020F8B51B4B1B4E1C68CE
:1019A0000546306804300F46FFF7D4FB334640B994
:1019B0003168174EC96A32680120884022EA000265
:1019C00032606A1C07D137B1196812480431BDE88A
:1019D000F840FFF79CBB1A686419546007D30E4A9D
:1019E00010681968BDE8F8400431FFF79CBB0B4A4A
:1019F000106819680431FFF796FB094B1A68A24278
:101A000088BF1C60F8BD00BF882B0020A02A0020E2
:101A1000102B0020602B0020A82A0020A42A0020E0
:101A2000402B002080B5154C154F164E23687BB90E
:101A3000154B1B68012B08D9144B4FF080525A608C
:101A400040BFBFF34F8FBFF36F8F04F08DFAECE709
:101A5000FFF71EFCFB68DD68281DFFF77BFB336882
:101A6000013B33602368013B2360FFF71BFC286BBD
:101A7000FFF73EFB2846FFF73BFBD7E7002B002094
:101A8000742B0020FC2A0020AC2A002000ED00E08E
:101A90002DE9F84F4FEA820A804650460D46994696
:101AA0000B9EFFF7FDFA0746002800F0A2804820B1
:101AB000FFF7F6FA0446002800F0988052460763C4
:101AC000A521384627F041FA236BAAF1040A9A446B
:101AD0002AF0070A6B1E04F13402033513F8011FC4
:101AE00002F8011B197809B1AB42F7D10A9D032D09
:101AF00028BF03254FF0000B271DE562C4E90E5BEC
:101B0000384684F837B0FFF7FFFAC5F1040504F151
:101B10001800FFF7F9FAC4F840B02461A5616462C7
:101B200084F844B04A4641465046FFF779FB2060AE
:101B300006B13460FFF7ACFB354B364E1A68DFF860
:101B40000C8101321A603268002A55D134601B685A
:101B5000012B22D13048DFF8F890304DFFF7C9FA59
:101B60002F48FFF7C6FA2F48FFF7C3FA2E48FFF7B2
:101B7000C0FA4846FFF7BDFA2846FFF7BAFA2B48E5
:101B8000FFF7B7FA2A48FFF7B4FA2A48FFF7B1FA85
:101B9000294BC3F80090294B1D60294A2949136835
:101BA000086801331360E26A012505FA02F3034372
:101BB0000B60194B142000FB02303946FFF7A7FADF
:101BC000FFF770FBD8F800306BB13368DA6AE36A6C
:101BD0009A4208D21C4B4FF080525A6040BFBFF36C
:101BE0004F8FBFF36F8F2846BDE8F88F3846FFF759
:101BF0007FFA4FF0FF35F6E7D8F80030002BCCD154
:101C00003368DA6AE36A9A4298BF3460C5E700BF76
:101C1000FC2A0020A02A0020AC2A0020282B00202B
:101C2000C02A0020D42A0020E82A0020482B0020C7
:101C3000742B0020602B0020A42A0020A82A00205A
:101C40000C2B0020102B002000ED00E05C2B00206E
:101C5000142B002013B5114B01930024009423464C
:101C60003C220F490F48FFF713FF012813D100F062
:101C700079FB01280FD1402383F311880A4B4FF0E1
:101C8000FF321A60094B1860094B1C6002B0BDE8B6
:101C90001040FFF7D7BA02B010BD00BF3C2B0020A8
:101CA00089BC0200251A0000402B00205C2B00207C
:101CB000882B0020024A136801331360704700BF6D
:101CC000082B0020014B1868704700BF882B0020AC
:101CD000014B1868704700BF882B00202DE9F84F92
:101CE000364B1B68002B62D1354B1C6801341C60DD
:101CF0005CB9344A344B116818681060334A196073
:101D0000136801331360FFF735FE314D314F2B68F7
:101D1000A3424FF0000B11D93A682F4BD16A14221D
:101D20004A439A58022A28BF4FF0010B2B4A1268E7
:101D3000002A0CBF58460120BDE8F88FDFF884A0C8
:101D4000DFF8A090DAF8002012681AB94FF0FF32DD
:101D50002A60E1E7DAF80020D268D66871688C4220
:101D600001D22960D8E706F104084046FFF7F2F9EE
:101D7000B16A19B106F11800FFF7ECF9F06AD9F869
:101D80000030012202FA00F11943134BC9F8001088
:101D90004FF0140C41460CFB0030FFF7B8F93868DF
:101DA000F16AC26A914228BF4FF0010BCAE70C4AA0
:101DB0001368013313604FF0000BB7E7082B0020C6
:101DC000882B0020A42A0020A82A0020442B0020D1
:101DD000402B0020A02A0020AC2A00208C2B0020C1
:101DE000042B0020102B00202DE9F843FFF750FAB8
:101DF0002A4B1A68013A1A601C682CB10024FFF7BC
:101E000051FA2046BDE8F883254B1B68002BF5D01E
:101E1000244D254EDFF8A4801FE0EB68DC6804F158
:101E2000040904F11800FFF795F94846FFF792F905
:101E3000E26A3168012707FA02F314200B4300FB22
:101E4000028049463360FFF762F9184BE26A1B686B
:101E5000DB6A9A4201D3164B1F602B68002BDCD142
:101E60000CB1FFF787FD134D2C6844B1104E0127CC
:101E7000FFF734FF00B13760013CF9D12C600C4B07
:101E80001B68002BBAD00C4B4FF080525A6040BFF9
:101E9000BFF34F8FBFF36F8F0124B0E7082B0020F3
:101EA000FC2A0020482B0020102B0020A02A002014
:101EB0008C2B0020042B002000ED00E0AC2A002039
:101EC00010B5FFF7F7FE104B04681A6863182CBFB3
:101ED00001210021944203600DD969B9FFF784FF05
:101EE00040B90A4B4FF080525A6040BFBFF34F8F4A
:101EF000BFF36F8F10BD09B99A42EFD20021981A33
:101F0000FFF74AFDEAE700BF882B002000ED00E064
:101F100008B548B9094B4FF080525A6040BFBFF333
:101F20004F8FBFF36F8F08BDFFF7C4FE0021FFF78F
:101F300033FDFFF759FF0028ECD0F4E700ED00E097
:101F400070B51D4B1A681D4B12B101221A6070BD8D
:101F50001B4C1A6023681B6B1A68B2F1A53F0BD1AA
:101F60005A68B2F1A53F07D19A68B2F1A53F03D1F3
:101F7000DB68B3F1A53F04D020682168343103F059
:101F8000F5FF104B10491B68B3FA83F3C3F11F032D
:101F9000142000FB03F28D1808326E6876686E60BC
:101FA0000A44964204BF72686A6000FB03135B68D0
:101FB000DB682360CBE700BF082B00208C2B0020C0
:101FC000A02A0020102B0020AC2A002010B5064BC0
:101FD0000C4619681831FFF7A6F820460121BDE824
:101FE0001040FFF7D9BC00BFA02A002038B5084B2D
:101FF0000D46196814461831FFF789F8002C214660
:102000000CBF28464FF0FF30BDE83840FFF7C4BC96
:10201000A02A002038B5C368DC6804F118052846FA
:10202000FFF798F8114B1B68E3B9251D2846FFF709
:1020300091F80F49E26A08680123934003430B605B
:102040000C4B1420294600FB0230FFF760F80A4BC6
:10205000E26A1B68DB6A9A4283BF084B0120186062
:10206000002038BD29460648EFE700BF082B0020B6
:10207000102B0020AC2A0020A02A00208C2B00204E
:10208000482B0020034B1B680360034B1B68436015
:10209000704700BF442B0020882B002070B50C46F1
:1020A0000546FFF7F5F80F4B1A682368591C0FD047
:1020B0000D482E6800686968864201D091420ED9A9
:1020C000521A934209D99B1A23602846FFF7DAFF78
:1020D0000024FFF7E7F8204670BD002323600124A9
:1020E000F7E700BF882B0020442B0020014B012282
:1020F0001A6070478C2B0020014B1868704700BF96
:10210000A02A0020054B1B6833B1054B1B68002B30
:102110000CBF022000207047012070475C2B00207C
:10212000082B00202DE9F041044658B3234AC36A26
:102130001168C96A8B42174638D28269204D002A3D
:10214000A1BF3A68D26AC2F10402826114264269D0
:1021500006FB03539A4217D100F104084046FEF7EC
:10216000F9FF184BB0B13A681968D26AE2620124EB
:1021700004FA02F0084318601420414600FB0250A4
:10218000FEF7C5FF204603E03B68DB6AC36201201F
:10219000BDE8F081E06A4643AA59002AE3D11A68F3
:1021A0000121814022EA01021A60DCE71368806B9A
:1021B000DC6AA0422CBF00200120E9E7A02A002011
:1021C000AC2A0020102B0020F8B5044608B90020E6
:1021D000F8BDC36BC16A826B013B9142C363F6D009
:1021E000002BF4D1051D2846FEF7B4FF104E114A0E
:1021F00050B9E76A1421794373582BB91368012049
:10220000B84023EA00031360A36BE362C3F1040147
:10221000A1611168012404FA03F00843106014203E
:1022200000FB03602946FEF772FF2046D0E700BF9F
:10223000AC2A0020102B0020F8B50446002836D028
:10224000836B994238BF1946C36A8B422FD0C26B49
:10225000012A2CD18269164DC162002A4FF0140662
:102260004269A8BFC1F1040106FB0353A8BF816105
:102270009A421CD1071D3846FEF76CFFE26A0D4CEE
:1022800040B95643AB592BB923680121914023EA49
:10229000010323602168012393400B432360142032
:1022A000394600FB0250BDE8F840FEF730BFF8BDEC
:1022B000AC2A0020102B0020044B1A681AB11968B0
:1022C000CA6B0132CA631868704700BFA02A002099
:1022D000F8B50F4CFEF7DCFF2568ADB90D4F0E4E7B
:1022E0003846FEF706FF3046FEF703FF0B4B1F6034
:1022F0000B4B2A46102120201E60FFF7F3F82060C8
:1023000010B10849FFF704FBBDE8F840FEF7CABF6B
:10231000C42B0020982B0020AC2B0020902B0020F9
:10232000942B00201DA80200914208B54160006175
:102330000AD8D21A83699A420DD2084B011D186837
:10234000FEF7F1FE002008BD9A4201D2994202D266
:10235000011D034BF3E70120F5E700BF942B00209C
:10236000902B002007B5FFF7B3FF084B186848B162
:10237000074B01930323009350220023054906488D
:10238000FFF786FB03B05DF804FB00BFC42B002001
:10239000C82B002022A802007D2400002DE9F04176
:1023A000804628200F4616461D46FEF779FE044655
:1023B00058B1FFF78DFF069BC4F80080C4E906768C
:1023C00025626362201DFEF79FFE2046BDE8F08176
:1023D0007FB50F4C0546206816461A4680B1052980
:1023E000CDE9001602950DDCFFF78CFE00230228D4
:1023F00008BF089A206818BF1A466946FFF78AF88E
:1024000004B070BD00236946FFF72AF9F8E700BF62
:10241000C42B00202DE9F341164D4FF000082B6826
:102420001A6832B9144A11682960136002B0BDE815
:10243000F081DB68DC681E68271D3846FEF78AFEDF
:10244000636A20469847E369012BE8D1A3693344C6
:102450009E4206D26360246139462868FEF763FE17
:10246000DDE70023CDF80080324619462046FFF70D
:10247000AFFFD4E7902B0020942B00202DE9F04FE4
:102480005B4D89B0A9464FF0000A2A681368002BFB
:102490004AD0D268D2F800B0564C0393FFF70AFC3A
:1024A000FFF710FC2268544E039B9042804627465B
:1024B0003CD2FFF7AFFFC4F80080FFF795FC4FF068
:1024C000010B002204A93068FFF7FAF80028DCD0DD
:1024D000049B002B03DADDE90601059B9847049B6A
:1024E000002BEEDB069C636913B1201DFEF732FE64
:1024F000FFF7E8FB3B689842024603D20390FFF7E0
:1025000089FF039A049B3A60092BDAD80BFA03F38C
:1025100013F4047863D113F0C70F46D19B06D0D5CE
:102520002046FEF7E5FDCCE79B46B5E720600BB300
:10253000834538D8FFF758FCD9F80030DB68DC68F1
:10254000201DFEF707FEE369012B0FD1A1695B4651
:10255000424659442046FFF7E7FE38B10023CDF844
:1025600000A05A4619462046FFF732FF636A20460C
:102570009847A4E7214B1B681A68B2FA82F2520905
:10258000ABEB08013068FFF7D1F9FFF72DFC00280D
:1025900095D11B4B4FF080525A6040BFBFF34F8F15
:1025A000BFF36F8F8BE70022EAE7A169059B204606
:1025B0001944FFF7B9FE002883D0636A2046984784
:1025C000E369012B7FF47DAFA2690599CDF8008006
:1025D0000A44434641462046FFF7FAFE71E7059953
:1025E000A161134611442046FFF79EFE69E700BF34
:1025F000902B0020C02B0020C42B0020942B002007
:1026000000ED00E010B50446FEF742FE64690034B8
:1026100018BF0124FEF746FE204610BD10B5044643
:10262000FEF736FE246AFEF73DFE204610BD000090
:102630000D4930B5A1F5BC720225914201D80020A8
:102640000EE08B1ADB1093FBF5F302EBC30452F898
:102650003330834205DC02DA04F10802EDE76068FA
:1026600030BD2146E9E700BFBCAC020008B5FFF76A
:10267000DFFF024B002808BF184608BD2AA8020049
:1026800013B502AC002304F8053D01939DF8033017
:10269000032B08D904210DEB010001F085FE30B9B0
:1026A000019802B010BD204601F074FEEEE7002054
:1026B000F7E708B500F0A8FA00F090F8002001F064
:1026C00039FE20B1852802D000F0DEF8FCE7FFF7E4
:1026D000D7FF26F009FF01F0E7FE10B900F0D4F8AB
:1026E000FCE708BD01F0C2BB08B500F0CDF8FCE77F
:1026F00062B6704772B67047FFF7C2BF00F0CABA41
:1027000038B50D4614465AB151B148B101F010FF29
:102710002946204601F0E2FE10B900F0B5F8FCE7CA
:1027200038BDEFF30580003018BF0120704700006E
:10273000F7B54FF0805300251C6E596E04F0FF076B
:1027400045EA010206A5D5E9004502A9224347EA68
:10275000050361E90223082226F0D3FB03B0F0BD94
:10276000000000000036CEF400487047CC2B00205B
:102770007047704708B501F0FDFD0748074A037828
:10278000D35C23B10430BDE8084002F0B1BF0C3087
:10279000BDE8084002F05CBD00000020BC540020F1
:1027A00008B5002001F0C6FD10B100F06DF8FCE79F
:1027B000BDE80840FDF77ABE10B5044658B1FFF7F2
:1027C000D9FF204600F082FA01F066FB00F09CFA87
:1027D0000446FFF7E5FF204610BD000008B509F0EC
:1027E00003FC48B9054B1B7813B9054B1B781BB18B
:1027F000BDE8084009F0FEBB08BD00BFC9010020CC
:10280000CC0100202DE9F84307460E4609F0ECFB09
:1028100058B1184C184BDFF86890DFF86880E41A5C
:10282000E408240444F003040EB9BDE8F883D9F8A1
:102830000000C0F10805B542A8BF35462A46394612
:10284000404426F05EFBD9F800202A44082AC9F843
:1028500000202F44A6EB0506E6D1084B5B88022B2F
:1028600003D941462046FEF7A9F90023C9F80030F4
:10287000DAE700BFB0CC020038CC02004C040020E4
:10288000182C0020102C002010B50C4C226882B1AE
:102890000B4B5B88022B0AD90A480B4B0B49C01A19
:1028A000C008000492B240F00300FEF787F900234D
:1028B0002360BDE81040FDF7C3BF00BF182C002007
:1028C0004C040020B0CC020038CC0200102C0020B8
:1028D0000378022B01D809F09BBB70474FF01023FF
:1028E00058694FF08053411C1A695B6908BF03FBAC
:1028F00002F0A0F5A040704710B54FF010234FF044
:1029000080525B69116952690B4C581C08BF02FB6D
:1029100001F32361FFF7E2FF084BE0600022084962
:10292000C3F80821204600F0F1FF18B1BDE81040BF
:10293000FFF7DABE10BD00BF900400201C2C002061
:10294000F0AE02004FF4005070470220704708B507
:1029500013460A4631B143B10146184626F0D1FA72
:10296000002008BD6FF00A00FBE76FF00B00F8E7EE
:102970000128F8B507460C4616461D4610D80B44EC
:10298000B3F5005F0FD28AB19DB1FFF7A7FF04EB4B
:10299000473101442A46304626F0B3FA0020F8BDFC
:1029A0006FF03800FBE76FF01600F8E76FF00B00F0
:1029B000F5E76FF00C00F2E70128F7B507460C4683
:1029C00016461D4624D80B44B3F5005F23D22AB324
:1029D000AB0826D0FFF782FF04EB4734044409F02C
:1029E0001FFB07460028FAD109F00AFB2146009791
:1029F0002B4632460C4800F0C5FF044609F010FB98
:102A00000028FBD1201C18BF0120404203B0F0BDBC
:102A10006FF03800FAE76FF01600F7E76FF00B0081
:102A2000F4E76FF00C00F1E79004002001282DE995
:102A3000F041064624D8FFF751FFDFF8508000EB45
:102A4000463505F5005709F0EBFA04460028FAD19F
:102A500009F0D6FA234601222946404601F052F8F1
:102A600088B909F0DDFA04460028FAD105F5805549
:102A7000BD42E8D1304609F0DBFA2046BDE8F081DE
:102A80006FF03800FAE74FF0FF30F7E790040020CE
:102A900010B5084CD4F8083153B19BB22246D4F893
:102AA000041194F80001FFF787FF0023C4F80831F0
:102AB00010BD00BF1C2C00202DE9F8431C4C1E4605
:102AC000D4F8083181460F4690466BB194F8002146
:102AD000824207D1D4F804211A44914202D1B3F5BD
:102AE000807F01D1FFF7D4FFD4F8080118B984F82A
:102AF0000091C4F80471C0F58075B54234BFADB221
:102B000035464DB12A464146204426F0FAF9D4F81C
:102B100008312B44C4F80831761BB6B216B93046DA
:102B2000BDE8F883FFF7B4FF2F44A844DCE700BFFB
:102B30001C2C002007B50C4B18680090FFF7CEFE48
:102B4000042200F580410DEB020026F0DAF90422A0
:102B500069460DEB020026F0C5F9B0FA80F0400995
:102B600003B05DF804FB00BFC2AC020038B50546F7
:102B70000C46FFF7B3FE00F580402A46214604309C
:102B8000BDE83840FFF7E3BE70B506460D46144673
:102B9000FFF7A4FE04F5804404343246294620445D
:102BA000BDE87040FFF7D3BE00487047C8AC0200D4
:102BB0000422032102708170002206214270C1703C
:102BC000426070477047B0F5A27F01D109F032BA78
:102BD0007047000010B5084CFFF78CFD2378012BDF
:102BE00005D1FFF7E1FF02F0C1F800232370BDE833
:102BF0001040FFF77DBD00BF402D0020014B18782D
:102C0000704700BF402D00201FB502A8FFF7D0FF7E
:102C1000FFF7CAFF104A02A902F022F808B1FFF735
:102C200063FDFFF7C1FF0368D3F81045FFF7BCFF52
:102C3000E2B24FF47031012421FA02F2022321465C
:102C4000009402F0EFF8FFF7AFFF02F075F8034BC6
:102C50001C7004B010BD00BFC72B0000402D002029
:102C600008B5FFF747FD0A4B1B782BB9FFF7CCFFE0
:102C7000BDE80840FFF73CBDFFF796FF02F09EF865
:102C80000028F5D1FFF790FF02F056F8F0E700BFFB
:102C9000402D002038B5FFF72DFD0B4B1B78012B85
:102CA0000FD1FFF781FF022102F094F804460CF0E7
:102CB0005DFF0546FFF71CFD4FF4705000FB05401B
:102CC00038BD0024F3E700BF402D002010B50446B6
:102CD00025F054FF094B186074B1094B094A18607C
:102CE0004FF47A706043002158609A60D9601846AA
:102CF000BDE8104025F04EBF10BD00BF282D0020BC
:102D00002C2D0020C52B000008B525F037FF054B02
:102D10001B68C3F57973033318444FF47A73B0FB1F
:102D2000F3F008BD282D002030B50F4D8BB021F0F9
:102D30005BFE0FCD01AC0FC40FCD0FC42B68236019
:102D400001A824F0B3FBFFF713FD012021F0BEFE24
:102D500021F070FE032801D121F078FE012021F03E
:102D6000B7FE0BB030BD00BFD0AC020021F038BEC2
:102D700007B502AB23F8020D184621F02FFE03B071
:102D80005DF804FB07B502AB23F8020D184621F0ED
:102D900029FE03B05DF804FB10B54FF470544443B2
:102DA000204621F070FE0028FAD010BD21F000BEB0
:102DB00021F00DBE10B5044621F00BFE207010BDB1
:102DC000003018BF012021F081BE003018BF012063
:102DD00021F07ABE08B921F03CBE21F042BE08B510
:102DE00021F028FEC31E5842584108BD08B521F005
:102DF00021FE023818BF012008BD10B50446012C81
:102E0000104603D0042C05D0002002E021F062FE21
:102E1000204610BD0021BDE8104021F028BE10B5AD
:102E20000C46FFF7A1FC036A013303622046BDE8AC
:102E3000104004F015BA21F02BBE10B50C4607293E
:102E400042D8DFE801F004171D23292F353BFFF797
:102E50008BFC436A01334362012000FA04F414F04E
:102E6000DA0F03D114F0240F2ED00420BDE8104057
:102E700004F030BAFFF778FC836A01338362EBE732
:102E8000FFF772FCC36A0133C362E5E7FFF76CFC2E
:102E9000036B01330363DFE7FFF766FC436B01332A
:102EA0004363D9E7FFF760FC836B01338363D3E7A8
:102EB000FFF75AFCC36B0133C363CDE7FFF754FC44
:102EC000036C01330364C7E710BD2DE9F0410546EB
:102ED0000E4617469846FFF747FC04680134046025
:102EE00043463A4631462846BDE8F04104F016BA5A
:102EF00008B506280AD8DFE800F0040D13191F25CD
:102F00002B00FFF731FC436801334360134B002271
:102F10001A6008BDFFF728FC836801338360F5E77A
:102F2000FFF722FCC3680133C360EFE7FFF71CFC27
:102F3000036901330361E9E7FFF716FC43690133D5
:102F40004361E3E7FFF710FC836901338361DDE749
:102F5000FFF70AFCC3690133C361D7E7B8600020FB
:102F6000C30710B507D4F0234008054A145C23407A
:102F70001943115410BD0901C9B20F23F4E700BF72
:102F8000702D002030B5094B1C78094B19680023BF
:102F90009C4202DC0022104630BD11F833508542BD
:102FA00001EBC302F7D00133F2E700BF412D00204F
:102FB000902D002070B504460D46FFF7E3FF30B1B9
:102FC000436823B129462046BDE87040184770BDCC
:102FD000034B044819680022490800F07FB900BF7C
:102FE000442D0020482D002010B5C0B2FFF7CAFFC5
:102FF0000446007801F0B4FC63785A1E53425341F2
:10300000834208D1044BD3E90023134303D1BDE825
:103010001040FFF7DDBF10BD682D00202DE9F048FE
:10302000384A43080446D35CC2074CBF1B0903F06F
:103030000F030D46042B63D8DFE803F003262F3B74
:103040003E0000295CD00121FFF78AFF002000F03C
:10305000E5F92D4E0121A4F12007C4F1200521FA44
:1030600005F501FA07FC4CEA050C01FA04FBD6E968
:1030700000454BEA04024CEA0503C6E900230020A0
:10308000BDE8F04800F0CCB9002914BF02210021AE
:103090002046BDE8F048FFF763BF41B10321FFF7C9
:1030A0005FFF20460121BDE8F048FFF783BF012103
:1030B000EEE729BB0421EBE709B10321E8E7FFF7BD
:1030C0004FFF29462046FFF775FF284600F0A6F976
:1030D0000D4E0121A4F12007C4F1200001FA07FCE4
:1030E00021FA00F04CEA000C01FA04FBD6E90001D9
:1030F00020EA0B0221EA0C03C6E900232846BFE7B9
:10310000BDE8F088702D0020682D00202DE9F041E9
:10311000124E134F00243378A34208DC114BD3E93D
:103120000023134318D0BDE8F041FFF751BF3D68BD
:1031300005EBC40815F8340001F012FC98F80110F2
:103140004B1E594259410A1A514215F83400514157
:10315000FFF764FF0134DEE7BDE8F081412D002078
:10316000902D0020682D0020092AF7B505460C4651
:1031700016463FD901F01AFBD8B11F4B1F481D60FE
:103180001F4B204F1C70204B002120221E6025F079
:10319000DCFE1E4B00200021C3E90001013CE4B22B
:1031A0000326FF2C0BD11A4A1A48002100F068F8B8
:1031B00003E001F0C5FA0028DFD003B0F0BD9DF8B0
:1031C00006308DF8046020B203F0FC0305EBC0026A
:1031D0006FF382038DF80630937815F830008DF880
:1031E00005303A4601A901F0EBFA013CE4B20028AF
:1031F000D7D0E2E70720E0E7902D0020702D0020D7
:10320000412D0020E92F0000442D0020682D0020D2
:103210000D310000F4AC020070B5084D084E0024DA
:103220002B789C4201D3002070BD3368012113F834
:10323000340001F04BFB0134F2E700BF412D0020C8
:10324000902D00201FB50021039001AA44F2010037
:10325000CDE90111FFF78DFA05B05DF804FB10B55B
:10326000FFF7DCF9037B43B1437B83F00103037376
:10327000BDE8104083680068184710BD0020704703
:1032800073B50E460468154602B3237B03BB616821
:10329000F1B91022204625F058FE002E0CBF012364
:1032A000002363730B4BA56018BF0122009308BF76
:1032B000002223464FF47A710748FFF76FF8002881
:1032C000606014BF00200E2002B070BD0720FBE735
:1032D0000820F9E75F3200007CA702002DE9F043E7
:1032E000446885B005468946002C50D0077B0FB155
:1032F00000203CE00260EFF3058323B304AE0A46EE
:1033000046F8047D0921009733462046FFF760F810
:1033100001282BD1FEF7DCFC00970246334606213C
:103320002046FFF755F8012820D1039B43B1194BE4
:103330004FF080525A6040BFBFF34F8FBFF36F8F83
:1033400001232B73D4E72046FFF75CF906460028DB
:10335000CED14FF002080346CDF800804A46042142
:103360002046FFF735F80128074603D0042005B0B2
:10337000BDE8F083FEF7A6FCCDF800800246334698
:1033800039462046FFF724F80128D9D0EEE7082077
:10339000EDE700BF00ED00E01FB50446406830B324
:1033A000EFF30583D3B104AB002243F8042D0821C9
:1033B0000092FFF70DF8012801D004200CE0039BD8
:1033C00043B10C4B4FF080525A6040BFBFF34F8F58
:1033D000BFF36F8F0020207304B010BD0222009253
:1033E00003211A46FEF7F4FF0128F3D0E5E7082091
:1033F000F2E700BF00ED00E072B6024A1368013345
:1034000013607047942D0020034A1368013B13603A
:1034100003B962B6704700BF942D0020FFF7ECBFE0
:10342000FFF7F2BF50E8002F0B4640E8003C9CF04D
:10343000000FF7D11046704750E8002F42EA010311
:1034400040E8003C9CF0000FF6D11046704750E871
:10345000003F43EA010240E8002C9CF0000FF6D147
:103460001046704750E8002F02EA010340E8003C94
:103470009CF0000FF6D11046704750E8003F03EA79
:10348000010240E8002C9CF0000FF6D11046704776
:1034900050E8003F03EB010240E8002C9CF0000FD5
:1034A000F6D11046704750E8003FA3EB010240E818
:1034B000002C9CF0000FF6D1104670470121FFF759
:1034C000BBBF0121FFF7C3BF0021FFF7CBBF002126
:1034D000FFF7D3BF10B590B1D0E9012301689B1A63
:1034E000DBB20A60013BDBB2FF2B026802D1002095
:1034F000107110BD11684C1C14600B70F2E70E20A7
:10350000F7E738B504460020FFF788FF22686168B6
:1035100013688B4215D9591E116013F8015CA28AF9
:10352000E36802FB05352268A36811685B1A11790C
:10353000DBB2994200D213710020FFF771FF2846D9
:1035400038BD0025F8E738B5054600200C46FFF7E2
:1035500065FF2A681368591C1160E968641AA98A12
:10356000B4FBF1F41C700020BDE83840FFF758BFF1
:1035700010B5826804462AB143690168006998471A
:103580000023A36010BD0EB403B5039929B102AAAC
:1035900004AB42F8043D00F073F802B05DF804EBB0
:1035A00003B070470A2938B504460D4602D10D21F3
:1035B000FFF7F8FFA3682268591CA160D554D4E92D
:1035C00001329A4204D32046BDE83840FFF7D0BF0D
:1035D00038BD00002DE9F84F9946DDE90A4317464A
:1035E000824688460A460126BA420FD24E4538BF67
:1035F0004E4613F0010B01D164B900240125B9F145
:10360000010F1AD909F1FF397D43F8E7B2FBF7F250
:103610000136E9E79B070ED5B9F1000F0CBF302545
:103620002025A642EAD2013C29465046FFF7BAFFC0
:10363000002CF6D1E1E72025F3E7B8FBF5F39F4234
:10364000E2D9DFF83890B8FBF5F3504619F80310CB
:1036500005FB1388FFF7A6FFB5FBF7F5002DF2D1A8
:10366000BBF1000F02D00CB1A64201D3BDE8F88F28
:1036700020215046013CFFF795FFF4E703AD02001F
:103680002DE9F74F054690460E46002900F03A8195
:1036900016F8011B002958D0252940F0D1800027B9
:1036A00002E047F001071646324612F8013B2D2B87
:1036B000F7D0302B04D02B2B05D147F00407F2E7CD
:1036C00047F00207EFE700242A2B06F101021BD185
:1036D000D8F80030191DC8F800101B6816461C44A5
:1036E00033782E2B1CD101364FF0000A314611F8E9
:1036F000012BA2F13000092814D80A2303FB0A2366
:10370000A3F1300A0E46F1E712F8013CA3F13001B3
:103710000929E5D80A2101FB0434303C1646D3E7D9
:103720004FF0000A324612F8011B01F0FB00682836
:103730001646F8D0692916D054D8582970D00ED81A
:1037400025297DD03378002BA2D12B7B002B00F0D4
:10375000D980284603B0BDE8F04FFFF709BF6329C1
:1037600068D06429EED1D8F80020111DC8F80010E7
:10377000D2F8009089EAE972A2EBE9724FF0010BEE
:10378000092A61DCD34538BFD3462CB1B9F1000F0B
:1037900001DB790700D5013CBA0702D5BAF1000F69
:1037A00004D0FB0702D4002C54D10024B9F1000F3F
:1037B00058DAC9F100092D212846FFF7F3FE07F07A
:1037C0000302022A05D1BAF1000F02D1002C4DD11B
:1037D0000024CDE9004753460A2249462846FFF710
:1037E000F9FEAFE7732954D016D87029AAD1D8F8BA
:1037F00000301A1DC8F80020302128461C68FFF749
:10380000D1FE78212846FFF7CDFE00220823CDE91E
:10381000003221461022E1E775292FD0782991D175
:10382000D8F800100A1DC8F80020CDE9004753461B
:1038300010222CE0D8F800301A1DC8F800201978A2
:103840002846FFF7AFFE7DE70A230BF1010B92FB41
:10385000F3F295E7A345A9D220212846013CFFF7C2
:10386000A1FEA0E77807AAD52B21A5E7A345B0D2F2
:1038700030212846013CFFF795FEA7E7D8F8001055
:10388000CDE900470A1DC8F8002053460A220968FE
:10389000A4E7D8F800301A1DC8F80020F907D3F8BB
:1038A000009012D54F46A7EB090B17F8011B41B941
:1038B000A345BFF447AF20212846013CFFF772FE25
:1038C000F6E72846FFF76EFEEDE7B9F1000F17D0D7
:1038D000484625F09DFE0746BC4200D954B909F17F
:1038E000FF3919F8011F00293FF42CAF2846FFF7D4
:1038F00059FEF6E720212846013CFFF753FEEBE78F
:103900004F46E9E703B0BDE8F08F000007B50B466E
:10391000A0B9154B5B886BB1144B1548154AC01AFA
:103920000E23C0080093144B0004144940F001001A
:10393000FDF72AF90E2003B05DF804FB6BB90A4BC2
:103940005B88002BF6D0094B09480D4AC01AC00805
:103950000E2300930004084BE7E703601B68114641
:1039600003B05DF804EB18473C04002038CC02009B
:1039700090CC0200C0AD020013AD0200C5AD020044
:103980003CAE02002DE9F3419646B0B9504B5B883E
:10399000002B00F095804F4B4F48504AC01AC0088A
:1039A0000E244F4B009400044E4940F00100FDF7F7
:1039B000EBF8204602B0BDE8F0816AB9444B5B8861
:1039C000002B7DD0434B4448474AC01AC0080E2400
:1039D00000040094424BE7E7D0F800C0BCF1000FB0
:1039E0000DD13B4B5B88002B6CD03A4B3A483F4A99
:1039F000C01AC008082400040094394BD4E76BB9FE
:103A0000334B5B88002B5FD0324B3348384AC01AA7
:103A1000C008092400040094314BC5E74768D7F873
:103A20000480B3FBF8F708FB17376FB1284B5B88AE
:103A3000002B49D0274B28482E4AC01AC008092419
:103A400000040094264BAFE78F070DD0204B5B8816
:103A5000002B3BD01F4B2048274AC01AC008102417
:103A6000000400941E4B9FE712F0030F0CD0184B7C
:103A70005B885BB3174B1848204AC01AC008102453
:103A800000040094164B8FE7C768B9420BD34C1E55
:103A900005691C44AC4206D8DCF80C40A44602B0D0
:103AA000BDE8F04160470A4B5B887BB1094B0A488F
:103AB000134AC01AC008102400040094084B73E78E
:103AC0000E2476E7082474E7092472E7102470E7CF
:103AD0003C04002038CC020090CC0200C0AD0200B3
:103AE00025AD0200C5AD020042AE020036AE0200B6
:103AF000F5AD020048AE020072AE02008AAE0200CE
:103B0000ADAE0200F7B5A0B9374B5B88002B63D090
:103B1000364B3748374AC01AC0080E24364B00943B
:103B20000004364940F00100FDF72EF8204603B0AE
:103B3000F0BDD0F800C0BCF1000F0DD12A4B5B885E
:103B4000002B4BD0294B2A482D4AC01AC008082404
:103B500000040094284BE4E76AB9234B5B88002BF0
:103B60003ED0224B2248274AC01AC008092400042C
:103B70000094214BD5E74768D7F800E00EF1FF37F6
:103B80000F420CD0184B5B8863B3184B18481E4A81
:103B9000C01AC008102400040094174BC1E7C7687E
:103BA000B9420CD34C1E05690EFB0244AC4206D848
:103BB000DCF81040A44603B0BDE8F04060470A4B73
:103BC0005B887BB1094B0A48104AC01AC008102410
:103BD00000040094084BA4E70E24A7E70824A5E7F7
:103BE0000924A3E71024A1E73C04002038CC0200FC
:103BF00090CC0200C0AD020038AD0200C5AD02009D
:103C000036AE0200F5AD02004BAD020071AD020010
:103C1000014B436000207047E4AE02000846704745
:103C200000207047024B1868003018BF0120704711
:103C3000982D002008B50248FFF749FC002008BD78
:103C4000982D002008B510461A4625F05AF9002094
:103C500008BD00002DE9F041804686B013480E46AD
:103C600015461F46FFF72AFC044630B1112018E024
:103C700006EB043000F06CFC0134A542F8D10B488F
:103C8000FFF725FCD8F8083000246BB10222684603
:103C90008DF80020CDE90146CDE903450597984709
:103CA000204606B0BDE8F0811846FAE7982D0020BE
:103CB0002DE9F041804686B012480F4616461D4653
:103CC000FFF7FCFB0446D8B9AA083146384600F095
:103CD00057FC0C48FFF7FBFBD8F8083073B1012202
:103CE0008DF800200C9A05926846CDE90147CDE990
:103CF00003659847204606B0BDE8F0811846FAE70C
:103D00001120F8E7982D00202DE9F047B0F8069033
:103D10004479D2F800A09DF8208009FB04F4043C0B
:103D200006460AEB0300A0420F4688BFA4EB030A35
:103D3000191DC2F800A0B1FBF9F509FB15114DB929
:103D4000A9EB0104544528BF5446BAF1000F04D131
:103D5000BDE8F0873668013DF1E704317B19701842
:103D60002246B8F1000F0ED001461846AAEB040A0D
:103D700025F0C7F8D145254436684C464FF0000180
:103D800028BF5446E1E71946F0E7FFF7A3BBF8B5B3
:103D900046790146721E0546002393422D6803D3DF
:103DA0000024A64202D8F8BD0133F6E70F68284682
:103DB000FFF7C9FB01343946F3E72DE9F843CD1C81
:103DC000868A0746FFF79DFB043E35440446B5FB53
:103DD000F6F5F0B14FF48073EDB28380C680013DFB
:103DE000076081464FF00008A84512D23846FFF719
:103DF00088FB064648B163790133637108F1010815
:103E0000C9F8000007608146EEE72046FFF7BFFFD4
:103E100034462046BDE8F88301210430FFF738BB63
:103E200010B5012104460430FFF73DFB10F0FF0FF1
:103E300004D12046BDE81040FFF7A9BF10BD1FB553
:103E400004AC44F8042D002200922246FFF75CFFE8
:103E500004B010BD1FB504AC44F8042D012200923B
:103E60002246FFF751FF04B010BD0000064B10B50D
:103E700000241C70054B1C60BFF35F8F044905488C
:103E800000F068F9204610BDA42D0020A82D0020C8
:103E900010AF02009C2D002008B50020FFF7BEFAED
:103EA000F1EE103A23F09F03E1EE103ABFF35F8F7B
:103EB000054B4022C3F884210020FFF7B1FA20BF50
:103EC00040BF20BF08BD00BF00E100E002681368EA
:103ED0005268934291BFD01A80680130801888BF21
:103EE000C01A70472DE9F04103681F681D685B68C0
:103EF0009D4284BF83680133164688465D1BC268B5
:103F00004168AE42044607FB02110CD8724340469A
:103F100024F0F7FFA3683E449E4288BF0026236832
:103F20001E60BDE8F08105FB02F73A46404624F0EA
:103F3000E8FFE2686168751B6A4308EB070024F03C
:103F4000E0FF23681D60ECE7036881681A685B681E
:103F50008B4234BF01330023D31A58425841704773
:103F6000F8B5044600200D46FFF758FA2046FFF743
:103F7000EBFF10B1237C002B3DD12168A6684B6874
:103F80004A68B24234BF013200224A6038B1216827
:103F9000A0680A68824234BF013200220A60E268E7
:103FA0006068511E072920D8DFE801F004101F14B3
:103FB0001F1F1F182A78C2542046FFF787FF236867
:103FC0009A68824200D29860002415E02A8820F87E
:103FD0001320F1E72A6840F82320EDE7D5E90067D0
:103FE00000EBC300C0E90067E6E7294602FB0300D7
:103FF00024F087FFE0E704240020FFF711FA2046B1
:10400000F8BD70B505460E46144682B10020FFF794
:1040100005FA2846FFF75AFFA0420AD32246314646
:104020002846FFF75FFF00240020FFF7F9F920463C
:1040300070BD0524F8E710B504460020FFF7EEF93F
:1040400020680C22002124F080FF0020BDE81040F1
:10405000FFF7E6B910B504460020FFF7DFF9204668
:10406000FFF734FF04460020FFF7DAF9204610BDC1
:10407000826800239360826813618268536182685A
:10408000D36082685360826813607047F8B5054654
:104090000F4616461C4683B9AB686868D3E903131C
:1040A00000F1010CCA1A62450ED10027376014B323
:1040B000A868FFF70CFA0020F8BD8068FFF7FEF94A
:1040C0000028E9D01120F7E701EA000218408242F7
:1040D00036BF6344ACEB02035B1A3168994294BF6C
:1040E000316033602B6813443B60AA683168D36841
:1040F0000B44D360DFE72046DEE738B584684368C9
:104100002569A26801332B449B1A8B420CD30A44C5
:10411000A26083689A68DA608068FFF7D5F90028A2
:104120000CBF0820002038BD0420FCE710B58268D1
:1041300013699468E41A8C420AD30B4413618368B0
:104140001A695A6180680430FFF7C1F9002010BD78
:104150000420FCE701600B6843604A68934204BF97
:104160000023436070470B7B23B14B68036000233F
:10417000037170470B6803600123F9E710B503680A
:104180004A688968D41A8C428BBF5B18002303608D
:10419000026098BF037110BD10B503680A68896892
:1041A0009C1A8C428BBF5B1A01230360026098BF8C
:1041B000037110BD10B5037904461BB1FFF7DEFF94
:1041C000206810BDFFF7E8FFFAE7000038B5084C9B
:1041D00004F108030546002818BF1C4623682BB1CC
:1041E0001A6822605B6828469847F7E738BD00BF29
:1041F000B42D002020B9054B01225A70FFF7E6BF0D
:10420000012802D1014A9070F8E77047AC2D0020D8
:1042100038B5094C23786BB908486360A360236103
:10422000E36000F0CDF9054600F0D6F901232370D4
:10423000284638BD8525FBE7AC2D0020F541000060
:1042400038B5134CA378054603F0FF0073B115B1E0
:104250006B68012098470020FFF7E0F8E36801331E
:10426000E3600020BDE83840FFF7DAB8FFF7D6F882
:1042700025B1226913463BB92A602561E368002B0A
:10428000ECD100F0BBF9E9E79D42F7D01B68F2E7FB
:10429000AC2D002038B5134C6378054603F0FF00C1
:1042A00073B115B16B68002098470020FFF7B6F88E
:1042B0006368013363600020BDE83840FFF7B0B8A1
:1042C000FFF7ACF825B1A26813463BB92A60A56098
:1042D0006368002BECD100F0A3F9E9E79D42F7D029
:1042E0001B68F2E7AC2D002038B5084C0020FFF722
:1042F00095F86368013B6360656815B900F0A2F941
:1043000065700020BDE83840FFF78AB8AC2D00206A
:1043100007B502A901F8010D0548FFF721FE044881
:10432000FFF712FE08B100F069FC03B05DF804FB72
:1043300020CC020038B50C4D2B7893B90B4B0C49AF
:10434000002808BF18460388284620F8013F00F0DF
:1043500015FC044618B900F03FFC01232B702046E1
:1043600038BD8524FBE700BF102E00202BAF0200D4
:104370001143000008B500F041FC00F047FC034881
:10438000FFF759FE024B00221A7008BD20CC020034
:10439000102E002010B504460248FFF75BFE207087
:1043A00010BD00BF20CC020010B50A4601460448EB
:1043B000FFF727FE044600F00FFC204610BD00BFAB
:1043C00020CC02001FB503788DF8003043680193BC
:1043D00083688DF80830C3680393054A054B684627
:1043E00053F8213052F82110984705B05DF804FBCE
:1043F000142E00201C2E00201FB503788DF80030ED
:104400004368019383688DF80830C3680393054AB5
:10441000054B684653F8213052F82110984705B0F3
:104420005DF804FB142E00201C2E0020F0B5194B63
:104430000778DFF870E043F82720174B94460A69A5
:1044400043F827204B7F0EF807300C4606460FCC6A
:1044500089B06D460FC594E80F0085E80F003378EA
:1044600004971EF8033053B1BCF1000F0B4A6946A4
:1044700008BF0022301D01F047F809B0F0BDBCF1C3
:10448000000F074A694608BF002206F10C0000F041
:10449000F7FDF2E71C2E0020142E0020C54300007B
:1044A000F9430000BC540020074A084B1360084A37
:1044B00003F110011160074A03F120011160064A5F
:1044C0000120C2F8043570475C2E00202C2E0020FD
:1044D000282E0020242E002000E0004010B5114BB3
:1044E00004461868884202D0102224F00AFD0E4BC0
:1044F0000022C3F8002101221A604FF08070D3F827
:10450000002162B10022C3F80021084B1968A142C2
:1045100003D01022204624F0F4FC012001E00138F1
:10452000EDD110BD282E002000E00040242E0020F8
:10453000024B01461022186824F0E3BC5C2E0020D8
:10454000024AD2F80034002BFBD0704700E0014053
:104550000A4908B50223C1F80435BFF36F8FBFF3D2
:104560004F8FC1F80805FFF7EBFF0023C1F80435B2
:10457000BFF36F8FBFF34F8F08BD00BF00E0014056
:104580000E4B10B50124C3F80445BFF36F8FBFF382
:104590004F8F01EB8204401AA14208D1074B002241
:1045A000C3F80425BFF36F8FBFF34F8F10BD4318BF
:1045B00051F8042B1A60FFF7C3FFEDE700E001405C
:1045C000044A137923B9012110601171184670470C
:1045D00085207047602E0020074B1A68D2075FBF06
:1045E000C02283F8002301221A604FF08043012289
:1045F000C3F81825704700BF00E100E0074B002218
:104600001A6082B01B680193019B4FF08043022225
:10461000C3F8042301229A6002B0704704010040ED
:10462000074B00221A6082B01B680193019B4FF078
:1046300080430122C3F804231A6002B0704700BF10
:1046400000010040064B01221A604FF08042D2F870
:104650000C3403F00113B3F1011FF8D0704700BF11
:104660000400004007B5134B1A6862B100201860BF
:104670001B680093009B4FF080430122C3F808237E
:104680000D4B1B6898470D4B1A6882B100221A60C7
:104690001B680193019B4FF080430222C3F808235B
:1046A000054B1B68012003B05DF804EB184703B00D
:1046B0005DF804FB00010040602E00200401004072
:1046C00000F1804000F5C040002382B00360036821
:1046D0000193019B02B0704703681F2B83BF03F057
:1046E0001F03036001484FF0A040704700030050D3
:1046F00007B502AB43F8040D1846FFF7EDFF019B29
:1047000000EB8300D0F8003723F44033C0F80037C3
:10471000D0F8003743EA0141C0F8001703B05DF854
:1047200004FB0000054B4FF0FF32072843F8202020
:1047300084BF1B1883F85220704700BF682E0020EA
:1047400010B5164C94F8643033BBFF21E2180133E6
:104750002A2B82F83010F9D10021C8B2FFF7E2FF0E
:1047600001310C29F9D1062200210D4824F0EDFB7E
:104770000C4BC02283F8062340221A604FF4BE700F
:10478000FFF79EFF084B4FF00042C3F804230123BC
:1047900084F86430002010BD0820FCE7682E00205B
:1047A000C62E002000E100E000600040034B93F8BB
:1047B0006400003018BF0120704700BF682E002041
:1047C000F7B5404F3B18044693F93030002B944620
:1047D00075DA8B78C3F34003002B15BF002508253D
:1047E00008200C20854202D1042003B0F0BD57F808
:1047F000252001324FEA850649D1381947F825C0EE
:1048000080F8305013B97B1983F852408B785A07DF
:104810001BD4D8073DD502A840F8084DFFF75CFF30
:10482000009B00EB8300D0F8003723F00203C0F8B0
:1048300000372548E20804F0070C012303FA0CF3C3
:1048400010F802C043EA0C038354887891F800C042
:1048500010F002002AD006F1804303F5C043240281
:10486000D3F8102522F44F3222F44072C3F81025F9
:104870004FEA0C4CD3F8102504F47C540CF4403C63
:1048800044EA0C041443C3F810450020ADE7013599
:10489000A8E702A84A7840F8044DFFF71DFF019BE6
:1048A00003F5E073920040F82320C2E7083D3D4441
:1048B00095F85A4044EA8C1C85F85AC095E70820C0
:1048C00093E700BF682E0020C62E002073B5224C4F
:1048D0002518064695F93020072A1ADD224492F859
:1048E00052309B09032B10D102A840F8046DFFF74A
:1048F000F3FE019AD0F81035D340DB0707D402212C
:104900003046FFF7F5FE02B070BD012BF7D0032152
:10491000F6E7D3B2072BF6D8930003F1804303F5F3
:10492000C043D3F8100540F00100C3F8100502F1B0
:104930004000800080B2FFF7C3FE0029E3D095F964
:10494000303054F82330002BDDD0012303FA02F27B
:10495000024BC3F80423D6E7682E00200060004015
:1049600007B502AB43F8040D1846FFF7B5FE019BEF
:10497000D0F81005D84000F0010003B05DF804FB4A
:104980002DE9F04F002489B0CDE902445F4A604E22
:10499000604D01211368A2F5C040012B80B206D101
:1049A000D6F804330B4202D0FFF78AFE0C430432E0
:1049B000AA424FEA4101EDD1574B1B68012B0ED1A2
:1049C0004FF4BE70FFF77CFE4FF0A04344F000446C
:1049D000D3F810350293514BD3F81035039314F0EC
:1049E000FF0F1AD04E4F00250126344210D0AB00E5
:1049F00003F1804303F5C043D3F81005D3F8101535
:104A000057F82530C0F30520C1F3014103B19847A1
:104A10000135082D4FEA4606E7D1002C72DA04AEC4
:104A20000023049373604FF0FF33CDE906333C4F0E
:104A30004FF0010800252C467B1993F95A20531C8E
:104A400047D0D2B222F0C00908A84FEAD90300EB40
:104A5000030B02F007011BF8080C08FA01F10842E9
:104A600037D007EB0900920990F9300057F820A0E1
:104A7000BAF1000F05D1032A2BD1F05C0843F054A2
:104A800001E0032AF9D001A8CDF80490FFF724FE35
:104A9000019B03F5E07350F823301BF8180C084213
:104AA000C3F3014305D0022B13D1032A0BD11146C6
:104AB00004E0032B0DD1032A05D102214846FFF75C
:104AC00017FE0134E4B2BAF1000F02D01146484695
:104AD000D0470135042DAFD1A4B14FF0A0430299C6
:104AE000D3F8102503F540739142D3F8103502D165
:104AF0000399994206D002920393049A059B069269
:104B0000079397E709B0BDE8F08F00BF0061004050
:104B100000600040206100407C61004000030050C4
:104B2000682E0020014B1B68184700BFD02E0020C4
:104B300038B50A4B98420D460CD10020FEF76EFCAA
:104B4000074B1C7914B901221D601A710020FEF771
:104B500067FC0CB9002038BD1120FCE700200040A4
:104B6000D02E0020034B984201BF034B00221A6055
:104B70001A71704700200040D02E002010B5124C52
:104B80002278FAB9114B1960037813F0010F104B1A
:104B90001EBFD3F8042542F00102C3F80425D3F860
:104BA000002222F00102C3F800224378094A5B0187
:104BB000DBB282F80D334FF40053136001232370EE
:104BC000002010BD8520FCE7DC2E0020D82E002020
:104BD00000D0004000E100E0064B00221A6082B0E5
:104BE0001B680193019B044B0122C3F804231A6044
:104BF00002B0704700D1004000D00040024A0123BB
:104C0000C2F808335360704700D00040064A0123C1
:104C1000C2F808335360054B4FF40052C3F88020AC
:104C2000034B00221A70704700D0004000E100E002
:104C3000DC2E0020074B00221A6082B01B68019313
:104C4000019B054BD3F80805044B1B68C0B202B0AA
:104C5000184700BF00D1004000D00040D82E0020EF
:104C6000F7B50579314C0C266E43A7193B7A002B1A
:104C70005AD1A2514A687A609C46467902685F1C04
:104C8000DBB29E4246D8120B53B2CE78284F002B8F
:104C9000AEBF03F1604302F00F02264B4FEA461607
:104CA000F6B2AABF03F561439E5483F8006303681C
:104CB0001B0B5EB27609012203F01F0302FA03F315
:104CC00047F8263007684B78D7F8046503F00303EC
:104CD00026F003063343C7F8043507688B78D7F806
:104CE000086503F0030326F003063343C7F80835CD
:104CF00006680B78D6F8100503F00F0320F00F01BB
:104D00000B43C6F810350C2303FB05440020227228
:104D100003B0F0BD9B0003F5A07342F803C0D35865
:104D20000193019B3B46A8E70820F1E7E02E002015
:104D300000E100E014ED00E0036801221A6003794D
:104D4000034A0C2101FB032302221A72704700BFA1
:104D5000E02E00200368044901221A6103790C2027
:104D600000FB03131A727047E02E002038B5036869
:104D70001B0B5AB20121520903F01F0301FA03F37E
:104D800020320C4941F8223003680025D3F8002274
:104D9000C3F8005203684FF0FF320446C3F80823FB
:104DA000FFF7D8FF2379044A0C2101FB03231D726E
:104DB00038BD00BF00E100E0E02E00200379044A86
:104DC0000C2101FB0323187A831E58425841704777
:104DD000E02E002010B58B0040330268DBB20124C6
:104DE000D45001F5A871036853F8210010BD73B5C4
:104DF0004FF480348C4005688BB18B0003F5A073B1
:104E00000026EE50EB580193019B0368C3F804435E
:104E1000036801F5A87143F8212002B070BDC5F800
:104E20000843F5E7F0B407689DF810C0D7F80042D2
:104E300040F201158D4024EA0504C7F800420568D8
:104E4000D5F800422343C5F80032F0BC6346FFF7B3
:104E5000CEBF0000F7B5104E104F114D0024A3191E
:104E60009B001A6892B1D7F804134FF48032A24025
:104E70000A420BD000221A601B68019304F1500013
:104E80008000019B80B2D5E9003198470134062C9F
:104E9000E5D103B0F0BD00BF5068001000A0014094
:104EA000E02E00200023435082B043580193019B21
:104EB00002B070470A4610B54FF48E71FFF7F2FF4B
:104EC000136A9168C95C136A01331362C0F81C1538
:104ED00010BD10B58B690A464FF4847123B9FFF7F2
:104EE000E1FFD0F8183510BDFFF7DCFF536AD16839
:104EF000D0F81805C854536A01335362F3E7000031
:104F00001FB501238DF80030044BCDE90110D3E922
:104F100000126846904705B05DF804FBEC2E0020B7
:104F200030B54D4AD2F8043313F4007F85B01546EE
:104F30004FD0D2F82431002B4BD04FF49271104651
:104F4000FFF7B0FF4FF40173C2F80833434B93F8F7
:104F5000291009B9012151603F4902228DF8002032
:104F6000D1F88024C1F8802403929A690292DA6809
:104F700001920022C3E906226846D3E90012904755
:104F80003548D0F81C315BB134494A690B6A9A4202
:104F90000A464CD991F82830002B48D1FFF78AFFF8
:104FA0002D4AD2F8443193B14FF4A2711046FFF765
:104FB00079FF2A4B93F8291009B1012111609A69F0
:104FC0002AB100229A61586AD968FFF799FF05B0A3
:104FD00030BDD5F804335B07D2D5D5F80831002BA6
:104FE000CED01E4C1C482146FFF773FF636AA269AE
:104FF0009A422346C4D1E26952B12369E168E36071
:105000000023606AA261E3616362FFF779FFB7E79B
:1050100094F829200AB901226A600F4A4FF40171FD
:10502000C2F8081300229A61586AD968EDE74FF474
:105030008E710948FFF736FF5369002BB0D05169D4
:105040000291002391688DF8003001915361684608
:10505000D2E900139847A3E700200040EC2E00207F
:105060001F2886BF00F01F00044B4FF0A04300F53F
:10507000E070022243F82020704700BF0003005078
:105080002DE9F8436C4F067991462C2202FB0672FB
:10509000054692F82A200C46002A40F0C68067494F
:1050A0000068FFF745FD8046002840F0C180236876
:1050B0005A1C19D01F2B4FF001028ABF60494FF0D4
:1050C000A04103F01F0302FA03F3C1F80835236877
:1050D0001F2B86BF03F01F03594A4FF0A04203F570
:1050E000E073032142F8231061684B1C0BD01F2989
:1050F00086BF01F01F01524B4FF0A04301F5E07154
:10510000002243F821202B68A269C3F82425217DC1
:10511000637D2A680B43C2F86C35D4E900122B6812
:10512000C3F81425C3F80C15237D012B32D1A168D7
:10513000481C0BD01F2986BF01F01F01404B4FF0C8
:10514000A04301F5E071002243F82120E3685A1CD6
:1051500019D01F2B4FF001028ABF39494FF0A041EF
:1051600003F01F0302FA03F3C1F80835E3681F2BAD
:1051700086BF03F01F03324A4FF0A04203F5E073ED
:10518000032142F82310D4E902122B68C3F8082542
:10519000C3F810152C237343FA18C2F8049022693F
:1051A000FA50B9F1000F2DD04FF48E712868227F8C
:1051B000FFF778FE4FF4A2712868FFF773FE2B68A3
:1051C0002049C3F804132968090B4BB2002BAEBF6A
:1051D00003F1604301F00F011B4B4FEA4212D2B2C0
:1051E000AABF03F561435A5483F800232B681B0BB5
:1051F0005AB2012103F01F0301FA03F352091349C4
:1052000041F822302B680422C3F800252C2303FB2D
:1052100006730022C3E9062283F829205A6101227D
:1052200083F82A204046BDE8F8834FF00808F9E7E4
:105230004FF01108F6E700BFEC2E0020214F0000D0
:10524000000300508000020014ED00E000E100E0E7
:105250002DE9F04103680479274D0022C3F80025A9
:105260002C2303FB045301465B6883B10368234A84
:10527000C3F8082303681B0B5AB20120520903F03C
:105280001F0300FA03F320321D4840F822300B6858
:105290004FF0FF32D3F80C05D3F81485D3F8086526
:1052A000D3F81075C3F81425C3F80C250B68904289
:1052B000C3F80825C3F8102501D0FFF7D1FEB8F1D7
:1052C000FF3F02D04046FFF7CBFE7A1C02D03846A3
:1052D000FFF7C6FE731C02D03046FFF7C1FE086818
:1052E000FFF740FC2C2303FB0454002384F82A30EE
:1052F0006360BDE8F08100BFEC2E00208402020054
:1053000000E100E02DE9F047224B07794FF02C092E
:1053100009FB0734064665699846002D36D162615F
:10532000A160256284F828504FF48E710068FFF761
:10533000B9FD336801229A6021463068FFF7BAFD53
:105340006368A14623BB3568D4F814A0236A9A4544
:1053500011D83368D3F81C21002AFBD00122DA606F
:1053600000202C2303FB078700237B61BDE8F08727
:1053700094F8283043B9D5F81C31002BF8D04946B1
:105380002846FFF797FDE1E70F20EAE71120EDE758
:105390002846EBE7EC2E00200023435082B0435810
:1053A0000193019B02B070471FB501238DF80030B7
:1053B000044BCDE90110D3E900126846904705B0CF
:1053C0005DF804FB182F00201F2886BF00F01F0087
:1053D000044B4FF0A04300F5E070022243F8202078
:1053E000704700BF000300507FB5454AD2F82461E2
:1053F000002E63D010464FF49271FFF7CDFF0223C9
:105400008DF80030D2F88034C2F880340393D2F89B
:105410003C3502933B4BDA6801920022C3E9062235
:105420006846D3E900129047354AD2F844317BB13F
:105430004FF4A2711046FFF7AFFF324B996939B1B3
:105440000021C3E90611D968D2F83C05FFF7ACFF8B
:105450002B4AD2F82031B3B14FF490711046FFF7C8
:105460009BFF0123D360274B596961B1D2F84C15DA
:105470000291002299688DF8002001915A616846D6
:10548000D3E9001290471E4AD2F85831A3B14FF425
:10549000AC711046FFF780FF1A4B596961B1D2F821
:1054A0004C150291002299688DF8002001915A61F3
:1054B0006846D3E90012904704B070BDD2F81031AD
:1054C000002BB1D04FF488711046FFF765FF0D4BEC
:1054D000D2F83C0599698842A6D1DC69D96864B1E3
:1054E000D2F8005225F02005C2F800521A699C61DA
:1054F000DA60DE61FFF758FF96E79C61FAE700BFCC
:1055000000200040182F00202DE9F843724F067943
:105510009146242202FB0672054692F820200C4692
:10552000002A40F0D3806D490068FFF701FB8046F8
:10553000002840F0CE8023685A1C19D01F2B4FF052
:1055400001028ABF66494FF0A04103F01F0302FA2F
:1055500003F3C1F8083523681F2B86BF03F01F0330
:105560005F4A4FF0A04203F5E073032142F8231095
:1055700061684B1C0BD01F2986BF01F01F01584BDF
:105580004FF0A04301F5E071002243F821202B6881
:10559000A269C3F82425217D637D2A680B43C2F8E4
:1055A0006C35D4E900212B68C3F80C25C3F8141519
:1055B000237D012B32D1A168481C0BD01F2986BF47
:1055C00001F01F01464B4FF0A04301F5E0710022AE
:1055D00043F82120E3685A1C19D01F2B4FF0010219
:1055E0008ABF3F494FF0A04103F01F0302FA03F3C3
:1055F000C1F80835E3681F2B86BF03F01F03384A44
:105600004FF0A04203F5E073032142F82310D4E9E0
:1056100002122B68C3F80825C3F81015242373431E
:10562000FA18C2F804902269FA50B9F1000F3CD080
:105630004FF488712868227FFFF7AEFE4FF4907117
:105640002868FFF7A9FE4FF492712868FFF7A4FEBF
:105650004FF4A2712868FFF79FFE4FF4AC712868E1
:10566000FFF79AFE2B681F49C3F804132968090B3A
:105670004BB2002BAEBF03F1604301F00F011A4B98
:105680004FEA4212D2B2AABF03F561435A5483F8DB
:1056900000232B681B0B5AB2012103F01F0301FAF0
:1056A00003F35209114941F822302B680822C3F84C
:1056B0000025242303FB06730022C3E906225A6156
:1056C000012283F820204046BDE8F8834FF0080807
:1056D000F9E74FF01108F6E7182F0020E953000012
:1056E000000300501003420014ED00E000E100E070
:1056F0002DE9F041324E0579242303FB056304466E
:105700005B6883B103682F4AC3F8082303681B0B47
:105710005AB20121520903F01F0301FA03F32032A8
:10572000294941F822302268D2F8003223F02003C0
:10573000C2F80032236801225A604FF4AC7120682D
:10574000FFF72AFE2368DA602368D3F85821002A7D
:10575000FBD00022C3F8002523684FF0FF32D3F8B6
:105760000C05D3F81485D3F80815D3F81075C3F8D1
:105770000C25C3F8142523689042C3F80825C3F804
:10578000102501D0FFF720FEB8F1FF3F02D04046C0
:10579000FFF71AFE7A1C02D03846FFF715FE4B1CA5
:1057A00002D00846FFF710FE2068FFF7DBF924233C
:1057B00003FB0565002385F820306B60BDE8F081B0
:1057C000182F00201003420000E100E001F06043C8
:1057D000B3F1005F2DE9F04106463BD1204B07793C
:1057E000242505FB073598466C69002C34D16A6185
:1057F000A96000684FF49071FFF7CEFD4FF4AC71D3
:105800003068FFF7C9FD33686A69A968C3F84415B1
:10581000C3F84825336801229A606B68F3B933688E
:10582000D3F82011D3F8582119B9002AF8D00F2045
:1058300009E0002AFBD10122DA603268D2F858313F
:10584000002BFBD00020242303FB078700237B6170
:10585000BDE8F0811020FBE71120F9E72046F7E7CB
:10586000182F00200220FBF7CFBB00002DE9F047E6
:1058700081460D46FBF7E2FB0328044604D8012DC0
:1058800004D024D3022D2FD0BDE8F087194D470056
:105890003A18A918AE5C4A7852B1DFF86880164809
:1058A00042464FF48061FDF719FD08B988F8009071
:1058B0003B192B449A78114B1A55002EE4D0104B0B
:1058C0001B68002BE0D03046BDE8F04718470A4877
:1058D000FDF762FD074B04EB440213449E78074B2F
:1058E0001B5DB342D0D1E8E7024B00EB40041C44FF
:1058F0006678E2E7A02F0020602F0020B92F00205B
:10590000B42F00203C2F002002210078FFF7AEBF0B
:1059100008B5094B1B7853B10020FBF743FB01206E
:10592000FBF740FB0320BDE80840FBF73BBBBDE8AD
:105930000840FBF74BBB00BF3D2F002070B5724CF9
:10594000237805461BB100232370FFF7E1FF172DD5
:105950007DD8DFE805F00C17173B4C5D6D767E8334
:105960007E838B9090909090B4B9C1C9D4D4FFF746
:10597000CFFF6648FDF710FD654B002204461A7004
:10598000204670BD0020FBF7E5FAB8B10020FBF718
:1059900009FB022D0CBF4FF4E1614FF47A615C4BBF
:1059A0001D708902002201F5FA714FF47A73B1FB80
:1059B000F3F15648BDE87040FDF790BCFBF7DEFA06
:1059C000022D0CBFC8214FF4C871E8E70020FBF797
:1059D000C1FA40B10020FBF7E5FA4FF448714C4B97
:1059E00003221A70DDE7FBF7C9FAC821F7E70020A8
:1059F000FBF7B0FA38B10020FBF7D4FA4FF47A6124
:105A0000434B0422EDE7FBF7B9FA4FF4C871F7E70F
:105A10000020FBF79FFA40B10020FBF7C3FA3C4B94
:105A200005221A70CD210022C3E7FBF7A7FAF6E79B
:105A30000020FBF7E9FA364B06221A700022662195
:105A4000B7E70020FBF79AFA314B07221A700024BF
:105A500096E701202070FBF7D7FAEFE701202070CE
:105A6000FBF7D2FA00224FF40071A2E7FBF7BDFA70
:105A7000274B0C22EAE72748274EFDF78DFCD5F18E
:105A80001101044616D0A8B901290DD04FF44835AC
:105A90004D43024605F5FA754FF47A711D4895FBA2
:105AA000F1F1FDF71BFC04460220FBF767FA012326
:105AB000337065E70220FBF775FA0023F8E7FFF77C
:105AC00027FF134B1222C1E7FFF722FF0020FBF74D
:105AD00055FA0F4B1322B9E7FFF71AFF0120FBF726
