:020000040001F9
:1090000080530020DD9201000793010009930100C5
:109010000B9301000D9301000F930100000000006D
:10902000000000000000000000000000119301009B
:109030001393010000000000159301001793010035
:109040007D95010019930100F99801001993010021
:10905000E595010000000000119401001993010042
:10906000199301001993010019930100199301004C
:10907000199301001993010019930100199301003C
:1090800019930100D595010019930100199301006E
:109090001993010019930100F5950100199301003E
:1090A0001993010019930100000000000000000066
:1090B0001993010019930100000000000000000056
:1090C00000000000000000000000000000000000A0
:1090D0000000000000000000000000000000000090
:1090E0000000000000000000000000000000000080
:1090F0000000000000000000000000000000000070
:10910000000000000000000000000000000000005F
:10911000000000000000000000000000000000004F
:10912000000000000000000000000000000000003F
:10913000000000000000000000000000000000002F
:10914000000000000000000000000000000000001F
:10915000000000000000000000000000000000000F
:1091600000000000000000000000000000000000FF
:1091700000000000000000000000000000000000EF
:1091800000000000000000000000000000000000DF
:1091900000000000000000000000000000000000CF
:1091A00000000000000000000000000000000000BF
:1091B00000000000000000000000000000000000AF
:1091C000000000000000000000000000000000009F
:1091D000000000000000000000000000000000008F
:1091E000000000000000000000000000000000007F
:1091F000000000000000000000000000000000006F
:10920000DFF80CD000F0C6F8004800474D210200FE
:109210008053002030B450E8012F93B2C489234416
:109220008489A34228BF1B1B0489A34202BFBFF34A
:109230002F8F002007E0C3EA020340E80134002C2E
:10924000E9D14FF001000A6030BC704750E8012FAF
:10925000C2EA024240E801210029F7D1704730B448
:1092600050E8022F1FFAA2F3C488A34202BFBFF343
:109270002F8F00200DE0C48923448489A34228BF96
:109280001B1BC2EA034340E80234002CE8D14FF034
:1092900001000A6030BC704750E8022FC2EA224247
:1092A00040E802210029F7D17047034653E8022F16
:1092B000D988B2EB324F4FF0000017BF92B241EAAB
:1092C000014142EA014104E05A68B2EB324F08BF63
:1092D000012043E80212002AE8D170470F480068D5
:1092E0000F4909680A280AD1002908D10D480268E7
:1092F0006FF070031A404FF040031A4302600A48AF
:1093000080470A480047FEE7FEE7FEE7FEE7FEE784
:10931000FEE7FEE7FEE7FEE7FEE700003001001093
:1093200034010010E40E0040F995010001920100A3
:1093300040EA01039B0703D009E008C9121F08C0D7
:10934000042AFAD203E011F8013B00F8013B521E57
:10935000F9D27047D2B201E000F8012B491EFBD2CE
:1093600070470022F6E710B513460A460446194630
:10937000FFF7F0FF204610BD30B50446002003463D
:1093800000E05B1C934203D2E05CCD5C401BF8D054
:1093900030BD0000064C074D06E0E06840F00103D8
:1093A00094E8070098471034AC42F6D3FFF72CFF3F
:1093B000B04E0200D04E020070B58C1810F8015B60
:1093C00015F0070301D110F8013B2A1106D110F85E
:1093D000012B03E010F8016B01F8016B5B1EF9D162
:1093E0002B0705D40023521E0DD401F8013BFAE7E8
:1093F00010F8013BCB1A921C03E013F8015B01F853
:10940000015B521EF9D5A142D8D3002070BD0000E7
:109410002DE9F043002589B0DFF84091A8464FF4CC
:10942000807601242F460695304609F0FBF838B1C6
:10943000D9F80403204203D0304609F0E9F8254367
:10944000361D64007F1CB6B2082FEDD34FF4BE74F6
:10945000204609F0E7F848B1204609F0D9F845F070
:10946000004506AA0121002009F0BEF83C4E15F087
:10947000FF0F15D0012700242F420DD009EB8401E6
:10948000D1F81005D1F81015C0F3042056F82420A7
:10949000C1F3014102B190477F00641C082CEBD35B
:1094A000002D2DDA4FF0FF30CDF808804AE004A9F6
:1094B000204608F0D6FE002822D04FEA9518204614
:1094C00006F0B2FC56F820501DB1B8F1030F03D0DE
:1094D00006E0B8F1030F13D102A9204608F0C9FE37
:1094E0004FF0A04000EB8400D0F8000706A9C0F3BD
:1094F0000149204608F0B5FE28B1B9F1020F05D0A8
:1095000009B0BDE8F083B9F1030FF9D1B8F1030F49
:1095100007D1B9F1020F1FD00221204609F048F807
:10952000012715B141462046A847002FE8D06A46DA
:109530000121002009F058F8069900988842DFD0F0
:1095400006900298049096F84450002768B225F0DF
:10955000C004401CABD1D3E70321DEE7006000402C
:10956000103B002000F01F020121914040098000C3
:1095700000F1E020C0F880127047000070B54FF491
:109580008076304608F07FFE114CB50560B130465C
:1095900008F080FE0120C5F80803607920B9012099
:1095A00060712168002088474FF48276304608F0C9
:1095B0006AFE00280AD0304608F06CFE0220C5F88A
:1095C00008032168BDE870400120084770BD000015
:1095D000B026002002490248091F096800680847B0
:1095E0000027002002494FF040200AF049BE000049
:1095F0005C3B002009F0C2B82DE9F047AC4F4FF0BA
:1096000001093E1D3978351D4FF0805406290BD1D4
:109610003078000708D12878C0F30310032806D05B
:10962000042804D0052802D0062907D011E0B4F898
:109630002403A049C0F30420086002E0307800074A
:1096400007D12878C0F30310032802D19B499A4818
:10965000486708F089FB28B1D4F844029849C0F360
:10966000423008603878B84606280CD130780007B8
:1096700009D12878C0F30310032804D19148016868
:1096800021F08071016008F095FB002740B14FF098
:109690008040C0F80C71C0F810718948001F076045
:1096A00098F80000062807D13178090704D12978F5
:1096B000C1F30311032902D0062805D019E0804A1E
:1096C00003216432116007E03178090711D129784C
:1096D000C1F3031103290CD17B4B05221A607A4A8E
:1096E0007832C2F80090784908310F603F211A1D86
:1096F0001160D4F830210A2A04D1D4F8341159B1B8
:10970000012909D0062807D13178090704D1297821
:10971000C1F30311052955D16C4909686C4B1960D7
:109720006A49091D09681B1D1960684908310968E3
:109730001B1D196065490C3109681B1D19606349BF
:10974000103109681B1D19606049143109681B1D1F
:1097500019605E49183109685D4B203319605B4917
:109760001C3109681B1D19605849203109681B1DEF
:1097700019605649243109681B1D19605349283165
:1097800009681B1D196051492C3109681B1D19609E
:109790004E49303109684E4B403319604B493431E2
:1097A00009681B1D19604949383109681B1D19607A
:1097B00046493C3109681B1D19604449403109681C
:1097C0001B1D19600A2A05D1D4F8341111B9414A78
:1097D000FB211160DFF80081062811D130780007E5
:1097E0000ED12878C0F30310032803D0042801D039
:1097F000052805D1D4F8580200F04F01C8F8001030
:1098000008F08CFA30B135480168C90702D06FF012
:1098100001010160D4F83001062803D1D4F83411D5
:10982000062902D00A2806D008E02D48016841F434
:109830008061016002E0D4F8340128B1D8F800104A
:1098400041F00F01C8F800104FF01021D1F80002CC
:10985000002803DBD1F80402002823DA214AC2F8E9
:10986000009021480368002BFCD01523C1F800327A
:109870000468002CFCD0C1F8043201680029FCD037
:10988000176001680029FCD0BFF34F8F0D48F038F6
:109890000168164A01F4E06111430160BFF34F8F84
:1098A00000BFFDE7134912480860BDE8F0870000DB
:1098B000E00F00F0403501400DF0ADBA00C00740A8
:1098C0003C050040FCED00E0105600400404001090
:1098D00020C5004018F50040E40E004000040040A0
:1098E0003C17004004E5014000E401400400FA0593
:1098F0000090D003D02700200148006800470000F6
:10990000B826002002E008C8121F08C1002AFAD1B8
:1099100070477047002001E001C1121F002AFBD1EF
:10992000704700000121202803DA814005480140EA
:1099300003E0402802DA2038814009B10120704755
:1099400000207047FC06FFBD0248012101648163CD
:10995000704700000010004006480021C0F81C11AC
:1099600001214161D0F81C110029FBD00248006898
:10997000C0B27047001000404815004038B504469A
:1099800000208DF80000684600F052F90A48844231
:109990000CD0BFF34F8F09480168094A01F4E06118
:1099A00011430160BFF34F8F00BFFDE79DF800003A
:1099B00000F062F938BD0000FECADDBA0CED00E02F
:1099C0000400FA050EB500210091CDE901106A46A8
:1099D00044F20100FFF7D2FF0EBD00002DE9F84F61
:1099E0002C4C8146924660880E4681424FD8002713
:1099F0004FF6FF788DF80070684600F019F922786C
:109A00006078A188884201DA401C00E00020C0B2E2
:109A1000904204D19DF8000000F02EF935E0657801
:109A20006078884201DA401C00E0002060702078F5
:109A30006278824201D3101A02E0081A1044401CD6
:109A4000E18880B2884200D9E0809DF8000000F0F3
:109A500013F9454519D0E068B9F1000F40F835A079
:109A60000DD066B161882069324605FB0100494688
:109A7000FFF75EFCE06800EBC500868002E000EBCB
:109A8000C50087800020BDE8F88F0420FBE709208F
:109A9000F9E70000C026002010B50F4C03E0401C81
:109AA00000E000202070A068002814D120786178A0
:109AB000814210D0227861882069E36802FB0100AE
:109AC00003EBC20153F83220898890472078A1889F
:109AD0008842E6DAE3E710BDC026002030B5CB00AF
:109AE00008339DB293074FF0000401D0072030BD2A
:109AF000054BDA602A441A615C701C7058809980AA
:109B0000DC80002030BD0000C026002008B5002009
:109B10008DF80000684600F08BF805498868421C03
:109B200001D0401C88609DF8000000F0A5F808BD39
:109B3000C0260020074801784078064A884292886B
:109B400001D3401A02E0511A0844401C101A80B296
:109B500070470000C026002008B500208DF80000E6
:109B6000684600F065F80548816809B1491E8160C2
:109B70009DF8000000F080F808BD0000C02600201D
:109B8000014807F0B1BC0000E02600203AB10068AF
:109B90000129426100D000210161002070470720A7
:109BA0007047000038B511480823582241680091D9
:109BB0000F49006808F016FB002815D10D4A6946C8
:109BC0000D4807F095FC04000ED101210A4807F06A
:109BD000D8FC0123094A1946074807F05DFC0649ED
:109BE000012008390870204638BD0000984B02005B
:109BF000D83B0020C1360200E0260020FFFF7F0096
:109C000070B50446007F0D4608B1002070BDA2610A
:109C100008F0CAF9401941F10001C4E902012069C4
:109C200000B125612146BDE8704000200AF090BCDB
:109C300030B5EFF3108172B60D4A9468012324B158
:109C40000370002900D162B630BD93604FF0E0236D
:109C5000D3F88051074C25401560C3F88041D3F8F4
:109C6000844154605A17C3F8842100220270E8E747
:109C7000303C0020FC06FFBD0B498A68002A11D049
:109C800000280FD1EFF3108072B60B684FF0E0227E
:109C9000C2F800314B68C2F8043100228A60002803
:109CA00000D162B670470000303C00202DE9F04141
:109CB000064608680C46411C4FF0A0474FF00105CE
:109CC00006D005FA00F1C7F80815206808F05CFC1A
:109CD0006068411C02D0002108F044FC3168A06992
:109CE000C1F82405607D227D31681043C1F86C0500
:109CF000D4E900123068C0F81425C0F80C15207D96
:109D0000012815D1A068411C02D0002108F02AFCCE
:109D1000E068411C05D08540C7F80855E06808F0A8
:109D200033FCD4E902123068C0F80825C0F81015D9
:109D3000BDE8F0812DE9F041064608680C46411C5B
:109D40004FF0A0474FF0010506D005FA00F1C7F823
:109D50000815206808F022FC6068411C02D0002130
:109D600008F009FC3168A069C1F82405607D217DF7
:109D700032680843C2F86C05D4E900123068C0F8B4
:109D80000C15C0F81425207D012815D1A068411CB0
:109D900002D0002108F0EFFBE068411C05D08540AF
:109DA000C7F80855E06808F0F9FBD4E902123068FA
:109DB000C0F80825C0F81015BDE8F0812DE9FC4772
:109DC0001D46070090460E460AD036B10024019485
:109DD00038780DF10409692804D00720BDE8FC8714
:109DE0000E20FBE70120134601904A4638460AF050
:109DF000C5FD0028F2D12B464A463146384600942C
:109E000006F086F80028E9D12B68C3B30025D8F8FE
:109E100000002C46232819D008DC012818D020285F
:109E20000DD021280DD0222816D10DE0402811D0C8
:109E3000412829D0A02829D0A1280DD128E0164DED
:109E400000E0164D9C1C07E0154DFBE7154DF9E7AA
:109E5000154D00E0154D1C462038032806D84A460B
:109E6000314638460AF0C2FD0028B7D123464A469B
:109E700031463846009507F0D6FF0028AED101984C
:109E8000B04207D00920A9E7094DE4E7094DE2E710
:109E9000094DE0E70020A1E717AB010001D2010066
:109EA0006DE601002FCF0100C99E0100E5AA010067
:109EB00061AA0100D7E30100C9E3010013460A4685
:109EC0000146692009F048BD18B112B10BB10AF082
:109ED0008DBD0E20704738B568B162B15BB11C46CC
:109EE0006B460AF083FD002804D19DF8001001F0B4
:109EF0000101217038BD0E2038BD08B551B14BB1FC
:109F000040B1007800F001008DF8000068460AF0CA
:109F10007AFD08BD0E2008BD2DE9F84316465FEA1C
:109F200000082BD056B34BB3164F1C460D46009776
:109F300007F097FF002822D1631C3246294640468D
:109F4000009707F08EFF002819D1A31C324629463E
:109F500040460AF04BFD002811D1E31C3246294649
:109F600040460AF043FD002809D101B0231D3246C6
:109F700029464046BDE8F0430AF038BD0E20BDE852
:109F8000F8830000BDF701002DE9F8431D46904617
:109F90000E002AD04DB340B3154F0446009707F08A
:109FA000B0FF002822D12B4642463146601C009764
:109FB00007F0A7FF002819D12B4642463146A01CC6
:109FC0000AF021FD002811D12B4642463146E01C03
:109FD0000AF019FD002809D101B02B46424631464E
:109FE000201DBDE8F0430AF00EBD0E20BDE8F88349
:109FF000FBF701002DE9FC411646070010D07EB1A9
:10A0000073B11C460D4601AB0AF0B8FC002808D11C
:10A010004FF48070A080019840B1216819B105E02B
:10A020000E20BDE8FC8105F0C1FF2060201D0090DE
:10A03000234632462946384608F03FF8F1E72DE935
:10A04000FC411D4617460E0019D0C5B1B8B10446F3
:10A0500000200190206805F0D1FF01902B463A4680
:10A06000314601A80AF0A1FC002806D10095A1887C
:10A070003B463246206808F038F8BDE8FC810E20E7
:10A08000FBE7F8B5144606000D461ED0ECB10020E3
:10A090000090631C6A4630460AF0A8FC002813D1E1
:10A0A00023466A46294630460AF0A0FC00280BD118
:10A0B000631D6A46294630460AF098FC002803D101
:10A0C0000099A94200D00920F8BD0E20F8BD17B5AF
:10A0D00081B0144669B164B1002000906B4601A8BC
:10A0E00022680AF062FC002801D10099216004B0C6
:10A0F00010BD0E20FBE728B111B10078602803D015
:10A10000072070470E207047012901D009207047B1
:10A110000020704713460A460146602009F01CBC27
:10A1200030B4EAB1E3B1D8B10488302C76D01ADC6F
:10A13000272C7DD2DFE804F0AD3330ADADADADAD51
:10A14000ADADADADADADADAD545136393C425A4576
:10A150005D3F484E4BAD57ADAA6360ADADAD6600F7
:10A160000E2030BC7047313C272C61D2DFE804F070
:10A17000674D506D535C6A6459705F739191919112
:10A180009191919191919191919191919191917FD1
:10A190008285767C88798B0030BC00F07EB830BC3C
:10A1A00000F0C7B830BC01F02FB930BC01F0AABC38
:10A1B00030BC01F037BC30BC01F078B830BC01F0E5
:10A1C000E9BA30BC01F03EB830BC01F063B930BC34
:10A1D00001F0A2BB30BC01F02DBD30BC01F016BABD
:10A1E00030BC01F09DB930BC01F0D2BC30BC01F0F4
:10A1F00058BA30BC01F088BA30BC01F00FBB30BC9B
:10A2000001F052BB30BC00F0BBBF30BC03F0D6B88D
:10A2100030BC03F011BA30BC03F042B930BC03F0DB
:10A220003FBB30BC03F0CCBA30BC03F0A9BB00E0AC
:10A230002FE030BC03F088BC30BC03F01BBD30BC49
:10A2400003F00EBC30BC03F097B930BC03F02EB85D
:10A2500030BC03F063BA30BC03F0C7BC30BC04F0C0
:10A26000BDBA30BC04F03ABC30BC04F0CDBB30BC4D
:10A2700004F074BC30BC04F047BB30BC04F0EEBB4F
:10A2800030BC04F06BBA30BC04F0E7BA30BC01F06B
:10A290007FBB06200021196063E72DE9FE431D46C0
:10A2A0001646040007D036B12DB12088022804D00C
:10A2B0000720BDE8FE830E20FBE700270197D5F8B5
:10A2C000008002200DF10409ADF808004B4642461B
:10A2D000314602A80AF038FB0028EAD14B46424634
:10A2E0003146201D0AF030FB0028E2D14B464246A1
:10A2F000314604F108000AF086FB0028D9D14B460C
:10A300004246314604F110000AF01EFB0028D0D16D
:10A3100000974B4642463146E06805F027FE00288C
:10A32000C7D1A08805F01CFF0028C2D1019929607F
:10A33000BFE72DE9FC411D461646040007D036B1A3
:10A340002DB12088012804D00720BDE8FC810E2013
:10A35000FBE7002000902F680120E846ADF80400DC
:10A3600043463A46314601A80AF0EEFA0028ECD1FD
:10A3700043463A463146201D0AF0E6FA0028E4D169
:10A3800043463A46314604F108000AF03CFB0028F7
:10A39000DBD100992960D8E77CB50C4640B12CB1DF
:10A3A00000230193057801A96D2D03D007207CBD02
:10A3B0000E207CBD0125CDE9003513460A46214615
:10A3C00005F0A6FD0028F4D10198A04201D0092093
:10A3D0007CBD00207CBD2DE9FF4182B0984614462B
:10A3E0000F0028D03CB30020009025686D206E46F9
:10A3F0008DF8040033462A4601A80AF004FB002821
:10A4000016D133462A46394602A80AF0CEFA002869
:10A410000ED1029848B95FEA080039462A46334609
:10A4200009D000F05BF8002802D1009820600020DD
:10A4300006B0BDE8F0810E20FAE700001CB50C461E
:10A4400040B12CB100210191037801A96C2B03D0FC
:10A4500007201CBD0E201CBD01230193074B009358
:10A4600013460A46214605F053FD0028F3D1019812
:10A47000A04201D009201CBD00201CBD8DA40100FC
:10A4800013460A4601466C2009F066BA2DE9FC41E4
:10A490001646070020D0FEB1F3B11C460D4601ABB5
:10A4A0000AF0A4FA002815D106200090631C324659
:10A4B000294638460AF0B4FA00280BD19DF804204A
:10A4C000217862F3000121709DF80420520862F3A4
:10A4D00047012170BDE8FC810E20FBE72DE9FC411E
:10A4E0001D4617460E0013D095B188B1044600787A
:10A4F0008DF8040001A80AF086FA002806D13B4630
:10A5000032460621601C00950AF0A0FABDE8FC81E5
:10A510000E20FBE72DE9F84316465FEA000813D04A
:10A5200096B18BB1094F1C460D46009707F085FC8C
:10A53000002807D104F10803324629464046009717
:10A5400007F07BFCBDE8F8830E20FBE7F59F0100D8
:10A550002DE9F8431D4690460E0012D08DB180B112
:10A56000094F0446009707F09AFC002807D12B46B4
:10A570004246314604F10800009707F090FCBDE820
:10A58000F8830E20FBE700003FA001002DE9FF410A
:10A59000164607006ED0002E6CD0002B6AD03648CD
:10A5A00000901C460D46384607F047FC00285ED157
:10A5B00032480090231D32462946384605F0A8FC53
:10A5C000002854D104F108033246294638460AF0DF
:10A5D000D5F900284BD104F10C0332462946384600
:10A5E0000AF0A3F9002842D104F10E0332462946AD
:10A5F00038460AF0FBF9002839D104F10F00029027
:10A6000005200090019002AB32462946384605F0FD
:10A61000A8FB00282BD104F1140332462946384602
:10A620000AF0E4F9002822D104F115033246294644
:10A6300038460AF0DBF9002819D104F11603324636
:10A64000294638460AF0D2F9002810D103AB324629
:10A65000294638460AF0CAF9002808D19DF80C208E
:10A66000E17D62F30301120962F30411E17504B0A4
:10A67000BDE8F0810E20FAE781A601008DA401005B
:10A68000F8B51646070019D0C6B1BBB11C460D4639
:10A690000AF0ACF9002810D16B46324629463846FC
:10A6A0000AF0A4F9002808D19DF80020617862F32F
:10A6B0000001520862F341016170F8BD0E20F8BD3F
:10A6C0002DE9FC411D46089C0E46070037D036B1E7
:10A6D0000020019038780DF10408722802D007207C
:10A6E000BDE8FC81012001904AB3106838B335B34E
:10A6F000286820B31CB3206808B3134813460090A1
:10A700004246384605F004FC0028E9D10F48009085
:10A710002B4642463146384605F0FAFB0028DFD189
:10A720000B480090234642463146384605F0F0FB80
:10A730000028D5D10198B04203D00920D0E70E20DF
:10A74000CEE70020CCE70000ED49020015A501008E
:10A750008DA501002DE9FF4184B01446DDF8388055
:10A760000F0019D0C4B1002001902568722001AEFD
:10A770008DF8080033462A4602A80AF044F900285A
:10A780000BD133462A46394604A80AF00EF90028B0
:10A7900003D1049870B903E00E2008B0BDE8F08141
:10A7A0000648009033462A463946404605F0DEFB0F
:10A7B0000028F2D1019820600020EEE7074A02004D
:10A7C000F8B51F460C46050008D02CB100200090BB
:10A7D00028786E46732803D00720F8BD0E20F8BDF8
:10A7E000012013460090324628460AF0FFF8002860
:10A7F000F5D13B463246214628460AF0F7F80028B4
:10A80000EDD10098A04201D00920F8BD0020F8BD8C
:10A8100013460A460146732009F09EB838B50C4627
:10A8200040B12CB10021009103786946742B03D00C
:10A83000072038BD0E2038BD0123009313460A4679
:10A8400021460AF0D3F80028F5D10098A04201D0A3
:10A85000092038BD002038BD13460A460146742041
:10A8600009F07AB87CB50C46D0B12CB10023019325
:10A87000057801A9792D01D007207CBD012501951E
:10A8800072B1156865B1009313460A46214605F07A
:10A890003FFB0028F1D10198A04203D009207CBDE4
:10A8A0000E207CBD00207CBD2DE9FF4184B0984680
:10A8B00014460F0019D0C4B10020019025687920FA
:10A8C00001AE8DF8080033462A4602A80AF09BF82C
:10A8D00000280BD133462A46394604A80AF065F809
:10A8E000002803D1049870B903E00E2008B0BDE839
:10A8F000F0810748009033462A463946404605F025
:10A9000035FB0028F2D1019820600020EEE700001E
:10A910004949020038B50C46B8B12CB1002100916C
:10A9200003786946782B01D0072038BD01230093B6
:10A930005AB113460A46214609F0F7FF0028F4D120
:10A940000098A04203D0092038BD0E2038BD002059
:10A9500038BD13460A460146782008F0FDBF2DE9B0
:10A96000FE431F46DDF828800C46050022D0F4B1D6
:10A9700000200290287802AE802818D10120029091
:10A98000C2B1BFB113463246284609F0CEFF0028B7
:10A990000ED13B463246214628460AF027F80028C9
:10A9A00006D1387840B1012808D0022808D0072005
:10A9B000BDE8FE830E20FBE7002202E0062200E055
:10A9C000102200920192434632462146284605F065
:10A9D000C8F90028ECD10298A04201D00920E7E78D
:10A9E0000020E5E713460A460146802008F0B4BF80
:10A9F0002DE9FC411C460D46060025D02DB1002056
:10AA00000190307801AF7E2802D00720BDE8FC819C
:10AA100001200190C2B1BCB12068A8B113463A46EA
:10AA2000304609F082FF0028F0D109480090234603
:10AA30003A462946304605F06BFA0028E6D10198DF
:10AA4000A84203D00920E1E70E20DFE70020DDE780
:10AA500099CB010013460A4601467E2008F07CBFD0
:10AA60002DE9FE4316465FEA000836D0A6B39BB335
:10AA70005F891B4800901C460D46404607F0DDF9F3
:10AA8000002827D102AB32462946404609F0AEFFE6
:10AA900000281FD19DF8080004F1080300F003000E
:10AAA000607032462946404609F03FFF002811D128
:10AAB00004F10A0332462946404609F036FF0028D1
:10AAC00008D12089231DCDE9007032462946404631
:10AAD00005F047F9BDE8FE83FFE70E20FAE7000026
:10AAE0001DAD01002DE9F0411546060010D07DB1E5
:10AAF00073B11F460C465B1C09F078FF002808D193
:10AB00003B462A4621463046BDE8F04109F06EBF7B
:10AB10000E20BDE8F0812DE9F041164607000FD068
:10AB200076B16BB11C460D4609F060FF002808D1D4
:10AB3000A31C324629463846BDE8F04109F0F5BE6F
:10AB40000E20BDE8F08100002DE9FC411C460D46B9
:10AB5000060025D02DB100200190307801AF752876
:10AB600002D00720BDE8FC8101200190C2B1BCB138
:10AB70002068A8B113463A46304609F0D6FE0028B0
:10AB8000F0D10948009023463A462946304605F060
:10AB9000BFF90028E6D10198A84203D00920E1E7D7
:10ABA0000E20DFE70020DDE7B9AB010013460A46BF
:10ABB0000146752008F0D0BE2DE9F0411646070089
:10ABC0001FD0F6B1EBB11C460D4609F0AEFE0028D1
:10ABD00018D1A31C32462946384609F0A6FE0028A3
:10ABE00010D1231D32462946384609F09EFE002822
:10ABF00008D1A31D324629463846BDE8F04109F088
:10AC000094BE0E20BDE8F0812DE9F0411D461746A7
:10AC10000E001ED0EDB1E0B1044609F095FE00280B
:10AC200018D12B463A463146A01C09F08DFE00286B
:10AC300010D12B463A463146201D09F085FE0028EA
:10AC400008D12B463A463146A01DBDE8F04109F037
:10AC50007BBE0E20BDE8F0812DE9FC4198460C46F4
:10AC6000050021D02CB100260196287801AF872855
:10AC700002D00720BDE8FC8101200190A2B113465B
:10AC80003A46284609F051FE0028F3D143463A4699
:10AC900021462846009605F03BF90028EAD10198A4
:10ACA000A04203D00920E5E70E20E3E70020E1E71A
:10ACB0002DE9FF4184B01C46150088461AD0CCB15E
:10ACC000002001902668872001AF8DF808003B46E0
:10ACD0003246294602A809F096FE00280BD13B46D1
:10ACE0003246294604A809F060FE002803D10498E2
:10ACF00070B903E00E2008B0BDE8F081064800906E
:10AD00003B4632462946404605F030F90028F2D14C
:10AD1000019820600020EEE769AD010038B5A0B1D0
:10AD20009AB193B11C466B4609F060FE00280BD126
:10AD30009DF80020217862F3030121709DF8002026
:10AD4000120962F30711217038BD0E2038BD08B515
:10AD500041B13BB130B100788DF80000684609F090
:10AD600052FE08BD0E2008BDF8B51D4617460E0060
:10AD700012D08DB180B1044608480090204607F0FB
:10AD80008EF8002809D101B02B463A463146601CA6
:10AD9000BDE8F04009F037BE0E20F8BD4FAD010010
:10ADA0002DE9FF5F1D460E9F144688465FEA0009A5
:10ADB00042D0B8F1000F07D0002602A8CDE9010665
:10ADC00099F800006F2803D0072004B0BDE8F09F79
:10ADD000012002907CB3206868B3006858B355B373
:10ADE000286840B3006830B33B4641464846019A64
:10ADF00009F0FCFD0028E8D103AB41464846019A22
:10AE000009F0F4FD0028E0D19DF80C00012815D0D0
:10AE1000266003AB41464846019A09F0E7FD002849
:10AE2000D3D19DF80C0001281ED02E600299414517
:10AE30002DD00920C9E7FFE70E20C6E7D4F800A00F
:10AE40000024DFF850B00BE00AEB8403CDF800B02B
:10AE500041464846019A05F05BF80028B5D1641CCC
:10AE60003878A042F0D8D4E72D6800240A4E0AE0D2
:10AE700005EB8403009641464846019A05F048F8E0
:10AE80000028A2D1641C3878A042F1D8CEE7002077
:10AE90009BE700009DBC01001DBD010013460A4652
:10AEA00001466F2008F058BD2DE9FC4190460C4644
:10AEB000050022D02CB100260196287801AF7D280C
:10AEC00002D00720BDE8FC8101200190ABB10D4804
:10AED00000903A46284605F01BF80028F2D1434678
:10AEE0003A4621462846009605F012F80028E9D196
:10AEF0000198A04203D00920E4E70E20E2E70020F9
:10AF0000E0E700002B4902002DE9FF4784B0984696
:10AF1000DDE9107491468A46D7B1CCB1002001908A
:10AF200026687D2001AD8DF808002B463246394653
:10AF300002A809F068FD00280BD12B46324639469D
:10AF400004A809F032FD002803D10498B8B903E041
:10AF50000E2008B0BDE8F0870B4800902B46324623
:10AF60003946484605F002F80028F2D133463A4601
:10AF700041465046009507F0B8F80028E9D10198FD
:10AF800020600020E5E70000494902002DE9FC416E
:10AF90009846089E0C46050027D02CB10020019051
:10AFA000287801AF7C2802D00720BDE8FC81012071
:10AFB0000190D2B1B8F1000F17D0B6B10D481346C9
:10AFC00000903A46284604F0A3FF0028EDD14346FE
:10AFD0003A4621462846009607F06FF80028E4D14B
:10AFE0000198A04203D00920DFE70E20DDE7002012
:10AFF000DBE700001DAD010013460A4601467C2038
:10B0000008F0AABCF8B51F460C46050020D02CB1AC
:10B010000020009028786E46762801D00720F8BDE1
:10B0200001200090A2B19FB113463246284609F094
:10B030007CFC0028F3D13B4632462146284609F0E5
:10B04000D5FC0028EBD10098A04203D00920F8BD20
:10B050000E20F8BD0020F8BD13460A4601467620B2
:10B0600008F07ABC2DE9FC411646070020D0FEB15D
:10B07000F3B1102000901C460D46384609F0D0FC74
:10B08000002813D101AB32462946384609F0AEFC00
:10B0900000280BD19DF80410227C4B0861F30002BC
:10B0A00063F34102890861F387022274BDE8FC81E1
:10B0B0000E20FBE72DE9FC411D4617460E001DD072
:10B0C000E5B1D8B113460A4604461021009509F0AF
:10B0D000BDFC002810D1207C2B46C0F34002014665
:10B0E00062F35F0120F0030001438DF804103A463B
:10B0F000314601A809F087FCBDE8FC810E20FBE782
:10B10000F8B51646070014D09EB193B10A480090D6
:10B110001C460D46384606F090FE002808D1074828
:10B12000009004F1120332462946384606F085FEA7
:10B13000F8BD0E20F8BD000065B0010079C0010027
:10B14000F8B51D4617460E0013D095B188B10446D8
:10B1500009480090204606F0A2FE002808D10748C2
:10B1600000902B463A46314604F1120006F097FE55
:10B17000F8BD0E20F8BD0000B5B00100A7C0010069
:10B180002DE9FE431D461646040007D036B12DB109
:10B190002088262804D00720BDE8FE830E20FBE788
:10B1A000002001902F6826200DF10408ADF808005A
:10B1B00043463A46314602A809F0C6FB0028EBD1C7
:10B1C00043463A463146201D09F0BEFB0028E3D134
:10B1D0000648009043463A46314604F1080006F01E
:10B1E00054FE0028D8D101992960D5E7F1B10100BA
:10B1F000F8B51D4617460E001FD0F5B1E8B104465C
:10B2000009F001FC002817D12B463A463146601C54
:10B2100009F0F9FB00280FD12B463A463146A01C15
:10B2200009F0F1FB002807D1054800902B463A466B
:10B230003146201D06F033FEF8BD0E20F8BD00009B
:10B2400051A501002DE9FC411D461646040007D01A
:10B2500036B12DB12088172804D00720BDE8FC8125
:10B260000E20FBE7002000902F681720E846ADF87D
:10B27000040043463A46314601A809F065FB002820
:10B28000ECD143463A463146201D09F05DFB0028CB
:10B29000E4D143463A46314604F1080009F0B3FBD5
:10B2A0000028DBD100992960D8E700002DE9FF4193
:10B2B0001D461646040008D03EB135B12088192835
:10B2C00005D0072004B0BDE8F0810E20FAE7002089
:10B2D00001902F6819200DF10408ADF808004346CD
:10B2E0003A46314602A809F02FFB0028EAD143462E
:10B2F0003A463146201D09F027FB0028E2D11648C6
:10B30000009043463A46314604F1080006F0BDFD80
:10B310000028D7D1A08803A904F0C8FE18B10020E6
:10B3200001992960CEE70D48009003980C49C0EBC5
:10B33000001000EB800001EB800043463A463146A6
:10B34000001D06F0A2FD0028BCD1A08804F090FEEC
:10B350000028E5D0B6E7000065B301001DCA010072
:10B360003C3C00202DE9FC411D4690460E0045D096
:10B37000F5B3E8B341780446C1F38002084662F3AE
:10B380009F00C1F3C00140EAC1008DF804004246AD
:10B390003146204609F037FB00282DD12B46424686
:10B3A000314601A809F02FFB002825D1144F2B4668
:10B3B00042463146A01C009706F071FD00281BD1C3
:10B3C0002B4642463146E01C009706F068FD0028F7
:10B3D00012D10C4F2B4642463146201D009706F0F5
:10B3E0005EFD002808D12B4642463146601D00E034
:10B3F00004E0009706F053FDBDE8FC810E20FBE75A
:10B4000059CA0100CFC801002DE9FE431D4616466A
:10B41000040007D036B12DB12088122804D00720AF
:10B42000BDE8FE830E20FBE7002001902F6812206C
:10B430000DF10408ADF8080043463A46314602A82B
:10B4400009F082FA0028EBD143463A463146201DE6
:10B4500009F07AFA0028E3D10648009043463A46BC
:10B46000314604F1080006F010FD0028D8D10199FA
:10B470002960D5E779B4010038B531B12BB120B1DD
:10B48000034C009406F00BFD38BD0E2038BD0000C3
:10B4900009AC01002DE9FE431D461646040007D005
:10B4A00036B12DB120881A2804D00720BDE8FE83CC
:10B4B0000E20FBE7002001902F681A200DF10408F0
:10B4C000ADF8080043463A46314602A809F03CFA76
:10B4D0000028EBD143463A463146201D09F034FAA4
:10B4E0000028E3D10648009043463A46314604F12D
:10B4F000080006F0CAFC0028D8D101992960D5E7D8
:10B5000005B5010038B531B12BB120B1034C009421
:10B5100006F0C5FC38BD0E2038BD000069AD010045
:10B520002DE9FE431D461646040007D036B12DB165
:10B530002088102804D00720BDE8FE830E20FBE7FA
:10B54000002001902F6810200DF10408ADF80800CC
:10B5500043463A46314602A809F0F6F90028EBD1F5
:10B5600043463A463146201D09F0EEF90028E3D162
:10B570000648009043463A46314604F1080006F07A
:10B5800084FC0028D8D101992960D5E791B5010044
:10B59000F8B51D4617460E0030D075B368B30446A3
:10B5A00017480090204606F07AFC002824D12B464C
:10B5B0003A463146E01D09F026FA00281CD1114810
:10B5C00000902B463A46314604F1080006F067FC2D
:10B5D000002811D12B463A46314604F1100009F0FB
:10B5E00012FA002808D1084800902B463A46314606
:10B5F00004F1140006F053FCF8BDFFE70E20FBE752
:10B60000DDA4010009AC010051A501002DE9FF41B5
:10B610001D461646040008D03EB135B120881128D9
:10B6200005D0072004B0BDE8F0810E20FAE7002025
:10B6300001902F6811200DF10408ADF80800434671
:10B640003A46314602A809F07FF90028EAD143467C
:10B650003A463146201D09F077F90028E2D10C481E
:10B66000009043463A46314604F1080006F00DFCCE
:10B670000028D7D1A08803A904F018FD20B9A0881C
:10B6800004F0F6FC0028CDD1019900202960C9E71B
:10B6900095B6010019B113B108B109F0B4B90E2083
:10B6A00070472DE9FC411D461646040007D036B10F
:10B6B0002DB12088162804D00720BDE8FC810E207B
:10B6C000FBE7002000902F681620E846ADF8040044
:10B6D00043463A46314601A809F036F90028ECD134
:10B6E00043463A463146201D09F02EF90028E4D1A0
:10B6F00043463A46314604F1080009F084F900282F
:10B70000DBD100992960D8E72DE9FF411D46164697
:10B71000040008D03EB135B12088182805D0072094
:10B7200004B0BDE8F0810E20FAE7002001902F68F8
:10B7300018200DF10408ADF8080043463A4631469A
:10B7400002A809F001F90028EAD1207B434600F065
:10B7500001008DF80C003A463146201D09F0F4F83E
:10B760000028DDD10A48009043463A463146A06899
:10B7700004F0FCFB0028D3D143463A46314603A8E7
:10B7800009F041F90028CBD101992960C8E70000F0
:10B790005FC001002DE9FF411D46904604000AD01C
:10B7A000B8F1000F07D035B12088152805D0072043
:10B7B00004B0BDE8F0810E20FAE7002001902F6868
:10B7C000152001AEADF8080033463A46414602A8BE
:10B7D00009F0BAF80028EBD1A07B334600F0010055
:10B7E0008DF80C003A464146201D09F0ADF80028BE
:10B7F000DED13B464246062104F10800009609F0DE
:10B8000025F90028D4D133463A46414603A809F029
:10B81000FAF80028CCD101992960C9E72DE9FC414B
:10B820001D461646040007D036B12DB120882228C7
:10B8300004D00720BDE8FC810E20FBE7002000902B
:10B840002F682220E846ADF8040043463A463146C8
:10B8500001A809F079F80028ECD143463A46314670
:10B86000201D09F071F80028E4D143463A463146DC
:10B8700004F1080009F0C7F80028DBD143463A4636
:10B88000314604F1090009F0BEF80028D2D1434640
:10B890003A46314604F10A0009F0B5F80028C9D14A
:10B8A00000992960C6E700002DE9FE431D461646B3
:10B8B000040007D036B12DB12088212804D00720FC
:10B8C000BDE8FE830E20FBE7002001902F682120B9
:10B8D0000DF10408ADF8080043463A46314602A887
:10B8E00009F032F80028EBD143463A463146201D94
:10B8F00009F02AF80028E3D10648009043463A466A
:10B90000314604F1080006F0C0FA0028D8D10199A8
:10B910002960D5E71DC301002DE9FC411D461646EF
:10B92000040007D036B12DB120881C2804D0072090
:10B93000BDE8FC810E20FBE7002000902F681C2052
:10B94000E846ADF8040043463A46314601A808F0FF
:10B95000FBFF0028ECD143463A463146201D08F053
:10B96000F3FF0028E4D143463A46314604F108008B
:10B9700009F049F80028DBD143463A46314604F144
:10B98000090009F040F80028D2D100992960CFE7DA
:10B990002DE9FE431D461646040007D036B12DB1F1
:10B9A0002088202804D00720BDE8FE830E20FBE776
:10B9B000002001902F6820200DF10408ADF8080048
:10B9C00043463A46314602A808F0BEFF0028EBD1B4
:10B9D00043463A463146201D08F0B6FF0028E3D121
:10B9E00043463A46314604F1080009F00CF80028B5
:10B9F000DAD10B48009043463A46314604F10A003A
:10BA000006F043FA0028CFD143463A46314604F1C6
:10BA1000090008F0F8FF0028C6D101992960C3E7A2
:10BA2000DDA401002DE9FE431D461646040007D0A3
:10BA300036B12DB12088142804D00720BDE8FE833C
:10BA40000E20FBE7002001902F6814200DF1040860
:10BA5000ADF8080043463A46314602A808F074FFA4
:10BA60000028EBD143463A463146201D08F06CFFD2
:10BA70000028E3D10648009043463A46314604F197
:10BA8000080006F002FA0028D8D101992960D5E70C
:10BA900095BA01002DE9FC411D4617460E002AD03B
:10BAA0004DB340B30446807CC0F34002014662F3CC
:10BAB0005F01C0F3800041EA80008DF804000F4868
:10BAC00000903A463146204606F0E9F9002810D1A8
:10BAD0000B4800902B463A46314604F1080006F028
:10BAE000DEF9002805D12B463A46314601A808F078
:10BAF0008AFFBDE8FC810E20FBE70000DDA4010009
:10BB0000A7C001002DE9FE431D461646040007D0DC
:10BB100036B12DB12088132804D00720BDE8FE835C
:10BB20000E20FBE7002001902F6813200DF1040880
:10BB3000ADF8080043463A46314602A808F004FF33
:10BB40000028EBD143463A463146201D08F0FCFE62
:10BB50000028E3D10648009043463A46314604F1B6
:10BB6000080006F092F90028D8D101992960D5E79C
:10BB700075BB010038B531B12BB120B1034C009435
:10BB800006F08DF938BD0E2038BD000055CC0100FF
:10BB90002DE9FE431D461646040007D036B12DB1EF
:10BBA00020881E2804D00720BDE8FE830E20FBE776
:10BBB000002001902F681E200DF10408ADF8080048
:10BBC00043463A46314602A808F0BEFE0028EBD1B3
:10BBD00043463A463146201D08F0B6FE0028E3D120
:10BBE0000648009043463A46314604F1080006F004
:10BBF0004CF90028D8D101992960D5E701BC010092
:10BC000038B5A9B1A3B198B10078C0F34005044696
:10BC100065F35F04C0F3800544EA8504C0F3C00007
:10BC200044EAC0008DF80000684608F0ECFE38BD1C
:10BC30000E2038BD2DE9FC411D461646040007D0F4
:10BC400036B12DB120881B2804D00720BDE8FC8127
:10BC50000E20FBE7002000902F681B20E846ADF87F
:10BC6000040043463A46314601A808F06DFE00281C
:10BC7000ECD143463A463146201D08F065FE0028C7
:10BC8000E4D143463A46314604F1080008F0BBFED1
:10BC90000028DBD100992960D8E70000F8B51646E6
:10BCA000070014D09EB193B10A4800901C460D467F
:10BCB000384606F0C2F8002808D10748009004F181
:10BCC000100332462946384606F0B7F8F8BD0E2074
:10BCD000F8BD00001DBD01008DA40100F8B51D4692
:10BCE00017460E0013D095B188B10446094800905C
:10BCF000204606F0D4F8002808D1074800902B46CB
:10BD00003A46314604F1100006F0C9F8F8BD0E209D
:10BD1000F8BD000033BD0100DDA4010038B530B12D
:10BD20002AB123B11024009408F07AFE38BD0E2009
:10BD300038BD08B541B13BB130B1009313460A4656
:10BD4000102108F083FE08BD0E2008BDF8B51F467F
:10BD50000C46050020D02CB10020009028786E46BB
:10BD6000822801D00720F8BD01200090A2B19FB128
:10BD700013463246284608F0D8FD0028F3D13B464A
:10BD800032462146284608F031FE0028EBD10098C3
:10BD9000A04203D00920F8BD0E20F8BD0020F8BD58
:10BDA00013460A460146822007F0D6BD2DE9FC4124
:10BDB0001F460C46050023D02CB1002001902878A6
:10BDC00001AE812802D00720BDE8FC81012001904E
:10BDD000B2B1AFB113463246284608F0A6FD00289E
:10BDE000F2D1094800903B4632462146284604F0ED
:10BDF0008FF80028E8D10198A04203D00920E3E79A
:10BE00000E20E1E70020DFE719BE010013460A46D5
:10BE10000146812007F0A0BD38B530B12AB123B169
:10BE20002024009408F0FCFD38BD0E2038BD000031
:10BE30002DE9FC479846DDF828900C46050031D0E6
:10BE40002CB100260196287801AF832802D0072064
:10BE5000BDE8FC870120019022B35FEA090021D0F0
:10BE6000B8F1000F1ED013463A46284608F05DFD93
:10BE70000028EDD10D48009043463A462146284619
:10BE800004F046F80028E3D14B463A4621462846BE
:10BE9000009604F03DF80028DAD10198A04203D0C2
:10BEA0000920D5E70E20D3E70020D1E749C00100E3
:10BEB0002DE9FF4184B01C46150088461AD0CCB14C
:10BEC000002001902668832001AF8DF808003B46D2
:10BED0003246294602A808F096FD00280BD13B46C1
:10BEE0003246294604A808F060FD002803D10498D2
:10BEF00070B903E00E2008B0BDE8F081064800905C
:10BF00003B4632462946404604F030F80028F2D13C
:10BF1000019820600020EEE7FDBF01002DE9FC47FD
:10BF20009846DDF828900C46050031D02CB1002051
:10BF30000190287801AE842802D00720BDE8FC8754
:10BF40000120019022B3B8F1000F21D05FEA09006F
:10BF50001ED013463246284608F0E7FC0028EDD1F3
:10BF60000D4F4346324621462846009703F0D0FF46
:10BF70000028E3D14B46324621462846009703F07D
:10BF8000C7FF0028DAD10198A04203D00920D5E7E5
:10BF90000E20D3E70020D1E7A9BF010013460A46CF
:10BFA0000146842007F0D8BC2DE9F84316465FEA25
:10BFB00000081ED0EEB1E3B10F4800901C460D46BC
:10BFC000404605F03AFF002811D11027E31D324604
:10BFD00029464046009708F023FD002807D104F1C8
:10BFE0001703324629464046009708F019FDBDE880
:10BFF000F8830E20FBE700008DA40100F8B51D4674
:10C0000017460E001BD0D5B1C8B104460D480090AC
:10C01000204605F044FF002810D13B46324610214F
:10C02000E01D009508F012FD002807D13B4632467E
:10C03000102104F11700009508F008FDF8BD0E204E
:10C04000F8BD0000DDA4010038B530B12AB123B13C
:10C050004024009408F0E4FC38BD0E2038BD08B53B
:10C0600041B13BB130B1009313460A46402108F07C
:10C07000EDFC08BD0E2008BDF8B51646070010D02F
:10C080007EB173B11C460D4608F04FFC002807D165
:10C0900008200090A31C32462946384608F0C0FC10
:10C0A000F8BD0E20F8BDF8B51D4617460E000ED09F
:10C0B0006DB160B1044608F047FC002806D13B464C
:10C0C00032460821A01C009508F0C0FCF8BD0E20E7
:10C0D000F8BD2DE9F041164607000FD076B16BB1DF
:10C0E0001C460D4608F021FC002808D1A31C32464E
:10C0F00029463846BDE8F04108F017BC0E20BDE8DF
:10C10000F0812DE9F0411D4617460E000ED06DB1AD
:10C1100060B1044608F018FC002808D12B463A46C6
:10C120003146A01CBDE8F04108F00EBC0E20BDE871
:10C13000F081F8B51646070010D07EB173B11C46E9
:10C140000D4608F0F2FB002807D105200090A31C43
:10C1500032462946384608F063FCF8BD0E20F8BD8B
:10C16000F8B51D4617460E000ED06DB160B10446FD
:10C1700008F0EAFB002806D13B4632460521A01C08
:10C18000009508F063FCF8BD0E20F8BDF8B5164622
:10C19000070018D0BEB1B3B11C460D4608F0C5FB70
:10C1A00000280FD1A31C32462946384608F0BDFBB3
:10C1B000002807D105480090231D324629463846FD
:10C1C00003F0A6FEF8BD0E20F8BD00002B490200CA
:10C1D000F8B51D4617460E0017D0B5B1A8B10446F4
:10C1E00008F0B2FB00280FD12B463A463146A01C7E
:10C1F00008F0AAFB002807D1054800902B463A46D4
:10C200003146606803F0B2FEF8BD0E20F8BD0000B4
:10C21000494902001CB538B132B12BB10624009453
:10C22000019403F09EFD1CBD0E201CBD08B549B154
:10C2300043B138B1009313460A460068062103F063
:10C24000C2FD08BD0E2008BDF8B51646070013D084
:10C2500096B18BB11C460D4608F067FB00280AD149
:10C260006B4632462946384608F0C0FB002802D10A
:10C270009DF80010A170F8BD0E20F8BD2DE9FC411D
:10C280001C460D46060025D02DB1002001903078C7
:10C2900001AF8F2802D00720BDE8FC81012001906A
:10C2A000C2B1BCB12068A8B113463A46304608F086
:10C2B0003CFB0028F0D10948009023463A46294625
:10C2C000304603F025FE0028E6D10198A84203D0AD
:10C2D0000920E1E70E20DFE70020DDE7EDC20100E5
:10C2E00013460A4601468F2007F036BB2DE9F04180
:10C2F000164607000FD076B16BB11C460D4608F00C
:10C3000075FB002808D1631C324629463846BDE833
:10C31000F04108F06BBB0E20BDE8F0812DE9F04143
:10C320001D4617460E000ED06DB160B1044608F0F0
:10C330006AFB002808D12B463A463146601CBDE80E
:10C34000F04108F060BB0E20BDE8F0817CB50C46E2
:10C35000E0B12CB100230193057801A97B2D01D018
:10C3600007207CBD0125019582B1156875B1022CAD
:10C370000AD3009313460A46214603F0C9FD00285C
:10C38000EFD10198A04203D009207CBD0E207CBDD6
:10C3900000207CBD2DE9FF4184B0984614460F0073
:10C3A00019D0C4B10020019025687B2001AE8DF822
:10C3B000080033462A4602A808F025FB00280BD1C6
:10C3C00033462A46394604A808F0EFFA002803D17C
:10C3D000049870B903E00E2008B0BDE8F08107486A
:10C3E000009033462A463946404603F0BFFD0028F8
:10C3F000F2D1019820600020EEE7000009AC0100B6
:10C400001CB50C46C8B12CB100210191037801A9DB
:10C410007A2B01D007201CBD012301936AB1094B7F
:10C42000009313460A46214603F072FD0028F2D11C
:10C430000198A04203D009201CBD0E201CBD002085
:10C440001CBD0000B9AB010013460A4601467A2024
:10C4500007F082BA1CB50C4640B12CB10021019105
:10C46000037801A9712B03D007201CBD0E201CBD31
:10C4700001230193074B009313460A46214603F01C
:10C4800047FD0028F3D10198A04201D009201CBD2E
:10C4900000201CBD05C501002DE9FF4184B0984670
:10C4A00014460F0019D0C4B10020019025687120F6
:10C4B00001AE8DF8080033462A4602A808F0A3FA18
:10C4C00000280BD133462A46394604A808F06DFAF5
:10C4D000002803D1049870B903E00E2008B0BDE82D
:10C4E000F0810748009033462A463946404603F01B
:10C4F0003DFD0028F2D1019820600020EEE7000009
:10C5000059C50100F8B51646070020D0FEB1F3B1B9
:10C510001C460D4608F06AFA002817D1631C324603
:10C520002946384608F062FA00280FD1A31C32468B
:10C530002946384608F0F9F9002807D10548009047
:10C54000231D32462946384603F0E2FCF8BD0E2092
:10C55000F8BD00001DBD0100F8B51D4617460E00D0
:10C560001FD0F5B1E8B1044608F04DFA002817D104
:10C570002B463A463146601C08F045FA00280FD198
:10C580002B463A463146A01C08F0DEF9002807D1B8
:10C59000054800902B463A463146606803F0E6FCB9
:10C5A000F8BD0E20F8BD000033BD01001CB50C46DF
:10C5B00040B12CB100210191037801A9702B03D067
:10C5C00007201CBD0E201CBD01230193074B0093C7
:10C5D00013460A46214603F09BFC0028F3D101983C
:10C5E000A04201D009201CBD00201CBD05C50100D2
:10C5F00013460A460146702007F0AEB92DE9FC4704
:10C600001D460A9C0E46070035D046B14FF0000883
:10C61000CDF8048038780DF104098E2802D0072067
:10C62000BDE8FC87012001902AB325B3286810B328
:10C6300013464A46384608F078F90028F0D12B46D0
:10C640004A4631463846CDF8008003F061FC0028A8
:10C65000E6D184B1206870B123464A463146384657
:10C66000CDF8008003F054FC0028D9D10198B042E5
:10C6700003D00920D4E70E20D2E70020D0E7000045
:10C680002DE9FF4784B09946DDF840A014465FEAE3
:10C6900001081AD0CCB10020019026688E2001AF8D
:10C6A0008DF808003B463246414602A808F0ABF937
:10C6B00000280BD13B463246414604A808F075F9E4
:10C6C000002803D10498B8B903E00E2008B0BDE8F3
:10C6D000F0870B4D3B46324641464846009503F0F5
:10C6E00045FC0028F2D13B46324641465046009573
:10C6F00003F03CFC0028E9D1019820600020E5E728
:10C70000074A02002DE9F8431F46DDF820800C4659
:10C7100005002CD02CB10020009028786E46882887
:10C7200002D00720BDE8F88301200090FAB1F7B1EC
:10C730005FEA08001BD013463246284608F0F5F899
:10C740000028EFD13B4632462146284608F04EF9F4
:10C750000028E7D1434632462146284608F046F9EC
:10C760000028DFD10098A04203D00920DAE70E208C
:10C77000D8E70020D6E713460A460146882007F08E
:10C78000EBB838B50C46B8B12CB100210091037854
:10C790006946892B01D0072038BD012300935AB187
:10C7A00013460A46214608F0C0F80028F4D1009844
:10C7B000A04203D0092038BD0E2038BD002038BD6E
:10C7C00013460A460146892007F0C6B82DE9FC4702
:10C7D0001E46DDE90A540F465FEA000842D03FB129
:10C7E0000020019098F800000DF10409862802D07D
:10C7F0000720BDE8FC870120019092B38EB385B37A
:10C800007CB3306868B3286858B3206848B31346CF
:10C810004A46404608F089F80028EAD113480090BB
:10C8200033464A463946404603F072FB0028E0D1C1
:10C830000F4800902B464A463946404603F068FBB5
:10C840000028D6D10B48009023464A463946404638
:10C8500003F05EFB0028CCD10198B84204D0092037
:10C86000C7E7FFE70E20C4E70020C2E765B001007C
:10C870001DBD0100F5CC010013460A460146862085
:10C8800007F06AB838B500B3FAB1F3B11C466B468D
:10C8900008F0ACF8002817D19DF80020217862F349
:10C8A000000121709DF80020520862F341012170BF
:10C8B0009DF80020920862F3820121709DF800200B
:10C8C000D20862F3C301217038BD0E2038BD38B5DF
:10C8D000A9B1A3B198B10078C0F34005044665F34F
:10C8E0005F04C0F3800544EA8504C0F3C00044EA55
:10C8F000C0008DF80000684608F085F838BD0E20AD
:10C9000038BD0000F8B51646070029D046B33BB342
:10C91000144800901C460D46384603F0F9FA0028EA
:10C920001DD111480090231D32462946384603F098
:10C93000EFFA002813D10D48009004F108033246A5
:10C940002946384603F0E4FA002808D10848009048
:10C9500004F10C0332462946384603F0D9FAF8BDF3
:10C960000E20F8BD01B101009DBC0100F5CC010015
:10C9700049C00100F8B51D4617460E0026D02DB35C
:10C9800020B3044612480090206803F0EFFA002814
:10C990001BD1104800902B463A463146606803F0A0
:10C9A000E5FA002811D10C4800902B463A46314652
:10C9B000A06803F0DBFA002807D1084800902B4656
:10C9C0003A463146E06803F0D1FAF8BD0E20F8BDD2
:10C9D00041B10100DDBC01000BCD01005FC00100D1
:10C9E0002DE9F84316465FEA000813D096B18BB1E3
:10C9F000094F1C460D46009705F01FFA002807D185
:10CA000004F11003324629464046009705F015FA16
:10CA1000BDE8F8830E20FBE705C901002DE9F843C6
:10CA20001D4690460E0012D08DB180B1094F0446CC
:10CA3000009705F034FA002807D12B4642463146CC
:10CA400004F11000009705F02AFABDE8F8830E20E3
:10CA5000FBE7000075C9010038B5A9B1A3B198B1D1
:10CA60000078C0F34005044665F35F04C0F3800519
:10CA700044EA8504C0F3C00044EAC0008DF8000019
:10CA8000684607F0C0FF38BD0E2038BD2DE9FC47D1
:10CA90009846DDE90A540E4607003FD036B1002023
:10CAA000019038780DF104097F2802D00720BDE8F5
:10CAB000FC870120019082B3B8F1000F2ED065B33E
:10CAC000286850B34CB3206838B313464A463846FA
:10CAD00007F02BFF0028EAD143464A463146384644
:10CAE00007F084FF0028E2D10E4800902B464A460A
:10CAF0003146384603F00CFA0028D8D10A48009095
:10CB000023464A463146384603F002FA0028CED181
:10CB10000198B04204D00920C9E7FFE70E20C6E71C
:10CB20000020C4E799CB0100E1C901002DE9FF41D4
:10CB300084B0984614460F0019D0C4B1002001906B
:10CB400025687F2001AE8DF8080033462A4602A8EA
:10CB500007F059FF00280BD133462A46394604A86E
:10CB600007F023FF002803D1049870B903E00E20DA
:10CB700008B0BDE8F0810748009033462A463946A0
:10CB8000404603F0F3F90028F2D10198206000201C
:10CB9000EEE700001DCA01002DE9FC4116465FEAE0
:10CBA000000853D0002E51D0002B4FD01C460D460C
:10CBB00001AB07F01BFF002846D1631C3246294613
:10CBC000404607F013FF00283ED1A31C32462946F9
:10CBD000404607F00BFF002836D11D4FE31C3246BC
:10CBE00029464046009705F028F900282CD1231D3E
:10CBF000324629464046009705F01FF9002823D108
:10CC00009DF80420217862F3000121709DF8042032
:10CC1000520862F3410121709DF80420920862F3EA
:10CC2000820121709DF80420D20862F3C3012170B3
:10CC30009DF80420120962F3061121709DF804206A
:10CC4000D20962F3C7112170BDE8FC810E20FBE719
:10CC500085C801002DE9FC411D4690460E0045D0D7
:10CC6000F5B3E8B304460078C0F34002014662F32E
:10CC70005F01C0F3800241EA8201C0F3C00241EAD1
:10CC8000C201C0F3021241EA021120F07F00014309
:10CC90008DF804104246314601A807F0B4FE002882
:10CCA00022D12B4642463146601C07F0ACFE0028DC
:10CCB0001AD12B4642463146A01C07F0A4FE00289C
:10CCC00012D10B4F2B4642463146E01C009705F02F
:10CCD000E6F8002808D12B4642463146201D00E0E8
:10CCE00004E0009705F0DBF8BDE8FC810E20FBE7CF
:10CCF000CFC8010038B530B12AB123B11024009457
:10CD000007F08EFE38BD0E2038BD08B541B13BB1ED
:10CD100030B1009313460A46102107F097FE08BD74
:10CD20000E2008BD2DE9F8439846089F0C460500E3
:10CD300028D02CB10020009028786E46772802D0A9
:10CD40000720BDE8F88301200090DFB1134632468A
:10CD5000284607F04BFE0028F3D1434632462146D1
:10CD6000284607F0E2FD0028EBD13B46324621463B
:10CD7000284607F03BFE0028E3D10098A04203D0EC
:10CD80000920DEE70E20DCE70020DAE713460A463A
:10CD90000146772006F0E0BD2DE9FE4F144606005F
:10CDA00098460D4629D035B10027019730780DF10E
:10CDB000040A6E2802D00720BDE8FE8F01200190F2
:10CDC000DCB12068C8B10068B8B15246304607F0FF
:10CDD0000DFE0028F0D102AB52462946304607F03E
:10CDE00005FE0028E8D19DF80800012807D027603B
:10CDF0000198A84219D00920DEE70E20DCE7276859
:10CE00000024DFF82C900BE007EB84035246294600
:10CE10003046CDF8009003F07BF80028CCD1641C9C
:10CE200098F80000A042EFD8E2E70020C4E7000035
:10CE30008DA4010013460A4601466E2006F08CBD03
:10CE400038B5A0B19AB193B11C466B4607F0CEFD40
:10CE500000280BD19DF80020217862F30001217099
:10CE60009DF80020520862F34101217038BD0E2068
:10CE700038BD38B590B38AB383B31C466B4607F010
:10CE8000B5FD002829D19DF80020217862F300012A
:10CE900021709DF80020520862F3410121709DF835
:10CEA0000020920862F3820121709DF80020D208D0
:10CEB00062F3C30121709DF80020120962F304118E
:10CEC00021709DF80020520962F3451121709DF8F0
:10CED0000020920962F38611217038BDFFE70E2011
:10CEE000FBE738B509B303B3F8B10078C0F34005E8
:10CEF000044665F35F04C0F3800544EA8504C0F38B
:10CF0000C00544EAC504C0F3001544EA0514C0F3A3
:10CF1000401544EA4514C0F3801044EA80108DF8AF
:10CF20000000684607F06FFD38BD0E2038BD18B10F
:10CF300012B10BB107F0F9BC0E207047F8B51D46D1
:10CF400017460E000FD075B168B1044607F0FCFC1F
:10CF5000002807D1054800902B463A463146A01CD0
:10CF600004F0B1FFF8BD0E20F8BD0000DBF80100B1
:10CF7000F8B51D4617460E000FD075B168B10446CE
:10CF800007F0E2FC002807D1054800902B463A46FE
:10CF90003146A01C04F097FFF8BD0E20F8BD00003C
:10CFA000F5FA01002DE9FC411C460D46060025D08E
:10CFB0002DB100200190307801AF9F2802D00720CA
:10CFC000BDE8FC8101200190C2B1BCB12068A8B1CC
:10CFD00013463A46304607F0A8FC0028F0D109482D
:10CFE000009023463A462946304602F091FF002839
:10CFF000E6D10198A84203D00920E1E70E20DFE73F
:10D000000020DDE7C3DD010013460A4601469F20EC
:10D0100006F0A2BC2DE9FC411D4617460E0032D099
:10D0200085B378B3044619480090204604F04BFFBE
:10D03000002825D1164800902B463A463146201D3F
:10D0400004F041FF00281BD160792B4600F001005D
:10D050008DF804003A46314601A807F0D4FC0028B8
:10D060000ED12B463A463146A01D07F06DFC002834
:10D0700006D12B463A46314604F1080007F064FC1D
:10D08000BDE8FC81FFE70E20FAE70000F5FA010099
:10D09000E3CE01002DE9FC411D46089C0E46070029
:10D0A00033D036B10020019038780DF10408A02863
:10D0B00002D00720BDE8FC81012001902AB325B3EE
:10D0C000286810B30CB32068F8B1134642463846BE
:10D0D00007F02BFC0028EDD10E4800902B4642466D
:10D0E0003146384602F014FF0028E3D10A48009088
:10D0F000234642463146384602F00AFF0028D9D17D
:10D100000198B04203D00920D4E70E20D2E70020D6
:10D11000D0E70000C5FA0100C3DD010013460A464E
:10D120000146A02006F018BC2DE9FC411C46089FD2
:10D130000D46060026D035B10020019030780DF163
:10D140000408A22802D00720BDE8FC81012001903C
:10D15000C2B1BCB12068A8B1A7B11346424630465F
:10D1600007F0E3FB0028EFD123464246294630462C
:10D17000009704F039F90028E6D10198A84203D0BD
:10D180000920E1E70E20DFE70020DDE713460A462D
:10D190000146A22006F0E0BB2DE9FC411F460C46EB
:10D1A000050009D02CB100200190287801AE9D28FF
:10D1B00004D00720BDE8FC810E20FBE701201346C8
:10D1C00001903246284607F0B0FB0028F2D108480B
:10D1D00000903B4632462146284602F099FE002840
:10D1E000E8D10198A04201D00920E3E70020E1E75F
:10D1F000C3DD010013460A4601469D2006F0ACBB84
:10D2000018B112B10BB107F0F1BB0E20704700004E
:10D21000F8B51D4617460E000FD075B168B104462B
:10D2200007F092FB002807D1054800902B463A46AC
:10D230003146A01C04F047FEF8BD0E20F8BD0000EA
:10D24000F5FA01002DE9FC411F460C46050009D006
:10D250002CB100200190287801AE9E2804D0072030
:10D26000BDE8FC810E20FBE7012013460190324609
:10D27000284607F05AFB0028F2D1084800903B46A8
:10D2800032462146284602F043FE0028E8D10198A4
:10D29000A04201D00920E3E70020E1E7C3DD01005F
:10D2A00013460A4601469E2006F056BB2DE9FE4372
:10D2B0001D461646040007D036B12DB1208834280B
:10D2C00004D00720BDE8FE830E20FBE7002001907C
:10D2D0002F6834200DF10408ADF8080043463A46A3
:10D2E000314602A807F030FB0028EBD143463A460E
:10D2F0003146201D07F028FB0028E3D143463A467B
:10D300003146A01D07F020FB0028DBD143463A46FA
:10D31000314604F1080007F017FB0028D2D1074876
:10D32000009043463A46314604F10A0004F0C1FD3C
:10D330000028C7D101992960C4E7000041D301004A
:10D340002DE9F8431F4691465FEA010814D09FB1CA
:10D3500090B1044607F0F8FA00280ED13B464A4641
:10D360004146A01C07F04FFB002806D1A1780129F7
:10D3700005D0104E002515E00E20BDE8F8830E4EB6
:10D38000F8E7A078012811D005EBC50004EB4000B8
:10D39000001D3B464A464146009604F094FD002895
:10D3A000EBD16D1C2188A942EBD8E6E705EB4500DF
:10D3B000ECE700003DCF010071CF01002DE9FE43F5
:10D3C0001D461646040007D036B12DB120883228FC
:10D3D00004D00720BDE8FE830E20FBE7002001906B
:10D3E0002F6832200DF10408ADF8080043463A4694
:10D3F000314602A807F0A8FA0028EBD143463A4686
:10D400003146201D07F0A0FA0028E3D143463A46F2
:10D410003146A01D07F098FA0028DBD143463A4672
:10D42000314604F1080007F08FFA0028D2D10748EE
:10D43000009043463A46314604F10A0004F039FDB3
:10D440000028C7D101992960C4E7000051D4010028
:10D450002DE9F8431E4691465FEA010809D046B11E
:10D4600038B1044607F070FA002803D100250B4FAD
:10D4700010E00E20BDE8F88305EB850004EB4000CA
:10D4800033464A464146801C009704F01CFD0028A4
:10D49000F0D16D1C2188A942EED8EBE715D0010030
:10D4A0002DE9FE431D461646040007D036B12DB1C6
:10D4B0002088352804D00720BDE8FE830E20FBE736
:10D4C000002001902F6835200DF10408ADF8080008
:10D4D00043463A46314602A807F036FA0028EBD117
:10D4E00043463A463146201D07F02EFA0028E3D184
:10D4F00043463A463146A01D07F026FA0028DBD104
:10D5000043463A46314604F1080007F01DFA002868
:10D51000D2D10748009043463A46314604F10A000A
:10D5200004F0C7FC0028C7D101992960C4E70000B6
:10D5300035D50100F8B51D4617460E001AD0CDB1FD
:10D54000C0B1044607F000FA002812D12B463A4633
:10D550003146A01C07F0F8F900280AD1608821881C
:10D56000801C484381B23B463246201D009507F09F
:10D570006DFAF8BD0E20F8BD2DE9FE431D46164696
:10D58000040007D036B12DB12088372804D00720F9
:10D59000BDE8FE830E20FBE7002001902F683720B6
:10D5A0000DF10408ADF8080043463A46314602A89A
:10D5B00007F0CAF90028EBD143463A463146201D10
:10D5C00007F0C2F90028E3D143463A463146A01D90
:10D5D00007F0BAF90028DBD143463A46314604F158
:10D5E000080007F0B1F90028D2D10748009043465F
:10D5F0003A46314604F10A0004F05BFC0028C7D12A
:10D6000001992960C4E700000DD60100F8B51D4658
:10D6100017460E000ED06DB160B1044607F094F9C4
:10D62000002806D1009521883B463246A01C07F011
:10D630000DFAF8BD0E20F8BD2DE9FE431D46164635
:10D64000040007D036B12DB12088332804D007203C
:10D65000BDE8FE830E20FBE7002001902F683320F9
:10D660000DF10408ADF8080043463A46314602A8D9
:10D6700007F06AF90028EBD143463A463146201DAF
:10D6800007F062F90028E3D143463A463146A01D2F
:10D6900007F05AF90028DBD143463A46314604F1F7
:10D6A000080007F051F90028D2D1074800904346FE
:10D6B0003A46314604F10A0004F0FBFB0028C7D1CA
:10D6C00001992960C4E70000CDD601002DE9F84397
:10D6D0001E4691465FEA010809D046B138B10446BA
:10D6E00007F032F9002803D100250B4F10E00E207F
:10D6F000BDE8F88305EB450004EB400033464A469D
:10D700004146801C009704F0DEFB0028F0D16D1C20
:10D710002188A942EED8EBE711D201002DE9FE43A2
:10D720001D461646040007D036B12DB120883A2890
:10D7300004D00720BDE8FE830E20FBE70020019007
:10D740002F683A200DF10408ADF8080043463A4628
:10D75000314602A807F0F8F80028EBD143463A46D4
:10D760003146201D07F0F0F80028E3D143463A4641
:10D770003146A01D07F0E8F80028DBD143463A46C1
:10D78000314604F1080007F0DFF80028D2D107483D
:10D79000009043463A46314604F10A0004F089FB02
:10D7A0000028C7D101992960C4E70000B1D7010062
:10D7B00019B113B108B107F0C7B80E2070470000C7
:10D7C0002DE9FE431D461646040007D036B12DB1A3
:10D7D0002088392804D00720BDE8FE830E20FBE70F
:10D7E000002001902F6839200DF10408ADF80800E1
:10D7F00043463A46314602A807F0A6F80028EBD186
:10D8000043463A463146201D07F09EF80028E3D1F2
:10D8100043463A463146A01D07F096F80028DBD172
:10D8200043463A46314604F1080007F08DF80028D7
:10D83000D2D10748009043463A46314604F10A00E7
:10D8400004F037FB0028C7D101992960C4E7000024
:10D8500055D80100F8B51D4617460E001ED0EDB193
:10D86000E0B1044607F070F8002816D12B463A467E
:10D870003146A01C07F0C7F800280ED12B463A46C7
:10D880003146201D07F060F8002806D10095A188D8
:10D890003B463246A01D07F0D9F8F8BD0E20F8BD72
:10D8A0002DE9FE431D461646040007D036B12DB1C2
:10D8B0002088302804D00720BDE8FE830E20FBE737
:10D8C000002001902F6830200DF10408ADF8080009
:10D8D00043463A46314602A807F036F80028EBD115
:10D8E00043463A463146201D07F02EF80028E3D182
:10D8F00043463A463146A01D07F026F80028DBD102
:10D9000043463A46314604F1080007F01DF8002866
:10D91000D2D10748009043463A46314604F10A0006
:10D9200004F0C7FA0028C7D101992960C4E70000B4
:10D9300035D901002DE9F8431E4691465FEA0108FA
:10D9400009D046B138B1044606F0FEFF002803D1E5
:10D9500000250A4F0EE00E20BDE8F88304EBC50059
:10D9600033464A464146801C009704F0ACFA002832
:10D97000F2D16D1C2188A942F0D8EDE70DE001003D
:10D980002DE9FE431D461646040007D036B12DB1E1
:10D990002088362804D00720BDE8FE830E20FBE750
:10D9A000002001902F6836200DF10408ADF8080022
:10D9B00043463A46314602A806F0C6FF0028EBD19E
:10D9C00043463A463146201D06F0BEFF0028E3D10B
:10D9D00043463A463146A01D06F0B6FF0028DBD18B
:10D9E00043463A46314604F1080006F0ADFF0028F0
:10D9F000D2D10748009043463A46314604F10A0026
:10DA000004F057FA0028C7D101992960C4E7000043
:10DA100015DA0100F8B51D4617460E001ED0EDB10F
:10DA2000E0B1044606F090FF002816D12B463A4696
:10DA30003146A01C06F088FF00280ED12B463A463E
:10DA40003146201D06F080FF002806D10095A188F0
:10DA50003B463246A01D06F0F9FFF8BD0E20F8BD8A
:10DA60002DE9FE431D461646040007D036B12DB100
:10DA70002088312804D00720BDE8FE830E20FBE774
:10DA8000002001902F6831200DF10408ADF8080046
:10DA900043463A46314602A806F056FF0028EBD12D
:10DAA00043463A463146201D06F04EFF0028E3D19A
:10DAB00043463A463146A01D06F046FF0028DBD11A
:10DAC00043463A46314604F1080006F03DFF00287F
:10DAD000D2D10748009043463A46314604F10A0045
:10DAE00004F0E7F90028C7D101992960C4E70000D4
:10DAF000F5DA01002DE9F84F984692465FEA0109F0
:10DB00000ED0B8F1000F0BD050B104464346494641
:10DB100006F01AFF002804D1A51C0026094F0DE0CD
:10DB20000E20BDE8F88F43465246494628460097E6
:10DB300004F0C9F90028F4D10A35761C2188B142D5
:10DB4000F1D8EEE781DE01002DE9FE431D461646C1
:10DB5000040007D036B12DB120883B2804D007201F
:10DB6000BDE8FE830E20FBE7002001902F683B20DC
:10DB70000DF10408ADF8080043463A46314602A8C4
:10DB800006F0E2FE0028EBD143463A463146201D1E
:10DB900006F0DAFE0028E3D143463A463146A01D9E
:10DBA00006F0D2FE0028DBD143463A46314604F166
:10DBB000080006F0C9FE0028D2D10748009043466D
:10DBC0003A46314604F10A0004F073F90028C7D13F
:10DBD00001992960C4E70000DDDB010019B113B130
:10DBE00008B106F010BF0E2070472DE9FC411D461C
:10DBF0001646040007D036B12DB120883C2804D049
:10DC00000720BDE8FC810E20FBE7002000902F6874
:10DC10003C20E846ADF8040043463A46314601A8A8
:10DC200006F092FE0028ECD143463A463146201DCC
:10DC300006F08AFE0028E4D143463A463146A01D4C
:10DC400006F082FE0028DCD143463A46314604F114
:10DC5000080006F079FE0028D3D143463A46314603
:10DC600004F10A0006F0CFFE0028CAD1009929600D
:10DC7000C7E700002DE9FE431D461646040007D005
:10DC800036B12DB12088382804D00720BDE8FE83A6
:10DC90000E20FBE7002001902F6838200DF10408CA
:10DCA000ADF8080043463A46314602A806F04CFE5D
:10DCB0000028EBD143463A463146201D06F044FE8B
:10DCC0000028E3D143463A463146A01D06F03CFE0B
:10DCD0000028DBD143463A46314604F1080006F0FD
:10DCE00033FE0028D2D10748009043463A463146D9
:10DCF00004F10A0004F0DDF80028C7D10199296079
:10DD0000C4E7000009DD0100F8B51D4617460E0006
:10DD100027D035B328B3044606F016FE00281FD1DD
:10DD20002B463A463146A01C06F06DFE002817D15E
:10DD30002B463A463146201D06F006FE00280FD13C
:10DD40002B463A463146A01D06F0FEFD002807D1BD
:10DD50000095E1883B46324604F1080006F076FE65
:10DD6000F8BD0E20F8BDF8B51F460C46050008D0DA
:10DD70002CB10020009028786E46A52803D00720FB
:10DD8000F8BD0E20F8BD012013460090324628460B
:10DD900006F0CBFD0028F5D13B4632462146284609
:10DDA00006F0C3FD0028EDD10098A04201D0092063
:10DDB000F8BD0020F8BD13460A460146A52005F02F
:10DDC000CBBD2DE9F041164607000FD076B16BB1FF
:10DDD0001C460D4606F0A9FD002808D1A31C3246BA
:10DDE00029463846BDE8F04106F09FBD0E20BDE84B
:10DDF000F0812DE9F0411D4617460E000ED06DB1A1
:10DE000060B1044606F0A0FD002808D12B463A4632
:10DE10003146A01CBDE8F04106F096BD0E20BDE8DD
:10DE2000F081F8B51F460C46050008D02CB1002043
:10DE3000009028786E46A42803D00720F8BD0E2055
:10DE4000F8BD0120134600903246284606F06DFDCD
:10DE50000028F5D13B4632462146284606F065FDAE
:10DE60000028EDD10098A04201D00920F8BD002083
:10DE7000F8BD13460A460146A42005F06DBD00001A
:10DE8000F8B51D4617460E000FD075B168B10446AF
:10DE900006F05AFD002807D1054800902B463A4667
:10DEA0003146A01C04F00FF8F8BD0E20F8BD0000AC
:10DEB0000DE001002DE9FC411F46DDF820800C46F5
:10DEC000050009D02CB100200190287801AE9B28D4
:10DED00004D00720BDE8FC810E20FBE7012013469B
:10DEE00001903246284606F020FD0028F2D13B463C
:10DEF00032462146284606F018FD0028EAD1084897
:10DF00000090434632462146284602F001F8002898
:10DF1000E0D10198A04201D00920DBE70020D9E739
:10DF2000C5FA010013460A4601469B2005F014BDC0
:10DF30002DE9F8431F46DDF820800C46050009D086
:10DF40002CB10020009028786E46A12804D007202C
:10DF5000BDE8F8830E20FBE701201346009032460F
:10DF6000284606F0E2FC0028F2D13B463246214624
:10DF7000284606F0DAFC0028EAD14346324621461C
:10DF8000284606F0D2FC0028E2D10098A04201D039
:10DF90000920DDE70020DBE713460A460146A12001
:10DFA00005F0DABC2DE9FC411F460C46050009D0FE
:10DFB0002CB100200190287801AE9C2804D00720C5
:10DFC000BDE8FC810E20FBE701201346019032469C
:10DFD000284606F0AAFC0028F2D1084800903B46EB
:10DFE00032462146284601F093FF0028E8D10198E7
:10DFF000A04201D00920E3E70020E1E7C3DD0100F2
:10E0000013460A4601469C2005F0A6BCF8B51D46FD
:10E0100017460E0012D08DB180B10446084800901A
:10E02000204603F050FF002807D1064800902B46F9
:10E030003A463146201D03F046FFF8BD0E20F8BDDC
:10E04000F5FA0100F3DD0100F8B51646070028D007
:10E050003EB333B31C460D4606F0C8FC00281FD162
:10E06000631C32462946384606F0C0FC002817D10A
:10E07000A31C32462946384606F057FC00280FD12B
:10E08000231D32462946384606F04FFC002807D1AA
:10E09000A01D831C009032462946384604F00DF836
:10E0A000F8BD0E20F8BD00002DE9FC411F460C46CE
:10E0B000050009D02CB100200190287801AEA328DA
:10E0C00004D00720BDE8FC810E20FBE701201346A9
:10E0D00001903246284606F028FC0028F2D1084874
:10E0E00000903B4632462146284601F011FF0028A9
:10E0F000E8D10198A04201D00920E3E70020E1E740
:10E1000049E0010013460A460146A32005F024BC5D
:10E110002DE9FC479846DDF828900D46060009D009
:10E120002DB100240194307801AFB42804D0072029
:10E13000BDE8FC870E20FBE70120134601903A461C
:10E14000304606F0F2FB0028F2D143463A46294613
:10E150003046009401F0DCFE0028E9D14B463A46F7
:10E1600029463046009401F0D3FE0028E0D1019802
:10E17000A84201D00920DBE70020D9E72DE9FF43C1
:10E1800083B09846DDF8389014460F0019D0C4B11A
:10E19000002001902568B42001AE8DF808003346B8
:10E1A0002A4602A806F02FFC00280BD133462A4647
:10E1B000394603A806F0F9FB002803D10398C0B93B
:10E1C00003E00E2007B0BDE8F0830C480090334612
:10E1D0002A463946404601F0C9FE0028F2D10848D7
:10E1E000009033462A463946484601F0BFFE0028D3
:10E1F000E8D1019820600020E4E70000F5FA010072
:10E2000071E201002DE9FC4116465FEA00082BD0BF
:10E2100056B34BB3154F1C460D46009703F017FE3F
:10E2200000281FD1631C324629464046009703F060
:10E230000EFE002816D101AB32462946404606F0B4
:10E24000D5FB00280ED19DF80410A2784B0861F38D
:10E25000000263F34202CB0863F3C302090961F3CE
:10E260000412A270BDE8FC810E20FBE71DAD010089
:10E270002DE9FC411D4690460E0032D085B378B39F
:10E28000194F0446009703F032FE002826D12B4692
:10E2900042463146601C009703F029FE00281DD13C
:10E2A000A0782B46C0F34102014662F35F01C0F340
:10E2B000C00241EAC201C0F3001041EA00108DF82B
:10E2C00004004246314601A806F09DFB002805D116
:10E2D000A178C1F34101012900D00720BDE8FC81EC
:10E2E000FFE70E20FAE700004FAD0100F8B5164633
:10E2F000070032D086B37BB3194800901C460D4608
:10E30000384601F005FE002825D116480090231D4F
:10E3100032462946384601F0FBFD00281BD104F1A6
:10E320000A0332462946384606F0FFFA002812D181
:10E3300004F10C0332462946384606F0F6FA002866
:10E3400009D104F10800009004F110033246294677
:10E35000384603F0B2FEF8BDFFE70E20FBE70000F1
:10E36000C5FA010005E201002DE9FC41164607004F
:10E3700028D03EB333B31C460D4606F0D6FA00282B
:10E380001ED101AB32462946384606F02FFB002845
:10E3900016D1231D32462946384606F0C6FA002813
:10E3A0000ED1A01D831C009032462946384603F04A
:10E3B00084FE002804D19DF8041001F00101A17031
:10E3C000BDE8FC810E20FBE718B112B10BB106F0DD
:10E3D000D5BA0E20704738B558B152B14BB11C4672
:10E3E0006B4606F003FB002802D19DF80010217057
:10E3F00038BD0E2038BD2DE9F0411D4617460E00F0
:10E400001ED0EDB1E0B1044606F09EFA002818D106
:10E410002B463A463146A01C06F096FA002810D149
:10E420002B463A463146201D06F08EFA002808D1C8
:10E430002B463A463146A01DBDE8F04106F084BAAD
:10E440000E20BDE8F08100002DE9F84316465FEA92
:10E45000000854D0002E52D0002B50D029480090F4
:10E460001C460D46404603F0F2FC002845D12648E4
:10E470000090631C32462946404603F0E8FC002821
:10E480003BD104F1080332462946404606F04DFAD6
:10E49000002832D104F10A000090231D324629469B
:10E4A000404603F00AFE002827D11848009004F1E6
:10E4B0000C0332462946404601F02AFD00281CD1B3
:10E4C000134F04F11003324629464046009701F0ED
:10E4D0001FFD002811D104F114033246294640469D
:10E4E000009701F015FD002807D104F1180332460A
:10E4F00029464046009701F00BFDBDE8F8830E2049
:10E50000FBE7000073CE010041CE010015E50100DC
:10E5100005E201002DE9F0411646070027D036B389
:10E520002BB31C460D4606F061FA002820D1631C6F
:10E5300032462946384606F059FA002818D1A31C5D
:10E5400032462946384606F0F0F9002810D1231D3E
:10E5500032462946384606F049FA002808D1A31D5C
:10E56000324629463846BDE8F04106F0DEB90E20B5
:10E57000BDE8F0812DE9FC479846DDE90A9A0C4692
:10E58000050009D02CB100260196287801AFAA28F1
:10E5900004D00720BDE8FC870E20FBE701201346CE
:10E5A00001903A46284606F0C0F90028F2D11248F8
:10E5B000009043463A462146284601F0A9FC00282F
:10E5C000E8D10E4800904B463A462146284601F0D5
:10E5D0009FFC0028DED153463A4621462846009645
:10E5E00001F096FC0028D5D10198A04201D0092065
:10E5F000D0E70020CEE7000049E40100EDE2010091
:10E600002DE9FF4184B0984614460F0019D0C4B1DB
:10E61000002001902568AA2001AE8DF8080033463D
:10E620002A4602A806F0EFF900280BD133462A4605
:10E63000394604A806F0B9F9002803D1049870B946
:10E6400003E00E2008B0BDE8F08107480090334693
:10E650002A463946404601F089FC0028F2D101984B
:10E6600020600020EEE70000F7E3010018B112B1CE
:10E670000BB106F0BBB90E20704700002DE9FC4736
:10E680009846DDF828900C46050009D02CB10026EC
:10E690000196287801AFAB2804D00720BDE8FC879D
:10E6A0000E20FBE70120134601903A46284606F06B
:10E6B0003CF90028F2D10D48009043463A462146E5
:10E6C000284601F025FC0028E8D14B463A46214671
:10E6D0002846009601F01CFC0028DFD10198A042DA
:10E6E00001D00920DAE70020D8E70000EDE20100C0
:10E6F0002DE9FF4184B0984614460F0019D0C4B1EB
:10E70000002001902568AB2001AE8DF8080033464B
:10E710002A4602A806F077F900280BD133462A468C
:10E72000394604A806F041F9002803D1049870B9CD
:10E7300003E00E2008B0BDE8F081074800903346A2
:10E740002A463946404601F011FC0028F2D10198D2
:10E7500020600020EEE70000494902002DE9FE4359
:10E760001D461646040007D036B12DB12088552825
:10E7700004D00720BDE8FE830E20FBE700200190B7
:10E780002F6855200DF10408ADF8080043463A46BD
:10E79000314602A806F0D8F80028EBD143463A46A5
:10E7A0003146201D06F0D0F80028E3D1064800903D
:10E7B00043463A463146A01D03F08FFB0028D9D1CD
:10E7C00001992960D6E70000CDE7010019B113B126
:10E7D00008B106F0B9B80E20704700002DE9FE43DD
:10E7E0001D461646040007D036B12DB120885328A7
:10E7F00004D00720BDE8FE830E20FBE70020019037
:10E800002F6853200DF10408ADF8080043463A463E
:10E81000314602A806F098F80028EBD143463A4664
:10E820003146201D06F090F80028E3D106480090FC
:10E8300043463A463146A01D03F04FFB0028D9D18C
:10E8400001992960D6E700004DE8010019B113B124
:10E8500008B106F079B80E2070472DE9FC411D463D
:10E860001646040007D036B12DB12088572804D0B1
:10E870000720BDE8FC810E20FBE7002000902F68F8
:10E880005720E846ADF8040043463A46314601A811
:10E8900006F05AF80028ECD143463A463146201D8E
:10E8A00006F052F80028E4D143463A463146A01D0E
:10E8B00006F0A9F80028DCD100992960D9E700000A
:10E8C000F8B51D4617460E0019D0C5B1B8B10446BB
:10E8D00006F03AF8002813D10A4800902B463A4631
:10E8E0003146A01C03F003FB002809D101B02B46E0
:10E8F0003A463146A01DBDE8F04006F025B80E208E
:10E90000F8BD0000F5FA01002DE9F04186B01E4681
:10E910001746040008D03FB136B12088512805D0F1
:10E92000072006B0BDE8F0810E20FAE70020039032
:10E93000356851200DF10C08ADF8100043462A4609
:10E94000394604A806F000F80028EAD143462A46D2
:10E950003946201D05F0F8FF0028E2D11648009046
:10E9600043462A463946A01D03F0B7FA0500D8D120
:10E97000A07902281CD1A07B062801D0042817D139
:10E98000A08801A901F00AFC052811D003A8009075
:10E990000198336800EB400101EB001107483A464B
:10E9A00000EB81000189406803F09FFB0500B8D1AE
:10E9B000039830602846B4E7C1E90100B44600205E
:10E9C000F8B51D4617460E000DD065B158B1044686
:10E9D00006F019F8002805D12078012805D0022872
:10E9E00005D00720F8BD0E20F8BD054800E0054819
:10E9F00000902B463A463146A01C03F078FAF8BD49
:10EA0000C1E8010011EC01002DE9FC411C4616464D
:10EA1000050007D036B12CB12888542804D007202F
:10EA2000BDE8FC810E20FBE7002000902768542001
:10EA3000E846ADF8040043463A46314601A805F0E1
:10EA400083FF0028ECD143463A463146281D05F0A5
:10EA50007BFF0028E4D100992160E1E72DE9FE4326
:10EA60001D461646040007D036B12DB12088522825
:10EA700004D00720BDE8FE830E20FBE700200190B4
:10EA80002F6852200DF10408ADF8080043463A46BD
:10EA9000314602A805F058FF0028EBD143463A461C
:10EAA0003146201D05F050FF0028E3D106480090B4
:10EAB00043463A463146A01D03F00FFA0028D9D14B
:10EAC00001992960D6E70000CDEA010019B113B120
:10EAD00008B105F098BF0E20704700002DE9FE43F5
