:020000040000FA
:10000000B08D0020F902000001030000030300008E
:1000100005030000070300000903000000000000C2
:100020000000000000000000000000000B030000C2
:100030000D030000000000000F030000110300008A
:100040001303000013030000793A000013030000BB
:100050001303000013030000130300001303000048
:100060001303000013030000130300001303000038
:1000700013030000D5360000130300001303000033
:100080001303000013030000130300001303000018
:100090001303000013030000130300001303000008
:1000A00013030000130300001303000013030000F8
:1000B0001303000013030000000000000000000014
:1000C00013030000130300001303000013030000D8
:1000D00013030000130300001303000000000000DE
:1000E0000000000000000000000000000000000010
:1000F0000000000000000000000000000000000000
:1001000000000000000000000000000000000000EF
:1001100000000000000000000000000000000000DF
:1001200000000000000000000000000000000000CF
:1001300000000000000000000000000000000000BF
:1001400000000000000000000000000000000000AF
:10015000000000000000000000000000000000009F
:10016000000000000000000000000000000000008F
:10017000000000000000000000000000000000007F
:10018000000000000000000000000000000000006F
:10019000000000000000000000000000000000005F
:1001A000000000000000000000000000000000004F
:1001B000000000000000000000000000000000003F
:1001C000000000000000000000000000000000002F
:1001D000000000000000000000000000000000001F
:1001E000000000000000000000000000000000000F
:1001F00000000000000000000000000000000000FF
:10020000DFF80CD001F006FB00480047E94700008A
:10021000B08D002030B4044654E8000F0D4644E889
:100220000053002BF8D1156030BC704730B4044641
:1002300054E8000F40EA010544E80053002BF7D1D1
:10024000156030BC704730B4044654E8000F00EA33
:10025000010544E80053002BF7D1156030BC70470E
:1002600030B4044654E8000F80EA010544E8005326
:10027000002BF7D1156030BC704730B4044654E809
:10028000000F00EB010544E80053002BF7D1156087
:1002900030BC704730B4044654E8000FA0EB0105B1
:1002A00044E80053002BF7D1156030BC704770B4A0
:1002B00004464FF0000054E8006F0D68AE4207BFDF
:1002C00044E80023012044E800630E60002B1CBFBB
:1002D0000020F0E770BC704730B4044654E8000FCB
:1002E00088422CBF451A054644E80053002BF5D13F
:1002F000156030BC7047000006488047064800473C
:10030000FEE7FEE7FEE7FEE7FEE7FEE7FEE7FEE7C5
:10031000FEE7FEE75D3700000102000070B491E8DF
:100320007800B2E802105B1854EB0C04B2E802103B
:100330004D4156EB0C0680E878008041013070BCDE
:10034000704770B491E87800B2E802105B1A74EB61
:100350000C04B2E802108D4176EB0C0680E87800C0
:100360008041404270BC70472DE9F00791E8F807E2
:10037000B2E802105B1854EB0C04B2E802104D41D5
:1003800056EB0C06B2E802104F4158EB0C08B2E8ED
:10039000021059EB01095AEB0C0A80E8F80780417A
:1003A0000130BDE8F00770472DE9F00791E8F80744
:1003B000B2E802105B1A74EB0C04B2E802108D4133
:1003C00076EB0C06B2E802108F4178EB0C08B2E82D
:1003D000021079EB01097AEB0C0A80E8F8078041FA
:1003E0004042BDE8F00770472DE9F007524290E81F
:1003F0007800B1E880071740DB1918EA020854EBCF
:10040000080419EA020955EB09051AEA020A56EB33
:100410000A0678C090E87800B1E8800717407B4171
:1004200018EA020854EB080419EA020955EB090519
:100430001AEA020A56EB0A0678C080410130BDE88C
:10044000F00770472DE9F007524290E87800B1E8D4
:1004500080071740DB1B18EA020874EB080419EA4E
:10046000020975EB09051AEA020A76EB0A0678C05A
:1004700090E87800B1E880071740BB4118EA02080D
:1004800074EB080419EA020975EB09051AEA020A75
:1004900076EB0A0678C080414042BDE8F00770471D
:1004A00090E8300091E8C000A31B1340E41AF6184E
:1004B000EB1B1340ED1AFF1830C0C0C17047F0B5F8
:1004C0005242FFF7EDFFFFF7EBFFFFF7E9FFFFF702
:1004D000E7FFF0BD2DE9F0073AC91668A1FB069ABF
:1004E0004FF0000CE3FB06AC4FF00007E4FB06C73F
:1004F0004FF00008E5FB067840F8049B56684FF083
:100500000009E1FB06A91CEB090C4FF0000949EBBF
:100510000909E3FB06C917EB09074FF0000949EB8E
:100520000909E4FB067918EB09084FF0000949EBCB
:100530000909E5FB068940F804AB96684FF0000A0C
:10054000E1FB06CA17EB0A074FF0000A4AEB0A0A5A
:10055000E3FB067A18EB0A084FF0000A4AEB0A0A96
:10056000E4FB068A19EB0A094FF0000A4AEB0A0A73
:10057000E5FB069A40F804CBD6684FF0000CE1FB8F
:10058000067C18EB0C084FF0000C4CEB0C0CE3FB5A
:10059000068C19EB0C094FF0000C4CEB0C0CE4FB37
:1005A000069C1AEB0C0A4FF0000C4CEB0C0CE5FB14
:1005B00006AC80E88017BDE8F00770470A462DE9D1
:1005C000F04F41EC140A92EC080A1EC910EE100A12
:1005D000A1FB00784FF00009E2FB00894FF0000A10
:1005E000E3FB009A4FF0000BE4FB00AB12EE100AA5
:1005F0004FF0000CE1FB00BC4FF0000EE2FB00CE20
:100600004FF00005E3FB00E54FF00006E4FB005669
:1006100005EE107A10EE900A4FF00007E1FB00871C
:1006200019EB07094FF0000747EB0707E2FB0097BC
:100630001AEB070A4FF0000747EB0707E3FB00A799
:100640001BEB070B4FF0000747EB0707E4FB00B776
:1006500012EE900A1CEB070C4FF0000747EB070760
:10066000E1FB00C71EEB070E4FF0000747EB070743
:10067000E2FB00E7ED194FF0000747EB0707E3FB4C
:100680000057F6194FF0000747EB0707E4FB006738
:1006900005EE908A11EE100A4FF00008E1FB009879
:1006A0001AEB080A4FF0000848EB0808E2FB00A824
:1006B0001BEB080B4FF0000848EB0808E3FB00B801
:1006C0001CEB080C4FF0000848EB0808E4FB00C8DE
:1006D00013EE100A1EEB080E4FF0000848EB080856
:1006E000E1FB00E815EB08054FF0000848EB0808AF
:1006F000E2FB005816EB08064FF0000848EB08082C
:10070000E3FB006817EB08074FF0000848EB080808
:10071000E4FB007806EE109A11EE900A4FF0000903
:10072000E1FB00A91BEB090B4FF0000949EB09099C
:10073000E2FB00B91CEB090C4FF0000949EB090979
:10074000E3FB00C91EEB090E4FF0000949EB090954
:10075000E4FB00E913EE900A15EB09054FF00009E0
:1007600049EB0909E1FB005916EB09064FF00009B6
:1007700049EB0909E2FB006917EB09074FF0000993
:1007800049EB0909E3FB007918EB09084FF0000970
:1007900049EB0909E4FB008906EE90AA14EE901AD1
:1007A00001F110011EC910EE100A4FF0000AE1FB22
:1007B00000BA1CEB0A0C4FF0000A4AEB0A0AE2FBF3
:1007C00000CA1EEB0A0E4FF0000A4AEB0A0AE3FBCE
:1007D00000EA15EB0A054FF0000A4AEB0A0AE4FBAF
:1007E000005A12EE100A16EB0A064FF0000A4AEB06
:1007F0000A0AE1FB006A17EB0A074FF0000A4AEB0E
:100800000A0AE2FB007A18EB0A084FF0000A4AEBEA
:100810000A0AE3FB008A19EB0A094FF0000A4AEBC7
:100820000A0AE4FB009A07EE10BA10EE900A4FF0A5
:10083000000BE1FB00CB1EEB0B0E4FF0000B4BEB64
:100840000B0BE2FB00EB15EB0B054FF0000B4BEB3A
:100850000B0BE3FB005B16EB0B064FF0000B4BEBB7
:100860000B0BE4FB006B12EE900A17EB0B074FF03B
:10087000000B4BEB0B0BE1FB007B18EB0B084FF075
:10088000000B4BEB0B0BE2FB008B19EB0B094FF052
:10089000000B4BEB0B0BE3FB009B1AEB0B0A4FF02F
:1008A000000B4BEB0B0BE4FB00AB07EE90CA11EE19
:1008B000100A4FF0000CE1FB00EC15EB0C054FF0BB
:1008C000000C4CEB0C0CE2FB005C16EB0C064FF042
:1008D000000C4CEB0C0CE3FB006C17EB0C074FF01F
:1008E000000C4CEB0C0CE4FB007C13EE100A18EB34
:1008F0000C084FF0000C4CEB0C0CE1FB008C19EBDE
:100900000C094FF0000C4CEB0C0CE2FB009C1AEBBA
:100910000C0A4FF0000C4CEB0C0CE3FB00AC1BEB97
:100920000C0B4FF0000C4CEB0C0CE4FB00BC08EE85
:1009300010EA11EE900A4FF0000EE1FB005E16EB9C
:100940000E064FF0000E4EEB0E0EE2FB006E17EBA4
:100950000E074FF0000E4EEB0E0EE3FB007E18EB81
:100960000E084FF0000E4EEB0E0EE4FB008E13EE61
:10097000900A19EB0E094FF0000E4EEB0E0EE1FB44
:10098000009E1AEB0E0A4FF0000E4EEB0E0EE2FB2D
:1009900000AE1BEB0E0B4FF0000E4EEB0E0EE3FB0A
:1009A00000BE1CEB0E0C4FF0000E4EEB0E0EE4FBE7
:1009B00000CE14EE100AA0EC075A80E8E05FBDE814
:1009C000F08F00BF30B44FF0000310F8014B11F866
:1009D000015B013A84EA050443EA0403F5D1A3F17B
:1009E00001034FEAD37030BC70474FF0000310F89A
:1009F000012B013943EA0203F9D1A3F101034FEAC4
:100A0000D370704711F8013B00F8013B013AF9D16E
:100A10007047002200F8012B0139FBD1704700BF5D
:100A20002DE9F00791E8F807B2E802105B1854EBE3
:100A30000C04B2E802104D4156EB0C06B2E802106D
:100A40004F4158EB0C08B2E8021059EB01095AEB80
:100A50000C0A8941B3F1FF3374F1FF3475F1FF35AE
:100A600076F1000677F1000778F1000879F10109C5
:100A70007AF1FF3A51F100014A425B184C414D4175
:100A800056F1000657F1000758F1000859EB02092A
:100A90005AEB010A80E8F807BDE8F00770472DE936
:100AA000F00791E8F807B2E802105B1A74EB0C0447
:100AB000B2E802108D4176EB0C06B2E802108F41CD
:100AC00078EB0C08B2E8021079EB01097AEB0C0A1A
:100AD00089414A425B184C414D4156F1000657F19D
:100AE000000758F1000859EB02095AEB010A80E8A7
:100AF000F807BDE8F00770470A462DE9F04F41ECD2
:100B0000140A92EC080A1EC910EE100AA1FB007824
:100B10004FF00009E2FB00894FF0000AE3FB009A66
:100B20004FF0000BE4FB00AB12EE100A4FF0000C8C
:100B3000E1FB00BC4FF0000EE2FB00CE4FF00005E1
:100B4000E3FB00E54FF00006E4FB005605EE107AEB
:100B500010EE900A4FF00007E1FB008719EB070940
:100B60004FF0000747EB0707E2FB00971AEB070A75
:100B70004FF0000747EB0707E3FB00A71BEB070B52
:100B80004FF0000747EB0707E4FB00B712EE900AAF
:100B90001CEB070C4FF0000747EB0707E1FB00C712
:100BA0001EEB070E4FF0000747EB0707E2FB00E7DD
:100BB000ED194FF0000747EB0707E3FB0057F61965
:100BC0004FF0000747EB0707E4FB006705EE908A4C
:100BD00011EE100A4FF00008E1FB00981AEB080A2A
:100BE0004FF0000848EB0808E2FB00A81BEB080BDD
:100BF0004FF0000848EB0808E3FB00B81CEB080CBA
:100C00004FF0000848EB0808E4FB00C813EE100A98
:100C10001EEB080E4FF0000848EB0808E1FB00E867
:100C200015EB08054FF0000848EB0808E2FB0058F8
:100C300016EB08064FF0000848EB0808E3FB0068D5
:100C400017EB08074FF0000848EB0808E4FB0078B2
:100C500006EE109A11EE900A4FF00009E1FB00A990
:100C60001BEB090B4FF0000949EB0909E2FB00B946
:100C70001CEB090C4FF0000949EB0909E3FB00C923
:100C80001EEB090E4FF0000949EB0909E4FB00E9EE
:100C900013EE900A15EB09054FF0000949EB09091D
:100CA000E1FB005916EB09064FF0000949EB090971
:100CB000E2FB006917EB09074FF0000949EB09094E
:100CC000E3FB007918EB09084FF0000949EB09092B
:100CD000E4FB008906EE90AA14EE901A01F11001CF
:100CE0001EC910EE100A4FF0000AE1FB00BA1CEB1F
:100CF0000A0C4FF0000A4AEB0A0AE2FB00CA1EEB9C
:100D00000A0E4FF0000A4AEB0A0AE3FB00EA15EB71
:100D10000A054FF0000A4AEB0A0AE4FB005A12EEF9
:100D2000100A16EB0A064FF0000A4AEB0A0AE1FB2A
:100D3000006A17EB0A074FF0000A4AEB0A0AE2FBC7
:100D4000007A18EB0A084FF0000A4AEB0A0AE3FBA4
:100D5000008A19EB0A094FF0000A4AEB0A0AE4FB81
:100D6000009A07EE10BA10EE900A4FF0000BE1FB6C
:100D700000CB1EEB0B0E4FF0000B4BEB0B0BE2FB13
:100D800000EB15EB0B054FF0000B4BEB0B0BE3FBF4
:100D9000005B16EB0B064FF0000B4BEB0B0BE4FB71
:100DA000006B12EE900A17EB0B074FF0000B4BEBAA
:100DB0000B0BE1FB007B18EB0B084FF0000B4BEB30
:100DC0000B0BE2FB008B19EB0B094FF0000B4BEB0D
:100DD0000B0BE3FB009B1AEB0B0A4FF0000B4BEBEA
:100DE0000B0BE4FB00AB07EE90CA11EE100A4FF0BC
:100DF000000CE1FB00EC15EB0C054FF0000C4CEB8C
:100E00000C0CE2FB005C16EB0C064FF0000C4CEBFC
:100E10000C0CE3FB006C17EB0C074FF0000C4CEBD9
:100E20000C0CE4FB007C13EE100A18EB0C084FF0DE
:100E3000000C4CEB0C0CE1FB008C19EB0C094FF097
:100E4000000C4CEB0C0CE2FB009C1AEB0C0A4FF074
:100E5000000C4CEB0C0CE3FB00AC1BEB0C0B4FF051
:100E6000000C4CEB0C0CE4FB00BC08EE10EA11EE9D
:100E7000900A4FF0000EE1FB005E16EB0E064FF0FD
:100E8000000E4EEB0E0EE2FB006E17EB0E074FF05E
:100E9000000E4EEB0E0EE3FB007E18EB0E084FF03B
:100EA000000E4EEB0E0EE4FB008E13EE900A19EBD3
:100EB0000E094FF0000E4EEB0E0EE1FB009E1AEBFA
:100EC0000E0A4FF0000E4EEB0E0EE2FB00AE1BEBD7
:100ED0000E0B4FF0000E4EEB0E0EE3FB00BE1CEBB4
:100EE0000E0C4FF0000E4EEB0E0EE4FB00CE53EC5A
:100EF000172A18EE104A12EB0A0253EB0B0354EBBD
:100F00000C0455EB0E05002040F1000012EB0B0223
:100F100053EB0C0354EB0E0455EB0E054641002039
:100F2000474158EB000859EB0A0940F10000B2EBC9
:100F30000E0273F1000374F1000475EB0A0576EB01
:100F40000B0677EB0C0778EB0A0879EB0C0960F1DC
:100F50000000B5EB0B0576EB0C0677EB0E0778EB94
:100F60000B0879EB0E0960F100005FEAE07C7FEA94
:100F70000C0CDCF1000EB2EB0C0273EB0C0374EB07
:100F80000C0475F1000576F1000677F1000778EBA7
:100F90000E0879EB0C0960F100005FEAE07CDCF1FF
:100FA000000E12EB0C0253EB0C0354EB0C0455F146
:100FB000000556F1000657F1000758EB0E0859EBF3
:100FC0000C0940F100005FEAE07CDCF1000E12EB5E
:100FD0000C0253EB0C0354EB0C0455F1000556F1D5
:100FE000000657F1000758EB0E0859EB0C095BECB3
:100FF00015AA51EC160A1AEB060A5BEB070B50EB2D
:10100000080051EB09015FF0000C4CF1000C1AEBE9
:10101000070A5BEB080B50EB090051EB090152EB9F
:101020000C025FF0000C53EB0C0354EB0C04754105
:101030004CF1000CBAEB090A7BF1000B70F10000D7
:10104000B141BA4173EB0803B44175EB08056CF18B
:10105000000CC91B72EB080273EB0903BC4175EB72
:1010600009056CF1000C5FEAEC787FEA0808D8F11A
:101070000009BAEB080A7BEB080B70EB080071F172
:10108000000172F1000273F1000374EB090475EBC7
:1010900008056CF1000C5FEAEC78D8F100091AEB56
:1010A000080A5BEB080B50EB080051F1000152F10C
:1010B000000253F1000354EB090455EB08054CF111
:1010C000000C5FEAEC78D8F100091AEB080A5BEB38
:1010D000080B50EB080051F1000152F1000253F1EE
:1010E000000354EB090455EB080514EE107AA7E849
:1010F000000C87E83F00BDE8F08F00BF2DE9F00746
:1011000091E8F807B2E802105B1854EB0C04B2E85F
:1011100002104D4156EB0C06B2E802104F4158EB5D
:101120000C08B2E8021059EB01095AEB0C0A4FF017
:10113000260261EB010122EA01015B1854F100046F
:1011400055F1000556F1000657F1000758F1000867
:1011500059F100095AF1000A61EB010122EA01018B
:101160000B4480E8F807BDE8F00770472DE9F00769
:1011700091E8F807B2E802105B1A74EB0C04B2E8CD
:1011800002108D4176EB0C06B2E802108F4178EB2D
:101190000C08B2E8021079EB01097AEB0C0A4FF067
:1011A000260261EB010102EA01015B1A74F10004FD
:1011B00075F1000576F1000677F1000778F1000877
:1011C00079F100097AF1000A61EB010102EA0101FB
:1011D000A3EB010380E8F807BDE8F00770470A4673
:1011E0002DE9F04F41EC140A92EC080A1EC910EEEA
:1011F000100AA1FB00784FF00009E2FB00894FF0D4
:10120000000AE3FB009A4FF0000BE4FB00AB12EE88
:10121000100A4FF0000CE1FB00BC4FF0000EE2FBA7
:1012200000CE4FF00005E3FB00E54FF00006E4FBC5
:10123000005605EE107A10EE900A4FF00007E1FB21
:10124000008719EB07094FF0000747EB0707E2FBA0
:1012500000971AEB070A4FF0000747EB0707E3FB7D
:1012600000A71BEB070B4FF0000747EB0707E4FB5A
:1012700000B712EE900A1CEB070C4FF0000747EB8B
:101280000707E1FB00C71EEB070E4FF0000747EB17
:101290000707E2FB00E7ED194FF0000747EB0707F0
:1012A000E3FB0057F6194FF0000747EB0707E4FB95
:1012B000006705EE908A11EE100A4FF00008E1FB7E
:1012C00000981AEB080A4FF0000848EB0808E2FB08
:1012D00000A81BEB080B4FF0000848EB0808E3FBE5
:1012E00000B81CEB080C4FF0000848EB0808E4FBC2
:1012F00000C813EE100A1EEB080E4FF0000848EB72
:101300000808E1FB00E815EB08054FF0000848EB82
:101310000808E2FB005816EB08064FF0000848EBFF
:101320000808E3FB006817EB08074FF0000848EBDC
:101330000808E4FB007806EE109A11EE900A4FF0D0
:101340000009E1FB00A91BEB090B4FF0000949EB79
:101350000909E2FB00B91CEB090C4FF0000949EB4D
:101360000909E3FB00C91EEB090E4FF0000949EB28
:101370000909E4FB00E913EE900A15EB09054FF0AB
:10138000000949EB0909E1FB005916EB09064FF08A
:10139000000949EB0909E2FB006917EB09074FF067
:1013A000000949EB0909E3FB007918EB09084FF044
:1013B000000949EB0909E4FB008906EE90AA14EE46
:1013C000901A01F110011EC910EE100A4FF0000A28
:1013D000E1FB00BA1CEB0A0C4FF0000A4AEB0A0AC8
:1013E000E2FB00CA1EEB0A0E4FF0000A4AEB0A0AA3
:1013F000E3FB00EA15EB0A054FF0000A4AEB0A0A84
:10140000E4FB005A12EE100A16EB0A064FF0000A2F
:101410004AEB0A0AE1FB006A17EB0A074FF0000AE1
:101420004AEB0A0AE2FB007A18EB0A084FF0000ABE
:101430004AEB0A0AE3FB008A19EB0A094FF0000A9B
:101440004AEB0A0AE4FB009A07EE10BA10EE900A83
:101450004FF0000BE1FB00CB1EEB0B0E4FF0000B2F
:101460004BEB0B0BE2FB00EB15EB0B054FF0000B0E
:101470004BEB0B0BE3FB005B16EB0B064FF0000B8B
:101480004BEB0B0BE4FB006B12EE900A17EB0B0718
:101490004FF0000B4BEB0B0BE1FB007B18EB0B0849
:1014A0004FF0000B4BEB0B0BE2FB008B19EB0B0926
:1014B0004FF0000B4BEB0B0BE3FB009B1AEB0B0A03
:1014C0004FF0000B4BEB0B0BE4FB00AB07EE90CAAD
:1014D00011EE100A4FF0000CE1FB00EC15EB0C05CF
:1014E0004FF0000C4CEB0C0CE2FB005C16EB0C0616
:1014F0004FF0000C4CEB0C0CE3FB006C17EB0C07F3
:101500004FF0000C4CEB0C0CE4FB007C13EE100ACB
:1015100018EB0C084FF0000C4CEB0C0CE1FB008CB2
:1015200019EB0C094FF0000C4CEB0C0CE2FB009C8F
:101530001AEB0C0A4FF0000C4CEB0C0CE3FB00AC6C
:101540001BEB0C0B4FF0000C4CEB0C0CE4FB00BC49
:1015500008EE10EA11EE900A4FF0000EE1FB005E7B
:1015600016EB0E064FF0000E4EEB0E0EE2FB006E79
:1015700017EB0E074FF0000E4EEB0E0EE3FB007E56
:1015800018EB0E084FF0000E4EEB0E0EE4FB008E33
:1015900013EE900A19EB0E094FF0000E4EEB0E0EF3
:1015A000E1FB009E1AEB0E0A4FF0000E4EEB0E0E02
:1015B000E2FB00AE1BEB0E0B4FF0000E4EEB0E0EDF
:1015C000E3FB00BE1CEB0E0C4FF0000E4EEB0E0EBC
:1015D000E4FB00CE4FF0260153EC152A4FF000003B
:1015E000E6FB01201B184FF0000040EB0000E7FB7A
:1015F000013057EC166A36184FF0000040EB00003F
:10160000E8FB01603F184FF0000040EB0000E9FBF1
:10161000017059EC178A18EB00084FF0000040EBFE
:101620000000EAFB018019EB00094FF0000040EBDD
:101630000000EBFB019018EE10AA1AEB000A4FF025
:10164000000040EB0000ECFB01A02D184FF0000063
:1016500040EB0000EEFB015000FB01F0121853F1CB
:10166000000356F1000657F1000758F1000859F140
:1016700000095AF1000A55F1000B60EB000021EA65
:101680000000024414EE100A80E8CC0FBDE8F08F91
:101690002DE9F00791E8F0174EF6A1514FEA41010C
:1016A000A4FB01234FF00004E5FB01344FF00005DB
:1016B000E6FB01454FF00006E7FB01564FF000073F
:1016C000E8FB01674FF00008E9FB01784FF00009E3
:1016D000EAFB01894FF0000AECFB019A4FF026016A
:1016E0000AFB01FA12EB0A0253F1000354F1000461
:1016F00055F1000556F1000657F1000758F10008B2
:1017000059F100096AEB0A0A21EA0A010A4480E851
:10171000FC03BDE8F00770472DE9F00390E8F813EB
:101720004FEAEC7202F013022CF0004C02F11301AC
:10173000591854F1000155F1000156F1000157F11B
:10174000000158F1000159F100015CF100014FEA7C
:10175000E17101F0130111445B1854F1000455F1DB
:10176000000556F1000657F1000758F1000859F13D
:1017700000094CF1000C2CF0004C80E8F813BDE897
:10178000F0037047004870475C9B000010B540EACA
:1017900001040346A40703D009E010C9121F10C3B7
:1017A000042AFAD203E011F8014B03F8014B521E50
:1017B000F9D210BDD2B201E000F8012B491EFBD2D4
:1017C00070470022F6E710B513460A46044619464C
:1017D000FFF7F0FF204610BD421C10F8011B002946
:1017E000FBD1801A704730B504460020034600E064
:1017F0005B1C934203D2E05CCD5C401BF8D030BD53
:10180000034611F8012B00F8012B002AF9D11846E4
:1018100070470000064C074D06E0E06840F0010309
:1018200094E8070098471034AC42F6D3FEF7ECFC7E
:10183000A8AB0000C8AB00002DE9F0410446B0B0F1
:101840000D460A46684604F12007002100F0C0F862
:1018500004F140083A46214610A804F16006FFF75B
:10186000BFFC4146324618A8FFF7BAFC424639464B
:1018700020A8FFF7B5FC3246214628A8FFF7B0FCA8
:10188000EB0F6A4610A9204600F000F930B0BDE821
:10189000F08100BF2DE9F0410446B0B00D460A4684
:1018A000684604F12007012100F092F804F1400895
:1018B0003A46214610A804F16006FFF791FC414624
:1018C000324618A8FFF78CFC4246394620A8FFF79D
:1018D00087FC3246214628A8FFF782FCEB0F6A46B8
:1018E00010A9204600F0D2F830B0BDE8F08100BF6A
:1018F0002DE9F0410446B0B0684604F12006884660
:1019000004F1400700F096F804F1600532462146E4
:1019100010A8FFF765FC39462A4618A8FFF760FCB7
:101920003A46314620A8FFF75BFC2A46214628A804
:10193000FFF756FC4FEAD8736A4610A9204600F01C
:10194000A5F830B0BDE8F08170B5A0B0044601F153
:10195000200668460D46FFF742FC314608A8FFF70F
:101960003EFC05F1400110A8FFF739FC10AA114612
:101970001046FFF7C3FB694618A800F0D3FB3246B8
:1019800029462046FFF7BAFB21462046FFF727FCF1
:101990006A4621462046FFF7E9FB04F1400508AA04
:1019A00021462046FFF7E2FB284608AA18A9FFF7C0
:1019B000A5FB10AA294604F12000FFF7D7FB08AACF
:1019C00018A904F16000FFF7D1FB20B070BD00BF83
:1019D0002DE9F84302EBE27686EAE27680460C4691
:1019E000002100F095FB08F12007711EC90F384651
:1019F0000F4D00F08DFB05EB442540354FF00109FC
:101A000086EA0904013CE40F294622464046FEF7D7
:101A1000EBFC09F1010905F1200122463846FEF7E9
:101A2000E3FCB9F1090F05F14005E9D1BDE8F88300
:101A3000C8A400002DE9F84301EBE177814687EA6D
:101A4000E177002100F064FB09F12008791EC90F3D
:101A5000404600F05DFB0C4E012587EA0504013C81
:101A6000E40F314622464846FEF7BEFC013506F13A
:101A7000200122464046FEF7B7FC092D06F140063C
:101A8000EBD1BDE8F88300BF08A900002DE9F043C1
:101A90000D46A1B001F120091646044649462A46E2
:101AA0006846984606F12007FFF760FB49462A463C
:101AB00008A8FFF723FB3946324610A8FFF756FB6C
:101AC0003946324618A8FFF719FB424618A910A854
:101AD000FEF7F5FC10AA69466846FFF781FB08A9E6
:101AE00018AA0846FFF77CFB3A46314610A8FFF7D4
:101AF00077FB10A905F160020846FFF771FB10A9FA
:101B00000846144AFFF76CFB05F14002114618A87D
:101B1000FFF7F4FA6A4608A92046FFF727FB04F10D
:101B200020056A4608A904F16000FFF7E7FA40348F
:101B3000284610AA18A9FFF719FB10AA18A92046D1
:101B4000FFF7DCFA424629462046FEF7B8FC21B0F2
:101B5000BDE8F08308AB00002DE9F047CC7F0D789D
:101B60000B46C0B004F03F0493F80280497893F824
:101B700003C0D3F804E09F68D3F810A0DE688DF8A6
:101B8000411044F0400425F0070511468DF85F40F0
:101B90005A699C698DF840508DF842801D7F93F8FA
:101BA0001D809B7F8DF843C081466846CDF844E098
:101BB0008DF85E301297CDF850A0159216948DF8DE
:101BC0005D8013968DF85C5000F086FA20226946FD
:101BD00018A8FEF717FF6846012100F099FA08A837
:101BE000002100F095FA18A920A82022FEF70AFF8C
:101BF00028A8012100F08CFA18AF0DF140084FF031
:101C0000060A002417F8016D46FA0AF505F00105E9
:101C10006C40224620A96846FEF751FC224628A9BE
:101C200008A8FEF74CFC08AA694630A8FFF766FA38
:101C300008AA10466946FFF799FA28AA20A938A8E9
:101C4000FFF75CFA28AA104620A9FFF78FFA38A9F7
:101C5000084608AAFFF7C4FA28A9084630AAFFF7E1
:101C6000BFFA38AA28A920A8FFF748FA28A938AA55
:101C70000846FFF77BFA20A90846FFF7B0FA28A923
:101C80000846FFF7ACFA28A918AA0846FFF7A8FAF1
:101C900030A90846FFF7A3FA08A938A8FFF79FFA6A
:101CA00038AA30A96846FFF79BFA30A938AA084637
:101CB000FFF75CFA30A908A8FFF7EAFC08A9084674
:101CC00038AAFFF71BFA08A90AF1FF3A30AA08461A
:101CD000FFF786FABAF1FF3F2C4695D147454FF002
:101CE000070A8FD108A90846012200F02DFA08AA98
:101CF00069466846FFF774FA6946484600F032FBC9
:101D000040B0BDE8F08700BF014AFFF725BF00BF24
:101D100088A1000070B500F1200590B00E46044681
:101D200000F054FB06F12001284600F04FFB21464D
:101D300008A8FEF7E1FE08A908460C4AFEF770FE67
:101D400008A922460846FEF7D8FE08A90846084A10
:101D5000FEF766FE29466846FEF7CEFE694608A8ED
:101D60002022FEF72FFE013810B070BD28AB000016
:101D700048AB00002DE9F047B8B08A4681461146CD
:101D800010A8514AFEF710FB5049024610A8FEF772
:101D90002BFB179F4C4900EAD7778046C7F1010219
:101DA00010A8FEF721FB179D524628A918A8ED435D
:101DB00001F0B0F8ED0F20A9C5F10102084600F0CE
:101DC000E9FAC8F10108FE266A4618A928A801F018
:101DD00055F8731138AA02EB830306F01F0253F87B
:101DE000A04CD44004F0010465402A4628A918A854
:101DF000FEF765FB2A4630A920A8FEF760FB013EEE
:101E000028A918A800F0D4FF731C2546DCD1C4F122
:101E1000010208A820A900F0BDFA7D406A4618A971
:101E200028A801F02BF828A92A4618A8FEF747FB96
:101E30002A4630A920A8FEF742FB08A96A460846B0
:101E4000FEF75BFE08A9084600F0DAFA08A909F1D6
:101E500020040AF120020846FEF74FFE20A908AA36
:101E60002046FEF74AFE08AA18A96846FEF745FE76
:101E700069466846FEF740FE18AA694608A8FEF7BC
:101E80003CFE21466846FEF737FE08AA6946104622
:101E9000FEF705FE08A90E4A6846FEF700FE20463A
:101EA0002021FEF7A2FD08A943420246684643EA04
:101EB0000808FEF704FB48466946064AFEF71DFE81
:101EC000404638B0BDE8F08788AB000068A4000049
:101ED00048AB000088A400000A460149FFF74ABF4A
:101EE000A8A1000000F03CBB38B504460D4600F048
:101EF00037FB05F1200104F12000BDE8384000F077
:101F00002FBB00BF30B5A9B014460546684600F0A7
:101F100099FB214618A8FFF7FDFE6A4618A904465A
:101F200008A8FFF727FF08A904432846FFF7DAFFB0
:101F3000204629B030BD00BF30B599B0054668468F
:101F400000F080FB694608A8FFF7C6FF08A9044611
:101F50002846FFF7C9FF204619B030BD10B5202232
:101F6000B0B004460DEB020000F096FB9DF83F3048
:101F70009DF8202003F07F0343F0400322F0070286
:101F800008A968468DF83F308DF8202000F002FB4C
:101F9000694618A800F028F818A9204600F002F8B1
:101FA00030B010BD30B599B004460D4610A8403190
:101FB000012200F0C9F810AA29466846FFF710F977
:101FC00010AA05F1200108A8FFF70AF908A9204680
:101FD00000F0C8F9684600F093F8E37F83EAC01088
:101FE000E07719B030BD00BF2DE9F041B0B0044634
:101FF000684600F007FB04F1400620469DF93F10BB
:10200000FFF718FD3046012100F082F8E84604F1A0
:1020100020070DF11505214610A8FFF795FC18AA19
:1020200010A92046FFF7DCF828AA20A93846FFF7B8
:10203000D7F820AA18A93046FFF7D2F8214610A8F1
:10204000FFF782FC18AA10A92046FFF7C9F828AAB2
:1020500020A93846FFF7C4F820AA18A93046FFF790
:10206000BFF8214610A8FFF76FFC18AA10A9204658
:10207000FFF7B6F828AA20A93846FFF7B1F820AA3A
:1020800018A93046FFF7ACF8214610A8FFF75CFC12
:1020900015F9011D10A8FFF7CFFB95F9151010A831
:1020A000FFF7F8FB95F92A1010A8FFF721FC18AAF2
:1020B00010A92046FFF794F828AA20A93846FFF770
:1020C0008FF820AA18A93046FFF78AF8A845A2D1B0
:1020D00030B0BDE8F08100BF0B6803604B6843601F
:1020E0008B688360CB68C3600B6903614B69436194
:1020F0008B698361CB6923F00043C361704700BFE4
:1021000010B50446FFF708FB206800F0010010BD81
:10211000002380E80A008360C36003614361836138
:10212000C361704700B589B000230A466946009331
:102130000193029303930493059306930793FFF788
:1021400015F809B05DF804FBF0B5A1B00546684686
:1021500017460E46FFF743F8694618A8FFF73FF801
:1021600018A90846FFF73BF8324618A908A8FFF758
:1021700037F86A4608A96846FFF732F8694618A892
:10218000FFF72DF808AA104618A9FFF729F808A9A3
:1021900018A8FFF724F818A90846FFF720F818A98F
:1021A0000846FFF71CF818A90846FFF718F818A901
:1021B0000846FFF714F808AA18A91046FFF710F808
:1021C000022408A918A8FFF70AF818A90846FFF77B
:1021D00006F818A90846FFF702F818A90846FEF7FE
:1021E000FEFF18A90846FEF7FAFF013C18A9E9D13D
:1021F00010A808AAFEF7F4FF042410A918A8FEF7F7
:10220000EEFF18A90846FEF7EAFF18A90846FEF7F0
:10221000E6FF18A90846FEF7E2FF18A90846FEF7F0
:10222000DEFF013C18A9E9D110AA0846FEF7D8FF45
:10223000022418A90846FEF7D2FF18A90846FEF79F
:10224000CEFF18A90846FEF7CAFF18A90846FEF7F0
:10225000C6FF18A90846FEF7C2FF013CE9D118A93C
:1022600008AA10A8FEF7BCFF0A2410A918A8FEF7B8
:10227000B6FF18A90846FEF7B2FF18A90846FEF7F0
:10228000AEFF18A90846FEF7AAFF18A90846FEF7F0
:10229000A6FF013C18A9E9D110AA08A8FEF7A0FFE3
:1022A000142408A918A8FEF79AFF18A90846FEF7F3
:1022B00096FF18A90846FEF792FF18A90846FEF7F0
:1022C0008EFF18A90846FEF78AFF013C18A9E9D13C
:1022D00008AA0846FEF784FF0A2418A90846FEF754
:1022E0007EFF18A90846FEF77AFF18A90846FEF7F0
:1022F00076FF18A90846FEF772FF18A90846FEF7F0
:102300006EFF013CE9D118A9084610AAFEF768FF44
:1023100018A9084667B9FEF762FF18A90846FEF734
:102320005EFF324618A92846FEF75AFF21B0F0BDDD
:10233000FEF755FF18A90846FEF751FF18A90846F1
:10234000FEF74DFF18A90846FEF749FF18A90846F1
:10235000FEF745FF6A4618A92846FEF741FF21B05F
:10236000F0BD00BF38B50C4605460846FFF7D4F966
:1023700023682B6063686B60A368AB60E368EB6005
:1023800023692B6163696B61A369AB61E369EB61ED
:1023900038BD00BF70B588B004460D4668462021A0
:1023A0001646FEF736FB00232946204620220093DE
:1023B000FEF728FB2A4669466846FEF770FB324660
:1023C00069462046FEF77BF808B070BD0B681BBA63
:1023D000C3614B681BBA83618B681BBA4361CB68CE
:1023E0001BBA03610B691BBAC3604B691BBA8360DC
:1023F0008B691BBA4360CB691BBA0360704700BF8F
:1024000070B598B00D46064610A8FEF775FB2A4633
:1024100010A96846FEF771FB694610A8FEF76CFB31
:1024200010A90846FEF768FB6A4610A908A8FEF73F
:1024300064FB08A910A8FEF75FFB10A90846FEF789
:102440005BFB10A90846FEF757FB10A90846FEF7EC
:1024500053FB10A908AA0846FEF74FFB10A908462F
:10246000FEF74AFB10A90846FEF746FB10A96A468C
:1024700008A8FEF742FB052408A910A8FEF73CFBBC
:1024800010A90846FEF738FB013C10A9F5D108AAAF
:102490000846FEF732FB052410A90846FEF72CFB80
:1024A00010A90846FEF728FB013CF5D110A908AA9F
:1024B0000846FEF722FB10A908A8FEF71DFB08A995
:1024C0000846FEF719FB08A96A466846FEF715FBA1
:1024D0001024694610A8FEF70FFB10A90846FEF766
:1024E0000BFB013C10A9F5D12A460846FEF705FB77
:1024F000402410A90846FEF7FFFA10A90846FEF787
:10250000FBFA013CF5D110A96A460846FEF7F5FA38
:10251000102410A90846FEF7EFFA10A90846FEF7A6
:10252000EBFA013CF5D110A96A460846FEF7E5FA38
:10253000102410A90846FEF7DFFA10A90846FEF796
:10254000DBFA013CF5D110A908AA0846FEF7D5FA36
:102550002A4610A93046FEF7D0FA18B070BD00BF69
:10256000CB691BBA03608B691BBA43604B691BBA0A
:1025700083600B691BBAC360CB681BBA03618B68AD
:102580001BBA43614B681BBA83610B681BBAC361FA
:10259000704700BFF0B50B4699B0DA69184D149238
:1025A00018A9120F04465F689E68186941F85C2DEF
:1025B000DA68D3F800E00E970F965F699E69109273
:1025C00000232A46119005A8CDF834E017931693FE
:1025D000159304930393029312971396FDF77AFFD2
:1025E000019B05AA1B070DA920460C93FDF7DCFEF5
:1025F000E2692946D20F2046FDF7F6FE19B0F0BD7C
:10260000A8A40000F0B40025471E2C462A46E30883
:1026100014F0070F08BF51F8235005F00F031344BF
:1026200003F1080212090134D6B2A3EB06133F2CC2
:102630004FEA151507F8013FE9D1354480F83F50BE
:10264000F0BC704738B50B68114D1BBAC3614B68BD
:102650001BBA83618B681BBA4361CB681BBA0361E9
:102660000B691BBAC3604B691BBA83608B691BBAC9
:102670004360CB691BBA2A46036001460446FDF756
:1026800093FE294602462046BDE83840FDF7ACBE21
:1026900068AB0000000000002DE9F04F0FF2B83BDE
:1026A000DBE900ABEEA7D7E90067B3B0EEA5D5E94B
:1026B0000045CDE900ABCDE902670FF2B43BDBE9A1
:1026C00000ABEDA7D7E90067CDE90445ECA5D5E956
:1026D0000045CDE906ABCDE908670FF2AC3BDBE97D
:1026E00000ABEBA7D7E90067CDE90A450024804697
:1026F0001546CDE90CABCDE90E6731923094002A36
:1027000040F0798180238DF8403032ABC3F18703EC
:1027100003F0030302224FF041094FF07A0E012427
:102720006E4610AF2046002B40F030817B2AAEEB86
:10273000030EC0F17A00AEF1040188BF00208908C1
:10274000C01A013102284FEA810C0CD903EB0902AF
:1027500000233244184601338B4242F8040BFAD36B
:10276000F445644412D032A9631C214400227B2B1F
:1027700001F8882C0AD032A90B4402347B2C03F8D0
:10278000882C03D032AB1C4404F8882C6A0B6B09EC
:1027900039466C0D30466E0FED008DF8BB608DF83C
:1027A000BC408DF8BD208DF8BE308DF8BF5000F0D4
:1027B00009FE04A80FC893FA83F9089B029D039CA5
:1027C000009F019EC8F8189093FA83FE099BC8F8F1
:1027D00024E02DBA24BA00BA09BA12BA93FA83FCDB
:1027E000C8F80C50C8F808400A9D0B9CC8F81400A3
:1027F000C8F810100C980D99C8F81C200F9B0E9A61
:10280000C8F820C03FBA36BA2DBA24BA00BA09BAFD
:1028100012BA1BBAC8F80470C8F80060C8F82C5087
:10282000C8F82840C8F83400C8F83010C8F83C2070
:10283000C8F8383033B0BDE8F08F224610AF32A868
:1028400010440C7800F8884C501C83420CD932ACF0
:10285000204402324C7800F8884C934204D932A8C4
:102860000244897802F8881C32AA581C1A44802134
:102870007028309302F8881C73D97F286BD832AA4D
:102880001044991C0022802900F8882C63D032A8BB
:102890000844D91C802900F8882C5CD032A8084450
:1028A000191D802900F8882C55D032A80844591DDC
:1028B000802900F8882C4ED032A80844991D802920
:1028C00000F8882C47D032A80844D91D802900F888
:1028D000882C40D032A8084403F10801802900F870
:1028E000882C38D032A8084403F10901802900F867
:1028F000882C30D032AA501803F10A010022802916
:1029000000F8882C27D032A8084403F10B01802955
:1029100000F8882C1FD032A8084403F10C0180294C
:1029200000F8882C17D032A8084403F10D01802943
:1029300000F8882C0FD032A8084403F10E0180293A
:1029400000F8882C07D032A80144702B01F8882C9D
:1029500001D18DF8BF203946304600F033FD7A288A
:102960006CD800F1400906EB0901421C7B2AC1F139
:102970000001C0F17B0301F0030188BF01239942EC
:1029800028BF1946062B319D9E4659D832AC0444C7
:102990000021012B04F8881C4ED00DF1C80C944482
:1029A000022B02F101040CF8881C20D00DF1C80C98
:1029B000A444032B02F102040CF8881C17D00DF17B
:1029C000C80CA444042B02F103040CF8881C0ED09C
:1029D0000DF1C80CA444062B02F104040CF8881C69
:1029E00005D10DF1C80CA444541D0CF8881C734586
:1029F0007FF49CAECAE668460F4600F0E7FA291A53
:102A00006E4603463944F0B1043880085D1E01303B
:102A1000022D4FEA80027FF610AF10AFBE460D4682
:102A2000013455F804CB4EF804CB8442F8D39A42D3
:102A300011447FF404AF17E71446D8E7319DA5E6AB
:102A400004460B466EE632AF8022309007F8882DA0
:102A5000012086E7AFF3008008C9BCF367E6096A86
:102A60003BA7CA8485AE67BB2BF894FE72F36E3C1D
:102A7000F1361D5F3AF54FA5D182E6AD7F520E517A
:102A80001F6C3E2B8C68059B6BBD41FBABD9831F34
:102A900079217E1319CDE05B2DE9F04F9FB0A1F1B4
:102AA00008031C93D2E90E34CDE91634D2E90C3474
:102AB000CDE90234D2E90A34CDE90034D2E9063452
:102AC000CDE91834D2E90234CDE90634D2E9043430
:102AD000CDE9043400F18003D2E908ABD2E90089E2
:102AE0001D9309909646014606E0CDE90689B24657
:102AF0008946BB4680461946F1E802451C9F09916C
:102B00004FEA9A3242EA8B42F7E902010A924FEA0F
:102B10009A434FEA9B364FEA9B4243EA8B3346EA9D
:102B20008A4642EA8A320C930D924FEACB530B96B7
:102B3000CDE91A0143EA5A22DDE90C011C974FEA5C
:102B4000CA53DDE90A670F9243EA5B220E924640C0
:102B50004F40DDE90E017040794006460F464FEACE
:102B60001873DDE91A0143EA09124FEA89731092DA
:102B700043EA9802001913924FEA887269414FEABA
:102B8000197342EA9902CDE91A0143EA0815DDE911
:102B900000011292DDE902234FEA4964119544EAEB
:102BA000D81515954240DDE902454B40DDE91A0193
:102BB00003EA0B03801902EA0A0285EA03054FEAD9
:102BC000486C79415440DDE906672B464CEAD9153B
:102BD00014952246DDE9044546EA080647EA090756
:102BE000121804EA060405EA07054B4126462F465B
:102BF000DDE91001DDE912456040694004460D46FB
:102C0000DDE914016040694004460D46DDE9060136
:102C100000EA080001EA090130433943DDE916679B
:102C2000B6185F4132463B46DDE918670019694135
:102C3000B6185F4180185941DDE90023DDE90245FE
:102C4000CEE90C23DDE90423CEE90E45CEE90623C7
:102C5000CDE91645DDE90623DDE90445CEE9042387
:102C6000CDE90423CDE91845099B1D9ADDE900450E
:102C70009342CEE90AABCEE90289CEE90867CDE9F5
:102C80000245CEE90001CDE900AB7FF42EAF1FB0C5
:102C9000BDE8F08F2DE9F04F8FB0A0F108014FF0A3
:102CA000000E03917346AEF102020EF1010E02F026
:102CB0000F020EF00F0400EBC20600EBC40550F843
:102CC00034706D68746850F832604FEA172AF90959
:102CD00000914FEAD64C4AEA056106914CEA44312C
:102CE000089100994FEA550B41EA45614FEA152AD0
:102CF00000914BEAC7717A0805914AEA0761039F80
:102D00000791D7E902AB42EAC5724FEAD44C4CEACC
:102D100046310492F700E20042EA56724FEA9618F2
:102D2000CDE90CAB0991DDE906AB47EA5471DDE969
:102D300004670B920A9186EA0A06E90987EA0B07FB
:102D400048EA8468DDE90AAB4FEA9419DDE90845F1
:102D5000019184EA0A0485EA0B05DDE900AB073B33
:102D600003F00F038AEA060A8BEA070B00EBC303A2
:102D7000D3E9002356465F46DDE90CAB1AEB020AA5
:102D80004BEB030B84EA08041AEB06024BEB070338
:102D90000399121985EA09056B41E1E90223BEF1A5
:102DA000100F03917FF47EAF0FB0BDE8F08F00BF2E
:102DB000F0B599B004460E460A4601466846FDF74E
:102DC0006EFE69466846FDF797FE6A46214608A8EA
:102DD00006F1200504F12007FDF78FFE6A46314613
:102DE0006846FDF78AFE39462A4610A8FDF718FE08
:102DF0002A4639462846FDF752FE29463046FDF759
:102E00007BFE6A4608A92046FDF70AFE22463146A7
:102E10003046FDF744FE6A4608A96846FDF73FFEC6
:102E20006A4639463846FDF768FE324608A96846C4
:102E3000FDF735FE6A4629462846FDF75EFE3A460E
:102E400029462846FDF72BFE10A96846FDF754FEDB
:102E5000224669462046FDF722FE08A9224608467A
:102E6000FDF71DFE10A908AA0846FDF746FE3A46E2
:102E700010A93846FDF713FE19B0F0BD2DE9F04159
:102E80000C4688B005469046014622466846FDF746
:102E900006FE69466846FDF72FFE6A462946284623
:102EA00004F12006FDF729FE05F120076A462146B8
:102EB0006846FDF722FE324630463946FDF7EFFD03
:102EC00031462046FDF718FE2A4621462046FDF7EA
:102ED000E6FD6A4621462046FDF7E1FD6A462946A1
:102EE0004046FDF7DCFD424639463846FDF705FE13
:102EF000224629466846FDF7D2FD6A4631463046ED
:102F0000FDF7FBFD3A4631463046FDF7C8FD08B0F7
:102F1000BDE8F0812DE9F04188B00D46074602F189
:102F20002001684607F120069046FDF7E5FD6A4658
:102F300069466846FDF774FD30466946FDF7DCFDDD
:102F400032463146304605F12004FDF769FD6A46F8
:102F500069466846FDF764FD20464146FDF7CCFD15
:102F60006A4641463846FDF7C8FD22462146684676
:102F7000FDF756FD224669466846FDF751FD694654
:102F80006846114AFDF74CFD69462846FDF7B4FD39
:102F90003A4629462846FDF782FD3A462946284604
:102FA000FDF77DFD2A4639462046FDF778FD6A4645
:102FB00021462046FDF7A1FD324621462046FDF779
:102FC0006EFD08B0BDE8F08128AB00002DE9F04FA0
:102FD000E3B07F2A1346319240F2E5818B46D0E977
:102FE0000212CDE92A12D0E90412CDE90212D0E989
:102FF0000612CDE90412D0E90812CDE90612D0E993
:103000000A12CDE90812D0E90C12D0E90045CDE949
:103010002C12D0E90E12CDE90A45CDE92E12CDE9E8
:10302000006781463093DBF80830DBF80020DBF8DE
:1030300010E0DBF81800DBF82810DBF80CA0DBF858
:103040001480DBF81CC01BBA0D93DBF820301BBAD0
:1030500012BA1393DBF838300192002200929EFAE4
:103060008EF41BBADDE90067DBF830200F9419936A
:10307000DDE90A3400BA09BA12BA11901591DBF8E9
:103080002400DBF82C1017920C96DBF834200E96F7
:1030900010961296149616961896CDE93234DDE9FC
:1030A0002A34CDE93434DDE90245CDE93645DDE9A0
:1030B0000C459AFA8AFA44EA0A040DF5887ACAE9B4
:1030C0000045DDE90445CDE93845DDE90E4598FACE
:1030D00088F844EA08040DF58C78C8E90045DDE974
:1030E00010459CFA8CFC44EA0C040DF5907CCCE96C
:1030F0000045DDE90645CDE93A45DDE9124500BA6E
:1031000044EA00044AA8C0E90045DDE9144509BACB
:1031100044EA01044CA9C1E90045DDE90801DBF8F6
:103120003C30DBF804E0CDE93C01DDE91645DDE9A2
:10313000180112BA1BBA44EA020440EA0300DDE9AE
:103140002C23CDE93E2332463B46DDE92E679EFA2D
:103150008EFE42EA0E020DF5807ECEE900674EAE8D
:10316000C6E9004550ACC4E9000142A9C1E9002309
:10317000DBF84410DBF84030DBF8582002921BBA31
:103180001B93029BDBF8600004901BBA2193049B05
:10319000DBF8684006941BBA2393069BDBF870505B
:1031A00008951BBA2593089BDBF87820DBF848A02C
:1031B0000A921BBADBF8508027930A9BDBF8547005
:1031C000DBF84C20DBF85CE0DBF864C0DBF86C502B
:1031D000DBF87440DBF87C009AFA8AF61D961BBA7D
:1031E00098FA88F61F96299300231A931C931E932E
:1031F0003BBADDE9007820972297249726972897F5
:10320000DDE91A6709BA46EA010652A9C1E9006771
:10321000DDE91C6712BA46EA020654AAC2E9006751
:10322000DDE91E1241EA030156ABC3E90012DDE9F4
:1032300020239EFA8EFE42EA0E0258A9C1E900231D
:10324000DDE922239CFA8CFC42EA0C025AA9C1E96E
:103250000023DDE924232DBA42EA05025CA9C1E975
:103260000023DDE9262324BA42EA0402DDE92845E9
:1032700000BA5EA9C1E9002344EA000460AB32AAA7
:1032800042A94B48C3E90045FFF706FC42A8FFF7F7
:1032900001FD32AA42A94748FFF7FEFB42A8FFF70B
:1032A000F9FC32AA42A94448FFF7F6FB42A8FFF70F
:1032B000F1FC309B4148803B32AA42A93093FFF792
:1032C000EBFB42A8FFF7E6FC32AA42A93C48FFF715
:1032D000E3FBD9E90045DDE93223A618D9E902016B
:1032E00045EB0307DDE9344524184D41D9E90423B2
:1032F000DDE9360112184B41CDE90223DDE9380141
:10330000D9E9062312184B41CDE90423DDE93A013E
:10331000D9E9082312184B41CDE90A67CDE9062304
:10332000D9E90A67DDE93C2392197B4111461A4627
:10333000DDE93E67CDE90812D9E90C0140AB8019FF
:10334000D3E900237941D9E90E67B6185F41DDE979
:103350000A23C9E90023DDE90223C9E90423DDE9E1
:103360000423C9E90623DDE90623CDE92A45CDE991
:103370002C01CDE92E67C9E90245C9E90823DDE939
:103380000823C9E90A23309B7F2B0BF1800BC9E985
:103390000C01C9E90E673FF646AE319B03F07F0092
:1033A00063B0BDE8F08F104663B0BDE8F08F00BF9A
:1033B000E8A1000068A20000E8A2000068A30000E5
:1033C000E8A300002DE9F04F0B68D1F808C0D1F850
:1033D0000C90D1F810E08F69D1F82080D1F824A0AA
:1033E000B7B01BBA0193002300939CFA8CF599FAAD
:1033F00089F943EA09022B46DDE90045D1F814C0FA
:103400000646C869CDE918239CFA8CFC9EFA8EF317
:10341000224642EA0C0200BACDE91A2344EA000B24
:103420003BBA98FA88F59AFA8AFA002444EA0A0222
:103430009C462B464868CDE91E23DDE90023D6E9EA
:103440000089CDE91CBC00BAD6E902AB42EA000211
:10345000CDE91623D6E90423CDE90689CDE908ABE9
:10346000D6E90689D6E908ABCDE90A23D6E90A23CD
:10347000CDE90C89CDE90EABD6E90C89D6E90EABC6
:10348000D1F828E0D1F830C08D6B086C8F6CCDE995
:1034900010239EFA8EF3039300230293DDE90223A7
:1034A000CDE91289D1F82C90D1F850E0D1F85880AC
:1034B00099FA89F942EA0902CDE920239CFA8CF3B2
:1034C000039300230293DDE90223D1F834C09CFA70
:1034D0008CFC42EA0C02CDE922232BBA0393002391
:1034E0000293DDE90223CD6BD1F870C02DBA42EA18
:1034F0000502CDE9242303BA03930023CDE914ABDD
:103500008D6FD1F860A0D1F868B0486C0293DDE906
:10351000022300BA42EA0002CDE926233BBA039314
:1035200000230293DDE90223C86C4F6D00BA42EA22
:103530000002CDE928239EFA8EF303930023029321
:10354000DDE902233FBA42EA0702CDE92A23C86D2A
:10355000D1F864E0CF6E98FA88F3002299469AFA7F
:103560008AF30393029200BA42EA0008DDE90223DB
:103570009EFA8EFEC86F42EA0E02CDE92C899BFAB4
:103580008BF4D1F87480DDE900ABCDE92E2300BACD
:103590002BBA00224E4D42EA000298FA88F1A14669
:1035A0003FBA9CFA8CF4CDE934234AEA070806AA0C
:1035B0004AEA010AA34616A92846CDE93089CDE991
:1035C00032ABFFF769FA16A8FFF764FB06AA16A943
:1035D00005F18000FFF760FA16A8FFF75BFB06AA6B
:1035E00016A905F58070FFF757FA16A8FFF752FBEA
:1035F00006AA16A905F5C070FFF74EFA16A8FFF740
:1036000049FB06AA16A905F50070FFF745FAD6E9A9
:103610000023DDE90601D6E90289DDE908AB1418CB
:1036200043EB010518EB0A0249EB0B03CDE9024518
:10363000DDE90AABCDE90423D6E9043413EB0A0330
:1036400044EB0B049A46A346D6E90623DDE90C4574
:1036500012191446DDE902126B41D6E908781D46BD
:10366000C6E90012DDE90E23BF1848EB0308DDE9C7
:103670000423C6E90878C6E90223DDE91089D6E902
:103680000A2312EB080243EB090390469946C6E968
:1036900004ABD6E90C23DDE912AB12EB0A0243EBD3
:1036A0000B0392469B46C6E90645DDE91423D6E99D
:1036B0000E45A41800985D4122462B46C6E90A89AA
:1036C000C6E90CABC6E90E2337B0BDE8F08F00BFEA
:1036D000E8A10000064882B0002101600068009067
:1036E000044800680449C0B2496802B008470000B5
:1036F00000D1004008D500403000002000F0C2B9E1
:1037000070B50E46144900EB400001EBC0051446AD
:10371000E86A183520B101280FD0022805D113E03E
:10372000284600F0E3F9A04201D2002411E022462D
:103730003146284600F012FA0BE0284600F0D6F990
:10374000A042F4D20446F2E73146284600F0D9F907
:103750000446204670BD000024650020F0B5B54841
:103760000023021D0178101D01254FF08054062909
:103770000BD11678360708D10678C6F30316032E48
:1037800006D0042E04D0052E02D0062907D00EE064
:10379000B4F82463A84FC6F304263E6002E016780E
:1037A000360704D10678C6F30316032E02D0062985
:1037B00004D00FE0A24FA14E7E670EE016783607C8
:1037C00008D10678C6F30316032E06D0042E04D0C3
:1037D000052E02D0062907D00EE0D4F84462994F96
:1037E000C6F342363E6002E01678360704D106780A
:1037F000C6F30316032E02D0062906D011E0924E1E
:10380000376827F0807737600EE01678360708D1E2
:103810000678C6F30316032E06D0042E04D0052E18
:1038200002D006290AD011E04FF08046C6F80C31CC
:10383000C6F81031834E361F336002E01678360723
:1038400004D10678C6F30316032E02D0062905D04C
:103850000CE07C4F032664373E600AE0167836079A
:1038600004D10678C6F30316032E02D006290DD024
:1038700014E0764F05263E60744E78363560734E00
:10388000083633603F263F1D3E6002E0167836075B
:1038900004D10678C6F30316052E02D0062957D0A8
:1038A00062E06B4E36686B4F3E60694E361D36687F
:1038B0003F1D3E60664E083636683F1D3E60644ED2
:1038C0000C3636683F1D3E60614E103636683F1D2F
:1038D0003E605F4E143636683F1D3E605C4E1836C3
:1038E00036685C4F20373E60594E1C3636683F1DA7
:1038F0003E60574E203636683F1D3E60544E24369B
:1039000036683F1D3E60524E283636683F1D3E6089
:103910004F4E2C3636683F1D3E604D4E3036366871
:103920004C4F40373E604A4E343636683F1D3E604D
:10393000474E383636683F1D3E60454E3C36366849
:103940003F1D3E60424E403636683F1D3E6002E0FD
:103950001678360708D10678C6F30316032E06D06C
:10396000042E04D0052E02D0062907D019E0D4F881
:103970005812394A01F04F01116002E0117809072D
:103980000FD10078C0F30310032803D0042801D01E
:10399000052806D131480168C90702D06FF001013E
:1039A0000160D4F83001062808D1D4F83401062883
:1039B00004D12B48016841F48061016022487438C9
:1039C000016841F470010160BFF34F8FBFF36F8F47
:1039D0004FF01021D1F80002002803DBD1F80402D7
:1039E000002822DA1F4A15601F480468002CFCD00A
:1039F0001524C1F800420568002DFCD0C1F804422E
:103A000001680029FCD0136001680029FCD0BFF3D5
:103A10004F8F0D48F0380168144A01F4E0611143FA
:103A20000160BFF34F8F00BFFDE7124910480860E7
:103A3000F0BD0000E00F00F0403501400DF0ADBAE0
:103A400000C007403C050040FCED00E0105600407F
:103A50000404001020C50040E40E004000040040B3
:103A60003C17004004E5014000E401400400FA0571
:103A70000090D003B8000020014800680047000013
:103A80002800002010B5124C02202061606111A0B6
:103A9000A06104F17800E0614FF400602062002032
:103AA000A06260620BA1A164E06204F67801E164A7
:103AB0001021A065C4E91410E06509A1E01DFDF71F
:103AC0009FFE08A12046FDF79BFE2020A07110BD9F
:103AD000246500205465726D696E616C0000000001
:103AE0005254540053454747455200000269C1688B
:103AF0008A4203D88068401A104400E0501A401EE1
:103B000070472DE9F047C4681746894606464FF0CE
:103B100000083069A04201D9051B02E0B168201AF3
:103B20000D1AB0686D1E001BA84200D80546BD42A4
:103B300000D33D4670682A4620444946FDF726FEDC
:103B4000B0687F1B2C44A844A944A04200D10024A3
:103B5000F460002FDDD14046BDE8F0872DE9F0414B
:103B600004468846D4E90207C51BE168606816462A
:103B70000844B54206D94146FDF708FEB819E06091
:103B8000BDE8F0812A464146FDF700FE761B08EBB2
:103B9000050132466068FDF7F9FDE660F0E702E0F6
:103BA00008C8121F08C1002AFAD1704770470020C8
:103BB00001E001C1121F002AFBD170470C480D49DA
:103BC00070B5401AC008032101EB00400AA102F0C1
:103BD00053FC0F4D4024224629460EA003F0EAF97B
:103BE000224629461648FDF7D1FD1648446070BDAF
:103BF00020AC0000F0AB0000416C696365277320C6
:103C000070726570617265207374657000000000E9
:103C1000707600004D65737361676520776974681D
:103C2000207075626C6963206B65792066726F6DB8
:103C300020416C69636520746F20426F623A2000F6
:103C40009C030020000000207CB540484049401AF9
:103C5000C408032000EB04403EA102F00DFC444DDB
:103C6000424800F5A8712A68FDF790FD3F4A2B688D
:103C7000A2F148013F48019301F0DAFD05004FF041
:103C8000010000EB04440BD0284601F067FE034618
:103C900020462A4638A102F0FAFB284600F0C8F870
:103CA00032492023394A9039324801F087FD050016
:103CB0000AD001F053FE034620462A462EA102F008
:103CC000E6FB284600F0B4F820200190304B01A814
:103CD000A3F56E720090A2F14801002001F0EEFD04
:103CE00005000AD001F03AFE034620462A4622A1EA
:103CF00002F0CDFB284600F09BF8254925A0019A4B
:103D000003F058F91948903801F042FD05000AD037
:103D100001F024FE034620462A4617A102F0B7FB15
:103D2000284600F085F81148483801F06BFD050081
:103D30000AD001F013FE034620462A460EA102F0E7
:103D4000A6FB284600F074F87CBD000020AC000003
:103D5000F0AB0000416C696365277320636F6D7081
:103D60007574652073746570000000004C010020BC
:103D700000000020F07700004572726F72203078EA
:103D8000253034583A20257300000000507600009A
:103D9000BC040020416C69636527732073686172FD
:103DA0006564207365637265743A200072B602F030
:103DB00005FC00BF02F048FA0028FBD11148124967
:103DC000401AC408012000EB044010A102F054FB8B
:103DD00011480068C00700D000BE022000EB04407C
:103DE0000EA102F049FBBFF34F8F0B48E438016886
:103DF0000E4A01F4E06111430160BFF34F8F00BF31
:103E0000FDE7000020AC0000F0AB000046617461EB
:103E10006C206572726F7200F0ED00E0537973747C
:103E2000656D207265736574000000000400FA057A
:103E30000EB500210091CDE901106A4644F201005F
:103E4000FFF7B4FF0EBD00F003B800F009B80000A2
:103E500072B602480168491C0160704738000020B2
:103E600003490868401E086000D162B67047000030
:103E7000380000202DE9F041064608680C46411C38
:103E80004FF0A0474FF0010506D005FA00F1C7F842
:103E90000815206802F0C4F86068411C02D00021B7
:103EA00002F0ACF83168A069C1F82405607D227D7C
:103EB00031681043C1F86C05D4E900123068C0F8CD
:103EC0001425C0F80C15207D012815D1A068411CCF
:103ED00002D0002102F092F8E068411C05D0854034
:103EE000C7F80855E06802F09BF8D4E90212306880
:103EF000C0F80825C0F81015BDE8F0812DE9F041A3
:103F0000064608680C46411C4FF0A0474FF00105DB
:103F100006D005FA00F1C7F80815206802F08AF803
:103F20006068411C02D0002102F071F83168A0697C
:103F3000C1F82405607D217D32680843C2F86C0514
:103F4000D4E900123068C0F80C15C0F81425207DA3
:103F5000012815D1A068411C02D0002102F057F8B9
:103F6000E068411C05D08540C7F80855E06802F0BC
:103F700061F8D4E902123068C0F80825C0F81015BD
:103F8000BDE8F0812DE9F04FADF5477D14460E46B2
:103F90008246B2F5C07F05D96FF037000DF5477D39
:103FA000BDE8F08F4FF4D0716846FDF70AFC68A8B1
:103FB00001F083F8200E8DF81000200C8DF8110010
:103FC000200A8DF8120030208DF8170006AD8DF80C
:103FD0001340224631462846FDF7D8FB802028555D
:103FE00004F119050020BEA90854401C2028FBDB61
:103FF0004FF4807B5A4668A801F064F80026B14669
:104000006F46CDF8B892CDF8BC92CDF8C0922C4650
:104010000DF52E78CDF8C49215E0002041463B5CAA
:104020000A5C5A400A54401C1028F8DB1037102C48
:1040300001D3102000E02046241AAEAB1A4601211D
:1040400068A800F059FC002CE7D1B2A83044102237
:10405000AEA9FDF79BFB9DF803001036401C8DF8C0
:104060000300302ECCDB5A46B2A968A801F02AF82A
:10407000BAAD56462B461A46012168A800F03CFC12
:10408000102229463046FDF781FB10341036302CC3
:10409000F0DB68A801F006F800207FE741094A42FA
:1040A00000EB421010B5044A0124844052F821303C
:1040B000234342F8213010BD085F0020F8B52C489A
:1040C0002C49401AC408032000EB04402AA102F046
:1040D000D3F92E4B2E4903F55472002001F014FB46
:1040E00005004FF0010000EB04440BD0284601F01E
:1040F00035FC034620462A4626A102F0C8F9284688
:10410000FFF796FE4020214900906A4648311F483B
:1041100001F0B2FB05000AD001F020FC0346204666
:104120002A461CA102F0B3F92846FFF781FE174E7C
:10413000009D48362A4631461BA002F03BFF2A4626
:10414000314606F1C800FDF721FB224805600F4803
:1041500001F058FB05000AD001F000FC03462046A0
:104160002A460CA102F093F92846FFF761FEF8BD3C
:1041700020AC0000F0AB0000426F62277320707229
:104180006570617265207374657000008C01002099
:10419000F07700004572726F722030782530345805
:1041A0003A202573000000004D6573736167652038
:1041B00077697468207075626C6963206B6579201B
:1041C00066726F6D20426F6220746F20416C69636C
:1041D000653A2000000000207CB536483649401A78
:1041E000C608032000EB064034A102F045F9394C23
:1041F000374800F5A0716268FDF7C8FA344A636871
:10420000A2F148013448019301F012FB05004FF080
:10421000010000EB06440BD0284601F09FFB03464B
:1042200020462A462DA102F032F92846FFF700FE6B
:10423000202001902E4B01A8A3F52272009002F5D8
:104240003271002001F03AFB05000AD001F086FB34
:10425000034620462A4621A102F019F92846FFF715
:10426000E7FD234923A0019A02F0A4FE2048403034
:1042700001F08EFA05000AD001F070FB03462046DB
:104280002A4616A102F003F92846FFF7D1FD10488F
:10429000483801F0B7FA05000AD001F05FFB034689
:1042A00020462A460DA102F0F2F82846FFF7C0FD8D
:1042B0007CBD000020AC0000F0AB0000426F622724
:1042C0007320636F6D707574652073746570000082
:1042D0005C02002000000020F07700004572726F41
:1042E00072203078253034583A20257300000000C1
:1042F0009C040020426F62277320736861726564BA
:10430000207365637265743A202020002DE9F04720
:104310000546861C90460F464FF001090020FFF726
:1043200092FD1B4C20683860D4E90001401AA16856
:1043300004F21C47081A0EE00121384601F0C6F8C5
:1043400000F004FA0146384601F0C0F8D4E9000153
:10435000401AA168081A401C8642EDD8B8F1000F37
:1043600003D0052065F3891002E0062065F39F5015
:10437000A2682168114004EB8101C86020683044C4
:1043800020600020FFF761FD4846BDE8F08700008F
:104390000061002070B50D4604460A2902D10D21A6
:1043A000FFF7F8FFA0682268411CA1601554D4E90A
:1043B0000101814204D32046BDE8704001F0EFBC0A
:1043C00070BD0000034803C8814201D1012070473D
:1043D000002070470061002002681368526831B104
:1043E0009A4202D38068801A07E0981A70479A426E
:1043F00001D3D01A70478068C01A401C70472DE95D
:10440000F0418CB00E4604466F4630213846FDF729
:10441000D8F9002504F120081020211811F8012DE9
:10442000521C12F0FF020A7002D1401E0028F4DC78
:104430003B4622460121404600F05EFA1035103717
:10444000302DE9DB00206946335C0A5C5A400A548F
:10445000401C3028F8DB4FF48072404600F032FEFA
:1044600008AD95E80F0084E80F000CB00020BDE80F
:10447000F081000010B50021024801F032F880F30D
:10448000100010BD1C65002010B50846114601F053
:10449000F4FB002010BD00002DE9F0410D460600A0
:1044A000174609D05DB1144C14496068884209D0A0
:1044B00048F20250BDE8F08148F21350FAE748F2A2
:1044C0001450F7E713462A463146206801F002FBF4
:1044D000A0F505417139EDD100221146104601F0D9
:1044E0005BFB0028E6D13B462A4631462068BDE802
:1044F000F04101F0EFBA00000C0000206572E54BBE
:104500002DE9F0470024884607461E461546FF2140
:104510002046DDF820A005E02A5C0AB1295C03E012
:10452000401C0834B042F7D3002049000A0A03D1E6
:10453000401C641C0828F8D3BFB3BEB3B8F1000117
:1045400048F210502FD0002D2DD03246284600F0D2
:10455000EBF860B3DFF86C90534632463946D9F831
:10456000000001F0B7FA00281DD1E1083846FDF738
:1045700028F9600708D007EBD40004F0070301789E
:10458000FF22DA401140017041463246384600F0C1
:10459000CBF80028E0D032463946284600F0C4F86F
:1045A0000028D9D00020BDE8F08701E003E005E055
:1045B00048F21350F7E748F21450F4E748F2175066
:1045C000F1E700000C0000202DE9FC5F0E0083469F
:1045D000DDE90C47C6F1000098469246814600D4BA
:1045E0000846012503E000BF90FBFAF06D1C504522
:1045F000FADAA84500D9454624B1002E01DB780738
:1046000000D5641EB80702D5B8F1000F0AD0F8072C
:1046100008D13CB1A54205D220215846641EFFF7BF
:10462000B9FEF6E7002E02DA4E462D2102E07807A9
:1046300003D52B215846FFF7ADFE07F003000228F3
:104640000BD1B8F1000F08D13CB1A54205D2302101
:104650005846641EFFF79EFEF6E7CDE90047434645
:1046600052463146584602F099FFBDE8FC9F0000D3
:1046700070B50D46044600684FF4887102F054F995
:104680004FF49071206802F04FF94FF49271206856
:1046900002F04AF94FF4A271206802F045F94FF494
:1046A000AC71206802F040F920681149C0F8041389
:1046B0002068690740F30730090E002806DA00F089
:1046C0000F0000F1E02080F8141D03E000F1E0206D
:1046D00080F800142068012140F3073000F01F0229
:1046E00091404009800000F1E020C0F8001170BD49
:1046F00010034200024600201268530713D502F04F
:104700000300012802D002280CD105E0C2F3831077
:104710000B68801C184404E00223086803EB9252E3
:10472000104408600120704730B500230AE0C45CE3
:10473000CD5CAC4205D02006B0EB056F04D800205C
:1047400030BD5B1C9342F2D3012030BD2DE9FF4107
:104750000026234800F0B7FE2148001F074600F05E
:10476000B2FE204C60680090A56800E000986946A1
:10477000284004EB80000C30FFF7BCFF0028F5D187
:1047800001AA009901EA050304EB8303491CDB68D5
:1047900042F82030401C00910228F2D3019800F02A
:1047A000030001280BD0022810D10198032101EB4E
:1047B00090500099BDF80A6001EB900005E0019867
:1047C000BDF80A60C0F3831008440090384600F03A
:1047D00077FE08B10098606004B03046BDE8F08113
:1047E00018650020006100200021084601F0B0FE9D
:1047F00008B1FFF71DFB01F00DFD22482249401AC8
:10480000C408032000EB0440064620A101F034FE5A
:1048100001F046FF05004FF0010000EB04440BD00F
:10482000284601F09BF8034620462A461DA101F0C8
:104830002EFE2846FFF7FCFA01F0C0F805000AD06A
:1048400001F08CF8034620462A4616A101F01FFE0F
:104850002846FFF7EDFAFFF7B1F9FFF72FFCFFF756
:10486000F3F9FFF7B9FC1449202201F12000FCF70D
:10487000BAFF20B1204611A101F0FEFDFEE730464F
:1048800014A1F9E720AC0000F0AB00004543444818
:10489000206578616D706C652073746172746564F5
:1048A0002E0D0A004572726F722030782530345810
:1048B0003A202573000000009C0400204543444832
:1048C000206578616D706C65206661696C65642136
:1048D0002121000045434448206578616D706C6576
:1048E00020657865637574656420737563636573AB
:1048F0007366756C6C792E0010B5144601291A4642
:10490000214603D000F006F8002010BD00F0E6F9C3
:10491000FAE700002DE9F84FCC7843680D684E683F
:1049200064F31F6510CB8F686C40CD7991F80FC090
:1049300065F31F6620CB00687540CE7ADFF890E300
:1049400066F31F6753F8086B0EF5806B7E40CF68E7
:1049500053F8041C6CF31F6779404FF0FF3707EBE7
:10496000600A0BF58060CDE004F0FF0C53F8049B67
:104970005EF82C70C6F3074C89EA0709C1F30727D4
:1049800050F82CC05BF82770984687EA0C0789EA34
:104990000709D04F4FEA156C57F82C7005F0FF0C43
:1049A00089EA07091F685EF82C30C1F3074C5F40A5
:1049B000C4F3072350F82CC05BF8233083EA0C03C0
:1049C0005F40C44B4FEA166C53F82C305F4008F13F
:1049D00004030093D8F804C006F0FF085EF82830FE
:1049E000C4F307488CEA030CC5F3072350F828806A
:1049F0005BF8233083EA08038CEA030CB54B4FEADB
:104A0000116853F828308CEA030C009B1B1D00939F
:104A1000D3F80080CBB25EF82310C5F3074388EAD1
:104A20000108C6F3072150F823305BF8211009F084
:104A3000FF05594088EA0108A649230E51F82310C2
:104A4000009B88EA01085EF825105C68CCF30745F6
:104A50004C40C8F3072150F825505BF821106940FD
:104A60004C409C493D0E03F1080651F825109D6805
:104A7000FBB24C405EF82310C8F307434D40C9F326
:104A8000072150F823305BF82110AAF1010A5940A0
:104A90004D4090494FEA1C6351F82310331D009399
:104AA0000CF0FF034D4076685EF82310C9F307430E
:104AB0004E40C7F3072150F823305BF82110C7F3AD
:104AC000074759404E4083494FEA186308F0FF08F2
:104AD00051F82310009B4E401B1D009319685EF88F
:104AE000283050F827705940CCF307235BF8233067
:104AF0007B405940774B4FEA196753F827305940AC
:104B0000009B1B1DBAF1000F3FF72EAFDFF8C0C1AD
:104B100004F0FF0880CB5CF828C0C6F3074887EA9A
:104B20000C07C1F3072C86465BF82CC050F8280010
:104B30009A468CEA000C87EA0C0766484FEA156C27
:104B4000D3F8008050F82C00EBB24740604806F0E4
:104B5000FF0C50F82300C1F3074388EA0008C4F3B0
:104B600007205EF823305BF82000584088EA0008F0
:104B70005848330E50F82300554B88EA00095AF87C
:104B8000040F53F82C3001F0FF085840C5F30723F9
:104B9000C5F307455BF823C0C4F307435EF825500F
:104BA0005EF823308CEA030C80EA0C00494B4FEA94
:104BB000116C474953F82C3058400AF1040351F85E
:104BC000281053F804CB8CEA010CC6F307215BF8DC
:104BD000211069408CEA010C3E49240E51F8241042
:104BE00010CB8CEA010C3C4951FA87F52D78C0F3C3
:104BF00007466C40CCF307258E5D4D5D2D0285EA9E
:104C000006456C4001EB19652D7884EA056420CBDC
:104C100051FA89F63678CCF307487540C7F3072672
:104C200011F808808E5D9A46360286EA084675407D
:104C300001EB10661B68367885EA066551FA80F646
:104C40003678C7F307487340C9F3072611F8088080
:104C50008E5D360286EA0846734001EB1C663678A4
:104C600083EA066651FA8CFC9CF800C0DAF804303E
:104C7000C0F3072083EA0C03C9F3074C085C11F862
:104C80000CC0000280EA0C40434001EB1760210A8F
:104C9000007814705170210C9170210ED170157133
:104CA000290A5171290C9171290ED1711672310A9C
:104CB0005172310C9172310E83EA0060D17210731F
:104CC000010A5173010C9173000ED073BDE8F88F87
:104CD000B08A0000B0960000B08900002DE9F84FBE
:104CE000CC7843680D684E6864F31F6510CB8F68FD
:104CF0006C40CD7991F80FC065F31F6620CB00683A
:104D00007540CE7ADFF890E366F31F6753F8086BBF
:104D10000EF5806B7E40CF6853F8041C6CF31F6760
:104D200079404FF0FF3707EB600A0BF58060CDE06C
:104D300004F0FF0C53F8049B5EF82C70C6F3074C8C
:104D400089EA0709C5F3072750F82CC05BF82770DC
:104D5000984687EA0C0789EA0709D04F4FEA116C99
:104D600057F82C7005F0FF0C89EA07091F685EF8F8
:104D70002C30C1F3074C5F40C6F3072350F82CC01A
:104D80005BF8233083EA0C035F40C44B4FEA146C9A
:104D900053F82C305F4008F104030093D8F804C0A6
:104DA00006F0FF085EF82830C4F307488CEA030CCD
:104DB000C1F3072350F828805BF8233083EA080307
:104DC0008CEA030CB54B4FEA156853F828308CEA8F
:104DD000030C009B1B1D0093D3F80080CBB25EF840
:104DE0002310C5F3074388EA0108C4F3072150F8EC
:104DF00023305BF8211009F0FF05594088EA0108CB
:104E0000A649330E51F82310009B88EA01085EF88A
:104E100025105C68CCF307454C40C7F3072150F8D8
:104E200025505BF8211069404C409C494FEA1865B9
:104E300003F1080651F825109D68FBB24C405EF85E
:104E40002310C8F307434D40CCF3072150F823301B
:104E50005BF82110AAF1010A59404D408F494FEAF1
:104E6000196351F82310331D00930CF0FF034D40DC
:104E700076685EF82310C9F307434E40C8F3072154
:104E800050F823305BF8211008F0FF0859404E40DD
:104E900082493B0EC7F3074751F82310009B4E4051
:104EA0001B1D009319685EF8283050F82770594090
:104EB000C9F307235BF823307B405940774B4FEA17
:104EC0001C6753F827305940009B1B1DBAF1000F97
:104ED0003FF72EAFDFF8C0C104F0FF0880CB5CF8CD
:104EE00028C0C6F3074887EA0C07C5F3072C864697
:104EF0005BF82CC050F828009A468CEA000C87EA30
:104F00000C0766484FEA116CD3F8008050F82C006B
:104F1000EBB24740604806F0FF0C50F8230088EAE7
:104F20000008C6F307205BF82030C1F307405EF8A5
:104F30002000434088EA03085848230E50F8230015
:104F4000554B88EA00095AF8040F53F82C30C4F383
:104F5000074C5840C1F307235EF82CC05BF82330A0
:104F600001F0FF0883EA0C0358404C4B4FEA156CE4
:104F7000494953F82C3058400AF1040351F82810DD
:104F800053F804CB8CEA010CC4F30721C5F30744A2
:104F90005BF821105EF8244061408CEA010C3F4927
:104FA000340E51F8241010CB8CEA010C3C4951FA14
:104FB00087F52D78C0F307466C40C9F307258E5D51
:104FC0004D5D2D0285EA06456C4001EB1C652D7890
:104FD00084EA056420CB51FA89F63678CCF3074889
:104FE0007540C0F3072611F808808E5D9A46360298
:104FF00086EA0846754001EB17661B68367885EA35
:10500000066551FA80F63678C7F307487340CCF34B
:10501000072611F808808E5D360286EA084673403E
:1050200001EB1966367883EA066651FA8CFC9CF827
:1050300000C0DAF80430C7F3072783EA0C03C9F38A
:10504000074CCF5D11F80CC001EB1060210A00780D
:1050500014705170210C9170210ED1701571290AB4
:105060005171290C9171290ED1711672310A517248
:105070003F02310C87EA0C4791727B40310E83EA84
:105080000060D1721073010A5173010C9173000E0C
:10509000D073BDE8F88F0000B0790000B085000043
:1050A000B0780000002807D040F217115FF000022E
:1050B00000F8012B491EFBD270474FF48C71FCF7AE
:1050C00080BB0000F0B5802A07D0C02A07D0B2F517
:1050D000807F0BD06FF01F00F0BD0A2300E00C238F
:1050E000036000F10803002443600AE00E23F7E7A1
:1050F00001EB8405EE782D6866F31F6543F82450B4
:10510000641CB4EB521FF3D3544A0168A2F5085053
:105110000A2904D00C292BD00E2928D156E00024CE
:1051200053F80C5B52F824104D4002CBC1F3072614
:10513000C1F30747865DC75D86EA0726754000EB29
:105140001166367885EA064550FA81F63678641C91
:1051500085EA06651D6053F80C6C6E405E6053F87E
:10516000085C75406940C3E902510A2CD8D373E04A
:105170005FF000041D6852F824104D405969C1F3D6
:105180000726C1F30747865DC75D86EA0726754097
:1051900000EB1166367885EA064550FA81F63678D6
:1051A000641C85EA06659D615E686E40DE619D68EF
:1051B00075401D62DE686E405E621D697540694023
:1051C000C3E90A511833082CD4D345E05FF0000539
:1051D0001C6852F825104C40D969C1F30726C1F369
:1051E0000747865DC75D86EA0726744000EB1166B7
:1051F000367884EA064450FA81F6367884EA066600
:105200001E625C6874405C629E6866409E62DC68F8
:105210007440DC6250FA84F73F781E69C4F3074C8F
:105220007E40C4F3072710F80CC0C75D00EB146480
:105230003F0287EA0C4724787E4086EA04641C63B8
:105240005E696D1C66405E639C6974406140C3E9A1
:105250000E412033072DBBD30020F0BDB09A0000D3
:1052600010B504000AD004F12000FFF71BFF40F244
:105270003F10002104F8011B401EFBD210BD4FF46B
:10528000A071FCF79EBA08B50023009300F001F866
:1052900008BD2DE9F04190B09846169F154604468A
:1052A0000E46B2F5806F04D96FF0350010B0BDE83E
:1052B000F081B7F5807F02D96FF03700F6E7302133
:1052C0006846FCF77EFAE1692069884201DC606982
:1052D00038B13A464146204600F038F80028E5D17A
:1052E00009E047B13A4641466846FEF74BFE69463B
:1052F0002046FFF784F804F12008F5B110202118AA
:1053000011F8012D521C12F0FF020A7002D1401E4A
:105310000028F4DC0CAB224601214046FFF7ECFAF2
:10532000102D01D9102700E02F463A460CA930462F
:10533000FCF72CFA3E44ED1BDFE769462046FFF7F9
:105340005EF82069401C20610020AFE7F0B50F46F1
:1053500085694FF4C071E1B0164604468D4203D80A
:10536000C5F5C070B04203D26FF0370061B0F0BD38
:105370006846FCF726FAD4E94E302A466946984733
:1053800010B16FF03300F1E7A5693FB136B10DEB15
:10539000050032463946FCF7F9F9354469462A4694
:1053A0000846FEF7EFFD69462046FFF728F8012082
:1053B00020610020DAE77CB53025069CCDE9004568
:1053C00000F001F87CBD2DE9F04788B00D46DDE91D
:1053D000108904469A46164620216846FCF7F1F9E2
:1053E00004F120000746FFF768FE42F21070C4E99E
:1053F0000690C4E94E564FF4807269463846FFF76E
:1054000061FE424651462046FFF7A0FF08B0BDE8C6
:10541000F0872DE9F047C5881E1DB6FBF5F78946D4
:10542000B6FBF5F1044605FB176C40791668684336
:10543000DDF820A0F718001F874200D9C61A1660B1
:1054400001E02468491E0029FBD1A5EB0C07884622
:10545000B74216D818E004EB0C00001D09EB080356
:10546000BAF1000F3A4602D00146184600E019464C
:10547000FCF78CF92468F61B4FF0000CB844B542D9
:1054800001D9374600E02F46002EE4D1BDE8F08771
:1054900030B5024651B101F079F80021074C08E01F
:1054A00034F821301568AB4202D11160002030BDC4
:1054B000491C8142F4D3052030BD000000000000EB
:1054C000002100F009B8012100F010B808B56A46C3
:1054D000FAF7D3FE009808BD08B56A46FAF7B3FE9E
:1054E00008BD08B56A46FAF795FE08BD08B56A46D4
:1054F000FAF79CFE009808BD08B56A46FAF7CAFE9E
:10550000009808BD70B5044600252846FEF79BFCB0
:1055100021686268086890420ED9401E08600178D0
:10552000238AE26801FB0325227A2168101AC0B29F
:105530000A79824200D208710020FEF786FC2846D4
:1055400070BD70B505460C460020FEF77CFCE8688F
:10555000298A201AB0FBF1F12A681068431C1360F5
:105560000170BDE870400020FEF76FBC10B530B18F
:10557000017A42680368891AC9B21A6006E00E20EF
:1055800010BD03681A68541C1C601170491EC9B212
:10559000F7D2006800210171084610BD10B5184609
:1055A00008310832FCF7D8FA002010BD70B50C465F
:1055B00004F1080015462021064601F08FFC002862
:1055C00010D114F8080F314600F0F8002070E07F89
:1055D00000F07F0040F04000E07705F10800FCF7A4
:1055E00093FB002070BD10B502F108000831FCF7F4
:1055F0008BFB002010BD70B50C4604F10800154669
:105600002021064601F06AFC00280CD104F1280094
:1056100031460446FCF7A2FC2022214605F1080091
:10562000FCF7B4F8002070BD70B5044608302022A5
:105630000546FCF7ABF8294604F12800FCF78EFC80
:10564000002070BD104610B5202208302831FCF72C
:105650009DF8002010BD0000024A2023A2F1200185
:1056600000F005BB1C78000010B542680830936854
:1056700052799847002010BD10B50C4641684A7910
:105680008B6800F1080120469847002010BD10B536
:1056900042680830936892799847002010BD10B591
:1056A0000C4641688A798B6800F1080120469847CA
:1056B000002010BD10B5184608310832FCF722FC56
:1056C000002801D048F2165010BD70B501F1080055
:1056D00014460546FFF7C0FF002808D1294604F10B
:1056E0000800FCF729FC002801D048F2165070BDD4
:1056F00010B502F108000831FCF71EFC002801D0AB
:1057000048F2165010BD00002DE9F04188460646CB
:105710006C4617461D461146404600F07BF90028AE
:10572000A54616D12946404600F074F90028A54642
:105730000FD198F80400144951F820C00C39BCF17D
:10574000000F31F8100001D02EB10CE0A54648F250
:105750000350BDE8F08130B1C01D20F00700ADEB73
:10576000000D6E4666B11A4639463046E04708B12C
:10577000A546EEE705493960891FA5462960E8E797
:1057800048F21550A546E4E7BC7600007652464D37
:1057900010B50446074900F031F9002809D16168C5
:1057A000054A097952F8211009B12046884700219D
:1057B000216010BD7652464D0477000070B5164644
:1057C0000C46054600F026F9002812D16A791946E0
:1057D000304600F02CF900280BD12879074951F800
:1057E00020203AB1314620469047002801D1044993
:1057F000216070BD48F2035070BD0000D4760000F7
:105800007652464D10B50446074900F0F7F80028D7
:1058100009D16168054A097952F8211009B1204679
:1058200088470021216010BD7052464D107700005E
:1058300070B516460C46054600F0ECF8002812D16B
:10584000AA791946304600F0F2F800280BD12879E1
:10585000074951F820203AB13146204690470028A8
:1058600001D10449216070BD48F2035070BD0000B1
:10587000EC7600007052464D70B50D461446034656
:105880000C4900F0BBF8002813D15E682146284679
:10589000B27900F0D7F800280BD13079064951F8D9
:1058A000202022B12946BDE870401846104748F232
:1058B000035070BD7052464DF87600002DE9F04758
:1058C0006C46884605460E4699461746214940468D
:1058D000D4F820A000F092F80028A5460ED11D496A
:1058E0003846891F00F08AF80028A54606D1766858
:1058F0007868864204D0A54648F24150BDE8F0875A
:1059000072795146484600F09DF80028A546F5D129
:105910003079114951F82060091F31F810000EB19B
:1059200025B10BE048F20350A546E7E730B1C01DB2
:1059300020F00700ADEB000D6D4635B14B463A4601
:1059400041462846B047A546D8E748F21550A54637
:10595000D4E700007652464D2077000050B1094A46
:10596000002100BF52F83130834205D102EBC10063
:105970004068704704A07047491C1929F2D305A05C
:1059800070470000287700004E6F206572726F72BA
:10599000000000004572726F72206E6F7420726595
:1059A0006C6174656420746F206E72665F637279D7
:1059B00070746F206C696272617279002DE9F04138
:1059C0000B480C4D0C4F401BC608012038700024BA
:1059D00006E000BF55F834008047002805D1641C5C
:1059E000B442F7D3022038700020BDE8F0810000F7
:1059F000D0AB0000C8AB00000800002028B1006850
:105A0000884205D048F24050704748F21050704725
:105A10000020704728B139B10022C1E900201046AA
:105A2000704748F21050704748F21350704720B149
:105A3000914205D048F21150704748F2105070471B
:105A40000020704730B149B10868904205D248F251
:105A50001450704748F2135070470A600020704796
:105A600005480178022904D00078012801D00020DF
:105A700070470120704700000800002038B5041D61
:105A8000002000F00FF900280ED12046FFF7F7FBA9
:105A9000002003460246009004492046FFF78BFC95
:105AA000BDE8384001F004BB38BD00008944000067
:105AB00010B511461A46001DFFF748FCBDE810401E
:105AC00001F0F6BA10B5001DFFF7CAFB00F016F999
:105AD000002010BD10B5001DFFF7D5FBBDE810403C
