:020000022000DC
:1070000000000420B5720200DD720200DF7202008F
:10701000E1720200E3720200E5720200000000006B
:10702000000000000000000000000000E772020005
:10703000E972020000000000EB720200ED72020033
:1070400015040300EF720200EF720200EF720200FB
:10705000EF720200EF72020009FE02000105030058
:10706000EF720200EF720200EF720200EF72020094
:10707000EF720200EF720200EF720200EF72020084
:10708000EF72020055BD0200EF720200EF720200C3
:10709000EF720200EF720200D144030055EB0700CB
:1070A000EF720200EF720200EF720200EF72020054
:1070B000EF720200EF72020000000000000000000A
:1070C000EF720200EF720200EF720200EF72020034
:1070D00095B70600EF720200EF7202007121030003
:1070E000EF720200EF720200EF7202000000000077
:1070F00000000000EF72020000000000EF720200CA
:10710000000000000000000000000000000000007F
:10711000000000000000000000000000000000006F
:10712000000000000000000000000000000000005F
:10713000000000000000000000000000000000004F
:10714000000000000000000000000000000000003F
:10715000000000000000000000000000000000002F
:10716000000000000000000000000000000000001F
:10717000000000000000000000000000000000000F
:1071800000000000000000000000000000000000FF
:1071900000000000000000000000000000000000EF
:1071A00000000000000000000000000000000000DF
:1071B00000000000000000000000000000000000CF
:1071C00000000000000000000000000000000000BF
:1071D00000000000000000000000000000000000AF
:1071E000000000000000000000000000000000009F
:1071F000000000000000000000000000000000008F
:1072000010B5054C237833B9044B13B10448AFF3E0
:1072100000800123237010BD2034002000000000F6
:10722000500D090008B5034B1BB103490348AFF3E8
:10723000008008BD0000000024340020500D09002B
:10724000154B002B08BF134B9D46A3F5803A002138
:107250008B460F461348144A121A5DF03CF80F4B48
:10726000002B00D098470E4B002B00D098470020F1
:10727000002104000D000D48002802D00C48AFF397
:1072800000805CF0A5FF200029000CF06FFD5CF091
:1072900079FF00BF0000080000000420000000008B
:1072A00000000000203400202085012000000000A4
:1072B000000000000649074A074B9B1A03DD043B08
:1072C000C858D050FBDC07F003FFFFF7B9FF000000
:1072D000680F0900E82A002020340020FEE7FEE7BE
:1072E000FEE7FEE7FEE7FEE7FEE7FEE7FEE7FEE776
:1072F000704700BF00B583B0044B0093044A40239D
:1073000000F036F803B05DF804FB00BF157302000F
:107310004034002002B32DE9F843114B114E88464A
:10732000144643F0010903270025224608EB050116
:1073300000200DF067FA03461D444FF47A40E41A2A
:1073400023B9337833B1C847013F06D001233370E6
:10735000002CEAD1BDE8F88370473770BDE8F883A8
:10736000705D08003C340020704700BF0DF04ABB40
:10737000F0B595B0002415460F4608461E4607F0A6
:107380005DFC384623460895082205A91A9D0996F2
:107390000D950A948DF82C400C9407F0A9FC9DF8EB
:1073A00014308DF81140DDE9061003F00302012AC4
:1073B000CDE9020127D0022A04D0384607F042FC6A
:1073C00015B0F0BDBDF81650C3F3C2038DF81030F0
:1073D000AD090826082D2C4628BF0824334622462E
:1073E0000EA9384607F084FC2D1B214608AB02AAE3
:1073F0000EA8264400F0CAFD002DEBD1384607F058
:1074000021FC15B0F0BDBDF81460059DC6F38316D0
:10741000C3F3C204B2000EA9384608238DF8104009
:10742000C5F3952507F064FC08AB324628460EA943
:10743000009302AB00F004FD384607F003FC15B0E2
:10744000F0BD00BF08B5FFF791FF0421034800F02D
:10745000ADFC034B01225A7108BD00BF500F09005B
:10746000E82A0020F0B5324C85B004F5836006F0C0
:107470001BFA04F2144006F017FAD4E9013703EAC4
:107480000702D01C04EB800114F8200010F0040067
:1074900044D003F1020C0E7806F00306012E654677
:1074A00035D0022E02F1030621D004EB860100281C
:1074B000F1D104EB82020133D26801923B4004EB2C
:1074C000830302F00302012ADE6829D0022A23D1B5
:1074D000BDF806309B090333360C05EB93051548C0
:1074E00006F0EEF900B16560304605B0F0BD4B889E
:1074F0000CEB931307EA0302D11C03F1020C14F8FE
:107500002100654604EB810100F00400CFE70B8801
:10751000C3F383136344EDE70026E0E79D1CC8E74F
:10752000BDF80430C3F38313360C1D44D7E700BF06
:1075300050350020643900200B4B0C4810B5002258
:10754000FF21C3F818249960C3E90022C3F814246A
:1075500083F8202407F014FB044610B9044807F010
:10756000F7FC204610BD00BF50350020280E090052
:10757000945D080021B9124B03EBC000006870470E
:10758000104A0F49521AD20815D030B40E4D2B882C
:10759000834212D0002303E035F82340844205D013
:1075A00001339A42F8D1002030BC704701EBC30090
:1075B000006830BC7047104670470846F8E700BFC7
:1075C000500E0900500F090020340020094B0139EA
:1075D00003EBC00003290BD8DFE801F00208060422
:1075E0000220704740797047007970470420704747
:1075F00000207047500E09002DE9F04383B002AB24
:10760000002203F8012DDFF8DC9007461846884673
:10761000D9F8084004F012FAD9E90132D9F800602B
:10762000134401339B1B012B58D809F21C4501213F
:10763000284606F007F9FFF715FF0146284606F031
:1076400001F9D9E90132D9F80010134401335B1A6A
:10765000012BECD90A400332052302319DF80700C3
:1076600049F82230C9F8001004F00EFA00211C4835
:1076700006F0AEF880F31000731C234009EB83037F
:1076800000043440033440EA1740D86019F824302D
:1076900067F3C50309F8243039F824306FF38913F0
:1076A00029F8243059F8242068F39F221346012139
:1076B00061F301036FF3820349F8242009F82430B1
:1076C00099F820341BB906E000F00EF818B1D9E99A
:1076D00000329A42F8D103B0BDE8F0833146B9E7F1
:1076E0006C390020503500202DE9F047934C0023E1
:1076F00084B0C4F81834BFF34F8FD4E9015605EABB
:107700000602D31C04EB830114F82330580719D563
:1077100027680B7803F00303012B43D0022B03D11E
:107720004B88023505EB931506EA0502D4F81804D8
:10773000D31C04EB830128B9AF4239D914F82330A4
:107740005B07E6D404EB82026B1CD26801923340E3
:1077500004EB830302F00302DB680293022A05F1C3
:10776000020700F08D80012A26D0D4F810543DB1D4
:107770002B6828469B689847EB681D68002DF7D159
:107780006F48704B7049C01AC008000440F00200F6
:10779000FFF732FFD4E90030C01A18BF012004B04F
:1077A000BDE8F0870B880235C3F383131D44BBE7A4
:1077B000676004B0BDE8F087BDF804206348C2F3F9
:1077C0008313062B28BF062363F389120233990023
:1077D000ADF8042007F0D6F980460028C5D007F0A0
:1077E0002DFA0023082201A9404607F04DFABDF802
:1077F000043013F4707F00F09F806FF0010AAAEB51
:10780000050A082506EA070103312B46042204EB8A
:107810008101404607F038FABDF8043007F101094C
:107820000AEB0902C3F3831393424F4605F10405A3
:10783000E8D8D4F81834002B68D1D4F8105465B1C6
:10784000EB685A7928464146002A5BD02B681B68B2
:107850009847EB681D68002DF2D1404607F0F2F919
:1078600004A8002300F80D3D04F0E8F8D4F818341B
:107870000BB9C4F804909DF8030004F005F989E7FA
:10788000BDF8063031484FEA93194D46502D28BFB8
:10789000502565F38F1305F10801ADF8063007F0A8
:1078A00071F9804600283FF460AF26EA070A0AF122
:1078B000010A07F0C3F94FEA8A0A0023082201A946
:1078C000404607F0E1F955452BD9EBB2BAF1000F6C
:1078D00020D006EA0701A3EB0A03033104EB810180
:1078E000DDB252460823404607F0CEF92A460AF197
:1078F00008031749404607F0C7F909F1030907EBE8
:10790000990996E71D68002D9AD1A6E7404607F031
:1079100099F93FE72A4608230D49404607F0B4F994
:10792000EBE706EA0701033104EB81012A4608234D
:10793000404607F0A9F9E0E7B9467AE7503500205C
:10794000700E0900500E0900A05D0800280E090005
:107950005C3500202DE9F04782B002AB002403F82B
:10796000014DDFF8ECA00746184691468846DAF844
:10797000084004F063F8DAE90132DAF800601344F1
:1079800001339B1B022B5ED80AF21C4501212846BD
:1079900005F058FFFFF766FD0146284605F052FF47
:1079A000DAE90132DAF80010134401335B1A022BD2
:1079B000ECD90A400332033145239DF807004AF809
:1079C0002230CAF8001004F05FF8B31C23400AEB21
:1079D000830300211D48C3F80C9005F0F9FE80F3E5
:1079E0001000731C23400AEB83030004344003346B
:1079F00040EA1740D8601AF8243067F3C5030AF844
:107A000024303AF82430012161F389132AF8243014
:107A10005AF8242068F39F22134661F301036FF3A1
:107A200082034AF824200AF824309AF820341BB93B
:107A300006E0FFF759FE18B1DAE900329A42F8D1B0
:107A400002B0BDE8F0873146B3E700BF6C390020D3
:107A5000503500202DE9F04F83B002AD002405F829
:107A6000014D3B4C8046284693469A468946A56878
:107A700003F0E4FFD4E90132276813440133DB1B30
:107A8000032B63D804F21C460121304605F0DAFED0
:107A9000FFF7E8FC0146304605F0D4FED4E9013298
:107AA0002168134401335B1A032BEDD90A400332DA
:107AB000852344F8223004319DF80700216003F04B
:107AC000E3FFBA1CFB1C2A402B4004EB820204EBB0
:107AD000830300211F48C2F80CB0C3F80CA005F0C6
:107AE00077FE80F310007B1C2B4004EB8303000423
:107AF0003D40033540EA1840D86014F8253068F35B
:107B0000C50304F8253034F82530022262F38913C6
:107B100024F8253054F8252069F39F2213460121CB
:107B200061F301036FF3820344F8252004F8253044
:107B300094F820341BB906E0FFF7D6FD18B1D4E95C
:107B400000329A42F8D103B0BDE8F08F3946ADE774
:107B5000503500206C3900202DE9F04F83B002AE83
:107B6000002406F8014D3E4C8046304693469A4626
:107B7000A568894603F062FFD4E9013227681344FF
:107B80000133DB1B042B69D804F21C46012130466B
:107B900005F058FEFFF766FC0146304605F052FE40
:107BA000D4E901322168134401335B1A042BEDD967
:107BB0000A400332C52344F8223005319DF80700FE
:107BC000216003F061FFB81CFA1C28402A403B1DCD
:107BD0002B4004EB800004EB820204EB8303C0F82B
:107BE0000CB00021C2F80CA01E480C9ADA6005F017
:107BF000EFFD80F310007B1C2B4004EB830300049B
:107C00003D40033540EA1840D86014F8253068F349
:107C1000C50304F8253034F82530032262F38913B4
:107C200024F8253054F8252069F39F2213460121BA
:107C300061F301036FF3820344F8252004F8253033
:107C400094F820341BB906E0FFF74EFD18B1D4E9D3
:107C500000329A42F8D103B0BDE8F08F3946A7E769
:107C6000503500206C3900202DE9F04F87B006AE6A
:107C7000002406F8114D454C109F0497CDE90223CE
:107C8000804699463046119B05939246A5688B46DF
:107C900003F0D4FED4E90132276813440133DB1B1F
:107CA000052B70D804F21C460121304605F0CAFDB0
:107CB000FFF7D8FB0146304605F0C4FDD4E9013298
:107CC0002168134401335B1A052BEDD90A400332B6
:107CD00040F2051344F8223006319DF80700216078
:107CE000FE1C03F0D1FEB91C29402E403A1D2A404B
:107CF00004EB810104EB86067B1D2B4004EB820222
:107D0000C1F80CA004EB8303C6F80C90109ED6605B
:107D10000021119A1E48DA6005F05AFD80F3100028
:107D20007B1C2B4004EB830300043D40033540EAF9
:107D30001840D86014F8253068F3C50304F82530DE
:107D400034F82530042262F3891324F8253054F8DE
:107D500025206BF39F221346012161F301036FF38A
:107D6000820344F8252004F8253094F820341BB908
:107D700006E0FFF7B9FC18B1D4E900329A42F8D115
:107D800007B0BDE8F08F3946A0E700BF50350020AE
:107D90006C390020044BD3E900239A4201D0FFF74D
:107DA000A3BC0020704700BF5035002030B4184DF0
:107DB000D5F8104400215CB1E3681A798A4204D1F5
:107DC00016E0DB681A798A4212D01B68002BF8D1C2
:107DD000C3681971D5F8103493B1DA68C3681268B2
:107DE0001A60D5F81034DB68186030BC084670475C
:107DF00001310A29DFD14FF0FF31084630BC70470E
:107E0000C5F81004C2681360084630BC704700BF54
:107E10005035002038B5094BD3F81044012583F8BC
:107E200020544CB1E3685D71236820465B68984735
:107E3000E3681C68002CF5D138BD00BF5035002028
:107E40002DE9F04784B01D460C9C002394F80C806B
:107E50002373EB8881460E461746002B40D1297AC2
:107E600005290ED06B7AA88873BB404B53F821A02C
:107E70000021FFF77FFB524603463D49204605F0AF
:107E800097FD062F09D8DFE807F0046A4249525DE2
:107E900033004946204605F08BFD2B7A052B05D093
:107EA0006B7A5BB93349204605F082FD204605F028
:107EB00073FD84F80C8004B0BDE8F0872E4A2F498A
:107EC000204605F075FDEDE7FFF780FB2C4B2B49B5
:107ED00053F82020204605F06BFD297AA888C4E7D6
:107EE000254A00922749284A204605F061FDB6E759
:107EF000D6E90410D6E900230390D6E902070291DF
:107F0000CDE900074946204605F052FDC5E7494640
:107F1000D6E90023204605F04BFDBEE7B168D6E95F
:107F2000002320460091494605F042FDB5E7D6E919
:107F30000201D6E90023019100904946204605F050
:107F400037FDAAE7D6E90371B068D6E900230291AC
:107F5000CDE900074946204605F02AFD9DE7326835
:107F60004946204605F024FD97E700BF245E08003F
:107F7000185E080064BE0800105E0800D87B080088
:107F8000B85D0800F85D0800F05D0800082900D918
:107F900070472DE9F04F1D46904600232A7B2B7336
:107FA00085B0B8F80630039207460E46002B7BD109
:107FB00098F80810052911D098F80930B8F804008D
:107FC000002B63D13C4B53F821400021FFF7D2FA3C
:107FD000224603463949284605F0EAFCDFF8FCB0A2
:107FE000DFF8FC90002405E03A5D013405F0E0FC88
:107FF000082C09D0A64249462846F5D859460134EE
:1080000005F0D6FC082CF5D12D49DFF8D8B0DFF803
:10801000D890284605F0CCFC00240CE017F804A00A
:10802000BAF17E0F23D92E2249462846013405F0A5
:10803000BFFC082C08D0A642F0D859462846013487
:1080400005F0B6FC082CF6D198F80830052B02D0C4
:1080500098F80930A3B91B49284605F0A9FC284621
:1080600005F09AFC039B2B7305B0BDE8F08F5CF024
:10807000D7F850445246437813F0970FD3D0D3E744
:10808000114A1249284605F093FCE4E7FFF79EFAEF
:108090000F4B0E4953F82020284605F089FC98F82C
:1080A0000810B8F804008DE7074A009209490A4A07
:1080B000284605F07DFC7BE7245E0800185E08007A
:1080C000E85D080064BE0800105E0800D87B080068
:1080D000B85D0800F85D0800F05D0800E45D080088
:1080E000DC5D0800205E0800EC5D080070B51A4BEE
:1080F0001D789DB1194B1C682378C0B2984210D0EE
:1081000004F10802002306E014F8331081421646F9
:1081100002F1080206D001339D42F5D100231B78FD
:10812000FFDE264607F060FE7378A3F10103B3FA81
:1081300083F35B09834200D070BD094BD3E9002370
:108140001343F9D1074B0848196800224908BDE8D4
:10815000704000F003BD00BF0C3A0020603A0020E0
:10816000383A0020103A0020183A00202DE9F04F4C
:108170009D4E337887B0002B00F030819B4F9C4D93
:10818000DFF8788200244FF00109D7F800B01BF81F
:10819000340007F029FE0BEBC4031BF834B05B7806
:1081A0004FEA5B0C1BF0010E15F80C10A3F1010354
:1081B000B3FA83F314BF0A0901F00F025B09042A22
:1081C00000F2D080DFE812F09800D000690048008B
:1081D0000500834200F0E980BEF1000F0CBFF023E0
:1081E0000F233078194005F80C10A8B1D7F800C05B
:1081F0009CF800305B4500F0E7800CF1080200239A
:1082000004E01CF83310594500F0DF80013383424D
:10821000964602F10802F4D14FF000030DF1170069
:108220008DF817300023039303F008FCABF1200214
:10823000CBF1200329FA03F309FA02F21A4309FAEF
:108240000BF103920291D8E90023DDE9020122EA51
:10825000000023EA01017DE0834232780CD0BEF1B8
:10826000000F0CBFF0230F2303EA01030CBF04210E
:108270004021194305F80C100134944285DBD8E9FC
:108280000023134306D05B4B5B4819680022490862
:1082900000F064FC07B0BDE8F08F834276D1BEF1F8
:1082A000000F14BF0F23F02303EA0103327814BF39
:1082B00030210321194305F80C10002ADFD0D7F82C
:1082C00000C09CF800305B4500F08B800CF1080189
:1082D0000023013393428E4601F10801CCD01CF8F3
:1082E00033005845F5D1DEF80430002BC4D0584691
:1082F000012198473278BFE7834233D1BEF1000FA6
:108300000CBFF0230F2303EA01030CBF012110214E
:1083100019434FF000030DF117008DF817300023BB
:10832000019305F80C1003F089FBABF1200309FA67
:1083300003F301930198CBF1200129FA01F10843DD
:1083400009FA0BF101900091D8E90023DDE9000161
:108350001043194302460B469DF81700C8E9002355
:1083600003F092FB327887E7834213BF0023202378
:1083700002221A46BEF1000F12BF0F20F020134652
:1083800001400B4305F80C30327875E7BEF1000F61
:108390000CBFF0230F2303EA01030CBF01211021BE
:1083A000194305F80C10327866E7BEF1000F14BFD0
:1083B0000F23F02303EA010314BF302103211943E3
:1083C00005F80C10327857E7E646DEF80430002B4B
:1083D0003FF422AF0021584698471DE7DFF81C8084
:1083E0004DE7E6467FE700BF0C3A0020603A0020E8
:1083F000403A0020103A0020183A0020383A002075
:10840000092A40D9F0B583B00E460546144607F058
:1084100075FB002831D0204A2049214B15600E7091
:10842000202200211F481C605BF055FF1E4B0020DE
:108430000021741EC3E90001E4B236B305EBC404A5
:108440001A4E083D032701E0A5421ED09DF80630D4
:1084500020788DF8047003F0FC036FF382038DF82D
:108460000630A3788DF80530324601A907F050FB9D
:10847000083C0028E8D003B0F0BD07F0F5FA00286A
:10848000C9D003B0F0BD07207047094A0948002150
:1084900000F056FB03B0F0BD603A00200C3A00201B
:1084A000103A0020403A0020383A0020ED800200C7
:1084B0006D810200905E080070B5084D2B785BB1AD
:1084C000074E00243368012113F8340007F010FC34
:1084D0002B780134A342F5D8002070BD0C3A00205F
:1084E000603A002000B585B000230390194601AA28
:1084F00044F20100CDE9013300F004F805B05DF865
:1085000004FB00BF10B572B6FFF784FCFFF742FC16
:108510000028FBD1104B114C1149E41AE408240443
:1085200044F00100FFF768F80E4B1B68DB0700D52D
:1085300000BE44F002000C49FFF75EF8BFF34F8F16
:108540000A490B4BCA6802F4E0621343CB60BFF3E5
:108550004F8F00BFFDE700BF500E0900700E0900ED
:10856000A05E0800F0ED00E0AC5E080000ED00E069
:108570000400FA05F0B412F0030412D14B1CDB0026
:108580000A4D0B4E0B4F34709BB213442B600A4EB6
:108590000A4D0B4B28803A60347019802046F0BC9D
:1085A000704707242046F0BC704700BF683A00209F
:1085B000643A00206C3A0020743A0020703A00209F
:1085C000723A00202DE9F0472D4F3B888B4282B054
:1085D0003CD3054602A84FF0000800F8018D16466E
:1085E0000C4603F02BFA274B274A284819781378B2
:1085F000B0F800C09DF80700DBB2634538BF013317
:10860000C9B238BF5FFA83F8414523D092F80080A1
:108610001378DFF88090DBB29C4586BF0133DBB274
:1086200000235FFA88F8137003F02EFAD9F80030AF
:108630000FFA88F24FEAC20A43F83260534405B198
:1086400074B90020988002B0BDE8F087092002B01C
:10865000BDE8F08703F018FA042002B0BDE8F08707
:108660000B4B38881B68294608FB003022465BF01C
:108670000EFED9F800309A440020AAF80440E2E740
:10868000703A0020743A0020643A0020723A0020C8
:10869000683A00206C3A00202DE9F84F1B4C1C4D25
:1086A00022782B789A4226D0DFF86CA0DFF86C9005
:1086B000184FDFF86CB04FF000082378DAF800208C
:1086C0003888D9F80060DBB20FFA83FE02EBCE01E6
:1086D00003FB0060898852F83E3098472378BBF846
:1086E0000010DBB25A1C9942D2B206D9227023780C
:1086F0002A789A42E1D1BDE8F88F84F80080227888
:108700002B789A42D9D1BDE8F88F00BF743A002087
:10871000643A0020703A00206C3A0020683A002049
:10872000723A0020D0E90223D1E90201994208BF40
:1087300090422CBF01200020704700BFD0E90030DC
:10874000184700BF2DE9F04F87B0029003F0C0FA40
:1087500040B1AF49D1E9002312F1807443F1000523
:10876000C1E9004500210298AA4E03F0CDFA002885
:1087700000F098803368002B00F09480A64B34689A
:108780001B7823B11CB1237F002B40F0538104AB35
:108790000393002301210298336003F0B5FA002807
:1087A00000F089809D489E4F03F0C0FA984BD3E9B2
:1087B0000045D7E9002314EB000845F1000999456D
:1087C00008BF90454046494603D218F1807049F1F0
:1087D0000001DDF80C80C7E900014146914804F032
:1087E00047FF00286FD1DFF84482DFF830A2DFF8BE
:1087F000209204E00D2800F098800023336040466A
:1088000006F0E4FB3368002800F0F0806BB13368B9
:10881000D0E90201D3E90223994208BF90423ED237
:1088200033681B7F002B40F0C580404606F0C8FB34
:108830000746D7E902235046CDE9002303F076FA34
:10884000D9E90023764C12EB000B43F1000CD4E97C
:1088500000239C4508BF93455846614603D21BF14F
:1088600080704CF10001DDE90023121A63EB010373
:108870001946012A71F1000353DB6B4DAA4200F245
:108880009E80BA684FF496030021504603F09AF98F
:108890000028AFD13368002B00F0A180376007B00B
:1088A000BDE8F08F04AB01210298039303F02CFA8A
:1088B00000287FF477AFDDF80C805A48414604F079
:1088C000D7FE00288FD00378584D534F554C012BBD
:1088D0001FD079D3022B0ED128464FF0000906F0A5
:1088E0006FFB30B180F81C90284606F069FB002829
:1088F000F8D101233B704146204604F0E7FE414693
:10890000204604F0B5FE00283FF46DAF0378012B3C
:10891000DFD141683368994265D0284606F05AFB9A
:10892000E9E70021504603F0E3F93B4B1B78002BAD
:108930003FF463AF3B7F002B3FF45FAF504603F043
:10894000F5F9D4E90023D9E90045241845F10005DB
:108950009D4208BF94422046294603D214F18070FC
:1089600045F10001D7E90223994208BF904246D35E
:108970003B69002B41D07B690493BB692C4A039867
:1089800005930821FFF71EFE00283DD13969002913
:108990003FF433AF3B7F002B3FF42FAFD7E90223E7
:1089A000541843F10005C7E902453946404606F030
:1089B000F3FA22E73168404606F0EEFA35E7504612
:1089C00003F0B4F942195DE743681A7F002A92D197
:1089D00001221A774168284606F0DEFA8BE70298F2
:1089E00003F0C2F85AE70023336084E7002B7FF4DA
:1089F00056AF029803F0BCF851E73B77BBE7394626
:108A0000404606F0C9FAF8E6FFF76CFDBEE700BF86
:108A1000803A0020003B0020883A0020F02A002005
:108A2000F83A0020E43A0020FFFFB400C05E0800DE
:108A30003D870200224803F079F9224A224BD2E90D
:108A40000089D3E9002318EB000A49F1000B9B458C
:108A500008BF92455046594603D21AF180704BF137
:108A60000001D4E90223994208BF904223D323692D
:108A700003B923776369049304A8A369134A039095
:108A800008210593FFF79EFD08B1FFF72BFD216933
:108A900000293FF47EAE237F002B3FF47AAED4E969
:108AA0000223571843F10008C4E902782146084818
:108AB00006F072FA6DE62146054806F06DFA66E6A4
:108AC000F02A0020803A0020F83A00203D8702007A
:108AD000C05E080010B5134B13491B68134882B0E1
:108AE00058220193082304F04DFD044610B120469E
:108AF00002B010BD0E4A0F4801A902F0DDFF044686
:108B00000028F4D101210B4803F0D8F801231946BD
:108B1000094A084803F030F8084B012220461A7031
:108B200002B010BDBC5E08008C3A0020E43A002080
:108B300045870200F02A0020FFFF7F00883A0020CE
:108B40004AB1A1F101010368B1FA81F14909C3E910
:108B50000412002070470720704700BF037F0BB14D
:108B6000002070472DE9F048826182B004461F481A
:108B70000D4603F0DBF81E4B1E49D3E90023D1E973
:108B8000006712EB000B43F1000CBC4508BFB34576
:108B900003D21BF1807B4CF1000C1BEB0502216919
:108BA0004CF10003C4E9022379B901A9124804F089
:108BB00023FD88B100254460057001A90E4804F02A
:108BC00047FD68B902B0BDE8F088256101A90A48EF
:108BD00004F012FD0028EDD1042002B0BDE8F088B9
:108BE000024803F0A7F82846ECE700BFF02A00206F
:108BF000803A0020F83A0020E43A002030B5002501
:108C000083B00446057701A90B4804F0F5FC78B160
:108C100001234460037001A9074804F019FD08B955
:108C200003B030BD054803F085F8284603B030BDD9
:108C3000042003B030BD00BFE43A0020F02A002039
:108C400070B582B001A9154804F0D6FC18B3144ED3
:108C5000044602AB30682060002503F8055D184625
:108C600002F0ECFE0F4B10481B88026801339B1A80
:108C7000E380294604F0ACFDA0809DF8030002F0DB
:108C800003FF01A9054804F0E3FC084B1B6813B17E
:108C900001463046984702B070BD00BFB03C00208E
:108CA000F45E0800A43B0020D03C0020083B0020DC
:108CB00070B50378052B82B005462AD0002B35D13C
:108CC000304B1C683CB1236868889B6898472368D0
:108CD0005C68002CF7D102A800232B4C00F8043D5F
:108CE00002F0ACFE236883B10121274804F0AAFDFD
:108CF0009DF8040002F0C8FE244B1B6813B12846FF
:108D000001219847236802B070BD214B6A881A8000
:108D1000EAE7204BD3F88424D3F8803413F0FF0F14
:108D200004D11D4BD2B2052A08BF1D4601A91B481C
:108D300004F062FC04460028E5D002A82B682360FA
:108D4000002600F8056D02F079FE114B0E481B88D5
:108D5000026801339B1AE380314604F039FDA0809C
:108D60009DF8030002F090FE01A90C4804F070FC8D
:108D7000064B1B68002BC6D001462846984702B018
:108D800070BD00BFC83C0020D03C0020083B002044
:108D9000A43B002000700240F05E0800B03C0020C0
:108DA00070B5012882B035D009D3022830D101A98D
:108DB0001D4804F021FC044650B31C4E06E001A9F6
:108DC000194804F019FC044610B3194E30682060AD
:108DD00002AB002503F8055D184602F02FFE154B87
:108DE00015481B88026801339B1AE380294604F06A
:108DF000EFFCA0809DF8030002F046FE01A90A489E
:108E000004F026FC0D4B1B6813B101463046984711
:108E100002B070BD01A9044804F0EEFB044600282E
:108E2000F6D0074ED2E700BFB03C0020EC5E080051
:108E3000E45E0800A43B0020D03C0020083B00205A
:108E4000E85E08002DE9F04F87B006AF0026044623
:108E5000894692469B4647F8106D00E001366268ED
:108E600001235568214600223846A8470028F5D13D
:108E70008DF80600049066B3804605460AE09DF82A
:108E800006306768023B7F68B8479DF806301D448E
:108E9000AE421ED962680123576821460DF10602D1
:108EA00004A8B84762680123576821460DF10702FC
:108EB00004A8B8479DF807304B454FF00002214603
:108EC00004A8DCD1C24508D008F101085FFA88F88F
:108ED000D5E7052007B0BDE8F08F109A9DF8063061
:108EE00013608BF800308BF801906168023B4D688D
:108EF0000BF102022146A8470020EBE72DE9F041E3
:108F0000082382B005464FF484723949394804F089
:108F100039FB40B9384808F089FC044640B1204686
:108F200002B0BDE8F0810324204602B0BDE8F08124
:108F3000324A3349334B14700C6048222146324880
:108F40001C605BF0C8F92146482230485BF0C3F949
:108F5000002D45D095E807002D4B83E80700002041
:108F600006F04AFC08B185283FD12A4D274F2B7ABD
:108F70006E68DFF894C005F109044FF0030E1EFB84
:108F8000034E74451FD0F4B16378CBB1A278A21818
:108F900016D003F1FF38114652FA88F8013A01E081
:108FA00001310DD012F8010F00F00F03DB000006B5
:108FB0004CBF6344DB1990451D6030685860EFD1A9
:108FC00003347445DFD102A90B2301F8043D114895
:108FD0003368984704460028A1D008F0BBFC9EE700
:108FE0000B4BC3E900551D72B9E7FFF77BFABCE7ED
:108FF000A83B0020B03C0020B18C0200D43C0020F3
:10900000C03C0020C43C0020143B00205C3B0020FE
:10901000083B0020345F080008B506F057FC08F054
:1090200099FC18490B6833B100201A68086013686E
:109030001146002BF9D1144B1A683AB1002112687D
:109040001960134653F8042F002AF8D10F4B1A6801
:109050003AB1002112681960134653F8042F002A10
:10906000F8D1482200210A485BF035F94822002156
:1090700008485BF030F90C22002107485BF02BF91F
:10908000002008BDC03C0020C43C0020C83C00209B
:10909000143B00205C3B0020083B002010B508F08A
:1090A00085FD40B108F08AFD044620B9054806F068
:1090B000BDFB10B910BD082010BDFFF713FA204604
:1090C00010BD00BFE05E080008F04EBC09F090BD86
:1090D0004FF0804303E0D3F83824D10730D5D3F8DC
:1090E00038249207F7D570B582B001A9154804F06D
:1090F00083FA044610B3144E02AB3068206000259A
:1091000003F8055D184602F099FC104B10481B88C7
:10911000026801339B1AE380294604F059FBA080C2
:109120009DF8030002F0B0FC01A9064804F090FA93
:10913000084B1B6813B101463046984702B070BD1A
:10914000704700BFB03C0020F85E0800A43B002040
:10915000D03C0020083B002030B583B0822301A919
:1091600015488DF8003004F047FA10B3044602ABFE
:1091700000982060002503F8055D184602F05EFCAB
:109180000E4B0F481B88026801339B1AE380294667
:1091900004F01EFBA0809DF8030002F075FC01A9FD
:1091A000054804F055FA074B1B6813B101466846A1
:1091B000984703B030BD00BFB03C0020A43B002066
:1091C000D03C0020083B00202DE9F04F037881B00F
:1091D0008246852B00F2B980DFE813F03A028B015A
:1091E000BA00ED015602D800E000B700FB000E0106
:1091F0002101B700B700B700B7003401B700B700CE
:10920000B700B700B700B700B700B700B700B700A6
:10921000B700B700B700B700B700B700B700B70096
:10922000B700B700B700B700B700B700B700B70086
:10923000B700B700B700B700B700B700B700B70076
:10924000B700B700B700B700B700B700B700B70066
:10925000B700B700B700B700B700B700B700B70056
:10926000B700B700B700B700B700B700B700B70046
:10927000B700B700B700B700B700B700B700B70036
:10928000B700B700B700B700B700B700B700B70026
:10929000B700B700B700B700B700B700B700B70016
:1092A000B700B700B700B700B700B700B700B70006
:1092B000B700B700B700B700B700B700B700B700F6
:1092C000B700B700B700B700B700B700B700B700E6
:1092D000B700B700B700B700B700B7004801860075
:1092E00057011C02D001D8009C4BDFF888929C49A2
:1092F000D3E900029047D9F80040002C40F09A8250
:10930000DFF86CA2DAF80430002B40F0A28201F002
:10931000F5FF944B1B68002B00F00B830120924D4E
:1093200008F00EFC2A78931EDBB2062B0BD88F496F
:10933000CB5C13B106F0C4F92A78022A00F0F3825C
:10934000082A00F0F08201232B7001B0BDE8F08FF5
:10935000854D2A78931EDBB2062B0BD88349CB5C54
:1093600013B106F0ADF92A78022A01D0082A01D1FA
:1093700008F07CFC7E4B5B6803222A700BB1022054
:1093800098477C4B1C68002C40F0AE81734BD3E9AE
:109390000002514601B0BDE8F04F1047827802F05C
:1093A0000F0312064CBF744A6C4ADB001344D3E926
:1093B0000002514690470028C7D09AF8020000F0FA
:1093C0000F03013B062BC0D801B0BDE8F04F08F0F9
:1093D00065BD674B5B680BB108209847654B1C68FF
:1093E000002CB2D0636820461B685146984723681A
:1093F0001C68002CF6D1A8E75D4B5B680BB1092017
:1094000098475C4B1C68002C9FD0636820461B6803
:109410005146984723681C68002CF6D195E7544BB9
:109420005B680BB10A209847524B1C68002C8CD00B
:10943000636820461B685146984723681C68002CC7
:10944000F6D182E74A4B5B680BB10F209847494B36
:109450001C68002C3FF479AF636820461B685146B6
:10946000984723681C68002CF6D16EE73E4D2B7898
:10947000062B00F02B82072B02D0052B7FF465AF63
:1094800008F0FEFB02232B705FE7DFF8E890D9F8C5
:109490000070002F00F0408197F808A0BAF1000F8B
:1094A00000F035814FF00008444607F109057B685C
:1094B000DB6813B12146384698473B7AA34240F215
:1094C000A3816E78002E00F01981002423463246D5
:1094D0000AE0AB782A190134D05C09F011F9E3B243
:1094E0009E4240F20B816A789A42F2D800231B78A0
:1094F000FFDEDFF88090D9F80070002F00F0578170
:1095000097F808B0BBF1000F00F04C814FF0000855
:10951000444607F109057B68DB6813B121463846EC
:1095200098473B7AA34240F26F816E78002E00F09C
:1095300030810024234632460AE0AB782A190134F0
:10954000D05C09F0DDF8E3B29E4240F222816A78F5
:109550009A42F2D800231B78FFDE00BF5C3B00205C
:10956000FC5E0800C43C0020D43C0020D85E08000B
:10957000083B0020C03C0020143B0020A44D2B7869
:10958000032B00F0A88108F031FB00283FF4DDAE8A
:109590002B789A1ED2B2062A40F2DD819D4806F051
:1095A00053F82B78022B00F0CD81082B00F0CA81F4
:1095B00006232B70C9E6964D2B78082B00F07E8190
:1095C0009A1ED2B2062A40F2B781924806F03CF8C1
:1095D0002B78022B00F0AA81082B00F0A78105232D
:1095E0002B708D4B5B680BB1032098478B4B51461A
:1095F000D3E9000290478A4B1C68002C3FF4A5AECB
:10960000636820461B685146984723681C68002CF5
:10961000F6D19AE67E4D2B78032B7FF496AE09F0B7
:1096200003FA00283FF491AE2B789A1ED2B2062A94
:109630000BD87C498A5C12B106F042F82B78022BD9
:1096400000F09281082B00F08F8104232B707CE6C0
:109650006F4B1B78032B00F05581082B00F05281D3
:109660006D4B5B680BB1002098476F4B1C68002C5A
:109670003FF46BAE636820461B68514698472368E9
:109680005C68002CF6D160E6634B5B680BB103208D
:109690009847624B6549D3E900029047604B1C68CC
:1096A0004CB1624D636820461B6829469847236881
:1096B0001C68002CF6D1564D2B78062B00F0038148
:1096C000082B0ED09A1ED2B2062A40F23E81514893
:1096D00005F0BAFF2B78022B03D0082B01D008F03D
:1096E000CFFA02232B7030E6636820461B68514690
:1096F000984723681C68002CF6D147E608F101085A
:109700005FFA88F4A24505F103053FF6D0AE3B6849
:109710001F68002F7FF4C0AE3D4D09F0B1F82A78E4
:10972000931EDBB2062B0BD83E49CB5C13B105F080
:10973000C7FF2A78022A01D0082A01D108F096FA38
:10974000D9F8004000232B704CB1394E6368204695
:109750001B683146984723681C68002CF6D12F4BB4
:109760003349D3E9000290472B4B5B680BB10E20C5
:1097700098472B78023BDBB2062B3FF6E6AD294A31
:10978000D35C002B3FF4E1AD01B0BDE8F04F05F034
:1097900097BF08F101085FFA88F45C4505F10305FD
:1097A000FFF4B9AE3B681F68002F7FF4A9AE184DD7
:1097B00001F09AFD2A78931EDBB2062B79D819495D
:1097C000CB5C002B75D0022A03D0082A01D008F008
:1097D00057FA114B5B6802222A700BB1012098479F
:1097E0000E4B5146D3E900029047D9F80040002CB7
:1097F0003FF4ABAD636820461B6851469847236829
:109800001C68002CF6D1A0E500235B78FFDE00BFCA
:10981000D43C0020F82A0020083B00205C3B0020BC
:10982000C03C0020D85E0800C43C0020085F08004F
:10983000005F08004E4D636820461B682946984724
:1098400023681C68002CF6D1DFF834A1DAF8043064
:109850000BB10D209847D9F80070002F3FF457AD99
:1098600097F80890B9F1000F58D04FF0000844461F
:1098700007F109057B68DB6813B121463846984734
:109880003B7AA342C0D96E78002E3FD000242346F5
:10989000324609E0AB782A190134D05C08F030FF79
:1098A000E3B29E4232D96A789A42F3D800231B78F9
:1098B000FFDE304805F0C8FE2A7884E702232B70CB
:1098C00008F0E8F98DE607232B703EE508F0D8F99B
:1098D00008232B7039E509F0A7F800283FF453AEB0
:1098E0002B789A1ED2B2062A09D823498A5C12B173
:1098F00005F0E6FE2B78022B33D0082B31D0042361
:109900002B7040E61D48FFF75FFCA9E608F101084F
:109910005FFA88F4A14505F10305ABD83B681F68E1
:10992000002F9DD1F3E408F0A1F90CE508F09EF9B1
:1099300055E69AF80800F2E40F498A5C002A7FF4A1
:1099400048AE42E608F092F932E60B498A5C002AFA
:109950007FF4C1AEBBE608498A5C002A7FF422AEE0
:109960001CE608F083F9CAE708F080F96DE600BF4D
:10997000FC5E0800F82A0020D85E0800045F08009A
:10998000083B002070B5294E82B034680023019353
:109990000CB3A588A5B1E388B3F5006F3ABF5A1C94
:1099A00092B2012205F1FF3528BF002301A8A5804E
:1099B000E280ADF80630FFF707FC012002B070BD71
:1099C0002046FFF701FC1A491A4803F07FFE0120E8
:1099D000356002B070BD1649164803F049FE0446D2
:1099E00030600028D5D1144B18680028E6D002A8B2
:1099F000124D00F8054D02F021F82B880E48B3F502
:109A0000006F39BF5A1C92B22346012201212A80DD
:109A1000ADF8063003F02EFF9DF8030002F034F895
:109A200001A8FFF7D1FB012002B070BDD83C002097
:109A3000043B0020B03C0020D03C0020A43B002090
:109A40002DE9F041067A374FDFF8E0C000F1090454
:109A50004FF0030E1EFB064E21468E4582B01AD0F3
:109A6000D1B14D78002211E08B781344D9420FD048
:109A700011F8038008F00F03DB0018F0800F14BF0B
:109A80006344DB1901321B68002B46D19542EBD1B0
:109A900003318E45E4D10021CDB2B542214FDFF82C
:109AA0008CC028D205EB4505651924D06B78F3B13D
:109AB000AB78EB1818BF4FF0010E05D117E0AB786B
:109AC0007344EB1812D096461B7803F00F02D200B5
:109AD0001B064CBF6244D219106043681E68566072
:109AE0006E780EF101037645DAB2E8D8067A0131D4
:109AF000CDB2B542D6D30C4A13681BB11A681368AD
:109B0000002BFBD102A910600B2201F8042D436841
:109B10001B68984702B0BDE8F081112002B0BDE893
:109B2000F08100BF5C3B0020C03C0020143B0020C3
:109B30002DE9F041444F454E3C68454D82B04FF011
:109B40000C08002C7BD002A9636801F8048D204624
:109B50001B689847002873D123681B683B60236803
:109B6000186033689C42B36808BFC6E900009C4295
:109B700004BF0023C6E9023333699C4204BF0023BB
:109B8000C6E90433B3699C4204BF0023C6E9063327
:109B9000336A9C4204BF0023C6E90833B36A9C427F
:109BA00004BF0023C6E90A33336B9C4204BF002381
:109BB000C6E90C33B36B9C4204BF0023C6E90E33E5
:109BC000336C9C4204BF0023C6E910332B689C42CF
:109BD00004BF0023C5E90033AB689C4204BF0023E7
:109BE000C5E902332B699C4204BF0023C5E9043355
:109BF000AB699C4204BF0023C5E906332B6A9C4233
:109C000004BF0023C5E90833AB6A9C4204BF0023AC
:109C1000C5E90A332B6B9C4204BF0023C5E90C3312
:109C2000AB6B9C4204BF0023C5E90E332B6C9C42F6
:109C30003C6804BF0023C5E91033002C83D12046C3
:109C400002B0BDE8F08100BFC03C0020143B002002
:109C50005C3B0020024B1878003018BF0120704791
:109C6000CC3C002000F00F03072B10B5044604D8AD
:109C700008F0A6F9204608F01DF92046BDE810407E
:109C800008F056BC08F03CBD014B1868704700BF97
:109C9000C03C002070B4114B1E68A6B1357A75B176
:109CA000737A834206F1090210D0002303E012F810
:109CB000034F84420BD00133DBB29D42F7D13368AE
:109CC0001E68002EEAD1304670BC70470023002980
:109CD000F9D030460B7070BC704700BFC03C00200C
:109CE000436811461B68184700F00F03082B0AD879
:109CF00002064CBF054A064ADB001344186810B13F
:109D000043681B6818471020704700BF143B0020B1
:109D10005C3B002038B5094B1C6864B1054602E085
:109D200023681C683CB1636829461B682046984735
:109D30000628F5D038BD062038BD00BFC03C002045
:109D400038B50D46044607F0BBFF18B1054B1B782C
:109D5000022B01D0082038BD29462046BDE83840F6
:109D600007F0BEBFD43C002038B50D46044607F0CE
:109D7000A7FF18B1054B1B78022B01D0082038BD76
:109D800029462046BDE8384008F034B8D43C0020CD
:109D9000F8B543689B6805460C4616461BB19847C4
:109DA000062800D0F8BD86BB2B7AA3421DD9093501
:109DB00004EB44042C4467782FB3354633463A46C7
:109DC0000EE0A3786219D65C06F00F03072B30462D
:109DD0000DD9013508F0ACFBEBB29F4213D9627884
:109DE0009342EED300231B78FFDE7378FFDE08F08A
:109DF000E7F8304608F05EF80135304608F098FB89
:109E0000EBB2BB42EBD30020F8BD0720F8BD00BF8A
:109E100043681B6903B11847184670472DE9F0479E
:109E2000304BD3F80090B9F1000F59D099F808A041
:109E3000BAF1000F4DD04FF00008444609F1090572
:109E400007E008F101085FFA88F4A24505F103056F
:109E50003FD9D9F804309B682BB1002221464846EF
:109E600098470628EDD199F80830A34202D800237C
:109E70005B78FFDE6F78002FE3D0002423463A465C
:109E80000EE0AB782A19D65C06F00F03072B30469C
:109E90000BD9013408F04CFBE3B29F42D1D96A7868
:109EA0009342EED300231B78FFDE08F089F830469A
:109EB00008F000F80134304608F03AFBE3B29F4264
:109EC000EDD808F101085FFA88F4A24505F1030511
:109ED000BFD8D9F80030D3F80090B9F1000FA5D160
:109EE000BDE8F087C03C00202DE9F8431E4B1F68F9
:109EF000002F33D097F80890B9F1000F2AD04FF017
:109F00000008444607F109057B68DB6813B1214668
:109F1000384698473B7AA34222D96E7896B10024FE
:109F20002346324609E0AB782A190134D05C08F0A8
:109F3000E7FBE3B29E4205D96A789342F3D300234C
:109F40001B78FFDE08F101085FFA88F4A14505F1EE
:109F50000305D9D83B681F68002FCBD1BDE8F88333
:109F600000235B78FFDE00BFC03C00204360CA696D
:109F70009A4205D201F1280202608B6700207047E7
:109F80008A6902600B67CB61002070472DE9F041C0
:109F90000468D04E0D7A3570B4F5487F00F089839F
:109FA0002ED940F23235AC4200F0858400F2C980EF
:109FB000B4F54A7F00F0688440F2458140F22D35C7
:109FC000AC4200F0258400F26E8240F22B35AC42A8
:109FD00000F05683B4F54B7F40F0E8820124002561
:109FE000002A00F0318507795755A3424FF002054A
:109FF000057100F28B8540F22D3303600120C7E12B
:10A0000040F20237BC4200F0228448D840F2F227E6
:10A01000BC4200F0458340F2678140F2F527BC4224
:10A0200000F0188400F2FE8140F2F327BC4200F0F9
:10A03000D583B4F53D7F40F0B982002A00F0208638
:10A0400090F804E001244FF0000C0027A34202F82E
:10A050000CE0077140F23F8402EB040C01348CF8F1
:10A060000070DFF87CC200278CF80070AF4280F0EF
:10A07000B0830925A342057140F24085671C002A80
:10A0800000F06D8505791555BB424FF0040404714D
:10A0900000F2BF8540F2FD230360012078E140F229
:10A0A0000F35AC4200F0C383B4F5447FC0F081802B
:10A0B000B4F5467F00F0D38340F2998240F21E351A
:10A0C000AC4200F06B8200F24B8340F21D35AC4293
:10A0D00040F06C8201250024002A00F07984077981
:10A0E00017559D424FF02404047180F05684274692
:10A0F00005F1010E002473455755047140F2438465
:10A1000025460EF1010C1024634502F80E5004712F
:10A1100040F2208425460CF101070124BB4202F8DD
:10A120000C50047140F20784254607EB040C05240B
:10A130006345D555047140F2F98325460CF10107BA
:10A1400098E040F24E35AC4200F0A68340F2018127
:10A1500040F25F35AC4200F01F83B4F5587FC0F089
:10A16000568240F26535AC4200F0108240F26A350A
:10A17000AC4200F00B82B4F5587F40F01782002A01
:10A1800040F090850124544D0F7D2D682D78AF420D
:10A1900000F0F0838F7DAF4200F09D84DFF844C172
:10A1A0004E4F9CF800503F780135EDB28CF80050CE
:10A1B0003CE0B4F5427F00F08B8200F2988140F2DF
:10A1C0000335AC4200F05282B4F5417F40F0EE819D
:10A1D000414C2768002A00F07185047996460125D4
:10A1E0008EF800403C780F7DA74200F0E3838F7D1E
:10A1F000A74200F0BC840024AB42047140F2F2811B
:10A200006C1C0AB107795755334D91F814C02D686D
:10A210002F78BC4500F01982DFF8C0E0DFF8C4C039
:10A220006F788EF8007000258CF80050BD42C0F0A9
:10A23000C181DFF8ACC035789CF800700137FFB2FF
:10A240008CF8007012E740F22535AC4200F04D83E7
:10A2500000F25E8140F22135AC4200F00383B4F598
:10A26000497F40F0A381002A00F00285057901278B
:10A270004FF0000C2424BB4202F80C50047140F251
:10A280004B8307F1010E01257345D455057140F24A
:10A2900034830EEB050C0324634502F80E50047161
:10A2A00040F230830CF1010702F80C40BB4291F8F8
:10A2B00016C080F804C040F2DD827D1C0424AB424D
:10A2C00002F807C0047100F2268440F22B330360C9
:10A2D00001205DE0DE3C0020E03C0020DC3C002072
:10A2E000DD3C0020DF3C002040F2EF27BC4200F0C4
:10A2F0000882B4F53C7F80F01C81002C00F077824E
:10A3000040F2EE27BC4240F05181002A00F0368432
:10A3100004791470012B4FF00B04047140F20A848D
:10A320004FF0030C02274FF0010E02F80E40BB4223
:10A3300091F814E080F804E040F2078302246345BA
:10A3400002F807E0047140F2FB8227460CF1010895
:10A35000FDE040F23535AC4200F00B821AD840F2F5
:10A360003335AC4200F0DA81B4F54D7F40F01E8108
:10A3700001240025002A00F08B8307795755A3425A
:10A380008D7D057100F2BF8340F2353303600120FB
:10A39000BDE8F08140F24935AC4200F0178240F24E
:10A3A0004A35AC4240F00281002A00F08E840579E3
:10A3B000944601248CF80050C24FC34D3F682D785D
:10A3C00097F801C0AC4540F20A8197F802C03D44BD
:10A3D000A34215F80C50057140F24381651C1AB177
:10A3E00090F804C002F804C03C780F7DA74200F04A
:10A3F000D9828F7DA74200F0A8834024AB4204712C
:10A4000040F219816C1C002A00F0AE820779575582
:10A41000A3424FF00005057140F212811719013473
:10A420003D70B0E6B4F53F7F00F0758140F2FD2746
:10A43000BC4240F0BB80002A00F03D840479154600
:10A4400001272C700D7AA14C2478AC4280F0EE806C
:10A4500004EB440501F10904DFF868C214F805E0D3
:10A4600080F804E02C44BB42CCF8004040F29082DB
:10A470007C1C002A00F01B830579D555A3424FF0C0
:10A480000005057140F26B828E4F3F6804F1010CAC
:10A49000155563457C78047100F251834FF4417384
:10A4A0000360012074E740F22E35AC4200F07C815D
:10A4B00040F23135AC4279D1002A00F004840779AA
:10A4C000944601252424AB428CF80070047140F2BC
:10A4D000668127466C1C5755A3424FF0060505714F
:10A4E00000F2238340F233330360012050E740F24F
:10A4F0000935AC4200F0858140F20A35AC4255D1B5
:10A50000002A00F0D583174604793C70012572E6D5
:10A5100040F22635AC4200F0D58140F22735AC42FE
:10A5200044D1002A00F09983047901274FF0000CF0
:10A53000BAE600F0288140F2F127BC4236D1002A69
:10A5400000F0A08307794FF001084FF0000C0224BF
:10A55000434502F80C70047140F2E381274608F18C
:10A56000010E0224734502F80870047140F2CF8195
:10A570000EF1010C02F80E40634591F819E080F8E5
:10A5800004E040F2AD810CF101045EE501240025F8
:10A59000002A3FF403AE07795755FFE5002A00F083
:10A5A0005A8307794FF0010E0025A3E500230360CD
:10A5B0001846EDE60725A34205714DD9671C002A10
:10A5C00000F0FF8105791555BB424FF00505057177
:10A5D00000F2908240F24A3303600120D8E6002363
:10A5E0001B78FFDE4FF4467303600120D0E6B4F51C
:10A5F000447F00F0A28040F21135AC42D6D1002A4F
:10A6000000F056831446077927700125F3E540F2E0
:10A610005335AC4202D0B4F5567FC7D10125002492
:10A62000002A3FF4EAAE07791755E6E6254A0023EB
:10A6300013601B78FFDE40F25F3303600120A7E662
:10A640004FF4587303600120A2E605259C42057172
:10A6500080F04B82651C3FE540F2493303600120E6
:10A6600096E640F24E330360012091E6154C2768D0
:10A67000002A00F0EE8205794FF0010C002407E774
:10A68000002A00F027830779944601252424AB4251
:10A690008CF80070047140F2048127466C1CA3E41E
:10A6A000002A00F0D48207794FF0010E4FF0000825
:10A6B00057E7002A00F0E882057901274FF0000CE7
:10A6C0002BE500BFE03C0020DF3C0020DD3C00200B
:10A6D00001240025002A00F0838207795755A34200
:10A6E0004FF00207077140F2DD81651C1755AB4240
:10A6F0004C7E047100F26F8240F20A330360012045
:10A7000046E6002A00F0B18204794FF0020C0127DE
:10A710004FF0000E09E601270024B0E4002A00F003
:10A72000D7820779944601258CF800700F7D077158
:10A73000AB4240F2A4806C1C20E6002A00F0938219
:10A7400090F804C0012500240027AB4202F804C0A1
:10A75000077100F2538240F211330360012017E6C3
:10A76000002A00F08B8205794FF0010C4FF0000EAB
:10A77000C9E4002A00F0A5820579174601243D703E
:10A78000C74D2D6848E5002A00F0698290F804E082
:10A790004FF0010C0027D1E50124002533E640F2FB
:10A7A000323303600120F3E501240025002A00F084
:10A7B000578107795755A3424FF00505057100F2FF
:10A7C000AF8140F2313303600120E1E5012700242D
:10A7D000F5E640F2753303600120D9E5002A00F068
:10A7E000558204794FF0010C4FF0000EC2E60824A8
:10A7F0000471002B7FF489AD40F2EE230360012049
:10A80000C6E5002A00F038820779012500246DE7AB
:10A81000002A00F061820779944601250224AB42A8
:10A820008CF80070047141D927466C1CC2E70124E2
:10A830000025002A00F0F081077957554FF0000CF1
:10A840009C4280F804C080F04181651C7CE70124B3
:10A8500000270EE6002A40F0E981012401E40124EA
:10A860000025CEE4002A00F0058205794FF0010CA6
:10A8700000275CE44FF44A730360012088E54FF43D
:10A880004D730360012083E5002A00F0018290F8F7
:10A8900004C00125002711E5814C0125276800240B
:10A8A0009DE54FF44B730360012071E540F22E33B8
:10A8B000036001206CE501240025002A00F0DC8003
:10A8C000077908E6002A00F0CC8105794FF0010CE9
:10A8D0004FF0000EDFE440F2F5230360012057E55E
:10A8E0004FF43D730360012052E5002A00F0D2814D
:10A8F00004794FF0010E0027C5E440F226330360CF
:10A90000012045E540F227330360012040E540F295
:10A91000F323036001203BE540F22533036001206F
:10A9200036E540F2F2230360012031E54FF449732C
:10A93000036001202CE540F221330360012027E56C
:10A9400040F2F1230360012022E54FF43C730360E1
:10A9500001201DE54FF448730360012018E540F223
:10A9600003330360012013E5A34202717FF668AE52
:10A97000013408E40D6AA3422D78057140F2438149
:10A980002546013404E640F21F3303600120FFE452
:10A9900040F2023303600120FAE440F21E33036008
:10A9A0000120F5E40324AB42047140F244812C46BB
:10A9B000013535E60224AB42047140F242816C1C41
:10A9C00088E60524BB4204717FF604AE7C1CF3E4E8
:10A9D00024249D420471E0D26C1C0025A342057121
:10A9E000D1D901341025A3420571B3D90134012511
:10A9F000A34205719FD92C440525A342057195D921
:10AA000001342425A342057186D901340125A342CE
:10AA100005717FF672AF2C440325A34205717FF6C2
:10AA200071AF01348D7D0571A3427FF623AF0134F0
:10AA30000425A34205717FF648AC651C24279D427E
:10AA40000771BFF42EAF023402259C420571BFF49A
:10AA5000D2AA651C02279D420771BFF427AF3C4470
:10AA60000525A34205717FF6ACAE651C24279D42E7
:10AA70000771BFF494AE02340625A34205717FF638
:10AA800031AD0D7D0571651C9D42BFF4F8AE0234F9
:10AA90008D7D0571A3427FF677AC013470E600BF6F
:10AAA000E03C002040F209330360012070E4A3423F
:10AAB00002717FF654AF894D2F6801347D7805719E
:10AAC000A3427FF6EBAC651CFFF78CBB4FF44473DD
:10AAD000036001205CE40025A34205713FF650AFFE
:10AAE00040F26A330360012052E440F21D330360F8
:10AAF00001204DE402EB070C7C1C5BE44FF43F7338
:10AB00000360012044E41719013438E62F4602EBB4
:10AB1000040C651C82E602EB050C27460135B5E501
:10AB20002F4602EB040C651CCCE42F4602EB040C10
:10AB3000651CF9E540F2EF230360012028E402EBF5
:10AB40000C0E0CF10105FFF74BBB0224AB42047164
:10AB50003FF62DAF4FF456730360012018E4042430
:10AB6000BB4204717FF696AA01370D7A6BE40A2482
:10AB7000AB42047140F290806C1C5AE60B24012B0E
:10AB80000471D7D90324022791F814C080F804C0B7
:10AB9000BB427FF6DAAE0227A34207717FF6D0AE42
:10ABA00001340227A34207717FF6BBAE01340227AE
:10ABB000A34207717FF6ABAE01344F7E0771A3420B
:10ABC0007FF68EAE01340027A34207717FF683AE75
:10ABD0000134FFF746BA571901353C70FFF70BBB3C
:10ABE0000225A34205717FF65DAF01344D7E0571EC
:10ABF000A3427FF681AD651CFFF7FDBA54190135FC
:10AC00002770FFF7F8BA40F2653303600120FFF7C1
:10AC1000BFBBD519013714E49C420271BFF456AF93
:10AC200001340025A3420571E5D894E507799446DF
:10AC30000124FFF714BA40F2533303600120FFF7F9
:10AC4000A7BB4FF4427303600120FFF7A1BB0124AF
:10AC5000ADE7012432E70124BFE60124E2E6012446
:10AC600099E70124D8E60124DBE7022401278BE7DA
:10AC70000124C6E60124BFE60124B7E70124B1E6BA
:10AC80000124A0E701248CE70124B0E6012494E725
:10AC90000124CDE60124B9E640F20F330360012020
:10ACA000FFF776BB174605793D700124FFF76BBAB5
:10ACB0000125FFF7A0BA0127FFF7C5BB0125FFF764
:10ACC00091BA01245CE51446CFE60124FFF774BB7A
:10ACD0000024D6E60024B0E61446BAE6E03C0020A4
:10ACE0004360CA699A4205D201F12802026000203D
:10ACF0008B6770478A6910B40260C8698C690A6FF3
:10AD0000C01A1C441A44C86100308C6118BF01206D
:10AD10000A675DF8044B704780B90B681A7B202ADC
:10AD20000AD110B50722044603F10E0103F1180001
:10AD300059F0ADFA204610BD062070470320704739
:10AD40002DE9F0430B7889B00E4605460E2B22D82C
:10AD5000DFE803F01C0C1C1C21264B212108211CC0
:10AD60001C1C1C00C3690BB1032198472B680024ED
:10AD7000C3E91E44C3E9204403F134025A671C842A
:10AD80005C62DC62204609B0BDE8F0830024204606
:10AD900009B0BDE8F0830624204609B0BDE8F08381
:10ADA0004B78D9094FEA531239D1012AF3D1B3783C
:10ADB0000768202B78D0222BEDD1B6F80740002C65
:10ADC000E9D1B6F8033097F820203B8402F0010265
:10ADD00003F001039A42D9D0C269002B00F013811D
:10ADE000002AD3D002219047CCE7037A897893B127
:10ADF000827A09308AB1EA7A825C8A42C6D00A062F
:10AE0000F47800F19980012CC0D01BD3032CBDD065
:10AE10000324B7E700235B78FFDE1378FFDE12F030
:10AE2000030267D0012AB6D1B378212BB3D1B6F88B
:10AE30000720072AAFD10168701C183100F068FAAA
:10AE400004469FE72E68012B06F10C00E2D96A7BCD
:10AE5000012A05F10C0375D98B49AA7BCDE90510B0
:10AE60001344B26A93F80190002A76D1F16FF36A25
:10AE7000B267C6E91F21002B00F0C28006F12C0347
:10AE800093E8030006F1240383E803004846F262D6
:10AE900005A9FEF769FF0446EB69002B3FF472AF8A
:10AEA0002846002198476DE7B6F80720072A7FF467
:10AEB00072AF3B73B6F8073008A80024DBB27B738F
:10AEC00000F8154D0E37CDE90573079400F0B6FD77
:10AED000204605A9FEF734FF044630B96B4B0495B4
:10AEE00003A9039300F032FD04469DF80B0000F027
:10AEF000CBFD47E703F01F03012B7FF44CAFB47881
:10AF0000062C7FF448AF05A8039200F033FD0DF145
:10AF10000C0C0746F2783179CDF800C028463B4644
:10AF2000FDF790FF05283FF42DAF3946701C039ABA
:10AF300000F0EEF9044625E73CB1032C0CBF0024D9
:10AF400003241FE700231B78FFDEEB69002B3FF48F
:10AF50001DAF28460121984714E7D6F88440706A4F
:10AF600006F1340CA24228BF22466146904667464D
:10AF700059F08DF9F26FF16AA4EB080307EB080CA6
:10AF800042440020C6E91DC3C6E91F02002961D062
:10AF900006F12C0797E8030006F124044FF000089F
:10AFA00084E80300C6F82C80002B55D0B26A934287
:10AFB0000ED25AE097E8030084E80300B36FC6F8A6
:10AFC0002C80002B48D0B26AD6F874C09A424CD874
:10AFD0006146706A59F05BF9D6E91D32B16AC6F86C
:10AFE00080100B44521AC6E91D32EB6913B10021DF
:10AFF00028469847F36A002BDCD1736200244BE7A4
:10B000000024746248E70AB1032190472B7A012B90
:10B010007FF600AF6B7B05F10C04002B93D0AB7B6C
:10B02000E05C07F0DDFA2B7A012B7FF6F3AE6B7B49
:10B03000012B87D9AB7B1C44607807F0D1FA002440
:10B0400007F134037C62FC62C7E91E44C7E920446F
:10B050007B6797E60023D0E7736A002BCED0484683
:10B0600005A9FEF781FE044616E71A466146706A96
:10B0700059F00DF9D6E90932B16FF167521A0B4454
:10B08000C6E90932E9E700BFE1AC020019AD0200F0
:10B0900003681B8CDB071CD5037A012B16D910B56E
:10B0A000437B84B000F10C040BB91B78FFDE0B4628
:10B0B000817B605C91060CBF0124002401A9CDE9CD
:10B0C00001320394FEF73CFE04B010BD00235B7810
:10B0D000FFDE0820704700BF0368D3F88000704788
:10B0E00030B50468238CDB0783B034D5A56FDDB998
:10B0F000636A002B32D1C4E90912027A012A28D9E5
:10B10000417B012900F10C0221D9837B1549009173
:10B1100013440C34587801946946FEF725FE002844
:10B1200008BF922003B030BD954228BF15462A467D
:10B130000846616F59F0ABF8D4E91D320020521B6C
:10B140002B44C4F88050C4E91D3203B030BD1B78D5
:10B15000FFDE5B78FFDE082003B030BD112003B0B6
:10B1600030BD00BF6D9F0200F0B583B002AB00247C
:10B1700003F8014D07680D461846164600F05EFCC0
:10B180006B1E012B0CD83B8C9DF807002B4214BF83
:10B1900001232346336000F077FC204603B0F0BD66
:10B1A0009DF8070000F070FC0624204603B0F0BDB7
:10B1B000002070472DE9F04F4B6885B0002B75D00B
:10B1C0000D461446CDE9000206F064FEEE68A64284
:10B1D00028BF26468246002E00F081804FF00009ED
:10B1E0004A46CB464FF0010814E00AEB0200224623
:10B1F00059F04DF8D5E902321B1B141BC5F804B0F9
:10B20000C5E902342BB3002C08BF4FF000083A46C2
:10B21000002E38D0D5E90113B3421C4628BF34466E
:10B22000361BA7180029E0D193B12846524450F8A4
:10B23000101B4B68D3F804902346C847D5E9023267
:10B240001B1B141BC5E902342BB34FF00109DAE7CD
:10B25000EC68B9F1000F1ED134B32968002935D04C
:10B26000CDF808B003E0AB6829680133AB604B68E8
:10B2700000225C6802A80123A0470028F3D12861BE
:10B280003A46002EC6D1009BC3F800A05F6040463E
:10B2900005B0BDE8F08F2B681B68196829608CB970
:10B2A000A0464FF00109B2E7C846B0E70B681B683B
:10B2B0001B68002B84D18B68002B81D1C0E900333F
:10B2C0009846E4E74FF001090029C9D16960002FD1
:10B2D000D9D0019BBB4288BF4FF00008D3E7374667
:10B2E0004FF00108CFE700BF08B50020FEF7BAFC19
:10B2F0008020BDE80840FEF7B5BC00BF08B50020BF
:10B30000FEF7C0FC8020BDE80840FEF7BBBC00BFD4
:10B3100070B5C38893421D4628BF1546934284B03A
:10B320000E4622D8002204A8002300F80D3D039207
:10B33000CDE9016500F082FB01A98020FEF700FD48
:10B34000044630B19DF8030000F09EFB204604B097
:10B3500070BD06F0A7FE802813D09DF8030000F012
:10B3600093FB1024204604B070BD8020144606F0E4
:10B3700097FCB4FBF0F303FB1042B2FA82F25209DD
:10B38000D1E7064A064B92E8030083E803009DF8E4
:10B39000030000F079FB204604B070BD7C5F08001C
:10B3A000103D00202DE9F04F0B78062B87B07BD0A5
:10B3B00010D90D2B69D02AD80B2B06D00C2B2FD1EE
:10B3C000B34A1378002B40F0A0800024204607B039
:10B3D000BDE8F08F022BF8D045D9032B25D0052BE3
:10B3E0001ED10DF10D008DF80C3006F0F9FD9DF821
:10B3F0000D20A84D002102F01F032960032B00F24D
:10B400003D81DFE813F01401E300B600AF000E2B1E
:10B4100019D0852B04D19E4B1A78032A00F0308175
:10B420000624204607B0BDE8F08F9B4802F048FA9A
:10B430000028CAD0994B01221A60BFF36F8FBFF367
:10B440004F8F0024C2E7924B1A78012ABDD094494D
:10B4500094480A78012422F002021C700A70002429
:10B46000FDF7B2FEB2E7012BDAD1894B1A78032A35
:10B47000D6D08B498B480A78032422F002021C7034
:10B480000A700624FDF7A0FEA0E74FF08042804B33
:10B49000D2F838141A78C90733D5022A95D08049D2
:10B4A00080480A780224D6E7C87803280D4600F0C1
:10B4B000EC80784E3368002B00F00B810022326064
:10B4C000716898470446C8B93368002B00F0EE80D5
:10B4D000AB78002B7FF479AF06F0A8FD76E76C4CD3
:10B4E0002378043B012B00F2F6809DF80F30002BEF
:10B4F00000F06A81012B00F07881072406F0C8FD76
:10B5000064E7012A3FF461AFA1E7654C6548217803
:10B51000002321F00201217013701C46FDF754FE38
:10B5200054E7062900F01E81082900F00A81C9B9F4
:10B530005D4C0222204658F0CEFE594A23781278FC
:10B54000960743F0010148BF43F0030321700DF15A
:10B550000D0048BF237002225349FFF7D9FE04466D
:10B56000062C03D103A8FEF7D5FB0446002C7CD0A3
:10B57000C4E79DF81100040707D003A9FEF7B4FB48
:10B5800006280446F2D19DF80D2012F0600F75D107
:10B590009DF80E303E4A9DF811401278012B00F0C4
:10B5A0009C80C0F0AD80032B68D104F00F03072B03
:10B5B00064D8BDF80F10002960D1052A02D0002BF5
:10B5C00040F08980204606F069FC4EE001A99DF814
:10B5D0001100FEF75FFB0646002872D003AA9DF813
:10B5E0000410FEF77DFB06280446BFD19DF80D3000
:10B5F00013F0600F82D1264A9DF8041012789DF84E
:10B600000EC0DF0940F0C380BCF10B0F7FF476AFB2
:10B61000052A60D1BDF80F30FF2B3FF66EAF3046E4
:10B620009DF80F20FEF7B4FB0446F4B166E7C2F3C1
:10B630004114002C96D1D2099DF80E107FF471AF01
:10B6400003296FD009293FF44AAF01298AD1BDF8F7
:10B650000F30012B86D1FEF7FDFA002800F0B280F2
:10B660000F4A137823F0020313702B682BB306F0F4
:10B6700019FD044600287FF4A8AE2DE706243DE717
:10B68000074908480A780424F7E61C469EE600BFEE
:10B69000F03C0020103D0020183D00205C7002406E
:10B6A0000C3D0020445F08001C3D00209C4B1B68A3
:10B6B000082B08D006F0E2FC88E606F0DFFC002448
:10B6C00084E610241AE7974B1B68002B3FF47DAEED
:10B6D000F0E70E2412E7082410E704F00F03072B0D
:10B6E000CCD8BDF80F100029C8D1052A01D0002BF5
:10B6F000F1D1204606F064FC204606F0DBFBB4E7FF
:10B70000052A01D02007E6D1204606F037FC8649FD
:10B71000022208800DF10D00FFF7FAFD0446002C0F
:10B72000A3D0EBE6BDF80F30012B7FF41BAFFEF783
:10B7300091FA002846D07D4A137843F00203137033
:10B7400093E77B490978052939D004297FF40AAFAA
:10B75000754A14700DF10D0001227349FFF7D8FDF1
:10B760000446FDE69DF81020022A60D0032A48D046
:10B77000012A7FF4F7AEBDF81330002B9DD00DF1F8
:10B780000D0012226B49FFF7C3FD0446E8E6BCF149
:10B79000000F72D0BCF10A0F7FF4B0AE052A9AD127
:10B7A0003046FEF735FB60493A4608700DF10D0052
:10B7B000FFF7AEFD0446002C3FF457AF9EE65A4B10
:10B7C0001A70C7E70F2499E6FEF78EFB2378042B47
:10B7D0003FF44BAF554A58481378042123F0020335
:10B7E00013702170FDF7F0FC3FE7FEF717FB23789D
:10B7F000052B3FF43AAF05234F482370FDF7E4FCD7
:10B8000033E7BDF81330002B3FF457AFBDF81110EC
:10B810009DF80F0000F0DEF8014600283FF4A2AECC
:10B820000DF10D000A78FFF773FD044698E6BDF8A8
:10B830001320002A3FF441AF092A28BF092290466D
:10B84000FEF722FAA34606464FF0090A36B3CDF8B2
:10B8500004B0002700E0013772680123D2F8049099
:10B860003146002201A8C8470028F4D1337A326853
:10B8700023441668BA44DCB2E8E7052A7FF42BAF0C
:10B88000294B0DF10D0019460222A3F800C0FFF765
:10B890003FFD0446002C3FF4E8AE2FE6224E274938
:10B8A0003046424658F0F3FC3471A6F802A0FEF789
:10B8B000D1F918B1F37943F02003F371FEF7E4F9FD
:10B8C0001F4BBDF813101860002201A8D960C3E90E
:10B8D00001688DF8042000F0B1F81A498020FEF7C5
:10B8E00043FA044638B19DF8040000F0CDF8062C68
:10B8F0007FF404AE36E606F0D5FB802805D09DF82F
:10B90000040000F0C1F81024F8E50F4B93E80300A1
:10B9100085E803009DF8040000F0B6F8A5E600BF36
:10B9200030010010340100101C3D00200C3D0020AF
:10B93000F03C0020685F0800445F0800485F080092
:10B94000F43C0020945F08007C5F080038B5054691
:10B950000C4606F0A7FBA84207D194E80300044A6E
:10B9600082E803000023184638BD1023184638BD6E
:10B97000103D002008B1402303600148704700BF1C
:10B980001C3D002070B54FF0805286B0D2F8A83030
:10B99000D2F8A42000926FEA83436FEA93439BB2EC
:10B9A00002A80A4A0A4E0D2159F042F802AD0024BD
:10B9B00004E015F8013B06F8013B013402A859F0F8
:10B9C0008AF88442F5D306B070BD00BF9C5F0800C2
:10B9D000987B012068B1052823D8154B185CF8B175
:10B9E000144B10B553F82040ECB123781BB9A01CC0
:10B9F00010BD114870470020FFF7BCFF2278A2B1AC
:10BA000000230133DBB220F8132014F8012F002AA1
:10BA1000F7D101335B00DBB243F44073038010BD08
:10BA2000704700207047204610BD40F20233F5E712
:10BA300014600800FC5F0800AA5F080070B4EFF310
:10BA4000108472B60D4B9A68AAB90D490D4E0125A6
:10BA50009D60D1F8805035401D60C1F88060D1F8FC
:10BA600084505D604FF0FF33C1F88430027004B938
:10BA700062B670BC704701230370F8E7A87B012011
:10BA800000E100E0FC06FFBD094B9A687AB170B98D
:10BA900010B4EFF3108172B6064A1C6814605C683B
:10BAA0005460986001B962B65DF8044B7047704706
:10BAB000A87B012000E100E0F8B5234E4579234C36
:10BAC000234F0346234847F82520801B04EBC50677
:10BAD000C0083679000486BB1A680D88C2F808557C
:10BAE00093F904208978002A1FDB02F1604202F5F5
:10BAF00061424901C9B282F8001393F90420164F3C
:10BB00001649012602F01F05520906FA05F547F805
:10BB100022505A7904EBC20540F003002E7144F81C
:10BB20003230FBF769FD0020F8BD0D4D02F00F0229
:10BB300049011544C9B22976DFE740F002000949FE
:10BB4000FBF75AFD0820F8BD500E09005C3D0020AF
:10BB5000643D0020800E090000E100E04C60080018
:10BB6000FCEC00E028600800036801221A607047BE
:10BB7000036801225A607047F0B404684FF48035BE
:10BB80008D40C4F8085306688C00C6F8485304F585
:10BB9000A0740668A4B20027375182B036590468F1
:10BBA000019601F5A87122F07F42019E44F8212000
:10BBB0000268C2F8445313B10368C3F8045302B0D7
:10BBC000F0BC70472DE9F04788464FF48037016894
:10BBD00007FA08F7C1F848730168C1F80873064608
:10BBE00000684FEA88040119D0F80455D1F84005DF
:10BBF000C1F8405504F5A074A4B231684FF00009B3
:10BC000041F8049082B0401B0959009120F07F4018
:10BC100001289A4622F07F45009B0BD1264B4FF41A
:10BC2000806043F001039847336843F804901B5940
:10BC30000193019B3368D3F80445C3F844732B1B6D
:10BC400023F07F43012B08F5A87817D130681A4BF1
:10BC5000013540F8285043F001034FF480609847C5
:10BC60003268D2F804359C4222D1C2F8447333685A
:10BC70000020C3F8047302B0BDE8F087336843F8CE
:10BC800028503268D2F804156B1ACAF1FF1A013B2A
:10BC90000AF57F4A23F07F439A4509D3002BE4D16C
:10BCA000013542F828503268D2F804359942DCD088
:10BCB0000D2002B0BDE8F087206008000268022372
:10BCC000C2F8443311B10268C2F80433704700BFB0
:10BCD0000368D3F8040150B1002282B0C3F80421F4
:10BCE000D3F804310193019B012002B070477047E3
:10BCF0004FF48033026803FA01F1C2F84813036875
:10BD0000C3F80813704700BF890001F5A07189B21C
:10BD10000368585840B100225A5082B05B580193D2
:10BD2000019B012002B07047704700BF0368D3F841
:10BD30000405704790F9043005485A09403203F071
:10BD40001F03012101FA03F340F82230704700BFBE
:10BD500000E100E0024A034B10681B68184700BF6F
:10BD60005C3D0020643D0020F0B5344D344EB5F804
:10BD700002C06A684FEA8C0707EB0C0306EB8303EB
:10BD800083B0596801F58054002A53D05388033397
:10BD900002EB8302944231D9136801332ED05388C9
:10BDA000033302EB8303A34228D84FF6FF7E90882B
:10BDB000704517D01088A8B19068013012D06A6021
:10BDC0005388204C2048A6882168033300249BB266
:10BDD00000949B0001EB860103242C7002F03CFAD6
:10BDE00003B0F0BD9C4209D91A6801321A4605D049
:10BDF0005888033003EB80039C42D8D2674406EB9B
:10BE00008706F3686BB10F4B0F48196802229A80BE
:10BE10000524002301222C7003B0BDE8F04002F09D
:10BE2000B9BA0948042401222C7003B0BDE8F040DF
:10BE300002F0B0BA01F10802ACE700BF8C3D00206F
:10BE4000A83D0020703E00200C340020F0B4436870
:10BE50001BB1394AD468A34249D20023374F0B8023
:10BE60007A684FF0010C02F580554FF6FF760832E4
:10BE700095420ED8BCF1020FA1F800C007F11407DB
:10BE800057D07A6802F58055083295424FF0020C7F
:10BE9000F0D913680133EDD05388033302EB8303E9
:10BEA0009D42E7D39488B4420DD014885CB1946865
:10BEB000B4F1FF3F07D00368A34211D05388033386
:10BEC00002EB8302D4E79D42D4D91A6801321A46A4
:10BED000D0D05C88033403EB84039D42E2D2C9E7EF
:10BEE000174B42601B8903810120F0BC7047126927
:10BEF0009342B2D813F00305AFD1114A04891289D5
:10BF00009442AAD104689A689442A6D10B48426828
:10BF1000934203D902F58052934207D38269934238
:10BF200007D902F58052934203D201250D800120EA
:10BF3000DBE70020F0BC70470C340020A83D002057
:10BF40008C3D00202DE9F04F9F4F8BB004464FF6FB
:10BF5000FF783E68002E00F0C2803278531E052B19
:10BF600000F2B680DFE803F0593B3B1E1E03002CB5
:10BF700040F0BC80DFF874C29CF80C209CF80030C4
:10BF8000002A00F05981013B8CF80C40062B00F28E
:10BF90009F80DFE813F0AD03BC02B801DB019D0018
:10BFA000CE02BF02002C40F0A1803379012B00F0BB
:10BFB0007781C0F04E8105AD022B0594C5E902449E
:10BFC0002C6100F09C8048F20E6006903378023BB2
:10BFD000042B33D8DFE803F058684C2C6400B6F823
:10BFE0001490B17D002C40F007814FEA8904774D11
:10BFF00004EB090305EB8303B3F808A05B6803EBCC
:10C000008A0A062900F21C83DFE811F04002B80119
:10C01000D801EB01FF011A023302002C40F0C88066
:10C020003379032B00F28E80DFE803F0B6A2976B22
:10C0300004238DF81430F388ADF82030644C04F1FB
:10C04000100654F8043B284603B19847A642F8D19D
:10C050006049614800243C6001F038FB01215F48E1
:10C0600001F0FCFB00287FF474AF0BB0BDE8F08F4B
:10C0700003238DF81430F388ADF820303389ADF800
:10C080002230F3680793D9E701238DF81430338900
:10C09000ADF82030B388ADF82230F3680793CDE7D0
:10C0A00005238DF81430C9E702238DF81430338945
:10C0B000ADF82030B388ADF82230F3680793B37D34
:10C0C000A3F10603B3FA83F35B098DF82430B5E7D7
:10C0D00005AD0023AB600593C5E9033373E73D4924
:10C0E0003D4801F0C5FA0646386036E705AD002345
:10C0F000AB600593C5E903334FF4064065E720467E
:10C1000063E7374C374A21683748304D4FF0000914
:10C1100086F804900823CDF8009002F09DF8334B88
:10C1200026685B88A18803EB830305EB830205F88F
:10C13000239053682360022356601181A380002856
:10C1400093D03E682A4A05AD002353600593C5E9A4
:10C1500002332B6148F20D6037E7214A224811680B
:10C160000023022433719480012202F013F9E6E7E0
:10C17000164D2B78022B00F0DA822B7D022B00F07B
:10C18000BA821B4B05AD002001221A700590586041
:10C19000C5E90200286118E7114B164A19681248D0
:10C1A0000123337100230093082302F055F8C6E7FA
:10C1B00005AD0F4A002353600593C5E902332B6197
:10C1C0004FF4064001E700BFA43D0020A83D002039
:10C1D000743D00209C3D00205C3E00206C3E002011
:10C1E000703E0020646008000C3400208C3D00206C
:10C1F000843D00206C6008000229F2887FD94FEA54
:10C200008904B54D04EB090105EB8101D31C0A89B2
:10C2100013440B81F28804EB090105EB810105ADA4
:10C220004B89033B9B1A00224B81AA600592C5E90A
:10C2300003224FF40640C8E6072B00F2EB81DFE84B
:10C2400013F0B201E901E9015B019F016901690194
:10C250008B0102233371CDE9064405ADF3680593E4
:10C2600028460DF11201FFF7F1FD002800F02A81A8
:10C2700006999A4A8B88F3800B88338198480094FA
:10C280000423BDF8124001F0E7FF002840F043828C
:10C29000914B04EB840403EB840401232374E4E650
:10C2A000904B1B78002B00F0FF80DFF83CE2BEF8DB
:10C2B0000490B9F1010F15D8874D039409EB890259
:10C2C00005EB8202043212F8043C002B00F0BC8122
:10C2D00009F1010399B201299946AEF8043002F13F
:10C2E0001402F0D905AD082200217F4857F0F3FF72
:10C2F0000020A8600590C5E903003E6865E6764D1C
:10C300004FEA890487E77948DCF8042084880168CB
:10C3100053887348033301EB8401002400949BB2DB
:10C3200003249B008CF8004001F096FF00283FF4A6
:10C330009CAE05AD002341F61D523E68AB600593EF
:10C34000C5E90333904208BF18463EE6BCF8023008
:10C35000614D03EB830305EB8305EB68002B00F0D5
:10C36000BC81624B5E48196802229A8005228CF8D3
:10C3700000200023012202F00DF8D7E7032A0CBFAA
:10C38000052306230022B3750AF104010092042359
:10C3900006F10802524801F05FFF00283FF465AE45
:10C3A000B37DF288022B48F20D6065D8A14405EBFD
:10C3B00089056B89033B9B1A6B81BAE7336948484F
:10C3C000002B14BF032301230022B3750AF10801D7
:10C3D0000092042306F10C0201F03EFF0028DFD199
:10C3E00043E6F38832693E484FF0010C86F816C0E8
:10C3F0004FF0000C0AF10C019B00CDF800C001F0D9
:10C400002BFF00283FF431AECAE7394BB2693949F6
:10C410001A604FF0000B1846C3F804B0FFF716FD82
:10C42000002800F07C810223B37504235146CDF827
:10C4300000B0F2182A4801F00FFF0028B0D114E62E
:10C440002C4B2B4AB3F800A051682548234A0023FF
:10C450004FF0060C86F816C00093042301F0FCFE92
:10C4600000289DD10AEB8A0A05EB8A0501232B746B
:10C47000FBE5F28841F61D5004EB090105EB810153
:10C48000D31C0A8913440B81F2888FE70223002210
:10C49000B375042300925146F218114801F0DCFEF6
:10C4A00000283FF4E2AD7BE705AD082221460E48A7
:10C4B00057F011FF0594C5E902442C613E6848F22B
:10C4C000016082E548F209600023C5E90033C5E94F
:10C4D00002332B6179E500BFA83D002060600800B1
:10C4E0000C340020843D0020803E0020703E00205F
:10C4F000683D00207C3E0020904ADCF804109388C0
:10C50000498803330B44022193808CF80010FFF715
:10C510002BFC0BE7894B8A4A19688A480023009351
:10C52000CCF8043007238CF80030082301F094FE87
:10C53000FCE6BCF80220844D9300134405EB830510
:10C54000062000236968814A00938CF800000823C4
:10C550007C4801F081FEE9E601238CF800309CF86C
:10C560000A30002B3AD0784DEB6800228CF80A2074
:10C57000A3BB2A7C92B3ACF80230FFF7F5FBD5E6FB
:10C58000BCF80220704D6D4C9300991805EB8101A9
:10C5900020684E68B4F804E0486002202660A1F8E4
:10C5A00008E0A080C9E7684DBCF808102A7D2B7808
:10C5B000B2FA82F252090131B3FA83F35B098CF8C3
:10C5C0000B20ACF80810002201218CF80A30ACF8DE
:10C5D00002208CF80C208CF80010C2E79CF80B307D
:10C5E00053B1594D2B6A00228CF80B2023B995F8D2
:10C5F00024300BB10123BEE705AD0020A8608CF804
:10C600000000ACF80200CCF804000590C5E9030076
:10C610003E68DAE4013B062B3FF65AAD01A252F820
:10C6200023F000BFF1C602000FC5020007C30200DD
:10C630004DC30200D1C0020033C5020015C502007F
:10C64000F28848F20E6017E71368DEF8001003F571
:10C65000805C03F1080A002948D04B88033301EBC2
:10C6600083018C4503D8039BCEF8003030E60B687D
:10C670000133F8D04B88033301EB83039C45F2D39D
:10C68000888840451CD0B1F800B0BBF1000F17D02E
:10C690008C68013414D0F388CEF800108342DAD1CC
:10C6A000002300932A4A2748042301F0D5FD0028DF
:10C6B0003FD109EB890905EB890501232B74D4E4EB
:10C6C0009C45D0D9196801311946CCD0588803301F
:10C6D00003EB80039C45D3D2C5E704228CF80020ED
:10C6E00069681848012201F055FE1FE65146B8E777
:10C6F0009CF80A3035E701239A001A4405EB8203BF
:10C70000002059680090082305F822000F4A0D48C0
:10C7100001F0A2FD13E53E6848F20D60D4E605ADD8
:10C720000590C5E90200286148F209604DE4002344
:10C73000E2E73E6848F20D6005ADC5E6703E0020B8
:10C740006C6008000C340020A83D002064600800E4
:10C75000606008004068FFF7F5BB00BF38B5094BC3
:10C760001A68042A0AD01D68074C0246012118469F
:10C7700044F8252001F066F8002038BD48F20B602F
:10C7800038BD00BF783E0020743D00202DE9F04FF9
:10C79000B04C8BB022780023CDE90533CDE90733C7
:10C7A000099372B1AC4C04F1100554F8043B05A890
:10C7B00003B19847A542F8D1002528460BB0BDE843
:10C7C000F08F201D02F0FF0601F062F807460028F6
:10C7D000F2D140F6F8731B685A1C00F0AF804FF09E
:10C7E000805211695269DFF89C829C49A3F580420E
:10C7F000C8F81020A3F5E04340460022C8F80C30EA
:10C8000001F0FCFC05460028D7D11C238C2294495A
:10C810009448DFF874A200F0B5FED8F80C900096AA
:10C8200009F5405349464FF0030B2A4699460B68D9
:10C8300000295AD08C48834200F08B80013359D0B4
:10C8400001F5805302EB82000AEB800C4FF0030EDF
:10C850000BF1FF3B01320AF820E01FFA8BFB92B28A
:10C86000CCF8041099451946E1D1BBF1010F40F213
:10C87000DE80FFB2022F00F0DA80062F00F0DA80AF
:10C88000002F00F0D48004A9764800F0B5FE1C22E9
:10C890000446002157F01FFD002C00F061810123A8
:10C8A000013F23700A2F09D8DFE807F0190819089B
:10C8B000160816081C061C000223237104A96948E7
:10C8C00000F0C6FE0121694800F0B0FF00287FF4A7
:10C8D00073AFFFF737FB70E701232371EEE7002307
:10C8E0002371EBE703232371E8E7581C02D05E486D
:10C8F0008342A5D1081D01F580530668013600F179
:10C9000004009FD18342F8D159480068002800F004
:10C91000208102EB82000AEB800E4FF0020C554E94
:10C920000AF820C002F101087280CEF804101FFA44
:10C9300088F2AEF808C047F0010793E74E4B4FF07E
:10C9400080521B68116952695D1C08BF02FB01F32C
:10C9500049E74868494EB04200F09A80DFF82CC1A0
:10C960006045C2D1009B93B102EB82034FF0020CF1
:10C970000AEB83000AF823C03D4B3E4E1B687280D1
:10C9800002F1010E43601FFA8EF2A0F808C0886819
:10C99000374B4FF0020E01301960A3F804E001F1AB
:10C9A000080C01F580532DD0498903310CEB81002F
:10C9B000834236D370464FF6FF780192BCF804608C
:10C9C000464510D0BCF800606EB1DCF80820029239
:10C9D000561C08D02A4ED6F800E0964503D23260A5
:10C9E000BCF8021003310844214980B28880BCF8A9
:10C9F000021003310CEB810C634506D80228019A22
:10CA000040F0B18004210F432CE7DCF80010013125
:10CA1000F4D0BCF8021003310CEB8106B342CDD246
:10CA2000019A13484FF4806181800821EBE748F2B6
:10CA30000A65C2E6084D01220023227005F11006A6
:10CA4000636055F8043B05A803B19847AE42F8D19E
:10CA5000B2E600BF843D0020743D00208C620800D7
:10CA6000D03D00205C3E0020DEC0ADDE6C3E0020EC
:10CA7000703E00208C3D002014100010FE011EF1BD
:10CA8000A03D00200C340020A83D0020FF011EF135
:10CA90009300019313440AEB830E00200AF823004D
:10CAA0004FF0020CCEF80410AEF808C08E680136C4
:10CAB00001F5805301F1080010D0498901F1030804
:10CAC00000EB8808434537D2019911440AEB8101F4
:10CAD0004FF480604FF001060E740881013292B26B
