:1000000000800020B5020000DD020000DF020000D9
:10001000E1020000E3020000E50200000000000031
:10002000000000000000000000000000E7020000E7
:10003000E902000000000000EB020000ED020000F9
:1000400071360000DD690200313B0000EF02000064
:10005000EF020000EF0200008D390000EF02000007
:10006000EF020000EF020000EF020000EF020000CC
:10007000EF020000413C0000EF020000EF02000030
:10008000EF02000025230000EF020000EF02000055
:10009000EF020000EF020000EF020000EF0200009C
:1000A000EF020000EF020000613E0000EF020000DE
:1000B000EF020000EF02000000000000000000005E
:1000C000EF020000EF020000EF020000EF0200006C
:1000D00071920200EF020000EF020000EF02000048
:1000E000EF0200000000000000000000000000001F
:1000F00000000000EF02000000000000EF0200001E
:1001000000000000000000000000000000000000EF
:1001100000000000000000000000000000000000DF
:1001200000000000000000000000000000000000CF
:1001300000000000000000000000000000000000BF
:1001400000000000000000000000000000000000AF
:10015000000000000000000000000000000000009F
:10016000000000000000000000000000000000008F
:10017000000000000000000000000000000000007F
:10018000000000000000000000000000000000006F
:10019000000000000000000000000000000000005F
:1001A000000000000000000000000000000000004F
:1001B000000000000000000000000000000000003F
:1001C000000000000000000000000000000000002F
:1001D000000000000000000000000000000000001F
:1001E000000000000000000000000000000000000F
:1001F00000000000000000000000000000000000FF
:1002000010B5054C237833B9044B13B10448AFF350
:1002100000800123237010BD78050020000000003D
:1002200088D6020008B5034B1BB103490348AFF35E
:10023000008008BD000000007C05002088D6020078
:10024000154B002B08BF134B9D46A3F5803A0021A8
:100250008B460F461348144A121A29F098FB0F4B8D
:10026000002B00D098470E4B002B00D09847002061
:10027000002104000D000D48002802D00C48AFF307
:10028000008029F00DFB2000290005F0A9F829F0D5
:10029000E1FA00BF0000080000800020000000001C
:1002A0000000000078050020BC3E00200000000097
:1002B000000000000649074A074B9B1A03DD043B78
:1002C000C858D050FBDC05F02DF9FFF7B9FF00004E
:1002D0008CD702000000002078050020FEE7FEE732
:1002E000FEE7FEE7FEE7FEE7FEE7FEE7FEE7FEE7E6
:1002F000F0B595B01C46164608460D4602F09EFD28
:100300001A9B0D93CDE9086400242346082205A911
:1003100028460A948DF82C400C9402F0ADFD079B02
:100320000293BDF81830ADF80C30BDF81A30ADF8B6
:100330000E309DF814308DF8114003F00302012AAD
:100340001DD1BDF81440059EC3F3C203C4F383144A
:100350008DF81030A20008230EA9284602F08CFD6B
:10036000C6F3952608AB0093224602AB0EA9304691
:1003700000F02EFD284602F065FD15B0F0BD022A02
:10038000F8D1BDF81640C3F3C203A4098DF81030AC
:100390000827082C264628BF08263B4632460EA9C9
:1003A000284602F069FDA41B08AB02AA31460EA83C
:1003B000374400F071FD002CEBD1DBE7014B01224B
:1003C0001A707047D50500207047000070B50F4DBA
:1003D00006460FCD88B06C460FC495E80F00002E7E
:1003E00084E80F004FF006030093094A09484FF0D4
:1003F000805308BF00226946069303F01DF808B138
:1004000001F06EFC044B1E7008B070BD4CB10200D0
:10041000BD030000000000209405002007B5044B38
:100420000093044A4023FFF763FF03B05DF804FB29
:10043000390400009505002038B50D4B0D4D002006
:1004400018700D4804782D5DD2B21C4665B1043099
:1004500004F0C2F908B101F043FC084B1A7812B15C
:100460002378002BFBD038BD0C3003F051FFF1E7AF
:10047000D50500206C2700200000002094050020F6
:1004800008B50848084A0378D35C3BB1043004F04F
:1004900035F90020BDE80840FFF798BF0C3003F0A5
:1004A000DDFEF6E7000000206C2700200120FFF7AA
:1004B0008DBF000008B5FFF7F9FF0421034800F0E5
:1004C000E5FB034B01225A7108BD00BF5CD7020057
:1004D00014000020037813F0040216D003F0030385
:1004E000012B03D0022B09D0012070470A68008835
:1004F0000232C0F3831002440A60F5E70B684288B9
:10050000023303EB92130B60EEE7104670470000D6
:100510002DE9F04F484C87B00F460546861C002059
:10052000019201F0B1FD23683B60D4E9012313443B
:10053000226801339B1A04F21C4704F5836A04F213
:100540001448B34219D3019A0023002A6CD0012227
:1005500062F3010343F0040365F389132168A26881
:100560000A4003320E44002044F82230266001F095
:100570008DFD012007B0BDE8F08F0121384601F064
:1005800099FF504601F0AFFF404601F0ACFF0DF17E
:1005900018096068D4F808B049F8100D00EA0B009B
:1005A000033004EB80004946FFF794FF029BB0B98B
:1005B0000BEA030204EB8202D16803919A1C013317
:1005C00003EA0B0B04EB8B0C01F00303012B0292EB
:1005D000DCF80CB020D0022B04D083460BE00BEAF1
:1005E0000300DDE7BDF80E309B0903334FEA1B4BD8
:1005F00002EB93030293404601F078FF08B1029B9F
:1006000063605946384601F055FFD4E9012313448D
:10061000226801339B1A94E7BDF80C30C3F38313AF
:100620004FEA1B4B1344E5E7022262F3010343F058
:10063000040365F39F5391E7A806002030B50A4BE9
:100640000A4A0B49D21AD20800239A4201D1052046
:1006500006E031F823500468A54202D1036000206F
:1006600030BD0133F1E700BFA4D602005CD7020021
:10067000AC0400202DE9F84F224B2348FF229A605A
:100680000022C3F81824C3E90022C3F8142483F815
:10069000202402F08CFB804688B91C481C4E1D4D5E
:1006A000DFF874A002F0F6FCAD1BED084446AC4246
:1006B00008D10023184919481A469C421BD14046CC
:1006C000BDE8F88F4FF000094F4606EBC40BBC4263
:1006D0000AD0142256F83710DBF8000029F0C2FCCB
:1006E0000028C8BF09F101090137BD42EFD12AF83E
:1006F00024900134DBE701EB830540F823206A8076
:100700000133DAE7A80600206CD702008CB10200A2
:10071000A4D602005CD70200AC040020080500202B
:1007200007B5019031B9019A064B53F8320003B076
:100730005DF804FB01A8FFF781FF0028F3D000203B
:10074000F5E700BFA4D60200094B013903EBC00056
:10075000032909D8DFE801F00A02040604207047E3
:100760000079704740797047002070470220704739
:10077000A4D6020030B5124C00EB400054F82150D2
:100780008240072303FA00F06A4002400D4B6A40A2
:10079000C2F3821044F8212003EB8101C2F3C203AB
:1007A000834238BF0346C2F34220834202F007026D
:1007B00038BF03469A4238BF1A464A8030BD00BF50
:1007C00008050020AC04002037B5164B93F8203400
:1007D00004460BB918B90024204603B030BD29F0F7
:1007E00039FC02AA013042F8080D012301A90E4884
:1007F00002F05EFC05460028EDD12146009A0198E2
:1008000029F0A1F8DDE900231344074803F8015C4F
:10081000009902F084FC0099034802F099FC019CC5
:10082000DAE700BFA80600208CB10200034BD3E931
:100830000030C31A58425841704700BFA806002034
:100840002DE9F04F85B0FFF7F1FF0646002840F094
:1008500018818D4DC5F81804BFF34F8F6868AC68D8
:1008600004AF47F8100D2040033005EB80003946F7
:10087000FFF730FE009B18B1D5F81824002A66D087
:1008800004EA0302991C013305EB8202234005EBC5
:100890008303D268DB68029302F00303022B019208
:1008A000009169D1BDF8063078489DF804604FEAA0
:1008B000931ABAF1500FD14628BF4FF0500969F38F
:1008C0008F1309F10801ADF8063002F088FAC6F37B
:1008D000C2068046002800F0BB8002F0AFFA01A9F2
:1008E00000230822404602F0BCFA009924EA0107DE
:1008F0000137BF00B94538D95FFA89F997B3FFB21C
:10090000A9EB0709214003315FFA89FBB946604F23
:1009100005EB810108234A46404602F0A2FA37B1AE
:1009200009F108035A463946404602F09AFA009BFC
:100930000AF1030A03EB9A030093D5F81834002B4D
:1009400050D1D5F81044DFF85C9107276FE02A6892
:100950009A4204D86A60304605B0BDE8F08F04EAD8
:10096000030081E74A49BB46D4E72140033108230D
:100970004A4605EB8101D7E7012B69D1BDF8046038
:100980004248C6F38311062928BF062161F3891660
:1009900002318900ADF8046002F021FAC6F3C20604
:1009A0008046002854D002F049FA0023082201A909
:1009B000404602F056FA0027BDF80420C2F3831225
:1009C000BB1C97424FEA8303B7D200994A1C2140CF
:1009D0000331009205EB81010422404602F041FA06
:1009E0000137E9E7404602F02DFAFFF71FFF80F0DC
:1009F0000100C6B2AFE7E3685A79B2B11B79BDF81E
:100A0000081003EB430259F8211007FA02F3052EF0
:100A100003EA010323FA02F308BF0326B34204D317
:100A2000236841461B6820469847E3681C68002CF1
:100A3000E1D1404602F006FA204601F025FBD5F848
:100A400018340BB9009B6B60002001F01FFBCCE752
:100A5000D5F8104474B90F4B5B88012BC5D90E4BE8
:100A60000E480F49C01AC008000440F0020000F010
:100A700073F8BAE7236820469B689847E3681C68C8
:100A8000E8E7002667E700BFA80600206CD7020051
:100A9000B4060020C8040020A4D60200DCD6020060
:100AA00098B10200080500202DE9F74F284C804638
:100AB0000F46924601A9012218469B46D4F8089099
:100AC000FFF726FD88B3019D0026A91C5E4506EBB5
:100AD000010234D100211F4801F0B6FC80F3100060
:100AE0006A1C02EA090204EB8202000405EA090317
:100AF000033340EA1840D06014F8232068F3C5029D
:100B000004F8232034F8232066F3891224F82320E4
:100B100054F82320012167F39F2244F8232061F336
:100B200001026FF3820204F8232094F820341BB1F1
:100B3000FFF786FE0028FBD103B0BDE8F08F09EA7D
:100B4000020204EB82025AF82630D3600136BDE778
:100B5000A8060020C40A002000231A46FFF7A4BFFD
:100B600013B502AC012344F8042D2246FFF79CFF85
:100B700002B010BD07B5CDE9002302236A46FFF796
:100B800093FF03B05DF804FB1FB5CDE90123069B7D
:100B9000039301AA0323FFF787FF05B05DF804FB69
:100BA0001FB5CDE90023069B0293079B03936A467A
:100BB0000423FFF779FF05B05DF804FB2DE9F34747
:100BC0008046304CD01C8A46174601A90022800876
:100BD000A568FFF79DFC002840D0DDF80490A668CA
:100BE00009F10200019001362840361AB6000330A0
:100BF000B74204EB80003BD83A46514628F0A3FEAA
:100C00000021214801F020FC80F3100009F10103CC
:100C10002B4004EB83034FEA184242EA0040D860BD
:100C200005EA0903033304EB830214F8231068F385
:100C3000C50104F8231034F823106FF38F1124F842
:100C40002310518867F38F11518014F8232002215B
:100C500061F301026FF3820204F8232094F8203438
:100C60001BB1FFF7EDFD0028FBD102B0BDE8F08716
:100C70003246514628F067FEBA1B0AEB060104F122
:100C80000C00BBE7A8060020C40A00202DE9F843A9
:100C90001F4B8846D3F81014054600240A469AB91B
:100CA000E9680C71D3F81014A1B9C3F81054EB68BB
:100CB0001A60184F184EF61BF6084FF00009B145A0
:100CC00011D12046BDE8F883D2681079A04218D02F
:100CD0001268E4E7C968EA6809681160D3F810345B
:100CE000DB681D60E5E707EBC9034946DA79EB6885
:100CF000424528BF42461879FFF73CFD09F101093A
:100D0000DDE701340A2CC9D14FF0FF34D9E700BF29
:100D1000A8060020A4D602005CD7020010B5037A12
:100D2000052B0C460FD0437A23B1084A08492046C8
:100D300001F03BFC0749204601F037FC2046BDE8A6
:100D4000104001F027BC002AF8D0F3E7F3B102000D
:100D5000DBBC020015B2020073B5C38804460D4621
:100D600033B1144A00921449144A284601F01DFC7C
:100D7000217A05291CD0637A4BB1A088FFF7E4FCE7
:100D80000F4B104953F82020284601F00EFC227A20
:100D90000D4BA08853F822600021FFF7C1FC0B49DE
:100DA00003463246284602B0BDE8704001F0FDBB64
:100DB00002B070BDF3B1020000B20200F8B102004F
:100DC000C0B10200DBBC020024B2020018B2020073
:100DD0002DE9F04385B01F460C9D002306460C46C6
:100DE000904695F80C902B7329463846FFF7B4FFD0
:100DF000B8F1060F09D8DFE808F00412181F2833ED
:100E000040003146284601F0D0FB002229463846F2
:100E1000FFF784FF85F80C9005B0BDE8F0832268E9
:100E20003146284601F0C1FBEFE7D4E90023314603
:100E3000284601F0BAFBE8E7A36800933146D4E9FD
:100E40000023284601F0B1FBDFE7E3680193A368C4
:100E500000933146D4E90023284601F0A6FBD4E7ED
:100E600023690293E3680193A36800933146D4E9B0
:100E70000023284601F099FBC7E7636903932369C0
:100E80000293E3680193A36800933146D4E90023F9
:100E9000284601F08AFBB8E708292DE9F84F80467B
:100EA0000E4617461C4635D8002593F80C901D7346
:100EB00019461046FFF750FFDFF88CA0DFF88CB022
:100EC000AE4229D918F805205946204601F06DFB9D
:100ED0000135082DF4D11A49DFF874B0204601F02D
:100EE00064FB4FF0000A564524D918F80A507E2DAD
:100EF00017D92E225946204601F057FB0AF1010A64
:100F0000BAF1080FEFD1012221463846FFF706FF5C
:100F100084F80C90BDE8F88F5146204601F045FB5F
:100F2000D6E728F0E1FC2844427812F0970FE0D091
:100F30002A46DFE70349204601F037FBDEE700BF22
:100F4000EEB10200ECB10200EAB10200E4B102002D
:100F5000F0B10200074B1B5C1F2B8ABF064A4FF003
:100F6000A04203F01F03D2F80405D840C04300F0AC
:100F7000010070478DB2020000030050074B1B5C5C
:100F80001F2B86BF03F01F0305494FF0A04101222C
:100F900002FA03F3C1F80C35704700BF8DB20200AE
:100FA00000030050074B1B5C1F2B86BF03F01F0381
:100FB00005494FF0A041012202FA03F3C1F80835B8
:100FC000704700BF8DB202000003005008B500203A
:100FD000FFF7E8FF0120FFF7E5FF0220FFF7E2FF40
:100FE0000320BDE80840FFF7DDBF08B50020FFF78C
:100FF000C5FF0120FFF7C2FF0220FFF7BFFF03205C
:10100000BDE80840FFF7BABF0A4B185C1F288ABF2B
:10101000094B4FF0A04300F01F00D3F80425012135
:10102000814021EA02000A40C3F80805C3F80C25F4
:10103000704700BF8DB2020000030050074B1B5CDD
:101040001F2B8ABF064A4FF0A04203F01F03D2F8BD
:101050001005D840C04300F00100704789B202007B
:10106000000300500B2809D00C2809D0182809D0FB
:1010700019280CBF03204FF0FF3070470020704745
:101080000120704702207047C20710B504460CD5F6
:101090004FF0A0430322C3F83427C3F83827C3F81E
:1010A0003C27C3F84027FFF791FFA3070AD54FF06D
:1010B000A0430C22C3F82C27C3F83027C3F86027BD
:1010C000C3F8642710BD00000D4930B5A1F5BC720E
:1010D0000225914201D800200EE08B1ADB1093FB11
:1010E000F5F302EBC30452F83330834205DC02DA35
:1010F00004F10802EDE7606830BD2146E9E700BF72
:1011000024B7020008B5FFF7DFFF024B002808BF35
:10111000184608BD91B2020013B502AC002304F8D2
:10112000053D01939DF80330032B08D904210DEBF5
:10113000010002F03FF930B9019802B010BD20461D
:1011400002F02EF9EEE70020F7E708B500F0AAFA62
:1011500000F092F8002002F0F3F820B1852802D0C8
:1011600000F0E0F8FCE7FFF7D7FF28F0DFFE02F021
:10117000A1F910B900F0D6F8FCE708BD01F088BE6F
:1011800008B500F0CFF8FCE762B6704772B670475A
:10119000FFF7C2BF00F0CCBA38B50D4614465AB1BD
:1011A00051B148B102F0CAF92946204602F09CF933
:1011B00010B900F0B7F8FCE738BDEFF30580003058
:1011C00018BF012070470000F7B54FF0805300258D
:1011D0001C6E596E04F0FF0745EA010206A5D5E929
:1011E000004502A9224347EA050361E902230822D8
:1011F00028F0A9FB03B0F0BD000000000036CEF4DB
:1012000000487047640B0020704701F057BE7047DC
:1012100008B502F0B5F80748074A0378D35C23B154
:101220000430BDE8084003F069BA0C30BDE808405E
:1012300003F014B8000000206C27002008B500203F
:1012400002F07EF810B100F06DF8FCE7BDE8084050
:10125000FFF72CB910B5044658B1FFF7D9FF204667
:1012600000F082FA01F02AFE00F09CFA0446FFF733
:10127000E5FF204610BD000008B50AF06BF848B93C
:10128000054B1B7813B9054B1B781BB1BDE8084013
:101290000AF066B808BD00BFFD0100200002002072
:1012A0002DE9F84307460E460AF054F858B1184C99
:1012B000184BDFF86890DFF86880E41AE40824042B
:1012C00044F003040EB9BDE8F883D9F80000C0F17A
:1012D0000805B542A8BF35462A463946404428F09D
:1012E00032FBD9F800202A44082AC9F800202F44EC
:1012F000A6EB0506E6D1084B5B88022B03D94146D5
:101300002046FFF75BFC0023C9F80030DAE700BF96
:1013100054D70200A4D6020004050020B00B002020
:10132000A80B002010B50C4C226882B10B4B5B88D7
:10133000022B0AD90A480B4B0B49C01AC0080004FB
:1013400092B240F00300FFF739FC00232360BDE8B0
:101350001040FFF775BA00BFB00B00200405002055
:1013600054D70200A4D60200A80B00200378022B59
:1013700001D80AF003B870474FF0102358694FF0B6
:101380008053411C1A695B6908BF03FB02F0A0F59A
:10139000A040704710B54FF010234FF080525B69AA
:1013A000116952690B4C581C08BF02FB01F3236101
:1013B000FFF7E2FF084BE06000220849C3F808216C
:1013C000204601F0B5FA18B1BDE81040FFF7D8BECD
:1013D00010BD00BF64050020B40B0020E4B902007A
:1013E0004FF4005070470220704708B513460A4674
:1013F00031B143B10146184628F0A5FA002008BDD6
:101400006FF00A00FBE76FF00B00F8E70128F8B572
:1014100007460C4616461D4610D80B44B3F5005F30
:101420000FD28AB19DB1FFF7A7FF04EB473101440A
:101430002A46304628F087FA0020F8BD6FF03800C1
:10144000FBE76FF01600F8E76FF00B00F5E76FF0C1
:101450000C00F2E70128F7B507460C4616461D4674
:1014600024D80B44B3F5005F23D22AB3AB0826D0AF
:10147000FFF782FF04EB4734044409F087FF074677
:101480000028FAD109F072FF214600972B46324618
:101490000C4801F089FA044609F078FF0028FBD1D6
:1014A000201C18BF0120404203B0F0BD6FF038008F
:1014B000FAE76FF01600F7E76FF00B00F4E76FF054
:1014C0000C00F1E76405002001282DE9F0410646F3
:1014D00024D8FFF751FFDFF8508000EB463505F5C3
:1014E000005709F053FF04460028FAD109F03EFFE7
:1014F000234601222946404601F016FB88B909F02F
:1015000045FF04460028FAD105F58055BD42E8D1D3
:10151000304609F043FF2046BDE8F0816FF0380007
:10152000FAE74FF0FF30F7E76405002010B5084CEC
:10153000D4F8083153B19BB22246D4F8041194F880
:101540000001FFF787FF0023C4F8083110BD00BF7A
:10155000B40B00202DE9F8431C4C1E46D4F808318A
:1015600081460F4690466BB194F80021824207D124
:10157000D4F804211A44914202D1B3F5807F01D1FD
:10158000FFF7D4FFD4F8080118B984F80091C4F823
:101590000471C0F58075B54234BFADB235464DB16A
:1015A0002A464146204428F0CEF9D4F808312B448D
:1015B000C4F80831761BB6B216B93046BDE8F883D8
:1015C000FFF7B4FF2F44A844DCE700BFB40B0020B2
:1015D00007B50C4B18680090FFF7CEFE042200F50B
:1015E00080410DEB020028F0AEF9042269460DEBB4
:1015F000020028F099F9B0FA80F0400903B05DF8D4
:1016000004FB00BF2AB7020038B505460C46FFF7B9
:10161000B3FE00F580402A4621460430BDE838403C
:10162000FFF7E3BE70B506460D461446FFF7A4FE6D
:1016300004F580440434324629462044BDE8704015
:10164000FFF7D3BE0048704730B7020004220321E1
:1016500002708170002206214270C17042607047A2
:101660007047B0F5A27F01D109F09ABE7047000023
:1016700010B5084CFFF78AFD2378012B05D1FFF741
:10168000E1FF02F079FB00232370BDE81040FFF773
:101690007BBD00BFD80C0020014B1878704700BFFD
:1016A000D80C00201FB502A8FFF7D0FFFFF7CAFF34
:1016B000104A02A902F0DAFA08B1FFF761FDFFF75C
:1016C000C1FF0368D3F81045FFF7BCFFE2B24FF447
:1016D0007031012421FA02F202232146009402F023
:1016E000A7FBFFF7AFFF02F02DFB034B1C7004B00C
:1016F00010BD00BF63160000D80C002008B5FFF72E
:1017000045FD0A4B1B782BB9FFF7CCFFBDE808401D
:10171000FFF73ABDFFF796FF02F056FB0028F5D120
:10172000FFF790FF02F00EFBF0E700BFD80C00209F
:1017300038B5FFF72BFD0B4B1B78012B0FD1FFF7B3
:1017400081FF022102F04CFB04460DF0C5FB05466B
:10175000FFF71AFD4FF4705000FB054038BD002420
:10176000F3E700BFD80C002010B5044627F028FF8F
:10177000094B186074B1094B094A18604FF47A702C
:101780006043002158609A60D9601846BDE8104057
:1017900027F022BF10BD00BFC00C0020C40C0020E9
:1017A0006116000008B527F00BFF054B1B68C3F559
:1017B0007973033318444FF47A73B0FBF3F008BD28
:1017C000C00C002030B50F4D8BB023F02FFE0FCD95
:1017D00001AC0FC40FCD0FC42B68236001A826F005
:1017E00087FBFFF711FD012023F092FE23F044FE5A
:1017F000032801D123F04CFE012023F08BFE0BB017
:1018000030BD00BF38B7020023F00CBE07B502ABF5
:1018100023F8020D184623F003FE03B05DF804FB25
:1018200007B502AB23F8020D184623F0FDFD03B007
:101830005DF804FB10B54FF470544443204623F088
:1018400044FE0028FAD010BD23F0D4BD23F0E1BD42
:1018500010B5044623F0DFFD207010BD003018BF26
:10186000012023F055BE003018BF012023F04EBEEA
:1018700008B923F010BE23F016BE08B523F0FCFD16
:10188000C31E5842584108BD08B523F0F5FD023883
:1018900018BF012008BD10B50446012C104603D026
:1018A000042C05D0002002E023F036FE204610BDB7
:1018B0000021BDE8104023F0FCBD10B50C46FFF739
:1018C0009FFC036A013303622046BDE8104004F028
:1018D0007DBE23F0FFBD10B50C46072942D8DFE8D6
:1018E00001F004171D23292F353BFFF789FC436ABC
:1018F00001334362012000FA04F414F0DA0F03D13B
:1019000014F0240F2ED00420BDE8104004F098BE3F
:10191000FFF776FC836A01338362EBE7FFF770FC25
:10192000C36A0133C362E5E7FFF76AFC036B013367
:101930000363DFE7FFF764FC436B01334363D9E7DD
:10194000FFF75EFC836B01338363D3E7FFF758FC3B
:10195000C36B0133C363CDE7FFF752FC036C013364
:101960000364C7E710BD2DE9F04105460E46174652
:101970009846FFF745FC04680134046043463A4644
:1019800031462846BDE8F04104F07EBE08B5062881
:101990000AD8DFE800F0040D13191F252B00FFF70C
:1019A0002FFC436801334360134B00221A6008BDCB
:1019B000FFF726FC836801338360F5E7FFF720FC1F
:1019C000C3680133C360EFE7FFF71AFC0369013313
:1019D0000361E9E7FFF714FC436901334361E3E77F
:1019E000FFF70EFC836901338361DDE7FFF708FC35
:1019F000C3690133C361D7E708330020C30710B5BB
:101A000007D4F0234008054A145C234019431154BD
:101A100010BD0901C9B20F23F4E700BFE80C002094
:101A200030B5094B1C78094B196800239C4202DC35
:101A30000022104630BD11F83350854201EBC3023D
:101A4000F7D00133F2E700BFD90C0020080D0020C9
:101A500070B504460D46FFF7E3FF30B1436823B18C
:101A600029462046BDE87040184770BD034B044826
:101A700019680022490800F002BA00BFDC0C0020FF
:101A80002000002010B5C0B2FFF7CAFF044600785E
:101A900001F06CFF63785A1E53425341834208D1D0
:101AA000044BD3E90023134303D1BDE81040FFF7F3
:101AB000DDBF10BDE00C00202DE9F048384A430896
:101AC0000446D35CC2074CBF1B0903F00F030D464D
:101AD000042B63D8DFE803F003262F3B3E000029E8
:101AE0005CD00121FFF78AFF002000F0CDFA2D4ED7
:101AF0000121A4F12007C4F1200521FA05F501FA1E
:101B000007FC4CEA050C01FA04FBD6E900454BEA58
:101B100004024CEA0503C6E900230020BDE8F048B2
:101B200000F0B4BA002914BF022100212046BDE80C
:101B3000F048FFF763BF41B10321FFF75FFF204685
:101B40000121BDE8F048FFF783BF0121EEE729BB83
:101B50000421EBE709B10321E8E7FFF74FFF29462E
:101B60002046FFF775FF284600F08EFA0D4E012142
:101B7000A4F12007C4F1200001FA07FC21FA00F0CB
:101B80004CEA000C01FA04FBD6E9000120EA0B0242
:101B900021EA0C03C6E900232846BFE7BDE8F08828
:101BA000E80C0020E00C00202DE9F041124E134F0C
:101BB00000243378A34208DC114BD3E900231343FC
:101BC00018D0BDE8F041FFF751BF3D6805EBC408F0
:101BD00015F8340001F0CAFE98F801104B1E594266
:101BE00059410A1A514215F834005141FFF764FF78
:101BF0000134DEE7BDE8F081D90C0020080D00209B
:101C0000E00C0020092AF7B505460C4616463FD9D8
:101C100001F0D2FDD8B11F4B1F481D601F4B204F54
:101C20001C70204B002120221E6027F0B0FE1E4BAE
:101C300000200021C3E90001013CE4B20326FF2C8F
:101C40000BD11A4A1A48002100F00EF903E001F006
:101C50007DFD0028DFD003B0F0BD9DF806308DF883
:101C6000046020B203F0FC0305EBC0026FF38203B3
:101C70008DF80630937815F830008DF805303A4627
:101C800001A901F0A3FD013CE4B20028D7D0E2E7AE
:101C90000720E0E7080D0020E80C0020D90C002008
:101CA000851A0000DC0C0020E00C0020A91B0000BD
:101CB0005CB7020070B5084D084E00242B789C429A
:101CC00001D3002070BD3368012113F8340001F006
:101CD00003FE0134F2E700BFD90C0020080D0020FC
:101CE0001FB50021039001AA44F20100CDE90111C2
:101CF000FFF78DFA05B05DF804FBD0E90223D1E9C6
:101D00000201994208BF90422CBF01200020704779
:101D10002DE900480C4800F0F1FA0C4BD3E9002300
:101D200012EB000B43F1000C094BD3E900239C4557
:101D300008BF93455846614603D21BF180704CF1B1
:101D40000001BDE8008800BF5C000020100D0020ED
:101D5000780D002037B505460C460A4801A900F069
:101D6000FEFA60B10570446001A9064800F021FB4D
:101D700018B1054800F0C6FA002003B030BD0420B9
:101D8000FBE700BF480000205C0000202DE9304840
:101D90001A4B1B7804461BB900252846BDE830883D
:101DA0000028F9D090F8203003F0FF05002BF3D085
:101DB000FFF7AEFFD4E90223994208BF904217D340
:101DC00023690BB984F82030D4E90530984721699C
:101DD0000029E1D094F8203003F0FF05002BDBD080
:101DE000D4E9022312EB010B43F1000CC4E902BC5D
:101DF0002146034801F0C9F9CFE700BF180D0020C4
:101E000094B7020013B5114B1149186801900823CB
:101E10005822104800F090FA044698B90E4A0F482C
:101E200001A900F043F9044660B901210B4800F014
:101E300045FA01230A4A0948194600F0A3F9094B5B
:101E400001221A70204602B010BD00BF90B70200F8
:101E50001C0D002048000020CD1E00005C0000206A
:101E6000FFFF7F00180D00203AB103685A614A1E37
:101E7000514251411961002070470720704738B521
:101E800090F8203004460D4683B98261FFF740FF89
:101E9000421941F10003C4E90223236903B125611A
:101EA00021460020BDE83840FFF754BF002038BD70
:101EB0000023014680F820300120FFF74BBF0000CF
:101EC000014800F01BBA00BF5C0000202DE9F74F6D
:101ED000064600F0FCF940B15A49D1E9002312F15D
:101EE000807443F10005C1E900450021304600F04F
:101EF000FEF938B1544C236823B12068FFF746FF40
:101F0000002323600121304600F0F1F920B1FFF7F2
:101F1000FFFE4E4BC3E9000101A94D484A4D4D4C0F
:101F20004D4F00F056FA002845D1DFF828A1464C65
:101F3000DFF82CB1504601F03EF92368002878D034
:101F400083B12368D0E90201D3E90223994208BF93
:101F500090422DD2236893F820301BB1216850465F
:101F600001F013F9504601F020F9D0E90289074643
:101F7000FFF7CEFEB8EB000869EB010940464B467F
:101F8000012873F1000347DB344DA84542D9FFF720
:101F900097FF42194FF496030021584600F016F9B6
:101FA000002841D1236813B9304600F0E3F82760D8
:101FB00003B0BDE8F08F0378012B20D00BD3022BA8
:101FC00014D14FF00008204601F0EFF8002836D079
:101FD00080F82080F7E7436893F8202032B9012287
:101FE00083F820204168204601F0CFF801A9184865
:101FF00000F01AFA01A9164800F0EBF993E74168DE
:102000002B68994202D100232B60EFE7204601F0B4
:10201000D5F8EBE7BA68BDE70021584600F05CF957
:102020003846FFF7B3FE01E00D28F9D00023236006
:1020300080E7002BBCD1304600F0A0F8B8E70123C0
:102040003B70D3E7100D0020800D0020780D00209C
:102050004800002094B70200180D0020FFFFB400D4
:102060005C00002072B6024A1368013313607047A7
:10207000840D0020034A1368013B136003B962B664
:10208000704700BF840D0020FFF7ECBFFFF7F2BFE1
:10209000435882B03BB10023435043580193019B06
:1020A000012002B070471846FBE7000070B5284CCD
:1020B0004379284D44F82320274C04EBC3031B79B4
:1020C00073B16B88012B09D92448254B2549C01AC7
:1020D000C008000440F00200FEF73EFD082070BD7D
:1020E00003680A88C3F8082590F904308A78002B21
:1020F0004FEA4212AFBF03F1604303F00F031A49E6
:10210000D2B2A9BF03F56143CA54D2B283F8002307
:1021100090F9043015495E09012203F01F0302FA09
:1021200003F341F82630437904EBC30144F833004C
:102130006B880A71022B09D90848094B0C49C01A4F
:10214000C008000440F00300FEF706FD0020C6E7CB
:10215000900D0020D0040020880D0020ECD6020055
:10216000A4D60200C6B7020014ED00E000E100E0D2
:10217000E8B70200036801221A6070470368012271
:102180005A607047F7B505684FF480348C40C5F845
:1021900008430568C5F848438D0005F5A075066835
:1021A000ADB20027775175590195019D056801F57C
:1021B000A87122F07F4245F821200268C2F844430A
:1021C00013B10368C3F8044303B0F0BD2DE9F3472E
:1021D00099464FF48038036808FA01F8C3F8488339
:1021E0000368C3F8088322F07F4502688E000F461B
:1021F000D2F80415324406F5A076D2F84035C2F87C
:102200004015B6B202684FF0000A42F806A05B1A09
:102210009259009223F07F43012B0446009A0BD180
:10222000254B4FF4806043F001039847236843F83F
:1022300006A09B590193019B2368D3F80465C3F85A
:102240004483AB1B23F07F43012B07F5A87723685A
:1022500019D1013543F82750174B4FF4806043F0F4
:10226000010398472368D3F804359E4209D12368B7
:10227000C3F8448323680020C3F8048302B0BDE898
:10228000F0870D20FAE743F827502068D0F80415AE
:102290006A1A013AC9F1FF1322F07F4203F57F4326
:1022A0009342EED3002AE2D1013540F8275023684B
:1022B000D3F804359942D9E7C0B702000268022377
:1022C000C2F8443311B10268C2F8043370474FF4C6
:1022D00082710068FFF7DCBE4FF4803303FA01F12E
:1022E0000368C3F848130368C3F8081370478900EC
:1022F00001F5A07189B20068FFF7CABE0368D3F880
:102300000405704790F9043001215A0903F01F03B6
:1023100001FA03F34032024941F82230704700BF0E
:1023200000E100E0024B034A1B681068184700BF39
:10233000900D0020880D002010B561B1B2FBF3F4C0
:1023400003FB1424A4B244B9C0E900148460828160
:10235000C381204610BD0E20FCE70920FAE737B5FF
:1023600050E8013F9DB2C48925448489A54228BF15
:102370002D1B0489A54202BFBFF32F8F002207E067
:10238000C5EA030540E80154002CE9D14FF00102F1
:102390008DF803200193019B9DF803200B6002F050
:1023A000FF0322B10B880068184403B030BD184603
:1023B000FBE70A884B889A4209D150E8012FC2EA0C
:1023C000024240E80123002BF7D101207047002092
:1023D000704737B550E8023F1FFAA3F5C488A542FD
:1023E00002BFBFF32F8F00220DE0C48925448489EA
:1023F000A54228BF2D1BC3EA054540E80254002C26
:10240000E8D14FF001028DF803200193019B9DF864
:1024100003200B6002F0FF0322B14B8800681844D0
:1024200003B030BD1846FBE70A884B889A4209D1B1
:1024300050E8022FC2EA224240E80223002BF7D1E3
:10244000012070470020704750E8002F0B4640E8FD
:10245000003C9CF0000FF7D11046704750E8002F69
:1024600042EA010340E8003C9CF0000FF6D1104620
:10247000704750E8003F43EA010240E8002C9CF01E
:10248000000FF6D11046704750E8002F02EA010312
:1024900040E8003C9CF0000FF6D11046704750E831
:1024A000003F03EA010240E8002C9CF0000FF6D147
:1024B0001046704750E8003F03EB010240E8002C53
:1024C0009CF0000FF6D11046704750E8003FA3EB98
:1024D000010240E8002C9CF0000FF6D11046704736
:1024E0000121FFF7BBBF0121FFF7C3BF0021FFF7A9
:1024F000CBBF0021FFF7D3BF10B590B1D0E90123C6
:1025000001689B1ADBB20A60013BDBB2FF2B026859
:1025100002D10020107110BD11684C1C14600B70AA
:10252000F2E70E20F7E738B504460020FFF7ACFDD0
:102530002268616813688B4215D9591E116013F81F
:10254000015CA28AE36802FB05352268A368116872
:102550005B1A1179DBB2994200D213710020FFF7A8
:1025600095FD284638BD0025F8E738B5054600201A
:102570000C46FFF789FD2A681368591C1160E96849
:10258000641AA98AB4FBF1F41C700020BDE838403D
:10259000FFF77CBD10B5826804462AB14369016823
:1025A000006998470023A36010BD0EB403B50399DA
:1025B00029B102AA04AB42F8043D00F073F802B05E
:1025C0005DF804EB03B070470A2938B504460D46A0
:1025D00002D10D21FFF7F8FFA3682268591CA16002
:1025E000D554D4E901329A4204D32046BDE838409C
:1025F000FFF7D0BF38BD00002DE9F84F9946DDE95F
:102600000A431746824688460A460126BA420FD236
:102610004E4538BF4E4613F0010B01D164B900247A
:102620000125B9F1010F1AD909F1FF397D43F8E706
:10263000B2FBF7F20136E9E79B070ED5B9F1000FBF
:102640000CBF30252025A642EAD2013C294650463F
:10265000FFF7BAFF002CF6D1E1E72025F3E7B8FB3E
:10266000F5F39F42E2D9DFF83890B8FBF5F3504616
:1026700019F8031005FB1388FFF7A6FFB5FBF7F564
:10268000002DF2D1BBF1000F02D00CB1A64201D354
:10269000BDE8F88F20215046013CFFF795FFF4E795
:1026A000FAB702002DE9F74F054690460E4600297D
:1026B00000F03A8116F8011B002958D0252940F076
:1026C000D180002702E047F001071646324612F893
:1026D000013B2D2BF7D0302B04D02B2B05D147F00D
:1026E0000407F2E747F00207EFE700242A2B06F180
:1026F00001021BD1D8F80030191DC8F800101B6862
:1027000016461C4433782E2B1CD101364FF0000A9C
:10271000314611F8012BA2F13000092814D80A2300
:1027200003FB0A23A3F1300A0E46F1E712F8013C3D
:10273000A3F130010929E5D80A2101FB0434303C1A
:102740001646D3E74FF0000A324612F8011B01F09B
:10275000FB0068281646F8D0692916D054D85829A5
:1027600070D00ED825297DD03378002BA2D12B7BB9
:10277000002B00F0D980284603B0BDE8F04FFFF7EA
:1027800009BF632968D06429EED1D8F80020111D53
:10279000C8F80010D2F8009089EAE972A2EBE97259
:1027A0004FF0010B092A61DCD34538BFD3462CB169
:1027B000B9F1000F01DB790700D5013CBA0702D55A
:1027C000BAF1000F04D0FB0702D4002C54D100242E
:1027D000B9F1000F58DAC9F100092D212846FFF799
:1027E000F3FE07F00302022A05D1BAF1000F02D16D
:1027F000002C4DD10024CDE9004753460A2249461A
:102800002846FFF7F9FEAFE7732954D016D8702990
:10281000AAD1D8F800301A1DC8F800203021284667
:102820001C68FFF7D1FE78212846FFF7CDFE002275
:102830000823CDE9003221461022E1E775292FD087
:10284000782991D1D8F800100A1DC8F80020CDE9E8
:102850000047534610222CE0D8F800301A1DC8F863
:10286000002019782846FFF7AFFE7DE70A230BF119
:10287000010B92FBF3F295E7A345A9D2202128464C
:10288000013CFFF7A1FEA0E77807AAD52B21A5E719
:10289000A345B0D230212846013CFFF795FEA7E7BB
:1028A000D8F80010CDE900470A1DC8F800205346AB
:1028B0000A220968A4E7D8F800301A1DC8F80020D9
:1028C000F907D3F8009012D54F46A7EB090B17F87C
:1028D000011B41B9A345BFF447AF20212846013C65
:1028E000FFF772FEF6E72846FFF76EFEEDE7B9F157
:1028F000000F17D0484627F0ADFB0746BC4200D971
:1029000054B909F1FF3919F8011F00293FF42CAF20
:102910002846FFF759FEF6E720212846013CFFF73D
:1029200053FEEBE74F46E9E703B0BDE8F08F000048
:1029300007B50B46A0B9154B5B886BB1144B154816
:10294000154AC01A0E23C0080093144B0004144902
:1029500040F00100FEF718F90E2003B05DF804FB0B
:102960006BB90A4B5B88002BF6D0094B09480D4A1E
:10297000C01AC0080E2300930004084BE7E7036069
:102980001B68114603B05DF804EB1847F004002003
:10299000A4D602002CD70200B7B802000AB8020081
:1029A000BCB8020033B902002DE9F3419646B0B934
:1029B000504B5B88002B00F095804F4B4F48504A9E
:1029C000C01AC0080E244F4B009400044E4940F03A
:1029D0000100FEF7D9F8204602B0BDE8F0816AB9DF
:1029E000444B5B88002B7DD0434B4448474AC01A78
:1029F000C0080E2400040094424BE7E7D0F800C062
:102A0000BCF1000F0DD13B4B5B88002B6CD03A4BD7
:102A10003A483F4AC01AC008082400040094394BC1
:102A2000D4E76BB9334B5B88002B5FD0324B334814
:102A3000384AC01AC008092400040094314BC5E785
:102A40004768D7F80480B3FBF8F708FB17376FB176
:102A5000284B5B88002B49D0274B28482E4AC01AA8
:102A6000C008092400040094264BAFE78F070DD05F
:102A7000204B5B88002B3BD01F4B2048274AC01AB5
:102A8000C0081024000400941E4B9FE712F0030FAF
:102A90000CD0184B5B885BB3174B1848204AC01A00
:102AA000C008102400040094164B8FE7C768B94291
:102AB0000BD34C1E05691C44AC4206D8DCF80C4014
:102AC000A44602B0BDE8F04160470A4B5B887BB189
:102AD000094B0A48134AC01AC00810240004009485
:102AE000084B73E70E2476E7082474E7092472E79D
:102AF000102470E7F0040020A4D602002CD70200B6
:102B0000B7B802001CB80200BCB8020039B9020014
:102B10002DB90200ECB802003FB9020069B9020009
:102B200081B90200A4B90200F7B5A0B9374B5B88A0
:102B3000002B63D0364B3748374AC01AC0080E24E2
:102B4000364B00940004364940F00100FEF71CF8B3
:102B5000204603B0F0BDD0F800C0BCF1000F0DD18D
:102B60002A4B5B88002B4BD0294B2A482D4AC01A90
:102B7000C008082400040094284BE4E76AB9234BFA
:102B80005B88002B3ED0224B2248274AC01AC0083F
:102B9000092400040094214BD5E74768D7F800E0EA
:102BA0000EF1FF370F420CD0184B5B8863B3184B04
:102BB00018481E4AC01AC008102400040094174B7D
:102BC000C1E7C768B9420CD34C1E05690EFB02442D
:102BD000AC4206D8DCF81040A44603B0BDE8F04093
:102BE00060470A4B5B887BB1094B0A48104AC01A00
:102BF000C008102400040094084BA4E70E24A7E7A3
:102C00000824A5E70924A3E71024A1E7F004002085
:102C1000A4D602002CD70200B7B802002FB80200D9
:102C2000BCB802002DB90200ECB8020042B80200A4
:102C300068B80200014B436000207047D8B9020019
:102C40000846704700207047024B1868003018BFD4
:102C500001207047940D002008B50248FFF749FC99
:102C6000002008BD940D002008B510461A4626F035
:102C70006AFE002008BD00002DE9F041804686B0C4
:102C800013480E4615461F46FFF72AFC044630B18E
:102C9000112018E006EB043000F060FC0134A5427E
:102CA000F8D10B48FFF725FCD8F8083000246BB1A9
:102CB000022268468DF80020CDE90146CDE90345A2
:102CC00005979847204606B0BDE8F0811846FAE718
:102CD000940D00202DE9F041804686B012480F4641
:102CE00016461D46FFF7FCFB0446D8B9AA08314634
:102CF000384600F04BFC0C48FFF7FBFBD8F80830D7
:102D000073B101228DF800200C9A05926846CDE936
:102D10000147CDE903659847204606B0BDE8F0813C
:102D20001846FAE71120F8E7940D00202DE9F04746
:102D3000B0F806904479D2F800A09DF8208009FBF5
:102D400004F4043C06460AEB0300A0420F4688BF89
:102D5000A4EB030A191DC2F800A0B1FBF9F509FBA9
:102D600015114DB9A9EB0104544528BF5446BAF1D9
:102D7000000F04D1BDE8F0873668013DF1E704316A
:102D80007B1970182246B8F1000F0ED00146184684
:102D9000AAEB040A26F0D7FDD145254436684C46F7
:102DA0004FF0000128BF5446E1E71946F0E7FFF76E
:102DB000A3BBF8B546790146721E0546002393422F
:102DC0002D6803D30024A64202D8F8BD0133F6E7EC
:102DD0000F682846FFF7C9FB01343946F3E72DE9B0
:102DE000F843CD1C868A0746FFF79DFB043E354419
:102DF0000446B5FBF6F5F0B14FF48073EDB2838075
:102E0000C680013D076081464FF00008A84512D2F8
:102E10003846FFF788FB064648B163790133637192
:102E200008F10108C9F8000007608146EEE7204676
:102E3000FFF7BFFF34462046BDE8F8830121043088
:102E4000FFF738BB10B5012104460430FFF73DFB06
:102E500010F0FF0F04D12046BDE81040FFF7A9BFD6
:102E600010BD1FB504AC44F8042D00220092224688
:102E7000FFF75CFF04B010BD1FB504AC44F8042D8F
:102E8000012200922246FFF751FF04B010BD00005E
:102E9000064B10B500241C70054B1C60BFF35F8F00
:102EA0000449054800F068F9204610BDA00D002037
:102EB000A40D002004BA0200980D002008B50020DF
:102EC000FFF7E2F8F1EE103A23F09F03E1EE103A3B
:102ED000BFF35F8F054B4022C3F884210020FFF72A
:102EE000D5F820BF40BF20BF08BD00BF00E100E013
:102EF000026813685268934291BFD01A806801300B
:102F0000801888BFC01A70472DE9F04103681F6818
:102F10001D685B689D4284BF8368013316468846FE
:102F20005D1BC2684168AE42044607FB02110CD823
:102F30007243404626F007FDA3683E449E4288BF88
:102F4000002623681E60BDE8F08105FB02F73A46C3
:102F5000404626F0F8FCE2686168751B6A4308EB9E
:102F6000070026F0F0FC23681D60ECE70368816829
:102F70001A685B688B4234BF01330023D31A58426E
:102F800058417047F8B5044600200D46FFF77CF81D
:102F90002046FFF7EBFF10B1237C002B3DD12168C9
:102FA000A6684B684A68B24234BF013200224A60C8
:102FB00038B12168A0680A68824234BF0132002219
:102FC0000A60E2686068511E072920D8DFE801F036
:102FD00004101F141F1F1F182A78C2542046FFF721
:102FE00087FF23689A68824200D29860002415E027
:102FF0002A8820F81320F1E72A6840F82320EDE71B
:10300000D5E9006700EBC300C0E90067E6E72946A1
:1030100002FB030026F097FCE0E704240020FFF702
:1030200035F82046F8BD70B505460E46144682B107
:103030000020FFF729F82846FFF75AFFA0420AD3DD
:10304000224631462846FFF75FFF00240020FFF7A5
:103050001DF8204670BD0524F8E710B50446002091
:10306000FFF712F820680C22002126F090FC0020C7
:10307000BDE81040FFF70AB810B504460020FFF77E
:1030800003F82046FFF734FF04460020FEF7FEFF5A
:10309000204610BD826800239360826813618268B5
:1030A00053618268D360826853608268136070479E
:1030B000F8B505460F4616461C4683B9AB686868E6
:1030C000D3E9031300F1010CCA1A62450ED100279F
:1030D000376014B3A868FFF70CFA0020F8BD8068C9
:1030E000FFF7FEF90028E9D01120F7E701EA000216
:1030F0001840824236BF6344ACEB02035B1A31686E
:10310000994294BF316033602B6813443B60AA68D6
:103110003168D3680B44D360DFE72046DEE738B57B
:10312000846843682569A26801332B449B1A8B424B
:103130000CD30A44A26083689A68DA608068FFF75B
:10314000D5F900280CBF0820002038BD0420FCE77A
:1031500010B5826813699468E41A8C420AD30B4450
:10316000136183681A695A6180680430FFF7C1F9F6
:10317000002010BD0420FCE701600B6843604A6832
:10318000934204BF00234360704770B5446806460D
:103190000D46206818B1B3682946984718B92368C6
:1031A0002B60256070BD2468F3E74368186808B198
:1031B00002681A6070474368186870474368186867
:1031C00000B970478842026802D11A600120704736
:1031D00003461046F4E7000038B5084C04F1080334
:1031E0000546002818BF1C4623682BB11A682260C8
:1031F0005B6828469847F7E738BD00BFB00D002050
:1032000020B9054B01225A70FFF7E6BF012802D111
:10321000014A9070F8E77047A80D002038B5094CB6
:1032200023786BB908486360A3602361E36000F012
:10323000CDF9054600F0D6F901232370284638BDA4
:103240008525FBE7A80D00200132000038B5134C9E
:10325000A378054603F0FF0073B115B16B68012038
:1032600098470020FEF710FFE3680133E360002079
:10327000BDE83840FEF70ABFFEF706FF25B1226918
:1032800013463BB92A602561E368002BECD100F0BE
:10329000BBF9E9E79D42F7D01B68F2E7A80D0020D3
:1032A00038B5134C6378054603F0FF0073B115B1D0
:1032B0006B68002098470020FEF7E6FE6368013344
:1032C00063600020BDE83840FEF7E0BEFEF7DCFE9C
:1032D00025B1A26813463BB92A60A5606368002B3C
:1032E000ECD100F0A3F9E9E79D42F7D01B68F2E7C3
:1032F000A80D002038B5084C0020FEF7C5FE636815
:10330000013B6360656815B900F0A2F965700020A3
:10331000BDE83840FEF7BABEA80D002007B502A9E7
:1033200001F8010D0548FFF72DFE0448FFF71EFECA
:1033300008B100F069FC03B05DF804FB8CD6020014
:1033400038B50C4D2B7893B90B4B0C49002808BFAE
:1033500018460388284620F8013F00F015FC044673
:1033600018B900F03FFC01232B70204638BD85249E
:10337000FBE700BF0C0E002028BA02001D3300003E
:1033800008B500F041FC00F047FC0348FFF765FE7C
:10339000024B00221A7008BD8CD602000C0E0020D1
:1033A00010B504460248FFF767FE207010BD00BF4D
:1033B0008CD6020010B50A4601460448FFF733FEDA
:1033C000044600F00FFC204610BD00BF8CD6020062
:1033D0001FB503788DF800304368019383688DF83A
:1033E0000830C3680393054A054B684653F82130FB
:1033F00052F82110984705B05DF804FB100E00202C
:10340000180E00201FB503788DF800304368019333
:1034100083688DF80830C3680393054A054B6846F6
:1034200053F8213052F82110984705B05DF804FB9D
:10343000100E0020180E0020F0B5194B0778DFF8A9
:1034400070E043F82720174B94460A6943F8272079
:103450004B7F0EF807300C4606460FCC89B06D4600
:103460000FC594E80F0085E80F00337804971EF825
:10347000033053B1BCF1000F0B4A694608BF00226C
:10348000301D01F047F809B0F0BDBCF1000F074A4C
:10349000694608BF002206F10C0000F0F7FDF2E7D4
:1034A000180E0020100E0020D1330000053400005B
:1034B0006C270020074A084B1360084A03F11001EB
:1034C0001160074A03F120011160064A0120C2F889
:1034D00004357047580E0020280E0020240E0020CE
:1034E000200E002000E0004010B5114B0446186883
:1034F000884202D0102226F026FA0E4B0022C3F892
:10350000002101221A604FF08070D3F8002162B1CF
:103510000022C3F80021084B1968A14203D01022F1
:10352000204626F010FA012001E00138EDD110BD4F
:10353000240E002000E00040200E0020024B014637
:103540001022186826F0FFB9580E0020024AD2F85F
:103550000034002BFBD0704700E001400A4908B559
:103560000223C1F80435BFF36F8FBFF34F8FC1F84B
:103570000805FFF7EBFF0023C1F80435BFF36F8F99
:10358000BFF34F8F08BD00BF00E001400E4B10B5E8
:103590000124C3F80445BFF36F8FBFF34F8F01EBD6
:1035A0008204401AA14208D1074B0022C3F8042527
:1035B000BFF36F8FBFF34F8F10BD431851F8042B2B
:1035C0001A60FFF7C3FFEDE700E00140044A1379FA
:1035D00023B901211060117118467047852070478A
:1035E0005C0E0020074B1A68D2075FBFC02283F829
:1035F000002301221A604FF080430122C3F81825EE
:10360000704700BF00E100E0074B00221A6082B063
:103610001B680193019B4FF080430222C3F80423EF
:1036200001229A6002B0704704010040074B00225B
:103630001A6082B01B680193019B4FF08043012206
:10364000C3F804231A6002B0704700BF00010040B5
:10365000064B01221A604FF08042D2F80C3403F07E
:103660000113B3F1011FF8D0704700BF0400004000
:1036700007B5134B1A6862B1002018601B680093ED
:10368000009B4FF080430122C3F808230D4B1B68B9
:1036900098470D4B1A6882B100221A601B6801938B
:1036A000019B4FF080430222C3F80823054B1B689F
:1036B000012003B05DF804EB184703B05DF804FB8C
:1036C000000100405C0E00200401004000F1804039
:1036D00000F5C040002382B0036003680193019BA2
:1036E00002B0704703681F2B83BF03F01F03036002
:1036F00001484FF0A04070470003005007B502ABEF
:1037000043F8040D1846FFF7EDFF019B00EB830023
:10371000D0F8003723F44033C0F80037D0F8003732
:1037200043EA0141C0F8001703B05DF804FB000054
:10373000054B4FF0FF32072843F8202084BF1B18A9
:1037400083F85220704700BF640E002010B5164C5D
:1037500094F8643033BBFF21E21801332A2B82F83E
:103760003010F9D10021C8B2FFF7E2FF01310C2976
:10377000F9D1062200210D4826F009F90C4BC02290
:1037800083F8062340221A604FF4BE70FFF79EFFB5
:10379000084B4FF00042C3F80423012384F864303F
:1037A000002010BD0820FCE7640E0020C20E00209F
:1037B00000E100E000600040034B93F8640000303B
:1037C00018BF0120704700BF640E0020F7B5404FBE
:1037D0003B18044693F93030002B944675DA8B7809
:1037E000C3F34003002B15BF0025082508200C203B
:1037F000854202D1042003B0F0BD57F825200132E4
:103800004FEA850649D1381947F825C080F830506D
:1038100013B97B1983F852408B785A071BD4D80709
:103820003DD502A840F8084DFFF75CFF009B00EB78
:103830008300D0F8003723F00203C0F80037254892
:10384000E20804F0070C012303FA0CF310F802C09D
:1038500043EA0C038354887891F800C010F002000A
:103860002AD006F1804303F5C0432402D3F8102583
:1038700022F44F3222F44072C3F810254FEA0C4C68
:10388000D3F8102504F47C540CF4403C44EA0C04B6
:103890001443C3F810450020ADE70135A8E702A89E
:1038A0004A7840F8044DFFF71DFF019B03F5E073D4
:1038B000920040F82320C2E7083D3D4495F85A4065
:1038C00044EA8C1C85F85AC095E7082093E700BFAE
:1038D000640E0020C20E002073B5224C2518064647
:1038E00095F93020072A1ADD224492F852309B09BC
:1038F000032B10D102A840F8046DFFF7F3FE019AE4
:10390000D0F81035D340DB0707D402213046FFF74B
:10391000F5FE02B070BD012BF7D00321F6E7D3B25C
:10392000072BF6D8930003F1804303F5C043D3F887
:10393000100540F00100C3F8100502F140008000BE
:1039400080B2FFF7C3FE0029E3D095F9303054F878
:103950002330002BDDD0012303FA02F2024BC3F81F
:103960000423D6E7640E00200060004007B502ABD8
:1039700043F8040D1846FFF7B5FE019BD0F810057B
:10398000D84000F0010003B05DF804FB2DE9F04FD2
:10399000002489B0CDE902445F4A604E604D0121A8
:1039A0001368A2F5C040012B80B206D1D6F80433CB
:1039B0000B4202D0FFF78AFE0C430432AA424FEAC0
:1039C0004101EDD1574B1B68012B0ED14FF4BE7056
:1039D000FFF77CFE4FF0A04344F00044D3F81035CD
:1039E0000293514BD3F81035039314F0FF0F1AD004
:1039F0004E4F00250126344210D0AB0003F1804326
:103A000003F5C043D3F81005D3F8101557F8253047
:103A1000C0F30520C1F3014103B198470135082DDA
:103A20004FEA4606E7D1002C72DA04AE0023049375
:103A300073604FF0FF33CDE906333C4F4FF0010880
:103A400000252C467B1993F95A20531C47D0D2B23B
:103A500022F0C00908A84FEAD90300EB030B02F0DB
:103A600007011BF8080C08FA01F1084237D007EBF0
:103A70000900920990F9300057F820A0BAF1000F20
:103A800005D1032A2BD1F05C0843F05401E0032A4E
:103A9000F9D001A8CDF80490FFF724FE019B03F5AF
:103AA000E07350F823301BF8180C0842C3F30143AD
:103AB00005D0022B13D1032A0BD1114604E0032BAE
:103AC0000DD1032A05D102214846FFF717FE013424
:103AD000E4B2BAF1000F02D011464846D047013592
:103AE000042DAFD1A4B14FF0A0430299D3F8102513
:103AF00003F540739142D3F8103502D103999942EE
:103B000006D002920393049A059B0692079397E7C7
:103B100009B0BDE8F08F00BF0061004000600040C8
:103B2000206100407C61004000030050640E0020D2
:103B3000014B1B68184700BFCC0E002038B50A4B5C
:103B400098420D460CD10020FEF79EFA074B1C79D7
:103B500014B901221D601A710020FEF797FA0CB902
:103B6000002038BD1120FCE700200040CC0E0020D2
:103B7000034B984201BF034B00221A601A71704731
:103B800000200040CC0E002010B5124C2278FAB96B
:103B9000114B1960037813F0010F104B1EBFD3F8BF
:103BA000042542F00102C3F80425D3F8002222F0D4
:103BB0000102C3F800224378094A5B01DBB282F8B4
:103BC0000D334FF40053136001232370002010BD08
:103BD0008520FCE7D80E0020D40E002000D0004045
:103BE00000E100E0064B00221A6082B01B680193DE
:103BF000019B044B0122C3F804231A6002B07047F2
:103C000000D1004000D00040024A0123C2F808332E
:103C10005360704700D00040064A0123C2F80833C1
:103C20005360054B4FF40052C3F88020034B002231
:103C30001A70704700D0004000E100E0D80E00206C
:103C4000074B00221A6082B01B680193019B054B51
:103C5000D3F80805044B1B68C0B202B0184700BF78
:103C600000D1004000D00040D40E0020F7B5057907
:103C7000314C0C266E43A7193B7A002B5AD1A25126
:103C80004A687A609C46467902685F1CDBB29E42B5
:103C900046D8120B53B2CE78284F002BAEBF03F19B
:103CA000604302F00F02264B4FEA4616F6B2AABF57
:103CB00003F561439E5483F8006303681B0B5EB2F7
:103CC0007609012203F01F0302FA03F347F82630B6
:103CD00007684B78D7F8046503F0030326F0030662
:103CE0003343C7F8043507688B78D7F8086503F0C5
:103CF000030326F003063343C7F8083506680B783C
:103D0000D6F8100503F00F0320F00F010B43C6F89F
:103D100010350C2303FB05440020227203B0F0BDD4
:103D20009B0003F5A07342F803C0D3580193019B95
:103D30003B46A8E70820F1E7DC0E002000E100E0A8
:103D400014ED00E0036801221A600379034A0C2194
:103D500001FB032302221A72704700BFDC0E002011
:103D60000368044901221A6103790C2000FB031344
:103D70001A727047DC0E002038B503681B0B5AB26C
:103D80000121520903F01F0301FA03F320320C4909
:103D900041F8223003680025D3F80022C3F800520E
:103DA00003684FF0FF320446C3F80823FFF7D8FF3B
:103DB0002379044A0C2101FB03231D7238BD00BF87
:103DC00000E100E0DC0E00200379044A0C2101FB35
:103DD0000323187A831E584258417047DC0E002096
:103DE00010B58B0040330268DBB20124D45001F5DA
:103DF000A871036853F8210010BD73B54FF48034E7
:103E00008C4005688BB18B0003F5A0730026EE5043
:103E1000EB580193019B0368C3F80443036801F561
:103E2000A87143F8212002B070BDC5F80843F5E73A
:103E3000F0B407689DF810C0D7F8004240F20115B1
:103E40008D4024EA0504C7F800420568D5F8004211
:103E50002343C5F80032F0BC6346FFF7CEBF000035
:103E6000F7B5104E104F114D0024A3199B001A688E
:103E700092B1D7F804134FF48032A2400A420BD01B
:103E800000221A601B68019304F150008000019B1E
:103E900080B2D5E9003198470134062CE5D103B052
:103EA000F0BD00BF5068001000A00140DC0E0020F3
:103EB0000023435082B043580193019B02B07047E6
:103EC0000A4610B54FF48E71FFF7F2FF136A91683E
:103ED000C95C136A01331362C0F81C1510BD10B51C
:103EE0008B690A464FF4847123B9FFF7E1FFD0F8DC
:103EF000183510BDFFF7DCFF536AD168D0F81805FC
:103F0000C854536A01335362F3E700001FB501231D
:103F10008DF80030044BCDE90110D3E9001268465A
:103F2000904705B05DF804FBE80E002030B54D4A1F
:103F3000D2F8043313F4007F85B015464FD0D2F881
:103F40002431002B4BD04FF492711046FFF7B0FF95
:103F50004FF40173C2F80833434B93F8291009B9A1
:103F6000012151603F4902228DF80020D1F88024C0
:103F7000C1F8802403929A690292DA6801920022C1
:103F8000C3E906226846D3E9001290473548D0F8C5
:103F90001C315BB134494A690B6A9A420A464CD9D2
:103FA00091F82830002B48D1FFF78AFF2D4AD2F82C
:103FB000443193B14FF4A2711046FFF779FF2A4BB9
:103FC00093F8291009B1012111609A692AB10022E0
:103FD0009A61586AD968FFF799FF05B030BDD5F8E6
:103FE00004335B07D2D5D5F80831002BCED01E4C58
:103FF0001C482146FFF773FF636AA2699A42234671
:10400000C4D1E26952B12369E168E3600023606AC8
:10401000A261E3616362FFF779FFB7E794F82920B3
:104020000AB901226A600F4A4FF40171C2F80813FD
:1040300000229A61586AD968EDE74FF48E710948F9
:10404000FFF736FF5369002BB0D05169029100236E
:1040500091688DF80030019153616846D2E90013F0
:104060009847A3E700200040E80E00201F2886BFE5
:1040700000F01F00044B4FF0A04300F5E070022257
:1040800043F82020704700BF000300502DE9F8439B
:104090006C4F067991462C2202FB0672054692F877
:1040A0002A200C46002A40F0C68067490068FFF7C6
:1040B00045FD8046002840F0C18023685A1C19D075
:1040C0001F2B4FF001028ABF60494FF0A04103F05F
:1040D0001F0302FA03F3C1F8083523681F2B86BFBC
:1040E00003F01F03594A4FF0A04203F5E073032188
:1040F00042F8231061684B1C0BD01F2986BF01F0CA
:104100001F01524B4FF0A04301F5E071002243F82C
:1041100021202B68A269C3F82425217D637D2A68AC
:104120000B43C2F86C35D4E900122B68C3F8142590
:10413000C3F80C15237D012B32D1A168481C0BD08C
:104140001F2986BF01F01F01404B4FF0A04301F52E
:10415000E071002243F82120E3685A1C19D01F2B7C
:104160004FF001028ABF39494FF0A04103F01F030D
:1041700002FA03F3C1F80835E3681F2B86BF03F08A
:104180001F03324A4FF0A04203F5E073032142F8C7
:104190002310D4E902122B68C3F80825C3F81015C0
:1041A0002C237343FA18C2F804902269FA50B9F12B
:1041B000000F2DD04FF48E712868227FFFF778FE14
:1041C0004FF4A2712868FFF773FE2B682049C3F8EB
:1041D00004132968090B4BB2002BAEBF03F16043F7
:1041E00001F00F011B4B4FEA4212D2B2AABF03F5F6
:1041F00061435A5483F800232B681B0B5AB20121E8
:1042000003F01F0301FA03F35209134941F8223066
:104210002B680422C3F800252C2303FB067300221D
:10422000C3E9062283F829205A61012283F82A2053
:104230004046BDE8F8834FF00808F9E74FF0110851
:10424000F6E700BFE80E00202D3F000000030050FD
:104250008000020014ED00E000E100E02DE9F041F3
:1042600003680479274D0022C3F800252C2303FBA3
:10427000045301465B6883B10368234AC3F80823EB
:1042800003681B0B5AB20120520903F01F0300FA06
:1042900003F320321D4840F822300B684FF0FF3204
:1042A000D3F80C05D3F81485D3F80865D3F8107546
:1042B000C3F81425C3F80C250B689042C3F80825F1
:1042C000C3F8102501D0FFF7D1FEB8F1FF3F02D0AF
:1042D0004046FFF7CBFE7A1C02D03846FFF7C6FEF9
:1042E000731C02D03046FFF7C1FE0868FFF740FCA0
:1042F0002C2303FB0454002384F82A306360BDE8B8
:10430000F08100BFE80E00208402020000E100E01E
:104310002DE9F047224B07794FF02C0909FB0734B0
:10432000064665699846002D36D16261A160256216
:1043300084F828504FF48E710068FFF7B9FD336898
:1043400001229A6021463068FFF7BAFD6368A146F2
:1043500023BB3568D4F814A0236A9A4511D8336872
:10436000D3F81C21002AFBD00122DA6000202C2384
:1043700003FB078700237B61BDE8F08794F82830B2
:1043800043B9D5F81C31002BF8D049462846FFF731
:1043900097FDE1E70F20EAE71120EDE72846EBE77C
:1043A000E80E00200023435082B043580193019B44
:1043B00002B070471FB501238DF80030044BCDE9E2
:1043C0000110D3E900126846904705B05DF804FB80
:1043D000140F00201F2886BF00F01F00044B4FF071
:1043E000A04300F5E070022243F82020704700BF90
:1043F000000300507FB5454AD2F82461002E63D0F7
:1044000010464FF49271FFF7CDFF02238DF8003074
:10441000D2F88034C2F880340393D2F83C3502934A
:104420003B4BDA6801920022C3E906226846D3E9D1
:1044300000129047354AD2F844317BB14FF4A27153
:104440001046FFF7AFFF324B996939B10021C3E93C
:104450000611D968D2F83C05FFF7ACFF2B4AD2F819
:104460002031B3B14FF490711046FFF79BFF012349
:10447000D360274B596961B1D2F84C1502910022E3
:1044800099688DF8002001915A616846D3E90012BD
:1044900090471E4AD2F85831A3B14FF4AC71104680
:1044A000FFF780FF1A4B596961B1D2F84C150291A0
:1044B000002299688DF8002001915A616846D3E97D
:1044C0000012904704B070BDD2F81031002BB1D06B
:1044D0004FF488711046FFF765FF0D4BD2F83C058D
:1044E00099698842A6D1DC69D96864B1D2F80052D2
:1044F00025F02005C2F800521A699C61DA60DE617D
:10450000FFF758FF96E79C61FAE700BF00200040E4
:10451000140F00202DE9F843724F067991462422AA
:1045200002FB0672054692F820200C46002A40F055
:10453000D3806D490068FFF701FB8046002840F0FA
:10454000CE8023685A1C19D01F2B4FF001028ABF5E
:1045500066494FF0A04103F01F0302FA03F3C1F8CC
:10456000083523681F2B86BF03F01F035F4A4FF0F7
:10457000A04203F5E073032142F8231061684B1C4D
:104580000BD01F2986BF01F01F01584B4FF0A043ED
:1045900001F5E071002243F821202B68A269C3F8DD
:1045A0002425217D637D2A680B43C2F86C35D4E94C
:1045B00000212B68C3F80C25C3F81415237D012BAB
:1045C00032D1A168481C0BD01F2986BF01F01F0102
:1045D000464B4FF0A04301F5E071002243F8212043
:1045E000E3685A1C19D01F2B4FF001028ABF3F49C4
:1045F0004FF0A04103F01F0302FA03F3C1F808359E
:10460000E3681F2B86BF03F01F03384A4FF0A04218
:1046100003F5E073032142F82310D4E902122B685A
:10462000C3F80825C3F8101524237343FA18C2F8F9
:1046300004902269FA50B9F1000F3CD04FF4887110
:104640002868227FFFF7AEFE4FF490712868FFF7CD
:10465000A9FE4FF492712868FFF7A4FE4FF4A271EF
:104660002868FFF79FFE4FF4AC712868FFF79AFEA9
:104670002B681F49C3F804132968090B4BB2002BA0
:10468000AEBF03F1604301F00F011A4B4FEA421233
:10469000D2B2AABF03F561435A5483F800232B68B2
:1046A0001B0B5AB2012103F01F0301FA03F3520955
:1046B000114941F822302B680822C3F80025242331
:1046C00003FB06730022C3E906225A61012283F824
:1046D00020204046BDE8F8834FF00808F9E74FF086
:1046E0001108F6E7140F0020F54300000003005006
:1046F0001003420014ED00E000E100E02DE9F0417C
:10470000324E0579242303FB056304465B6883B1BD
:1047100003682F4AC3F8082303681B0B5AB2012110
:10472000520903F01F0301FA03F32032294941F82B
:1047300022302268D2F8003223F02003C2F800327F
:10474000236801225A604FF4AC712068FFF72AFEFB
:104750002368DA602368D3F85821002AFBD00022AE
:10476000C3F8002523684FF0FF32D3F80C05D3F8C7
:104770001485D3F80815D3F81075C3F80C25C3F8C1
:10478000142523689042C3F80825C3F8102501D0EA
:10479000FFF720FEB8F1FF3F02D04046FFF71AFEB8
:1047A0007A1C02D03846FFF715FE4B1C02D0084693
:1047B000FFF710FE2068FFF7DBF9242303FB0565F4
:1047C000002385F820306B60BDE8F081140F0020D5
:1047D0001003420000E100E001F06043B3F1005F2C
:1047E0002DE9F04106463BD1204B0779242505FBF6
:1047F000073598466C69002C34D16A61A96000685D
:104800004FF49071FFF7CEFD4FF4AC713068FFF7B5
:10481000C9FD33686A69A968C3F84415C3F8482517
:10482000336801229A606B68F3B93368D3F82011BA
:10483000D3F8582119B9002AF8D00F2009E0002A2E
:10484000FBD10122DA603268D2F85831002BFBD05C
:104850000020242303FB078700237B61BDE8F08150
:104860001020FBE71120F9E72046F7E7140F00209E
:104870000220FCF7C9BB00002DE9F04781460D4638
:10488000FCF7F0FB0328044604D8012D04D024D300
:10489000022D2FD0BDE8F087194D47003A18A9180E
:1048A000AE5C4A7852B1DFF86880164842464FF451
:1048B0008041FDF7E4FA08B988F800903B192B44D1
:1048C0009A78114B1A55002EE4D0104B1B68002B20
:1048D000E0D03046BDE8F04718470A48FDF7E8FA4F
:1048E000074B04EB440213449E78074B1B5DB34215
:1048F000D0D1E8E7024B00EB40041C446678E2E7C5
:104900003A0F002090000020550F0020500F00208B
:10491000380F002002210078FFF7AEBF08B5094B21
:104920001B7853B10020FCF73DFB0120FCF73AFB5C
:104930000320BDE80840FCF735BBBDE80840FCF7A4
:1049400045BB00BF390F0020F8B57B4C23780546E6
:104950001BB100232370FFF7E1FF172D00F28880C1
:10496000DFE805F00C17174354657680888D888D35
:10497000959A9A9A9A9AC4C9D1D9E4E4FFF7CEFFDE
:104980006E48FDF795FA6E4B002204461A702046D9
:10499000F8BD0020FCF7DEFAF8B10020FCF702FBBE
:1049A000022D0CBF4FF4E1614FF47A61644B1D702E
:1049B0004FF400404FF47A740025E0FB01454FF4BA
:1049C000FA6200232046294626F034FA00220146E6
:1049D0005A48BDE8F840FDF752BAFCF7CFFA022D6D
:1049E0000CBFC8214FF4C871E0E70020FCF7B2FA11
:1049F00040B10020FCF7D6FA4FF44871504B032227
:104A00001A70D5E7FCF7BAFAC821F7E70020FCF7DF
:104A1000A1FA38B10020FCF7C5FA4FF47A61484B8F
:104A20000422EDE7FCF7AAFA4FF4C871F7E700207B
:104A3000FCF790FA48B10020FCF7B4FA404B05228D
:104A40001A7040F6CD410022C2E7FCF797FAF5E76D
:104A50000020FCF7D9FA3A4B06221A70002240F2E5
:104A60006661B5E70020FCF789FA354B07221A701A
:104A700000248CE701202070FCF7C6FAEEE7012045
:104A80002070FCF7C1FA00224FF40051A0E7FCF7B8
:104A9000ACFA2B4B0C22EAE72A482B4EFDF708FA1A
:104AA000D5F1110504461CD0D8B9012D13D0C82367
:104AB0005D434FF400474FF47A7000214FF4FA62DF
:104AC0000023C7FB050126F0B5F9224601461D4823
:104AD000FDF7D5F904460220FCF750FA01233370A4
:104AE00055E70220FCF75EFA0023F8E7FFF716FF10
:104AF000134B1222BBE7FFF711FF0020FCF73EFA31
:104B00000F4B1322B3E7FFF709FF0120FCF736FA3A
:104B10000B4B1422ABE7FFF701FF0020FCF72EFA46
:104B20000120FCF72BFA064B1522A0E7FCF75DFAF3
:104B3000034B1D709CE700BF4C0F0020B800002005
:104B4000540F002068000020390F0020044B1B6820
:104B5000DB0703D5034B1878FFF7F6BE704700BF9D
:104B6000480F0020540F0020032801D8FCF766BA34
:104B70000020704738B51C4B18601C4B10F0020425
:104B8000054619601AD01A4B1A480E221A700F22C5
:104B9000DA7010229A7111225A72042140F23332D3
:104BA000FDF730F8044648B9FDF784F8044628B903
:104BB0000146114A1148FDF757F90446EB0711D594
:104BC0000120FCF761FA6CB921460D4A0D48FDF74A
:104BD0004BF9044630B90C4A0C480121BDE8384075
:104BE000FDF742B9204638BD480F0020500F002085
:104BF0003A0F002068BA0200154900008CBA020082
:104C00004D4B000090BA02007148000088BA0200C3
:104C100010B50C21044605F051FC6FF00201017043
:104C200081700421017101210022417102218171F1
:104C3000C2714272C2720621074A01724FF0FF33FD
:104C400008214370C3708172538020460349BDE838
:104C5000104014F0E3B800BF0C230020614C0000AA
:104C6000F7B5054605F0D8FB04461921284605F09E
:104C700056FD6378002B45D12379002B42D026497D
:104C80004A884FF6FF739A423CD16379234CB0F8BF
:104C900001000B7048806188022982B209D920493D
:104CA0002048401AC00800041F4940F00300FBF7E9
:104CB00061FF0022FF211D4809F0AAFE4642074677
:104CC000EEB1638893B13046FCF71CFA154C144BD7
:104CD0001749E41AE408CB2324040193154B0093ED
:104CE0003246034644F00100FBF75AFFFBF7A8FDEC
:104CF0000028FBD1C7F59C402030FCF7F1FF0320D2
:104D0000FCF73CF92DB1284603B0BDE8F04005F0B2
:104D100027BB03B0F0BD00BF0C230020C804002057
:104D2000A4D60200DCD6020003BB0200095000003A
:104D30001EBB020035BB02002DE9F341694D06465A
:104D40000AF0CAF8AB68684AC41A944288BF1C1AB1
:104D5000412CB6FA86F7304694BF002401247F091F
:104D6000FFF702FF68BB3CBB394622465F4805F0AF
:104D7000E4FA46420746FEB15D4B5B889BB1304684
:104D8000FCF7C0F95B4C5C4B5C49E41AE40840F268
:104D90002D13240401935A4B00933246034644F0EA
:104DA0000100FBF7FDFEFBF74BFD0028FBD1C7F52B
:104DB0009C402030FCF794FF00232B7102B0BDE82B
:104DC000F081002C65D0394600224E4805F0B5FA36
:104DD00047428046FFB1464B5B889BB13846FCF7A3
:104DE00091F9444C444B4549E41AE40840F2391324
:104DF00024040193424B00933A46034644F00100D9
:104E0000FBF7CEFEFBF71CFD0028FBD1C8F59C404C
:104E10002030FCF765FF314613223B4809F0D8FDEE
:104E200010F11D0F06460ED1314B5B88012BC3D903
:104E3000314B30483549C01AC008000440F0020028
:104E4000FBF78AFEB8E74542002DB7D0284B5B88B8
:104E50009BB12846FCF756F9264C274B2749E41A04
:104E6000E4084FF4A17324040193254B00932A46D0
:104E7000034644F00100FBF793FEFBF7E1FC00283A
:104E8000FBD1C6F59C40203002B0BDE8F041FCF7F4
:104E900027BF314603221C4809F09AFD10F11D0F6F
:104EA0000646C1D04542002D88D0114B5B889BB18E
:104EB0002846FCF727F90F4C0F4B1049E41AE40879
:104EC0004FF4A873240401930D4B00932A46034624
:104ED00044F00100FBF764FEFBF7B2FC0028FBD1B5
:104EE000CFE700BF0C230020FEFFFF7F954F00009F
:104EF000C8040020DCD60200A4D602001EBB0200BB
:104F000035BB0200114F0000394D00005FBB0200AD
:104F100070B51B4B5B88B1FA81F5022B86B0064653
:104F20000A464FEA551509D91648174B1749C01AB2
:104F3000C008000440F00300FBF712FE00242246E4
:104F400000940223112130460BF078F80F23022140
:104F500005704370084409F08DF84FF482730822FD
:104F6000CDE902320A4A04940123019312F8023B6C
:104F700000930146022330460AF0E8FF06B070BDF8
:104F8000C8040020DCD60200A4D60200A6BB0200A2
:104F90000C23002070B5174B5B880E1C18BF012630
:104FA000022B86B005460A4609D91348134B14490B
:104FB000C01AC008000440F00300FBF7D1FD002434
:104FC000334622460094112128460BF037F84FF45F
:104FD00082730622CDE902320A4A04940123019326
:104FE00012F8023B00930146022328460AF0AEFF66
:104FF00006B070BDC8040020DCD60200A4D60200B2
:105000008EBB02000C230020F7B5044600285ED0BA
:10501000424D6B88022B09D94148424B4249C01A84
:10502000C008000440F00300FBF796FD82222146F1
:105030003E4809F0CDFC46420746EEB16B8893B17D
:105040003046FCF75FF8364C364B3949E41AE40831
:10505000FC2324040193374B00933246034644F06B
:105060000100FBF79DFDFBF7EBFB0028FBD1C7F52B
:105070009C402030FCF734FE40F2451200212E48BF
:1050800009F0A6FC46420746002E44D06B8893B137
:105090003046FCF737F8224C224B2549E41AE40845
:1050A000FE2324040193234B00933246034644F02D
:1050B0000100FBF775FDFBF7C3FB0028FBD1C7F52B
:1050C0009C40203003B0BDE8F040FCF709BE1A4810
:1050D00005F017F945420646EDB1104B5B889BB1D0
:1050E0002846FCF70FF80E4C0E4B1149E41AE40861
:1050F00040F20313240401930E4B00932A46034607
:1051000044F00100FBF74CFDFBF79AFB0028FBD1B4
:10511000C6F59C40D5E703B0F0BD00BFC804002031
:10512000DCD60200A4D6020045BB0200114C0000F0
:105130001EBB020035BB02000950000073B5354CA0
:10514000054600F095FF62884FF6FF739A4224D01F
:105150000E2D36D00F2D22D101252379EBB9012355
:10516000237109F0B9FE2946A06003222A4809F0FC
:105170002FFC10F11D0F054625D1284B5B88012B14
:1051800009D92748274B2849C01AC008000440F015
:105190000200FBF7E1FC0023237102B070BD1F4B3E
:1051A0005B88022BF9D91F481D4B20491B1ADB08CD
:1051B0001B042A4643F0030002B0BDE87040FBF731
:1051C000CFBC0025C9E74642002EE6D0134B5B88D2
:1051D0009BB13046FBF796FF114C124B1449E41A71
:1051E000E4084FF4C27324040193124B0093324637
:1051F000034644F00100FBF7D3FCFBF721FB00283A
:10520000FBD1C5F59C40203002B0BDE87040FCF7F2
:1052100067BD00BF0C230020394D0000C8040020EA
:10522000DCD60200A4D602005FBB0200E2BA020094
:105230001EBB020035BB02002DE9FF4104A900237B
:1052400041F8043D044610F029FC0546204605F0CF
:10525000E7FA063D07460221204600F0EBFE012D4D
:10526000204600F2818000F037FC46428046FEB1C5
:10527000534B5B889BB13046FBF744FF514D524B7B
:105280005249ED1AED084FF4DD732D040193504B94
:1052900000933246034645F00100FBF781FCFBF723
:1052A000CFFA0028FBD1C8F59C402030FCF718FD50
:1052B000002F7ED1474B5A884FF6FF739A4278D120
:1052C00082222146444809F083FB45420646FDB14F
:1052D0003B4B5B889BB12846FBF714FF394C3A4B9C
:1052E0003A49E41AE40840F2C11324040193384B0C
:1052F00000932A46034644F00100FBF751FCFBF7FC
:105300009FFA0028FBD1C6F59C402030FCF7E8FC52
:1053100040F245120021314809F05AFB4542064649
:10532000FDB1274B5B889BB12846FBF7EBFE254C74
:10533000254B2649E41AE40840F2C31324040193E0
:10534000234B00932A46034644F00100FBF728FC58
:10535000FBF776FA0028FBD1C6F59C402030FCF71D
:10536000BFFC04B0BDE8F08100F0B6FB4642074642
:10537000FEB1134B5B889BB13046FBF7C3FE114D6A
:10538000114B1249ED1AED0840F2CB132D04019395
:105390000F4B00933246034645F00100FBF700FC3B
:1053A000FBF74EFA0028FBD1C7F59C402030FCF7F4
:1053B00097FC002CD5D0204604F0D2FFD1E700BFE7
:1053C000C8040020DCD60200A4D602001EBB0200E6
:1053D00035BB02000C230020114C000009500000D6
:1053E0007FB5FCF70FFD08B1FCF77AFC4FF4804164
:1053F0000020FBF73FF908B1FCF772FCFBF75AF805
:1054000035490320FFF7B6FB08B1FCF769FCFBF751
:10541000DDFD324B00241C70314B1C80314B1C7065
:1054200005F09AFE05F09AFE02A8FBF7CDFE02A851
:1054300009F0F8FD4FF4803009F014FE204600F02A
:10544000E5FA062008F08EFDC32008F091FD022049
:10545000FFF78AFB80F00100C0B209F0DBFD01F02C
:1054600015FB437B0BB900F04BFE1F4C0C220021B7
:10547000204624F08CFA4FF6FF731C48638000F03E
:1054800067FF09F0F9FD45420646FDB1184B5B8800
:105490009BB12846FBF736FE164C174B1749E41A0A
:1054A000E40840F2FF1324040193154B00932A46AD
:1054B000034644F00100FBF773FBFBF7C1F900283A
:1054C000FBD1C6F59C402030FCF70AFC09F0D6FD64
:1054D000FBF7B6F9FAE700BF3D510000FD010020DF
:1054E000FE010020000200200C2300206D0100209E
:1054F000C8040020DCD60200A4D602001EBB0200B5
:1055000035BB0200054B1B680D2B01BF044B18680F
:10551000B0FA80F0400918BF002070473001001039
:105520003401001008B5FFF7EDFF40B14FF08043A4
:105530000022C3F80C21C3F81021C3F83825FFF767
:10554000E1FF002846D04FF080524D4BD2F80414B2
:10555000C3F82015D2F80814C3F82415D2F80C1497
:10556000C3F82815D2F81014C3F82C15D2F8141467
:10557000C3F83015D2F81814C3F83415D2F81C1437
:10558000C3F84015D2F82014C3F84415D2F82414F7
:10559000C3F84815D2F82814C3F84C15D2F82C14C7
:1055A000C3F85015D2F83014C3F85415D2F8341497
:1055B000C3F86015D2F83814C3F86415D2F83C1457
:1055C000C3F86815D2F84014C3F86C15D2F8442417
:1055D000C3F87025FFF796FF48B14FF08043D3F82A
:1055E0000024D20744BF6FF00102C3F80024254A0B
:1055F000D2F8883043F47003C2F88830BFF34F8F7D
:10560000BFF36F8F4FF01023D3F80022002A03DB83
:10561000D3F80432002B2FDA1B4B0122C3F80425E8
:10562000D3F80024002AFBD04FF010221221C2F838
:105630000012D3F80024002AFBD04FF010231222CE
:10564000C3F80422104B1A46D3F800140029FBD0EB
:105650000021C3F80415D2F80034002BFBD0BFF3AF
:105660004F8F0849094BCA6802F4E0621343CB60CC
:10567000BFF34F8F00BFFDE7054B064A1A6008BD18
:1056800000C0004000ED00E000E001400400FA0529
:10569000F80100200090D003022012F035B800007D
:1056A00073B52B4D2B4C2B782070EBB10022FF21D2
:1056B000294809F0ADF9294B002843D11870284B2F
:1056C00028705B88022B0FD9264B27482178274A60
:1056D000C01AC008264B0004002918BF1A4640F023
:1056E00003002449FBF73CFA0022FF21224809F07D
:1056F0008FF910F11C0F054627D046422EB3184BE8
:105700005B889BB13046FBF7FDFC174C154B1B49E2
:10571000E41AE40840F2263324040193184B009362
:105720003246034644F00100FBF73AFAFBF788F8EB
:105730000028FBD1C5F59C40203002B0BDE8704088
:10574000FCF7CEBA01221A70CEE702B070BD00BFDE
:10575000192300201E230020995600001B2300203F
:10576000C8040020A4D60200DCD60200E9BB020077
:1057700017B20200EEBB0200A15600001EBB0200E1
:105780001FBC0200F7B5334B1B78002B60D03249A9
:105790000B78002B5CD0314B1A78D2B100221A70F2
:1057A0002F4B0A705B88022B52D92E4B2E482F4A62
:1057B000C01A2F4B19782F4BC008002918BF1A4662
:1057C00000042D4940F0030003B0BDE8F040FBF7B2
:1057D000C7B92A4D2B78002B3AD1294929480B7893
:1057E00001229A40B2F5617FDCBF01330B70264B7A
:1057F000C8BF4FF461725A4300214FF47053B2FB9B
:10580000F3F209F0E5F846420746FEB1144B5B8817
:105810009BB13046FBF776FC134C124B1B49E41A44
:10582000E40840F2C62324040193194B0093324646
:10583000034644F00100FBF7B3F9FBF701F8002839
:10584000FBD1C7F59C402030FCF74AFA01232B70AE
:1058500003B0F0BD1D230020192300201B230020CE
:10586000C8040020A4D60200DCD60200C2BB02009D
:105870001E23002017B20200EEBB020018230020F6
:105880001C2300209956000040420F001EBB02005E
:105890001FBC0200F7B50FF0EFFE002850D1294BD6
:1058A0001B78002B4CD0284A137803F0FF01002B03
:1058B00046D1264B264819700378002B40D1012190
:1058C0000170244813700370234A24481370037036
:1058D00043F2DC222248234E09F07AF8454207467B
:1058E000F5B173889BB12846FBF70CFC1E4C1F4B8F
:1058F0001F49E41AE4084FF43B73240401931D4B41
:1059000000932A46034644F00100FBF749F9FAF7F1
:1059100097FF0028FBD1C7F59C402030FCF7E0F949
:105920007388022B0CD9114B0F481349C01AC008B9
:10593000000440F0030003B0BDE8F040FBF70CB9F1
:1059400003B0F0BD1D2300201E23002018230020DB
:10595000192300201B2300201A2300201C230020D1
:10596000A1560000C8040020DCD60200A4D6020024
:105970001EBB02001FBC0200C7BB020073B50FF0C4
:105980007BFE044668BB194B1A7852B31870FFF7B8
:1059900081FF41222146164809F01AF84542064681
:1059A000FDB1144B5B889BB12846FBF7ABFB124C57
:1059B000124B1349E41AE4084FF44E732404019384
:1059C000104B00932A46034644F00100FBF7E8F829
:1059D000FAF736FF0028FBD1C6F59C402030FCF7D3
:1059E0007FF9094B00221A7002B070BD1E230020FF
:1059F00085570000C8040020DCD60200A4D60200AF
:105A00001EBB02001FBC02001A23002007B500BB0A
:105A1000124B0C22C3F818270A22D3F81015013AAA
:105A2000C1F380110191F8D1019B73B90C4B5B88D4
:105A3000022B09D90B480C4B0C49C01AC0080004B2
:105A400040F00300FBF788F80120044B0222C3F862
:105A5000182703B05DF804EB09F0F2BA0003005018
:105A6000C8040020DCD60200A4D6020008C102004F
:105A70002DE9F84F1C469DF828308046894692460D
:105A800063B1661E002BDFF838B014BF4FF0FF374C
:105A90000127002524B92846BDE8F88F1E46F1E706
:105AA0001AF806305A46A9EB050108EB050024F068
:105AB00095FA0028F0DB013C05443E44E4B2E9E7F6
:105AC000E5B1020007B5012300930823FFF7D0FFDB
:105AD00003B05DF804FB0000F0B58BB00AA9002309
