:1000000000000420B5020000DD020000DF02000055
:10001000E1020000E3020000E50200000000000031
:10002000000000000000000000000000E7020000E7
:10003000E902000000000000EB020000ED020000F9
:10004000A57E0000F5C80300B57E0000EF020000A9
:10005000EF020000EF020000C17B0000EF02000091
:10006000EF020000EF020000EF020000EF020000CC
:10007000EF0200009D7F0000EF020000EF02000091
:10008000EF02000019400000EF020000EF02000044
:10009000EF020000EF020000EF020000EF0200009C
:1000A000EF020000EF020000ED810000EF0200000F
:1000B000EF020000EF02000000000000000000005E
:1000C000EF020000EF020000EF020000EF0200006C
:1000D00021F70300EF020000EF020000BD9D0000C9
:1000E000EF020000EF020000EF020000000000003D
:1000F00000000000EF02000000000000EF0200001E
:1001000000000000000000000000000000000000EF
:1001100000000000000000000000000000000000DF
:1001200000000000000000000000000000000000CF
:1001300000000000000000000000000000000000BF
:1001400000000000000000000000000000000000AF
:10015000000000000000000000000000000000009F
:10016000000000000000000000000000000000008F
:10017000000000000000000000000000000000007F
:10018000000000000000000000000000000000006F
:10019000000000000000000000000000000000005F
:1001A000000000000000000000000000000000004F
:1001B000000000000000000000000000000000003F
:1001C000000000000000000000000000000000002F
:1001D000000000000000000000000000000000001F
:1001E000000000000000000000000000000000000F
:1001F00000000000000000000000000000000000FF
:1002000010B5054C237833B9044B13B10448AFF350
:1002100000800123237010BD800600200000000034
:100220007C7F040008B5034B1BB103490348AFF3BF
:10023000008008BD00000000840600207C7F0400D0
:10024000154B002B08BF134B9D46A3F5803A0021A8
:100250008B460F461348144A121A3FF0F4FD0F4B19
:10026000002B00D098470E4B002B00D09847002061
:10027000002104000D000D48002802D00C48AFF307
:1002800000803FF065FD200029000AF09BF83FF058
:1002900039FD00BF0000080000000420000000003D
:1002A0000000000080060020CCB00020000000000C
:1002B000000000000649074A074B9B1A03DD043B78
:1002C000C858D050FBDC0AF0E5F8FFF7B9FF000092
:1002D0000C8204000000002080060020FEE7FEE7FC
:1002E000FEE7FEE7FEE7FEE7FEE7FEE7FEE7FEE7E6
:1002F0007047000007B5044B0093044A802300F0C8
:1003000032F803B05DF804FB110300009D060020E5
:100310002DE9F84389461446B2B10F4B0F4E032521
:10032000002743F00108224609EB0701002009F0ED
:10033000A3FF0744241A48B933782BB14FF47A400D
:10034000C047013D02D13570BDE8F8830123337009
:10035000002CE8D1F8E700BF902204009C060020A2
:10036000704709F0BDBFF0B595B008460D4616467A
:100370001C4606F0C5FD1A9A0D920023082205A915
:1003800028460A938DF82C300C93CDE9086406F0CA
:10039000D5FD079B0293BDF81830ADF80C30BDF8C1
:1003A0001A30ADF80E3001238DF811309DF814305D
:1003B00003F00302012A1DD1BDF81440059EC3F3CA
:1003C000C203C4F383148DF81030A20008230EA9D1
:1003D000284606F0B3FDC6F3952608AB00932246E7
:1003E00002AB0EA9304600F045FF284606F08CFD12
:1003F00015B0F0BD022AF8D1BDF81640C3F3C20310
:10040000A4098DF810300827082C264628BF082696
:100410003B4632460EA9284606F090FDA41B08ABC9
:1004200002AA31460EA8374400F088FF002CEBD119
:10043000DBE7000008B5FFF794FF0421034800F054
:1004400077FE034B01225A7108BD00BF807F040074
:100450000000002000230428CB604B6098BF044BB1
:10046000044A98BF53F820308A600B60704700BF81
:100470007824040054240400CB6800225A71704789
:10048000C368DB6800225A717047CB6801225A7139
:100490007047C368DB6801225A717047104A8A604E
:1004A000F0B5104A104C0023121BCB604B600B6060
:1004B00022F00F021D46264693420DD006EB030C98
:1004C000E718DCF80CC09CF804C0BCF1FF0F05D0A5
:1004D000854202D1BB680B60F0BD01351033EBE7FC
:1004E0008C240400B07F0400807F04002DE9F74FC6
:1004F000174E184D0093AD1B52F8043C07468A4630
:10050000904625F00F050024B146A54207D1124AB6
:100510000221384603B0BDE8F04F04F015BC09EBEA
:10052000040118468968019340F0C4F906EB040BF6
:10053000019B10340028E8D1DDED007A17EE90CA57
:10054000434652465946384603B0BDE8F04F60472F
:10055000807F0400B07F0400C4250400014BFFF736
:10056000C5BF00BF750B0000014BFFF7BFBF00BF49
:1005700079040000014BFFF7B9BF00BF8B040000F6
:10058000014BFFF7B3BF00BFAD090000037813F0C4
:10059000040216D003F00303012B03D0022B09D071
:1005A000012070470A6800880232C0F383100244B9
:1005B0000A60F5E70B684288023303EB92130B6085
:1005C000EEE71046704700002DE9F04F484C87B029
:1005D0000F460546861C0020019203F0CFFB2368DE
:1005E0003B60D4E901231344226801339B1A04F2CF
:1005F0001C4704F5836A04F21448B34219D3019AE4
:100600000023002A6CD0012262F3010343F00403AB
:1006100065F389132168A2680A4003320E44002062
:1006200044F82230266003F0ABFB012007B0BDE8A0
:10063000F08F0121384603F0F7FE504603F00DFF1E
:10064000404603F00AFF0DF118096068D4F808B0BD
:1006500049F8100D00EA0B00033004EB8000494616
:10066000FFF794FF029BB0B90BEA030204EB82028E
:10067000D16803919A1C013303EA0B0B04EB8B0C3A
:1006800001F00303012B0292DCF80CB020D0022B06
:1006900004D083460BE00BEA0300DDE7BDF80E3023
:1006A0009B0903334FEA1B4B02EB93030293404633
:1006B00003F0D6FE08B1029B63605946384603F04A
:1006C000B3FED4E901231344226801339B1A94E753
:1006D000BDF80C30C3F383134FEA1B4B1344E5E71B
:1006E000022262F3010343F0040365F39F5391E791
:1006F000B8080020012907B5034604D08168D1F865
:100700005413890707D500221146184603B05DF837
:1007100004EB05F0D3BC53680193054B00931368B9
:10072000044A022104F010FB03B05DF804FB00BF93
:10073000BE220400B42204002DE9F3478368D3F8F5
:100740005443C4F34004074634B10022114602B0BA
:10075000BDE8F04705F0B2BC144D154EDFF85880E7
:10076000DFF85890DFF858A0761B26F00F06B44249
:1007700002D102B0BDE8F0872B19DA689B681179C5
:10078000FF2906D10B4A0821384604F0DDFA10345F
:10079000EDE75279002A0CBF42464A46CDE90021D6
:1007A00038465246082104F0CFFAF0E7807F040073
:1007B000B07F0400D3220400864F04002F4F0400B2
:1007C000F222040030B50A4B0A4A0B49D21AD20869
:1007D00000239A4201D1052006E031F82350046835
:1007E000A54202D10360002030BD0133F1E700BF14
:1007F00078800400B0810400340500208368D3F8B9
:1008000054339B0703D50022114605F057BC024A1A
:10081000022104F099BA00BF132304008368D3F8BF
:1008200054339B0703D50022114605F047BC024A0A
:10083000022104F089BA00BF132304002DE9F84F08
:10084000224B2348FF229A600022C3F81824C3E9F0
:100850000022C3F8142483F8202406F00AFB804603
:1008600088B91C481C4E1D4DDFF874A006F07FFDB2
:10087000AD1BED084446AC4208D100231849194885
:100880001A469C421BD14046BDE8F88F4FF0000944
:100890004F4606EBC40BBC420AD0142256F8371060
:1008A000DBF8000040F020F80028C8BF09F101097A
:1008B0000137BD42EFD12AF824900134DBE701EB88
:1008C000830540F823206A800133DAE7B808002066
:1008D000B08104004824040078800400B081040042
:1008E00034050020D005002007B5019031B9019AE8
:1008F000064B53F8320003B05DF804FB01A8FFF784
:1009000061FF0028F3D00020F5E700BF78800400E5
:10091000002310B5CB604B60034B8B600C4601216C
:10092000FFF7E2FF206010BD54240400094B013999
:1009300003EBC000032909D8DFE801F00A0204062E
:100940000420704700797047407970470020704755
:10095000022070477880040030B5124C00EB400054
:1009600054F821508240072303FA00F06A40024005
:100970000D4B6A40C2F3821044F8212003EB810141
:10098000C2F3C203834238BF0346C2F3422083420C
:1009900002F0070238BF03469A4238BF1A464A801F
:1009A00030BD00BFD0050020340500202DE9F74FF1
:1009B00006461D469046002A50D0CB6828684B4911
:1009C00093F8049007223FF08FFFD0B9B8F1010FE0
:1009D00007D1474A0221304603B0BDE8F04F04F08A
:1009E000B3B9444F04460A2257F8241068683FF010
:1009F0007BFF002873D00134052CF4D16B683E4A8C
:100A000013E008223D4928683FF06EFF58B9B8F15D
:100A1000010F04462BD00127394A3A4B9B1A4FEA63
:100A2000D30A934645E02B68374A0221304603B08B
:100A3000BDE8F04F04F088B908EBC5039B79A342E9
:100A40000FD200212846FFF74FFF524603460221EE
:100A5000304604F079F90135BD42EDD103B0BDE86F
:100A6000F08F224629464846FFF776FFF3E7244BEE
:100A7000244FDFF89CA0FF1AFF0800259846EBE7FB
:100A8000184600210193FFF72FFF009920223FF025
:100A90002BFF019B014608B1013310E00BEBC302B1
:100AA0009279A24215D3224619464846FFF754FFD1
:100AB00001374745D2D255F82730009300239A4595
:100AC000DED155F82730114A0221304604F03CF9B6
:100AD000EEE71846FFF708FF0D4A0346F4E7B8F1C2
:100AE000020FE4B2C3D0022796E700BF242304001C
:100AF0002B230400642404008E2304002D480400EA
:100B000078800400B0810400422304007A230400AA
:100B10005723040013460A46C168FFF747BF000089
:100B200013B504460191A3B162B9019A0F4B04EBCE
:100B30004404072053F82230A0401840E040C0B2DF
:100B400002B010BD01A8FFF73DFE0028EDD0002047
:100B5000F6E72AB9019A064B03EBC2039879EFE74F
:100B600001A8FFF72FFE0028F1D1F3E7D005002000
:100B7000788004002DE9F04F274B284A9B1A4FEA52
:100B8000D309CB685B7985B005460E461BB9244A6C
:100B9000022104F0D9F8234B234A244F0821284688
:100BA00004F0D2F8224A0821284604F0CDF80024A7
:100BB0004C4502D105B0BDE8F08FF36893F804808E
:100BC00001231A4621464046FFF7AAFF012221468B
:100BD000834600234046FFF7A3FF0328034628BFB0
:100BE00003235FFA83FA804601212046FFF77CFE4B
:100BF00057F82A3001930F4A0F4B57F82B100091EA
:100C0000D04598BF134602930C4A03460821284654
:100C100004F09AF80134CBE7B08104007880040036
:100C2000AD230400C0230400CC230400642404008A
:100C3000EA2304004C320400AB2304002724040000
:100C400013460A46C168FFF795BF000037B5164B3B
:100C500093F8203404460BB918B90024204603B099
:100C600030BD3FF039FE02AA013042F8080D0123E1
:100C700001A90E4806F089FB05460028EDD1214662
:100C8000009A01983FF0BBF8DDE9002313440748C0
:100C900003F8015C009906F0AFFB0099034806F0E9
:100CA00079FC019CDAE700BFB80800204824040062
:100CB000034BD3E90030C31A58425841704700BF74
:100CC000B80800202DE9F04F85B0FFF7F1FF064688
:100CD000002840F018818D4DC5F81804BFF34F8FE0
:100CE0006868AC6804AF47F8100D2040033005EB8E
:100CF00080003946FFF74AFC009B18B1D5F818244C
:100D0000002A66D004EA0302991C013305EB820233
:100D1000234005EB8303D268DB68029302F00303F0
:100D2000022B0192009169D1BDF8063078489DF8F8
:100D300004604FEA931ABAF1A00FD14628BF4FF0D2
:100D4000A00969F38F1309F10801ADF8063006F028
:100D5000A8F8C6F3C2068046002800F0BB8006F063
:100D6000CFF801A900230822404606F0DCF80099DC
:100D700024EA01070137BF00B94538D95FFA89F97C
:100D800097B3FFB2A9EB0709214003315FFA89FB52
:100D9000B946604F05EB810108234A46404606F0FC
:100DA000C2F837B109F108035A463946404606F001
:100DB000BAF8009B0AF1030A03EB9A030093D5F8F3
:100DC0001834002B50D1D5F81044DFF85C91072778
:100DD0006FE02A689A4204D86A60304605B0BDE8E0
:100DE000F08F04EA030081E74A49BB46D4E721407B
:100DF000033108234A4605EB8101D7E7012B69D16E
:100E0000BDF804604248C6F38311062928BF0621B5
:100E100061F3891602318900ADF8046006F041F8EB
:100E2000C6F3C2068046002854D006F069F80023B5
:100E3000082201A9404606F076F80027BDF80420F4
:100E4000C2F38312BB1C97424FEA8303B7D20099C7
:100E50004A1C21400331009205EB810104224046E7
:100E600006F061F80137E9E7404606F04DF8FFF774
:100E70001FFF80F00100C6B2AFE7E3685A79B2B154
:100E80001B79BDF8081003EB430259F8211007FA4B
:100E900002F3052E03EA010323FA02F308BF032637
:100EA000B34204D3236841461B6820469847E36851
:100EB0001C68002CE1D1404606F026F8204602F0DE
:100EC0005DFFD5F818340BB9009B6B60002002F071
:100ED00057FFCCE7D5F8104474B90F4B5B88012B52
:100EE000C5D90E4B0E480F49C01AC008000440F087
:100EF000020000F073F8BAE7236820469B68984721
:100F0000E3681C68E8E7002667E700BFB808002030
:100F1000B0810400C408002054050020788004003B
:100F2000B8800400EC250400D00500202DE9F74F1F
:100F3000284C80460F46924601A9012218469B463E
:100F4000D4F80890FFF740FB88B3019D0026A91C48
:100F50005E4506EB010234D100211F4803F02EFA52
:100F600080F310006A1C02EA090204EB820200040A
:100F700005EA0903033340EA1840D06014F823203F
:100F800068F3C50204F8232034F8232066F389129D
:100F900024F8232054F82320012167F39F2244F8EA
:100FA000232061F301026FF3820204F8232094F8F6
:100FB00020341BB1FFF786FE0028FBD103B0BDE84B
:100FC000F08F09EA020204EB82025AF82630D3605D
:100FD0000136BDE7B8080020D40C002000231A46D3
:100FE000FFF7A4BF13B502AC012344F8042D224639
:100FF000FFF79CFF02B010BD07B5CDE90023022327
:101000006A46FFF793FF03B05DF804FB1FB5CDE917
:101010000123069B039301AA0323FFF787FF05B073
:101020005DF804FB1FB5CDE90023069B0293079BE7
:1010300003936A460423FFF779FF05B05DF804FBCC
:101040007FB5CDE90123089B0393099B04930A9B79
:10105000059301AA0523FFF769FF07B05DF804FBBC
:101060002DE9F3478046304CD01C8A46174601A92B
:1010700000228008A568FFF7A7FA002840D0DDF815
:101080000490A66809F10200019001362840361A42
:10109000B6000330B74204EB80003BD83A465146D5
:1010A0003EF0ADFE0021214803F088F980F31000E6
:1010B00009F101032B4004EB83034FEA184242EA93
:1010C0000040D86005EA0903033304EB830214F8F7
:1010D000231068F3C50104F8231034F823106FF3CC
:1010E0008F1124F82310518867F38F11518014F861
:1010F0002320022161F301026FF3820204F823200E
:1011000094F820341BB1FFF7DDFD0028FBD102B0BD
:10111000BDE8F087324651463EF071FEBA1B0AEB3D
:10112000060104F10C00BBE7B8080020D40C002035
:101130002DE9F8431F4B8846D3F8101405460024C8
:101140000A469AB9E9680C71D3F81014A1B9C3F82A
:101150001054EB681A60184F184EF61BF6084FF043
:101160000009B14511D12046BDE8F883D268107955
:10117000A04218D01268E4E7C968EA6809681160FB
:10118000D3F81034DB681D60E5E707EBC903494677
:10119000DA79EB68424528BF42461879FFF7DCFB55
:1011A00009F10109DDE701340A2CC9D14FF0FF3400
:1011B000D9E700BFB808002078800400B08104009F
:1011C00010B5037A052B0C460FD0437A23B1084A99
:1011D0000849204605F04BFA0749204605F047FA32
:1011E0002046BDE8104005F037BA002AF8D0F3E7F2
:1011F0006B280400473204004230040073B5C388F2
:1012000004460D4633B1144A00921449144A284644
:1012100005F02DFA217A05291CD0637A4BB1A088FC
:10122000FFF784FB0F4B104953F82020284605F0A8
:101230001EFA227A0D4BA08853F822600021FFF796
:1012400053FB0B4903463246284602B0BDE87040C6
:1012500005F00DBA02B070BD6B28040078280400B8
:10126000702804003C280400473204009C28040035
:10127000902804002DE9F04385B01F460C9D002303
:1012800006460C46904695F80C902B732946384636
:10129000FFF7B4FFB8F1060F09D8DFE808F0041231
:1012A000181F283340003146284605F0E0F9002297
:1012B00029463846FFF784FF85F80C9005B0BDE855
:1012C000F08322683146284605F0D1F9EFE7D4E9EA
:1012D00000233146284605F0CAF9E8E7A3680093E1
:1012E0003146D4E90023284605F0C1F9DFE7E36879
:1012F0000193A36800933146D4E90023284605F002
:10130000B6F9D4E723690293E3680193A3680093D5
:101310003146D4E90023284605F0A9F9C7E76369F7
:10132000039323690293E3680193A3680093314612
:10133000D4E90023284605F09AF9B8E708292DE9F1
:10134000F84F80460E4617461C4635D8002593F8C0
:101350000C901D7319461046FFF750FFDFF88CA064
:10136000DFF88CB0AE4229D918F80520594620463E
:1013700005F07DF90135082DF4D11A49DFF874B074
:10138000204605F074F94FF0000A564524D918F8A4
:101390000A507E2D17D92E225946204605F067F9AE
:1013A0000AF1010ABAF1080FEFD1012221463846AD
:1013B000FFF706FF84F80C90BDE8F88F51462046F1
:1013C00005F055F9D6E73EF0EBFC2844427812F0E0
:1013D000970FE0D02A46DFE70349204605F047F99A
:1013E000DEE700BF66280400565A0400545A040081
:1013F0006028040068280400074B1B5C1F2B86BF75
:1014000003F01F0305494FF0A041012202FA03F344
:10141000C1F80C35704700BFE828040000030050F5
:10142000074B1B5C1F2B86BF03F01F0305494FF0C2
:10143000A041012202FA03F3C1F80835704700BF4A
:10144000E82804000003005008B50020FFF7E8FF7B
:101450000120FFF7E5FF0220FFF7E2FF0320BDE8D0
:101460000840FFF7DDBFC20710B504460CD54FF0AA
:10147000A0430322C3F83427C3F83827C3F83C2716
:10148000C3F84027FFF7E0FFA3070AD54FF0A043BA
:101490000C22C3F82C27C3F83027C3F86027C3F801
:1014A000642710BD0D4930B5A1F5BC7202259142EB
:1014B00001D800200EE08B1ADB1093FBF5F302EB52
:1014C000C30452F83330834205DC02DA04F1080227
:1014D000EDE7606830BD2146E9E700BF802D0400DC
:1014E00008B5FFF7DFFF024B002808BF184608BD0C
:1014F000EC28040013B502AC002304F8053D019369
:101500009DF80330032B08D904210DEB010006F0F0
:101510007FF930B9019802B010BD204606F06EF98F
:10152000EEE70020F7E708B500F08EFA00F078F853
:10153000002006F043F920B1852802D000F0C6F85B
:10154000FCE7FFF7D7FF3FF0ADF806F0E1F910B97F
:1015500000F0BCF8FCE708BD08B500F0B7F8FCE700
:1015600062B6704772B67047FFF7C4BF00F0B2BAF8
:10157000034A431A934288BF0B1A1846704700BFAC
:10158000FEFFFF7F10B5044600F0A4FA241804D330
:1015900000F0A0FA8442FBD310BD00F09BFA844215
:1015A000FBD8F9E738B50D4614465AB151B148B1E8
:1015B00006F0F2F92946204606F0C4F910B900F009
:1015C00085F8FCE738BDEFF30580003018BF012037
:1015D0007047000000000000F7B54FF08053002571
:1015E0001C6E596E04F0FF0745EA010206A5D5E915
:1015F000004502A9224347EA050361E902230822C4
:101600003EF0FDFB03B0F0BD000000000036CEF45C
:1016100000487047740D0020704705F09BBC704770
:1016200008B515F053FA48B9054B1B7813B9054BAB
:101630001B781BB1BDE8084015F04EBA08BD00BFCD
:10164000D9010020DC0100202DE9F84307460E46B1
:1016500015F03CFA58B1184C184BDFF86890DFF8D9
:101660006880E41AE408240444F003040EB9BDE8D9
:10167000F883D9F80000C0F10805B542A8BF354687
:101680002A46394640443EF0BAFBD9F800202A44A5
:10169000082AC9F800202F44A6EB0506E6D1084B1E
:1016A0005B88022B03D941462046FFF7D9FC002373
:1016B000C9F80030DAE700BF8881040078800400B0
:1016C000BC050020C00D0020B80D002010B50C4C4A
:1016D000226882B10B4B5B88022B0AD90A480B4B5C
:1016E0000B49C01AC008000492B240F00300FFF793
:1016F000B7FC00232360BDE81040FFF7E3BA00BF4A
:10170000C00D0020BC050020888104007880040002
:10171000B80D00200378022B01D815F0EBB9704703
:101720004FF0102358694FF08053411C1A695B69D0
:1017300008BF03FB02F0A0F51040704710B54FF052
:1017400010234FF080525B69116952690B4C581C91
:1017500008BF02FB01F32361FFF7E2FF084BE060E3
:1017600000220849C3F80821204605F043F918B1C2
:10177000BDE81040FFF7F0BE10BD00BF6C060020B2
:10178000C40D0020B43404004FF4804070470220A0
:10179000704708B513460A4631B143B101461846B1
:1017A0003EF02DFB002008BD6FF00A00FBE76FF054
:1017B0000B00F8E70128F8B507460C4616461D460B
:1017C00010D80B44B3F5804F0FD28AB19DB1FFF70B
:1017D000A7FF04EB873101442A4630463EF00FFB59
:1017E0000020F8BD6FF03800FBE76FF01600F8E757
:1017F0006FF00B00F5E76FF00C00F2E70128F7B58A
:1018000007460C4616461D4624D80B44B3F5804FB8
:1018100023D22AB3AB0826D0FFF782FF04EB87342C
:10182000044415F06FF907460028FAD115F05AF96B
:10183000214600972B4632460C4805F017F904461E
:1018400015F060F90028FBD1201C18BF0120404290
:1018500003B0F0BD6FF03800FAE76FF01600F7E75D
:101860006FF00B00F4E76FF00C00F1E76C0600205E
:1018700001282DE9F041064624D8FFF751FFDFF893
:10188000508000EB863505F5804715F03BF904469E
:101890000028FAD115F026F92346012229464046B0
:1018A00005F0A4F988B915F02DF904460028FAD1FD
:1018B00005F58055BD42E8D1304615F02BF920469C
:1018C000BDE8F0816FF03800FAE74FF0FF30F7E73E
:1018D0006C06002010B5084CD4F8083153B19BB207
:1018E0002246D4F8041194F80001FFF787FF002383
:1018F000C4F8083110BD00BFC40D00202DE9F84325
:101900001C4C1E46D4F8083181460F4690466BB1F8
:1019100094F80021824207D1D4F804211A4491425C
:1019200002D1B3F5807F01D1FFF7D4FFD4F80801CD
:1019300018B984F80091C4F80471C0F58075B542F7
:1019400034BFADB235464DB12A46414620443EF043
:1019500056FAD4F808312B44C4F80831761BB6B2D5
:1019600016B93046BDE8F883FFF7B4FF2F44A8440A
:10197000DCE700BFC40D002007B50C4B18680090D1
:10198000FFF7CEFE042200F500410DEB02003EF011
:1019900036FA042269460DEB02003EF021FAB0FA55
:1019A00080F0400903B05DF804FB00BF862D040001
:1019B00038B505460C46FFF7B3FE00F500402A4651
:1019C00021460430BDE83840FFF7E3BE70B5064657
:1019D0000D461446FFF7A4FE04F5004404343246D5
:1019E00029462044BDE87040FFF7D3BE0048704749
:1019F0008C2D040004220321027081700022062134
:101A00004270C17042607047B0F5A27F01D115F0FD
:101A100083B8704710B5084CFFF7A4FD2378012B5D
:101A200005D1FFF7E3FF06F06DFB00232370BDE84F
:101A30001040FFF795BD00BFD00E0020014B187875
:101A4000704700BFD00E00201FB502A8FFF7D2FFDD
:101A5000FFF7CCFF104A02A906F0CEFA08B1FFF753
:101A60007BFDFFF7C3FF0368D3F81045FFF7BEFF08
:101A7000E2B24FF47031012421FA02F2022321462E
:101A8000009406F09BFBFFF7B1FF06F021FB034B30
:101A90001C7004B010BD00BF091A0000D00E002059
:101AA00008B5FFF75FFD0A4B1B782BB9FFF7CCFF9A
:101AB000BDE80840FFF754BDFFF798FF06F04AFB6A
:101AC0000028F5D1FFF792FF06F002FBF0E700BF18
:101AD000D00E002038B5FFF745FD0B4B1B78012BCE
:101AE0000FD1FFF783FF022106F040FB044619F0F7
:101AF000D3FA0546FFF734FD4FF4705000FB054064
:101B000038BD0024F3E700BFD00E00201F2886BF99
:101B100000F01F00044A4FF0A042012303FA00F036
:101B2000C2F80C05704700BF000300501F2886BF95
:101B300000F01F00044B4FF0A04300F5E0700322BB
:101B400043F82020704700BF0003005008B516205E
:101B5000FFF7ECFF1320FFF7E9FF1720FFF7E6FF81
:101B60001120FFF7E3FF1420FFF7E0FF2D20FFF720
:101B7000DDFF13490223C1F838372F20FFF7D6FFC6
:101B80001520FFF7D3FF1620FFF7C0FF1320FFF744
:101B9000BDFF1720FFF7BAFF1120FFF7B7FF142092
:101BA000FFF7B4FF4FF40053C1F808354FF400437A
:101BB000C1F808351520BDE80840FFF7A7BF00BFF2
:101BC0000003005030B50F4D8BB039F0A1FB0FCDA5
:101BD00001AC0FC40FCD0FC42B68236001A83CF0EB
:101BE000D1F9FFF719FD012039F00CFC39F0B6FBF3
:101BF000032801D139F0BEFB012039F007FC0BB0FE
:101C000030BD00BF942D040039F07EBB07B502AB98
:101C100023F8020D184639F075FB03B05DF804FB9C
:101C200007B502AB23F8020D184639F06FFB03B07D
:101C30005DF804FB10B54FF470544443204639F06E
:101C4000BEFB0028FAD010BD39F044BB39F053BBBD
:101C500010B5044639F051FB207010BD003018BF9C
:101C6000012039F0D1BB003018BF012039F0CABBC8
:101C7000003018BF012039F0C3BB08B939F07DBB73
:101C800039F083BB08B539F069FBC31E584258418F
:101C900008BD08B539F062FB023818BF012008BD45
:101CA00013B50446032C104608D0042C10D0012C88
:101CB00014D139F0BCFB204602B010BDA1F59C4206
:101CC0000093203A44F62063002139F070FBF3E7DB
:101CD000002102B0BDE8104039F05DBB0020EBE709
:101CE00010B50C46FFF794FC036A013303622046EB
:101CF000BDE810400DF0A6BE39F066BB10B50C462D
:101D0000072942D8DFE801F004171D23292F353BAE
:101D1000FFF77EFC436A01334362012000FA04F4BA
:101D200014F0DA0F03D114F0240F2ED00420BDE8F4
:101D300010400DF0C1BEFFF76BFC836A0133836274
:101D4000EBE7FFF765FCC36A0133C362E5E7FFF722
:101D50005FFC036B01330363DFE7FFF759FC436B61
:101D600001334363D9E7FFF753FC836B013383638C
:101D7000D3E7FFF74DFCC36B0133C363CDE7FFF738
:101D800047FC036C01330364C7E710BD2DE9F04144
:101D900005460E4617469846FFF73AFC046801349C
:101DA000046043463A4631462846BDE8F0410DF00E
:101DB000A7BE000008B506280AD8DFE800F0040D29
:101DC00013191F252B00FFF723FC436801334360E1
:101DD000134B00221A6008BDFFF71AFC8368013319
:101DE0008360F5E7FFF714FCC3680133C360EFE7D6
:101DF000FFF70EFC036901330361E9E7FFF708FC15
:101E0000436901334361E3E7FFF702FC8369013370
:101E10008361DDE7FFF7FCFBC3690133C361D7E7EB
:101E200004A10020003218BF012211B1114639F07F
:101E3000F8BA114639F0ECBA08B5002039F0F4FAD6
:101E40000120BDE8084039F0EFBAF0B58BB01C4670
:101E50000546164613F0A5FE0146284613F08BFFF3
:101E6000022C074621D0032C24D064BB4FF6FF730D
:101E7000ADF8263000230122CDE906230593149BFB
:101E80000493BDF84C300393BDF8483002939DF89D
:101E9000443001939DF8403000930DF12602234613
:101EA000394628461AF068FA10E03378727843EA27
:101EB0000223DDE7304613F09FFA4FF6FF73984296
:101EC000ADF8260004D1284613F066FD0BB0F0BD36
:101ED0000224CFE71FB50021039001AA44F20100BC
:101EE000CDE90111FFF79BFB05B05DF804FBD0E9DC
:101EF0000223D1E90201994208BF90422CBF012080
:101F0000002070472DE900480C4802F071F80C4B96
:101F1000D3E9002312EB000B43F1000C094BD3E98A
:101F200000239C4508BF93455846614603D21BF1E8
:101F300080704CF10001BDE8008800BF1C0000204B
:101F4000D80E0020400F002037B505460C460A4841
:101F500001A902F0BEF960B10570446001A906480C
:101F600002F0E1F918B1054802F046F8002003B08C
:101F700030BD0420FBE700BF080000201C0000204B
:101F80002DE930481A4B1B7804461BB9002528461A
:101F9000BDE830880028F9D090F8203003F0FF0524
:101FA000002BF3D0FFF7AEFFD4E90223994208BF1C
:101FB000904217D323690BB984F82030D4E9053057
:101FC000984721690029E1D094F8203003F0FF05FB
:101FD000002BDBD0D4E9022312EB010B43F1000C00
:101FE000C4E902BC2146034805F0E8FACFE700BF88
:101FF000E00E0020EC2D040013B5114B11491868B8
:10200000019008235822104802F050F9044698B96C
:102010000E4A0F4801A901F0C3FE044660B9012130
:102020000B4801F0C5FF01230A4A0948194601F08F
:1020300023FF094B01221A70204602B010BD00BFD9
:10204000E82D0400E40E002008000020C12000005C
:102050001C000020FFFF7F00E00E00203AB1036863
:102060005A614A1E514251411961002070470720B0
:10207000704738B590F8203004460D4683B9826128
:10208000FFF740FF421941F10003C4E9022323692D
:1020900003B1256121460020BDE83840FFF754BF59
:1020A000002038BD0023014680F820300120FFF7D2
:1020B0004BBF0000014801F09BBF00BF1C00002087
:1020C0002DE9F74F064601F07CFF40B15A49D1E9AE
:1020D000002312F1807443F10005C1E9004500219D
:1020E000304601F07EFF38B1544C236823B120689C
:1020F000FFF746FF002323600121304601F071FF06
:1021000020B1FFF7FFFE4E4BC3E9000101A94D4886
:102110004A4D4D4C4D4F02F016F9002845D1DFF8DD
:1021200028A1464CDFF82CB1504605F05DFA236833
:10213000002878D083B12368D0E90201D3E90223D3
:10214000994208BF90422DD2236893F820301BB1EA
:102150002168504605F032FA504605F03FFAD0E9C2
:1021600002890746FFF7CEFEB8EB000869EB0109CC
:1021700040464B46012873F1000347DB344DA84528
:1021800042D9FFF797FF42194FF4960300215846B2
:1021900001F096FE002841D1236813B9304601F0C2
:1021A00063FE276003B0BDE8F08F0378012B20D0D9
:1021B0000BD3022B14D14FF00008204605F00EFA85
:1021C000002836D080F82080F7E7436893F8202075
:1021D00032B9012283F820204168204605F0EEF94B
:1021E00001A9184802F0DAF801A9164802F0ABF884
:1021F00093E741682B68994202D100232B60EFE7F7
:10220000204605F0F4F9EBE7BA68BDE7002158462F
:1022100001F0DCFE3846FFF7B3FE01E00D28F9D0EF
:102220000023236080E7002BBCD1304601F020FE64
:10223000B8E701233B70D3E7D80E0020480F0020F9
:10224000400F002008000020EC2D0400E00E0020CC
:10225000FFFFB4001C00002043681B681847000003
:10226000024B5B6803B11847704700BF4C0F00205A
:10227000020600F00F034CBF02480348DB0018447D
:10228000704700BF580F0020A00F002008B5FFF7CF
:10229000EFFF016009B9416008BD4B681B684360EE
:1022A000FAE70000024B01465A681868104700BF61
:1022B000A00F00200378052B0CD1084AD2F88434F3
:1022C000D2F8802412F0FF0F04D1054ADBB2052BAF
:1022D00008BF1046034B1B68184700BF0070024040
:1022E0002C2E04004C0F0020012806D002D3022817
:1022F00005D070470348FFF7DDBF0348FBE70348FD
:10230000F9E700BF202E0400242E0400282E04002C
:10231000FFF7D0BF0148FFF7CDBF00BF302E04004C
:1023200038B5831EDBB2062B98BF194A194C98BFEB
:10233000D25C2378A3F10203DBB288BF0022062B14
:102340009ABF1349CB5C00239342054603D0A2B148
:10235000114805F0BDF9022D01D0082D10D101233F
:102360002278022A01D0082A0CD101229A4202D0F6
:1023700053B107F085FA257038BD05F0D3F9EAE7C7
:102380000023EDE70022F1E707F070FAF3E700BF62
:10239000142E0400F10F0020240000202DE9F04F3E
:1023A00087B006AC002644F8106D05468946924673
:1023B00098466B6800225F68294601232046B8478B
:1023C00040B98DF80600049004460746BE4203D883
:1023D00005202AE00136ECE76B680DF10602D3F820
:1023E00004B02946012304A8D8476B680DF1070201
:1023F000D3F804B02946012304A8D8479DF8073034
:102400004B459DF8063015D1544511D1109A1360F3
:1024100088F8003088F801906A68023B54682946C1
:1024200008F1020204A8A047002007B0BDE8F08F21
:102430000134E4B26A68023BD2F804B029460022B3
:1024400004A8D8479DF806301F44BFE72DE9F7439D
:1024500005462E4807F02AFA044600283AD12C4BAC
:1024600018702C4B18602C4B0146186048222B48E2
:102470003DF0E9FC4822214629483DF0E4FC294B87
:1024800065BB294A1D72C3E900251A680AB9264AA4
:102490001A60002005F05AF918B1852801D0FFF71D
:1024A00019FD224E96F80890002506F10908ECB2B5
:1024B000A14504D904EB440414EB080423D102A978
:1024C0000B2301F8043D1948FFF7C6FE044608B186
:1024D00007F096F8204603B0BDE8F08395E80700C2
:1024E00083E80700D1E73146E05CFFF7CFFE637871
:1024F000FAB2934205D9A3781344DC4207F10107ED
:10250000F1D10135D3E70027F1E700BF1123000027
:10251000F10F0020E80F0020EC0F0020580F0020E2
:10252000A00F00204C0F00205D2800005C2E04004E
:1025300010B507F049F908B9082010BD07F04CF9AB
:1025400004460028F8D1044805F01BF90028F4D00F
:10255000FFF7C0FC2046F0E71C2E040007F05AB835
:1025600007F02CBD4FF08043D3F83824920702D5F2
:102570000348FFF79FBED3F83824D107F4D470473F
:10258000312E040007B502A8822300F8043DFFF7AE
:1025900091FE03B05DF804FB2DE9F341037A00F1ED
:1025A00009040325064615FB03452746AC4231D0F6
:1025B0001CB394F80180002106E0E05CFFF758FEB0
:1025C00003680131002B36D1CBB2984503D9A378EB
:1025D0000B44DC42F1D10334E8E73146E85CFFF715
:1025E00055FE6A785FFA88F39A4205D9AA781344AF
:1025F000DD4208F10108F0D10134337AE5B2AB4293
:1026000003D905EB45057D1901D10C4B05E04FF0D1
:102610000008E6E70024F0E713681A68002AFBD1F7
:1026200002A91E600B2301F8043D3046FFF714FE9B
:1026300002B0BDE8F0811120FAE700BFE80F0020EA
:10264000024B1878003018BF01207047F00F0020AF
:1026500000F00F03072B10B5044604D807F046FA24
:10266000204607F069FD2046BDE8104007F018BD80
:1026700007F0E4BC014B1868704700BFE80F00206A
:1026800070B50A4B1B687BB11E7A0022D5B2B542E9
:1026900001D31B68F6E7013202EB42041C44A47923
:1026A0008442F3D101B10D70184670BDE80F0020CF
:1026B0001146FFF7D1BD08B500F00F03082B07D86E
:1026C000FFF7D6FD006818B1BDE80840FFF7C4BDAC
:1026D000102008BD38B5054B05461C6804B938BD47
:1026E00029462046FFF7B8FD2368F6E7E80F0020EB
:1026F00038B5074B05461C680CB9062038BD29467D
:102700002046FFF7A9FD0628F8D12368F3E700BFAC
:10271000E80F002038B504460D4607F008F948B127
:10272000054B1B78022B05D129462046BDE83840D1
:1027300007F000B9082038BDF10F002038B5044675
:102740000D4607F0F4F848B1054B1B78022B05D174
:1027500029462046BDE8384007F05EB9082038BD5C
:10276000F10F0020F8B543689B6805460C461646F5
:1027700013B92EB1072002E098470628F9D0F8BD1A
:102780002B7AA34213D9093504EB44042C4467780F
:10279000F3B29F4201D80020F1E762789A4208D94B
:1027A000A219A378D05CFFF753FF0136F0E77378E6
:1027B000FFDE00231B78FBE770B54368DB68054646
:1027C0000C4603B198472B7AA34213D9093504EB81
:1027D00044042C4400256678EBB29E4200D870BDBC
:1027E00062789A4209D96219A378D05C07F026FC76
:1027F0000135F1E700235B78FFDE00231B78FBE760
:1028000043681B6903B118471846704770B5084BF9
:102810001C6804B970BD267A0025E9B2B14201D323
:102820002368F5E700222046FFF79CFF0135F4E717
:10283000E80F002070B5084B1C6804B970BD267AFB
:102840000025E9B2B14201D32368F5E72046FFF73E
:10285000B3FF0135F5E700BFE80F002038B5047875
:10286000092C054620D023D8032C00F0BC8012D8B8
:10287000012C00F0A68040F28D800320FFF750FD70
:102880000220FFF7EDFC2846FFF724FF2846BDE8AD
:102890003840FFF707BD052CF8D0C0F0B380062CF8
:1028A00000F0BF80082C13D12046FFF7D9FC95E03B
:1028B000812C0ED005D80F2CF6D0802C44D00A2CB9
:1028C000F1E7832C4CD021D3842C53D0852CDDD040
:1028D00038BD5E48FFF7E6FC5C48FFF7FBFE0D20C5
:1028E000FFF7BEFCFFF7A6FF00F057FF584B1B6831
:1028F00053B9584B187A00F0010006F03BFF012055
:10290000BDE83840FFF70CBD0120F4E7FFF792FF68
:1029100007F036FB0020FFF703FD4F48FFF7DAFE14
:102920004D48FFF7BFFC0E20FFF79AFC4B4B1B787E
:10293000023BDBB2062BCBD8494AD35C002BC7D075
:10294000BDE8384004F0EEBE444B1B78062B05D0A2
:10295000072B01D0052BBBD10220D1E70820CFE700
:102960003E4B1B78032BB3D107F042FB0028AFD0BE
:102970000420C5E7394B1B78032B05D107F038FB42
:1029800010B10420FFF7CCFC06F03EFF00289FD0DA
:102990000620B5E7314B1B78032B01D0082B02D161
:1029A0003048FFF75BFF0020FFF75AFC284B1C68FC
:1029B000002C8DD020462946FFF74EFC23685C682A
:1029C000F6E7FFF737FF00F0DFFE0220FFF7A8FC75
:1029D0002046FFF745FC2846FFF764FC2846BDE883
:1029E0003840FFF777BE1D4B1B78082B06D102201D
:1029F000FFF796FC06F04EFF0320EAE70520FFF7FD
:102A00008FFCF9E70320FFF72BFC1748FFF74AFC80
:102A10001548FFF75FFE114B1B78062B9CD1072052
:102A20006EE78078FFF724FC2946436800689847E2
:102A300000283FF44DAFA87800F00F03013B062BB0
:102A40003FF646AFBDE8384007F02AB8322E040002
:102A5000EC0F00204C0F0020332E0400F10F00205B
:102A6000142E0400342E0400352E0400C36903B173
:102A700018477047036800221A845A62DA62C3E971
:102A80001E22C3E9202203F134025A6770474360D3
:102A9000CA699A4227BF8A69026001F1280202606E
:102AA00026BF0B67CB618B6700207047F0B5BB4D2D
:102AB0000C7A2C700468B4F5487F00F0CA8200F2EA
:102AC000DA8040F20236B44200F03E826DD840F225
:102AD000F226B44200F0FB8126D840F2EF26B44241
:102AE00000F0DA81B4F53C7F0BD2002C00F0C281FB
:102AF00040F2EE26B44200F0C58100230360184680
:102B0000BFE100F0D78140F2F126B442F5D10024B4
:102B10000AB106791655013402269C420671C0F0AE
:102B2000D78140F2F223AAE140F2F526B44200F048
:102B3000E78114D840F2F326B44200F0D481B4F512
:102B40003D7FDAD100240AB10679165501340026FA
:102B50009C420671C0F0D58140F2F5238FE1B4F5B7
:102B60003F7F00F0E48140F2FD26B442C5D100244D
:102B70000AB1067916558A4E0F7A3678DFF824C2E4
:102B8000B74204F1010440F2548301F1090706EB56
:102B9000460607EB060E9C42BE5DCCF800E00671CF
:102BA000C0F0D38140F2023369E140F20F36B44203
:102BB00000F00982B4F5447F38D2B4F5427F00F0CA
:102BC000DE811CD840F20336B44200F0C981B4F56E
:102BD000417F92D100240AB106791655714E0F7DBE
:102BE00036683678B74204F1010440F0E1810226EC
:102BF0009C420671C0F0C4814FF442733FE140F241
:102C00000936B44200F0C78140F20A36B4427FF47C
:102C100074AF00240AB10679165501340026A34288
:102C2000067100F2EA814FF4467328E1B4F5467F5D
:102C300000F0E28106D8B4F5447F00F0D08140F284
:102C40001136E3E740F21E36B44200F0EA8100F2AA
:102C5000F48140F21D36B4427FF44FAF00240AB134
:102C600006791655013424269C420671C0F0DA819B
:102C700040F21E3303E140F23236B44200F0538298
:102C80006AD8B4F54A7F00F01C8232D840F225366B
:102C9000B44200F0FD8115D840F22136B44200F074
:102CA000E481B4F5497F7FF428AF00240AB10679A6
:102CB0001655013424269C420671C0F0EA8140F288
:102CC0002533DCE040F22636B44200F0ED8140F2DC
:102CD0002736B4427FF411AF00240AB106791655A5
:102CE00001348E7D06719C42C0F0EC814FF44A7332
:102CF000C5E040F22D36B44200F0FC8115D840F218
:102D00002B36B44200F0E981B4F54B7F7FF4F5AE89
:102D100000240AB106791655013402269C42067138
:102D2000C0F0E98140F22D33A9E040F22E36B442E2
:102D300000F0EC8140F23136B4427FF4DEAE002484
:102D40000AB106791655013424269C420671C0F05A
:102D5000EB8140F2323392E040F24E36B44200F062
:102D6000278246D840F23536B44200F0F5811BD8B0
:102D700040F23336B44200F0E281B4F54D7F7FF487
:102D8000BCAE00240AB10679165501348E7D067159
:102D90009C42C0F0E28140F2353370E0F40F002035
:102DA000F30F0020F80F002040F24936B44200F043
:102DB000F28140F24A36B4427FF49FAE00240AB159
:102DC00006791655AF4EB04F36683F7896F801C079
:102DD000BC4504F1010440F2318296F802C03E4441
:102DE0009C4216F80C600671C0F0E38140F24E334D
:102DF00045E040F25F36B44200F0FA81B4F5587F06
:102E000014D240F25336B44203D0B4F5567F7FF467
:102E100074AE00240AB10679165501344026A34247
:102E2000067100F2E68140F25F3328E040F2653639
:102E3000B44200F0F48140F26A36B44200F0EF810F
:102E4000B4F5587F7FF459AE00240AB106791655BF
:102E50008C4E0F7D36683678B74204F1010440F09D
:102E6000D4810E6A9C4236780671C0F0D98140F256
:102E7000653304E00824047123B940F2EE230360B3
:102E80000120F0BD0AB1047914700B24012B0471E8
:102E90000ED840F2EF23F2E700240AB10679165566
:102EA00001340E7D06719C4205D34FF43C73E6E776
:102EB0000124F2E700240AB10679165501340226EE
:102EC0009C420671FFF424AE40F2F123D7E70024C0
:102ED0000AB106791655013402269C42067103D3C5
:102EE00040F2F323CBE700240AB1067916550134EA
:102EF0004E7E06719C42FFF426AE4FF43D73BEE752
:102F000000240AB106791655604E00270134377047
:102F10005E4E37782E78B74202D340F27533AEE773
:102F20000926A342067103D84FF43F73A7E7002494
:102F30000AB106791655013404269C420671FFF445
:102F400017AE40F2FD239AE700240AB10679165520
:102F5000013400269C42067103D340F203338EE70E
:102F600000240AB106791655464E36680134767843
:102F700006719C42FFF42FAE4FF441737FE70024AB
:102F80000AB106791655013402269C42067103D314
:102F900040F2093373E700240AB10679165501346B
:102FA0004E7E06719C42FFF435AE40F20A3366E76E
:102FB0008F7DB7427FF432AE0A269C42067103D35E
:102FC00040F20F335BE700240AB10679165501344D
:102FD00000269C42067103D34FF444734FE700244C
:102FE0000AB106791655013400269C420671FFF499
:102FF00011AE40F2113342E700240AB106791655AA
:10300000204E0F7D36683678B74204F1010440F057
:10301000A88005269C420671FFF421AE40F21D33C4
:103020002DE700240AB106791655013400269C428A
:10303000067103D340F21F3321E700240AB1067959
:103040001655013410269C42067103D34FF4487381
:1030500015E700240AB106791655013401269C4271
:10306000067103D340F2213309E700240AB106793F
:103070001655013405269C420671FFF417AE4FF435
:103080004973FCE6F80F0020F50F0020F30F002035
:1030900000240AB106791655013401269C420671B6
:1030A00003D340F22633EAE600240AB10679165526
:1030B000013403269C420671FFF40FAE40F2273321
:1030C000DDE600240AB106791655013404269C4237
:1030D000067103D340F22B33D1E600240AB10679FE
:1030E0001655013424269C420671FFF412AE4FF4AB
:1030F0004B73C4E600240AB1067916550134022642
:103100009C42067103D340F22E33B8E600240AB184
:1031100006791655013405269C420671FFF410AE5F
:1031200040F23133ABE600240AB10679165501347A
:1031300006269C42067103D340F233339FE60024F7
:103140000AB10679165501340E7D06719C42FFF4D2
:1031500019AE4FF44D7392E600240AB10679165564
:103160000134374E36687778364E3770364E002742
:103170003770354E3778334E3678B74204D3334FF5
:103180003E7801363E70C3E60726A342067103D897
:1031900040F2493373E600240AB10679165501342A
:1031A00005269C420671FFF40AAE40F24A3366E6F9
:1031B00000240AB106791655214E0F7D36683678FF
:1031C000B74204F1010407D103269C420671FFF4C3
:1031D00021AE40F2533352E68F7DB7427FF41EAEEC
:1031E00002269C420671FFF415AE4FF4567346E674
:1031F00000240AB106791655013400269C42067156
:10320000FFF423AE4FF4587339E68F7DB7420BD1EC
:1032100000269C42067103D340F26A332FE6002455
:103220000AB1067916550134074F3E7801363E70D3
:103230009FE70023CCF800301B78FFDE0023FBE77C
:10324000F80F0020F20F0020F50F0020F30F0020F0
:103250004360CA699A420ED38A6902608A69C86962
:103260001A448A610A6FC01A1A44C86100300A679A
:1032700018BF0120704701F1280202608B6700200F
:10328000704710B5044658B90868037B202B09D154
:1032900000F10E01072218303CF0B1FD204610BDB0
:1032A0000320FCE70620FAE7037A012B08D9427BCA
:1032B000012A00F10C0306D9827B13445878704729
:1032C00000235B78FFDE00231B78FBE72DE9F0434A
:1032D0000B7889B005460E460E2B1AD8DFE813F09E
:1032E0005C0041015C005C0019000F00A6001900A1
:1032F00019003E0119005C005C005C005C004A782B
:10330000D1094FEA521330D013F0030303D0012B3D
:1033100021D006241BE002F01F02012AF9D1B47863
:10332000062CF6D105A8039300F0B4FC03ABF278A9
:1033300031790093074603462846FFF72FF8052802
:1033400005D0039A3946701C00F042FA0446204624
:1033500009B0BDE8F083B378212BDAD1B6F80720A5
:10336000072AD6D101681831EDE7012BD1D1B37806
:103370000768202B12D0222BCBD1B6F80730002BB8
:10338000C7D197F82030B6F803403C8403F001031E
:1033900004F00104A34223D10024D8E7B6F80720A3
:1033A000072AB6D13B73B6F807300024DBB27B7333
:1033B00020460E37CDE90573079400F0DFFC204668
:1033C00005A9FFF7A7F9044630B96B4B03A9CDE96E
:1033D000033500F0EBF90446002000F0D1FCB6E71D
:1033E000A4B2002C0CBF03210221FFF73FFB002CED
:1033F000D2D12B7A012B40F2B8806B7B05F10C0205
:10340000002B00F0B480AB7BD05C06F09BFC284620
:10341000FFF74AFF06F096FC07F134037C62FC627A
:10342000C7E91E44C7E920447B6790E7037A002B75
:1034300000F09F80837A00F10901002B00F0978053
:10344000C27AB3788A5C9A42A6D01B06F4780AD571
:1034500024B1032C0CBF0024032478E70121284663
:10346000FFF704FB73E7012C96D003D3032C93D012
:1034700003246CE70668FFF717FF404B059306F13E
:103480000C030693B76A8046B7B9F36FF46AB7675F
:10349000C6E91F736CB106F12C0103C906F12403C0
:1034A00083E80300F76205A94046FFF747F90446A1
:1034B00000E074620021D2E7D6F88490706A4F452C
:1034C00028BF4F4606F134043A4621463CF097FCAB
:1034D000F36F3B44C6F88030A9EB0703B367F36A88
:1034E00000223C44F2677467002B35D006F12C09AA
:1034F00099E8030006F1240787E803001446F26206
:10350000B36F706A1BB9746A002CCCD1D2E7B26A6F
:10351000716F9A4216D83CF072FCB36AB26FC6F86B
:103520008030D21AB267726F1A447267002128463F
:10353000FFF79CFAF36A7BB199E8030087E8030080
:10354000F462DDE71A463CF05AFCB26FB36AF267E8
:103550009B1AB362736A13447362D4E70321FFF7C3
:1035600085FA2846FFF786FA16E76378FFDE1B78B0
:10357000FCE75B78FAE700BF8332000051320000BD
:103580001FB503681B8CDC0714D5037A012B13D9F4
:10359000437B00F10C0493B1837BE05C9306CDE99F
:1035A00001120CBF0123002301A90393FFF7B2F816
:1035B00004B010BD0820FBE700235B78FFDE1B781A
:1035C000FCE70368D3F88000704700002DE9F34161
:1035D0000468238CDB0706468846174631D5002051
:1035E00000F0CCFBA56FBDB1BD4228BF3D46616F69
:1035F0002A4640463CF003FCA36FC4F880505B1B96
:10360000A367636F2B4463670024002000F0B8FBBE
:10361000204602B0BDE8F081636A83B9C4E9098736
:103620003046FFF741FE0C34074B01946946009386
:10363000FFF784F8002814BF04469224E5E711241C
:10364000E3E70824E4E700BF8F2A0000002070476A
:103650002DE9F04F87B04B68029281460C465BB96A
:103660000B681B681B683BB98D682DB9C0E9005514
:10367000284607B0BDE8F08F06F00EFAE768029B17
:103680009F4228BF1F464FF0000804F110038346F5
:103690000197464601250393019B002B2DD0A3687B
:1036A000019A616893429A4628BF924641B35246B6
:1036B0000BEB06003CF0A3FB00236360A268E36809
:1036C0000199A2EB0A02A3EB0A03A1EB0A01A26093
:1036D000E360019156440ABBB8F1000F38D022686C
:1036E000126812682260002B30D02368D3B963605F
:1036F0001EB1029BB34288BF0025C9E900B6B7E7F7
:10370000002BDBD0216803984B680BEB0602D3F843
:1037100004805346C0474FF00108CFE7002B08BF95
:103720000025B9E70DF1180A00234AF8083D216881
:103730004B685B6800221F4650460123B84708B912
:103740002061A9E7A3680133A360F0E71D46A3E762
:10375000002BCAD145469FE7084B1A7882420CD00D
:10376000052818BF064A187018BF137805481CBFF3
:1037700023F002031370FFF771B8704708100020A0
:10378000241000206C2E040008B50020FEF760FF16
:103790008020BDE80840FEF75BBF08B50020FEF7BB
:1037A00067FF8020BDE80840FEF762BF38B50546D8
:1037B0000C4606F017FAA84203BFD4E90001034BF8
:1037C000C3E90001102008BF002038BD28100020E8
:1037D0007FB5C38893421D4628BF154693420E46C7
:1037E000144620D9802006F09DF8B4FBF0F303FBCB
:1037F0001040B0FA80F0400903900020CDE9016547
:1038000000F0BCFA01A98020FEF784FF044620B92D
:1038100006498020FFF7CAFF0446002000F0B0FAF6
:10382000204604B070BD0020E6E700BFA02E0400D3
:103830002DE9F04F0C78062C87B00E4600F0FC8185
:1038400020D8022C3DD003D8012C32D00624EDE143
:10385000032C32D0052CF9D10DF10D00B04D8DF8AF
:103860000C4006F053F900232B609DF80D3003F057
:103870001F02032A00F28481DFE812F02D001D01EF
:10388000790165000D2C00F0C58107D80B2C18D0EC
:103890000C2CDBD10020FFF75FFF12E00E2C00F0B4
:1038A000C981852CD2D19F4B1B78032BCED104200C
:1038B00000E00320FFF750FFC8E79B4800F0D0FD71
:1038C00008B90024B2E1994B01221A60BFF36F8F4F
:1038D000BFF34F8FF5E7C3F34116A6BBDB099DF895
:1038E0000E1000F0A280062916D0082900F0908062
:1038F00049BB8F4C022220463CF0A5FA237843F0C6
:10390000010222708B4A1278910744BF43F00303EF
:103910002370022286490EE09DF81030022B16D04B
:10392000032B65D0012B0ED1BDF81330002B00F016
:103930006E81814912220DF10D00FFF749FF044607
:10394000062C40F0258103A8FEF7D2FE0DE1BDF85C
:103950001370002F00F05B81092F28BF0927FEF7A5
:1039600089FE4FF009080446B14654BB704C7349B8
:103970003A4620463CF043FA2671A4F80280FEF74E
:103980005FFE18B1E37943F02003E371FEF772FEA6
:103990006B4BC3E900049F60BDF81320DA60002080
:1039A00000F0ECF967498020FEF7C8FE044620B914
:1039B00065498020FFF7FAFE0446002000F0E0F998
:1039C000BEE7CDF804904FF0000A63680022D3F8F8
:1039D00004B02146012301A8D84730B9237A1E44F8
:1039E0002368D044F6B21C68BFE70AF1010AECE78D
:1039F000BDF81330002B00F00A81BDF811109DF8BE
:103A00000F0000F095F9014600289CD0027892E75B
:103A1000444A1278052A03D1454A1370012279E7F6
:103A2000042A90D1424B1E70F8E703290FD00929D0
:103A30002BD0012987D1BDF80F30012B83D1FEF7A0
:103A4000FFFD60B13B4A137823F002030FE0BDF89D
:103A50000F30012B7FF477AFFEF7F2FD18B90F247A
:103A600006F0BDF8E2E0334A137843F00203137026
:103A70002B68002B00F0CB8006F0B4F80446002839
:103A80007FF41FAF06F068F8D0E0264B1B78043BAC
:103A9000012B01D90824E3E79DF80F302BB9FEF77D
:103AA000C9FE0420FFF758FEE2E7012B56D1FEF7CE
:103AB000ADFE0520F6E701A99DF81100FEF7E0FD37
:103AC000074608B91024CBE703AA9DF80410FEF7B7
:103AD000EFFD062804465BD19DF80D2012F0600F23
:103AE000BED1104B9DF8041018789DF80E30D60901
:103AF0002CD073B10A2BB3D10528CBD13846FEF7B1
:103B00007FFE0B49324608700DF10D00FFF760FE95
:103B10002BE00528BED106490B800222F4E700BF46
:103B20002810002008100020301000205C70024097
:103B300034100020241000208C2E04006D2E040070
:103B40000C100020B82E0400A02E04000B2B87D1EF
:103B500005289FD1BDF80F30FF2B01D907247FE73F
:103B60009DF80F203846FEF7FDFD044610E09DF855
:103B70001100020706D19DF80D3013F0600F0BD035
:103B800006246DE703A9FEF796FD06280446F2D049
:103B9000002C3FF46DAF63E79DF80E20384B9DF885
:103BA00011401B78012A1ED012D3032AE8D104F059
:103BB0000F02072AE4D8BDF80F100029E0D1052B29
:103BC00002D0002A7FF466AF204605F069FF4FE778
:103BD000052B02D023077FF45DAF204605F06CFF74
:103BE0002849088099E704F00F02072AC8D8BDF8D1
:103BF0000F100029C4D1052B02D0002A7FF44AAF50
:103C0000204605F073FF204606F096FA30E705F0EF
:103C1000E3FF56E64FF08043D3F8384414F0010434
:103C200001D0022037E60120FFF796FD204607B0BD
:103C3000BDE8F08F01202EE6C8780328F6D0124D9B
:103C40002B68D3B100222A6069689847044600288F
:103C50007FF406AF2B6823B1B378002B7FF431AE2D
:103C600010E70A4B1B68082B04D1094B1B68002B7B
:103C70003FF427AE05F0B0FFD8E70E24F0E600BF12
:103C800008100020341000202810002030010010FF
:103C90003401001008B1402303600148704700BFA1
:103CA0003410002070B54FF0805286B0D2F8A830A2
:103CB000D2F8A42000926FEA83436FEA934302ADE7
:103CC0009BB2094A094E0D2128463CF043FD0024D1
:103CD00028463CF001FE844201D306B070BD2B5D46
:103CE000A3550134F4E700BFC02E0400C48E0020A9
:103CF00010B50E4B53F8204023780BB9A01C10BD13
:103D00000020FFF7C7FF2246E4B2131B12F8011B85
:103D1000DBB231B901335B00DBB243F440730380A3
:103D2000EDE7131BDBB220F81310EEE7182F0400A9
:103D300008B9FFF7DDBF052807D8054A105C20B198
:103D4000044B53F82030002BF3D10020704700BF04
:103D5000302F0400182F040072B6024A1368013392
:103D60001360704774100020034A1368013B13600E
:103D700003B962B6704700BF74100020FFF7ECBFB4
:103D8000FFF7F2BF435882B03BB100234350435882
:103D90000193019B012002B070471846FBE7000029
:103DA00070B5284C4379284D44F82320274C04EB68
:103DB000C3031B7973B16B88012B09D92448254BA8
:103DC0002549C01AC008000440F00200FDF706F9BA
:103DD000082070BD03680A88C3F8082590F90430EC
:103DE0008A78002B4FEA4212AFBF03F1604303F021
:103DF0000F031A49D2B2A9BF03F56143CA54D2B224
:103E000083F8002390F9043015495E09012203F07C
:103E10001F0302FA03F341F82630437904EBC30190
:103E200044F833006B880A71022B09D90848094B02
:103E30000C49C01AC008000440F00300FDF7CEF89A
:103E40000020C6E7801000205C05002078100020CC
:103E5000C880040078800400462F040014ED00E0C0
:103E600000E100E0682F0400036801221A60704737
:103E7000036801225A607047F7B505684FF4803433
:103E80008C40C5F808430568C5F848438D0005F522
:103E9000A0750668ADB20027775175590195019D4F
:103EA000056801F5A87122F07F4245F821200268DB
:103EB000C2F8444313B10368C3F8044303B0F0BD30
:103EC0002DE9F34799464FF48038036808FA01F862
:103ED000C3F848830368C3F8088322F07F4502686B
:103EE0008E000F46D2F80415324406F5A076D2F8BB
:103EF0004035C2F84015B6B202684FF0000A42F8E9
:103F000006A05B1A9259009223F07F43012B0446CE
:103F1000009A0BD1254B4FF4806043F00103984782
:103F2000236843F806A09B590193019B2368D3F8AB
:103F30000465C3F84483AB1B23F07F43012B07F5D3
:103F4000A877236819D1013543F82750174B4FF450
:103F5000806043F0010398472368D3F804359E42FC
:103F600009D12368C3F8448323680020C3F804837D
:103F700002B0BDE8F0870D20FAE743F8275020682B
:103F8000D0F804156A1A013AC9F1FF1322F07F42F2
:103F900003F57F439342EED3002AE2D1013540F886
:103FA00027502368D3F804359942D9E7402F0400FD
:103FB00002680223C2F8443311B10268C2F8043324
:103FC00070474FF482710068FFF7DCBE4FF4803316
:103FD00003FA01F10368C3F848130368C3F8081330
:103FE0007047890001F5A07189B20068FFF7CABE69
:103FF0000368D3F80405704790F9043001215A0989
:1040000003F01F0301FA03F34032024941F8223062
:10401000704700BF00E100E0024B034A1B681068D4
:10402000184700BF801000207810002038B50B071B
:1040300004460FD53BF0B4FE651C435D03F003035B
:10404000012B07D13BF0ACFE435D03F00303012BD2
:1040500008BF2034204638BD2DE9F04F87B08A468E
:1040600014460293064618B9012007B0BDE8F08F48
:104070000029F9D0029B002B00F0138102F0040309
:104080000D46049321463078FFF7D0FFC7B23F2F8B
:1040900006F1010823D00BDCD7B12A2F38D02146F6
:1040A0002878FFF7C3FF874205F101061FD0DBE741
:1040B0005B2F7DD05C2FF2D1E307F0D421467078DE
:1040C000FFF7B4FFC7B2002FE9D006F10208E6E718
:1040D000E106287839D52F2837D10020C5E72B787D
:1040E000002BC1D02F2B05D1A207BDD46E1C3546A5
:1040F0004646C7E72E2BF9D1049B002BF6D0554539
:10410000B2D0A307F2D515F8013C2F2BEED1ABE7C7
:1041100070782146FFF78AFFC1B22A2919D02B787F
:104120002E2B09D1049B3BB155459DD0A70703D544
:1041300015F8013C2F2B97D079B9A607CDD5E40609
:10414000CBD42F2128463CF0A8FB003018BF01201B
:104150008BE7214618F8010FDCE72F291FD0029BBF
:1041600024F004095F1E04F0020AAB4621469BF8C6
:104170000000FFF75BFFC6B20135002E3FF474AFBD
:104180003B464A4659464046FFF766FF01287FF402
:104190006CAF2F2EE9D1BAF1000FE6D064E7A0078B
:1041A000DDD528463CF079FB064600289FD15BE729
:1041B000287800283FF458AF2F2802D1A1073FF5F7
:1041C00053AF2146FFF732FF8346B8F1000F3FF4AB
:1041D0004BAF7378212B01D05E2B25D10236012302
:1041E0000122019304EA02034FF0000903932146E0
:1041F00030780592FFF71AFFC3B25D2B06F1010775
:10420000059A14D112BB019B4B453FF42DAF002FF3
:104210003FF42AAF7A1C04D12B785B2B7FF424AFB8
:1042200047466E1CB84662E746460023D8E72F2B68
:10423000F2D05C2B07D1039A42B921467078FFF780
:10424000F5FEB71CC3B2002B3FF40EAF3A782D2A0F
:1042500021D1214678780593FFF7E8FEC0B2059B8F
:10426000C8B15D2817D05C2807F102060BD1039A6C
:104270004AB92146B878FFF7D9FEC0B200283FF40A
:10428000F3AE059BFE1C9B4503DB8345D8BF4FF077
:1042900001090022ABE73E469B4508BF4FF00109EC
:1042A000F7E70320E1E64023FFF7D6BE10B561B182
:1042B000B2FBF3F403FB1424A4B244B9C0E9001424
:1042C00084608281C381204610BD0E20FCE7092056
:1042D000FAE737B550E8013F9DB2C4892544848987
:1042E000A54228BF2D1B0489A54202BFBFF32F8F13
:1042F000002207E0C5EA030540E80154002CE9D19B
:104300004FF001028DF803200193019B9DF80320DB
:104310000B6002F0FF0322B10B880068184403B061
:1043200030BD1846FBE70A884B889A4209D150E80D
:10433000012FC2EA024240E80123002BF7D10120FD
:1043400070470020704737B550E8023F1FFAA3F5C9
:10435000C488A54202BFBFF32F8F00220DE0C4899D
:1043600025448489A54228BF2D1BC3EA054540E8A2
:104370000254002CE8D14FF001028DF80320019384
:10438000019B9DF803200B6002F0FF0322B14B88D4
:104390000068184403B030BD1846FBE70A884B8814
:1043A0009A4209D150E8022FC2EA224240E8022391
:1043B000002BF7D1012070470020704750E8002FF4
:1043C0000B4640E8003C9CF0000FF7D110467047C8
:1043D00050E8002F42EA010340E8003C9CF0000F47
:1043E000F6D11046704750E8003F43EA010240E82A
:1043F000002C9CF0000FF6D11046704750E8002FBB
:1044000002EA010340E8003C9CF0000FF6D11046A0
:10441000704750E8003F03EA010240E8002C9CF09E
:10442000000FF6D11046704750E8003F03EB010241
:1044300040E8002C9CF0000FF6D11046704750E881
:10444000003FA3EB010240E8002C9CF0000FF6D1E6
:10445000104670470121FFF7BBBF0121FFF7C3BF23
:104460000021FFF7CBBF0021FFF7D3BF2DE9F043B9
:104470008368D3F85463C6F3400689B0074636B163
:104480000022114609B0BDE8F04301F017BE012932
:1044900006D91E4A022109B0BDE8F04300F054BC21
:1044A0001B4C1C4DDFF870901C23E2182D1B4FF0A5
:1044B0006408B5FBF3F503FB05251C34AC4202D1BF
:1044C00009B0BDE8F08354F81C0C54E906230179C7
:1044D00000689A1A1B1ADBB2039308FB03F3B3FBC1
:1044E000F2F3CDE9016334F8043C0093CDE9061200
:1044F00054F8083C11FB08F13846B1FBF2F1CDE964
:1045000004214A46082100F01FFCD6E7A42F04002E
:10451000B081040004820400B72F040010B590B1EC
:10452000D0E9012301689B1ADBB20A60013BDBB2D0
:10453000FF2B026802D10020107110BD11684C1CC5
:1045400014600B70F2E70E20F7E738B50446002040
:10455000FFF714FC2268616813688B4215D9591E55
:10456000116013F8015C228BE36802FB05352268B9
:10457000A36811685B1A1179DBB2994200D21371FA
:104580000020FFF7FDFB284638BD0025F8E738B5C9
:10459000054600200C46FFF7F1FB2A681368591CFA
:1045A0001160E968641A298BB4FBF1F41C700020D7
:1045B000BDE83840FFF7E4BB30B18A68B2F8543345
:1045C00043F02003A2F85433704710B543689C6849
:1045D0006068036801219B689847A36810B90322AB
:1045E0001A7010BD0422FBE7096800683CF062B94C
:1045F00008B13CF071B9704710B50446FFF7F8FFF9
:1046000023462044834201D1002010BD13F8012B22
:104610003F2A01D02A2AF5D10120F6E738B5054610
:10462000836800681C8DFFF7E3FFAB68DA8B2044DA
:10463000B0FBF2F302FB1300B0FA80F0400938BD82
:1046400010B584680068FFF7D3FF238DE28B84F8F0
:104650002000C0B2034493FBF2F102FB113301339B
:10466000A382E38C01311844218390FBF2F3591C9F
:1046700002FB130301336183E38204F1140010BDD4
:1046800038B5054683680068DC8CFFF7B1FFAB687E
:10469000DA8B2044B0FBF2F302FB1300B0FA80F097
:1046A000400938BD2DE9F047089C1E4609BB1B4F49
:1046B0001B4CE41BE4089442B94606D91948E500AE
:1046C00000EB82080C46A54201D100230EE009EB65
:1046D0000403D8F800005B6819683CF0EBF807EBBE
:1046E000040A08340028EED1DAF804303360BDE85B
:1046F000F0870028E9D00178436839B12146104697
:1047000098472368002BE0D03460F0E71201991835
:104710009B58002BD9D03160E9E700BF208004000E
:10472000688004001005002030B50368D3F84C53AE
:1047300085B00446EDB100230A2201A9284602F003
:10474000FDFB2368029AC3F84C2300210A2201A82A
:104750003BF079FB00230A2201A9284602F0E3FB83
:10476000284602F088FB2368D3F84C0318B9C3F835
:10477000480305B030BD01A900230A2202F0DEFB88
:10478000206800230A2201A9D0F84C03019302F00B
:10479000CAFBEEE707B58368C9B193F822208A42C5
:1047A00012D00D4A009233228DF8042001F12F021D
:1047B0008DF805206D22ADF8062083F822106A4698
:1047C0000649006901F053FF03B05DF804FB83F86C
:1047D0002210034AF4E700BF1B5B313B4732040061
:1047E000D830040007B5836893F823208A4214D098
:1047F00045F61B32ADF8002034228DF8022001F17D
:104800002F0283F823108DF803206D22ADF80420C9
:10481000034900696A4601F02AFF03B05DF804FB12
:1048200047320400014901F022BF00BF4B320400AF
:10483000014A024901F01BBFCE3004004732040098
:104840002DE9F84F0025074688461446056026786E
:1048500066B13BF0A5FA3044437813F008030CD05E
:104860000023237001343B680B2BF0D93B680022F6
:1048700048F823202846BDE8F88F3A68511C396073
:1048800048F822401D4694F80090B9F1000FEAD094
:10489000002D40F08A80B9F1270F05D0B9F15C0FE7
:1048A0000ED0B9F1220F79D12046FFF7A1FE611C8D
:1048B000024620463BF0AEFA4D4626463446E2E735
:1048C000661C2046FFF794FE3146024620463BF028
:1048D000A1FAF3E7B9F15C0F01D0661CEEE760784E
:1048E0008542EED0302825D102234FF00009E05C4C
:1048F000A0F13001C9B207295FFA83FA17D8013352
:1049000041EAC901052B5FFA81F9F0D19A462046A8
:10491000FFF76EFE0AF1FF3BA344821CA2EB0A02E2
:10492000594620463BF076FA84F80090C6E7BAF183
:10493000020FECD17828D0D102214FF00009635C3E
:10494000A3F13002D2B2092AC8B214D842EA09133C
:1049500003295FFA83F90CD14FF0040B2046FFF7CF
:1049600047FE0BF1FF3AA244821CA2EB0B02514618
:10497000D7E70321E3E7A3F16102052A03D8573BF8
:1049800043EA0913E4E7A3F14102052A01D8373BC2
:10499000F6E70228A1D04FF0030BDFE73BF000FA67
:1049A000484443781B0798D55DE7A94504F1010603
:1049B00090D12046FFF71CFE3146024620463BF0D0
:1049C00029FA002579E72DE9F34106460F461446FA
:1049D000002514B902B0BDE8F08170680368224672
:1049E000D3F80C80791901ABC047019B1D44E41A30
:1049F000002BEED1B3681A78032AEAD0D3F85423F7
:104A00009206FBD5B3F854236FF34512A3F8542351
:104A1000DFE700000A4619B10249006801F027BE2D
:104A2000704700BFF43004002DE9F74F05461746E4
:104A30000E46002975D00C463BF0B2F9A4EB060AED
:104A400014F8013B184443781A07F5D41FFA87F984
:104A500005F110083046FFF7CBFDAB68DB8BA0EB10
:104A60000A00DB1B98424FF0000406EB0A0B15D935
:104A700001933BF095F91BF80420019B1044417809
:104A800011F0080F02D00A2A2FD02346A968C98B3B
:104A90003A198A4228D20134EAE70134A04218D0F8
:104AA0001BF804300A2B0AEB0408F6D1286901F040
:104AB000D3FD22462C4659462846FFF784FF54F87A
:104AC000100FFFF7AFFEB9B2204608F1010AFFF759
:104AD000A1FF286906EB0A0101F0C9FD286903B0AE
:104AE000BDE8F04FFFF79EBE1C46286901F0B4FDFB
:104AF000224659462846FFF766FF544434443BF0AB
:104B00004FF9A4EB060A14F8013B184443781B073D
:104B1000F5D42869FFF786FE49464046FFF77AFF3D
:104B200098E703B0BDE8F08F0A4619B10249006862
:104B300001F09DBD704700BFEE3004000A4619B178
:104B40000249006801F093BD704700BFFA300400CD
:104B500070B50546FFF774FD037B02888188013339
:104B60009A42044601D1012915D0012905F1100608
:104B700004D9013989B23046FFF7E0FF2388217B51
:104B80008B4209D9013B591A89B23046FFF7CCFF55
:104B9000AB6800221A8570BDC91A013189B230464E
:104BA000FFF738FFF4E7F8B50546FFF749FD04467F
:104BB0008788C6882846FFF731FD78B12869FFF756
:104BC00031FEB74205F110050ED161882388C91A5C
:104BD000284689B2BDE8F840FFF7A6BF2846FFF790
:104BE0004FFD0028EAD1ECE7A388E188C91A89B211
:104BF0002846FFF7A3FF238861888B42E7D9591A1B
:104C0000284689B2BDE8F840FFF704BF38B505462D
:104C1000FFF716FD028843889A4204468388C288BB
:104C200001D1934214D09A4205D9D21A92B20B49BB
:104C3000286901F01CFD238861888B4205F1100072
:104C400007D9591A89B2FFF76FFFAB68DA8C1A855A
:104C500038BDC91A89B2FFF7DDFEF6E7E830040077
:104C6000F8B51E46C3685B689860044640680368F0
:104C700017461D682E4A2346A847054600284DD1F1
:104C8000606902F0F6F80546002847D1A368C3F82A
:104C90004803A368C3F84C0301464FF45672A0685A
:104CA0003BF0D1F8A268DFF898C0B2F8543343F073
:104CB0002003A2F85433A368B3F8542367F38202A5
:104CC000A3F85423A268B2F8543343F00803A2F8BF
:104CD0005433A36801221A70A3685022DA83A368B0
:104CE00018229A83134A144B9B1AD80829468142EA
:104CF00016D1072B04D9114B114804223BF0AAFB13
:104D000066B19DF81810E068FCF712FA0028A1BF00
:104D1000E368DB6801225A71B8BF04252846F8BD54
:104D200002EBC1077F683F684CF821700131DEE774
:104D3000B94500002080040068800400E9450000B7
:104D400010050020FFF73FBE0CB4F7B508AB02AD6D
:104D500053F8046B45F8043D0F468168D1F854338D
:104D60005B07044621D591F82230BB421DD00222B8
:104D7000223168463BF043F839462046FFF70AFDEA
:104D80002A463146206901F0EFFC9DF800102046CC
:104D9000FFF700FD9DF8011011B12046FFF722FD3D
:104DA00003B0BDE8F04002B070472A4631462069A2
:104DB00001F0DAFCF4E700008168002281F82C2081
:104DC00081680A858168CA840368024A0321FFF763
:104DD000BBBF00BF4732040070B583681E78012E48
:104DE00004461AD14068036800219B68984705462D
:104DF00088B908212046FFF7CDFC31462046FFF751
:104E0000F1FC2069064901F032FCA36802221A7005
:104E10002046FFF7D1FF284670BD0825FBE700BFFD
:104E20004A320400F8B504468068C58CAB18B3F567
:104E3000C07F0F4616463BDA002A39D0038DED1AA3
:104E400003F12C0113442C33ADB201446A1C184405
:104E50003AF0E0FFA068038D2C33324639461844FF
:104E60003AF0D8FFA0682C30FFF7C2FBA368D884C3
:104E7000A268138D2C33134420460E4A0821FFF7F5
:104E800063FFA3681A8D32441A852046FFF7C6FBDC
:104E900040B12069FFF7C6FC55B12046BDE8F84097
:104EA000FFF781BE2046FFF7EBFB0028F1D1F3E7C7
:104EB000F8BD00BF473204002DE9F0410446806888
:104EC000D0F85433C28CC3F30008038D5FFA88F71F
:104ED000D51A0E46ADB2002F3FD1B2F5BF7F41D8F3
:104EE0003DB103F12C012D3301442A4618443AF018
:104EF00091FFA3681A8D134483F82C60002F73D19F
:104F0000A268D38C01339BB2D384134483F82C80E2
:104F1000002D73D02046FFF793FB8288C3889A4206
:104F200022D1A268138D2C33134408212046354A20
:104F3000FFF70AFFE91B89B204F11000FFF7F4FD47
:104F4000A268138D013313852046FFF767FB20B35A
:104F50002069BDE8F041FFF765BCB2F5BF7FC8D955
:104F6000002DC6D1BDE8F081274A2649206901F00D
:104F70007EFBA268138D2C3313440821214A20465E
:104F8000FFF7E2FE214A1F49206901F070FB20492A
:104F90000122206901F06BFBD2E72046FFF770FB8E
:104FA0000028DFD02046FFF74BFBC2888388013AF8
:104FB000D21A92B2054604F110061AB115492069B9
:104FC00001F055FB2069FFF72DFCE988AB88C91A71
:104FD000304689B2FFF7B2FD29880139304689B2DF
:104FE000BDE8F041FFF716BD002D93D1A268D38C28
:104FF00001339BB2D384134483F82C5032460649C4
:10500000C7E700BF47320400D2300400D5300400A7
:10501000F4300400E830040068280400F0B585B0DE
:10502000826800250446CDE90155ADF80C50D2F850
:1050300050630F46002946D1002E3FD0FFF788FD70
:10504000A0683B460A22D0F8500301A901F076FF80
:10505000A368029AC3F85023A068D0F85033C58CD7
:10506000002B50D100F5D670FFF7C2FAA36838B311
:1050700003F5D67103F12C003BF026FCA0682C3020
:10508000FFF7B6FAADF80C00A268BDF80C30138536
:10509000A268AB42D38402D22069FFF7C9FBA368A0
:1050A0002D4A20462C330821FFF74EFE2046FFF7FD
:1050B000B5FA00284AD02069FFF7B4FB05B0F0BD6F
:1050C00083F82C00DAE7D2F84C33B342F6D0D2F8AA
:1050D0004833002BF2D0FFF73BFDA368D3F8500311
:1050E00040BB03F12C00FFF783FAA368D3F84823F1
:1050F000C3F8502385B2A068CDB100F12C0100F5B2
:10510000D6703BF0E1FBA06801A900230A22D0F889
:10511000500301F013FFA068BDF80C2000F12C0132
:105120000A230132D0F8500301F008FFACE780F801
:10513000AC51E8E72B460A2201A901F0FFFEA36863
:10514000019ABDF80C50C3F85023DCE72046FFF766
:1051500097FA0028AFD1B1E74732040038B50446CA
:105160008068038DC58CED1AADB2002D40D003F1DF
:105170002D012C3301442A4618443AF04BFEA26814
:10518000D38C013BD3842046FFF75AFA8288C38828
:105190009A4215D1A268138D2C3313442046154A28
:1051A0000821FFF7D1FD54F8100F1249124A01F0FF
:1051B0005EFA691E204689B2BDE83840FFF7B4BCEC
:1051C0000E4A0C49206901F052FA2069FFF730FBC2
:1051D000A268138D2C3313442046064A0821FFF79A
:1051E000B3FD2069064A0349BDE8384001F03FBAE3
:1051F00038BD00BF47320400DC300400D230040068
:10520000D5300400F0B5C3685B6891B004460D4624
:10521000002203A9186801F0FCFF002840F09380E9
:105220009DB1039801F070FEA268D2F844330133B7
:10523000C2F84433A368D3F8443303F00703012BC7
:1052400003D00125284611B0F0BD2046FFF7F8F93C
:1052500081880129064605D9013989B204F1100077
:10526000FFF76CFC3188012905D9013989B204F1B5
:105270001000FFF759FC2069FFF7DAFA2DB1334A25
:1052800002212046FFF760FDDCE70023082204A985
:10529000039801F053FE069B0793BDF81430ADF858
:1052A0002030BDF81630ADF8223001238DF82530BE
:1052B0009DF8103003F00302012A25D1BDF81050EB
:1052C000049E0398C3F3C203C5F383158DF82430FD
:1052D000AA0008230AA901F031FEC6F39526236926
:1052E00000932A4607AB0AA93046FBF7C3FF039891
:1052F00001F00AFEE3685B68002203A9186801F068
:1053000088FF0028C1D09CE7022AF0D1BDF81250D6
:10531000C3F3C203AD098DF824300827082D2E46AB
:1053200028BF08263B4632460AA9039801F006FE2C
:10533000AD1B236907AA31460AA83744FBF7FEFFD5
:10534000002DEBD1D3E700257CE700BFA03004009F
:10535000436801219868FFF755BFF7B54768019189
:10536000BC68A3681E78042E0ED001A9386801F02D
:1053700056FE054650B9019801F0C2FD032E03D137
:1053800029462046FFF73EFF03B0F0BDF11E18BFCF
:1053900001212046FFF736FFE7E700002DE9F04F37
:1053A00004468068A5B0102100F55570FFF71BF882
:1053B000A3681B78022B40F0DC8000230B9303933F
:1053C0006068036801221D690DF12B010BABA84732
:1053D0000B9B002B00F0B4809DF92B30002BEFDBF2
:1053E00001F0D2FDA3685A78012A00F0DD854BD385
:1053F000022A40F05186039A5A70A368D3F85423C6
:10540000110740F19D809DF82B20313A1B2AD7D8F7
:1054100001A151F822F000BF63600000716000003C
:105420009360000055600000C1530000C1530000AC
:10543000C1530000C1530000C1530000C15300001C
:10544000C1530000C1530000C1530000C15300000C
:10545000C1530000C1530000B55F0000C15F0000F0
:10546000C55F000013600000C153000059600000D8
:10547000C153000067600000C1530000C153000029
:10548000C1530000756000009DF82B500D2D38D0E1
:105490000A2D36D0B3F854236FF38D12A3F854239A
:1054A000092D00F0358300F21383002D88D0082DDC
:1054B00000F013853AF074FC9DF82B1008444378F3
:1054C00013F0970F3FF47CAFA368D3F8542315076C
:1054D000C2F3C00000F15B84DA8CB2F5BF7F3FF607
:1054E0006FAF1A8D551C1D85134483F82C10A368CB
:1054F0001A8D134483F82C00A268D38C0133D38413
:105500005EE7D3F8542312F47F5F3FD0D3F85423DF
:10551000C2F387129542C3D1B3F8541362F38D11CD
:10552000A3F85413A368DA8C92BBC3F85023206904
:10553000FFF778F9A36802221A702046FFF73CFCB7
:1055400000212046FFF75EFE98B12368BC4A032184
:105550002046FFF7F9FBA368D3F85423120708D5B8
:1055600020462C33B64A0821FFF7EEFB2046FFF712
:105570001AFB206901F070F8A0686FF0100100F5C7
:105580005570FEF746FF25B0BDE8F08F2A46C3E709
:1055900093F82C30002B40F08880A0682C30FFF767
:1055A00027F8A368002687B2C3F850632FB3A36817
:1055B000D3F848033D46002800F0BC8033460A2259
:1055C00017A901F0BBFCBDF86430BB4240F0B280CB
:1055D000A0680A2300F5D6717A1CD0F8480301F0C0
:1055E000ADFCA06800F5D6712C303BF063F9A368E0
:1055F000002840F09D8083F8AC01A0684FF4C07291
:10560000002100F5D6703AF01EFCA068C28C00F1B3
:105610002C0100F5D6703AF0F2FBA66806F5D676B6
:105620003046FEF7E5FF3EB14FF0000885B2C346B5
:105630006B1E9845C0F2C780A06800F5D670FEF7D3
:10564000D7FFA368013058852046FFF7DFFA2046D0
:10565000FEF7E4FF10B92069FFF7E4F8A26817A984
:105660002C320CA8FFF7ECF80C9A0346002A3FF402
:105670005EAF002840F0EE80724F734EF61BF608C6
:105680000546AE42179B40F0EB80704A0092022123
:105690006F4A2046FFF758FB4CE70135B5F5803FD0
:1056A00004D1002283F82C2077E700253AF078FB1C
:1056B000A3685A19AEB292F82C201044427812070F
:1056C000EBD476B1DA8C03F12C000132521B411974
:1056D0003AF0A0FBA268D38C9B1BD384A368DA8C1E
:1056E0001A85A568EB8C2B331D442F46B8463AF03B
:1056F00057FB98F800301844EE1B437813F008026B
:10570000B6B207F1FF37F1D1A368D98C01F12B00B4
:10571000184480453FF441AF891B0B4483F82C208B
:10572000A268D38C9E1BD684A368DA8C1A8534E7D2
:1057300083F8AC6108270B3504EB0708294660693C
:1057400001F0AFFB0646002837D0A368D3F8480322
:10575000C8B9C3F84863A368C3F84C63CDE9170020
:10576000A368DB8CADF8643017A9304600230A2209
:1057700001F0D9FBA168CA8C0A2301322C313046D2
:1057800001F0D1FB39E700230A2217A901F0D6FB6B
:10579000A068189600230A2217A9D0F8480301F040
:1057A000C2FB00231893A368D3F848231792DA8C1E
:1057B000ADF86420C3F84863D6E74046FEF7B4FF6F
:1057C000013FBBD119E73AF0EBFA16F8081008448C
:1057D00008F1010341789AB20F07029204D45F46A0
:1057E000DDF80880BB4623E7029A4FF00009B118A4
:1057F0001FFA89FC0BEB0C079C441FFA8CFC6545D7
:10580000BFB2EDD9CDE903313AF0CAFA0499039B4E
:1058100011F809C0604401EB090E90F801A01AF0DC
:10582000080A09F10109E3D1002FD9D0ED1BA5EB3E
:1058300008027146F0183AF0EDFAADB25746CFE7DC
:105840004732040020800400688004005B310400BB
:10585000AD7D0400A84A02212046FFF775FA69E6EB
:105860007A68184611683BF025F8B846083718B131
:105870000135AE42BFF405AFA0680021102204300C
:105880000D913AF0E0FAD8F80430DA6822B10FCB83
:10589000A568043585E80F00D8F804304FF00008FB
:1058A0009B680393CDF810800125C3460C9BAB4247
:1058B00010D924AB03EB8506904956F8340C3AF026
:1058C000F9FF00282FD1A268B2F8543343F0020345
:1058D000A2F85433B8F1000F0FD0A068428D00F544
:1058E000D6712C303AF08BFAA3685A8DDA84A2680C
:1058F00017A92C320CA8FEF7A3FFA3681B69002B85
:1059000000F0E480049A049817A901EB82020C9934
:10591000091A20469847A368B3F854236FF341024D
:10592000A3F8542306E6764956F8340C3AF0C2FF41
:105930000028C8D056F8340CFEF75EFE002800F0B0
:105940008B8056F8343C029324AB002643F8586D04
:10595000B146059309F10103079313AB00934A463F
:10596000059B03982946FEF79DFE0E9BDBB10022A6
:1059700019680298FEF797FC002867D10E9B1B68F8
:1059800006931846FEF734FEA26883B21F460893BA
:10599000538D01333B44B3F5C07F37D9594A0421B5
:1059A0002046FFF7D1F9002E94D0A068029900F5A7
:1059B000D6703AF0C0FF07460298FEF719FE07B30B
:1059C000A36803F5D6739F421FFA80F909D917F827
:1059D000013C202B02BF09F101091FFA89F907F1E7
:1059E000FF373846FEF704FEA268538DA3EB090388
:1059F0005385421CA2EB090207EB090138463AF035
:105A000009FAB04401355F46BB464FE7029902F5FB
:105A1000D6703AF090FF82460028C4D0FEF7E8FD29
:105A200082B2781C0132514650443AF0F3F93A46BA
:105A3000069950463AF0E3F920230AF80730A268A5
:105A40000899538D0133194451850136B9F1FF3F4F
:105A5000A9D0DDF81C907DE70FAB0BF10107009397
:105A60005A460DAB29460398FEF71CFE002F3FF463
:105A700031AF0D9B002B3FF42DAF196856F8340C55
:105A80003AF018FF0028BFD10D9EF368CBB1B8F1F2
:105A9000000F0FD02046FFF7B9F82046FEF7BEFDF5
:105AA00010B92069FEF7BEFE174A02212046FFF713
:105AB0004BF930E796E80F00A7680495043787E8AC
:105AC0000F00B3680393013500279DE70F4AECE709
:105AD0001B2D0CD07F2D7FF4EDACA368D3F854338D
