:020000040001F9
:10C00000A03C0020C1C30100C9C30100CBC3010093
:10C01000CDC30100CFC30100D1C301000000000067
:10C02000000000000000000000000000D3C3010079
:10C03000D5C3010000000000D7C30100D9C301002F
:10C0400045FC0100DBC30100BDFE0100DBC30100B4
:10C05000DBC3010051FA01009DF80100DBC30100C0
:10C06000DBC30100DBC30100DBC30100DBC3010054
:10C07000DBC3010095FC0100DBC30100DBC3010051
:10C08000DBC30100BDFC0100DBC30100DBC3010019
:10C09000DBC30100DBC30100CDFC0100DBC30100F9
:10C0A000DBC30100DBC30100DBC301006DFE010047
:10C0B000DBC30100DBC30100000000000000000042
:10C0C000DBC30100DBC30100DBC30100DBC30100F4
:10C0D000DBC30100DBC30100DBC30100DBC30100E4
:10C0E000DBC30100000000000000000000000000B1
:10C0F00000000000DBC3010000000000DBC3010002
:10C10000000000000000000000000000000000002F
:10C11000000000000000000000000000000000001F
:10C12000000000000000000000000000000000000F
:10C1300000000000000000000000000000000000FF
:10C1400000000000000000000000000000000000EF
:10C1500000000000000000000000000000000000DF
:10C1600000000000000000000000000000000000CF
:10C1700000000000000000000000000000000000BF
:10C1800000000000000000000000000000000000AF
:10C19000000000000000000000000000000000009F
:10C1A000000000000000000000000000000000008F
:10C1B000000000000000000000000000000000007F
:10C1C000000000000000000000000000000000006F
:10C1D000000000000000000000000000000000005F
:10C1E000000000000000000000000000000000004F
:10C1F000000000000000000000000000000000003F
:10C20000DFF80CD001F0BEFB00480047094A0200ED
:10C21000A03C002030B450E8012F93B2C4892344DD
:10C220008489A34228BF1B1B0489A34202BFBFF31A
:10C230002F8F002007E0C3EA020340E80134002CFE
:10C24000E9D14FF001000A6030BC704750E8012F7F
:10C25000C2EA024240E801210029F7D1704730B418
:10C2600050E8022F1FFAA2F3C488A34202BFBFF313
:10C270002F8F00200DE0C48923448489A34228BF66
:10C280001B1BC2EA034340E80234002CE8D14FF004
:10C2900001000A6030BC704750E8022FC2EA224217
:10C2A00040E802210029F7D17047034653E8022FE6
:10C2B000D988B2EB324F4FF0000017BF92B241EA7B
:10C2C000014142EA014104E05A68B2EB324F08BF33
:10C2D000012043E80212002AE8D1704730B4044636
:10C2E00054E8000F0D4644E80053002BF8D11560C8
:10C2F00030BC704730B4044654E8000F40EA0105F2
:10C3000044E80053002BF7D1156030BC704730B4BF
:10C31000044654E8000F00EA010544E80053002BEE
:10C32000F7D1156030BC704730B4044654E8000FB4
:10C3300080EA010544E80053002BF7D1156030BCBA
:10C34000704730B4044654E8000F00EB010544E8A0
:10C350000053002BF7D1156030BC704730B4044651
:10C3600054E8000FA0EB010544E80053002BF7D17F
:10C37000156030BC704770B404464FF0000054E8BC
:10C38000006F0D68AE4207BF44E80023012044E877
:10C3900000630E60002B1CBF0020F0E770BC7047EC
:10C3A00030B4044654E8000F88422CBF451A0546B5
:10C3B00044E80053002BF5D1156030BC70470000F5
:10C3C0000648804706480047FEE7FEE7FEE7FEE72F
:10C3D000FEE7FEE7FEE7FEE7FEE7FEE7D1FC010031
:10C3E00001C2010070B491E87800B2E802105B1855
:10C3F00054EB0C04B2E802104D4156EB0C0680E8F9
:10C4000078008041013070BC704770B491E87800CA
:10C41000B2E802105B1A74EB0C04B2E802108D4112
:10C4200076EB0C0680E878008041404270BC704793
:10C430002DE9F00791E8F807B2E802105B1854EB19
:10C440000C04B2E802104D4156EB0C06B2E80210A3
:10C450004F4158EB0C08B2E8021059EB01095AEBB6
:10C460000C0A80E8F80780410130BDE8F00770470A
:10C470002DE9F00791E8F807B2E802105B1A74EBB7
:10C480000C04B2E802108D4176EB0C06B2E8021003
:10C490008F4178EB0C08B2E8021079EB01097AEBD6
:10C4A0000C0A80E8F80780414042BDE8F007704779
:10C4B0002DE9F007524290E87800B1E88007174074
:10C4C000DB1918EA020854EB080419EA020955EBD3
:10C4D00009051AEA020A56EB0A0678C090E87800C5
:10C4E000B1E8800717407B4118EA020854EB0804C2
:10C4F00019EA020955EB09051AEA020A56EB0A067F
:10C5000078C080410130BDE8F00770472DE9F007A1
:10C51000524290E87800B1E880071740DB1B18EA28
:10C52000020874EB080419EA020975EB09051AEA16
:10C53000020A76EB0A0678C090E87800B1E8800736
:10C540001740BB4118EA020874EB080419EA020913
:10C5500075EB09051AEA020A76EB0A0678C08041F3
:10C560004042BDE8F007704790E8300091E8C00015
:10C57000A31B1340E41AF618EB1B1340ED1AFF1827
:10C5800030C0C0C17047F0B55242FFF7EDFFFFF772
:10C59000EBFFFFF7E9FFFFF7E7FFF0BD2DE9F0073D
:10C5A0003AC91668A1FB069A4FF0000CE3FB06ACF3
:10C5B0004FF00007E4FB06C74FF00008E5FB0678E4
:10C5C00040F8049B56684FF00009E1FB06A91CEBFC
:10C5D000090C4FF0000949EB0909E3FB06C917EB09
:10C5E00009074FF0000949EB0909E4FB067918EB4C
:10C5F00009084FF0000949EB0909E5FB068940F8F5
:10C6000004AB96684FF0000AE1FB06CA17EB0A0775
:10C610004FF0000A4AEB0A0AE3FB067A18EB0A0815
:10C620004FF0000A4AEB0A0AE4FB068A19EB0A09F2
:10C630004FF0000A4AEB0A0AE5FB069A40F804CBE1
:10C64000D6684FF0000CE1FB067C18EB0C084FF0AD
:10C65000000C4CEB0C0CE3FB068C19EB0C094FF0B7
:10C66000000C4CEB0C0CE4FB069C1AEB0C0A4FF094
:10C67000000C4CEB0C0CE5FB06AC80E88017BDE829
:10C68000F00770470A462DE9F04F41EC140A92EC8E
:10C69000080A1EC910EE100AA1FB00784FF000092D
:10C6A000E2FB00894FF0000AE3FB009A4FF0000B19
:10C6B000E4FB00AB12EE100A4FF0000CE1FB00BCF3
:10C6C0004FF0000EE2FB00CE4FF00005E3FB00E56B
:10C6D0004FF00006E4FB005605EE107A10EE900ACB
:10C6E0004FF00007E1FB008719EB07094FF0000747
:10C6F00047EB0707E2FB00971AEB070A4FF000072A
:10C7000047EB0707E3FB00A71BEB070B4FF0000706
:10C7100047EB0707E4FB00B712EE900A1CEB070C8F
:10C720004FF0000747EB0707E1FB00C71EEB070EC2
:10C730004FF0000747EB0707E2FB00E7ED194FF06A
:10C74000000747EB0707E3FB0057F6194FF0000718
:10C7500047EB0707E4FB006705EE908A11EE100A2D
:10C760004FF00008E1FB00981AEB080A4FF00008B0
:10C7700048EB0808E2FB00A81BEB080B4FF0000891
:10C7800048EB0808E3FB00B81CEB080C4FF000086E
:10C7900048EB0808E4FB00C813EE100A1EEB080E75
:10C7A0004FF0000848EB0808E1FB00E815EB08052E
:10C7B0004FF0000848EB0808E2FB005816EB0806AB
:10C7C0004FF0000848EB0808E3FB006817EB080788
:10C7D0004FF0000848EB0808E4FB007806EE109ADA
:10C7E00011EE900A4FF00009E1FB00A91BEB090BC9
:10C7F0004FF0000949EB0909E2FB00B91CEB090CF9
:10C800004FF0000949EB0909E3FB00C91EEB090ED3
:10C810004FF0000949EB0909E4FB00E913EE900A27
:10C8200015EB09054FF0000949EB0909E1FB005937
:10C8300016EB09064FF0000949EB0909E2FB006914
:10C8400017EB09074FF0000949EB0909E3FB0079F1
:10C8500018EB09084FF0000949EB0909E4FB0089CE
:10C8600006EE90AA14EE901A01F110011EC910EE06
:10C87000100A4FF0000AE1FB00BA1CEB0A0C4FF063
:10C88000000A4AEB0A0AE2FB00CA1EEB0A0E4FF04E
:10C89000000A4AEB0A0AE3FB00EA15EB0A054FF02F
:10C8A000000A4AEB0A0AE4FB005A12EE100A16EBE1
:10C8B0000A064FF0000A4AEB0A0AE1FB006A17EB8E
:10C8C0000A074FF0000A4AEB0A0AE2FB007A18EB6B
:10C8D0000A084FF0000A4AEB0A0AE3FB008A19EB48
:10C8E0000A094FF0000A4AEB0A0AE4FB009A07EE35
:10C8F00010BA10EE900A4FF0000BE1FB00CB1EEBDC
:10C900000B0E4FF0000B4BEB0B0BE2FB00EB15EBB0
:10C910000B054FF0000B4BEB0B0BE3FB005B16EB37
:10C920000B064FF0000B4BEB0B0BE4FB006B12EE16
:10C93000900A17EB0B074FF0000B4BEB0B0BE1FBD7
:10C94000007B18EB0B084FF0000B4BEB0B0BE2FBE3
:10C95000008B19EB0B094FF0000B4BEB0B0BE3FBC0
:10C96000009B1AEB0B0A4FF0000B4BEB0B0BE4FB9D
:10C9700000AB07EE90CA11EE100A4FF0000CE1FB7D
:10C9800000EC15EB0C054FF0000C4CEB0C0CE2FB33
:10C99000005C16EB0C064FF0000C4CEB0C0CE3FBB0
:10C9A000006C17EB0C074FF0000C4CEB0C0CE4FB8D
:10C9B000007C13EE100A18EB0C084FF0000C4CEB47
:10C9C0000C0CE1FB008C19EB0C094FF0000C4CEB4C
:10C9D0000C0CE2FB009C1AEB0C0A4FF0000C4CEB29
:10C9E0000C0CE3FB00AC1BEB0C0B4FF0000C4CEB06
:10C9F0000C0CE4FB00BC08EE10EA11EE900A4FF0BC
:10CA0000000EE1FB005E16EB0E064FF0000E4EEB43
:10CA10000E0EE2FB006E17EB0E074FF0000E4EEB12
:10CA20000E0EE3FB007E18EB0E084FF0000E4EEBEF
:10CA30000E0EE4FB008E13EE900A19EB0E094FF078
:10CA4000000E4EEB0E0EE1FB009E1AEB0E0A4FF0AD
:10CA5000000E4EEB0E0EE2FB00AE1BEB0E0B4FF08A
:10CA6000000E4EEB0E0EE3FB00BE1CEB0E0C4FF067
:10CA7000000E4EEB0E0EE4FB00CE14EE100AA0ECFE
:10CA8000075A80E8E05FBDE8F08F00BF30B44FF098
:10CA9000000310F8014B11F8015B013A84EA050428
:10CAA00043EA0403F5D1A3F101034FEAD37030BC8C
:10CAB00070474FF0000310F8012B013943EA0203DD
:10CAC000F9D1A3F101034FEAD370704711F8013B8C
:10CAD00000F8013B013AF9D17047002200F8012B20
:10CAE0000139FBD1704700BF2DE9F00791E8F80745
:10CAF000B2E802105B1854EB0C04B2E802104D418E
:10CB000056EB0C06B2E802104F4158EB0C08B2E8A5
:10CB1000021059EB01095AEB0C0A8941B3F1FF33BA
:10CB200074F1FF3475F1FF3576F1000677F10007F7
:10CB300078F1000879F101097AF1FF3A51F1000129
:10CB40004A425B184C414D4156F1000657F100072F
:10CB500058F1000859EB02095AEB010A80E8F8077E
:10CB6000BDE8F00770472DE9F00791E8F807B2E853
:10CB700002105B1A74EB0C04B2E802108D4176EBE4
:10CB80000C06B2E802108F4178EB0C08B2E80210F4
:10CB900079EB01097AEB0C0A89414A425B184C4156
:10CBA0004D4156F1000657F1000758F1000859EBC6
:10CBB00002095AEB010A80E8F807BDE8F007704760
:10CBC0000A462DE9F04F41EC140A92EC080A1EC9FE
:10CBD00010EE100AA1FB00784FF00009E2FB00897B
:10CBE0004FF0000AE3FB009A4FF0000BE4FB00ABB0
:10CBF00012EE100A4FF0000CE1FB00BC4FF0000EEB
:10CC0000E2FB00CE4FF00005E3FB00E54FF000062D
:10CC1000E4FB005605EE107A10EE900A4FF0000784
:10CC2000E1FB008719EB07094FF0000747EB070707
:10CC3000E2FB00971AEB070A4FF0000747EB0707E4
:10CC4000E3FB00A71BEB070B4FF0000747EB0707C1
:10CC5000E4FB00B712EE900A1CEB070C4FF0000744
:10CC600047EB0707E1FB00C71EEB070E4FF000077D
:10CC700047EB0707E2FB00E7ED194FF0000747EB32
:10CC80000707E3FB0057F6194FF0000747EB0707CC
:10CC9000E4FB006705EE908A11EE100A4FF00008E1
:10CCA000E1FB00981AEB080A4FF0000848EB08086F
:10CCB000E2FB00A81BEB080B4FF0000848EB08084C
:10CCC000E3FB00B81CEB080C4FF0000848EB080829
:10CCD000E4FB00C813EE100A1EEB080E4FF000082C
:10CCE00048EB0808E1FB00E815EB08054FF00008E9
:10CCF00048EB0808E2FB005816EB08064FF0000866
:10CD000048EB0808E3FB006817EB08074FF0000842
:10CD100048EB0808E4FB007806EE109A11EE900A42
:10CD20004FF00009E1FB00A91BEB090B4FF00009D4
:10CD300049EB0909E2FB00B91CEB090C4FF00009B3
:10CD400049EB0909E3FB00C91EEB090E4FF000098E
:10CD500049EB0909E4FB00E913EE900A15EB09051C
:10CD60004FF0000949EB0909E1FB005916EB0906F0
:10CD70004FF0000949EB0909E2FB006917EB0907CD
:10CD80004FF0000949EB0909E3FB007918EB0908AA
:10CD90004FF0000949EB0909E4FB008906EE90AA6F
:10CDA00014EE901A01F110011EC910EE100A4FF096
:10CDB000000AE1FB00BA1CEB0A0C4FF0000A4AEB38
:10CDC0000A0AE2FB00CA1EEB0A0E4FF0000A4AEB09
:10CDD0000A0AE3FB00EA15EB0A054FF0000A4AEBEA
:10CDE0000A0AE4FB005A12EE100A16EB0A064FF08C
:10CDF000000A4AEB0A0AE1FB006A17EB0A074FF048
:10CE0000000A4AEB0A0AE2FB007A18EB0A084FF024
:10CE1000000A4AEB0A0AE3FB008A19EB0A094FF001
:10CE2000000A4AEB0A0AE4FB009A07EE10BA10EE79
:10CE3000900A4FF0000BE1FB00CB1EEB0B0E4FF006
:10CE4000000B4BEB0B0BE2FB00EB15EB0B054FF074
:10CE5000000B4BEB0B0BE3FB005B16EB0B064FF0F1
:10CE6000000B4BEB0B0BE4FB006B12EE900A17EB85
:10CE70000B074FF0000B4BEB0B0BE1FB007B18EBB0
:10CE80000B084FF0000B4BEB0B0BE2FB008B19EB8D
:10CE90000B094FF0000B4BEB0B0BE3FB009B1AEB6A
:10CEA0000B0A4FF0000B4BEB0B0BE4FB00AB07EE58
:10CEB00090CA11EE100A4FF0000CE1FB00EC15EBEC
:10CEC0000C054FF0000C4CEB0C0CE2FB005C16EB7D
:10CED0000C064FF0000C4CEB0C0CE3FB006C17EB5A
:10CEE0000C074FF0000C4CEB0C0CE4FB007C13EE39
:10CEF000100A18EB0C084FF0000C4CEB0C0CE1FB8B
:10CF0000008C19EB0C094FF0000C4CEB0C0CE2FB05
:10CF1000009C1AEB0C0A4FF0000C4CEB0C0CE3FBE2
:10CF200000AC1BEB0C0B4FF0000C4CEB0C0CE4FBBF
:10CF300000BC08EE10EA11EE900A4FF0000EE1FB83
:10CF4000005E16EB0E064FF0000E4EEB0E0EE2FBEF
:10CF5000006E17EB0E074FF0000E4EEB0E0EE3FBCC
:10CF6000007E18EB0E084FF0000E4EEB0E0EE4FBA9
:10CF7000008E13EE900A19EB0E094FF0000E4EEBE7
:10CF80000E0EE1FB009E1AEB0E0A4FF0000E4EEB68
:10CF90000E0EE2FB00AE1BEB0E0B4FF0000E4EEB45
:10CFA0000E0EE3FB00BE1CEB0E0C4FF0000E4EEB22
:10CFB0000E0EE4FB00CE53EC172A18EE104A12EBCB
:10CFC0000A0253EB0B0354EB0C0455EB0E05002047
:10CFD00040F1000012EB0B0253EB0C0354EB0E0478
:10CFE00055EB0E0546410020474158EB000859EB30
:10CFF0000A0940F10000B2EB0E0273F1000374F174
:10D00000000475EB0A0576EB0B0677EB0C0778EB63
:10D010000A0879EB0C0960F10000B5EB0B0576EB23
:10D020000C0677EB0E0778EB0B0879EB0E0960F135
:10D0300000005FEAE07C7FEA0C0CDCF1000EB2EB52
:10D040000C0273EB0C0374EB0C0475F1000576F124
:10D05000000677F1000778EB0E0879EB0C0960F118
:10D0600000005FEAE07CDCF1000E12EB0C0253EBF7
:10D070000C0354EB0C0455F1000556F1000657F172
:10D08000000758EB0E0859EB0C0940F100005FEA6D
:10D09000E07CDCF1000E12EB0C0253EB0C0354EBC2
:10D0A0000C0455F1000556F1000657F1000758EB46
:10D0B0000E0859EB0C095BEC15AA51EC160A1AEB99
:10D0C000060A5BEB070B50EB080051EB09015FF020
:10D0D000000C4CF1000C1AEB070A5BEB080B50EB51
:10D0E000090051EB090152EB0C025FF0000C53EB0D
:10D0F0000C0354EB0C0475414CF1000CBAEB090A1B
:10D100007BF1000B70F10000B141BA4173EB0803F1
:10D11000B44175EB08056CF1000CC91B72EB0802F9
:10D1200073EB0903BC4175EB09056CF1000C5FEA78
:10D13000EC787FEA0808D8F10009BAEB080A7BEB23
:10D14000080B70EB080071F1000172F1000273F13D
:10D15000000374EB090475EB08056CF1000C5FEA41
:10D16000EC78D8F100091AEB080A5BEB080B50EBDE
:10D17000080051F1000152F1000253F1000354EB99
:10D18000090455EB08054CF1000C5FEAEC78D8F186
:10D1900000091AEB080A5BEB080B50EB080051F191
:10D1A000000152F1000253F1000354EB090455EB66
:10D1B000080514EE107AA7E8000C87E83F00BDE8E8
:10D1C000F08F00BF2DE9F00791E8F807B2E80210F0
:10D1D0005B1854EB0C04B2E802104D4156EB0C0600
:10D1E000B2E802104F4158EB0C08B2E8021059EBBC
:10D1F00001095AEB0C0A4FF0260261EB010122EA09
:10D2000001015B1854F1000455F1000556F10006C8
:10D2100057F1000758F1000859F100095AF1000AC6
:10D2200061EB010122EA01010B4480E8F807BDE847
:10D23000F00770472DE9F00791E8F807B2E802100F
:10D240005B1A74EB0C04B2E802108D4176EB0C060D
:10D25000B2E802108F4178EB0C08B2E8021079EBCB
:10D2600001097AEB0C0A4FF0260261EB010102EA98
:10D2700001015B1A74F1000475F1000576F10006F6
:10D2800077F1000778F1000879F100097AF1000AD6
:10D2900061EB010102EA0101A3EB010380E8F80759
:10D2A000BDE8F00770470A462DE9F04F41EC140A3B
:10D2B00092EC080A1EC910EE100AA1FB00784FF08C
:10D2C0000009E2FB00894FF0000AE3FB009A4FF0EF
:10D2D000000BE4FB00AB12EE100A4FF0000CE1FB78
:10D2E00000BC4FF0000EE2FB00CE4FF00005E3FB68
:10D2F00000E54FF00006E4FB005605EE107A10EE54
:10D30000900A4FF00007E1FB008719EB07094FF087
:10D31000000747EB0707E2FB00971AEB070A4FF0FD
:10D32000000747EB0707E3FB00A71BEB070B4FF0DA
:10D33000000747EB0707E4FB00B712EE900A1CEB6F
:10D34000070C4FF0000747EB0707E1FB00C71EEB98
:10D35000070E4FF0000747EB0707E2FB00E7ED1968
:10D360004FF0000747EB0707E3FB0057F6194FF0B4
:10D37000000747EB0707E4FB006705EE908A11EE14
:10D38000100A4FF00008E1FB00981AEB080A4FF072
:10D39000000848EB0808E2FB00A81BEB080B4FF065
:10D3A000000848EB0808E3FB00B81CEB080C4FF042
:10D3B000000848EB0808E4FB00C813EE100A1EEB57
:10D3C000080E4FF0000848EB0808E1FB00E815EBF9
:10D3D00008054FF0000848EB0808E2FB005816EB80
:10D3E00008064FF0000848EB0808E3FB006817EB5D
:10D3F00008074FF0000848EB0808E4FB007806EE49
:10D40000109A11EE900A4FF00009E1FB00A91BEB06
:10D41000090B4FF0000949EB0909E2FB00B91CEBCD
:10D42000090C4FF0000949EB0909E3FB00C91EEBA9
:10D43000090E4FF0000949EB0909E4FB00E913EE7E
:10D44000900A15EB09054FF0000949EB0909E1FBCA
:10D45000005916EB09064FF0000949EB0909E2FBF8
:10D46000006917EB09074FF0000949EB0909E3FBD5
:10D47000007918EB09084FF0000949EB0909E4FBB2
:10D48000008906EE90AA14EE901A01F110011EC94F
:10D4900010EE100A4FF0000AE1FB00BA1CEB0A0C78
:10D4A0004FF0000A4AEB0A0AE2FB00CA1EEB0A0E22
:10D4B0004FF0000A4AEB0A0AE3FB00EA15EB0A0503
:10D4C0004FF0000A4AEB0A0AE4FB005A12EE100A77
:10D4D00016EB0A064FF0000A4AEB0A0AE1FB006A63
:10D4E00017EB0A074FF0000A4AEB0A0AE2FB007A40
:10D4F00018EB0A084FF0000A4AEB0A0AE3FB008A1D
:10D5000019EB0A094FF0000A4AEB0A0AE4FB009AF9
:10D5100007EE10BA10EE900A4FF0000BE1FB00CBC3
:10D520001EEB0B0E4FF0000B4BEB0B0BE2FB00EB7B
:10D5300015EB0B054FF0000B4BEB0B0BE3FB005B0C
:10D5400016EB0B064FF0000B4BEB0B0BE4FB006BE9
:10D5500012EE900A17EB0B074FF0000B4BEB0B0B87
:10D56000E1FB007B18EB0B084FF0000B4BEB0B0BB8
:10D57000E2FB008B19EB0B094FF0000B4BEB0B0B95
:10D58000E3FB009B1AEB0B0A4FF0000B4BEB0B0B72
:10D59000E4FB00AB07EE90CA11EE100A4FF0000C4E
:10D5A000E1FB00EC15EB0C054FF0000C4CEB0C0C08
:10D5B000E2FB005C16EB0C064FF0000C4CEB0C0C85
:10D5C000E3FB006C17EB0C074FF0000C4CEB0C0C62
:10D5D000E4FB007C13EE100A18EB0C084FF0000C73
:10D5E0004CEB0C0CE1FB008C19EB0C094FF0000C20
:10D5F0004CEB0C0CE2FB009C1AEB0C0A4FF0000CFD
:10D600004CEB0C0CE3FB00AC1BEB0C0B4FF0000CD9
:10D610004CEB0C0CE4FB00BC08EE10EA11EE900A97
:10D620004FF0000EE1FB005E16EB0E064FF0000E11
:10D630004EEB0E0EE2FB006E17EB0E074FF0000EE6
:10D640004EEB0E0EE3FB007E18EB0E084FF0000EC3
:10D650004EEB0E0EE4FB008E13EE900A19EB0E0952
:10D660004FF0000E4EEB0E0EE1FB009E1AEB0E0A81
:10D670004FF0000E4EEB0E0EE2FB00AE1BEB0E0B5E
:10D680004FF0000E4EEB0E0EE3FB00BE1CEB0E0C3B
:10D690004FF0000E4EEB0E0EE4FB00CE4FF02601D5
:10D6A00053EC152A4FF00000E6FB01201B184FF049
:10D6B000000040EB0000E7FB013057EC166A36181B
:10D6C0004FF0000040EB0000E8FB01603F184FF016
:10D6D000000040EB0000E9FB017059EC178A18EBE1
:10D6E00000084FF0000040EB0000EAFB018019EB5E
:10D6F00000094FF0000040EB0000EBFB019018EE3A
:10D7000010AA1AEB000A4FF0000040EB0000ECFBFF
:10D7100001A02D184FF0000040EB0000EEFB01507F
:10D7200000FB01F0121853F1000356F1000657F107
:10D73000000758F1000859F100095AF1000A55F1A3
:10D74000000B60EB000021EA0000024414EE100A16
:10D7500080E8CC0FBDE8F08F2DE9F00791E8F017D5
:10D760004EF6A1514FEA4101A4FB01234FF0000402
:10D77000E5FB01344FF00005E6FB01454FF00006E4
:10D78000E7FB01564FF00007E8FB01674FF0000888
:10D79000E9FB01784FF00009EAFB01894FF0000A2C
:10D7A000ECFB019A4FF026010AFB01FA12EB0A0288
:10D7B00053F1000354F1000455F1000556F1000641
:10D7C00057F1000758F1000859F100096AEB0A0AFD
:10D7D00021EA0A010A4480E8FC03BDE8F00770472B
:10D7E0002DE9F00390E8F8134FEAEC7202F013020F
:10D7F0002CF0004C02F11301591854F1000155F1BD
:10D80000000156F1000157F1000158F1000159F1F2
:10D8100000015CF100014FEAE17101F013011144D4
:10D820005B1854F1000455F1000556F1000657F15C
:10D83000000758F1000859F100094CF1000C2CF0D8
:10D84000004C80E8F813BDE8F00370472DE9F05F65
:10D850000546002092469B4688460646814640245F
:10D860001BE0284641464746224600F02FF8534623
:10D870005A46C01A914110D311461846224600F06C
:10D8800016F82D1A67EB01084F46224601200021A9
:10D8900000F00DF817EB00094E41201EA4F1010421
:10D8A000DFDC484631462A464346BDE8F09F202A41
:10D8B00004DB203A00FA02F1002070479140C2F1E7
:10D8C000200320FA03F3194390407047202A04DB19
:10D8D000203A21FA02F00021704721FA02F3D040E9
:10D8E000C2F1200291400843194670470048704732
:10D8F0005809030010B5441A0346944209D284180B
:10D90000114403E011F8013D04F8013D521EF9D223
:10D9100010BD40EA0104A40703D009E010C9121F9A
:10D9200010C3042AFAD203E011F8014B03F8014BAB
:10D93000521EF9D210BDD2B201E000F8012B491EEF
:10D94000FBD270470022F6E710B513460A4604469C
:10D950001946FFF7F0FF204610BD421C10F8011BCE
:10D960000029FBD1801A704730B5044600200346D9
:10D9700000E05B1C934203D2E05CCD5C401BF8D01E
:10D9800030BD0000064C074D06E0E06840F00103A2
:10D9900094E8070098471034AC42F6D3FEF734FC05
:10D9A000F8290300182A030070B58C1810F8015BE1
:10D9B00015F0070301D110F8013B2A1106D110F828
:10D9C000012B03E010F8016B01F8016B5B1EF9D12C
:10D9D0002B0705D40023521E0DD401F8013BFAE7B2
:10D9E00010F8013BCB1A921C03E013F8015B01F81D
:10D9F000015B521EF9D5A142D8D3002070BD0000B2
:10DA00002DE9F0410446B0B00D460A46684604F1DF
:10DA10002007002100F0C0F804F140083A462146F2
:10DA200010A804F16006FFF73FFC4146324618A8F3
:10DA3000FFF73AFC4246394620A8FFF735FC32464C
:10DA4000214628A8FFF730FCEB0F6A4610A92046B4
:10DA500000F000F930B0BDE8F08100BF2DE9F041E1
:10DA60000446B0B00D460A46684604F1200701217D
:10DA700000F092F804F140083A46214610A804F15B
:10DA80006006FFF711FC4146324618A8FFF70CFC70
:10DA90004246394620A8FFF707FC3246214628A80F
:10DAA000FFF702FCEB0F6A4610A9204600F0D2F8FF
:10DAB00030B0BDE8F08100BF2DE9F0410446B0B0C0
:10DAC000684604F12006884604F1400700F096F805
:10DAD00004F160053246214610A8FFF7E5FB394600
:10DAE0002A4618A8FFF7E0FB3A46314620A8FFF780
:10DAF000DBFB2A46214628A8FFF7D6FB4FEAD8735E
:10DB00006A4610A9204600F0A5F830B0BDE8F081C3
:10DB100070B5A0B0044601F1200668460D46FFF737
:10DB2000C2FB314608A8FFF7BEFB05F1400110A873
:10DB3000FFF7B9FB10AA11461046FFF743FB6946F1
:10DB400018A800F0D3FB324629462046FFF73AFBDF
:10DB500021462046FFF7A7FB6A4621462046FFF7ED
:10DB600069FB04F1400508AA21462046FFF762FB45
:10DB7000284608AA18A9FFF725FB10AA294604F190
:10DB80002000FFF757FB08AA18A904F16000FFF76F
:10DB900051FB20B070BD00BF2DE9F84302EBE276E7
:10DBA00086EAE27680460C46002100F095FB08F1FB
:10DBB0002007711EC90F38460F4D00F08DFB05EB95
:10DBC000442540354FF0010986EA0904013CE40F81
:10DBD000294622464046FEF76BFC09F1010905F192
:10DBE000200122463846FEF763FCB9F1090F05F122
:10DBF0004005E9D1BDE8F883182303002DE9F84377
:10DC000001EBE177814687EAE177002100F064FBD0
:10DC100009F12008791EC90F404600F05DFB0C4E4B
:10DC2000012587EA0504013CE40F314622464846B7
:10DC3000FEF73EFC013506F1200122464046FEF784
:10DC400037FC092D06F14006EBD1BDE8F88300BF93
:10DC5000582703002DE9F0430D46A1B001F120093A
:10DC60001646044649462A466846984606F1200765
:10DC7000FFF7E0FA49462A4608A8FFF7A3FA394613
:10DC8000324610A8FFF7D6FA3946324618A8FFF7F1
:10DC900099FA424618A910A8FEF775FC10AA694621
:10DCA0006846FFF701FB08A918AA0846FFF7FCFA27
:10DCB0003A46314610A8FFF7F7FA10A905F16002BD
:10DCC0000846FFF7F1FA10A90846144AFFF7ECFAE4
:10DCD00005F14002114618A8FFF774FA6A4608A930
:10DCE0002046FFF7A7FA04F120056A4608A904F1C7
:10DCF0006000FFF767FA4034284610AA18A9FFF71A
:10DD000099FA10AA18A92046FFF75CFA424629465C
:10DD10002046FEF738FC21B0BDE8F0835829030007
:10DD20002DE9F047CC7F0D780B46C0B004F03F04DE
:10DD300093F80280497893F803C0D3F804E09F6811
:10DD4000D3F810A0DE688DF8411044F0400425F0AF
:10DD5000070511468DF85F405A699C698DF840505F
:10DD60008DF842801D7F93F81D809B7F8DF843C006
:10DD700081466846CDF844E08DF85E301297CDF8C4
:10DD800050A0159216948DF85D8013968DF85C5016
:10DD900000F086FA2022694618A8FEF797FE68462A
:10DDA000012100F099FA08A8002100F095FA18A9BD
:10DDB00020A82022FEF78AFE28A8012100F08CFA74
:10DDC00018AF0DF140084FF0060A002417F8016D56
:10DDD00046FA0AF505F001056C40224620A968467E
:10DDE000FEF7D1FB224628A908A8FEF7CCFB08AA1B
:10DDF000694630A8FFF7E6F908AA10466946FFF71A
:10DE000019FA28AA20A938A8FFF7DCF928AA104691
:10DE100020A9FFF70FFA38A9084608AAFFF744FA25
:10DE200028A9084630AAFFF73FFA38AA28A920A84F
:10DE3000FFF7C8F928A938AA0846FFF7FBF920A977
:10DE40000846FFF730FA28A90846FFF72CFA28A958
:10DE500018AA0846FFF728FA30A90846FFF723FA60
:10DE600008A938A8FFF71FFA38AA30A96846FFF7B3
:10DE70001BFA30A938AA0846FFF7DCF930A908A830
:10DE8000FFF76AFC08A9084638AAFFF79BF908A91A
:10DE90000AF1FF3A30AA0846FFF706FABAF1FF3F47
:10DEA0002C4695D147454FF0070A8FD108A908465F
:10DEB000012200F02DFA08AA69466846FFF7F4F936
:10DEC0006946484600F032FB40B0BDE8F08700BF2D
:10DED000014AFFF725BF00BFD81F030070B500F14E
:10DEE000200590B00E46044600F054FB06F12001D8
:10DEF000284600F04FFB214608A8FEF761FE08A95E
:10DF000008460C4AFEF7F0FD08A922460846FEF72F
:10DF100058FE08A90846084AFEF7E6FD2946684665
:10DF2000FEF74EFE694608A82022FEF7AFFD013835
:10DF300010B070BD78290300982903002DE9F0473F
:10DF4000B8B08A468146114610A8514AFEF790FAA9
:10DF50005049024610A8FEF7ABFA179F4C4900EA59
:10DF6000D7778046C7F1010210A8FEF7A1FA179DE6
:10DF7000524628A918A8ED4301F0B0F8ED0F20A9EA
:10DF8000C5F10102084600F0E9FAC8F10108FE26D1
:10DF90006A4618A928A801F055F8731138AA02EBAF
:10DFA000830306F01F0253F8A04CD44004F0010490
:10DFB00065402A4628A918A8FEF7E5FA2A4630A99E
:10DFC00020A8FEF7E0FA013E28A918A800F0D4FF27
:10DFD000731C2546DCD1C4F1010208A820A900F079
:10DFE000BDFA7D406A4618A928A801F02BF828A997
:10DFF0002A4618A8FEF7C7FA2A4630A920A8FEF735
:10E00000C2FA08A96A460846FEF7DBFD08A90846D9
:10E0100000F0DAFA08A909F120040AF12002084602
:10E02000FEF7CFFD20A908AA2046FEF7CAFD08AAE0
:10E0300018A96846FEF7C5FD69466846FEF7C0FDAB
:10E0400018AA694608A8FEF7BCFD21466846FEF7F7
:10E05000B7FD08AA69461046FEF785FD08A90E4AD5
:10E060006846FEF780FD20462021FEF722FD08A924
:10E0700043420246684643EA0808FEF784FA4846E7
:10E080006946064AFEF79DFD404638B0BDE8F08778
:10E09000D8290300B822030098290300D8220300DE
:10E0A0000A460149FFF74ABFF81F030000F03CBBD6
:10E0B00038B504460D4600F037FB05F1200104F1A8
:10E0C0002000BDE8384000F02FBB00BF30B5A9B03C
:10E0D00014460546684600F099FB214618A8FFF74C
:10E0E000FDFE6A4618A9044608A8FFF727FF08A9FD
:10E0F00004432846FFF7DAFF204629B030BD00BFB1
:10E1000030B599B00546684600F080FB694608A81E
:10E11000FFF7C6FF08A904462846FFF7C9FF2046B7
:10E1200019B030BD10B52022B0B004460DEB02008E
:10E1300000F096FB9DF83F309DF8202003F07F0310
:10E1400043F0400322F0070208A968468DF83F30EB
:10E150008DF8202000F002FB694618A800F028F88E
:10E1600018A9204600F002F830B010BD30B599B0C3
:10E1700004460D4610A84031012200F0C9F810AA4B
:10E1800029466846FFF790F810AA05F1200108A873
:10E19000FFF78AF808A9204600F0C8F9684600F0A1
:10E1A00093F8E37F83EAC010E07719B030BD00BF79
:10E1B0002DE9F041B0B00446684600F007FB04F1D9
:10E1C000400620469DF93F10FFF718FD304601211B
:10E1D00000F082F8E84604F120070DF1150521460C
:10E1E00010A8FFF795FC18AA10A92046FFF75CF8C5
:10E1F00028AA20A93846FFF757F820AA18A93046C0
:10E20000FFF752F8214610A8FFF782FC18AA10A9C0
:10E210002046FFF749F828AA20A93846FFF744F816
:10E2200020AA18A93046FFF73FF8214610A8FFF7AB
:10E230006FFC18AA10A92046FFF736F828AA20A9D3
:10E240003846FFF731F820AA18A93046FFF72CF816
:10E25000214610A8FFF75CFC15F9011D10A8FFF777
:10E26000CFFB95F9151010A8FFF7F8FB95F92A10C8
:10E2700010A8FFF721FC18AA10A92046FFF714F8F0
:10E2800028AA20A93846FFF70FF820AA18A9304677
:10E29000FFF70AF8A845A2D130B0BDE8F08100BF71
:10E2A0000B6803604B6843608B688360CB68C36016
:10E2B0000B6903614B6943618B698361CB6923F00F
:10E2C0000043C361704700BF10B50446FFF788FAEA
:10E2D000206800F0010010BD002380E80A00836080
:10E2E000C360036143618361C361704700B589B056
:10E2F00000230A4669460093019302930393049313
:10E30000059306930793FEF795FF09B05DF804FBAC
:10E31000F0B5A1B00546684617460E46FEF7C3FFA6
:10E32000694618A8FEF7BFFF18A90846FEF7BBFF0D
:10E33000324618A908A8FEF7B7FF6A4608A968463A
:10E34000FEF7B2FF694618A8FEF7ADFF08AA10460F
:10E3500018A9FEF7A9FF08A918A8FEF7A4FF18A995
:10E360000846FEF7A0FF18A90846FEF79CFF18A96B
:10E370000846FEF798FF18A90846FEF794FF08AA7A
:10E3800018A91046FEF790FF022408A918A8FEF766
:10E390008AFF18A90846FEF786FF18A90846FEF767
:10E3A00082FF18A90846FEF77EFF18A90846FEF767
:10E3B0007AFF013C18A9E9D110A808AAFEF774FF5A
:10E3C000042410A918A8FEF76EFF18A90846FEF746
:10E3D0006AFF18A90846FEF766FF18A90846FEF767
:10E3E00062FF18A90846FEF75EFF013C18A9E9D1B3
:10E3F00010AA0846FEF758FF022418A90846FEF79F
:10E4000052FF18A90846FEF74EFF18A90846FEF766
:10E410004AFF18A90846FEF746FF18A90846FEF766
:10E4200042FF013CE9D118A908AA10A8FEF73CFF59
:10E430000A2410A918A8FEF736FF18A90846FEF707
:10E4400032FF18A90846FEF72EFF18A90846FEF766
:10E450002AFF18A90846FEF726FF013C18A9E9D1B2
:10E4600010AA08A8FEF720FF142408A918A8FEF790
:10E470001AFF18A90846FEF716FF18A90846FEF766
:10E4800012FF18A90846FEF70EFF18A90846FEF766
:10E490000AFF013C18A9E9D108AA0846FEF704FFC3
:10E4A0000A2418A90846FEF7FEFE18A90846FEF73A
:10E4B000FAFE18A90846FEF7F6FE18A90846FEF768
:10E4C000F2FE18A90846FEF7EEFE013CE9D118A9B4
:10E4D000084610AAFEF7E8FE18A9084667B9FEF735
:10E4E000E2FE18A90846FEF7DEFE324618A92846C5
:10E4F000FEF7DAFE21B0F0BDFEF7D5FE18A90846FA
:10E50000FEF7D1FE18A90846FEF7CDFE18A9084669
:10E51000FEF7C9FE18A90846FEF7C5FE6A4618A907
:10E520002846FEF7C1FE21B0F0BD00BF38B50C464D
:10E5300005460846FFF754F923682B6063686B6053
:10E54000A368AB60E368EB6023692B6163696B616F
:10E55000A369AB61E369EB6138BD00BF70B588B0FA
:10E5600004460D46684620211646FEF7B6FA0023FB
:10E570002946204620220093FEF7A8FA2A4669463B
:10E580006846FEF7F0FA324669462046FDF7FBFF83
:10E5900008B070BD0B681BBAC3614B681BBA8361BE
:10E5A0008B681BBA4361CB681BBA03610B691BBA4A
:10E5B000C3604B691BBA83608B691BBA4360CB692C
:10E5C0001BBA0360704700BF70B598B00D46064691
:10E5D00010A8FEF7F5FA2A4610A96846FEF7F1FAE8
:10E5E000694610A8FEF7ECFA10A90846FEF7E8FA0B
:10E5F0006A4610A908A8FEF7E4FA08A910A8FEF7D1
:10E60000DFFA10A90846FEF7DBFA10A90846FEF764
:10E61000D7FA10A90846FEF7D3FA10A908AA0846A7
:10E62000FEF7CFFA10A90846FEF7CAFA10A9084665
:10E63000FEF7C6FA10A96A4608A8FEF7C2FA052432
:10E6400008A910A8FEF7BCFA10A90846FEF7B8FA08
:10E65000013C10A9F5D108AA0846FEF7B2FA052434
:10E6600010A90846FEF7ACFA10A90846FEF7A8FA6A
:10E67000013CF5D110A908AA0846FEF7A2FA10A994
:10E6800008A8FEF79DFA08A90846FEF799FA08A916
:10E690006A466846FEF795FA1024694610A8FEF708
:10E6A0008FFA10A90846FEF78BFA013C10A9F5D1A4
:10E6B0002A460846FEF785FA402410A90846FEF7C8
:10E6C0007FFA10A90846FEF77BFA013CF5D110A9A4
:10E6D0006A460846FEF775FA102410A90846FEF7A8
:10E6E0006FFA10A90846FEF76BFA013CF5D110A9A4
:10E6F0006A460846FEF765FA102410A90846FEF798
:10E700005FFA10A90846FEF75BFA013CF5D110A9A3
:10E7100008AA0846FEF755FA2A4610A93046FEF721
:10E7200050FA18B070BD00BFCB691BBA03608B698B
:10E730001BBA43604B691BBA83600B691BBAC36089
:10E74000CB681BBA03618B681BBA43614B681BBA69
:10E7500083610B681BBAC361704700BFF0B50B46FD
:10E7600099B0DA69184D149218A9120F04465F681F
:10E770009E68186941F85C2DDA68D3F800E00E97BE
:10E780000F965F699E69109200232A46119005A892
:10E79000CDF834E0179316931593049303930293E3
:10E7A00012971396FDF7FAFE019B05AA1B070DA908
:10E7B00020460C93FDF75CFEE2692946D20F204605
:10E7C000FDF776FE19B0F0BDF8220300F0B4002585
:10E7D000471E2C462A46E30814F0070F08BF51F8DD
:10E7E000235005F00F03134403F10802120901340A
:10E7F000D6B2A3EB06133F2C4FEA151507F8013FDD
:10E80000E9D1354480F83F50F0BC704738B50B680B
:10E81000114D1BBAC3614B681BBA83618B681BBA6D
:10E820004361CB681BBA03610B691BBAC3604B69B8
:10E830001BBA83608B691BBA4360CB691BBA2A463B
:10E84000036001460446FDF713FE294602462046B2
:10E85000BDE83840FDF72CBEB829030000000000D9
:10E860002DE9F04F0FF2B83BDBE900ABEEA7D7E99B
:10E870000067B3B0EEA5D5E90045CDE900ABCDE921
:10E8800002670FF2B43BDBE900ABEDA7D7E9006705
:10E89000CDE90445ECA5D5E90045CDE906ABCDE9C8
:10E8A00008670FF2AC3BDBE900ABEBA7D7E90067E9
:10E8B000CDE90A45002480461546CDE90CABCDE9EB
:10E8C0000E6731923094002A40F0798180238DF8D0
:10E8D000403032ABC3F1870303F0030302224FF051
:10E8E00041094FF07A0E01246E4610AF2046002BEE
:10E8F00040F030817B2AAEEB030EC0F17A00AEF11E
:10E90000040188BF00208908C01A013102284FEA9B
:10E91000810C0CD903EB0902002332441846013361
:10E920008B4242F8040BFAD3F445644412D032A966
:10E93000631C214400227B2B01F8882C0AD032A9C9
:10E940000B4402347B2C03F8882C03D032AB1C44DC
:10E9500004F8882C6A0B6B0939466C0D30466E0F33
:10E96000ED008DF8BB608DF8BC408DF8BD208DF8B2
:10E97000BE308DF8BF5000F009FE04A80FC893FA0E
:10E9800083F9089B029D039C009F019EC8F8189084
:10E9900093FA83FE099BC8F824E02DBA24BA00BA82
:10E9A00009BA12BA93FA83FCC8F80C50C8F80840A8
:10E9B0000A9D0B9CC8F81400C8F810100C980D990B
:10E9C000C8F81C200F9B0E9AC8F820C03FBA36BA70
:10E9D0002DBA24BA00BA09BA12BA1BBAC8F8047020
:10E9E000C8F80060C8F82C50C8F82840C8F83400AF
:10E9F000C8F83010C8F83C20C8F8383033B0BDE84B
:10EA0000F08F224610AF32A810440C7800F8884CE2
:10EA1000501C83420CD932AC204402324C7800F8AE
:10EA2000884C934204D932A80244897802F8881CA1
:10EA300032AA581C1A4480217028309302F8881C8E
:10EA400073D97F286BD832AA1044991C00228029E0
:10EA500000F8882C63D032A80844D91C802900F81B
:10EA6000882C5CD032A80844191D802900F8882C15
:10EA700055D032A80844591D802900F8882C4ED062
:10EA800032A80844991D802900F8882C47D032A864
:10EA90000844D91D802900F8882C40D032A80844A9
:10EAA00003F10801802900F8882C38D032A80844E6
:10EAB00003F10901802900F8882C30D032AA5018BF
:10EAC00003F10A010022802900F8882C27D032A8FF
:10EAD000084403F10B01802900F8882C1FD032A8CC
:10EAE000084403F10C01802900F8882C17D032A8C3
:10EAF000084403F10D01802900F8882C0FD032A8BA
:10EB0000084403F10E01802900F8882C07D032A8B0
:10EB10000144702B01F8882C01D18DF8BF203946B3
:10EB2000304600F033FD7A286CD800F1400906EB3E
:10EB30000901421C7B2AC1F10001C0F17B0301F0F5
:10EB4000030188BF0123994228BF1946062B319D36
:10EB50009E4659D832AC04440021012B04F8881C8D
:10EB60004ED00DF1C80C9444022B02F101040CF8B4
:10EB7000881C20D00DF1C80CA444032B02F1020420
:10EB80000CF8881C17D00DF1C80CA444042B02F11A
:10EB900003040CF8881C0ED00DF1C80CA444062BFD
:10EBA00002F104040CF8881C05D10DF1C80CA44432
:10EBB000541D0CF8881C73457FF49CAECAE6684669
:10EBC0000F4600F0E7FA291A6E4603463944F0B1C1
:10EBD000043880085D1E0130022D4FEA80027FF666
:10EBE00010AF10AFBE460D46013455F804CB4EF8B9
:10EBF00004CB8442F8D39A4211447FF404AF17E760
:10EC00001446D8E7319DA5E604460B466EE632AFC2
:10EC10008022309007F8882D012086E7AFF300802E
:10EC200008C9BCF367E6096A3BA7CA8485AE67BB1F
:10EC30002BF894FE72F36E3CF1361D5F3AF54FA54A
:10EC4000D182E6AD7F520E511F6C3E2B8C68059B26
:10EC50006BBD41FBABD9831F79217E1319CDE05BDE
:10EC60002DE9F04F9FB0A1F108031C93D2E90E34B7
:10EC7000CDE91634D2E90C34CDE90234D2E90A34B4
:10EC8000CDE90034D2E90634CDE91834D2E90234B2
:10EC9000CDE90634D2E90434CDE9043400F180032F
:10ECA000D2E908ABD2E900891D9309909646014646
:10ECB00006E0CDE90689B2468946BB46804619463C
:10ECC000F1E802451C9F09914FEA9A3242EA8B42D1
:10ECD000F7E902010A924FEA9A434FEA9B364FEA5C
:10ECE0009B4243EA8B3346EA8A4642EA8A320C93D5
:10ECF0000D924FEACB530B96CDE91A0143EA5A2203
:10ED0000DDE90C011C974FEACA53DDE90A670F924F
:10ED100043EA5B220E9246404F40DDE90E0170400F
:10ED2000794006460F464FEA1873DDE91A0143EAB7
:10ED300009124FEA8973109243EA9802001913925C
:10ED40004FEA887269414FEA197342EA9902CDE9A4
:10ED50001A0143EA0815DDE900011292DDE90223F8
:10ED60004FEA4964119544EAD81515954240DDE90A
:10ED700002454B40DDE91A0103EA0B03801902EA60
:10ED80000A0285EA03054FEA486C79415440DDE9FF
:10ED900006672B464CEAD91514952246DDE9044551
:10EDA00046EA080647EA0907121804EA060405EAD3
:10EDB00007054B4126462F46DDE91001DDE91245E6
:10EDC0006040694004460D46DDE914016040694039
:10EDD00004460D46DDE9060100EA080001EA0901E2
:10EDE00030433943DDE91667B6185F4132463B468A
:10EDF000DDE9186700196941B6185F41801859416B
:10EE0000DDE90023DDE90245CEE90C23DDE9042339
:10EE1000CEE90E45CEE90623CDE91645DDE9062308
:10EE2000DDE90445CEE90423CDE90423CDE9184505
:10EE3000099B1D9ADDE900459342CEE90AABCEE974
:10EE40000289CEE90867CDE90245CEE90001CDE9A6
:10EE500000AB7FF42EAF1FB0BDE8F08F2DE9F04F6F
:10EE60008FB0A0F108014FF0000E03917346AEF190
:10EE700002020EF1010E02F00F020EF00F0400EB81
:10EE8000C20600EBC40550F834706D68746850F821
:10EE900032604FEA172AF90900914FEAD64C4AEA44
:10EEA000056106914CEA4431089100994FEA550BEF
:10EEB00041EA45614FEA152A00914BEAC7717A0889
:10EEC00005914AEA0761039F0791D7E902AB42EA3D
:10EED000C5724FEAD44C4CEA46310492F700E20086
:10EEE00042EA56724FEA9618CDE90CAB0991DDE97A
:10EEF00006AB47EA5471DDE904670B920A9186EA92
:10EF00000A06E90987EA0B0748EA8468DDE90AABE3
:10EF10004FEA9419DDE90845019184EA0A0485EA7B
:10EF20000B05DDE900AB073B03F00F038AEA060A95
:10EF30008BEA070B00EBC303D3E9002356465F4679
:10EF4000DDE90CAB1AEB020A4BEB030B84EA080475
:10EF50001AEB06024BEB07030399121985EA090520
:10EF60006B41E1E90223BEF1100F03917FF47EAF04
:10EF70000FB0BDE8F08F00BFF0B599B004460E4663
:10EF80000A4601466846FDF7EEFD69466846FDF70C
:10EF900017FE6A46214608A806F1200504F120075D
:10EFA000FDF70FFE6A4631466846FDF70AFE394610
:10EFB0002A4610A8FDF798FD2A4639462846FDF74F
:10EFC000D2FD29463046FDF7FBFD6A4608A92046DA
:10EFD000FDF78AFD224631463046FDF7C4FD6A46FC
:10EFE00008A96846FDF7BFFD6A4639463846FDF771
:10EFF000E8FD324608A96846FDF7B5FD6A46294690
:10F000002846FDF7DEFD3A4629462846FDF7ABFDCA
:10F0100010A96846FDF7D4FD224669462046FDF753
:10F02000A2FD08A922460846FDF79DFD10A908AAE1
:10F030000846FDF7C6FD3A4610A93846FDF793FD90
:10F0400019B0F0BD2DE9F0410C4688B00546904658
:10F05000014622466846FDF786FD69466846FDF78B
:10F06000AFFD6A462946284604F12006FDF7A9FDB2
:10F0700005F120076A4621466846FDF7A2FD3246A3
:10F0800030463946FDF76FFD31462046FDF798FDC5
:10F090002A4621462046FDF766FD6A46214620465F
:10F0A000FDF761FD6A4629464046FDF75CFD424694
:10F0B00039463846FDF785FD224629466846FDF764
:10F0C00052FD6A4631463046FDF77BFD3A463146F1
:10F0D0003046FDF748FD08B0BDE8F0812DE9F0416C
:10F0E00088B00D46074602F12001684607F1200668
:10F0F0009046FDF765FD6A4669466846FDF7F4FCF3
:10F1000030466946FDF75CFD32463146304605F132
:10F110002004FDF7E9FC6A4669466846FDF7E4FC11
:10F1200020464146FDF74CFD6A4641463846FDF70C
:10F1300048FD224621466846FDF7D6FC2246694630
:10F140006846FDF7D1FC69466846114AFDF7CCFCDC
:10F1500069462846FDF734FD3A4629462846FDF71C
:10F1600002FD3A4629462846FDF7FDFC2A46394667
:10F170002046FDF7F8FC6A4621462046FDF721FDB2
:10F18000324621462046FDF7EEFC08B0BDE8F0818E
:10F19000782903002DE9F04FE3B07F2A134631921E
:10F1A00040F2E5818B46D0E90212CDE92A12D0E97E
:10F1B0000412CDE90212D0E90612CDE90412D0E919
:10F1C0000812CDE90612D0E90A12CDE90812D0E9F9
:10F1D0000C12D0E90045CDE92C12D0E90E12CDE990
:10F1E0000A45CDE92E12CDE9006781463093DBF860
:10F1F0000830DBF80020DBF810E0DBF81800DBF863
:10F200002810DBF80CA0DBF81480DBF81CC01BBA5C
:10F210000D93DBF820301BBA12BA1393DBF83830A9
:10F220000192002200929EFA8EF41BBADDE900677B
:10F23000DBF830200F941993DDE90A3400BA09BADB
:10F2400012BA11901591DBF82400DBF82C101792FC
:10F250000C96DBF834200E9610961296149616969D
:10F260001896CDE93234DDE92A34CDE93434DDE9CC
:10F270000245CDE93645DDE90C459AFA8AFA44EAB9
:10F280000A040DF5887ACAE90045DDE90445CDE9AF
:10F290003845DDE90E4598FA88F844EA08040DF58A
:10F2A0008C78C8E90045DDE910459CFA8CFC44EAFD
:10F2B0000C040DF5907CCCE90045DDE90645CDE96F
:10F2C0003A45DDE9124500BA44EA00044AA8C0E91B
:10F2D0000045DDE9144509BA44EA01044CA9C1E935
:10F2E0000045DDE90801DBF83C30DBF804E0CDE95E
:10F2F0003C01DDE91645DDE9180112BA1BBA44EA02
:10F30000020440EA0300DDE92C23CDE93E23324626
:10F310003B46DDE92E679EFA8EFE42EA0E020DF5AF
:10F32000807ECEE900674EAEC6E9004550ACC4E928
:10F33000000142A9C1E90023DBF84410DBF84030AA
:10F34000DBF8582002921BBA1B93029BDBF860008B
:10F3500004901BBA2193049BDBF8684006941BBA07
:10F360002393069BDBF8705008951BBA2593089BE6
:10F37000DBF87820DBF848A00A921BBADBF8508053
:10F3800027930A9BDBF85470DBF84C20DBF85CE039
:10F39000DBF864C0DBF86C50DBF87440DBF87C0011
:10F3A0009AFA8AF61D961BBA98FA88F61F96299340
:10F3B00000231A931C931E933BBADDE90078209733
:10F3C0002297249726972897DDE91A6709BA46EA13
:10F3D000010652A9C1E90067DDE91C6712BA46EAD5
:10F3E000020654AAC2E90067DDE91E1241EA0301E0
:10F3F00056ABC3E90012DDE920239EFA8EFE42EAF5
:10F400000E0258A9C1E90023DDE922239CFA8CFCF5
:10F4100042EA0C025AA9C1E90023DDE924232DBAEE
:10F4200042EA05025CA9C1E90023DDE9262324BAEA
:10F4300042EA0402DDE9284500BA5EA9C1E90023D9
:10F4400044EA000460AB32AA42A94B48C3E9004534
:10F45000FFF706FC42A8FFF701FD32AA42A9474880
:10F46000FFF7FEFB42A8FFF7F9FC32AA42A9444885
:10F47000FFF7F6FB42A8FFF7F1FC309B4148803BC9
:10F4800032AA42A93093FFF7EBFB42A8FFF7E6FC54
:10F4900032AA42A93C48FFF7E3FBD9E90045DDE980
:10F4A0003223A618D9E9020145EB0307DDE934450B
:10F4B00024184D41D9E90423DDE9360112184B41E6
:10F4C000CDE90223DDE93801D9E9062312184B41C1
:10F4D000CDE90423DDE93A01D9E9082312184B41AB
:10F4E000CDE90A67CDE90623D9E90A67DDE93C23BE
:10F4F00092197B4111461A46DDE93E67CDE90812B3
:10F50000D9E90C0140AB8019D3E900237941D9E94D
:10F510000E67B6185F41DDE90A23C9E90023DDE97A
:10F520000223C9E90423DDE90423C9E90623DDE94F
:10F530000623CDE92A45CDE92C01CDE92E67C9E99D
:10F540000245C9E90823DDE90823C9E90A23309BFC
:10F550007F2B0BF1800BC9E90C01C9E90E673FF65F
:10F5600046AE319B03F07F0063B0BDE8F08F1046DC
:10F5700063B0BDE8F08F00BF38200300B82003005F
:10F5800038210300B8210300382203002DE9F04F91
:10F590000B68D1F808C0D1F80C90D1F810E08F6951
:10F5A000D1F82080D1F824A0B7B01BBA0193002372
:10F5B00000939CFA8CF599FA89F943EA09022B46E3
:10F5C000DDE90045D1F814C00646C869CDE9182325
:10F5D0009CFA8CFC9EFA8EF3224642EA0C0200BA98
:10F5E000CDE91A2344EA000B3BBA98FA88F59AFA57
:10F5F0008AFA002444EA0A029C462B464868CDE970
:10F600001E23DDE90023D6E90089CDE91CBC00BA40
:10F61000D6E902AB42EA0002CDE91623D6E904237B
:10F62000CDE90689CDE908ABD6E90689D6E908AB6C
:10F63000CDE90A23D6E90A23CDE90C89CDE90EAB41
:10F64000D6E90C89D6E90EABD1F828E0D1F830C064
:10F650008D6B086C8F6CCDE910239EFA8EF30393AB
:10F6600000230293DDE90223CDE91289D1F82C9021
:10F67000D1F850E0D1F8588099FA89F942EA0902A4
:10F68000CDE920239CFA8CF3039300230293DDE958
:10F690000223D1F834C09CFA8CFC42EA0C02CDE97A
:10F6A00022232BBA039300230293DDE90223CD6BBF
:10F6B000D1F870C02DBA42EA0502CDE9242303BA7D
:10F6C00003930023CDE914AB8D6FD1F860A0D1F87E
:10F6D00068B0486C0293DDE9022300BA42EA0002F6
:10F6E000CDE926233BBA039300230293DDE90223ED
:10F6F000C86C4F6D00BA42EA0002CDE928239EFA99
:10F700008EF3039300230293DDE902233FBA42EA1A
:10F710000702CDE92A23C86DD1F864E0CF6E98FACC
:10F7200088F3002299469AFA8AF30393029200BA68
:10F7300042EA0008DDE902239EFA8EFEC86F42EA23
:10F740000E02CDE92C899BFA8BF4D1F87480DDE9A7
:10F7500000ABCDE92E2300BA2BBA00224E4D42EA6F
:10F76000000298FA88F1A1463FBA9CFA8CF4CDE9E0
:10F7700034234AEA070806AA4AEA010AA34616A958
:10F780002846CDE93089CDE932ABFFF769FA16A8F2
:10F79000FFF764FB06AA16A905F18000FFF760FADF
:10F7A00016A8FFF75BFB06AA16A905F58070FFF700
:10F7B00057FA16A8FFF752FB06AA16A905F5C0705E
:10F7C000FFF74EFA16A8FFF749FB06AA16A905F59A
:10F7D0000070FFF745FAD6E90023DDE90601D6E916
:10F7E0000289DDE908AB141843EB010518EB0A02A6
:10F7F00049EB0B03CDE90245DDE90AABCDE9042372
:10F80000D6E9043413EB0A0344EB0B049A46A346EF
:10F81000D6E90623DDE90C4512191446DDE902128A
:10F820006B41D6E908781D46C6E90012DDE90E23D2
:10F83000BF1848EB0308DDE90423C6E90878C6E9E8
:10F840000223DDE91089D6E90A2312EB080243EB13
:10F85000090390469946C6E904ABD6E90C23DDE9D5
:10F8600012AB12EB0A0243EB0B0392469B46C6E92E
:10F870000645DDE91423D6E90E45A41800985D413C
:10F8800022462B46C6E90A89C6E90CABC6E90E2317
:10F8900037B0BDE8F08F00BF382003002DE9F04FEE
:10F8A00000268DB0DFF8A081B14604964FF4807534
:10F8B000012437460596284608F084FC38B1D8F86C
:10F8C0000403204203D0284608F072FC26432D1D75
:10F8D00064007F1CADB2082FEDD34FF4BE742046F8
:10F8E00008F070FC48B1204608F062FC46F0004683
:10F8F00004AA0221002008F045FC544C16F0FF0F2A
:10F9000015D00127002537420DD008EB8501D1F82D
:10F910001005D1F81015C0F3052054F82520C1F3C7
:10F92000014102B190477F006D1C082DEBD3002EE2
:10F930007EDA0020CDF82890411E0DF1100B07AAA9
:10F94000CDF82C9042F82010401C91460228F9D3A3
:10F9500000252E46A11911F85A7F91F9000027F0D1
:10F96000C008401C40D007A9404607F033F840B318
:10F970004FEA971A404602F0C9FB54F820701FB1B5
:10F98000BAF1030F03D006E0BAF1030F2CD10AA994
:10F99000404607F027F802A8CDF8088008F096FB4B
:10F9A000029900EB8100D0F8000704A9C0F30140E0
:10F9B0000290404607F00EF80028029802D0022874
:10F9C00002D011E003280FD1BAF1030F08D1029839
:10F9D000022833D00221404608F052FB6D1CEDB2E4
:10F9E00017B151464046B847761C042EB2D3002DBD
:10F9F00021D001AA0221002008F0C4FB00205A46B1
:10FA00000DF1040152F8206051F82030B34217D0B4
:10FA100000200AAE4FEA090351F8207042F8207026
:10FA200056F8207043F82070401C0228F4D300E000
:10FA300001E0002D8CD10DB0BDE8F08F0321CAE7A5
:10FA4000401C0228DED3F6E700600040142A0020A4
:10FA50002DE9FF5F4FF482750024284608F04CFF23
:10FA600038B1022008F058FF18B1284608F04CFFC2
:10FA700002244FF48475284608F03EFF58B1042054
:10FA800008F04AFF38B1284608F03EFF0CB10324C5
:10FA900002E0012400E014B1204609F011FD4FF40A
:10FAA0008C7008F029FFDFF88891624F624E634C3A
:10FAB0004FF000084FF4947A4FF4867B78B34020DF
:10FAC00008F02AFF58B34FF48C7008F01DFFB0689F
:10FAD000CDE90008D9F800000390554814300068BB
:10FAE0005546C0F30B001038C0F3CC0002905046CE
:10FAF00008F002FF60B1381508F00EFF40B1386819
:10FB000000F00D000190284608F0FEFE0D20386040
:10FB1000616809B168468847584608F0F5FE4FF419
:10FB2000887008F0E9FEA0B1102008F0F5FE80B161
:10FB30004FF4887008F0E8FE06F118000FC88DE851
:10FB40000F003F491820C1F80803616809B16846F1
:10FB500088474FF4A67008F0CFFE364D083D30B30D
:10FB60004FF4002008F0D8FE08B34FF4A67008F058
:10FB7000CBFE4FF48C7008F0C7FE504608F0C4FE70
:10FB8000584608F0C1FE4FF4887008F0BDFE002012
:10FB900009F0EEFC0D2038600120286006F12800F5
:10FBA0000FC88DE80F00616809B1684688474FF4B7
:10FBB0008E7A504608F0A0FEC0B1802008F0ACFE5E
:10FBC000A0B12F68504608F09FFE383696E80F0027
:10FBD0008DE80F00F80707D0012028608DF8048019
:10FBE000616809B168468847012028605D4658462B
:10FBF00008F082FE002819D0082008F08DFE0028A9
:10FC000014D0284608F080FE616800290ED0082034
:10FC10000090D9F80000029005480C30006840F2CE
:10FC2000FF1202EAD000019068468847BDE8FF9FB6
:10FC3000105500400C540040C8E102007C2A00200E
:10FC40000050004070B54FF48076304607F0C4F99C
:10FC50000F4DB40540B1304607F0C5F90120C4F896
:10FC600008032968002088474FF48276304607F061
:10FC7000B3F900280AD0304607F0B5F90220C4F8DD
:10FC800008032968BDE870400120084770BD0000E6
:10FC90000C1F0020064882B000210160006800901F
:10FCA000044800680449C0B2496802B0084700002F
:10FCB00000D1004008D500402C1F00200249024816
:10FCC000091F096800680847781F002009F012B969
:10FCD00030B54FF080520021D2F8300101240D28B8
:10FCE00002D1D2F8343113B10D2809D00BE04FF016
:10FCF0008040C0F80C11C0F810115248016005E0B6
:10FD0000D2F8343113B10D2857D060E04E48006866
:10FD10004E4A10604C48001D0068121D10604A4891
:10FD200008300068121D106047480C300068121D32
:10FD30001060454810300068121D106042481430B1
:10FD40000068121D10604048183000683F4A203299
:10FD500010603D481C300068121D10603A48203089
:10FD60000068121D1060384824300068121D1060B1
:10FD7000354828300068121D106033482C30006868
:10FD8000121D1060304830300068304A4032106038
:10FD90002D4834300068121D10602B483830006840
:10FDA000121D106028483C300068121D1060264863
:10FDB00040300068121D106002E0D2F8340130B902
:10FDC00023480268D20702D06FF001020260214886
:10FDD000026842F470020260BFF34F8FBFF36F8F6F
:10FDE0004FF01022D2F80002002803DBD2F8040200
:10FDF000002822DA184B1C6018480468002CFCD03C
:10FE00001224C2F800420568002DFCD0C2F804425A
:10FE10000268002AFCD0196001680029FCD0BFF3F9
:10FE20004F8F0C487C3801680D4A01F4E0611143A2
:10FE30000160BFF34F8F00BFFDE70B490948086021
:10FE400030BD0000380500400404001020C500400B
:10FE50000004004088ED00E004E5014000E40140BA
:10FE60000400FA050090D003642000202DE9F0473B
:10FE7000104E062700244FF4A0784FF4803900BFBD
:10FE800008EB840509FA04F0715961B1D6F804133E
:10FE9000014208D02946304609F0F2F80648D0E978
:10FEA000002128469047641CE4B2BC42E8D3BDE878
:10FEB000F087000000B001408C2A00200148006853
:10FEC00000470000241F002000F01F020121914084
:10FED0004009800000F1E020C0F88012704702E085
:10FEE00008C8121F08C1002AFAD1704770470020C5
:10FEF00001E001C1121F002AFBD170470121202817
:10FF000003DA81400548014003E0402802DA203846
:10FF1000814009B10120704700207047FC06FFBDF9
:10FF20002DE9F843804643F2020659B969460AF0C2
:10FF3000E3FEB04202D008B100F0EAF99DF80000FB
:10FF4000800744D4002140460AF0E0FE05003ED080
:10FF5000112D3CD01F482049401AC708022000EB51
:10FF600007440D2D0AD00B2D1DD0B5421FD11B49C2
:10FF700020464246BDE8F84308F02EBB20464246E4
:10FF8000174908F029FB1321404676DF00281ED0D0
:10FF900009F06CF8024601B020464346BDE8F04344
:10FFA00010A108F020BB204642461C49E2E7284643
:10FFB00009F05CF80246012000EB0740434618A117
:10FFC00008F011FB2846BDE8F84300F0A1B9BDE8F0
:10FFD000F8830000702A0300302A03006411030034
:10FFE000F010030073645F626C655F6761705F644B
:10FFF0006973636F6E6E656374282920726574750A
:020000040002F8
:10000000726E6564202573206F6E20636F6E6E5F65
:1000100068616E646C652025642E0000B0110300D9
:10002000417373657274696E672E20706D5F636FC4
:100030006E6E5F73656375726528292072657475CD
:10004000726E6564202573206F6E20636F6E6E5F25
:1000500068616E646C652025642E000010B560B187
:1000600059B102780B785208B2EB530F05D1062232
:10007000401C491CFDF778FC08B1002010BD012090
:1000800010BD800701D00020704701207047C36871
:100090008B4206D811440069491E814201D80120D3
:1000A00070470020704790F824001F20704710B55B
:1000B00001220221002001F0E1FD08B1072810D142
:1000C00007220221012001F0D9FD08B1072808D13B
:1000D00000210A22084601F0D1FD08B1072800D10D
:1000E000002010BD70B58CB015460E4600236C463E
:1000F000C3F10F01415CE1545B1C102BF8D30D21BF
:1001000004F11000FDF71EFC0020C0F10F02315C6D
:100110002244401C11740328F7D3684646DF0020B0
:10012000C0F10F01214491F820102954401C0328EC
:10013000F6D30CB070BD000070B5254CA0421ED1A6
:10014000F1B1012936D0022928D0032917D107207F
:1001500005F02AFC002812D194F8680094F8691080
:1001600088420CD194F86A00002808D10023D4E911
:1001700001501A460321A847012084F86A0070BD87
:10018000052005F011FC0028F9D1A068646800235F
:10019000A446BDE870401A46012160471046190088
:1001A000EDD00028EBD00278302AE8D1BDE87040CD
:1001B00005F01ABC082005F0F7FB28B9A068002359
:1001C00064681A460221A047BDE8704005F0C0BC33
:1001D00014340020022001F053BC00000149C9780A
:1001E00000F028BF801E002070B50024064D06E0F8
:1001F0006868012110F8340008F0BAFF641C287800
:100200008442F5D3002070BD381F0020F8B5164693
:100210000C4605460A2A01D20720F8BD09F09CF8D1
:1002200018B909F063F80028F7D1134F20211348BB
:100230007D603C70BE60FDF785FB0020C7E90400CF
:100240000F4E0DE005EBC4003168009181788DF808
:10025000011000780B4A694608F0D6FF0028DCD16F
:10026000641EE4B2EED2BDE8F84005480021064A1B
:10027000001D00F05FB80000381F0020082B002090
:1002800018E20200653B0200F128020072B608F095
:1002900053FA00BF08F082F80028FBD11148124938
:1002A000401AC408012000EB044010A108F090F9A6
:1002B00011480068C00700D000BE022000EB0440D7
:1002C0000EA108F085F9BFF34F8F0B48E4380168A1
:1002D0000E4A01F4E06111430160BFF34F8F00BF8C
:1002E000FDE70000102B0300302A03004661746113
:1002F0006C206572726F7200F0ED00E053797374D8
:10030000656D207265736574000000000400FA05D5
:100310000EB500210091CDE901106A4644F20100BA
:10032000FFF7B4FF0EBD0000014802F048BB00001B
:10033000581F00203AB100680129426100D0002115
:1003400001610020704707207047000038B5114850
:1003500008235822416800910F49006806F01FFAEF
:10036000002815D10D4A69460D4802F02DFB040006
:100370000ED101210A4802F09EFB0123094A1946C9
:10038000074802F0F4FA06490120083908702046AF
:1003900038BD000020E20200382B002079C00200A6
:1003A000581F0020FFFF7F0070B50446007F0D46F8
:1003B00008B1002070BDA26103F0BAFB401941F101
:1003C0000001C4E90201206900B125612146BDE8B0
:1003D000704000200CF0A2BF0146002008770120E9
:1003E0000CF09CBF30B5EFF3108172B60D4A9468E3
:1003F000012324B10370002900D162B630BD93609F
:100400004FF0E023D3F88051074C25401560C3F826
:100410008041D3F8844154605A17C3F884210022E4
:100420000270E8E7902B0020FC06FFBD0B498A68AC
:10043000002A11D000280FD1EFF3108072B60B689C
:100440004FF0E022C2F800314B68C2F804310022BC
:100450008A60002800D162B670470000902B00200F
:1004600010B5144C00224FF400412068FFF79CFFA8
:1004700008B1FFF74DFF00224FF480416068FFF79D
:1004800093FF08B1FFF744FF002241F23331A06827
:10049000FFF78AFF08B1FFF73BFF00224FF4A031BE
:1004A000E068FFF781FF002803D0BDE81040FFF7A8
:1004B0002FBF10BD28DF020070B5054608680C4646
:1004C000411C04D007F037FE206807F0C5FD6068C6
:1004D000411C02D0002107F0ADFD2968A069C1F8D8
:1004E0002405607D227D29681043C1F86C05D4E99C
:1004F00000122868C0F81425C0F80C15207D0128CA
:1005000014D1A068411C02D0002107F093FDE068DF
:10051000411C04D007F00FFEE06807F09DFDD4E910
:1005200002122868C0F80825C0F8101570BD70B513
:10053000054608680C46411C04D007F006FE2068FA
:1005400007F094FD6068411C02D0002107F07BFD9C
:100550002968A069C1F82405607D217D2A680843C7
:10056000C2F86C05D4E900122868C0F80C15C0F870
:100570001425207D012814D1A068411C02D000213F
:1005800007F061FDE068411C04D007F0DEFDE06883
:1005900007F06CFDD4E902122868C0F80825C0F8FD
:1005A000101570BD04F000B92DE9F04781460588AB
:1005B0004A484FF000088AB001784246284600F0C9
:1005C00051FD99F80500400701D4002176E005F5BA
:1005D0008077B8B205AB012207210AF025F80400A4
:1005E0003F48404A4FF00101A0EB02004FEAD00023
:1005F00001EB00460AD0204608F038FD024630469E
:100600002B46394907F0EFFF214629E0284603F041
:10061000C5FD4FF6FF71044688422BD18A460698E5
:1006200003F026FD0446504510D00146284603F04D
:1006300095FD2846FFF7D2FDE0B928460BF0F6FFFE
:100640002846FFF7CBFD0028BFD013E00AF0BAF927
:100650000446504508D1304624A107F0B9FF0421D3
:1006600028460CF011F8B0E70146284603F076FD65
:100670004FF00108B8B2224607210AF04DF80700F2
:100680001BD0862F1ED008F0F1FC024630462B46C8
:100690002349009407F0AFFF394628460BF0F4FFDA
:1006A0000021484609F0B8FEB8F1000F02D02046FC
:1006B00003F05EFD0AB0BDE8F0870121484609F06D
:1006C000ABFEF7E7142217496846FDF713F9ADF8BA
:1006D0000250684602F020FCEFE70000801E002078
:1006E000782A0300302A0300AC140300436F756CB2
:1006F00064206E6F7420616C6C6F63617465206E32
:10070000657720706565725F696420666F72206925
:100710006E636F6D696E6720626F6E642E000000FD
:10072000C8150300A4E0020070B5044690B0087B31
:100730000D468DF83800202105A8FDF703F942F693
:100740001920ADF814000120ADF81800ADF81A001A
:100750000EA80790617C9DF82100A21D61F3041092
:1007600040F002008DF82100A87B8DF82700687BFF
:100770008DF82500A08805A901F000FD00281CD1F6
:10078000A968E1B10FA801F0A4F806461421684653
:10079000FDF7D8F842F60810ADF80000E87B8DF8B8
:1007A00006000FA8ADF80A60ADF80E600490E0886E
:1007B00004F10E02694602F045F810B070BD002049
:1007C000E081FAE710B50D490D480BF0D4FFC1B236
:1007D0004FF6FE720B4800F0DFFA00280DD0082813
:1007E0000BD0132809D0112807D043F201418842C9
:1007F00003D0BDE81040FFF78BBD10BDB422002030
:100800008C1D0020382100200A4601461046AEDF2C
:1008100070472DE9FC47002517880646158090F89B
:100820002D001446894630B13A462146484600F02C
:100830003FFC051E09D1B0784FF00C0A18B3208890
:10084000C846001DB84202D95046BDE8FC8768463C
:1008500079DF0028F9D12088032108F800102088CA
:100860001921401C80B2208008F800102088401C0C
:1008700080B2208000EB0801BDF800000CF07FFF83
:10088000218808442080F0780222C8B1218896F996
:10089000033001F1030C4846BC45D5D842542188A9
:1008A0004FF0010C491C89B2218000F801C0218859
:1008B000491C89B2218009F801302088401C208021
:1008C0007068B8B1218890F9003001F1030C4846F6
:1008D000BC45B9D8425421880A22491C89B22180DA
:1008E00042542188491C89B2218009F801302088AE
:1008F000401C2080308950B1CDE900474B4606228C
:10090000022106F108000DF029F8051E9DD1308A5C
:1009100050B1CDE900474B460722032106F11000F4
:100920000DF01CF8051E90D1308B50B1CDE9004779
:100930004B461522142106F118000DF00FF8051E84
:1009400083D1306A30B13B462246494601F0DFFD93
:10095000051EDBD1706A30B13B462246494604F0A1
:100960004BF9051ED2D196F82C0038B13B462246F1
:10097000494630460CF034F8051EC7D1307838B1FE
:100980003B4622464946304604F050FF051EBDD185
:1009900028465AE718B504460020ADF80000134673
:1009A0006A46204600F006F8002802D0BDF8000094
:1009B000204418BD70B5C8B1C2B10024158803E049
:1009C000065D641C3444A4B2A54203D806197678A7
:1009D0009E4201D08C42F3D38C4207D2005DA31C0F
:1009E000401E9BB280B21C188C4201D9002070BD01
:1009F000138070BD80F8301070472DE9F0410D0074
:100A0000044606D02CB195F87A000026012803D0C0
:100A100006E00E20BDE8F08195F89800012829D065
:100A2000D5F8A000042825D0D5F89C00042821D0B2
:100A30004FF00108A6702C2205F17801201DFCF76B
:100A400059FF84F83060D5F8A4006063D5F8A80099
:100A5000A0634FF6FF70A4F8E80004F1D400C4F8D6
:100A6000E400C4F8EA60A4F8EE6084F8F06020784E
:100A700010B104E00720CDE7FF2084F8540004F112
:100A800055072046C4F8D470FFF70DFBA4F8D80032
:100A900004F1D80239462846FFF7BBFE0028B9D139
:100AA00004F19300C4F8DC002046FFF7FCFAA4F838
:100AB000E00004F1E00205F13C00D4F8DC10FFF79F
:100AC000A8FE0028A6D184F85180208BA4F8480005
:100AD00084F83C80266484F850606069002160647A
:100AE000454604F13C02781E72DF002892D1257041
:100AF00090E710B50288102A1BD0112A20D0262A90
:100B00001DD1007A0C46012801D0022817D1A07807
:100B10000521401CB0FBF1F201FB1201204600F060
:100B20003AF800280BD0A16B002908D0BDE810408E
:100B30000847C27B012A02D18088A1F8E80010BDD5
:100B40000C46002184F8F2108088B4F8E81088423E
:100B5000F5D120790028F2D10121DFE710B5044654
:100B600090F8540074DF012084F8F200002084F82B
:100B7000F40084F850000621204602F006FC00280C
:100B800008D1A178204600F006F810B1A16B01B1A0
:100B90008847002010BD2DE9F05F044600780F461D
:100BA00098B1A7700025C4F8EA50A4F8EE5084F874
:100BB000F050A079012608B1012F09D0E07980B169
:100BC000012F05D0022F03D00BE00820BDE8F09FD5
:100BD000616B21B184F8F1600820884701E084F856
:100BE000F15004F1EB0100200A5C0AB1304603E049
:100BF000401C0628F8D300204FF002084FF0030AEB
:100C00004FF0040B012F06D0022F0CD0032F0FD072
:100C1000042F15D110E0A17929B194F8241011B94D
:100C200008B130460DE0E17911B108B1404608E065
:100C3000207A08B1504604E0607A08B1584600E0D6
:100C40002846A070616B41B1032801D0042804D16B
:100C5000607910B194F8F20098B184F8F35004F17F
:100C60003C0018210746FCF76DFE84F83C6004F157
:100C70002C0009F0A3FF58B194F82C0084F851001F
:100C800008E084F8F45084F8F36007208847E6E72A
:100C900084F8516094F8240058B104F1280009F058
:100CA0008DFF20B194F8280084F8520001E084F808
:100CB000526084F85050A27804F1EA0104F1D4099A
:100CC000052A4DD2DFE802F065030F1B320084F8DD
:100CD0003160C4F8E450C4E9101584F83C808020E9
:100CE000A4F848003EE084F8318087F800A0228A0A
:100CF000BA81C4F8E4507960E168B96032E06069B3
:100D0000B860208BB8813D4684F83C6020460CF0EA
:100D1000F1FD40B185F814800421204602F035FB36
:100D2000F0B9052115E084F831A017E0E069B8605A
:100D3000208CB8813D4684F83C6020460CF0DAFDFA
:100D400050B185F814800421204602F01EFB38B90A
:100D5000062184F8311001E084F831B0C4F8E49041
:100D6000A07878B13A4604F15400D4F8E41072DF68
:100D700000287FF42BAF94F8301094F8540073DF00
:100D80000028F6D1616B11B194F83100884700203A
:100D90001CE784F83150F5E7F7B594B01746050025
:100DA0003CD0287C9DF854100024884252D0002664
:100DB0004FF0010E0D9615A8ADF834E00E90ADF889
:100DC0003660E9880DAA4FF6FF70ACDF040026D12B
:100DD0009DF854002874687CA0B30F961096119665
:100DE0001296E888ADF83C00BDF83600ADF840003A
:100DF0000DA811900E981290A7F57F408DF83EE057
:100E0000FE3805D039460FA8FFF7FEFC044621E066
:100E1000684600F09DF800256F460FE00E2017B0E1
:100E2000F0BD00BF07EB4506B08800F0E5F80228EA
:100E300003D144B10FA9B088AEDF6D1C0098A84261
:100E4000F0D807E005E0B1880FA8FFF7DDFC044605
:100E5000F3E708242046E2E738B50D46040018D031
:100E6000BDB12868206028796074FF2020740120BB
:100E70008DF8020041F60F00ADF80000221D694612
:100E80000120A8DF002803D129462046FFF74CFCAB
:100E900038BD0E2038BD38B5002924D0002822D016
:100EA0000288502A1FD10546487C0C4600281AD0DB
:100EB000E9886289A81D914215D14189022912D180
:100EC000216800290FD00C3000F0FFFC08B1002091
:100ED00000E001208DF80000A888ADF8020022682B
:100EE00069462046904738BD70B5040012D00146CF
:100EF0001C221448FCF7FEFC1248134D05602068C4
:100F000050B17ADF002806D1206801682960406866
:100F1000686005E00E2070BD0B487BDF0028FAD129
:100F200008484FF6FF711438084A20F8041B054999
:100F3000343901600021FFF7FDF90028EBD00320D0
:100F400070BD00008C230020C81D00208DD8020039
:100F50000149496801F0BCBAA823002010B5044635
:100F600000F09CF8002805D02146BDE8104002485A
:100F700005F094BC10BD0000B823002070B51546E4
:100F80000E4604460CF0C2FC002809D0054800EBD0
:100F90008400C0692A463146BDE8704002F022BA9A
:100FA00070BD0000A823002010B5044600F076F8BC
:100FB000002805D02146BDE81040024805F06EBC6F
:100FC00010BD0000C023002010B5044600F066F8F4
:100FD000002805D02146BDE81040024805F05EBC5F
:100FE00010BD0000BC23002010B5002400F056F80E
:100FF00000B10124204610BD70B50546002400F064
:101000004DF838B12946044805F048FC08B10224DF
:1010100000E00124204670BDB023002010B5182147
:10102000034805F016FC182800D0C0B210BD00001F
:10103000A823002070B505460C4608460CF066FC57
:1010400060B1284600F02AF840B10548294600EB77
:101050008400BDE870401C3005F020BC002070BD4D
:10106000A823002070B5054616460C4608460CF02D
:101070004DFC00280ED0284600F010F8002809D0BA
:101080000548324600EB84002946BDE870401C301C
:1010900002F076B970BD0000A8230020142801D307
:1010A000002070470146014805F0F8BBAC23002042
:1010B0007CB5054608880C460930904201D90C20C1
:1010C0007CBD68466DDF0028FAD12188082068546D
:1010D00020881B21401C80B2208029542088401C7D
:1010E00080B220802844DDF801100160BDF80510B1
:1010F00081802088801D80B220809DF800104908E2
:1011000000D0012129542088401C208000207CBD73
:101110001FB5044601208DF8060041F60A00ADF81F
:101120000400494A01A90120A8DF00287DD12288B6
:101130005AB14548801C009094F83C3042F6292072
:10114000616800F0EBFF00287BD122895AB13E484C
:101150000A30009094F83C3042F62420E16800F018
:10116000DDFF00286DD1228A5AB137481230009035
:1011700094F83C3042F62520616900F0CFFF00284A
:101180005FD1228B5AB130481A30009094F83C302D
:1011900042F62720E16900F0C1FF002851D1228CDE
:1011A0005AB129482230009094F83C3042F626206B
:1011B000616A00F0B3FF002843D1228D5AB1224862
:1011C0002A30009094F83C3042F62820E16A00F082
:1011D000A5FF002835D1216B79B102A80CF014F8D5
:1011E000194808223230009094F83C3002A942F6A7
:1011F000232000F093FF002823D1606B60B11249D7
:101200003A3100910279016894F83C3042F62A2084
:1012100000F084FF002814D1A16B89B102A80AF064
:101220009AFB09484230009000E00AE094F83C3014
:10123000072202A942F6502000F070FF002800D1DA
:10124000002004B010BD00009A1E0020F8B505462D
:1012500003883648364A0321801AC00801EB00444F
:101260001A2B4ED00FDC334E102B16D0112B29D059
:10127000192B41D12A7A2046002A51D0BDE8F840E6
:101280002DA107F0A9B9212B2DD03B2B35D0562B02
:1012900032D1A888132176DF0EE020462FA107F077
:1012A00097F9072000F00CFD08B1FFF731F8A98885
:1012B00071802D4805F018FE00281DD0BDE8F840CB
:1012C000FFF726B8204629A107F082F9002000F098
:1012D000F7FC08B1FFF71CF84FF6FF707080BDE80F
:1012E000F8400BF035BC00200090A88869468FDFDD
:1012F000002801D0FFF70CF8F8BDA888132176DF8D
:10130000DAE720461DA107F063F9287A01B0030946
:1013100000F00F022046BDE8F0401FA107F063B9BE
:10132000BDE8F84026A107F053B90000102B0300D8
:10133000302A0300841D0020417574686F72697A39
:101340006174696F6E206661696C65642077697489
:101350006820636F64653A2025752100436F6E6EC7
:101360006563746564000000B02100204469736304
:101370006F6E6E656374656400000000424C455FEB
:101380004741505F4556545F434F4E4E5F53454370
:101390005F555044415445005365637572697479D3
:1013A000206D6F64653A2025752E20536563757234
:1013B000697479206C6576656C3A202575000000AB
:1013C000417574686F72697A6174696F6E207375A4
:1013D00063636565646564210000000010B51A4C04
:1013E0000188606810290ED011292BD1401E606041
:1013F00028D1FEF75CFE002824D02168002921D0E6
:10140000BDE810400847D0B900210122084600F08D
:1014100035FC08B107280FD107220221012000F076
:101420002DFC08B1072807D104220221002000F07A
:1014300025FC20B1072802D0216801B188476068E7
:10144000401C606010BD0000C01D00202DE9F04769
:1014500001883B4E40F2F3194FF6FF7510291BD05F
:1014600011293ED0122954D0502946D1C188F28981
:10147000841D914241D1618902293ED1868830463E
:1014800002F03AFF050038D004F10C0000F01DFA1C
:10149000A8B3294630464EE0C17B8788044601291F
:1014A0002BD1A846284602F027FF050017D02F8031
:1014B00000202872234843464A460168C5F80A10AE
:1014C0004068C5F80E0004F1100105F10A0002F0B1
:1014D000D5FF6872F08900280FD129462AE0042040
:1014E00013E0808802F008FF040006D06068FEF771
:1014F00073FF08B10BF0ACF82580BDE8F087FFE77B
:101500006868FEF769FF0028F7D0BDE8F0470BF0E8
:101510009FB887880646384602F0EEFE0400ECD0FD
:101520002B464A4606F1080104F10A0002F0A6FF24
:10153000607221463846BDE8F04701F02FB8000040
:101540008C230020C81D00202DE9F04F044686881A
:101550000188424897B0834610290CD0112950D0F9
:10156000103019296AD01A2974D1217A0C09042C57
:101570004DD301224CE0394D083DA868C0430B9083
:1015800069680BA805F0AEF90B990CA800F0A0FF54
:101590002C220CA96846FCF7ADF90027E946A846BD
:1015A00010E000BF09EB47005FF00005B0F804A0B1
:1015B00008EB85005146001D05F030F96D1C1E2D0D
:1015C000F6D37F1C0098B842ECD8142E05D317B080
:1015D0000420BDE8F04FFEF79BBE3146584605F0AB
:1015E00068F9314608F1040005F063F9E07B012851
:1015F00030D017B03146BDE8F04F1848001D05F057
:1016000058B917B03146BDE8F04F05F007B90022D0
:10161000314601F0B5FE032C01D3012200E0002287
:101620000E4831460C3001F0ABFE022C01D30122F2
:1016300000E0002209483146083006E0217A0029FE
:1016400008D1617AC1F3C002314617B0BDE8F04F4E
:1016500001F096BE17B0BDE8F08F0000B023002067
:1016600010B504460748007800280AD0204602F04A
:1016700071FC20460BF080FA2046BDE8104001F0D6
:10168000FBBF10BD101E002010B51A4C0288217837
:10169000102A0CD0112A0DD0172A02D0192A05D1F0
:1016A0000AE08088144A022180DFF8B910BD491C85
:1016B000217010BD491E21706078032803D00228D4
:1016C00001D00428F5D105F08BFA68B960780328B9
:1016D00001D00428EDD105F08BFB28B905F0A0FB63
:1016E00004F058FE0028E4D01128E2D0BDE81040F4
:1016F000FEF70EBE302000200434002030B5044632
:10170000008C8BB0A0F57F42FF3A23D005AA20467B
:1017100002F094FB0546ADF8000000200190029015
:10172000039004902189ADF804100121ADF8080060
:101730008DF8061005A8CDF80CD00490208C01A9D6
:10174000AEDF002804D1BDF80010A94200D00C2063
:101750000BB030BD0820FBE7F0B504468FB0086839
:101760002060087960714FF6FF702084002084F8B3
:101770002200A4F84C001427012684F84E708DF83E
:10178000226041F60D000D46ADF82000A21D08A90B
:101790003046A8DF002847D120216846FCF7D2F860
:1017A00042F63720ADF80000ADF8047009AA002118
:1017B000204602F043FBADF8060009A802908DF820
:1017C0000C609DF80D0004F1080240F010008DF847
:1017D0000D00287B8DF81300E088694600F0CEFCF0
:1017E000002821D1A868F0B120216846FCF7AAF8AA
:1017F00042F63820ADF80460ADF80000ADF80660A0
:10180000A86802909DF80D0004F1100240F002005B
:101810008DF80D00687B8DF81100E088694600F0B6
:10182000ADFC002800D100200FB0F0BD38B5028813
:10183000102A15D0112A15D0502A16D130F8062FAB
:101840008B899A4211D10C46418902290DD1216818
:1018500000290AD00C3000F038F838B1002006E03A
:10186000808801E04FF6FF70088438BD01208DF8B4
:101870000000226869462046904738BD70B504468E
:10188000B0F84C000D4614280AD104F12601262296
:10189000881EFCF72FF8B4F84C00401EA4F84C004A
:1018A000B4F84C0004EB4001401CA4F84C008D84BB
:1018B00070BD80F82210704770B504460D4608468A
:1018C000FCF74BF82080656070BD007800F00100E7
:1018D00070470A78027049784170022070472DE9FC
:1018E000F04FADF5477D14460E468246B2F5C07FF7
:1018F00005D96FF037000DF5477DBDE8F08F4FF447
:10190000D0716846FCF71EF868A803F088FD200E29
:101910008DF81000200C8DF81100200A8DF81200AF
:1019200030208DF8170006AD8DF813402246314661
:101930002846FBF7DFFF8020285504F11905002019
:10194000BEA90854401C2028FBDB4FF4807B5A467C
:1019500068A803F069FD0026B1466F46CDF8B8923D
:10196000CDF8BC92CDF8C0922C460DF52E78CDF86E
:10197000C49215E0002041463B5C0A5C5A400A5480
:10198000401C1028F8DB1037102C01D3102000E089
:101990002046241AAEAB1A46012168A803F05EF96E
:1019A000002CE7D1B2A830441022AEA9FBF7A2FF69
:1019B0009DF803001036401C8DF80300302ECCDB60
:1019C0005A46B2A968A803F02FFDBAAD56462B4679
:1019D0001A46012168A803F041F910222946304631
:1019E000FBF788FF10341036302CF0DB68A803F0CA
:1019F0000BFD00207FE700000149085C70470000F4
:101A00003CDF0200084908B5085C0090684606F013
:101A10004FFBD0F810050099C84010F0010000D02D
:101A2000012080F0010008BD3CDF02002DE9FC41EF
:101A30000646C0074FF000050ED0104F00240122CB
:101A4000385D009500231146019506F07DFA641C6F
:101A5000042CF4D300F04EF8B0070DD5074E002447
:101A6000361D0022305D032300951146019506F0D6
:101A70006BFA641C042CF4D3BDE8FC8138DF02004F
:101A8000094908B5085C0090684606F011FBD0F8DB
:101A90000425009B0121994021EA0203C0F8083582
:101AA0001140C0F80C1508BD38DF02000249085C7F
:101AB000012106F054BB000038DF02000249085C37
:101AC000002106F04CBB000038DF0200084908B5D1
