:100000000000042079030000610300006303000086
:1000100065030000670300006903000000000000A2
:10002000000000000000000000000000D1160000E9
:100030006D03000000000000F116000071030000D5
:10004000BD3F0000FDA70000DDEB000073030000D2
:10005000E55400007303000075430000C94500002B
:1000600001580000730300001958000073030000DA
:1000700073030000A9EC0000730300007303000089
:1000800073030000FD1700007303000073030000FA
:100090007303000073030000730300007303000088
:1000A000730300007303000031580000495800003A
:1000B000C14D0000730300000000000000000000BC
:1000C0007303000073030000D54D000073030000AC
:1000D00089930000730300007303000073030000A2
:1000E00073030000730300007303000000000000AE
:1000F0000000000073030000000000007303000014
:1001000000000000000000000000000000000000EF
:1001100000000000000000000000000000000000DF
:1001200000000000000000000000000000000000CF
:1001300000000000000000000000000000000000BF
:1001400000000000000000000000000000000000AF
:10015000000000000000000000000000000000009F
:10016000000000000000000000000000000000008F
:10017000000000000000000000000000000000007F
:10018000000000000000000000000000000000006F
:10019000000000000000000000000000000000005F
:1001A000000000000000000000000000000000004F
:1001B000000000000000000000000000000000003F
:1001C000000000000000000000000000000000002F
:1001D000000000000000000000000000000000001F
:1001E000000000000000000000000000000000000F
:1001F00000000000000000000000000000000000FF
:10020000364937480A1A02D0072291438D463549AC
:1002100035480A1A06D00722914381F30988022241
:1002200082F3148831483249324A00F045F83248A6
:100230003249334A00F040F832483349334A00F03B
:100240003BF833483349344A00F036F833483449F0
:10025000344A00F031F834483449354A00F02CF87B
:1002600034483549354A00F027F8354835490022E9
:1002700000F02DF834483549002200F028F83448C1
:100280003449091A082903DB0022026004300160A6
:10029000314A90471F482049884205D002680430FF
:1002A00003B4904703BCF7E700208646EC460020E5
:1002B00000212A4A9047FEE7884207D0521A05D00B
:1002C000037801300B700131013AF9D1704788424F
:1002D00002D002700130FAE77047000000000420ED
:1002E00000E003200000042000000420AC0E010008
:1002F00000000020B0000020D4030000D403000060
:1003000010ED0000AC0E01000000002000000020F5
:10031000B0ED0000B0ED0000B0ED0000B0ED000069
:10032000B0ED0000B0ED0000B0ED0000B0ED000059
:10033000AC0E01005C0F0100B0000020B0000020F6
:10034000B0000020E03D0120E03D0120E43D01201F
:10035000E43D0120E43D0120A1030000B15900006B
:10036000FEE7FEE7FEE7FEE7FEE7FEE7FEE7FEE765
:10037000FEE7FEE700F002B8FFF7FCBF0F484FF0C2
:100380000701884385460E4880470E48016841F4BE
:1003900070010160BFF34F8FBFF36F8FFFF730BF66
:1003A00009480A490A4A884207D0521A05D00378F8
:1003B00001300B700131013AF9D17047000004207F
:1003C0008912000088ED00E0B0ED00000000002080
:0403D0000000002009
:1003D40000487047D83D01207047704700B583B08E
:1003E400044B00934023044A00F036F803B05DF850
:1003F40004FB00BF01040000B400002012B3F8B5F0
:100404000F4614460326002503E001220E4B1A7002
:10041400BCB122467919002008F0C6FC0544241A10
:100424000028F2D1084B1B785BB14FF47A40074B9C
:1004340043F001039847013EE7D10022024B1A70B2
:10044400F8BDF8BD704700BFB0000020B0ED00005B
:1004540008B508F0E1FC08BDF0B595B00F461546A7
:100464001C46084603F00EFA0E950F9400241094CF
:100474008DF8444012941A9B13932346082208A92A
:10048400384603F01EFA0A9B0B93BDF82430ADF8EE
:100494003030BDF82630ADF832308DF835409DF857
:1004A400203003F00303012B06D0022B21D0384661
:1004B40003F0EEF915B0F0BD089DC5F395259DF840
:1004C4002030C3F3C2038DF83430BDF82040C4F3A8
:1004D40083140823A2000DEB0301384603F0F1F95D
:1004E4000EAB00930BAB224602A9284600F0BAFDDE
:1004F400DDE7BDF82250C5F389159DF82030C3F31C
:10050400C2038DF8343008262C46082D28BF082451
:100514003346224602A9384603F0D3F926442D1B5C
:100524000EAB0BAA214602A800F000FE002DEBD171
:10053400BDE7000008B5FFF78BFF0421034800F076
:10054400FDFC0122024B5A7108BD00BF8CED000076
:1005540000000020037813F0040F19D003F0030304
:10056400012B03D0022B0AD0012070470388C3F368
:1005740083130A68134402330B60012070474388D5
:10058400C3F389130A68134402330B6001207047D4
:1005940000207047002002E001238BB901300928B4
:1005A4000CDC084BD3F81034002BF5D0DB681A7937
:1005B400904201D01B68F7E70023EEE74FF0FF30CD
:1005C400704700BFC401002030B585B02B4C04F542
:1005D400836002F050FE04F2144002F04CFE6068A6
:1005E4000390A5682840023004EB8000043003A97E
:1005F400FFF7B0FF002832D003982840831C1F481F
:1006040000EB83000430F2E7039B591C03912B4059
:1006140002331A4901EB83035B684DF8223001323F
:10062400012AF1D99DF8003003F00303012B18D0FF
:10063400022B20D1BDF80640BDF80230C3F3891364
:100644000333039A02EB930303930D4802F018FE5D
:1006540010B1039A094B5A60204605B030BD002200
:10066400DEE7BDF80640BDF80030C3F38312039BF8
:1006740013440393E9E70024E7E700BFC401002023
:10068400D805002010B50B4BFF229A6000221A6097
:100694005A60C3F81824C3F8142483F820240648A5
:1006A40003F0A3F8044608B1204610BD034803F044
:1006B40014F9F9E7C40100209CED0000D4ED00001A
:1006C400024B0348C01AC008704700BF24ED000065
:1006D4008CED000099B110B50446FFF7F1FF00233B
:1006E40083420AD2074A32F823102268914201D089
:1006F4000133F5E72360002010BD052010BD002064
:10070400704700BF0000002000B583B002AB43F87F
:10071400040D1846FFF7DEFF30B9044B019A53F875
:10072400320003B05DF804FB0020FAE724ED00007A
:10073400094B03EBC0000139032909D8DFE801F0B4
:10074400020A040602207047007970474079704716
:10075400002070470420704724ED0000034B5868C4
:100764001B68984214BF002001207047C401002078
:100774002DE9F04184B0FFF7F1FF002840F0248117
:10078400054692480023C0F81834BFF34F8F4368DE
:10079400039384682340023300EB8300043003A9ED
:1007A400FFF7D8FE002839D0884BD3F81834002B33
:1007B40036D1864B1A68039B9A4206D923400233EA
:1007C400824800EB8303181DE9E7804B5A60E0E0A0
:1007D400039B591C0391234002337C4901EB83039F
:1007E4005B684DF822300132012AF1D99DF80030BE
:1007F40003F00303022B15D0012B72D00025002D2A
:1008040000F0CB80714BD3F81044D3F81834002B8C
:1008140000F09F80284603F03BF8B5E00022E3E7B0
:100824000022E1E7BDF80230C3F389173E46502F9A
:10083400A8BF502666F38F13ADF8023006F1080105
:10084400634802F0EDFF05460028D8D003F01AF8FB
:10085400002308226946284603F027F8039A24EA6D
:10086400020301339B009E422ED923B3224002325D
:10087400564901EB8202111DFBB1DCB2FBB1DFF87A
:100884005481FBB1F6B2DBB2F31ADEB2082322467E
:10089400284603F00AF804F10803B8F1000F04D065
:1008A40032464146284603F000F80337039B03EB26
:1008B40097070397A3E74749DEE7F4B2DEE74FF073
:1008C4000008DEE70026E1E704EA020302333F49B9
:1008D40001EB8301082332460431284602F0E5FF88
:1008E400E3E7BDF80020C2F38313062B28BF0623D9
:1008F40063F38912ADF8002002339900344802F002
:100904008FFF054600283FF47AAF02F0BBFF0023B7
:1009140008226946284602F0C8FF002608270FE08F
:10092400039B5A1C039223400233284901EB8301A1
:100934003B4604221144284602F0B7FF043701362F
:10094400BDF80030C3F383139E42E9D357E7E3684D
:100954001C684CB1E3685B79002BF8D023681B68F2
:10096400294620469847F2E7284602F091FF0020E6
:1009740002F026FC154BD3F8183413B9039A134B21
:100984005A60002002F020FCFFF7E8FE80F001002E
:10099400C5B2284604B0BDE8F0810C4BD3F810442E
:1009A40005E023689B6820469847E3681C68002C90
:1009B400F7D10948094BC01AC0080004084940F09F
:1009C400020000F00FF8DFE70025E2E7C401002091
:1009D4009CED0000D001002064ED000024ED000037
:1009E400E0ED00002DE9F84F06468B46DFF8DC8089
:1009F400D8F80840002002F0E3FBD8F80050D8F8FB
:100A04000830D8F80420521B1344013312E02F4F4E
:100A140007F21C490121484602F013FCFFF7D4FDFC
:100A24000146484602F00DFCBB687A683968521AE0
:100A340013440133012BEAD900224FF0010969F371
:100A4400010242F004026FF38912DFF88080D8F8C3
:100A54000010D8F808300B40023308EB83035A60C7
:100A64000231C8F80010002002F0AEFB4FEA164A2B
:100A7400002108F21C4002F0BEFB80F3100005EBDD
:100A8400090323404AEA0040023308EB8303586019
:100A94002C40023408EB8404237966F3C5032371E4
:100AA400A3886FF38913A38063686BF39F23636048
:100AB40069F301036FF38203237198F820341BB1A7
:100AC400FFF756FE0028FBD1BDE8F88FC4010020D3
:100AD4002DE9F04782B006468A460192DFF800818C
:100AE400D8F80840002002F06BFBD8F80050D8F882
:100AF4000830D8F80420521B1344013312E0384F55
:100B040007F21C490121484602F09BFBFFF75CFDFC
:100B14000146484602F095FBBB687A683968521A68
:100B240013440133022BEAD90022012363F30102A7
:100B340042F0040263F38912294908688B68034070
:100B4400023301EB83035A6003300860002002F093
:100B54003BFBA81C00230DE004EA000202A901EB00
:100B6400830151F8047C911C1D4A02EB81025760F9
:100B740001330130002BEFD04FEA1649DFF86080D3
:100B8400002108F21C4002F036FB80F310006B1CBD
:100B9400234049EA0040023308EB830358602C40A9
:100BA400023408EB8404237966F3C5032371A38814
:100BB400012262F38913A38063686AF39F2363604D
:100BC40062F301036FF38203237198F820341BB19D
:100BD400FFF7CEFD0028FBD102B0BDE8F08700BFCF
:100BE400C40100202DE9F04782B006468A460092EF
:100BF4000193DFF80481D8F80840002002F0E0FAFD
:100C0400D8F80050D8F80830D8F80420521B134400
:100C1400013312E0384F07F21C490121484602F023
:100C240010FBFFF7D1FC0146484602F00AFBBB6803
:100C34007A683968521A13440133032BEAD9002223
:100C4400012363F3010242F00402022363F38912D5
:100C5400294908688B680340023301EB83035A6017
:100C640004300860002002F0AFFAA81C00230DE055
:100C740004EA000202A901EB830151F8087C911CEB
:100C84001D4A02EB8102576001330130012BEFD979
:100C94004FEA1649DFF86080002108F21C4002F098
:100CA400AAFA80F310006B1C234049EA0040023387
:100CB40008EB830358602C40023408EB8404237946
:100CC40066F3C5032371A388022262F38913A38008
:100CD40063686AF39F236360012262F301036FF385
:100CE4008203237198F820341BB1FFF741FD0028DB
:100CF400FBD102B0BDE8F087C40100202DE9F04724
:100D040084B006468A46019202930C9B0393DFF853
:100D14000481D8F80840002002F052FAD8F80050B4
:100D2400D8F80830D8F80420521B1344013312E0D9
:100D3400384F07F21C490121484602F082FAFFF7B6
:100D440043FC0146484602F07CFABB687A6839687D
:100D5400521A13440133042BEAD90022012363F30A
:100D6400010242F00402032363F38912294908684B
:100D74008B680340023301EB83035A60053008603B
:100D8400002002F021FAA81C00230DE004EA00026E
:100D940004A901EB830151F80C7C911C1D4A02EB60
:100DA4008102576001330130022BEFD94FEA164913
:100DB400DFF86080002108F21C4002F01CFA80F386
:100DC40010006B1C234049EA0040023308EB830304
:100DD40058602C40023408EB8404237966F3C5037D
:100DE4002371A388032262F38913A38063686AF3DF
:100DF4009F236360012262F301036FF38203237173
:100E040098F820341BB1FFF7B3FC0028FBD104B0E1
:100E1400BDE8F087C40100202DE9F04786B00646FE
:100E24008A46019202930E9B03930F9B0493109B9B
:100E34000593DFF80481D8F80840002002F0C0F9D7
:100E4400D8F80050D8F80830D8F80420521B1344BE
:100E5400013312E0384F07F21C490121484602F0E1
:100E6400F0F9FFF7B1FB0146484602F0EAF9BB6826
:100E74007A683968521A13440133062BEAD90022DE
:100E8400012363F3010242F00402052363F3891290
:100E9400294908688B680340023301EB83035A60D5
:100EA40007300860002002F08FF9A81C00230DE031
:100EB40004EA000206A901EB830151F8147C911C99
:100EC4001D4A02EB8102576001330130042BEFD934
:100ED4004FEA1649DFF86080002108F21C4002F056
:100EE4008AF980F310006B1C234049EA0040023366
:100EF40008EB830358602C40023408EB8404237904
:100F040066F3C5032371A388052262F38913A380C2
:100F140063686AF39F236360012262F301036FF342
:100F24008203237198F820341BB1FFF721FC0028B9
:100F3400FBD106B0BDE8F087C401002010B504461B
:100F4400FFF728FBB0F1FF3F0ED0E36818710A4B9E
:100F5400D3F810344BB1E268DB681B681360064BAE
:100F6400D3F81034DB681C6010BD034BC3F8104485
:100F7400E36800221A6010BDC401002010B5094BBB
:100F8400D3F81044012283F8202408E0E368012206
:100F94005A7123685B6820469847E3681C68002CF4
:100FA400F4D110BDC401002070B582B004460D46D2
:100FB400C388A3B9217A05290FD0637ABBB9227AF1
:100FC400104B53F822600021A088FFF79DFB0346D5
:100FD40032460D49284602F0C1F902B070BD0B4AF1
:100FE40000920B4A0B49284602F0B8F9E2E7A088C0
:100FF400FFF79EFB084B53F820200849284602F0CF
:10100400ADF9DCE76CEE000060EE000054EE000089
:1010140034EE00003CEE0000F8ED00005CEE000051
:1010240010B50C46037A052B0FD0437A3BB90A4915
:10103400204602F093F9204602F084F910BD074AD5
:101044000749204602F08AF9F1E7002AF3D0024961
:10105400204602F083F9EEE730EE000054EE000083
:101064005CEE00002DE9F04385B081460D4617463D
:101074001E460C9C94F80C800023237321463046B2
:10108400FFF792FF062F09D8DFE807F00412181FB4
:10109400283340004946204602F060F900222146E8
:1010A4003046FFF7BDFF84F80C8005B0BDE8F0833F
:1010B4002A684946204602F051F9EFE76B682A682E
:1010C4004946204602F04AF9E8E76B682A68A968AD
:1010D40000914946204602F041F9DFE76B682A682F
:1010E400E9680191A96800914946204602F036F961
:1010F400D4E76B682A6829690291E9680191A968B3
:1011040000914946204602F029F9C7E76B682A682E
:101114006969039129690291E9680191A9680091BB
:101124004946204602F01AF9B8E70000082900D918
:1011340070472DE9F0471D4690460E46074693F842
:101144000C9000241C7319461046FFF72DFF04E091
:101154001C49284602F002F90134072C07D8B4428E
:10116400F6D23A5D1849284602F0F8F8F4E7174930
:10117400284602F0F3F8002409E082460DF034FC1E
:1011840078B152461249284602F0E8F80134072C97
:101194000FD8B44208D2385D7E28EED94FF02E0A1B
:1011A400EFE74FF02E0AECE70A49284602F0D6F89A
:1011B400ECE7012229464046FFF732FF85F80C9000
:1011C400BDE8F08724EE00001CEE000028EE0000CD
:1011D4002CEE000068EE00000120704701207047EB
:1011E400064B1B68082B01D000207047044B1B687A
:1011F4000BB1002070470120704700BF3001001080
:1012040034010010064B1B68082B01D000207047E6
:10121400044B1B680BB1002070470120704700BFCE
:101224003001001034010010064B1B68082B01D05C
:1012340000207047044B1B680BB10020704701204D
:10124400704700BF3001001034010010064B1B68CA
:10125400082B01D000207047044B1B680BB1002001
:1012640070470120704700BF3001001034010010A6
:1012740001207047014A024B1A6070470090D00366
:101284000800002008B5FFF7A7FF40B14FF08043E6
:101294000022C3F80C21C3F81021C3F83825FFF746
:1012A4009DFF002846D04FF08052D2F80414604BC2
:1012B400C3F82015D2F80814C3F82415D2F80C1476
:1012C400C3F82815D2F81014C3F82C15D2F8141446
:1012D400C3F83015D2F81814C3F83415D2F81C1416
:1012E400C3F84015D2F82014C3F84415D2F82414D6
:1012F400C3F84815D2F82814C3F84C15D2F82C14A6
:10130400C3F85015D2F83014C3F85415D2F8341475
:10131400C3F86015D2F83814C3F86415D2F83C1435
:10132400C3F86815D2F84014C3F86C15D2F84424F5
:10133400C3F87025FFF754FF10B13E4A3E4B1A60C4
:10134400FFF760FF18B1FB223C4BC3F81825FFF7E9
:101354006BFF48B13A490B6823F00F03394A12680E
:1013640002F00F0213430B60FFF770FF18B14FF444
:101374000072354B1A60FFF77BFF60B14FF080437A
:10138400D3F8003413F0010F05D06FF001024FF0D1
:101394008043C3F800242D4AD2F8883043F4700304
:1013A400C2F88830BFF34F8FBFF36F8F4FF0102315
:1013B400D3F80032002B08DB4FF01023D3F80432AB
:1013C400002B02DBFFF756FF08BD0122204BC3F8B8
:1013D40004251F4BD3F80034002BFAD012224FF00F
:1013E4001023C3F800221A4BD3F80034002BFAD090
:1013F40012224FF01023C3F80422154BD3F8003403
:10140400002BFAD00022124BC3F80425104BD3F85A
:101414000034002BFAD0BFF34F8F0C49CA6802F492
:10142400E0620C4B1343CB60BFF34F8F00BFFDE76B
:1014340000C00040488103008C56004000F000408A
:10144400E40E0040580200104096024000ED00E017
:1014540000E001400400FA05124A12F0070F1ED002
:10146400D11D21F00701C1F5803313440A460E480B
:101474000260002141601344083B23F007030B483A
:10148400036059601960991A51601360084B196020
:10149400084B19604FF00042074B1A6070474FF435
:1014A4008033E4E7840600209006012080060020B3
:1014B4008C060120880601208406012010B4134AFA
:1014C40000E01A4613688342FBD351685418A042C3
:1014D4000AD041684418A3420BD00360904200D064
:1014E40010605DF8044B7047406801445160104639
:1014F400EFE7074C2468A34206D05B6819444160B7
:1015040013681B680360E9E70460E7E790060120BD
:101514008006002070B5054600F072FF284B1B685A
:10152400A3B1284B1B681D4242D135B1083515F0D3
:10153400070F02D025F007050835002D3AD0224BBD
:101544001B689D4238D8214A146804E0FFF784FFE1
:10155400E7E722461C4663689D4202D92368002BB4
:10156400F7D1174B1B689C4228D0166808362368AD
:10157400136063685B1B102B14D8626812490B68F4
:101584009B1A0B60124909688B4201D210490B6007
:101594000C4B1B68134363600023236000F0BEFF01
:1015A400304670BD601943606560FFF787FFE4E76C
:1015B4000026F3E70026F1E70026EFE70026EDE733
:1015C4008006002084060120880601209006012060
:1015D4008C060120F8B138B50446A0F1080550F88E
:1015E400042C0D4909680A4202D050F8080C00B1D5
:1015F40038BD22EA010244F8042C00F001FF54F83B
:10160400041C064A13680B4413602846FFF756FF70
:1016140000F084FFECE7704784060120880601206F
:1016240000F1080343604FF0FF328260C36003613E
:1016340000230360704700230361704743684B60D5
:101644009A688A609A6851609960086103680133F6
:101654000360704730B40D68B5F1FF3F02D000F16C
:10166400080202E0026904E01A4653681C68A542B5
:10167400FAD253684B6099608A60516008610368CC
:101684000133036030BC704703694268816891602C
:101694008268416851605A68904206D00022026113
:1016A4001A68013A1A601868704782685A60F5E748
:1016B4000548006880F3088862B661B6BFF34F8FAF
:1016C400BFF36F8F00DF00BF00000000064B1968F6
:1016D4000868B0E8F04F80F30988BFF36F8F4FF0CC
:1016E400000080F311887047BC060120EFF30980E5
:1016F400BFF36F8F144B1A681EF0100F08BF20ED54
:10170400108A20E9F04F10604DF8043D4FF040007E
:1017140080F31188BFF34F8FBFF36F8F00F0E6FFA4
:101724004FF0000080F3118808BC19680868B0E81D
:10173400F04F1EF0100F08BFB0EC108A80F3098838
:10174400BFF36F8F704700BFBC060120402383F3B3
:101754001188FEE7034AD2F8883043F47003C2F8D4
:101764008830704700ED00E04FF0807340F8043C8F
:1017740040F8081C054B40F80C3C40F8202C6FF056
:10178400020340F8243C4438704700BF511700005E
:1017940008B50C4CE02384F8223000F069F80022EC
:1017A400094B1A60FFF7D6FF084A536843F04043D9
:1017B4005360236943F010032361FFF779FFFFF7B8
:1017C400C5FF00BF00ED00E09806012030EF00E007
:1017D400402383F31188024A13680133136070476E
:1017E40098060120034A1368013B13600BB983F385
:1017F4001188704798060120F0B583B0194B002278
:101804001A601B680193019BEFF31187402383F354
:101814001188154BD3F8044503F580731A601B68CF
:101824000093009B00F0F4FD241A24F07F44012C63
:1018340004D901F053F8022800D00124002503E064
:1018440000F0F4FD05433446661E002CF8D125B1A2
:101854004FF08052054B5A6040BF87F3118803B0A4
:10186400F0BD00BF401101400010014000ED00E058
:1018740008B5002002F0D4FA0A4B1F22C3F8082549
:101884000122C3F8042308490A601A600222C3F83B
:101894004423064BE02283F811234FF400321A60EC
:1018A40008BD00BF001001400810014000E100E045
:1018B40030B585B004462A4B984200D91C4672B60E
:1018C400284BD3F8045500F0EBFF002841D06219EF
:1018D40022F07F42234B0121C3F80813C3F84025AB
:1018E400214A0021116012680192019A4FF480325A
:1018F400C3F80423BFF34F8F3CB120BF1B4BD3F875
:101904000021D3F804311343F7D0164B4FF480323F
:10191400C3F8082302F1804202F58A5200211160C3
:1019240012680392039A124A116012680292029A90
:101934000122C3F80423D3F804355B1B23F07F434F
:101944004FF40031094AC2F880119C4200D31C466E
:1019540014B962B605B030BD204600F05FFDF8E76B
:10196400FDFFFF00001001404011014000E100E0D4
:1019740000110140436A23B1036B1868C0F10600EB
:1019840070470020704710B50446FFF721FFA26B93
:10199400E36B9A4204D00024FFF724FF204610BDD5
:1019A4000124F9E710B50446FFF712FFA36B23B136
:1019B4000024FFF717FF204610BD0124F9E770B596
:1019C40004461646856B026C5AB903681BB10020A5
:1019D4000135A56370BD406800F0F0FF002363602B
:1019E400F6E76EB980680DF045F8226CA3681344DD
:1019F400A3606268934219D32368A3600020E7E7D9
:101A0400C0680DF037F8226C5242E3681344E36077
:101A140021688B4202D263681A44E260022E01D02C
:101A24000020D5E725B1013D0020D1E70020CFE714
:101A34000020CDE7026C72B110B5C3681344C360D3
:101A44004468A34201D30368C3600C46C1682046BE
:101A54000DF010F810BD704738B50546FFF7B8FE15
:101A640095F8454064B201E0013C64B2002C0ADD03
:101A74006B6A43B105F1240000F096FE0028F3D010
:101A840000F008FFF0E7FF2385F84530FFF7AAFED2
:101A9400FFF79EFE95F8444064B201E0013C64B255
:101AA400002C0ADD2B6943B105F1100000F07CFE27
:101AB4000028F3D000F0EEFEF0E7FF2385F8443071
:101AC400FFF790FE38BD000038B504460D46FFF719
:101AD4007FFE2168E26B236C03FB02106060002030
:101AE400A063A160013A02FB0313E360FF2384F8BF
:101AF400443084F84530ADB923691BB9FFF772FE51
:101B0400012038BD04F1100000F04EFE0028F5D08D
:101B14004FF08052084B5A6040BFBFF34F8FBFF362
:101B24006F8FEBE704F11000FFF77AFD04F1240056
:101B3400FFF776FDE2E700BF00ED00E038B51D4693
:101B4400049C0B4649B12260E063236401212046D2
:101B5400FFF7BAFF84F84C5038BD2460F4E7F0B5C1
:101B640083B0054617460E4689B100FB01F050309C
:101B7400FFF7D0FC044638B100903B4600F1500218
:101B840031462846FFF7DAFF204603B0F0BD0020B7
:101B9400EDE70000F0B585B004460F4601921E46FD
:101BA40000253BE0324639462046FFF708FF636ACA
:101BB40073B940B14FF080523C4B5A6040BFBFF301
:101BC4004F8FBFF36F8FFFF70DFE012005B0F0BDFF
:101BD40004F1240000F0E8FD0028F4D04FF0805216
:101BE400324B5A6040BFBFF34F8FBFF36F8FEAE7AA
:101BF400FFF7F8FD0020E9E702A800F013FE012535
:101C040019E0002384F8443021E0002384F84530AF
:101C140023E02046FFF720FF00F080FCFFF7D8FD0B
:101C2400A26BE36B9A42BDD3022EBBD0019B002B67
:101C3400DED0002DE0D0FFF7D5FD00F0E1FBFFF78B
:101C4400C7FD94F844305BB2B3F1FF3FD9D094F8A8
:101C540045305BB2B3F1FF3FD7D0FFF7C3FD01A915
:101C640002A800F0EBFDD0B92046FFF78CFE002857
:101C7400CFD0019904F1100000F076FD2046FFF763
:101C8400EBFE00F04BFC0028C8D14FF08052074B0C
:101C94005A6040BFBFF34F8FBFF36F8FBEE720463C
:101CA400FFF7DAFE00F03AFC00208FE700ED00E0D9
:101CB40048B108B5002141600160C1600B460A4685
:101CC400FFF768FF08BD704710B5024600210120E8
:101CD400FFF745FF0446FFF7EBFF204610BDF8B5BC
:101CE400EFF31186402484F31188856BC46BA542FD
:101CF40005D3022B03D0002086F31188F8BD1746C4
:101D0400054690F8454064B21A46FFF758FEB4F110
:101D1400FF3F05D0013464B285F845400120EBE76C
:101D24006B6A0BB90120E7E705F1240000F03CFDE4
:101D340018B127B101203860DEE70120DCE701207B
:101D4400DAE70000F0B585B004460F46019200269C
:101D54003DE039462046FFF76DFE013DA56323694A
:101D640023B9FFF73FFD012005B0F0BD04F11000D9
:101D740000F01AFD0028F4D04FF08052344B5A6022
:101D840040BFBFF34F8FBFF36F8FEAE7FFF72AFD22
:101D94000020E9E702A800F045FD012621E0002328
:101DA40084F8443029E0002384F845302BE02046B1
:101DB400FFF752FE00F0B2FB09E02046FFF74CFEAD
:101DC40000F0ACFB2046FFF7EDFD00283ED1FFF705
:101DD400FFFCA56B002DBCD1019B002BD6D0002E9F
:101DE400D8D0FFF7FFFC00F00BFBFFF7F1FC94F8F1
:101DF40044305BB2B3F1FF3FD1D094F845305BB2CD
:101E0400B3F1FF3FCFD0FFF7EDFC01A902A800F02A
:101E140015FD0028D1D12046FFF7C4FD0028C6D007
:101E2400019904F1240000F09FFC2046FFF714FE02
:101E340000F074FB0028CAD14FF08052044B5A6062
:101E440040BFBFF34F8FBFF36F8FC0E700208BE716
:101E540000ED00E070B584B00446019100263546DB
:101E640049E0013BA36323683BB123694BB9FFF706
:101E7400B9FC0126304604B070BD00F02BFE606052
:101E8400F3E704F1100000F08FFC0028EFD04FF0CE
:101E94008052424B5A6040BFBFF34F8FBFF36F8FE6
:101EA400E5E7FFF79FFC0026E4E702A800F0BAFC90
:101EB40001252AE0002384F8443032E0002384F82A
:101EC400453034E0FFF784FC606800F017FD0646F7
:101ED400FFF788FC3BE02046FFF7BEFD00F01EFB49
:101EE40009E02046FFF7B8FD00F018FB2046FFF795
:101EF40059FD002841D1FFF76BFCA36B002BB0D137
:101F0400019B002BCDD0002DCFD0FFF76BFC00F050
:101F140077FAFFF75DFC94F844305BB2B3F1FF3F0E
:101F2400C8D094F845305BB2B3F1FF3FC6D0FFF799
:101F340059FC01A902A800F081FC0028D1D1204657
:101F4400FFF730FD0028C6D02368002BBAD00199D2
:101F540004F1240000F008FC2046FFF77DFD00F0AA
:101F6400DDFA0028C7D14FF080520C4B5A6040BFB5
:101F7400BFF34F8FBFF36F8FBDE7002E3FF47AAFEF
:101F8400FFF726FC2046FFF7F5FC0146606800F0E9
:101F940055FDFFF727FC00266CE700BF00ED00E0CD
:101FA4000023032B0CD8074A52F833200AB101331B
:101FB400F7E7044A42F8331002EBC3035860704752
:101FC400704700BF9C06012070B504460D461646B6
:101FD400FFF7FEFB94F844305BB2B3F1FF3F0DD042
:101FE40094F845305BB2B3F1FF3F0BD0FFF7FAFB37
:101FF400A36B5BB12046FFF72FFD70BD002384F86F
:102004004430EDE7002384F84530EFE732462946B3
:1020140004F1240000F0B6FBECE700000D4B1B6854
:10202400012B0AD901220C4B1B68DB6A73B90B4BD9
:102034001B68012B03D9002070470022F3E73AB94B
:10204400074B1868074B1B68C01A7047002070477D
:102054000020704754070120BC060120C806012057
:1020640084070120CC0701200A4B1B681B684BB96D
:1020740001234BB9074B1B68DB68DB685A68064BC6
:102084001A6070470023F4E74FF0FF32024B1A60E6
:10209400704700BFC00601208407012010B5044624
:1020A400006BFFF797FA2046FFF794FA10BD2DE96D
:1020B400F04781460D4617469A46089EDDF824806F
:1020C4000A9C9200A521206B0CF0FEFC236B07F107
:1020D4008042013A03EB820727F007070023052B10
:1020E40007D8E95CE21882F83410EA5C0AB10133DB
:1020F400F5E7002384F83930052E00D90526E66279
:1021040066640025A564201DFFF795FA04F1180004
:10211400FFF791FA2461C6F10606A6616462E564DC
:1021240084F85050524649463846FFF71DFB20605C
:10213400B8F1000F01D0C8F80040BDE8F0870000F6
:1021440038B5002407E004EB840293000E481844D9
:10215400FFF766FA0134052CF5D90C4D2846FFF734
:102164005FFA0B4C2046FFF75BFA0A48FFF758FA70
:102174000948FFF755FA0948FFF752FA084B1D6062
:10218400084B1C6038BD00BFC80601205807012059
:102194006C0701208C070120B8070120A407012047
:1021A400C0060120C406012010B50446FFF710FB49
:1021B400214A136801331360204B1B68002B33D072
:1021C4001F4B1B683BB91D4B1B68DA6AE36A9A42D2
:1021D40001D81A4B1C601B4A136801331360E36374
:1021E400E36A01229A401849086802430A6003EB33
:1021F40083039A00211D15481044FFF71FFAFFF7C7
:10220400F1FA0F4B1B6873B10C4B1B68DA6AE36A73
:102214009A4208D24FF080520D4B5A6040BFBFF330
:102224004F8FBFF36F8F10BD044B1C601368012BDD
:10223400D1D1FFF785FFCEE740070120BC0601207E
:10224400A00701205007012054070120C8060120DF
:1022540000ED00E00F4B1B68D3B110B5FFF7B8FADF
:102264000D4BDB68DC68201DFFF70EFA0B4A136880
:10227400013B1360074A1368013B1360FFF7B2FA8E
:102284002046FFF70BFF034B1B68002BE6D110BD64
:10229400704700BF44070120B80701204007012010
:1022A40070B504460E461D4B1D681D4B186804305E
:1022B400FFF7EAF950B91A4B1B68DA6A012303FAEB
:1022C40002F218490B6823EA02030B60B4F1FF3FE2
:1022D40013D02C44124B1B685C60A54216D8124BD9
:1022E40018680F4B19680431FFF7B4F90F4B1B68DA
:1022F4009C4201D20D4B1C6070BD002EE9D0084BEE
:10230400196804310A48FFF799F970BD094B186838
:10231400034B19680431FFF79DF970BDCC07012008
:10232400BC06012054070120C006012084070120B7
:10233400A4070120C40601202DE9F04385B0064618
:102344000F46154698469000FFF7E4F800B381461F
:102354005420FFF7DFF80446B0B1C0F83090CCB198
:102364000023039302940D9B01930C9B009343461B
:102374002A4639463046FFF79AFE2046FFF714FFF7
:10238400012005B0BDE8F0834846FFF723F9E6E7EE
:102394000024E4E74FF0FF30F3E7000000B583B01A
:1023A400114B019300230093802210491048FFF73A
:1023B400C3FF012804D0012805D003B05DF804FB55
:1023C40000F0E0FCF7E7402383F311884FF0FF327D
:1023D400084B1A600122084B1A600022074B1A604E
:1023E400FFF7D6F9E9E700BF80070120D8EE000027
:1023F400A526000084070120A0070120CC070120A6
:10240400024A136801331360704700BF4C07012070
:10241400014B1868704700BFCC070120024A1368BB
:1024240018441060704700BFCC070120F8B5304B4A
:102434001B68002B51D12F4B1E6801361E602EB134
:102444002D4B1B689E423CD200274BE02B4A11685F
:102454002B4B1868106019602A4A13680133136003
:10246400FFF702FEECE70127244B1B681B6853B3FC
:10247400002353BB214B1B68DB68DC6863689E4206
:1024840028D3251D2846FFF7FFF8A36A1BB104F1E2
:102494001800FFF7F9F8E36A01229A401A4908681C
:1024A40002430A6003EB83039A0029461748104449
:1024B400FFF7C4F8E26A164B1B68DB6A9A42D2D271
:1024C400D2E70027D0E70123D3E74FF0FF320A4BCE
:1024D4001A6007E0084A136004E00E4A13680133E7
:1024E400136000270C4B1B6803B101273846F8BD65
:1024F4004C070120CC07012084070120C0060120DD
:10250400C40601208807012054070120C8060120C1
:10251400BC06012048070120D007012038B5FFF789
:1025240057F92E4B1A68013A1A601B68002B4ED1DA
:102534002B4B1B683BB300242A4B1B682BB3294B42
:10254400DB68DC6804F11800FFF79EF8251D2846B7
:10255400FFF79AF8E36A01229A4023490868024384
:102564000A6003EB83039A00294620481044FFF7CE
:1025740065F8E26A1E4B1B68DB6A9A42DCD30122CF
:102584001C4B1A60D8E7002422E00CB1FFF76CFD65
:10259400194B1C687CB9174B1B68EBB14FF0805288
:1025A400164B5A6040BFBFF34F8FBFF36F8F0124A8
:1025B4000EE0013C07D0FFF739FF0028F9D00122D3
:1025C4000C4B1A60F5E700220B4B1A60E3E700247A
:1025D400FFF708F9204638BD0024F9E74C0701202D
:1025E400400701208C07012054070120C806012060
:1025F400BC060120D00701204807012000ED00E0BF
:1026040038B505460C46FFF7FBFE164B18682A68DA
:102614001444904205D2A24209D9A04217D3002201
:1026240006E0A24215D8A04215D3002200E0002201
:102634002C6092B9FFF772FF40B94FF080520A4BF9
:102644005A6040BFBFF34F8FBFF36F8F38BD012275
:10265400EEE70122ECE70122EAE70021201AFFF766
:102664001FFEE7E7CC07012000ED00E010B558B9E4
:10267400002040B94FF08052084B5A6040BFBFF36E
:102684004F8FBFF36F8F10BD0446FFF7B9FE0021D3
:102694002046FFF705FEFFF741FFEAE700ED00E003
:1026A40008B503E0FFF7BAFC01280FD8FFF7D2FD05
:1026B4000C4B1B68012BF5D94FF080520A4B5A6022
:1026C40040BFBFF34F8FBFF36F8FEBE7FFF798FE69
:1026D400FFF7A4FC012801D9FFF7EAF8FFF71EFF72
:1026E400E4E700BFC806012000ED00E0194B1B68B9
:1026F4001BBB10B40022184B1A60184B1B68B3FAAA
:1027040083F3C3F11F0316489A00D418A1000144AF
:102714004C6864684C601A4491000831084484424F
:102724000FD003EB83039A000D4B13445B68DA6804
:102734000C4B1A605DF8044B70470122064B1A607B
:102744007047606803EB83029100054A0A445060B5
:10275400E7E700BF4C070120D00701205407012000
:10276400C8060120BC06012010B50C46044B1968AC
:102774001831FEF76FFF01212046FFF791FD10BDD0
:10278400BC06012038B50D461446064B19681831AD
:10279400FEF754FF0CB14FF0FF3521462846FFF7F2
:1027A4007FFD38BDBC06012038B5C368DC6804F180
:1027B40018052846FEF768FF144B1B68FBB9251D56
:1027C4002846FEF761FFE36A01229A40104908682F
:1027D40002430A6003EB83039A0029460D48104420
:1027E400FEF72CFFE26A0C4B1B68DB6A9A420BD99A
:1027F40001240A4B1C60FFF737FC204638BD2946EC
:102804000748FEF71BFFEDE70024F4E74C0701201F
:1028140054070120C8060120BC060120D00701206E
:102824008C070120034B1B680360034B1B68436048
:10283400704700BF88070120CC070120F8B5044683
:102844000D46FEF7C5FF114B19686268881A2B689C
:10285400B3F1FF3F16D027680D4E3668B74201D05A
:10286400914211D2984206D300232B600124FEF733
:10287400B9FF2046F8BD1B1A2B602046FFF7D2FF94
:102884000024F4E70024F2E70124F0E7CC07012058
:10289400880701200122014B1A607047D0070120EC
:1028A4000A4B1B685BB90A4B1B6853B9094B1A687E
:1028B400094B1B68013B9A4205D001207047002058
:1028C4007047002070470220704700BF8C0701202A
:1028D400D0070120A407012040070120054B1B68F5
:1028E40023B1054B1B681BB90220704701207047B8
:1028F40000207047A00701204C070120002854D075
:1029040038B50446C26A2A490968C96A8A4242D269
:102914008169002905DB26490968C96AC1F10601F4
:102924008161606902EB82029100224A0A4490426A
:1029340007D000223AB91E4A1268D26AE262012024
:1029440038BD0122F6E7251D2846FEF79DFE68B92D
:10295400E36A03EB83018A0016498A5832B90122DB
:102964009A4015490B6823EA02030B60104B1B685D
:10297400DB6AE362012404FA03F20F4908680243A4
:102984000A6003EB83039A0029460A481044FEF7C1
:1029940055FE204638BD426C054B1B68DB6A9A42E3
:1029A40001D2012038BD002038BD0020704700BF8F
:1029B400BC060120C806012054070120002834D099
:1029C40038B50446826C013A8264C06A616C8842FC
:1029D4002DD00AB1002038BD251D2846FEF754FE2F
:1029E40068B9E36A03EB83018A0012498A5832B951
:1029F40001229A4010490B6823EA02030B60636CBE
:102A0400E362C3F10602A261012404FA03F20A4953
:102A1400086802430A6003EB83039A0029460548C9
:102A24001044FEF70BFE204638BD002070470020FE
:102A340038BD00BFC806012054070120002843D038
:102A440038B50446426C8A4200D20A46E16A8A4298
:102A540002D0A06C012800D038BDE262A069002831
:102A640002DBC2F10602A261636901EB8101880005
:102A7400164A0244934225D00022002AECD0251D98
:102A84002846FEF701FE68B9E36A03EB83018A0076
:102A94000E498A5832B901229A400D490B6823EA3B
:102AA40002030B60E36A01229A4009490868024361
:102AB4000A6003EB83039A00294604481044FEF796
:102AC400BDFDC9E70122D8E7704700BFC806012051
:102AD40054070120054B1B6823B1044B1A68936CFF
:102AE40001339364014B1868704700BFBC06012092
:102AF40038B505460C46FEF76BFE194B1B68DB6CBC
:102B04002BB9174B1B68012283F85020ACB9FEF790
:102B140069FEFEF75DFE124B1B68DC6C24B1D5B96F
:102B24000F4B1B68621EDA640D4B1B68002283F88E
:102B34005020FEF757FE204638BD11462046FFF7C9
:102B4400AFFB4FF08052074B5A6040BFBFF34F8F2B
:102B5400BFF36F8FDBE7024B1B680022DA64E3E705
:102B6400BC06012000ED00E0F8B504460F4615460A
:102B74001E46FEF72DFE0EB1E36C336094F8503020
:102B8400DBB2022284F850206A1E032A1AD8DFE836
:102B940002F0020C1114E26C1743E7640125012BC7
:102BA40014D0FEF71FFE2846F8BDE26C0132E26441
:102BB4000125F4E7E7640125F1E7022B04D0E7647B
:102BC4000125ECE70125EAE70025E8E7261D304664
:102BD400FEF75AFDE36A01229A400F49086802434E
:102BE4000A6003EB83039A0031460C481044FEF755
:102BF40025FDFFF739FAE26A094B1B68DB6A9A4242
:102C0400CFD94FF08052074B5A6040BFBFF34F8F6C
:102C1400BFF36F8FC5E700BF54070120C80601202A
:102C2400BC06012000ED00E0F8B5EFF31185402368
:102C340083F3118890F85030DBB2022280F85020E0
:102C4400C26C0132C264012B02D085F31188F8BD35
:102C54000E460446144B1B68E3B9071D3846FEF7BD
:102C640013FDE36A01229A401049086802430A608E
:102C740003EB83039A0039460D481044FEF7DEFC4B
:102C8400E26A0C4B1B68DB6A9A42DED946B1012327
:102C94003360DAE700F118010748FEF7CFFCEFE7ED
:102CA4000122064B1A60D0E74C070120540701208B
:102CB400C8060120BC0601208C070120D007012092
:102CC400064B1A681368B3FA83F35B09036013B9FC
:102CD400D368186870470020704700BFD4070120EC
:102CE40008B54160006191420CD8D21A83699A42B6
:102CF40001D3012008BD011D094B1868FEF7AAFC89
:102D0400002008BD9A4201D2994206D2011D054B0A
:102D14001868FEF79FFC002008BD012008BD00BF15
:102D2400D8070120D407012038B5FEF751FD0F4B19
:102D34001B6813B1FEF756FD38BD0D4D2846FEF74E
:102D44006FFC0C4C2046FEF76BFC0B4B1D600B4BD1
:102D54001C60002210212020FEF701FF034B1860A5
:102D64000028E7D00649FFF71BF9E3E7080801202C
:102D7400DC070120F0070120D4070120D807012037
:102D8400E0EE000000B583B0FFF7CEFF094B1B68EF
:102D94006BB1094B01930523009300234FF4807218
:102DA40006490748FFF7C8FA03B05DF804FB0020A2
:102DB400FAE700BF080801200C080120E8EE000033
:102DC4003D30000030B585B0134C25680DB31C466A
:102DD400009101920290052913DCFFF77FFD022880
:102DE40007D000231A4669460B480068FEF7D2FE56
:102DF4000DE00023089A694607480068FEF7CAFEFA
:102E040005E00023224669462846FEF768FF05B020
:102E140030BD0020FBE700BF0808012070B582B078
:102E2400154B1B681A6802B3DB681E68DC68251D35
:102E34002846FEF729FC636A20469847E369012B7C
:102E4400EED1A36933449E4207D2636024612946CC
:102E5400094B1868FEF7FEFBE2E7002100910B46E0
:102E640032462046FFF7AEFFDAE7044A106802490B
:102E74000860136002B070BDD4070120D807012098
:102E840038B50546FFF7C4FA0446074B1B68984259
:102E940005D300232B60044B1C60204638BDFFF78C
:102EA400BDFF01232B60F6E70408012070B582B052
:102EB40005460E460F4B1B68DB68DC68201DFEF7D9
:102EC400E3FBE369012B04D0636A2046984702B010
:102ED40070BDA1692B46324629442046FFF700FF06
:102EE4000028F1D0002100910B462A462046FFF726
:102EF40069FFE9E7D407012070B582B006460C46A5
:102F0400FFF77EFA01A8FFF7BBFF019B2BBB054629
:102F14000CB9B0421AD22CB1114B1B681C68B4FA1C
:102F240084F464092246711B0E4B1868FFF74CF8B1
:102F3400FFF7F4FA40B94FF080520B4B5A6040BF90
:102F4400BFF34F8FBFF36F8F02B070BDFFF7E6FA88
:102F540029463046FFF7AAFFF6E7FFF7DFFAF3E763
:102F6400D80701200808012000ED00E030B589B041
:102F740002E0049B002B0FDA002204A92D4B1868F1
:102F8400FEF7E0FE002852D0049B002BF1DA0799EB
:102F94000698059B9847ECE7069C636913B1201DCE
:102FA400FEF772FB03A8FFF76BFF049B092BE3D822
:102FB40001A252F823F000BFE52F0000E52F000026
:102FC400E52F00007D2F0000193000002B30000099
:102FD400E52F0000E52F00007D2F000019300000D0
:102FE4000599A5690B46024629442046FFF778FE59
:102FF4000028C1D0636A20469847E369012BBBD1FE
:10300400A269002100910B46059802442046FFF76F
:10301400D9FEB1E70599A161034602460144204661
:10302400FFF75EFEA8E72046FEF7D4FAA4E709B04E
:1030340030BD00BF0808012000B583B001A8FFF728
:103044003FFE0199FFF758FFFFF790FFF6E70000F6
:1030540082B001238DF807309DF80730134B1860B8
:1030640059609A6044F20103984213D044F2020377
:10307400984207D10D4BDA60DA6812889A61DA68EF
:103084005268DA6172B69DF80730002BFBD162B644
:1030940002B07047054B1A611A6992685A611A693D
:1030A40012689A611A695268DA61EBE71008012024
:1030B40000B583B002900091019244F20100714680
:1030C4006A4600F003F803B000BD00002DE9F041AA
:1030D40084B004460F46154672B6FDF74FFFFDF760
:1030E40047FB0028FBD144F201039C421DD044F26B
:1030F40002039C4235D1214B2148C01AC008000468
:103104002B886A681F4940F00100FDF76BFD1E4BD8
:103114001B6813F0010F00D000BE2A463946204632
:10312400FFF796FF04B0BDE8F081144B144EF61A75
:10313400F608360446F00106D5F80880404600F04B
:10314400FDFB6B682A68029701920093034642468E
:103154000E493046FDF760FE0D493046FDF742FC4E
:10316400D5E7064B0648C01AC00800043A46094988
:1031740040F00100FDF7ACFCC9E700BF24ED0000FE
:1031840064ED0000FCEE0000F0ED00E018EF00003C
:1031940040EF000054EF00000020704772B6024A6E
:1031A400136801331360704730080120034A136821
:1031B400013B136003B962B6704700BF30080120B9
:1031C40008B5FFF7EBFF08BD08B5FFF7EFFF08BD33
:1031D40008B590B200F001F808BD00B583B0ADF8B1
:1031E400000001916A46002144F20200FFF76EFFDD
:1031F40003B05DF804FB00B550E8002F0B4640E82F
:10320400003E9EF0000FF7D110465DF804FB00B5B8
:1032140050E8003F43EA010240E8002E9EF0000F10
:10322400F6D110465DF804FB00B550E8002F02EA21
:10323400010340E8003E9EF0000FF6D110465DF811
:1032440004FB00B550E8003F03EB010240E8002E08
:103254009EF0000FF6D110465DF804FB00B550E86F
:10326400003FA3EB010240E8002E9EF0000FF6D1D0
:1032740010465DF804FB08B50121FFF7C8FF08BD3F
:1032840008B50021FFF7D0FF08BDC368008A00FB22
:1032940001307047C368C91A008AB1FBF0F0C0B2AC
:1032A4007047C0B110B4044682684368D21AD2B2DF
:1032B40001680B6005E021680A68501C08601370FF
:1032C4001A46531EDBB2002AF5D123680020187178
:1032D4005DF8044B70470E20704738B50446002053
:1032E400FFF76EFF2268136861688B4215D9591E77
:1032F400116013F8011C2046FFF7C7FF0546A368B9
:10330400226811685B1ADBB211798B4200D9137100
:103314000020FFF759FF284638BD0025F8E770B5AF
:1033240005460E460020FFF74BFF2B681C68621C05
:103334001A6031462846FFF7ADFF20700020FFF7E2
:1033440043FF70BD826802B9704710B504464369F3
:103354000168006998470023A36010BD0EB400B54E
:1033640082B0039929B102AA04AB42F8043D00F0EB
:1033740016F902B05DF804EB03B0704738B50446A3
:103384000D460A2909D02268A368591CA160D554A6
:10339400A26863689A4204D238BD0D21FFF7EEFF9C
:1033A400F1E72046FFF7CEFFF6E700002DE9F84FDE
:1033B40082460F4616461D46DDF828900B9A0B46AA
:1033C4004FF0010803E0B3FBF6F308F10108B34240
:1033D400F9D2A84500D2A84612F0010B17D1B9F1D1
:1033E400000F14D012F0020F02D01DB1202409E006
:1033F400202407E0302405E009F1FF392146504636
:10340400FFF7BCFFB9F1000F01D0C145F4D8012486
:1034140005E0B7FBF4F39E4205D806FB04F4012D46
:10342400F7D9013DF9E7B7FBF4F304FB13770F4A2F
:10343400D15C5046FFF7A2FFB4FBF6F4002CF2D1A6
:10344400BBF1000F10D0B9F1000F0BD0B9F1000F90
:103454000AD0C14508D909F1FF3920215046FFF7A8
:103464008DFFF3E7BDE8F88FBDE8F88F6CEF00003F
:103474002DE9F04782B08046894615469A460A9E51
:103484000B9F81EAE173A3EBE173012402E093FB58
:10349400F5F30134AB42FADA544500D2544636B15E
:1034A400B9F1000F02DB17F0040F00D0013E17F052
:1034B400020F02D0BAF1000F03D017F0010F00D1B0
:1034C400A6B9B9F1000F1BDB17F0040F1FD107F0E9
:1034D4000303022B20D00197009653462A464946FF
:1034E4004046FFF763FF02B0BDE8F087002EE8D046
:1034F400A642E6D9013E20214046FFF73FFFF5E70B
:10350400C9F100092D214046FFF738FFDFE72B21E1
:103514004046FFF733FFDAE7BAF1000FDBD12EB9EB
:10352400D9E7013E30214046FFF728FF002ED2D0D4
:10353400A642F6D8CFE7F8B506460D46144613F072
:1035440001070ED1F1B108460BF014FB074619E050
:10355400013501373046FFF711FF29780029F7D1EB
:1035640006E00027F9E7013C20213046FFF706FF7B
:10357400BC4213D9002CF6D1F8BD013C20213046C1
:10358400FFF7FCFEBC4206D9002CF6D103E001355E
:103594003046FFF7F3FE29780029F8D1F8BDF0B5DD
:1035A40083B0064615460C46002940F08580D5E0D8
:1035B4000027012303E047F00107013483B1217898
:1035C4002D29F8D0302903D02B2905D00023F5E785
:1035D40047F002070134F1E747F004070134EDE74F
:1035E400002211E02B68191D29601B681A4401345C
:1035F40023782E2B11D0002321781FE0013402EB15
:10360400820250000A18303A2A29EBD02178A1F11D
:103614003000C0B20928F1D9EAE701340023217847
:10362400A1F13000C0B20928E6D8013403EB8300CD
:1036340043000B44303BF2E714F8011F6C29FBD024
:103644006829F9D02539532932D8DFE801F08031CF
:103654003131313131313131313131313131313156
:103664003131313131313131313131313131313146
:103674003131313131313131313131313131313136
:103684003156313131313131313131312A403131F9
:103694003131403131313131316A313161314B3184
:1036A40031562B681A1D2A6019783046FFF766FEDA
:1036B40001342378002B4FD014F8011B00294BD080
:1036C40025293FF475AF3046FFF758FEF1E7296826
:1036D400081D28600968019700920A223046FFF706
:1036E400C7FEE5E72968081D28600968019700926C
:1036F4000A223046FFF75AFEDAE72968081D2860D7
:1037040009680197009210223046FFF74FFECFE779
:1037140029680B1D2B603B4609683046FFF70BFFF9
:10372400C6E72B681A1D2A601F6830213046FFF750
:1037340025FE78213046FFF721FE0023019308235C
:103744000093102239463046FFF730FEB0E72521BA
:103754003046FFF713FEABE7337B0BB903B0F0BD84
:103764003046FFF7EFFDF9E72DE9F84F8A469DF85B
:1037740028B0C58890F805E00EFB05FEAEF1040EF6
:10378400A946191DB1FBF5F705FB171116689C191D
:10379400A64501D2AEEB03061660044601E0246898
:1037A400013F002FFBD16D1AB54228BF3546B846FC
:1037B4000BE02A4619460BF05DF92468761BA844F1
:1037C4004D46B14528BF3546394666B10AEB080374
:1037D4002144081DBBF1000FEBD02A4601461846D0
:1037E4000BF048F9E9E7BDE8F88F08B5FFF759FD94
:1037F40008BDF8B54679711E0246002301E012683F
:1038040001338B42FBD317680146002405E00D68A1
:103814003846FFF784FD01342946B442F7D3F8BD96
:103824002DE9F0410646078A043F39440331B1FBD0
:10383400F7F8FFF752FD10B3054600240471012385
:103844004371C7805FFA88F808F1FF3806600746BD
:10385400444511D23046FFF740FD38B16A79013250
:103864006A713860066001340746F1E72846FFF7BD
:10387400C0FF0020BDE8F0812846BDE8F0810020AB
:10388400BDE8F08108B501210430FFF7DAFC08BD7A
:1038940010B5044601210430FFF7E0FCC0B200B1CA
:1038A40010BD2046FFF7A5FFFAE710B584B004ACBD
:1038B40044F8042D002200922246FFF755FF04B07D
:1038C40010BD10B584B004AC44F8042D012200925C
:1038D4002246FFF749FF04B010BD826800239360BD
:1038E40082681361826853618268D360826853601E
:1038F40082681360704700000F4A02F58C718A4297
:1039040018D210B48B1ADB1003EBD3735B1002EBE9
:10391400C30452F83330834206D921468A42F1D394
:1039240000205DF8044B704702D204F10802F5E769
:103934006068F6E7002070479CEF000008B5FFF7C9
:10394400DBFF034608B1184608BD014BFBE700BF87
:1039540088EF000008B503681A6812682AB108469F
:103964001A681B681B685168984708BDC0B2487044
:1039740000230B70704770B588B005682A7ED2B2F8
:103984002B689C6804EBC203597949088DF815101B
:1039940054F83210069119798DF81610997911F0AE
:1039A400010F12D0597911F0010F0ED1541C2E6859
:1039B400367BB44209DA2C68A4680132D600344458
:1039C40064796408B4EB510F25D05A7902F00102EE
:1039D4008DF81420002207928DF817209B7913F09C
:1039E400010F36D100229DF814308DF800309DF877
:1039F40015308DF801309DF8163001939DF817307D
:103A04000293069B0393079B049369460C3001F0D1
:103A1400FDFC08B070BD2B689B681E4453F832301F
:103A2400079333798DF81730737913F0010F0CD0A5
:103A340002238DF81430B37913F0010F07D100225B
:103A44002B7E0133DBB22B76CDE70323F1E7202273
:103A5400F6E72022C7E700002DE9F84305460E46A5
:103A6400046816E000222146686800F034F910B1B9
:103A74000026266016E0012614E0271D1CE0002322
:103A840023762846FFF777FF014670B32846FFF7F1
:103A940061FF0020FFF794FB002EE3D12B681B6825
:103AA400002BDFD00020FFF78FFBF6B123681B69E2
:103AB400002BE2D023681F691022394660690AF09E
:103AC400A3FF0028DBD005F1080805F10C094846DE
:103AD40001F04CFC2B46064A3946404601F0C4FD31
:103AE400484601F017FC6761C9E7BDE8F88300BFE9
:103AF400F93A000010B50C460378C3B90A68137E7E
:103B04000133DBB21168097B8B4208D300212046C4
:103B1400FFF720FF01212046FFF79EFF10BD13761B
:103B24002046FFF728FF01460028F0D110BD0321ED
:103B3400EDE70000F8B504460F4603460C4A08308A
:103B440001F092FD054608B12846F8BD04F10C00C9
:103B540001F0E0FB236800251D602668043697E821
:103B64000F0086E80F0023681A1D5A61ECE700BFB6
:103B7400F93A000030B583B0044602AB43F8041DA3
:103B84001946406800F03EF8054610B1284603B0D7
:103B940030BD00212046FFF75FFFF7E730B587B05F
:103BA4000A9C0025ADF8145001258DF814500D4DD4
:103BB400009505AD019502928DF80C30049169468B
:103BC400FFF7D8FF30B99DF814302BB1002CFAD090
:103BD400A047F8E7034602E09DF81530DBB218462B
:103BE40007B030BD7139000003681A685B688168EA
:103BF4008B4205D2581C824214BF0020012070471A
:103C04000020F8E770B504460D460020FFF7D8FA07
:103C14002046FFF7E9FF014618B1237C0BB10424C9
:103C24002BE0226850685368A668B34213D201336C
:103C3400536031B122681368A1688B420DD20133FD
:103C44001360E668731E072B2ED8DFE803F0081B09
:103C54002D202D2D2D250023EAE70023F0E76368AE
:103C64002A781A54226811685368994224D85B1A36
:103C74009168994225D2936000240020FFF7A4FAAA
:103C8400204670BD63682A8823F81020EAE7636839
:103C94002A6843F82020E5E7636803EBC000D5E910
:103CA4000023C0E90023DDE763683246294606FBAA
:103CB40000300AF0DFFED5E7A0680130411A0B445A
:103CC400D6E70024D9E7036818685B68984214BFF4
:103CD40000200120704770B504460D4616460020AA
:103CE400FFF76EFA2046FFF7EEFF28B10524002007
:103CF400FFF76AFA204670BD236819682EB91A685E
:103D0400A06882420BD201321A60E068431E072B7E
:103D140021D8DFE803F0060B201120202017002211
:103D2400F2E763685B5C2B700024E0E7636833F8B8
:103D340011302B800024DAE7636853F821302B60BC
:103D44000024D4E7636803EBC101D1E90023C5E98A
:103D540000230024CBE76368024600FB01312846B8
:103D64000AF088FE0024C2E7026813461BB18B42A6
:103D740003D01B68FAE70A600160704703680BB15F
:103D84001A6802601846704708B500F0EFF808BDDD
:103D940008B500F0FDF80022014B5A7008BD00BFC1
:103DA4003408012010B5044610B1012C0CD010BD0C
:103DB40001220B4B5A700B48FFF7E0FF0028F4D0A8
:103DC400436800209847F6E70122054B9A7006489D
:103DD400FFF7D4FF0028EAD0436801209847F6E7AC
:103DE400340801203C0801204408012038B50A4B5E
:103DF4001B7813B18524204638BD074DAB606B603A
:103E04002B61EB60054800F07BF8044600F086F86F
:103E140001232B70EFE700BF34080120A93D000007
:103E240010B50446134B9B7873B110B1436801205D
:103E340098470020FFF7C4F90E4AD3680133D360D2
:103E44000020FFF7C1F910BD0020FFF7B9F91CB13C
:103E540021460948FFF788FF064BDB683BB1054A5A
:103E6400D3680133D3600020FFF7AEF910BD00F032
:103E740069F8F4E7340801204408012010B5044629
:103E8400134B5B7873B110B143680020984700204E
:103E9400FFF796F90E4A5368013353600020FFF789
:103EA40093F910BD0020FFF78BF91CB12146094896
:103EB400FFF75AFF064B5B683BB1054A5368013371
:103EC40053600020FFF780F910BDFFF75DFFF4E7B2
:103ED400340801203C08012008B50020FFF770F9E0
:103EE400064B5A68013A5A605B681BB10020FFF721
:103EF4006BF908BDFFF74CFFF8E700BF3408012059
:103F0400054B1B790BB185207047034B18600122C8
:103F14001A7100205871704748080120084B1B682B
:103F240013F0010F05D1064BC02283F800230122B0
:103F34001A6001224FF08043C3F81825704700BF70
:103F440000E100E082B0084B00221A601B68019374
:103F5400019B02224FF08043C3F80423012208335B
:103F64001A6002B0704700BF0401004082B0074BE2
:103F740000221A601B680193019B4FF080430122C9
:103F8400C3F804231A6002B0704700BF0001004068
:103F94000122074B1A604FF08043D3F80C3403F02E
:103FA4000113B3F1011FF6D00022024B5A7170477E
:103FB400040000404808012000B583B0164B1B687C
:103FC4006BB1154B00221A601B680093009B012201
:103FD4004FF08043C3F80823104B5B792BB1104B8F
:103FE4001B6843B903B05DF804FB0C4B5A711B68A2
:103FF40000209847F3E70A4B00221A601B680193DC
:10400400019B02224FF08043C3F80823034B1B6833
:1040140001209847E6E700BF00010040480801205E
:104024000401004070B4154662B1002365B1082450
:10403400A34218D20E4A52F82320B2F1FF3F05D012
:104044000133F5E70823F1E70E24F1E75AB2084CEF
:10405400261886F8382044F8231035B9083B234441
:1040640083F8680001E04FF0FF32104670BC7047DF
:10407400500801204FF0FF32054B43F82020072859
:1040840004D908381844FF2380F86830704700BF0B
:10409400500801201B4B93F874300BB10820704773
:1040A40010B582B006E0174A1A44FF2182F838108E
:1040B4000133DBB22F2BF6D9002404E02046FFF7AE
:1040C400D9FF0134E4B20D2CF8D90E4C062200219C
:1040D40004F16E000AF0F8FC0B4BC02283F80623AF
:1040E40040221A60094B002018601B680193019B51
:1040F4004FF00042064BC3F80423012384F87430C4
:1041040002B010BD5008012000E100E07C610040D5
:1041140000600040034B93F87400003018BF012086
:10412400704700BF500801201F2808D900F01F0065
:10413400044A012303FA00F0C2F8080570474FF05F
:10414400A042F6E7000300501F2808D900F01F0022
:10415400044A012303FA00F0C2F80C0570474FF03B
:10416400A042F6E700030050394B034493F938307A
:10417400002B01DB0820704770B513460D4604463A
:104184008A78C2F340021946FFF74CFFB0F1FF3FB3
:104194005BD0AB7813F0040F1DD113F0010F2AD0BC
:1041A4001F2C03D904F01F032A4902E023464FF0D1
:1041B400A04103F5E07351F8232022F0020241F8F4
:1041C4002320E30804F00701234E012202FA01F13F
:1041D400F25C0A43F254AB7813F0020F1BD1083897
:1041E4002A781B4B184490F8683043EA821380F80D
:1041F4006830002070BD6B781F2C03D904F01F02B7
:10420400144902E022464FF0A0419B0002F5E072FF
:1042140041F82230D5E72A78104900F5A27051F808
:10422400203023F44F3323F4407341F8203051F805
:104234002050230203F47C53120402F4403213434B
:104244002B4341F82030002070BD042070BD00BF16
:104254005008012000030050BE0801200060004007
:1042640070B483B0344B034493F93830072B39DDF1
:10427400A3F10802304B134493F868309B09032BD5
:1042840018D0012B27D003241F2828D900F01F00A1
:104294002A4B00F5E07053F8201021F4403143F824
:1042A400201053F8202042EA044243F8202003B0AF
:1042B40070BC70471F280AD900F01F021F4BD3F8A7
:1042C4001035D34013F0010F07D00324DCE7024676
:1042D4004FF0A043F3E70224D6E70224D4E74FF0DB
:1042E400A043D6E7DAB2072AE1D803F1400292B23A
:1042F400920092B2124D03F5A27655F8264044F08E
:10430400010445F8264002F1804202F5C04200242F
:10431400146012680192019A0029C8D0064A104418
:1043240090F9381052F82120002AC0D0012202FA54
:1043340003F3C5F80433BAE7500801200003005022
:1043440000600040094B184490F93830DAB2072A6B
:1043540009D803F1400080B2800080B200F18040AF
:1043640000F5C04070474FF4BE70F7E750080120D5
:104374002DE9F0418CB000250A950B9501204FF4EE
:104384008073294603E0400004339BB201310729BE
:1043940012D803F1804202F5C0421468012CF2D114
:1043A400834CD4F804432042EDD0002414601268F6
:1043B4000092009A0543E6E77E4B1B68012B07D069
:1043C40015F0FF0F38D1002D39DB0CB0BDE8F081BA
:1043D400784A0023136012680192019A45F000455F
:1043E400754908AA03C982E803000AAA09E00CA9CE
:1043F40001EB830151F8101CD1F8101542F8041B8D
:104404000133012BF3D9DBE776000134072CDAD82A
:104414003542F9D0664B04F5A27253F82200C0F37A
:10442400052053F82210C1F30141644B53F82430A2
:10443400002BE9D09847E7E701260024E6E70023AC
:104444000293039307E00CAA02EB83024FF0FF31BF
:1044540042F8201C0133012BF5D9A5E0032912D120
:1044640035E00DF1080E1EF806701F430EF80670B5
:104474002FE002464FF0A04E31E0032943D0B8F1BB
:10448400000F00D0C0470134052C52D84B4B2344B5
:1044940093F96830DAB222F0C000B3F1FF3FF2D0F2
:1044A400C60802F00703012101FA03F30CA9314401
:1044B40011F8201C0B42E6D09109404F07EB000E87
:1044C4009EF938E057F82E80B8F1000FC6D00329C2
:1044D400C7D01F28CDD902F01F02DFF8E4E002F5AF
:1044E400E0775EF82770C7F301470DF1300C66449E
:1044F40016F8086C334001D0022FBED0002BC2D175
:10450400032FC0D1B9E7022F11D0022702F5E072C0
:104514005EF8226026F440364EF822605EF82230BF
:1045240043EA07434EF822300135EDB2A7E70327EB
:10453400ECE7B5B3204A08AB92E8030083E8030034
:10454400002306AA09E00CA901EB830151F8101C11
:10455400D1F8101542F8041B0133012BF3D90023C1
:10456400012B0AD80CAA02EB830252F8181C52F849
:10457400082C914205D10133F2E701237BB10025D8
:104584000FE00023FAE70CAA02EB830252F8181C8E
:1045940042F8081C52F8281C42F8201C0133012B55
:1045A400F1D9002D3FF411AF00252C466CE700BF74
:1045B400006000407C61004090F40000500801203D
:1045C4000003005010B588B0644B1B68002B2AD040
:1045D400624B00221A601B680093009B604B93F8A7
:1045E4002E2012B193F82F30EBB100238DF8143044
:1045F4005B4B596806911989ADF81C10D9680029DC
:1046040074D0574B188B5883596018810021D96096
:1046140012B90122534B1A60514C236805A89847DC
:10462400002384F82F304E4B93F82E303BB34E4B7F
:104634001B6823B34C4B00221A601B680193019B37
:10464400474A538B92F82D108AB2934251D99B1A40
:104654009BB2434A53835068128992B2D31A00EB37
:104664004303404AC2F82C36C2F830163B4B0022B2
:104674001A601B680293029B01223C4B1A603C4B5C
:104684001B68002B50D13B4B1B68002B5BD1344B78
:104694005C69002C5FD0B4FA84F34FF00042DA4036
:1046A40024EA020446339B009BB203F1804202F5E4
:1046B400E04211680029ECD00021116012680492D4
:1046C400049A01228DF81420A3F58C73C3F3C70256
:1046D4008DF8182013F0040F0CBF01230B468DF83E
:1046E40019301F4B1B6805A89847D2E700221A749B
:1046F40092E7934208D09342B8D1194B012283F830
:104704002F2000225A83B1E71548C0680028F2D050
:10471400134B012283F82F2000225A83114BC3F834
:104724002C06C3F83016A1E7114B00221A601B684F
:104734000393039B0A4B1A7408A8022200F80C2D59
:104744001B6898479FE70B4A002313601268059281
:10475400059A034A137408B010BD00BF04710040E9
:10476400C80801200070004000710040047000403F
:104774001071004014710040254B93F82C300BB19C
:104784000820704710B485B0214B19600278214984
:10479400C1F8F0254278C1F8F425C27883F82E20B8
:1047A400012283F82C2000221A7483F82D205A61E8
:1047B40083F82F206FF00044C1F80843164C2260A0
:1047C40024680394039C154C226024680294029C80
:1047D400134C226022680192019A82785201D2B26B
:1047E400104880F80723802202600222C1F80423C3
:1047F40093F82E3013B10122C1F804230122054B92
:10480400C3F80025002005B05DF8044B704700BFD5
:10481400C80801200070004004710040007100408D
:104824001471004000E100E0254B1B7C0BB111200A
:10483400704710B400F10C03214A02EB43031B79C7
:1048440023B992F82D30013382F82D30CA7900F162
:104854000C041B4B03EB44031A710A7A5A710B784C
:1048640003F003034A78120102F0300213438A78FA
:10487400120202F4E0621343CA78120302F4805273
:1048840013430A79120402F4E02213434A7912050D
:1048940002F4801213438A79120602F080721343E1
:1048A400084A02EB0014C4F81835CB790C7A51305D
:1048B400000111184C60135000205DF8044B704740
:1048C400C808012000700040384B1B7C0BB111203C
:1048D400704730B482B0354A01241474344B032534
:1048E400C3F80853C3F82C16C3F8304692F82D3099
:1048F400A3420CD9002208E0D3B22D4951331B0145
:10490400CD1800246C60CC500132072AF4D900F190
:104914000C02264B03EB42031A795C79244B513089
:10492400000119184C601A5001221A6004331A60ED
:1049340042F210731F4A12680AB9013BFAD11E4BA6
:1049440000221A601B680193019B1A4B1A601B68B2
:104954000093009B154B93F82D30012B12D90022A4
:104964000EE002F10C01114B03EB410318795D7960
:10497400D3B20F4951331B01CC186560C8500132C2
:10498400072AEED9094B93F82E304BB10322084B7A
:10499400C3F804230020054B187402B030BC7047E0
:1049A4000222034BC3F80423F4E700BFC808012024
:1049B4000070004004710040007100401222304B2E
:1049C400C3F808232F4B1B7CDBB2022B23D082B00D
:1049D4002C4B1B7CDBB2012B22D00222284BC3F8C8
:1049E4000423284B01221A74586019810022DA60CA
:1049F40093F82E30002B37D1214BC3F82C06C3F883
:104A04003016214A0020106012680192019A012296
:104A14001A6002B070471A4BC3F804231120704780
:104A2400184BDB682BB10222154BC3F80423112069
:104A3400EFE7144BD860198393F82E3073B9124BF7
:104A44001B68002BFBD0104B00221A601B680093DC
:104A5400009B0B4BC3F82C06C3F830160222084BFC
:104A6400C3F804230020D4E7064B598393F82D2080
:104A7400034BC3F82C06C3F830260020C9E700BF57
:104A840000700040C80801200071004070B485B077
:104A9400002325E01F2A08D902F01F022A4E012410
:104AA40004FA02F2C6F8082509E04FF0A046F6E73A
:104AB4004FF0A046012404FA02F2C6F80C2504AA19
:104AC40002EB850555F8102C1F2A1FD902F01F028E
:104AD4001D4C02F5E072032544F822500133DBB289
:104AE400032B1ED81D46CC5CFF2C12D024F0800270
:104AF40004AE06EB830646F8102C14F0800FC9D1DF
:104B04001F2AD5D902F01F020F4ED3E74FF0A0445D
:104B1400DFE74FF0FF3404AA02EB830242F8104CA3
:104B2400DCE7006800230AE004AA02EB830252F8DF
:104B3400101C03F5AC7240F822100133DBB2032BD6
:104B4400F2D905B070BC70470003005010B483B0B4
:104B540002240C714A71096881B112F0040F20D14A
:104B6400822112F0080F01D041F0200112F0100F41
:104B740001D021F080010468C4F800130168002406
:104B8400C1F80441D1F804110191019912F0800F88
:104B940009D102680121D150002003B05DF8044B13
:104BA40070479221DDE700681844F6E730B585B018
:104BB40004460D46D0F8103173B10023C0F810310B
:104BC400D0F810310093009B4B7913F0040F03D0FD
:104BD4000B680BB101209847D4F8143173B100234A
:104BE400C4F81431D4F814310193019B6B7913F098
:104BF400080F03D02B680BB102209847D4F81C315E
:104C040073B10023C4F81C31D4F81C310293029B05
:104C14006B7913F0100F03D12B680BB10020984768
:104C2400D4F8043163B10023C4F80431D4F8043156
:104C34000393039B01232B712B680BB1032098472B
:104C440005B030BDF0B585B00679394B03EBC6032A
:104C54001B7913B1082005B0F0BD0C460546344F4E
:104C640047F83620FFF712FF2B680122C3F800250E
:104C74002B686079A1792289C3F80C05C3F804155F
:104C8400C3F808252A68A37AE17A43EA0123C2F823
:104C940010352A680023C2F800322A68C2F80033AB
:104CA4002A68C2F81C31D2F81C210392039A2A689C
:104CB400C2F81031D2F810210292029A2A68C2F87E
:104CC4001431D2F814210192019A2A68C2F80431ED
:104CD400D2F804310093009B57F83630CBB12968E1
:104CE400090B4AB22379002A1ADB5B01DBB202F119
:104CF400604202F5614282F800332B681B0B5AB202
:104D0400520903F01F03012101FA03F3094941F891
:104D14002230074B03EBC6060123337100209AE7C8
:104D240001F00F015B01DBB2034A5354E5E700BF16
:104D3400F808012000E100E014ED00E070B50C4635
:104D440005791D4901EBC50105682668C5F820658C
:104D5400A688C5F82465A668C5F82865E668C5F878
:104D64002C6505682668C5F84065A688C5F84465BD
:104D7400A668C5F84865E468C5F84C4502F0010525
:104D8400066805EB5202C6F8142513F0010F05D18D
:104D940013F0020203D05DB1082200E0102204687F
:104DA400C4F80022DAB22DB90823FFF7CFFE70BD94
:104DB4000422F4E70C23F8E7F808012008B50249B7
:104DC4000248FFF7F3FE08BDF808012000C00140C7
:104DD40008B502490248FFF7E9FE08BD00090120B1
:104DE40000200240034610F0010F0BD1032013F002
:104DF400020F01D048F2012013F0040F01D048F251
:104E0400022070474FF40240F1E710B404464B6BA4
:104E14008A6A934209D391F82C0088B90B6A13F07B
:104E2400400F11D10120606107E04A6AD35CC0F8E9
:104E34001C354B6B01334B6301205DF8044B704709
:104E44000123E3610020F8E70123E36181F82D30B9
:104E5400F3E74B6B8A6A93422CD210B44A6AD0F8B7
:104E64001845D4544B6B01334B638A6A541EA342D6
:104E740009D093420FD0934213D001230362184602
:104E84005DF8044B70470C6A14F0400FF1D1022313
:104E9400C0F80032F1E70C6A14F0400FEBD10120A6
:104EA400EEE70B6A13F0400FE7D0022381F82D30B0
:104EB4000020E5E70120704770B58AB004460E462D
:104EC40091F82F303BB9496BB26A914201D0002569
:104ED40002E0012500E0012513B30023C4F82431C6
:104EE400D4F824210392039AC4F81C31D4F81C2169
:104EF4000292029AC4F80831D4F808310193019B54
:104F0400002D5FD0D4F80431002B5CD00025C4F808
:104F14000451D4F804310993099B86F82D5052E0CA
:104F2400D4F824315BB10023C4F82431D4F82431FB
:104F34000493049B0123636186F82F30E0E7D4F8DF
:104F44001C31EBB10023C4F81C31D4F81C31059397
:104F5400059BD4F824315BB10023C4F82431D4F880
:104F640024310693069B0123636186F82F30C7E73B
:104F740031462046FFF749FF0028C1D1054622E00B
:104F8400D4F80831002BBBD00023C4F80831D4F87E
:104F940008310793079BD4F824315BB10023C4F88C
:104FA4002431D4F824310893089B0123636186F8E3
:104FB4002F30A5E731462046FFF74BFF00289FD14D
:104FC400054600E0012528460AB070BD30B587B01B
:104FD40004460D462D4B05930023C0F80431D0F848
:104FE40004210492049AC0F82431D0F824210392B5
:104FF400039AC0F81C31D0F81C210292029AC0F81E
:105004000831D0F808210192019AC0F800324B63AC
:1050140081F82F300123036291F82D30012B01D048
:105024000123836029462046FFF7EFFE2B685BB11E
:1050340040F28623AB60AB68C4F80433002007B0A9
:1050440030BD059B013B0593059B002B05DD2946DF
:105054002046FFF731FF0028F3D195F82F303BB1FC
:10506400D4F8C404C4F8C40470B1FFF7BBFE00E074
:105074000020059B002BE2DC0023C4F80035052347
:10508400C4F800350320DAE70020F2E7A086010027
:1050940030B587B004460D46314B05930023C0F864
:1050A4000431D0F804210492049AC0F82431D0F8D1
:1050B40024210392039AC0F81C31D0F81C210292D7
:1050C400029AC0F80831D0F808210192019A4B6382
:1050D40081F82F308B6A012B15D00123C4F80032DC
:1050E4000123236295F82D30022B01D00123236084
:1050F4002B689BB140F28623AB60AB68C4F80433E1
:10510400002007B030BD0B6A13F0400FE5D1022335
:10511400C0F80032E4E7059B013B0593059B002B97
:1051240005DD29462046FFF7C7FE0028F3D195F890
:105134002F303BB1D4F8C404C4F8C40470B1FFF7F1
:1051440051FE00E00020059B002BDADC0023C4F8AC
:1051540000350523C4F800350320D2E70020F2E728
:10516400A08601002DE9F04186B080460E46FFF787
:10517400A3FE00284ED196F82F7027B9327B931ED8
:10518400DBB2012B12D901AC06F10C050FCD0FC413
:105194002B682360A7B3D8F8C434C8F8C43413F018
:1051A400020F1FD001238DF800302CE0716AB3691F
:1051B4009942E8D1F36973627369B362336AC3F3E2
:1051C400401386F82C30002386F82D30032A04D0AF
:1051D40031464046FFF75CFF1CE031464046FFF78E
:1051E400F5FE17E013F0040F03D002238DF800300E
:1051F40009E013F0010F06D003238DF8003002E01C
:1052040000238DF80030002386F83030336A13F021
:10521400040F02D006B0BDE8F081336871686846B7
:105224009847F7E7F0B40479C4EB0415AE00354DA4
:10523400354495F82E5015B10820F0BC7047314F15
:10524400BD19BA516B600023AB6085F82D3085F829
:10525400313085F830304B7B85F838300B681F2BA4
:1052640043D903F01F03284D03F5E07340F20C66A5
:1052740045F823604B681F2B3AD903F01F03224DD6
:1052840003F5E07340F20C6645F8236003680E688A
:105294004D68C3F80865C3F80C558D68C3F82455E8
:1052A400CAB105682D0B6AB20B7B002A23DB5B01B4
:1052B400DBB202F1604202F5614282F80033036816
:1052C4001B0B5AB2520903F01F03012101FA03F325
:1052D4000E4941F82230C4EB0414A200094B1344D4
:1052E400012283F82E200020A7E74FF0A045BBE75A
:1052F4004FF0A045C4E705F00F055B01DBB2044A9B
:105304005355DCE7080901200003005000E100E0E8
:1053140014ED00E0037902680521C2F80015C3EB1F
:1053240003139A00024B1344022283F82E20704781
:1053340008090120037902680A49C2F80813D2F85F
:10534400001221F00301C2F800120021C2F8001576
:10535400C3EB03139A00044B1344012283F82E2059
:10536400704700BF864204000809012038B505468D
:105374000479C4EB04129300214AD35863B103683F
:105384001B0B5AB2520903F01F03012101FA03F364
:1053940020321C4941F822302846FFF7CBFFC4EBEA
:1053A40004139A00164B134493F83830CBB92B6886
:1053B400D3F808351F2B1DD903F01F03124A03F538
:1053C400E073022142F823102B68D3F80C351F2B0D
:1053D40013D903F01F030C4A03F5E073022142F8CA
:1053E4002310C4EB0414A200054B1344002283F8D9
:1053F4002E2038BD4FF0A042E1E74FF0A042EBE78A
:105404000809012000E100E0000300502DE9F84301
:105414000379314EC3EB03139D007419076894F8A4
:105424002D30012B0DD0022B11D02C4BC7F8083393
:1054340094F830308BB1A368C7F804331120BDE869
:10544400F88308780128EED10820BDE8F8830B78AA
:10545400012BEAD00820BDE8F8839146884612F073
:10546400040F0CBF0123002384F83030226204F1BE
:105474000C0E8C46BCE80F00AEE80F00DCF80030E0
:10548400CEF80030D8F80430A362D8F80C30636248
:1054940098F80130C7F8883598F80030012B15D0FA
:1054A40023B919F0200F0FD0012300E0012384F861
:1054B4002C3021463846FFF789FD7359002BCAD199
:1054C40084F83030BDE8F8830023F0E721463846FD
:1054D400FFF7DEFDF1E700BF080901208642040062
:1054E40008B503494FF04020FFF73CFE08BD00BF5C
:1054F4000809012070B5044603684FF0A04203F583
:10550400E07340F20C6142F82310436803F5E07342
:1055140042F8231002681F2A03D902F01F023E49F1
:1055240001E04FF0A04101239340C1F808356268BF
:105534001F2A03D902F01F02374901E04FF0A041AE
:1055440001239340C1F8083523684FF0A04203F5C6
:10555400E07340F20D6142F82310636803F5E073D1
:1055640042F823102D4E46F001064FF48070B047E8
:10557400002536E04FF0A0433BE0BDB162681F2A2E
:1055840044D902F01F02244901239340C1F80C3589
:105594004FF48070B04762681F2A3AD902F01F02A4
:1055A4001D4901239340C1F8083570BD70BD4FF00B
:1055B400A04101239340C1F80C354FF48070B047EB
:1055C40022681F2A03D902F01F02134901E04FF099
:1055D400A04101239340C1F808354FF48070B047CF
:1055E4000135082DCADC62681F2AC3D902F01F02E4
:1055F400094BD3F81035D34013F0010FBDD1226805
:105604001F2AD4D902F01F020349D2E74FF0A04168
:10561400BAE74FF0A041C4E700030050B0F4000023
:1056240000B585B003788DF8003003798DF8043027
:1056340043798DF8053083688DF80630C3688DF89A
:1056440007300369029343690393054B53F82130F0
:10565400044A52F821106846984705B05DF804FBE7
:105664004C09012044090120F8B504460E461746AA
:1056740005780B4A42F825700A4A42F825304B7BDC
:105684003BB9201D4FB1084A2B463146FFF7CAFDEE
:10569400F8BD0846FFF72EFFF3E70022F4E700BF4A
:1056A4004C0901204409012025560000F0B583B0BF
:1056B40005460F461646002401E00134E4B2B44224
:1056C40015D2A00000F5A0704FF48033A3402A58EF
:1056D400002AF2D0D5F804231342EED000232B5035
:1056E4002B580193019B3B6879689847E5E703B021
:1056F400F0BD000070B483B0067906EB46039C004D
:10570400334B23441B7A1BB1082003B070BC704791
:105714002F4D2B192A514A685A6000230AE0046865
:105724009A0002F5A0720025A550A2580192019A90
:105734000133DBB242799342F1D30468240B62B2A1
:10574400CB78002A3CDB5B01DBB202F1604202F55C
:10575400614282F8003303681B0B5CB2640903F0F6
:105764001F03012202FA03F31A4D45F82430056899
:105774004C78D5F8043523F0030304F003042343E1
:10578400C5F8043505688C78D5F8083523F003038B
:1057940004F003042343C5F8083500680978D0F8F9
:1057A400103523F00F0301F00F010B43C0F810353F
:1057B40006EB4606B100064B0B441A720020A4E720
:1057C40004F00F045B01DBB2034A1355C3E700BFC7
:1057D4005409012000E100E014ED00E010B4026877
:1057E4008B004033DBB20124D450036801F5A87167
:1057F40053F821005DF8044B7047000008B50422FB
:1058040002490348FFF752FF08BD00BF54090120B5
:105814000080004008B5042202490348FFF746FF10
:1058240008BD00BF6009012000A0004008B50622A1
:1058340002490348FFF73AFF08BD00BF6C09012085
:1058440000A0014008B5062202490348FFF72EFFD5
:1058540008BD00BF7809012000B001402DE9F041E6
:105864008046114E0025042707E00020FDF7ACFC1C
:10587400B7B126EA04060135EDB28EB10020FDF77A
:105884009FFC0124AC402642EFD0084B1B681C420D
:10589400EBD12343054A136088F800500027E4E75E
:1058A4003846BDE8F08100BFFFFF0F0084090120E6
:1058B400D1B110B40C46CAB101238340C3F3130120
:1058C40019B907205DF8044B7047094909680B4270
:1058D40001D10820F6E7074BA23043F8304003EB30
:1058E400C00042600020EDE70E2070470E20E9E77B
:1058F4008409012000F00140012303FA00F0C0F301
:1059040013032BB1054B1B68184201D108207047C3
:10591400034BC3F804050020704700BF840901202D
:1059240000F00140044B1B780BB185207047012225
:10593400014B1A70002070478809012008B5FAF756
:1059440017FF0028FBD1FAF713FF0028F7D10A202C
:10595400FCF78CFEF3E7000008B54FF4004100208B
:10596400FAF790FE10B9FAF7E5FD08BD024AA52141
:10597400FDF79EFBF7E700BFC4F4000008B5FEF78F
:1059840035FA00B908BD024AB021FDF791FBF9E7E9
:10599400C4F4000008B5FDF7FFFB00B908BD024AD6
:1059A4009D21FDF785FBF9E7C4F4000000B587B03D
:1059B400002208210120FCF7D2F8634B1860002272
:1059C40001210846FCF7CBF8604B1860002208213F
:1059D4006420FCF7C4F85E4B1860002208216420A0
:1059E400FCF7BDF85B4B1860002208216420FCF72B
:1059F400B6F8594B1860002218216420FCF7AFF860
:105A0400564B18600120FCF75FF9554B18600322D0
:105A140000210120FCF7A3F8524B186000231A461A
:105A24001946FCF7B7F8032200210120FCF797F888
:105A34004D4B1860032200210120FCF790F84B4BDA
:105A440018600024029403940494059402A801F0BD
:105A540035F9FFF781FFFFF791FFFFF79BFF444BF9
:105A640001930323009323464FF480724149424833
:105A7400FCF762FC012805D0404A4FF481710420F0
:105A8400FDF716FB3E4B01930423009300234FF4D0
:105A9400C0623C493C48FCF74FFC012805D0374A1A
:105AA40040F207110420FDF703FB384B0193032355
:105AB400009300234FF4807235493648FCF73CFCD0
:105AC400012805D02D4A4FF486710420FDF7F0FA21
:105AD400314B01930323009300234FF400722F49A9
