:100000000000042079030000610300006303000086
:1000100065030000670300006903000000000000A2
:100020000000000000000000000000004D32000051
:100030006D030000000000006D320000710300003D
:10004000054B0000E9AE04003DA00500730300006D
:100050009D61000073030000E14E0000815200002A
:10006000B964000073030000D16400007303000052
:1000700073030000E9A3050073030000730300008D
:1000800073030000091800007303000073030000ED
:100090007303000073030000730300007303000088
:1000A0007303000073030000E964000001650000B1
:1000B000795A0000730300000000000000000000F7
:1000C00073030000730300008D5A000073030000E7
:1000D0000596030073030000730300007303000020
:1000E00073030000730300007303000000000000AE
:1000F0000000000073030000000000007303000014
:1001000000000000000000000000000000000000EF
:1001100000000000000000000000000000000000DF
:1001200000000000000000000000000000000000CF
:1001300000000000000000000000000000000000BF
:1001400000000000000000000000000000000000AF
:10015000000000000000000000000000000000009F
:10016000000000000000000000000000000000008F
:10017000000000000000000000000000000000007F
:10018000000000000000000000000000000000006F
:10019000000000000000000000000000000000005F
:1001A000000000000000000000000000000000004F
:1001B000000000000000000000000000000000003F
:1001C000000000000000000000000000000000002F
:1001D000000000000000000000000000000000001F
:1001E000000000000000000000000000000000000F
:1001F00000000000000000000000000000000000FF
:10020000364937480A1A02D0072291438D463549AC
:1002100035480A1A06D00722914381F30988022241
:1002200082F3148831483249324A00F045F83248A6
:100230003249334A00F040F832483349334A00F03B
:100240003BF833483349344A00F036F833483449F0
:10025000344A00F031F834483449354A00F02CF87B
:1002600034483549354A00F027F8354835490022E9
:1002700000F02DF834483549002200F028F83448C1
:100280003449091A082903DB0022026004300160A6
:10029000314A90471F482049884205D002680430FF
:1002A00003B4904703BCF7E700208646EC460020E5
:1002B00000212A4A9047FEE7884207D0521A05D00B
:1002C000037801300B700131013AF9D1704788424F
:1002D00002D002700130FAE77047000000000420ED
:1002E00000E003200000042000000420349E0600EB
:1002F0000000002028020020D4030000D4030000E6
:1003000044E20500349E06000000002000000020AA
:10031000E4E20500E4E20500E4E20500E4E20500B1
:10032000E4E20500E4E20500E4E20500E4E20500A1
:10033000349E06005CA0060028020020280200204F
:100340002802002025500320285003202C50032091
:100350002C5003202C500320A10300000570000046
:10036000FEE7FEE7FEE7FEE7FEE7FEE7FEE7FEE765
:10037000FEE7FEE700F002B8FFF7FCBF0F484FF0C2
:100380000701884385460E4880470E48016841F4BE
:1003900070010160BFF34F8FBFF36F8FFFF730BF66
:1003A00009480A490A4A884207D0521A05D00378F8
:1003B00001300B700131013AF9D17047000004207F
:1003C000996D000088ED00E0E4E2050000000020E7
:0403D0000000002009
:1003D40000487047205003207047704700B583B031
:1003E400044B00934023044A00F036F803B05DF850
:1003F40004FB00BF010400002C02002012B3F8B576
:100404000F4614460326002503E001220E4B1A7002
:10041400BCB12246791900200DF0FAFD0544241AD6
:100424000028F2D1084B1B785BB14FF47A40074B9C
:1004340043F001039847013EE7D10022024B1A70B2
:10044400F8BDF8BD704700BF28020020F0E20500A7
:1004540008B50DF035FE08BDF0B595B00F4615464C
:100464001C46084603F0C0FD0E950F94002410941A
:100474008DF8444012941A9B13932346082208A92A
:10048400384603F0D0FD0A9B0B93BDF82430ADF839
:100494003030BDF82630ADF832308DF835409DF857
:1004A400203003F00303012B06D0022B21D0384661
:1004B40003F0A0FD15B0F0BD089DC5F395259DF88A
:1004C4002030C3F3C2038DF83430BDF82040C4F3A8
:1004D40083140823A2000DEB0301384603F0A3FDA7
:1004E4000EAB00930BAB224602A9284600F080FE17
:1004F400DDE7BDF82250C5F389159DF82030C3F31C
:10050400C2038DF8343008262C46082D28BF082451
:100514003346224602A9384603F085FD26442D1BA6
:100524000EAB0BAA214602A800F0C6FE002DEBD1AB
:10053400BDE7000008B5FFF78BFF0421034800F076
:10054400C3FD0122024B5A7108BD00BFC0E2050081
:1005540000000020037813F0040F19D003F0030304
:10056400012B03D0022B0AD0012070470388C3F368
:1005740083130A68134402330B60012070474388D5
:10058400C3F389130A68134402330B6001207047D4
:1005940000207047002002E001238BB901300928B4
:1005A4000CDC084BD3F81034002BF5D0DB681A7937
:1005B400904201D01B68F7E70023EEE74FF0FF30CD
:1005C400704700BF3C03002030B585B02B4C04F5C8
:1005D400836003F0FDF904F2144003F0F9F9606854
:1005E4000390A5682840023004EB8000043003A97E
:1005F400FFF7B0FF002832D003982840831C1F481F
:1006040000EB83000430F2E7039B591C03912B4059
:1006140002331A4901EB83035B684DF8223001323F
:10062400012AF1D99DF8003003F00303012B18D0FF
:10063400022B20D1BDF80640BDF80230C3F3891364
:100644000333039A02EB930303930D4803F0C5F9B4
:1006540010B1039A094B5A60204605B030BD002200
:10066400DEE7BDF80640BDF80030C3F38312039BF8
:1006740013440393E9E70024E7E700BF3C030020A9
:100684005007002010B50B4BFF229A6000221A601D
:100694005A60C3F81824C3F8142483F820240648A5
:1006A40003F055FC044608B1204610BD034803F08E
:1006B400C6FCF9E73C030020D0E2050014E3050082
:1006C400024B0348C01AC008704700BF58E2050037
:1006D400C0E2050099B110B50446FFF7F1FF00230D
:1006E40083420AD2074A32F823102268914201D089
:1006F4000133F5E72360002010BD052010BD002064
:10070400704700BF0000002000B583B002AB43F87F
:10071400040D1846FFF7DEFF30B9044B019A53F875
:10072400320003B05DF804FB0020FAE758E205004C
:10073400094B03EBC0000139032909D8DFE801F0B4
:10074400020A040602207047007970474079704716
:10075400002070470420704758E20500164B93F8B8
:1007640020343BBB30B310B582B0044652F00EFBCC
:10077400013002AA42F8040D012369460F4803F030
:100784006CFCA8B9019A2146009852F057FA019BD3
:10079400013B0021009AD154084C0199204603F0F2
:1007A40097FC0199204603F0ACFC009802B010BD00
:1007B4000020FBE7704700BF3C03002014E3050062
:1007C400034B58681B68984214BF002001207047EF
:1007D4003C0300202DE9F04184B0FFF7F1FF00282D
:1007E40040F02481054692480023C0F81834BFF332
:1007F4004F8F4368039384682340023300EB8300E4
:10080400043003A9FFF7A6FE002839D0884BD3F89B
:100814001834002B36D1864B1A68039B9A4206D9AA
:1008240023400233824800EB8303181DE9E7804B21
:100834005A60E0E0039B591C0391234002337C4936
:1008440001EB83035B684DF822300132012AF1D9B0
:100854009DF8003003F00303022B15D0012B72D056
:100864000025002D00F0CB80714BD3F81044D3F851
:100874001834002B00F09F80284603F0BBFBB5E042
:100884000022E3E70022E1E7BDF80230C3F3891751
:100894003E46502FA8BF502666F38F13ADF80230A2
:1008A40006F10801634803F06DFB05460028D8D023
:1008B40003F09AFB002308226946284603F0A7FBAD
:1008C400039A24EA020301339B009E422ED923B3E8
:1008D40022400232564901EB8202111DFBB1DCB207
:1008E400FBB1DFF85481FBB1F6B2DBB2F31ADEB22E
:1008F40008232246284603F08AFB04F10803B8F1D2
:10090400000F04D032464146284603F080FB0337EB
:10091400039B03EB97070397A3E74749DEE7F4B28A
:10092400DEE74FF00008DEE70026E1E704EA020311
:1009340002333F4901EB8301082332460431284640
:1009440003F065FBE3E7BDF80020C2F38313062B35
:1009540028BF062363F38912ADF8002002339900FF
:10096400344803F00FFB054600283FF47AAF03F048
:100974003BFB002308226946284603F048FB002677
:1009840008270FE0039B5A1C039223400233284993
:1009940001EB83013B4604221144284603F037FB54
:1009A40004370136BDF80030C3F383139E42E9D304
:1009B40057E7E3681C684CB1E3685B79002BF8D017
:1009C40023681B68294620469847F2E7284603F027
:1009D40011FB002002F082FF154BD3F8183413B931
:1009E400039A134B5A60002002F07CFFFFF7E8FEE5
:1009F40080F00100C5B2284604B0BDE8F0810C4B7C
:100A0400D3F8104405E023689B6820469847E368C0
:100A14001C68002CF7D10948094BC01AC00800040F
:100A2400084940F0020000F00FF8DFE70025E2E794
:100A34003C030020D0E205004803002098E20500B2
:100A440058E2050020E305002DE9F84F06468B46E1
:100A5400DFF8DC80D8F80840002002F03FFFD8F827
:100A64000050D8F80830D8F80420521B134401333E
:100A740012E02F4F07F21C490121484602F089FF7A
:100A8400FFF7A2FD0146484602F083FFBB687A687F
:100A94003968521A13440133012BEAD900224FF06A
:100AA400010969F3010242F004026FF38912DFF8CD
:100AB4008080D8F80010D8F808300B40023308EBD7
:100AC40083035A600231C8F80010002002F00AFFC4
:100AD4004FEA164A002108F21C4002F01AFF80F384
:100AE400100005EB090323404AEA0040023308EBF7
:100AF400830358602C40023408EB8404237966F3A2
:100B0400C5032371A3886FF38913A38063686BF310
:100B14009F23636069F301036FF38203237198F8E1
:100B240020341BB1FFF756FE0028FBD1BDE8F88F37
:100B34003C0300202DE9F04782B006468A46019224
:100B4400DFF80081D8F80840002002F0C7FED8F88A
:100B54000050D8F80830D8F80420521B134401334D
:100B640012E0384F07F21C490121484602F011FFF8
:100B7400FFF72AFD0146484602F00BFFBB687A687E
:100B84003968521A13440133022BEAD90022012393
:100B940063F3010242F0040263F3891229490868ED
:100BA4008B680340023301EB83035A60033008600F
:100BB400002002F097FEA81C00230DE004EA0002C6
:100BC40002A901EB830151F8047C911C1D4A02EB3C
:100BD4008102576001330130002BEFD04FEA1649F0
:100BE400DFF86080002108F21C4002F092FE80F3DE
:100BF40010006B1C234049EA0040023308EB8303D6
:100C040058602C40023408EB8404237966F3C5034E
:100C14002371A388012262F38913A38063686AF3B2
:100C24009F23636062F301036FF38203237198F8D7
:100C340020341BB1FFF7CEFD0028FBD102B0BDE884
:100C4400F08700BF3C0300202DE9F04782B0064640
:100C54008A4600920193DFF80481D8F80840002006
:100C640002F03CFED8F80050D8F80830D8F8042038
:100C7400521B1344013312E0384F07F21C4901217F
:100C8400484602F086FEFFF79FFC0146484602F004
:100C940080FEBB687A683968521A13440133032B07
:100CA400EAD90022012363F3010242F00402022381
:100CB40063F38912294908688B680340023301EB06
:100CC40083035A6004300860002002F00BFEA81C65
:100CD40000230DE004EA000202A901EB830151F8AC
:100CE400087C911C1D4A02EB8102576001330130DC
:100CF400012BEFD94FEA1649DFF86080002108F292
:100D04001C4002F006FE80F310006B1C234049EAED
:100D14000040023308EB830358602C40023408EB94
:100D24008404237966F3C5032371A388022262F342
:100D34008913A38063686AF39F236360012262F3CB
:100D440001036FF38203237198F820341BB1FFF77A
:100D540041FD0028FBD102B0BDE8F0873C03002030
:100D64002DE9F04784B006468A46019202930C9B13
:100D74000393DFF80481D8F80840002002F0AEFDA8
:100D8400D8F80050D8F80830D8F80420521B13447F
:100D9400013312E0384F07F21C490121484602F0A2
:100DA400F8FDFFF711FC0146484602F0F2FDBB686E
:100DB4007A683968521A13440133042BEAD90022A1
:100DC400012363F3010242F00402032363F3891253
:100DD400294908688B680340023301EB83035A6096
:100DE40005300860002002F07DFDA81C00230DE002
:100DF40004EA000204A901EB830151F80C7C911C64
:100E04001D4A02EB8102576001330130022BEFD9F6
:100E14004FEA1649DFF86080002108F21C4002F016
:100E240078FD80F310006B1C234049EA0040023334
:100E340008EB830358602C40023408EB84042379C4
:100E440066F3C5032371A388032262F38913A38085
:100E540063686AF39F236360012262F301036FF303
:100E64008203237198F820341BB1FFF7B3FC0028E8
:100E7400FBD104B0BDE8F0873C0300202DE9F04726
:100E840086B006468A46019202930E9B03930F9BFB
:100E94000493109B0593DFF80481D8F808400020E0
:100EA40002F01CFDD8F80050D8F80830D8F8042017
:100EB400521B1344013312E0384F07F21C4901213D
:100EC400484602F066FDFFF77FFB0146484602F004
:100ED40060FDBB687A683968521A13440133062BE3
:100EE400EAD90022012363F3010242F0040205233C
:100EF40063F38912294908688B680340023301EBC4
:100F040083035A6007300860002002F0EBFCA81C41
:100F140000230DE004EA000206A901EB830151F865
:100F2400147C911C1D4A02EB81025760013301308D
:100F3400042BEFD94FEA1649DFF86080002108F24C
:100F44001C4002F0E6FC80F310006B1C234049EACD
:100F54000040023308EB830358602C40023408EB52
:100F64008404237966F3C5032371A388052262F3FD
:100F74008913A38063686AF39F236360012262F389
:100F840001036FF38203237198F820341BB1FFF738
:100F940021FC0028FBD106B0BDE8F0873C0300200B
:100FA4002DE9F04786B006468A46009201930E9BCF
:100FB40002930F9B0393109B0493119B0593DFF8FB
:100FC4000481D8F80840002002F088FCD8F80050CA
:100FD400D8F80830D8F80420521B1344013312E027
:100FE400384F07F21C490121484602F0D2FCFFF7B2
:100FF400EBFA0146484602F0CCFCBB687A683968D3
:10100400521A13440133072BEAD90022012363F354
:10101400010242F00402062363F389122949086895
:101024008B680340023301EB83035A600830086085
:10103400002002F057FCA81C00230DE004EA000283
:1010440006A901EB830151F8187C911C1D4A02EB9F
:101054008102576001330130052BEFD94FEA16495D
:10106400DFF86080002108F21C4002F052FC80F39B
:1010740010006B1C234049EA0040023308EB830351
:1010840058602C40023408EB8404237966F3C503CA
:101094002371A388062262F38913A38063686AF329
:1010A4009F236360012262F301036FF382032371C0
:1010B40098F820341BB1FFF78DFB0028FBD106B054
:1010C400BDE8F0873C03002010B50446FFF762FA40
:1010D400B0F1FF3F0ED0E36818710A4BD3F8103417
:1010E4004BB1E268DB681B681360064BD3F810341D
:1010F400DB681C6010BD034BC3F81044E368002296
:101104001A6010BD3C03002010B5094BD3F81044FD
:10111400012283F8202408E0E36801225A7123683D
:101124005B6820469847E3681C68002CF4D110BD26
:101134003C03002070B582B004460D46C388A3B9B1
:10114400217A05290FD0637ABBB9227A104B53F860
:1011540022600021A088FFF7D7FA034632460D49E2
:10116400284602F0ADFC02B070BD0B4A00920B4A57
:101174000B49284602F0A4FCE2E7A088FFF7D8FA5E
:10118400084B53F820200849284602F099FCDCE774
:10119400A4E3050098E3050090E3050070E305006F
:1011A40078E3050038E305004CEB050010B50C4668
:1011B400037A052B0FD0437A3BB90A49204602F043
:1011C4007FFC204602F070FC10BD074A0749204608
:1011D40002F076FCF1E7002AF3D00249204602F03F
:1011E4006FFCEEE7EC01060090E305004CEB050014
:1011F4002DE9F04385B081460D4617461E460C9CEA
:1012040094F80C800023237321463046FFF792FFA5
:10121400062F09D8DFE807F00412181F283340000E
:101224004946204602F04CFC002221463046FFF796
:10123400BDFF84F80C8005B0BDE8F0832A684946F8
:10124400204602F03DFCEFE76B682A6849462046D9
:1012540002F036FCE8E76B682A68A9680091494601
:10126400204602F02DFCDFE76B682A68E9680191EB
:10127400A96800914946204602F022FCD4E76B6835
:101284002A6829690291E9680191A968009149468F
:10129400204602F015FCC7E76B682A686969039168
:1012A40029690291E9680191A9680091494620469B
:1012B40002F006FCB8E70000082900D970472DE9C0
:1012C400F0471D4690460E46074693F80C900024BE
:1012D4001C7319461046FFF72DFF04E01C492846ED
:1012E40002F0EEFB0134072C07D8B442F6D23A5D83
:1012F4001849284602F0E4FBF4E71749284602F0AF
:10130400DFFB002409E0824651F086FA78B15246A8
:101314001249284602F0D4FB0134072C0FD8B442FA
:1013240008D2385D7E28EED94FF02E0AEFE74FF051
:101334002E0AECE70A49284602F0C2FBECE7012238
:1013440029464046FFF732FF85F80C90BDE8F08748
:1013540064E305005CE3050068E305006CE3050055
:10136400A0E30500002307E04FF0A04102F5E0727E
:101374000C2041F822000133032B08D8044AD15C25
:101384000A461F29F0D901F01F020249EEE770470F
:1013940010E4050000030050094B1A5C11461F2A93
:1013A4000BD902F01F01074BD3F80435CB4013F0DF
:1013B400010F0CBF0120002070474FF0A043F3E75A
:1013C40014E4050000030050074B1A5C11461F2A61
:1013D40007D902F01F01054A01238B40C2F80C35DE
:1013E40070474FF0A042F7E714E4050000030050F3
:1013F400074B1A5C11461F2A07D902F01F01054A40
:1014040001238B40C2F8083570474FF0A042F7E73C
:1014140014E405000003005010B5002403E0204646
:10142400FFF7E6FF0134032CF9D910BD08B50023FA
:1014340007E04FF0A04102F5E072032041F82200DA
:101444000133032B08D8064AD15C0A461F29F0D978
:1014540001F01F020349EEE7FFF7DEFF08BD00BFFE
:1014640014E405000003005010B5002403E02046F6
:10147400FFF7AAFF0134032CF9D910BD0B4B195CFB
:1014840008461F290ED901F01F000949D1F8043577
:101494000122824022EA0300C1F808051340C1F882
:1014A4000C3570474FF0A041F0E700BF14E405008D
:1014B400000300500023032B05D8054AD25C824266
:1014C40003D00133F7E74FF0FF331846704700BFEE
:1014D40010E4050010B5044610F0010F03D114F018
:1014E400020F03D110BDFFF7A1FFF8E7FFF73AFFA2
:1014F400F8E70000124A12F0070F1ED0D11D21F0A8
:101504000701C1F5003313440A460E480260002166
:1015140041601344083B23F007030B480360596000
:101524001960991A51601360084B1960084B1960CF
:101534004FF00042074B1A6070474FF40033E4E762
:10154400FC07002008080220F807002004080220F5
:1015540000080220FC07022010B4134A00E01A46D7
:1015640013688342FBD351685418A0420AD04168DF
:101574004418A3420BD00360904200D010605DF881
:10158400044B70474068014451601046EFE7074C34
:101594002468A34206D05B681944416013681B6841
:1015A4000360E9E70460E7E708080220F807002081
:1015B40070B5054600F048FF284B1B68A3B1284BC3
:1015C4001B681D4242D135B1083515F0070F02D012
:1015D40025F007050835002D3AD0224B1B689D42A3
:1015E40038D8214A146804E0FFF784FFE7E722466D
:1015F4001C4663689D4202D92368002BF7D1174B20
:101604001B689C4228D016680836236813606368F8
:101614005B1B102B14D8626812490B689B1A0B6071
:10162400124909688B4201D210490B600C4B1B68AC
:10163400134363600023236000F09AFF304670BDBB
:10164400601943606560FFF787FFE4E70026F3E76E
:101654000026F1E70026EFE70026EDE7F807002073
:10166400FC070220000802200808022004080220C7
:10167400F8B138B50446A0F1080550F8042C0D491A
:1016840009680A4202D050F8080C00B138BD22EAB9
:10169400010244F8042C00F0D7FE54F8041C064A56
:1016A40013680B4413602846FFF756FF00F060FFF1
:1016B400ECE77047FC07022000080220014B186881
:1016C400704700BF0008022000F1080343604FF098
:1016D400FF328260C360036100230360704700230C
:1016E4000361704743684B609A688A609A685160E6
:1016F40099600861036801330360704730B40D6872
:10170400B5F1FF3F02D000F1080202E0026904E0F3
:101714001A4653681C68A542FAD253684B60996014
:101724008A605160086103680133036030BC70470C
:1017340003694268816891608268416851605A68AF
:10174400904206D0002202611A68013A1A601868B1
:10175400704782685A60F5E7402383F31188FEE7F7
:10176400034AD2F8883043F47003C2F888307047D3
:1017740000ED00E04FF0807340F8043C40F8081C92
:10178400054B40F80C3C40F8202C6FF0020340F865
:10179400243C4438704700BF5D17000008B50C4C6A
:1017A400E02384F8223000F069F80022094B1A6023
:1017B400FFF7D6FF084A536843F040435360236958
:1017C40043F01003236101F031FDFFF7C5FF00BFB3
:1017D40000ED00E01008022030EF00E0402383F326
:1017E4001188024A136801331360704710080220FD
:1017F400034A1368013B13600BB983F311887047E4
:1018040010080220F0B583B0194B00221A601B683F
:101814000193019BEFF31187402383F31188154B48
:10182400D3F8044503F580731A601B680093009B8A
:1018340000F012FE241A24F07F44012C04D901F094
:10184400F7F8022800D00124002503E000F018FE78
:1018540005433446661E002CF8D125B14FF0805262
:10186400054B5A6040BF87F3118803B0F0BD00BF39
:10187400401101400010014000ED00E008B50020D7
:1018840003F03CF80A4B1F22C3F808250122C3F8D1
:10189400042308490A601A600222C3F84423064B51
:1018A400E02283F811234FF400321A6008BD00BF10
:1018B400001001400810014000E100E030B585B09F
:1018C40004462A4B984200D91C4672B6284BD3F8DA
:1018D400045501F08FF8002841D0621922F07F42AC
:1018E400234B0121C3F80813C3F84025214A0021E2
:1018F400116012680192019A4FF48032C3F80423F4
:10190400BFF34F8F3CB120BF1B4BD3F80021D3F85A
:1019140004311343F7D0164B4FF48032C3F8082335
:1019240002F1804202F58A5200211160126803928A
:10193400039A124A116012680292029A0122C3F8B1
:101944000423D3F804355B1B23F07F434FF40031A9
:10195400094AC2F880119C4200D31C4614B962B6ED
:1019640005B030BD204600F083FDF8E7FDFFFF0021
:10197400001001404011014000E100E0001101406D
:10198400436A23B1036B1868C0F106007047002056
:10199400704710B50446FFF721FFA26BE36B9A4230
:1019A40004D00024FFF724FF204610BD0124F9E7EA
:1019B40010B50446FFF712FFA36B23B10024FFF711
:1019C40017FF204610BD0124F9E770B504461646FA
:1019D400856B026C5AB903681BB100200135A563FD
:1019E40070BD406801F094F800236360F6E76EB9B7
:1019F400806851F023F9226CA3681344A3606268E1
:101A0400934219D32368A3600020E7E7C06851F02C
:101A140015F9226C5242E3681344E36021688B4257
:101A240002D263681A44E260022E01D00020D5E796
:101A340025B1013D0020D1E70020CFE70020CDE70C
:101A4400026C72B110B5C3681344C3604468A34206
:101A540001D30368C3600C46C168204651F0EEF818
:101A640010BD704738B50546FFF7B8FE95F84540F8
:101A740064B201E0013C64B2002C0ADD6B6A43B13C
:101A840005F1240000F03AFF0028F3D000F0ACFF89
:101A9400F0E7FF2385F84530FFF7AAFEFFF79EFE27
:101AA40095F8444064B201E0013C64B2002C0ADDC4
:101AB4002B6943B105F1100000F020FF0028F3D09A
:101AC40000F092FFF0E7FF2385F84430FFF790FE23
:101AD40038BD000038B504460D46FFF77FFE216887
:101AE400E26B236C03FB021060600020A063A16022
:101AF400013A02FB0313E360FF2384F8443084F8C3
:101B04004530ADB923691BB9FFF772FE012038BD1A
:101B140004F1100000F0F2FE0028F5D04FF08052DE
:101B2400084B5A6040BFBFF34F8FBFF36F8FEBE793
:101B340004F11000FFF7C8FD04F12400FFF7C4FD11
:101B4400E2E700BF00ED00E038B51D46049C0B46FB
:101B540049B12260E063236401212046FFF7BAFF04
:101B640084F84C5038BD2460F4E7F0B583B00546E2
:101B740017460E4689B100FB01F05030FFF718FDFF
:101B8400044638B100903B4600F1500231462846E5
:101B9400FFF7DAFF204603B0F0BD0020EDE70000B8
:101BA400F0B585B004460F4601921E4600253BE081
:101BB400324639462046FFF708FF636A73B940B1DD
:101BC4004FF080523C4B5A6040BFBFF34F8FBFF37E
:101BD4006F8FFFF70DFE012005B0F0BD04F1240066
:101BE40000F08CFE0028F4D04FF08052324B5A6043
:101BF40040BFBFF34F8FBFF36F8FEAE7FFF7F8FDE6
:101C04000020E9E702A800F0B7FE012519E000234F
:101C140084F8443021E0002384F8453023E0204652
:101C2400FFF720FF00F0A4FCFFF7D8FDA26BE36BE5
:101C34009A42BDD3022EBBD0019B002BDED0002DD7
:101C4400E0D0FFF7D5FD00F0FFFBFFF7C7FD94F8E8
:101C540044305BB2B3F1FF3FD9D094F845305BB266
:101C6400B3F1FF3FD7D0FFF7C3FD01A902A800F0ED
:101C74008FFED0B92046FFF78CFE0028CFD0019903
:101C840004F1100000F01AFE2046FFF7EBFE00F00E
:101C94006FFC0028C8D14FF08052074B5A6040BFF8
:101CA400BFF34F8FBFF36F8FBEE72046FFF7DAFE17
:101CB40000F05EFC00208FE700ED00E048B108B5BD
:101CC400002141600160C1600B460A46FFF768FFCE
:101CD40008BD704710B5024600210120FFF745FFFB
:101CE4000446FFF7EBFF204610BDF8B5EFF311866D
:101CF400402484F31188856BC46BA54205D3022B61
:101D040003D0002086F31188F8BD1746054690F8E5
:101D1400454064B21A46FFF758FEB4F1FF3F05D0C0
:101D2400013464B285F845400120EBE76B6A0BB9D6
:101D34000120E7E705F1240000F0E0FD18B127B128
:101D440001203860DEE70120DCE70120DAE700004B
:101D5400F0B585B004460F46019200263DE03946B1
:101D64002046FFF76DFE013DA563236923B9FFF704
:101D74003FFD012005B0F0BD04F1100000F0BEFDF0
:101D84000028F4D04FF08052344B5A6040BFBFF368
:101D94004F8FBFF36F8FEAE7FFF72AFD0020E9E7D3
:101DA40002A800F0E9FD012621E0002384F8443074
:101DB40029E0002384F845302BE02046FFF752FE4B
:101DC40000F0D6FB09E02046FFF74CFE00F0D0FB04
:101DD4002046FFF7EDFD00283ED1FFF7FFFCA56B81
:101DE400002DBCD1019B002BD6D0002ED8D0FFF7FC
:101DF400FFFC00F029FBFFF7F1FC94F844305BB2E0
:101E0400B3F1FF3FD1D094F845305BB2B3F1FF3F5B
:101E1400CFD0FFF7EDFC01A902A800F0B9FD00281E
:101E2400D1D12046FFF7C4FD0028C6D0019904F1A2
:101E3400240000F043FD2046FFF714FE00F098FB59
:101E44000028CAD14FF08052044B5A6040BFBFF300
:101E54004F8FBFF36F8FC0E700208BE700ED00E0EA
:101E640070B584B0044601910026354649E0013B33
:101E7400A36323683BB123694BB9FFF7B9FC01267F
:101E8400304604B070BD00F0CFFE6060F3E704F1AB
:101E9400100000F033FD0028EFD04FF08052424B89
:101EA4005A6040BFBFF34F8FBFF36F8FE5E7FFF773
:101EB4009FFC0026E4E702A800F05EFD01252AE06D
:101EC400002384F8443032E0002384F8453034E0C1
:101ED400FFF784FC606800F0BBFD0646FFF788FC52
:101EE4003BE02046FFF7BEFD00F042FB09E0204640
:101EF400FFF7B8FD00F03CFB2046FFF759FD002832
:101F040041D1FFF76BFCA36B002BB0D1019B002BDD
:101F1400CDD0002DCFD0FFF76BFC00F095FAFFF782
:101F24005DFC94F844305BB2B3F1FF3FC8D094F841
:101F340045305BB2B3F1FF3FC6D0FFF759FC01A9AE
:101F440002A800F025FD0028D1D12046FFF730FD7E
:101F54000028C6D02368002BBAD0019904F12400CC
:101F640000F0ACFC2046FFF77DFD00F001FB0028EB
:101F7400C7D14FF080520C4B5A6040BFBFF34F8F14
:101F8400BFF36F8FBDE7002E3FF47AAFFFF726FC57
:101F94002046FFF7F5FC0146606800F0F9FDFFF705
:101FA40027FC00266CE700BF00ED00E00023032BB4
:101FB4000CD8074A52F833200AB10133F7E7044A30
:101FC40042F8331002EBC30358607047704700BFF8
:101FD400140802200023032B0FD8084A02EBC30283
:101FE4005268824201D00133F5E7044A002142F8E5
:101FF400331002EBC3035960704770471408022082
:1020040010B50446FFF7E6FF2046FFF731FB10BD8D
:1020140070B504460D461646FFF7E0FB94F84430CD
:102024005BB2B3F1FF3F0DD094F845305BB2B3F12E
:10203400FF3F0BD0FFF7DCFBA36B5BB12046FFF740
:1020440011FD70BD002384F84430EDE7002384F8CB
:102054004530EFE73246294604F1240000F03CFC09
:10206400ECE700000D4B1B68012B0AD901220C4B35
:102074001B68DB6A73B90B4B1B68012B03D9002067
:1020840070470022F3E73AB9074B1868074B1B68FF
:10209400C01A70470020704700207047CC08022007
:1020A4003408022040080220FC08022044090220CF
:1020B4000A4B1B681B684BB901234BB9074B1B68C0
:1020C400DB68DB685A68064B1A6070470023F4E744
:1020D4004FF0FF32024B1A60704700BF38080220ED
:1020E400FC08022010B50446006BFFF7C1FA204635
:1020F400FFF7BEFA10BD2DE9F04781460D4617469D
:102104009A46089EDDF824800A9C9200A521206B43
:1021140050F0BEFD236B07F18042013A03EB8207C6
:1021240027F007070023052B07D8E95CE21882F89B
:102134003410EA5C0AB10133F5E7002384F839303E
:10214400052E00D90526E66266640025A564201DD7
:10215400FFF7C5FA04F11800FFF7C1FA2461C6F1CC
:102164000606A6616462E56484F850505246494606
:102174003846FFF7FFFA2060B8F1000F01D0C8F825
:102184000040BDE8F087000038B5002407E004EB08
:10219400840293000E481844FFF796FA0134052C84
:1021A400F5D90C4D2846FFF78FFA0B4C2046FFF764
:1021B4008BFA0A48FFF788FA0948FFF785FA0948B5
:1021C400FFF782FA084B1D60084B1C6038BD00BF46
:1021D40040080220D0080220E4080220040902205A
:1021E400300902201C090220380802203C08022081
:1021F40010B50446FFF7F2FA214A1368013313605D
:10220400204B1B68002B33D01F4B1B683BB91D4B65
:102214001B68DA6AE36A9A4201D81A4B1C601B4AAB
:10222400136801331360E363E36A01229A40184997
:10223400086802430A6003EB83039A00211D1548D2
:102244001044FFF74FFAFFF7D3FA0F4B1B6873B133
:102254000C4B1B68DA6AE36A9A4208D24FF0805248
:102264000D4B5A6040BFBFF34F8FBFF36F8F10BD4C
:10227400044B1C601368012BD1D1FFF785FFCEE717
:10228400B80802203408022018090220C8080220D5
:10229400CC0802204008022000ED00E00F4B1B6830
:1022A400D3B110B5FFF79AFA0D4BDB68DC68201D3B
:1022B400FFF73EFA0B4A1368013B1360074A1368A1
:1022C400013B1360FFF794FA2046FFF70BFF034B23
:1022D4001B68002BE6D110BD704700BFBC0802206C
:1022E40030090220B808022070B504460E461D4B82
:1022F4001D681D4B18680430FFF71AFA50B91A4BC1
:102304001B68DA6A012303FA02F218490B6823EA0C
:1023140002030B60B4F1FF3F13D02C44124B1B6833
:102324005C60A54216D8124B18680F4B196804312B
:10233400FFF7E4F90F4B1B689C4201D20D4B1C6064
:1023440070BD002EE9D0084B196804310A48FFF724
:10235400C9F970BD094B1868034B19680431FFF7BC
:10236400CDF970BD4409022034080220CC080220B3
:1023740038080220FC0802201C0902203C08022024
:102384002DE9F04385B006460F4615469846900061
:10239400FFF70EF900B381465420FFF709F904460C
:1023A400B0B1C0F83090CCB10023039302940D9BDC
:1023B40001930C9B009343462A4639463046FFF767
:1023C4009AFE2046FFF714FF012005B0BDE8F08314
:1023D4004846FFF74DF9E6E70024E4E74FF0FF3005
:1023E400F3E7000000B583B0114B01930023009381
:1023F400802210491048FFF7C3FF012804D00128A8
:1024040005D003B05DF804FB00F07CFDF7E7402342
:1024140083F311884FF0FF32084B1A600122084BF6
:102424001A600022074B1A60FFF7B8F9E9E700BF0A
:10243400F808022018E40500F9260000FC08022030
:102444001809022044090220024A13680133136068
:10245400704700BFC4080220014B1868704700BFD2
:1024640044090220014B1868704700BF4409022048
:10247400024A136818441060704700BF44090220E0
:10248400F8B5304B1B68002B51D12F4B1E68013619
:102494001E602EB12D4B1B689E423CD200274BE0A0
:1024A4002B4A11682B4B1868106019602A4A13686C
:1024B40001331360FFF7FCFDECE70127244B1B6895
:1024C4001B6853B3002353BB214B1B68DB68DC68D8
:1024D40063689E4228D3251D2846FFF729F9A36A7D
:1024E4001BB104F11800FFF723F9E36A01229A40B3
:1024F4001A49086802430A6003EB83039A002946D9
:1025040017481044FFF7EEF8E26A164B1B68DB6AC3
:102514009A42D2D2D2E70027D0E70123D3E74FF083
:10252400FF320A4B1A6007E0084A136004E00E4ABF
:1025340013680133136000270C4B1B6803B1012798
:102544003846F8BDC408022044090220FC080220D1
:10255400380802203C08022000090220CC0802208E
:102564004008022034080220C00802204809022042
:1025740038B5FFF733F92E4B1A68013A1A601B6815
:10258400002B4ED12B4B1B683BB300242A4B1B68FA
:102594002BB3294BDB68DC6804F11800FFF7C8F89B
:1025A400251D2846FFF7C4F8E36A01229A4023490F
:1025B400086802430A6003EB83039A002946204813
:1025C4001044FFF78FF8E26A1E4B1B68DB6A9A42DD
:1025D400DCD301221C4B1A60D8E7002422E00CB1A2
:1025E400FFF766FD194B1C687CB9174B1B68EBB1F0
:1025F4004FF08052164B5A6040BFBFF34F8FBFF36A
:102604006F8F01240EE0013C07D0FFF739FF00284B
:10261400F9D001220C4B1A60F5E700220B4B1A602B
:10262400E3E70024FFF7E4F8204638BD0024F9E787
:10263400C4080220B808022004090220CC080220A1
:10264400400802203408022048090220C008022061
:1026540000ED00E038B505460C46FFF7F5FE164BD5
:1026640018682A681444904205D2A24209D9A042AB
:1026740017D3002206E0A24215D8A04215D30022A7
:1026840000E000222C6092B9FFF772FF40B94FF0CE
:1026940080520A4B5A6040BFBFF34F8FBFF36F8F16
:1026A40038BD0122EEE70122ECE70122EAE700212E
:1026B400201AFFF719FEE7E74409022000ED00E0C5
:1026C40010B558B9002040B94FF08052084B5A60F9
:1026D40040BFBFF34F8FBFF36F8F10BD0446FFF7AA
:1026E400B3FE00212046FFF7FFFDFFF741FFEAE7B5
:1026F40000ED00E008B503E0FFF7B4FC01280FD8B3
:10270400FFF7CCFD0C4B1B68012BF5D94FF0805221
:102714000A4B5A6040BFBFF34F8FBFF36F8FEBE795
:10272400FFF792FEFFF79EFC012801D9FFF7C6F8D8
:10273400FFF71EFFE4E700BF4008022000ED00E0C1
:10274400254B1B68002B2ED110B50022234B1A6099
:10275400234B1B681B6B1A68B2F1A53F27D0204B93
:1027640018681968343104F037FC1E4B1B68B3FA3F
:1027740083F3C3F11F031C489A00D418A100014439
:102784004C6864684C601A449100083108448442DF
:102794001AD003EB83039A00134B13445B68DA6883
:1027A4000F4B1A6010BD01220C4B1A6070475A6817
:1027B400B2F1A53FD3D19A68B2F1A53FCFD1DB687E
:1027C400B3F1A53FCBD1D0E7606803EB830291005E
:1027D400054A0A445060DCE7C40802204809022084
:1027E40034080220CC0802204008022038B50446F0
:1027F400FEF7F4FF5CB3251D2846FEF799FF68B980
:10280400E36A03EB83018A0025498A5832B901221D
:102814009A4024490B6823EA02030B60A36A1BB1A4
:1028240004F11800FEF784FF29461F48FEF75AFFFB
:1028340094F85030DBB2012B0CD0FEF7D9FF1B4BC0
:102844001B685BB91A4B1B689C420ED038BD184BF1
:102854001C68D0E7002384F85030EEE7FEF7BEFF93
:10286400FFF726FCFEF7C4FFECE7104B1B6843B9E7
:102874000D4B1A680F4B1B689A420CD0FFF760FF90
:10288400E4E74FF080520C4B5A6040BFBFF34F8FC8
:10289400BFF36F8F38BD0022054B1A6038BD00BFEF
:1028A40040080220CC0802201C090220180902203A
:1028B40034080220B808022000ED00E010B50C46F0
:1028C400044B19681831FEF719FF01212046FFF760
:1028D4000BFD10BD3408022038B50D461446064BD6
:1028E40019681831FEF7FEFE0CB14FF0FF35214692
:1028F4002846FFF7F9FC38BD3408022038B5C36810
:10290400DC6804F118052846FEF712FF144B1B6817
:10291400FBB9251D2846FEF70BFFE36A01229A4006
:102924001049086802430A6003EB83039A002946AE
:102934000D481044FEF7D6FEE26A0C4B1B68DB6AB6
:102944009A420BD901240A4B1C60FFF7B1FB2046C5
:1029540038BD29460748FEF7C5FEEDE70024F4E735
:10296400C4080220CC0802204008022034080220B7
:102974004809022004090220034B1B680360034B2F
:102984001B684360704700BF00090220440902200D
:10299400F8B504460D46FEF721FF114B196862682D
:1029A400881A2B68B3F1FF3F16D027680D4E36689E
:1029B400B74201D0914211D2984206D300232B6032
:1029C4000124FEF715FF2046F8BD1B1A2B60204694
:1029D400FFF7D2FF0024F4E70024F2E70124F0E734
:1029E40044090220000902200122014B1A607047A9
:1029F400480902200A4B1B685BB90A4B1B6853B990
:102A0400094B1A68094B1B68013B9A4205D0012007
:102A1400704700207047002070470220704700BFB5
:102A240004090220480902201C090220B8080220D7
:102A3400054B1B6823B1054B1B681BB9022070476B
:102A4400012070470020704718090220C4080220A2
:102A5400002854D038B50446C26A2A490968C96AAC
:102A64008A4242D28169002905DB26490968C96A7C
:102A7400C1F106018161606902EB82029100224A80
:102A84000A44904207D000223AB91E4A1268D26A18
:102A9400E262012038BD0122F6E7251D2846FEF733
:102AA40047FE68B9E36A03EB83018A0016498A5832
:102AB40032B901229A4015490B6823EA02030B60DC
:102AC400104B1B68DB6AE362012404FA03F20F492A
:102AD400086802430A6003EB83039A0029460A4804
:102AE4001044FEF7FFFD204638BD426C054B1B68C1
:102AF400DB6A9A4201D2012038BD002038BD002093
:102B0400704700BF3408022040080220CC0802208D
:102B1400002834D038B50446826C013A8264C06A15
:102B2400616C88422DD00AB1002038BD251D28468D
:102B3400FEF7FEFD68B9E36A03EB83018A001249DC
:102B44008A5832B901229A4010490B6823EA0203D9
:102B54000B60636CE362C3F10602A261012404FA10
:102B640003F20A49086802430A6003EB83039A00EC
:102B7400294605481044FEF7B5FD204638BD00201F
:102B84007047002038BD00BF40080220CC08022056
:102B9400002843D038B50446426C8A4200D20A4623
:102BA400E16A8A4202D0A06C012800D038BDE262FA
:102BB400A069002802DBC2F10602A261636901EB8D
:102BC40081018800164A0244934225D00022002A3B
:102BD400ECD0251D2846FEF7ABFD68B9E36A03EB8C
:102BE40083018A000E498A5832B901229A400D495C
:102BF4000B6823EA02030B60E36A01229A40094945
:102C0400086802430A6003EB83039A0029460448D8
:102C14001044FEF767FDC9E70122D8E7704700BFFB
:102C240040080220CC080220054B1B6823B1044B4A
:102C34001A68936C01339364014B1868704700BFA2
:102C44003408022038B505460C46FEF7C7FD194B7B
:102C54001B68DB6C2BB9174B1B68012283F85020CF
:102C6400ACB9FEF7C5FDFEF7B9FD124B1B68DC6C71
:102C740024B1D5B90F4B1B68621EDA640D4B1B6877
:102C8400002283F85020FEF7B3FD204638BD1146DC
:102C94002046FFF729FB4FF08052074B5A6040BF94
:102CA400BFF34F8FBFF36F8FDBE7024B1B6800222C
:102CB400DA64E3E73408022000ED00E0F8B50446E6
:102CC4000F4615461E46FEF789FD0EB1E36C3360D0
:102CD40094F85030DBB2022284F850206A1E032A92
:102CE4001AD8DFE802F0020C1114E26C1743E7640F
:102CF4000125012B14D0FEF77BFD2846F8BDE26CBC
:102D04000132E2640125F4E7E7640125F1E7022BCF
:102D140004D0E7640125ECE70125EAE70025E8E7AC
:102D2400261D3046FEF704FDE36A01229A400F494E
:102D3400086802430A6003EB83039A0031460C4897
:102D44001044FEF7CFFCFFF7B3F9E26A094B1B68A6
:102D5400DB6A9A42CFD94FF08052074B5A6040BF8A
:102D6400BFF34F8FBFF36F8FC5E700BFCC080220BE
:102D7400400802203408022000ED00E0F8B5EFF32B
:102D84001185402383F3118890F85030DBB202227E
:102D940080F85020C26C0132C264012B02D085F34A
:102DA4001188F8BD0E460446144B1B68E3B9071D91
:102DB4003846FEF7BDFCE36A01229A4010490868D0
:102DC40002430A6003EB83039A0039460D4810441A
:102DD400FEF788FCE26A0C4B1B68DB6A9A42DED978
:102DE40046B101233360DAE700F118010748FEF722
:102DF40079FCEFE70122064B1A60D0E7C4080220F1
:102E0400CC080220400802203408022004090220D1
:102E140048090220064B1A681368B3FA83F35B0966
:102E2400036013B9D368186870470020704700BF67
:102E34004C09022008B54160006191420CD8D21AB5
:102E440083699A4201D3012008BD011D094B18680A
:102E5400FEF754FC002008BD9A4201D2994206D2E2
:102E6400011D054B1868FEF749FC002008BD012030
:102E740008BD00BF500902204C09022038B5FEF7F6
:102E8400ADFC0F4B1B6813B1FEF7B2FC38BD0D4D02
:102E94002846FEF719FC0C4C2046FEF715FC0B4B9C
:102EA4001D600B4B1C60002210212020FEF75DFEEC
:102EB400034B18600028E7D00649FFF777F8E3E7EB
:102EC4008009022054090220680902204C090220CA
:102ED4005009022020E405002DE9F041079C7CB153
:102EE4001D4616460F468046FFF7C8FFC4F800800B
:102EF400A761E6612562069B6362201DFEF7EFFB76
:102F0400BDE8F08100B583B0FFF7B8FF094B1B683B
:102F14006BB1094B01930523009300234FF4807296
:102F240006490748FFF72CFA03B05DF804FB0020BC
:102F3400FAE700BF800902208409022028E4050082
:102F4400F13100002DE9F04182B005460E461746E6
:102F540098462C20FEF72CFB044640B10190089BB8
:102F6400009343463A4631462846FFF7B5FF2046CC
:102F740002B0BDE8F081000030B585B0134C25687F
:102F84000DB31C46009101920290052913DCFFF752
:102F94004FFD022807D000231A4669460B480068F3
:102FA400FEF7FEFD0DE00023089A69460748006815
:102FB400FEF7F6FD05E00023224669462846FEF7A3
:102FC40094FE05B030BD0020FBE700BF800902205D
:102FD40070B582B0154B1B681A6802B3DB681E68B3
:102FE400DC68251D2846FEF7A3FB636A2046984744
:102FF400E369012BEED1A36933449E4207D2636097
:1030040024612946094B1868FEF778FBE2E70021A2
:1030140000910B4632462046FFF7AEFFDAE7044A3A
:10302400106802490860136002B070BD4C090220A8
:103034005009022038B50546FFF70EFA0446074B3F
:103044001B68984205D300232B60044B1C60204668
:1030540038BDFFF7BDFF01232B60F6E77C09022092
:1030640070B582B005460E460F4B1B68DB68DC6802
:10307400201DFEF75DFBE369012B04D0636A204643
:10308400984702B070BDA1692B46324629442046B8
:10309400FFF7D0FE0028F1D0002100910B462A460C
:1030A4002046FFF769FFE9E74C09022070B582B0BA
:1030B40006460C46FFF7C8F901A8FFF7BBFF019BC2
:1030C4002BBB05460CB9B0421AD22CB1114B1B686C
:1030D4001C68B4FA84F464092246711B0E4B186808
:1030E400FEF796FFFFF744FA40B94FF080520B4BBE
:1030F4005A6040BFBFF34F8FBFF36F8F02B070BDF4
:10310400FFF736FA29463046FFF7AAFFF6E7FFF73E
:103114002FFAF3E7500902208009022000ED00E0B5
:1031240030B589B002E0049B002B0FDA002204A919
:103134002D4B1868FEF70CFE002852D0049B002B80
:10314400F1DA07990698059B9847ECE7069C6369B2
:1031540013B1201DFEF7ECFA03A8FFF76BFF049BE5
:10316400092BE3D801A252F823F000BF99310000E3
:10317400993100009931000031310000CD31000057
:10318400DF31000099310000993100003131000035
:10319400CD3100000599A5690B4602462944204615
:1031A400FFF748FE0028C1D0636A20469847E369C8
:1031B400012BBBD1A269002100910B460598024462
:1031C4002046FFF7D9FEB1E70599A16103460246FF
:1031D40001442046FFF72EFEA8E72046FEF748FAF2
:1031E400A4E709B030BD00BF8009022000B583B058
:1031F40001A8FFF70FFE0199FFF758FFFFF790FFB3
:10320400F6E710B50446FEF7E9FA6469003418BF1E
:103214000124FEF7EDFA204610BD10B50446FEF772
:10322400DDFA246AFEF7E4FA204610BD054800687A
:1032340080F3088862B661B6BFF34F8FBFF36F8F18
:1032440000DF00BF00000000064B19680868B0E802
:10325400F04F80F30988BFF36F8F4FF0000080F3C5
:103264001188704734080220EFF30980BFF36F8F91
:10327400144B1A681EF0100F08BF20ED108A20E9C5
:10328400F04F10604DF8043D4FF0400080F311887A
:10329400BFF34F8FBFF36F8FFFF752FA4FF0000069
:1032A40080F3118808BC19680868B0E8F04F1EF074
:1032B400100F08BFB0EC108A80F30988BFF36F8F3A
:1032C400704700BF340802204308054AD35C10F05D
:1032D400010F02D103F00F0070471809704700BFB7
:1032E400B809022010B410F001020CD00F230AB167
:1032F4000901C9B24008054A145C2340194311541A
:103304005DF8044B7047F023F1E700BFB8090220D1
:103314000023084A1278934209DA074A126802EB3A
:10332400C30112F83320824202D00133F1E70021B5
:103334000846704788090220D809022038B5044697
:103344000D46FFF7E5FF20B1436813B12946204637
:10335400984738BD08B5044B19680022490803484A
:1033640000F018FA08BD00BF8C0902209009022061
:1033740010B5C0B2FFF7CCFF0446007801F086FD1B
:103384006378012B14BF00230123984200D010BDA1
:10339400034BD3E900231343F9D1FFF7DBFFF6E72F
:1033A400B009022070B504460D46FFF78DFF0428CE
:1033B40005D8DFE800F003232B3A410005B970BDBE
:1033C40001212046FFF78EFF002000F087FA01213B
:1033D4000020A4F12006C4F1200501FA06F321FA25
:1033E40005F52B4301FA04F22849D1E900452243AB
:1033F4002B43C1E9002300F075FA70BD25B9002103
:103404002046FFF76FFF70BD0221F9E745B10321A4
:103414002046FFF767FF01212046FFF78FFF70BDAD
:1034240001212046FFF75EFF70BD002DC7D10421A6
:103434002046FFF757FF70BD1DBB00212046FFF754
:1034440051FF00212046FFF779FF002000F046FAE3
:1034540001210020A4F12006C4F1200501FA06F39D
:1034640021FA05F52B4301FA04F20849D1E9004594
:1034740024EA020225EA0303C1E9002300F032FA38
:103484009DE703212046FFF72DFF70BDB009022000
:1034940070B5002415E0114B1D6805EBC40615F842
:1034A400340001F0F3FC7178012914BF00210121DB
:1034B400884214BF0021012115F83400FFF772FF80
:1034C4000134074B1B789C42E5DB064BD3E9002310
:1034D400134300D170BDFFF73DFFFBE7D80902207D
:1034E40088090220B0090220092A02D807231846B5
:1034F400704770B582B006460D46144601F0AEFB27
:1035040020B901F06BFB0346002832D11A4B1E6030
:103514001A4B1D701A4B1C602022002119484FF0D1
:10352400B7FB00200021184BC3E900016C1EE4B274
:10353400CDB106EBC40203238DF804309DF80630A8
:1035440003F0FC036FF382038DF8063093788DF853
:1035540005300E4A01A916F8340001F0A9FB034610
:1035640038B92546E2E70A4A00210A4800F0DEF8A5
:103574000346184602B070BDD8090220880902200B
:103584008C090220B8090220B0090220753300001A
:103594009534000030E4050010B5002407E0074B23
:1035A4001B68012113F8340001F0FEFB0134044BC5
:1035B4001B789C42F3D3002010BD00BFD809022021
:1035C4008809022082B001238DF807309DF8073066
:1035D400134B186059609A6044F20103984213D067
:1035E40044F20203984207D10D4BDA60DA6812887C
:1035F4009A61DA685268DA6172B69DF80730002B76
:10360400FBD162B602B07047054B1A611A69926821
:103614005A611A6912689A611A695268DA61EBE7A9
:10362400DC09022000B583B002900091019244F2BB
:10363400010071466A4600F003F803B000BD0000C3
:103644002DE9F04184B004460F46154672B6FDF7E5
:103654005BFDFDF7BFF80028FBD144F201039C4257
:103664001DD044F202039C4235D1214B2148C01A9B
:10367400C00800042B886A681F4940F00100FDF768
:10368400E3FA1E4B1B6813F0010F00D000BE2A465C
:1036940039462046FFF796FF04B0BDE8F081144B8D
:1036A400144EF61AF608360446F00106D5F80880DA
:1036B400404600F05DFD6B682A6802970192009312
:1036C400034642460E493046FDF7D8FB0D493046C5
:1036D400FDF7BAF9D5E7064B0648C01AC00800043E
:1036E4003A46094940F00100FDF724FAC9E700BF52
:1036F40058E2050098E2050040E40500F0ED00E022
:103704005CE4050084E4050098E4050008B5FFF7CF
:1037140084FD037B03B908BD437B83F0010303737A
:10372400836800689847F6E70020704770B582B058
:1037340004682AB3154628B3237B13B1082002B0CA
:1037440070BD63680BB10820F9E70E461022002112
:1037540020464FF09DFA002E0CBF01230023637313
:10376400A5600A4B0093234614BF012200224FF4A4
:103774007A710748FFF7E6FB606028B10020DEE7B6
:103784000720DCE70720DAE70E20D8E7113700002E
:10379400A0E3050070B584B04568002D51D0037BCB
:1037A400002B50D10E4604460260EFF3058343B369
:1037B400002204AB43F8042D00920A46092128464E
:1037C400FFF7DAFB012801D004203DE0FEF74AFEB2
:1037D4000023009303AB024606212846FFF7CCFBE7
:1037E4000128F1D1039B43B14FF08052174B5A602B
:1037F40040BFBFF34F8FBFF36F8F012323730020AC
:1038040022E02846FFF7FDFC08B100201CE002235B
:1038140000930023324604212846FFF7ADFB01281C
:1038240001D0042010E0FEF717FE022300930023CA
:10383400024601212846FFF79FFB0128DDD0042022
:1038440002E0082000E0002004B070BD00ED00E0BC
:1038540030B585B044685CB30546EFF30583DBB14E
:10386400002204AB43F8042D009208212046FFF700
:1038740083FB012802D0042005B030BD039B43B173
:103884004FF080520B4B5A6040BFBFF34F8FBFF3D2
:103894006F8F00202873EFE70223009300231A465A
:1038A40003212046FFF768FB0128F2D00420E3E758
:1038B4000820E1E700ED00E072B6024A1368013324
:1038C40013607047FC090220034A1368013B13602C
:1038D40003B962B6704700BFFC09022008B5FFF7C0
:1038E400EBFF08BD08B5FFF7EFFF08BD08B590B2C0
:1038F40000F001F808BD00B583B0ADF800000191F7
:103904006A46002144F20200FFF79AFE03B05DF814
:1039140004FB00B550E8002F0B4640E8003E9EF043
:10392400000FF7D110465DF804FB00B550E8002FF6
:1039340042EA010340E8003E9EF0000FF6D1104633
:103944005DF804FB00B550E8003F43EA010240E89B
:10395400002E9EF0000FF6D110465DF804FB00B572
:1039640050E8002F02EA010340E8003E9EF0000FF9
:10397400F6D110465DF804FB00B550E8003F03EAB9
:10398400010240E8002E9EF0000FF6D110465DF8CB
:1039940004FB00B550E8003F03EB010240E8002EB1
:1039A4009EF0000FF6D110465DF804FB00B550E818
:1039B400003FA3EB010240E8002E9EF0000FF6D179
:1039C40010465DF804FB08B50121FFF7AEFF08BD02
:1039D40008B50121FFF7B6FF08BD08B50021FFF7C0
:1039E400BEFF08BD08B50021FFF7C6FF08BDC368C8
:1039F400008A00FB01307047C368C91A008AB1FB12
:103A0400F0F0C0B27047C0B110B404468268436895
:103A1400D21AD2B201680B6005E021680A68501C12
:103A2400086013701A46531EDBB2002AF5D12368CE
:103A3400002018715DF8044B70470E20704738B5AC
:103A440004460020FFF74AFF2268136861688B422E
:103A540015D9591E116013F8011C2046FFF7C7FF42
:103A64000546A368226811685B1ADBB211798B42A0
:103A740000D913710020FFF735FF284638BD002513
:103A8400F8E770B505460E460020FFF727FF2B68C0
:103A94001C68621C1A6031462846FFF7ADFF20708F
:103AA4000020FFF71FFF70BD826802B9704710B590
:103AB400044643690168006998470023A36010BD68
:103AC4000EB400B582B0039929B102AA04AB42F83E
:103AD400043D00F016F902B05DF804EB03B0704742
:103AE40038B504460D460A2909D02268A368591C32
:103AF400A160D554A26863689A4204D238BD0D21EE
:103B0400FFF7EEFFF1E72046FFF7CEFFF6E70000F0
:103B14002DE9F84F82460F4616461D46DDF82890DB
:103B24000B9A0B464FF0010803E0B3FBF6F308F1E0
:103B34000108B342F9D2A84500D2A84612F0010BFD
:103B440017D1B9F1000F14D012F0020F02D01DB139
:103B5400202409E0202407E0302405E009F1FF399E
:103B640021465046FFF7BCFFB9F1000F01D0C14513
:103B7400F4D8012405E0B7FBF4F39E4205D806FB14
:103B840004F4012DF7D9013DF9E7B7FBF4F304FB85
:103B940013770F4AD15C5046FFF7A2FFB4FBF6F44B
:103BA400002CF2D1BBF1000F10D0B9F1000F0BD0F3
:103BB400B9F1000F0AD0C14508D909F1FF39202114
:103BC4005046FFF78DFFF3E7BDE8F88FBDE8F88FA7
:103BD400B0E405002DE9F04782B0804689461546D9
:103BE4009A460A9E0B9F81EAE173A3EBE1730124D9
:103BF40002E093FBF5F30134AB42FADA544500D208
:103C0400544636B1B9F1000F02DB17F0040F00D0AF
:103C1400013E17F0020F02D0BAF1000F03D017F0E3
:103C2400010F00D1A6B9B9F1000F1BDB17F0040F87
:103C34001FD107F00303022B20D0019700965346AF
:103C44002A4649464046FFF763FF02B0BDE8F087C5
:103C5400002EE8D0A642E6D9013E20214046FFF7D7
:103C64003FFFF5E7C9F100092D214046FFF738FF72
:103C7400DFE72B214046FFF733FFDAE7BAF1000F05
:103C8400DBD12EB9D9E7013E30214046FFF728FFAA
:103C9400002ED2D0A642F6D8CFE7F8B506460D4698
:103CA400144613F001070ED1F1B108464FF06EF837
:103CB400074619E0013501373046FFF711FF29782F
:103CC4000029F7D106E00027F9E7013C202130461E
:103CD400FFF706FFBC4213D9002CF6D1F8BD013C16
:103CE40020213046FFF7FCFEBC4206D9002CF6D159
:103CF40003E001353046FFF7F3FE29780029F8D1B7
:103D0400F8BDF0B583B0064615460C46002940F0D0
:103D14008580D5E00027012303E047F00107013443
:103D240083B121782D29F8D0302903D02B2905D04F
:103D34000023F5E747F002070134F1E747F00407F1
:103D44000134EDE7002211E02B68191D29601B687E
:103D54001A44013423782E2B11D0002321781FE03C
:103D6400013402EB820250000A18303A2A29EBD0BF
:103D74002178A1F13000C0B20928F1D9EAE7013471
:103D840000232178A1F13000C0B20928E6D801341B
:103D940003EB830043000B44303BF2E714F8011FAC
:103DA4006C29FBD06829F9D02539532932D8DFE8AA
:103DB40001F0803131313131313131313131313111
:103DC40031313131313131313131313131313131DF
:103DD40031313131313131313131313131313131CF
:103DE400313131313156313131313131313131319A
:103DF4002A4031313131403131313131316A31315F
:103E040061314B3131562B681A1D2A6019783046BE
:103E1400FFF766FE01342378002B4FD014F8011B02
:103E240000294BD025293FF475AF3046FFF758FEE3
:103E3400F1E72968081D28600968019700920A22A1
:103E44003046FFF7C7FEE5E72968081D28600968C2
:103E5400019700920A223046FFF75AFEDAE72968F2
:103E6400081D286009680197009210223046FFF768
:103E74004FFECFE729680B1D2B603B46096830468F
:103E8400FFF70BFFC6E72B681A1D2A601F68302155
:103E94003046FFF725FE78213046FFF721FE002348
:103EA400019308230093102239463046FFF730FE71
:103EB400B0E725213046FFF713FEABE7337B0BB9A0
:103EC40003B0F0BD3046FFF7EFFDF9E72DE9F84FF9
:103ED4008A469DF828B0C58890F805E00EFB05FEDB
:103EE400AEF1040EA946191DB1FBF5F705FB171138
:103EF40016689C19A64501D2AEEB0306166004466B
:103F040001E02468013F002FFBD16D1AB54228BFA0
:103F14003546B8460BE02A4619464EF08FFE246813
:103F2400761BA8444D46B14528BF3546394666B18F
:103F34000AEB08032144081DBBF1000FEBD02A460D
:103F4400014618464EF07AFEE9E7BDE8F88F08B559
:103F5400FFF759FD08BDF8B54679711E02460023E6
:103F640001E0126801338B42FBD317680146002439
:103F740005E00D683846FFF784FD01342946B44254
:103F8400F7D3F8BD2DE9F0410646078A043F3944CA
:103F94000331B1FBF7F8FFF752FD10B305460024D7
:103FA400047101234371C7805FFA88F808F1FF3870
:103FB40006600746444511D23046FFF740FD38B14C
:103FC4006A7901326A713860066001340746F1E7A4
:103FD4002846FFF7C0FF0020BDE8F0812846BDE871
:103FE400F0810020BDE8F08108B501210430FFF71D
:103FF400D0FC08BD10B5044601210430FFF7D6FCFF
:10400400C0B200B110BD2046FFF7A5FFFAE710B516
:1040140084B004AC44F8042D002200922246FFF739
:1040240055FF04B010BD10B584B004AC44F8042DA1
:10403400012200922246FFF749FF04B010BD8268B6
:104044000023936082681361826853618268D3603D
:1040540082685360826813607047F8B504460E4660
:1040640015461F46FBB9A368D9681B69A1EB030E6B
:104074006268501C86451DD001EA020003EA02076B
:10408400B84221D3131A01332A68934228BF134636
:104094002B60236803443360A2682968D3680B4407
:1040A400D3600020F8BD8068FFF78DFC0028DAD0CB
:1040B4001120F8BD00232B600FB90020F8BDA068C3
:1040C400FFF790FC0020F8BD521A13440133DBE7DC
:1040D40038B5436884682269A568521B13440133C8
:1040E4008B4201D2042038BD0D44A56083689A68D0
:1040F400DA608068FFF771FC08B9082038BD002039
:1041040038BD10B58268936814691B1B8B4201D2B9
:10411400042010BD0C44146183681A695A618068D4
:104124000430FFF75FFC002010BD00000F4A02F5C9
:104134008C718A4218D210B48B1ADB1003EBD37340
:104144005B1002EBC30452F83330834206D9214694
:104154008A42F1D300205DF8044B704702D204F187
:104164000802F5E76068F6E700207047E0E4050020
:1041740008B5FFF7DBFF034608B1184608BD014B3D
:10418400FBE700BFCCE40500410900F01F00012358
:1041940003FA00F0034A52F82130034342F8213075
:1041A400704700BF000A02204209054B53F8223031
:1041B40000F01F0023FA00F000F00100704700BF78
:1041C400000A0220410900F01F00012303FA00F055
:1041D400034A52F8213023EA000342F821307047A1
:1041E400000A022010B5002403E02046FFF7CCFFAC
:1041F4000134142CF9D90122014B1A70002010BD8E
:1042040004510220314B1B7813B948F2081070474F
:10421400002854D0002955D00A68531EB3F5306FD6
:1042240002D348F2071070472DE9F041002305E05E
:10423400274C54F82340152C13D80133062B0FD8E0
:10424400002AF5D0234C54F82340A242F0D8204C45
:1042540054F82350204C54F82340A542E8D000E001
:104264000023884606461C4A52F823401B4A52F84B
:10427400237009E00023174A52F823502046FFF721
:1042840093FF68B92F440134142C14D80023062B4F
:10429400F0D80F4A52F823209442ECD30133F6E7C6
:1042A4002046FFF78FFF0E4B1F443760C8F80050BD
:1042B4000020BDE8F08148F20410BDE8F08148F226
:1042C4000E10704748F20E10704700BF04510220D0
:1042D400B8E90500F0E905000CEA0500D4E9050099
:1042E400040A022000B583B00023019302A941F817
:1042F400080D01A8FFF786FF08B100230193019878
:1043040003B05DF804FB0000114B1B78FBB1F0B166
:1043140010B50024214609E00846FFF735FF10BD1B
:1043240000230C4A52F823301C44013114290DD8BF
:10433400094B23449842EFD00023062BF0D8074AB8
:1043440052F823209142ECD30133F6E710BD7047B5
:1043540004510220F0E90500040A0220B8E905002E
:1043640012F0030F01D00720704710B44B1CDB0080
:104374009BB2094C22601344084A13600023084A84
:104384001370084A1370084A1080084A11801846AE
:104394005DF8044B704700BF0C5102200851022005
:1043A4000551022014510220105102201251022002
:1043B40038B502E00023134A1370124B1A78D2B2B4
:1043C400114B1B78DBB29A421AD00E4C2378DBB225
:1043D4000E4A10680E4A15880E4A126802EBC30191
:1043E40052F83320898803FB050090472378DBB219
:1043F40099B2094A12889142DCD20133DBB2DAE77E
:1044040038BD00BF1451022005510220085102207A
:10441400105102200C5102201251022008B50368E9
:104424001A6812682AB108461A681B681B68516822
:10443400984708BDC0B2487000230B70704770B530
:1044440088B005682A7ED2B22B689C6804EBC2034C
:10445400597949088DF8151054F8321006911979D4
:104464008DF81610997911F0010F12D0597911F0C5
:10447400010F0ED1541C2E68367BB44209DA2C6825
:10448400A4680132D600344464796408B4EB510F53
:1044940025D05A7902F001028DF8142000220792E7
:1044A4008DF817209B7913F0010F36D100229DF867
:1044B40014308DF800309DF815308DF801309DF8DA
:1044C400163001939DF817300293069B0393079BC4
:1044D400049369460C3001F0F5FD08B070BD2B68FB
:1044E4009B681E4453F83230079333798DF81730A4
:1044F400737913F0010F0CD002238DF81430B379C3
:1045040013F0010F07D100222B7E0133DBB22B768F
:10451400CDE70323F1E72022F6E72022C7E70000D6
:104524002DE9F84305460E46046816E000222146AC
:10453400686800F034F910B10026266016E0012600
:1045440014E0271D1CE0002323762846FFF777FF9D
:10455400014670B32846FFF761FF0020FFF7BEF95C
:10456400002EE3D12B681B68002BDFD00020FFF75F
:10457400B9F9F6B123681B69002BE2D023681F69DF
:104584001022394660694EF0C5F90028DBD005F1E8
:10459400080805F10C09484601F044FD2B46064A7B
:1045A4003946404601F0BCFE484601F00FFD676104
:1045B400C9E7BDE8F88300BFC145000010B50C464B
:1045C4000378C3B90A68137E0133DBB21168097B2F
:1045D4008B4208D300212046FFF720FF012120460B
:1045E400FFF79EFF10BD13762046FFF728FF014614
:1045F4000028F0D110BD0321EDE70000F8B5044612
:104604000F4603460C4A083001F08AFE054608B1FD
:104614002846F8BD04F10C0001F0D8FC23680025FD
:104624001D602668043697E80F0086E80F002368AB
:104634001A1D5A61ECE700BFC145000030B583B0D4
:10464400044602AB43F8041D1946406800F03EF8E6
:10465400054610B1284603B030BD00212046FFF7BF
:104664005FFFF7E730B587B00A9C0025ADF814501A
:1046740001258DF814500D4D009505AD019502925C
:104684008DF80C3004916946FFF7D8FF30B99DF8D6
:1046940014302BB1002CFAD0A047F8E7034602E00F
:1046A4009DF81530DBB2184607B030BD3944000020
:1046B40003681A685B6881688B4205D2581C824281
:1046C40014BF0020012070470020F8E770B50446AD
:1046D4000D460020FFF702F92046FFF7E9FF0146E7
:1046E40018B1237C0BB104242BE022685068536872
:1046F400A668B34213D20133536031B12268136800
:10470400A1688B420DD201331360E668731E072B38
:104714002ED8DFE803F0081B2D202D2D2D25002396
:10472400EAE70023F0E763682A781A5422681168DC
:104734005368994224D85B1A9168994225D29360B0
:1047440000240020FFF7CEF8204670BD63682A8855
:1047540023F81020EAE763682A6843F82020E5E795
:10476400636803EBC000D5E90023C0E90023DDE75B
:1047740063683246294606FB00304EF05FFAD5E7FF
:10478400A0680130411A0B44D6E70024D9E7036836
:1047940018685B68984214BF00200120704770B508
:1047A40004460D4616460020FFF798F82046FFF70A
:1047B400EEFF28B105240020FFF794F8204670BDD1
:1047C400236819682EB91A68A06882420BD2013294
:1047D4001A60E068431E072B21D8DFE803F0060BBC
:1047E4002011202020170022F2E763685B5C2B7005
:1047F4000024E0E7636833F811302B800024DAE703
:10480400636853F821302B600024D4E7636803EB1A
:10481400C101D1E90023C5E900230024CBE7636883
:10482400024600FB013128464EF008FA0024C2E794
:10483400026813461BB18B4203D01B68FAE70A6077
:104844000160704703680BB11A680260184670472C
:1048540008B500F021F90022014B9A7008BD00BF91
:104864001851022008B500F025F908BD08B500F07C
:1048740033F90022014B5A7008BD00BF18510220C1
:1048840010B5044610B1012C0CD010BD01220B4B05
:104894005A700B48FFF7D6FF0028F4D04368002075
:1048A4009847F6E70122054B9A700648FFF7CAFFBE
:1048B4000028EAD0436801209847F6E718510220FF
:1048C400205102202851022038B50A4B1B7813B11D
:1048D4008524204638BD074DAB606B602B61EB60CF
:1048E400054800F0A3F8044600F0AEF801232B704D
:1048F400EFE700BF185102208548000010B50446B8
:10490400134B9B7873B110B1436801209847002082
:10491400FEF7E4FF0E4AD3680133D3600020FEF7AC
:10492400E1FF10BD0020FEF7D9FF1CB12146094864
:10493400FFF77EFF064BDB683BB1054AD3680133C2
:10494400D3600020FEF7CEFF10BD00F091F8F4E72D
:10495400185102202851022008B50020FEF7BEFF9E
:10496400064BDA68013ADA60DB681BB10020FEF717
:10497400B9FF08BDFFF76CFFF8E700BF185102202C
:104984004FF08043D3F81804C0F300407047000090
:1049940010B50446134B5B7873B110B14368002023
:1049A40098470020FEF79AFF0E4A5368013353607C
:1049B4000020FEF797FF10BD0020FEF78FFF1CB10B
:1049C40021460948FFF734FF064B5B683BB1054AB3
:1049D4005368013353600020FEF784FF10BDFFF7D6
:1049E40041FFF4E7185102202051022008B50020AD
:1049F400FEF774FF064B5A68013A5A605B681BB1B4
:104A04000020FEF76FFF08BDFFF730FFF8E700BF97
:104A1400185102204FF08043D3F80C0400F0011029
:104A2400B0F1011F14BF002001207047054B1B7912
:104A34000BB185207047034B186001221A710020C6
:104A4400587170472C510220084B1B6813F0010F5A
:104A540005D1064BC02283F8002301221A600122EB
:104A64004FF08043C3F81825704700BF00E100E011
:104A740082B0084B00221A601B680193019B02223A
:104A84004FF08043C3F80423012208331A6002B0B4
:104A9400704700BF040100400122054B1A604FF02B
:104AA4008043D3F8183413F4803FF8D1704700BF23
:104AB4000C00004082B0074B00221A601B6801936F
:104AC400019B4FF080430122C3F804231A6002B013
:104AD400704700BF000100400122074B1A604FF0ED
:104AE4008043D3F80C3403F00113B3F1011FF6D063
:104AF4000022024B5A717047040000402C510220DE
:104B040000B583B0164B1B686BB1154B00221A60BD
:104B14001B680093009B01224FF08043C3F80823D5
:104B2400104B5B792BB1104B1B6843B903B05DF894
:104B340004FB0C4B5A711B6800209847F3E70A4B9F
:104B440000221A601B680193019B02224FF08043EC
:104B5400C3F80823034B1B6801209847E6E700BF0E
:104B6400000100402C5102200401004070B415469D
:104B740062B1002365B10824A34218D20E4A52F848
:104B84002320B2F1FF3F05D00133F5E70823F1E715
:104B94000E24F1E75AB2084C261886F8382044F857
:104BA400231035B9083B234483F8680001E04FF033
:104BB400FF32104670BC7047345102204FF0FF3270
:104BC400054B43F82020072804D908381844FF234C
:104BD40080F86830704700BF345102201B4B93F8B3
:104BE40074300BB10820704710B582B006E0174A44
:104BF4001A44FF2182F838100133DBB22F2BF6D987
:104C0400002404E02046FFF7D9FF0134E4B20D2C60
:104C1400F8D90E4C0622002104F16E004EF038F84B
:104C24000B4BC02283F8062340221A60094B002054
:104C340018601B680193019B4FF00042064BC3F8B8
:104C44000423012384F8743002B010BD34510220CF
:104C540000E100E07C61004000600040034B93F8F9
:104C64007400003018BF0120704700BF3451022087
:104C74001F2808D900F01F00044A012303FA00F09A
:104C8400C2F8080570474FF0A042F6E70003005051
:104C94001F2808D900F01F00044A012303FA00F07A
:104CA400C2F80C0570474FF0A042F6E7000300502D
:104CB400394B034493F93830002B01DB082070474B
:104CC40070B513460D4604468A78C2F3400219466D
:104CD400FFF74CFFB0F1FF3F5BD0AB7813F0040F4C
:104CE4001DD113F0010F2AD01F2C03D904F01F0388
:104CF4002A4902E023464FF0A04103F5E07351F83E
:104D0400232022F0020241F82320E30804F00701E3
:104D1400234E012202FA01F1F25C0A43F254AB7809
:104D240013F0020F1BD108382A781B4B184490F853
:104D3400683043EA821380F86830002070BD6B78D5
:104D44001F2C03D904F01F02144902E022464FF03D
:104D5400A0419B0002F5E07241F82230D5E72A78A1
:104D6400104900F5A27051F8203023F44F3323F496
:104D7400407341F8203051F82050230203F47C534F
:104D8400120402F4403213432B4341F82030002034
:104D940070BD042070BD00BF3451022000030050D8
:104DA400A25102200060004070B483B0344B03442D
:104DB40093F93830072B39DDA3F10802304B134443
:104DC40093F868309B09032B18D0012B27D00324B8
:104DD4001F2828D900F01F002A4B00F5E07053F873
:104DE400201021F4403143F8201053F8202042EAE7
:104DF400044243F8202003B070BC70471F280AD92E
:104E040000F01F021F4BD3F81035D34013F0010FED
:104E140007D00324DCE702464FF0A043F3E7022463
:104E2400D6E70224D4E74FF0A043D6E7DAB2072A44
:104E3400E1D803F1400292B2920092B2124D03F50E
:104E4400A27655F8264044F0010445F8264002F1C4
:104E5400804202F5C0420024146012680192019A53
:104E64000029C8D0064A104490F9381052F821207D
:104E7400002AC0D0012202FA03F3C5F80433BAE7CA
:104E84003451022000030050006000401F2809D95B
:104E940000F01F00054BD3F8103523FA00F000F0A2
:104EA400010070474FF0A043F5E700BF0003005036
:104EB400094B184490F93830DAB2072A09D803F1BB
:104EC400400080B2800080B200F1804000F5C04014
:104ED40070474FF4BE70F7E7345102202DE9F041DA
:104EE4008CB000250A950B9501204FF48073294658
:104EF40003E0400004339BB20131072912D803F1C7
:104F0400804202F5C0421468012CF2D1834CD4F8DB
:104F140004432042EDD00024146012680092009AE9
:104F24000543E6E77E4B1B68012B07D015F0FF0F06
:104F340038D1002D39DB0CB0BDE8F081784A00236C
:104F4400136012680192019A45F00045754908AA58
:104F540003C982E803000AAA09E00CA901EB830152
:104F640051F8101CD1F8101542F8041B0133012B21
:104F7400F3D9DBE776000134072CDAD83542F9D0CF
:104F8400664B04F5A27253F82200C0F3052053F8CF
:104F94002210C1F30141644B53F82430002BE9D0B3
:104FA4009847E7E701260024E6E7002302930393EA
:104FB40007E00CAA02EB83024FF0FF3142F8201CF9
:104FC4000133012BF5D9A5E0032912D135E00DF108
:104FD400080E1EF806701F430EF806702FE00246F6
:104FE4004FF0A04E31E0032943D0B8F1000F00D0B8
:104FF400C0470134052C52D84B4B234493F96830F5
:10500400DAB222F0C000B3F1FF3FF2D0C60802F0DA
:105014000703012101FA03F30CA9314411F8201C00
:105024000B42E6D09109404F07EB000E9EF938E0A1
:1050340057F82E80B8F1000FC6D00329C7D01F2817
:10504400CDD902F01F02DFF8E4E002F5E0775EF864
:105054002770C7F301470DF1300C664416F8086C4D
:10506400334001D0022FBED0002BC2D1032FC0D1B8
:10507400B9E7022F11D0022702F5E0725EF8226030
:1050840026F440364EF822605EF8223043EA0743A5
:105094004EF822300135EDB2A7E70327ECE7B5B3AC
:1050A400204A08AB92E8030083E80300002306AA21
:1050B40009E00CA901EB830151F8101CD1F810157B
:1050C40042F8041B0133012BF3D90023012B0AD826
:1050D4000CAA02EB830252F8181C52F8082C9142D5
:1050E40005D10133F2E701237BB100250FE0002352
:1050F400FAE70CAA02EB830252F8181C42F8081CC7
:1051040052F8281C42F8201C0133012BF1D9002D40
:105114003FF411AF00252C466CE700BF006000404F
:105124007C61004044EA0500345102200003005031
:105134004FF080531869704710B50446FFF7F8FF25
:10514400B4FBF0F300FB1340B0FA80F0400910BD4B
:1051540030B482B000F003004FF0FF33019300231A
:1051640004E0CD5C01AC2554013001339342F8D303
:10517400019802B030BC70470022024BC3F80425EA
:10518400704700BF00E001400122024BC3F8042530
:10519400704700BF00E001400222024BC3F804251F
:1051A400704700BF00E00140044BD3F8003413F013
:1051B400010FF9D00160BFF35F8F704700E0014039
:1051C400F8B507460E461546002406E056F82410A6
:1051D40007EB8400FFF7E8FF0134AC42F6D3F8BDD7
:1051E40010B50446FFF7A8FF08B9102010BDFFF75B
:1051F400D3FF064BC3F80845044BD3F8003413F02F
:10520400010FF9D0FFF7B8FF002010BD00E0014006
:105214002DE9F04104460E461546FFF7B5FF14F09C
:10522400030012D0C0F10407BD4200D22F46A4EB04
:1052340000083A4631462046FFF78AFF01464046B9
:10524400FFF7B2FFED1B3C443E44AA08314620461A
:10525400FFF7B6FF25F003010C44314415F00302B7
:1052640003D1FFF789FFBDE8F0812046FFF770FF07
:1052740001462046FFF798FFF3E7000010B588B019
:10528400644B1B68002B2AD0624B00221A601B68F7
:105294000093009B604B93F82E2012B193F82F30AB
:1052A400EBB100238DF814305B4B596806911989D2
:1052B400ADF81C10D968002974D0574B188B58834B
:1052C400596018810021D96012B90122534B1A6028
:1052D400514C236805A89847002384F82F304E4B7F
:1052E40093F82E303BB34E4B1B6823B34C4B002238
:1052F4001A601B680193019B474A538B92F82D1047
:105304008AB2934251D99B1A9BB2434A5383506841
:10531400128992B2D31A00EB4303404AC2F82C36E6
:10532400C2F830163B4B00221A601B680293029BA2
:1053340001223C4B1A603C4B1B68002B50D13B4B69
:105344001B68002B5BD1344B5C69002C5FD0B4FA32
:1053540084F34FF00042DA4024EA020446339B000F
:105364009BB203F1804202F5E04211680029ECD0BF
:105374000021116012680492049A01228DF814200D
:10538400A3F58C73C3F3C7028DF8182013F0040F30
:105394000CBF01230B468DF819301F4B1B6805A861
:1053A4009847D2E700221A7492E7934208D09342B6
:1053B400B8D1194B012283F82F2000225A83B1E778
:1053C4001548C0680028F2D0134B012283F82F201F
:1053D40000225A83114BC3F82C06C3F83016A1E7F8
:1053E400114B00221A601B680393039B0A4B1A7427
:1053F40008A8022200F80C2D1B6898479FE70B4A67
:105404000023136012680592059A034A137408B0C6
:1054140010BD00BF04710040AC5102200070004078
:10542400007100400470004010710040147100408D
:10543400254B93F82C300BB10820704710B485B07D
:10544400214B196002782149C1F8F0254278C1F84E
:10545400F425C27883F82E20012283F82C20002220
:105464001A7483F82D205A6183F82F206FF00044BA
:10547400C1F80843164C226024680394039C154C1D
:10548400226024680294029C134C226022680192D8
:10549400019A82785201D2B2104880F80723802200
:1054A40002600222C1F8042393F82E3013B10122C2
:1054B400C1F804230122054BC3F80025002005B0E0
:1054C4005DF8044B704700BFAC51022000700040EF
:1054D40004710040007100401471004000E100E0DC
:1054E400254B1B7C0BB11120704710B400F10C0349
:1054F400214A02EB43031B7923B992F82D3001337F
:1055040082F82D30CA7900F10C041B4B03EB4403E1
:105514001A710A7A5A710B7803F003034A7812015C
:1055240002F0300213438A78120202F4E062134359
:10553400CA78120302F4805213430A79120402F463
:10554400E02213434A79120502F4801213438A7944
:10555400120602F080721343084A02EB0014C4F8E6
:105564001835CB790C7A5130000111184C60135066
:1055740000205DF8044B7047AC51022000700040DD
:10558400384B1B7C0BB11120704730B482B0354AC4
:1055940001241474344B0325C3F80853C3F82C16A0
:1055A400C3F8304692F82D30A3420CD9002208E00B
:1055B400D3B22D4951331B01CD1800246C60CC505B
:1055C4000132072AF4D900F10C02264B03EB420303
:1055D4001A795C79244B5130000119184C601A5027
:1055E40001221A6004331A6042F210731F4A1268CF
:1055F4000AB9013BFAD11E4B00221A601B680193C1
:10560400019B1A4B1A601B680093009B154B93F87F
:105614002D30012B12D900220EE002F10C01114BA6
:1056240003EB410318795D79D3B20F4951331B0160
:10563400CC186560C8500132072AEED9094B93F89B
:105644002E304BB10322084BC3F804230020054B32
:10565400187402B030BC70470222034BC3F8042311
:10566400F4E700BFAC510220007000400471004018
:10567400007100401222304BC3F808232F4B1B7CCF
:10568400DBB2022B23D082B02C4B1B7CDBB2012B70
:1056940022D00222284BC3F80423284B01221A7477
:1056A400586019810022DA6093F82E30002B37D12C
:1056B400214BC3F82C06C3F83016214A0020106091
:1056C40012680192019A01221A6002B070471A4BC3
:1056D400C3F8042311207047184BDB682BB1022256
:1056E400154BC3F804231120EFE7144BD86019833A
:1056F40093F82E3073B9124B1B68002BFBD0104B60
:1057040000221A601B680093009B0B4BC3F82C0605
:10571400C3F830160222084BC3F804230020D4E750
:10572400064B598393F82D20034BC3F82C06C3F87A
:1057340030260020C9E700BF00700040AC510220B1
:105744000071004070B485B0002325E01F2A08D9F9
:1057540002F01F022A4E012404FA02F2C6F80825B8
:1057640009E04FF0A046F6E74FF0A046012404FA02
:1057740002F2C6F80C2504AA02EB850555F8102C94
:105784001F2A1FD902F01F021D4C02F5E0720325E7
:1057940044F822500133DBB2032B1ED81D46CC5CE7
:1057A400FF2C12D024F0800204AE06EB830646F8E8
:1057B400102C14F0800FC9D11F2AD5D902F01F0272
:1057C4000F4ED3E74FF0A044DFE74FF0FF3404AAB5
:1057D40002EB830242F8104CDCE7006800230AE085
:1057E40004AA02EB830252F8101C03F5AC7240F8D1
:1057F40022100133DBB2032BF2D905B070BC704721
:105804000003005010B483B002240C714A7109687B
:1058140081B112F0040F20D1822112F0080F01D0BF
:1058240041F0200112F0100F01D021F08001046832
:10583400C4F8001301680024C1F80441D1F804112C
:105844000191019912F0800F09D102680121D15010
:10585400002003B05DF8044B70479221DDE7006837
:105864001844F6E730B585B004460D46D0F810313B
:1058740073B10023C0F81031D0F810310093009BAD
:105884004B7913F0040F03D00B680BB10120984738
:10589400D4F8143173B10023C4F81431D4F814319A
:1058A4000193019B6B7913F0080F03D02B680BB1A4
:1058B40002209847D4F81C3173B10023C4F81C317A
:1058C400D4F81C310293029B6B7913F0100F03D1AF
:1058D4002B680BB100209847D4F8043163B100233E
:1058E400C4F80431D4F804310393039B01232B71CE
:1058F4002B680BB10320984705B030BDF0B585B0D7
:105904000679394B03EBC6031B7913B1082005B0A4
:10591400F0BD0C460546344F47F83620FFF712FF1A
:105924002B680122C3F800252B686079A1792289AC
:10593400C3F80C05C3F80415C3F808252A68A37A2C
:10594400E17A43EA0123C2F810352A680023C2F839
:1059540000322A68C2F800332A68C2F81C31D2F82F
:105964001C210392039A2A68C2F81031D2F810213C
:105974000292029A2A68C2F81431D2F814210192D0
:10598400019A2A68C2F80431D2F804310093009BCA
:1059940057F83630CBB12968090B4AB22379002A6B
:1059A4001ADB5B01DBB202F1604202F5614282F86C
:1059B40000332B681B0B5AB2520903F01F03012159
:1059C40001FA03F3094941F82230074B03EBC606F9
:1059D4000123337100209AE701F00F015B01DBB270
:1059E400034A5354E5E700BFDC51022000E100E024
:1059F40014ED00E070B50C4605791D4901EBC501B5
:105A040005682668C5F82065A688C5F82465A668D3
:105A1400C5F82865E668C5F82C6505682668C5F8E4
:105A24004065A688C5F84465A668C5F84865E46875
:105A3400C5F84C4502F00105066805EB5202C6F8AC
:105A4400142513F0010F05D113F0020203D05DB148
:105A5400082200E010220468C4F80022DAB22DB94A
:105A64000823FFF7CFFE70BD0422F4E70C23F8E708
:105A7400DC51022008B502490248FFF7F3FE08BDD5
:105A8400DC51022000C0014008B502490248FFF77A
:105A9400E9FE08BDE451022000200240034610F054
:105AA400010F0BD1032013F0020F01D048F20120A3
:105AB40013F0040F01D048F2022070474FF4024063
:105AC400F1E710B404464B6B8A6A934209D391F808
:105AD4002C0088B90B6A13F0400F11D101206061CA
