:1000000000000420B5020000DD020000DF02000055
:10001000E1020000E3020000E50200000000000031
:10002000000000000000000000000000E7020000E7
:10003000E902000000000000EB020000ED020000F9
:1000400015310000F1BC03005D100200EF0200005A
:10005000EF020000EF02000019350000EF0200007F
:10006000EF020000EF020000EF020000EF020000CC
:10007000EF02000021BC0200EF020000EF020000CE
:10008000EF020000F91F0000EF020000EF02000085
:10009000EF020000EF020000EF020000EF0200009C
:1000A000EF020000EF020000EF020000EF0200008C
:1000B000EF020000EF02000000000000000000005E
:1000C000EF020000EF020000EF020000EF0200006C
:1000D00069AA0200EF020000EF020000EF02000038
:1000E000EF020000EF020000EF020000000000003D
:1000F00000000000EF02000000000000EF0200001E
:1001000000000000000000000000000000000000EF
:1001100000000000000000000000000000000000DF
:1001200000000000000000000000000000000000CF
:1001300000000000000000000000000000000000BF
:1001400000000000000000000000000000000000AF
:10015000000000000000000000000000000000009F
:10016000000000000000000000000000000000008F
:10017000000000000000000000000000000000007F
:10018000000000000000000000000000000000006F
:10019000000000000000000000000000000000005F
:1001A000000000000000000000000000000000004F
:1001B000000000000000000000000000000000003F
:1001C000000000000000000000000000000000002F
:1001D000000000000000000000000000000000001F
:1001E000000000000000000000000000000000000F
:1001F00000000000000000000000000000000000FF
:1002000010B5054C237833B9044B13B10448AFF350
:1002100000800123237010BD200300200000000097
:1002200080CF040008B5034B1BB103490348AFF36B
:10023000008008BD000000002403002080CF0400DF
:10024000154B002B08BF134B9D46A3F5803A0021A8
:100250008B460F461348144A121A42F018FA0F4BF5
:10026000002B00D098470E4B002B00D09847002061
:10027000002104000D000D48002802D00C48AFF307
:10028000008042F081F92000290000F085FA42F058
:1002900055F900BF00000800000004200000000025
:1002A000000000002003002050FD0020000000009E
:1002B000000000000649074A074B9B1A03DD043B78
:1002C000C858D050FBDC04F03DFFFFF7B9FF000039
:1002D000F8CF04000000002020030020FEE7FEE726
:1002E000FEE7FEE7FEE7FEE7FEE7FEE7FEE7FEE7E6
:1002F000074B1B5C1F2B8ABF064A4FF0A04203F03E
:100300001F03D2F80405D840C04300F00100704735
:100310001C41040000030050074B1B5C1F2B86BFD1
:1003200003F01F0305494FF0A041012202FA03F335
:10033000C1F80C35704700BF1C4104000003005099
:10034000074B1B5C1F2B86BF03F01F0305494FF0B3
:10035000A041012202FA03F3C1F80835704700BF3B
:100360001C410400000300504FF0A04310B44FF4B0
:1003700080404FF400544FF400414FF48032C3F8F2
:100380000845C3F80805C3F80815C3F808255DF843
:10039000044B70474FF0A04310B44FF480404FF42B
:1003A00000544FF400414FF48032C3F80C45C3F8B9
:1003B0000C05C3F80C15C3F80C255DF8044B704709
:1003C0000A4B195C1F298ABF09484FF0A04001F071
:1003D0001F01D0F8043501228A4022EA03011340AC
:1003E000C0F80815C0F80C35704700BF1C41040068
:1003F000000300500B2809D00C2809D0182809D078
:1004000019280CBF03204FF0FF30704700207047C1
:100410000120704702207047C20730B40ED4830712
:100420000AD54FF0A0430C22C3F82C27C3F830277D
:10043000C3F86027C3F8642730BC70474FF0A0436F
:100440000322C3F834274FF40055C3F838274FF47C
:100450008044C3F83C274FF40041C3F840274FF4D1
:100460008032C3F80855C3F80845C3F80815C3F827
:100470000825D4E770B50546084619F03FFD074C3E
:10048000074B0849E41AE408240403462A4644F0CA
:100490000300BDE8704000F09BBD00BF94CF040096
:1004A00084CF04008C4404002DE9F0410B780C4605
:1004B0000C2B1ED8DFE803F0325A1D07751D871D6F
:1004C000A1B0B41D1F005F4B5F486049604D614F94
:1004D000C01AC008000440F0030000F05DFBA668ED
:1004E000F36830687168B2680FC5338A2B8023794E
:1004F0003B70BDE8F081534B534D5749ED1AED0861
:100500002D0445F00305284600F046FB2846E38805
:1005100062795249BDE8F04100F05ABD494B4A4C5E
:100520004F49E41AE408240444F0030000F034FBCB
:100530004FF0A04300214B4A4FF48030C3F80C0524
:10054000C3F808154848156842F0A1FC294682B254
:10055000464B474805F02AF80028CAD002464549CC
:1005600044F00100BDE8F04100F0BABC354B36481C
:100570004149C01AC008000440F0030000F00CFB21
:100580004FF0A0434FF480310022C3F80815C3F8A0
:100590000C2506F015FE4FF47A71BDE8F0410FF01E
:1005A00009BA2948274B3549C01AC008000440F051
:1005B000030000F0F1FA06F003FE4FF47A71BDE893
:1005C000F0410FF0F7B91F4B1F4D2D49ED1AED0803
:1005D0002D0445F00305284600F0DEFA214B228B5E
:1005E00028499A80284600F07BFC06F0E9FD4FF48C
:1005F0007A71BDE8F0410FF0DDB9124B124D22497E
:10060000ED1AED082D0445F00305284600F0C4FA64
:10061000284622791D49E6E70B480A4B1C49C3E7E7
:10062000084B09481B49C01AC008000440F00300E9
:1006300000F0B2FA06F0C4FD6421BDE8F0410FF00D
:10064000B9B900BF84CF040094CF0400F84104007E
:10065000B8040020CA040020A4430400E4430400BA
:1006600030420400140000201C000020CC040020B4
:100670003C030020544204008C4204001843040050
:10068000B4420400E04204001C4404005844040046
:10069000544304008043040030B585B0044606F09E
:1006A0008FFD19F02BFC012805D9102C3AD0112C04
:1006B00003D00F2C27D005B030BD2A4D06F080FDA9
:1006C00064210FF077F92C78274B28489988284B1C
:1006D000009314F1FF3404AA18BF012402F8014D5D
:1006E00001232C7004F03CFF0028E4D0214B224A67
:1006F00022499B1ADB081B04024643F0010000F06C
:10070000EFFB05B030BD06F05BFD64210FF052F940
:100710000521164805F004F90028CCD0154B164ADF
:100720001749E6E706F04CFD64210FF043F90F4846
:1007300004F032FE03280CD0124A134B12781349EE
:100740000A4804F069FE0028B5D00A4B0A4A10494D
:10075000CFE7064804F0E4FE0028ACD0054B064A7B
:100760000C49C6E7CB040020140000203C03002005
:10077000CC04002094CF040084CF0400C0410400C6
:1007800020410400CA04002054040020B8040020C2
:100790008C4104005841040000B54FF4804185B0FD
:1007A000002000F099F908B101F02AF800F01AF9D8
:1007B00001F00CFA08B101F023F8002301204FF0FA
:1007C000A041032204E015F4F03F18BF41F82420B3
:1007D0000133202B00FA03F503F5E074F3D14FF059
:1007E000A04100224FF4F033C1F8083501A8C1F848
:1007F0000C25012328214FF47A74CDE901240391BB
:100800008DF804308DF8063006F0F6FB194806F036
:10081000DDFC1949032003F049FD08B100F0F0FFA9
:1008200006F0CEFC03F088FE08B100F0E9FF06F008
:10083000C7FC124A03464BF65901114804F0B0FDBB
:1008400008B100F0DDFF0F4C0F4B23600F4842F062
:100850001EFB0E49034682B204F10A00A38041F058
:10086000F2FE06F081FC00F02FFC0028F9D106F022
:1008700087FCF6E77504000099060000A904000053
:100880003C0300205404002001003C000000002034
:10089000704700BF00B583B0044B0093044A402367
:1008A00000F036F803B05DF804FB00BFB5080000A7
:1008B000D004002002B32DE9F843114B114E8846B5
:1008C000144643F0010903270025224608EB0501E1
:1008D000002004F00DFB03461D444FF47A40E41A57
:1008E00023B9337833B1C847013F06D001233370B1
:1008F000002CEAD1BDE8F88370473770BDE8F88373
:10090000C0440400CE040020704700BF04F0EABBDE
:10091000F0B595B0002415460F4608461E4602F075
:10092000F9F9384623460895082205A91A9D099623
:100930000D950A948DF82C400C9402F045FA9DF820
:1009400014308DF81140DDE9061003F00302012A8E
:10095000CDE9020127D0022A04D0384602F0DEF9A0
:1009600015B0F0BDBDF81650C3F3C2038DF81030BA
:10097000AD090826082D2C4628BF082433462246F8
:100980000EA9384602F020FA2D1B214608AB02AA18
:100990000EA8264400F094FC002DEBD1384602F05E
:1009A000BDF915B0F0BDBDF81460059DC6F3831602
:1009B000C3F3C204B2000EA9384608238DF81040D4
:1009C000C5F3952502F000FA08AB324628460EA979
:1009D000009302AB00F0CEFB384602F09FF915B051
:1009E000F0BD00BF08B5FFF791FF0421034800F0F8
:1009F00077FB034B01225A7108BD00BFCCCF040026
:100A000034000020F0B5324C85B004F5836001F06D
:100A10009FFC04F2144001F09BFCD4E9013703EA87
:100A20000702D01C04EB800114F8200010F0040031
:100A300044D003F1020C0E7806F00306012E654641
:100A400035D0022E02F1030621D004EB86010028E6
:100A5000F1D104EB82020133D26801923B4004EBF6
:100A6000830302F00302012ADE6829D0022A23D17F
:100A7000BDF806309B090333360C05EB930515488A
:100A800001F072FC00B16560304605B0F0BD4B88E6
:100A90000CEB931307EA0302D11C03F1020C14F8C8
:100AA0002100654604EB810100F00400CFE70B88CC
:100AB000C3F383136344EDE70026E0E79D1CC8E71A
:100AC000BDF80430C3F38313360C1D44D7E700BFD1
:100AD000E0050020F40900200B4B0C4810B5002263
:100AE000FF21C3F818249960C3E90022C3F8142435
:100AF00083F8202402F0CAF8044610B9044802F032
:100B000097F9204610BD00BFE0050020DCCF0400AF
:100B1000E444040021B9124B03EBC00000687047A5
:100B2000104A0F49521AD20815D030B40E4D2B88F6
:100B3000834212D0002303E035F82340844205D0DD
:100B400001339A42F8D1002030BC704701EBC3005A
:100B5000006830BC7047104670470846F8E700BF91
:100B600084CF0400CCCF040020030020094B0139BE
:100B700003EBC00003290BD8DFE801F002080604EC
:100B80000220704740797047007970470420704711
:100B90000020704784CF04002DE9F843DFF8D89097
:100BA000074600208846D9F8084001F0C5F8D9E981
:100BB0000132D9F80060134401339B1B012B56D836
:100BC00009F21C450121284601F0AAFBFFF71AFF94
:100BD0000146284601F0A4FBD9E90132D9F80010FA
:100BE000134401335B1A012BECD90A40033205236D
:100BF0000231002049F82230C9F8001001F0A4F8B1
:100C000000211C4801F082FB80F31000731C23407C
:100C100009EB830300043440033440EA1740D860F2
:100C200019F8243067F3C50309F8243039F8243063
:100C30006FF3891329F8243059F8242068F39F2290
:100C40001346012161F301036FF3820349F8242065
:100C500009F8243099F820341BB906E000F00EF8AA
:100C600018B1D9E900329A42F8D1BDE8F88331468B
:100C7000BBE700BFFC090020E00500202DE9F0479C
:100C8000914C002384B0C4F81834BFF34F8FD4E9DB
:100C9000015605EA0602D31C04EB830114F8233045
:100CA000580719D527680B7803F00303012B43D0AD
:100CB000022B03D14B88023505EB931506EA05029A
:100CC000D4F81804D31C04EB830128B9AF4239D9F6
:100CD00014F823305B07E6D404EB82026B1CD26865
:100CE0000192334004EB830302F00302DB680293BA
:100CF000022A05F1020700F08980012A26D0D4F8E3
:100D000010543DB12B6828469B689847EB681D68D6
:100D1000002DF7D16D486E4B6E49C01AC008000413
:100D200040F00200FFF738FFD4E90030C01A18BFC6
:100D3000012004B0BDE8F0870B880235C3F38313AC
:100D40001D44BBE7676004B0BDE8F087BDF8042030
:100D50006148C2F38313062B28BF062363F389126D
:100D600002339900ADF8042001F092FF804600287C
:100D7000C5D001F0CFFF0023082201A9404601F0B1
:100D8000EFFFBDF8043013F4707F00F09B806FF02C
:100D9000010AAAEB050A082506EA070103312B46DA
:100DA000042204EB8101404601F0DAFFBDF8043073
:100DB00007F101090AEB0902C3F3831393424F467B
:100DC00005F10405E8D8D4F81834002B64D1D4F820
:100DD000105465B1EB685A7928464146002A57D02D
:100DE0002B681B689847EB681D68002DF2D14046C0
:100DF00001F094FF002000F09FFFD4F818340BB9E5
:100E0000C4F80490002000F09FFF8DE7BDF8063085
:100E100031484FEA93194D46502D28BF502565F3B0
:100E20008F1305F10801ADF8063001F031FF80465F
:100E300000283FF464AF26EA070A0AF1010A01F02C
:100E400069FF4FEA8A0A0023082201A9404601F0FF
:100E500087FF55452BD9EBB2BAF1000F20D006EA37
:100E60000701A3EB0A03033104EB8101DDB2524613
:100E70000823404601F074FF2A460AF10803174987
:100E8000404601F06DFF09F1030907EB99099AE764
:100E90001D68002D9ED1AAE7404601F03FFF43E7C1
:100EA0002A4608230D49404601F05AFFEBE706EABF
:100EB0000701033104EB81012A460823404601F073
:100EC0004FFFE0E7B9467EE7E005002094CF04003D
:100ED00084CF0400F0440400DCCF0400EC050020C3
:100EE0002DE9F047DFF8E4A0074600209146884648
:100EF000DAF8084000F020FFDAE90132DAF80060A1
:100F0000134401339B1B022B5CD80AF21C450121C0
:100F1000284601F005FAFFF775FD0146284601F065
:100F2000FFF9DAE90132DAF80010134401335B1AF1
:100F3000022BECD90A4003320331452300204AF842
:100F40002230CAF8001000F0FFFEB31C23400AEB69
:100F5000830300211C48C3F80C9001F0D7F980F3FB
:100F60001000731C23400AEB830300043440033455
:100F700040EA1740D8601AF8243067F3C5030AF82E
:100F800024303AF82430012161F389132AF82430FF
:100F90005AF8242068F39F22134661F301036FF38C
:100FA00082034AF824200AF824309AF820341BB926
:100FB00006E0FFF763FE18B1DAE900329A42F8D191
:100FC000BDE8F0873146B5E7FC090020E0050020C8
:100FD0002DE9F84F3A4C8046002093469A468946C0
:100FE000A56800F0A9FED4E9013227681344013353
:100FF000DB1B032B61D804F21C460121304601F0B3
:101000008FF9FFF7FFFC0146304601F089F9D4E97A
:1010100001322168134401335B1A032BEDD90A40D6
:10102000033204318523002044F82230216000F08F
:101030008BFEBA1CFB1C2A402B4004EB820204EB03
:10104000830300211F48C2F80CB0C3F80CA001F0C4
:101050005DF980F310007B1C2B4004EB830300043C
:101060003D40033540EA1840D86014F8253068F355
:10107000C50304F8253034F82530022262F38913C1
:1010800024F8253054F8252069F39F2213460121C6
:1010900061F301036FF3820344F8252004F825303F
:1010A00094F820341BB906E0FFF7E8FD18B1D4E945
:1010B00000329A42F8D1BDE8F88F3946AFE700BF59
:1010C000E0050020FC090020044BD3E900239A42EC
:1010D00001D0FFF7D3BD0020704700BFE00500201E
:1010E00030B4184DD5F8104400215CB1E3681A798A
:1010F0008A4204D116E0DB681A798A4212D01B6852
:10110000002BF8D1C3681971D5F8103493B1DA689F
:10111000C36812681A60D5F81034DB68186030BCF8
:101120000846704701310A29DFD14FF0FF310846E8
:1011300030BC7047C5F81004C2681360084630BC64
:10114000704700BFE005002038B5094BD3F81044C4
:10115000012583F820544CB1E3685D712368204673
:101160005B689847E3681C68002CF5D138BD00BF68
:10117000E00500202DE9F04784B01D460C9C0023BB
:1011800094F80C802373EB8881460E461746002B9B
:1011900040D1297A05290ED06B7AA88873BB404BC1
:1011A00053F821A00021FFF7B5FC524603463D4904
:1011B000204601F045F9062F09D8DFE807F0046A58
:1011C0004249525D33004946204601F039F92B7AF5
:1011D000052B05D06B7A5BB93349204601F030F915
:1011E000204601F021F984F80C8004B0BDE8F087B6
:1011F0002E4A2F49204601F023F9EDE7FFF7B6FC10
:101200002C4B2B4953F82020204601F019F9297A5C
:10121000A888C4E7254A00922749284A204601F0B9
:101220000FF9B6E7D6E90410D6E900230390D6E912
:1012300002070291CDE900074946204601F000F976
:10124000C5E74946D6E90023204601F0F9F8BEE794
:10125000B168D6E9002320460091494601F0F0F834
:10126000B5E7D6E90201D6E900230191009049468D
:10127000204601F0E5F8AAE7D6E90371B068D6E99F
:1012800000230291CDE900074946204601F0D8F835
:101290009DE732684946204601F0D2F897E700BF43
:1012A000784504006C450400544404006045040083
:1012B0006845040008450400484504004045040012
:1012C000082900D970472DE9F04F1D4690460023AC
:1012D0002A7B2B7385B0B8F80630039207460E467A
:1012E000002B7BD198F80810052911D098F8093007
:1012F000B8F80400002B63D13C4B53F82140002187
:10130000FFF708FC224603463949284601F098F8C1
:10131000DFF8FCB0DFF8FC90002405E03A5D013412
:1013200001F08EF8082C09D0A64249462846F5D887
:101330005946013401F084F8082CF5D12D49DFF825
:10134000D8B0DFF8D890284601F07AF800240CE0F5
:1013500017F804A0BAF17E0F23D92E224946284659
:10136000013401F06DF8082C08D0A642F0D8594697
:101370002846013401F064F8082CF6D198F80830BA
:10138000052B02D098F80930A3B91B49284601F073
:1013900057F8284601F048F8039B2B7305B0BDE8C9
:1013A000F08F41F019F950445246437813F0970FEB
:1013B000D3D0D3E7114A1249284601F041F8E4E7B7
:1013C000FFF7D4FB0F4B0E4953F82020284601F0BD
:1013D00037F898F80810B8F804008DE7074A00922B
:1013E00009490A4A284601F02BF87BE778450400B2
:1013F0006C45040038450400544404006045040072
:1014000068450400084504004845040040450400C0
:10141000344504002C450400744504003C45040098
:1014200070B51A4B1D789DB1194B1C682378C0B25A
:10143000984210D004F10802002306E014F833109B
:101440008142164602F1080206D001339D42F5D1D1
:1014500000231B78FFDE264602F04EF87378A3F1D6
:101460000103B3FA83F35B09834200D070BD094BDB
:10147000D3E900231343F9D1074B08481968002228
:101480004908BDE8704000F0E5BB00BF9C0A0020A1
:10149000F00A0020C80A0020A00A0020A80A0020A4
:1014A0002DE9F04F974E337885B0002B00F0258161
:1014B000954F964DDFF8608200244FF00109D7F870
:1014C00000B01BF8340002F017F80BEBC4031BF854
:1014D00034B05B784FEA5B0C1BF0010E15F80C1072
:1014E000A3F10103B3FA83F314BF0A0901F00F0259
:1014F0005B09042A00F2BB80DFE802F08ABB5B4094
:101500000300834200F0D680BEF1000F0CBFF02331
:101510000F233078194005F80C10A8B1D7F800C097
:101520009CF800305B4500F0DE800CF108020023DF
:1015300004E01CF83310594500F0D6800133834293
:10154000964602F10802F4D10020039000F0F4FB6B
:10155000ABF12002CBF1200329FA03F309FA02F2DE
:101560001A4309FA0BF103920291D8E90023DDE94D
:10157000020122EA000023EA010171E0834232788D
:101580000CD0BEF1000F0CBFF0230F2303EA0103C0
:101590000CBF04214021194305F80C10013494427A
:1015A0008DDBD8E90023134340F0938005B0BDE8FC
:1015B000F08F83426FD1BEF1000F14BF0F23F023D1
:1015C00003EA0103327814BF30210321194305F8DF
:1015D0000C10002AE5D0D7F800C09CF800305B451D
:1015E00000F08E800CF108010023013393428E46F7
:1015F00001F10801D2D01CF833005845F5D1DEF8CE
:101600000430002BCAD05846012198473278C5E7EC
:1016100083422CD1BEF1000F0CBFF0230F2303EA4D
:1016200001030CBF0121102119430020019005F88E
:101630000C1000F081FBABF1200309FA03F30193D6
:101640000198CBF1200129FA01F1084309FA0BF1C5
:1016500001900091D8E90023DDE90001104319430E
:1016600002460B460020C8E9002300F06DFB3278EB
:1016700094E7834213BF0023202302221A46BEF1BF
:10168000000F12BF0F20F020134601400B4305F856
:101690000C30327882E7BEF1000F0CBFF0230F232D
:1016A00003EA01030CBF01211021194305F80C10B6
:1016B000327873E7BEF1000F14BF0F23F02303EA63
:1016C000010314BF30210321194305F80C103278AF
:1016D00064E70F4B0F4819680022490805B0BDE8C0
:1016E000F04F00F0B7BAE646DEF80430002B3FF4C6
:1016F0002BAF00215846984726E7DFF81C8050E7BB
:10170000E6467CE79C0A0020F00A0020D00A002070
:10171000A00A0020A80A0020C80A0020092A40D9EF
:10172000F0B583B00E460546144601F06FFD002863
:1017300031D0204A2049214B15600E702022002113
:101740001F481C6040F0A3FF1E4B00200021741EA8
:10175000C3E90001E4B236B305EBC4041A4E083DF8
:10176000032701E0A5421ED09DF8063020788DF8B1
:10177000047003F0FC036FF382038DF80630A37846
:101780008DF80530324601A901F04AFD083C0028D9
:10179000E8D003B0F0BD01F0EFFC0028C9D003B0E1
:1017A000F0BD07207047094A0948002100F044FABB
:1017B00003B0F0BDF00A00209C0A0020A00A00201F
:1017C000D00A0020C80A002021140000A114000043
:1017D000E445040070B5084D2B785BB1074E00243A
:1017E0003368012113F8340001F00AFE2B7801342C
:1017F000A342F5D8002070BD9C0A0020F00A00200A
:1018000000B585B000230390194601AA44F20100F7
:10181000CDE9013300F004F805B05DF804FB00BF2A
:1018200010B572B6FFF790FCFFF74EFC0028FBD115
:10183000104B114C1149E41AE408240444F001004F
:10184000FFF7AAF90E4B1B68DB0700D500BE44F07A
:1018500002000C49FFF7A0F9BFF34F8F0A490B4B69
:10186000CA6802F4E0621343CB60BFF34F8F00BF3E
:10187000FDE700BF84CF040094CF0400F4450400CA
:10188000F0ED00E00046040000ED00E00400FA0581
:10189000D0E90223D1E90201994208BF90422CBF4E
:1018A00001200020704700BF2DE9F04F87B0039062
:1018B00000F060FB40B19B49D1E9002312F1807434
:1018C00043F10005C1E9004500210398964C00F062
:1018D0006DFB60B1236853B1944B25681B7823B12D
:1018E0001DB12B7F002B40F02D81002323600121AF
:1018F000039800F05BFB002840F0F38005A98C48BA
:1019000000F0C6FC18B38B4E884F894D0378012B2D
:1019100000F0C680C0F0CC80022B0ED130464FF0D4
:10192000000801F0A7FA30B180F81C80304601F0C1
:10193000A1FA0028F8D101233B7005A9284600F040
:10194000D5FC05A9284600F0A3FC0028DED1794E7D
:10195000794FDFF8D09103E00D2855D000232360A4
:10196000304601F08DFA2368002800F0B48063B19E
:101970002368D0E90201D3E90223994208BF9042CB
:101980003BD223681B7F002B7FD1304601F072FAD7
:101990000546D5E902233846CDE9002300F018FBBF
:1019A000D9E90023DFF8948112EB000A43F1000B20
:1019B000D8E900239B4508BF924503D21AF1807AEB
:1019C0004BF1000BDDE90001B0EB0A0061EB0B010C
:1019D000012871F1000313DBDFF864A1504559D8E9
:1019E000AA684FF496030021384600F03DFA00281B
:1019F000B2D12368002B67D0256007B0BDE8F08F17
:101A00000021384600F0C6FA484B1B78002BA5D0C1
:101A10002B7F002BA2D0384600F0DAFAD8E9002359
:101A2000D9E900ABCDE900231AEB00024BF100032A
:101A300010461946DDE90023994208BF904203D2BF
:101A400010F1807041F10001D5E90223994208BFED
:101A5000904261D32B6903B92B77D5E905309847BC
:101A6000296900293FF47AAF2B7F002B3FF476AF32
:101A7000D5E9022312EB010A43F1000BC5E902ABE1
:101A80002946304601F0E2F968E72168304601F066
:101A9000DDF97AE7384600F09BFA00EB0A02A0E78E
:101AA00041682368994213D0304601F0EDF944E7CC
:101AB00043681A7F002A7FF440AF01221A774168F9
:101AC000304601F0C3F938E7039800F09FF993E737
:101AD0000023236031E7002B8FD1039800F09AF99F
:101AE0008BE71548DFF8548000F072FA0D4BD3E90C
:101AF0000067D8E9002316EB000947F1000A9A4570
:101B000008BF91454846514603D219F180704AF109
:101B10000001C8E90001F1E62946304601F096F9D6
:101B20001CE700BFF80A0020780B0020000B002003
:101B30005C0B0020144604003C000020700B0020C9
:101B4000FFFFB4001D4800F043FA1D4A1D4BD2E9C7
:101B50000067D3E9002316EB000847F10009994517
:101B600008BF90454046494603D218F1807049F1BC
:101B70000001D5E90223994208BF904219D32B698D
:101B800003B92B77D5E905309847296900293FF437
:101B9000ACAE2B7F002B3FF4A8AED5E9022356183C
:101BA00043F10007C5E902672946074801F04EF9ED
:101BB0009BE62946044801F049F996E63C000020DE
:101BC000F80A0020700B00201446040010B5134BD7
:101BD00013491B68134882B058220193082300F070
:101BE00003FB044610B1204602B010BD0E4A0F4858
:101BF00001A900F0B3F804460028F4D101210B48F4
:101C000000F0AEF901231946094A084800F006F928
:101C1000084B012220461A7002B010BD1046040085
:101C2000040B00205C0B0020A91800003C000020E1
:101C3000FFFF7F00000B00204AB1A1F10101036802
:101C4000B1FA81F14909C3E9041200207047072065
:101C5000704700BF037F0BB1002070472DE9F048AB
:101C6000826182B004461F480D4600F0B1F91E4B58
:101C70001E49D3E90023D1E9006712EB000B43F1C1
:101C8000000CBC4508BFB34503D21BF1807B4CF16F
:101C9000000C1BEB050221694CF10003C4E902238F
:101CA00079B901A9124800F0B7FA88B1002544605B
:101CB000057001A90E4800F0DBFA68B902B0BDE872
:101CC000F088256101A90A4800F0A6FA0028EDD1A4
:101CD000042002B0BDE8F088024800F07DF92846F3
:101CE000ECE700BF3C000020F80A0020700B002049
:101CF0005C0B002030B5002583B00446057701A9B0
:101D00000B4800F089FA78B101234460037001A9FF
:101D1000074800F0ADFA08B903B030BD054800F03F
:101D20005BF9284603B030BD042003B030BD00BFCE
:101D30005C0B00203C00002072B6024A136801339D
:101D4000136070477C0B0020034A1368013B13604B
:101D500003B962B6704700BF7C0B0020F8B5234E74
:101D60004579234C234F0346234847F82520801B01
:101D700004EBC506C0083679000486BB1A680D88D6
:101D8000C2F8085593F904208978002A1FDB02F174
:101D9000604202F561424901C9B282F8001393F929
:101DA0000420164F1649012602F01F05520906FAB3
:101DB00005F547F822505A7904EBC20540F00300BC
:101DC0002E7144F83230FEF7E7FE0020F8BD0D4DCD
:101DD00002F00F0249011544C9B22976DFE740F04D
:101DE00002000949FEF7D8FE0820F8BD84CF0400A0
:101DF000800B0020880B0020A4CF040000E100E04D
:101E00005C460400FCEC00E0384604000368012254
:101E10001A607047036801225A607047F0B4046882
:101E20004FF480358D40C4F8085306688C00C6F81E
:101E3000485304F5A0740668A4B20027375182B055
:101E400036590468019601F5A87122F07F42019E7F
:101E500044F821200268C2F8445313B10368C3F860
:101E6000045302B0F0BC70472DE9F04788464FF4A8
:101E70008037016807FA08F7C1F848730168C1F8AC
:101E80000873064600684FEA88040119D0F8045523
:101E9000D1F84005C1F8405504F5A074A4B23168EA
:101EA0004FF0000941F8049082B0401B095900919D
:101EB00020F07F4001289A4622F07F45009B0BD1FD
:101EC000264B4FF4806043F001039847336843F892
:101ED00004901B590193019B3368D3F80445C3F860
:101EE00044732B1B23F07F43012B08F5A87817D1EF
:101EF00030681A4B013540F8285043F001034FF485
:101F0000806098473268D2F804359C4222D1C2F8EA
:101F1000447333680020C3F8047302B0BDE8F0874F
:101F2000336843F828503268D2F804156B1ACAF1A6
:101F3000FF1A013B0AF57F4A23F07F439A4509D3F4
:101F4000002BE4D1013542F828503268D2F804352C
:101F50009942DCD00D2002B0BDE8F0873046040085
:101F600002680223C2F8443311B10268C2F8043394
:101F7000704700BF0368D3F8040150B1002282B05B
:101F8000C3F80421D3F804310193019B012002B06E
:101F9000704770474FF48033026803FA01F1C2F8CA
:101FA00048130368C3F80813704700BF890001F5A0
:101FB000A07189B20368585840B100225A5082B0CB
:101FC0005B580193019B012002B07047704700BF2E
:101FD0000368D3F80405704790F9043005485A099E
:101FE000403203F01F03012101FA03F340F82230CD
:101FF000704700BF00E100E0024A034B10681B6815
:10200000184700BF800B0020880B002010B4094C3B
:1020100022680023012000FA03F10133152B42EA64
:102020000102F8D1044B226018705DF8044B0020C7
:10203000704700BF8C0B002090520020234B1B7870
:102040000BB900207047431EB3F5306FF9D220283A
:1020500030B420D8002213461D4D2C6803E0013314
:10206000152B0A4415D0072B2AD90B2B2AD90F2B55
:102070008CBF4FF430614FF4007124FA03F010F07C
:102080000100ECD001219940124824EA01042C609F
:10209000104430BC70474028DCD98028DAD9B0F52C
:1020A000807F03D84FF480620823D5E7B0F5007F26
:1020B0008BBF4FF480524FF4006210230C23CBE708
:1020C0008021DAE74FF48071D7E700BF90520020FB
:1020D0008C0B0020900B002070B5284B1C780CB99D
:1020E000204670BD00FB01F14B1EB3F5306F27D2C7
:1020F000202928D800242146214E356803E00131EB
:10210000152914441CD0072932D90B2932D90F299B
:102110008CBF4FF430624FF4007225FA01F010F0DA
:102120000100ECD0174B01201C4400FA01F125EA14
:10213000010520460021356040F0A9FA204670BD17
:102140000024204670BD4029D4D98029D2D9B1F5C8
:10215000807F03D84FF480640821CDE7B1F5007F7C
:102160008BBF4FF480544FF4006410210C21C3E75F
:102170008022D2E74FF48072CFE700BF9052002058
:102180008C0B0020900B0020144B1B7803B3F8B18C
:10219000002210B41346124C0DE0072B19D90B2B5B
:1021A00019D90F2B8CBF4FF430614FF400710133FC
:1021B000152B0A4409D0A1188842EED10948012103
:1021C000026801FA03F31A4302605DF8044B70479A
:1021D00070478021EBE74FF48071E8E790520020D0
:1021E000900B00208C0B002099B110B4B2FBF3F4DB
:1021F00003FB1424A4B244B9C0E9001484608281B2
:10220000C38120465DF8044B704709205DF8044BFC
:1022100070470E20704700BF30B482B050E8013FD5
:102220009DB2C48925448489A54228BF2D1B0489F9
:10223000A54202BFBFF32F8F002207E0C5EA0305C6
:1022400040E80154002CE9D14FF001028DF8032041
:102250000193019B9DF803200B602AB10B88006855
:10226000184402B030BC704702F0FF031846F8E78C
:102270000A884B889A4201D00020704750E8012F0D
:10228000C2EA024240E80123002BF7D10120704747
:1022900030B482B050E8023F1FFAA3F5C488A542CB
:1022A00002BFBFF32F8F00220DE0C489254484892B
:1022B000A54228BF2D1BC3EA054540E80254002C67
:1022C000E8D14FF001028DF803200193019B9DF8A6
:1022D00003200B602AB14B880068184402B030BC60
:1022E000704702F0FF031846F8E700BF0A884B88E2
:1022F0009A4201D00020704750E8022FC2EA2242E1
:1023000040E80223002BF7D10120704750E8002F4E
:102310000B4640E8003C9CF0000FF7D11046704798
:1023200050E8003F03EB010240E8002C9CF0000F56
:10233000F6D11046704700BF50E8003FA3EB010202
:1023400040E8002C9CF0000FF6D11046704700BF0B
:10235000012350E8002F42EA030C40E800C191F04D
:10236000000FF6D160467047002350E800CF0CEA1A
:10237000030240E8002191F0000FF6D1604670475B
:10238000B8B130B4D0E90112521A0468D2B2531E67
:102390002160DBB242B101680A685C1E551C0D6009
:1023A0001370E3B2FF2BF6D103680020187130BC24
:1023B00070470E20704700BF38B504460020FFF775
:1023C000BBFCD4E900311A688A4215D9511E196044
:1023D0002168A3680868258A12F8012CE4681B1A92
:1023E0000879DBB2984205FB024400D20B71002051
:1023F000FFF7AAFC204638BD0024F8E738B50546AB
:1024000000200C46FFF798FC2A681368591C1160DD
:10241000E9682A8A641AB4FBF2F41C700020BDE853
:102420003840FFF791BC00BF826842B110B5044646
:1024300043690168006998470023A36010BD704795
:102440000EB400B582B0039929B102AA04AB42F8D8
:10245000043D00F0A9F802B05DF804EB03B070474A
:102460002DE9F04F924683B051450F4605461E4672
:10247000DDE90CB2C0F092800B464FF00108B3FBCF
:10248000FAF39A4508F10108F9D9B04538BFB046CA
:1024900012F00109A96802D1BBF1000F54D1012447
:1024A00002E0013E0AFB04F4012EFAD8B7FBF4F077
:1024B0008245F7D93B4E02E0A968B7FBF4F0335CE4
:1024C0002A680A2B04FB107702EB010E01F10100D0
:1024D00029D0A8608EF80030D5E90131994202D3A5
:1024E0002846FFF7A1FFB4FBFAF4002CE4D1B9F1C0
:1024F000000F15D0BBF1000F12D0C34510D9202416
:10250000AB682A68591CA960D454D5E901329A42B3
:102510000BF1FF3B14D2BBF1000F01D0C345EFD14B
:1025200003B0BDE8F08FA8604FF00D005054D5E91E
:10253000011088421DD2296801EB000E0130C8E766
:102540002846FFF771FFE6E7930722D42024C3450E
:10255000A5D92B684A1CAA605C54D5E9013199427F
:102560000BF1FF3B10D2BBF1000F98D0C345F0D167
:1025700095E728460193FFF757FFAA682968019B52
:10258000501C01EB020EA4E72846FFF74DFFA96897
:10259000E9E7002E0CBF30242024D8E74FF00108D3
:1025A00073E700BF7C460400002900F0B9822DE9E2
:1025B000F04F054687B091460C460E78DFF8C8A666
:1025C0004FF00D0B13E0AB6828680A2E03F10102EF
:1025D00000EB030100F04B82AA600E70D5E90132D6
:1025E0009A4280F01B812678002E00F01E81013473
:1025F000002E00F01A81252EE5D12346002713F87E
:10260000012B2D2A00F0E380302A00F0E4802B2AF1
:1026100000F0D4802A2A00F00D81A2F13006F1B238
:10262000092903D97DE2A1F130060346184606EBDD
:10263000860110F8012BA2F13004092C02EB4101B4
:10264000F1D92E2A00F002814FF00008013301E099
:1026500013F8012B02F0FB0168291C46F8D0253A3B
:10266000532AC0D801A353F822F000BF572A000014
:10267000E7250000E7250000E7250000E72500002A
:10268000E7250000E7250000E7250000E72500001A
:10269000E7250000E7250000E7250000E72500000A
:1026A000E7250000E7250000E7250000E7250000FA
:1026B000E7250000E7250000E7250000E7250000EA
:1026C000E7250000E7250000E7250000E7250000DA
:1026D000E7250000E7250000E7250000E7250000CA
:1026E000E7250000E7250000E7250000E7250000BA
:1026F000E7250000E7250000E7250000E7250000AA
:10270000E7250000E7250000E7250000E725000099
:10271000E7250000E7250000E7250000E725000089
:10272000E7250000E7250000E7250000E725000079
:10273000E7250000E72500003B2A0000E725000010
:10274000E7250000E7250000E7250000E725000059
:10275000E7250000E7250000E7250000E725000049
:10276000E7250000DF270000C1290000E725000061
:10277000E7250000E7250000E7250000C12900004B
:10278000E7250000E7250000E7250000E725000019
:10279000E7250000E725000029290000E7250000C3
:1027A000E7250000A1280000E7250000852800009B
:1027B000E7250000E72500003B2A000047F004075A
:1027C0001C46234613F8012B2D2A7FF41DAF47F03A
:1027D00001071C46F5E747F002071C46F1E7D9F868
:1027E00000301A1DC9F800201E78AB680A2E0CD1E3
:1027F0002A68591CA96002F803B0D5E90123934265
:1028000003D32846FFF710FEAB682A68591CA9605D
:10281000D654D5E901329A42FFF4E5AE2846FFF7D7
:1028200003FE2678002E7FF4E2AE2B7B23BB07B09D
:10283000BDE8F08FD9F80020111DC9F80010166806
:1028400062782E2A04F102007FF4FEAE5A78A2F1DB
:102850003003092B00F2BD814FF0000808EB880817
:1028600002EB480810F8012FA2F13003092BA8F160
:102870003008F3D90346E9E6284607B0BDE8F04F33
:10288000FFF7D2BDD9F800301A1DC9F80020196829
:102890000197434600960A222846FFF7E1FDA2E68B
:1028A000D9F800301A1DC9F80020D3F80080FB07C2
:1028B00000F1E880B8F1000F00F0A181404640F03F
:1028C000E6FA0746BE4215D9A6B1202100E08EB136
:1028D000AA682B68501CA8609954D5E901329A4225
:1028E00006F1FF3604D328460391FFF79DFD0399B7
:1028F000BE42ECD108F1FF3818F8016F002E3FF40A
:1029000072AEAB6828680A2E03F1010200EB0301E6
:1029100000F09081AA600E70D5E901329A42EBD3A3
:102920002846FFF781FDE7E7D9F80020131DC9F815
:102930000030AB6829681768581C3022A860CA5458
:10294000D5E90123934280F0E6802A68581C78215B
:10295000A860D154D5E90123934280F0D7800F2F8E
:1029600003D93A4612090F2AFCD84FF080560DE0E1
:10297000AA6081F80080D5E901329A4202D3284644
:10298000FFF752FD36093FF42EAEAB68B7FBF6F207
:102990001AF802802868B8F10A0F06FB127700EBDC
:1029A000030103F10102E3D1AA6000F803B0D5E905
:1029B00001329A4280F049812B6899180132D7E799
:1029C000D9F800301A1DC9F80020196881EAE173AE
:1029D000A3EBE173092B40F30E81AA480122A0FB6F
:1029E00003C3DB08092B02F10102F8DC4245134660
:1029F00038BF4346039307F00203002E40F0958052
:102A0000002B00F0B780B8F1000F00F0F680F80757
:102A100040F1B0800029C0F2FF807A0700F1C88041
:102A200007F00303022B00F0A780CDE900674346BF
:102A30000A222846FFF714FDD5E5D9F800301A1D03
:102A4000C9F80020196801974346009610222846CD
:102A5000FFF706FDC7E5AB682A68581C2521A8606A
:102A6000D154D5E901329A42FFF4BDADD6E6AA6051
:102A700000F803B0D5E901329A423FD229681144E7
:102A80000132A9E54146A1EB080311F8017BD7B15A
:102A9000AB68D5F800C00A2F03F101020CEB03006C
:102AA00000F0AF80AA600770D5E901329A42EAD3FC
:102AB00028460391FFF7B8FC0399A1EB080311F82E
:102AC000017B002FE4D19E427FF68DAD202702E0EE
:102AD000002E3FF488ADA9682A68481CA8605754A6
:102AE000D5E90121914206F1FF3604D3284603932C
:102AF000FFF79AFC039BB342EAD174E52846FFF73F
:102B000093FCAB6829685A1C194465E52846FFF711
:102B10008BFCAB6823E72846FFF786FCAB6814E71D
:102B200070471846002623468BE5002920DB7A07EC
:102B30001ED41BB1B8F1000F3FF46CAFF8073FF59E
:102B400069AFBEB1039BB342BFF464AF2023AA6850
:102B5000501CA86028688354D5E90102824206F11E
:102B6000FF3640D236B1039AB242F0D1164651E751
:102B7000013EDEE700264DE7B8F1000F7FF455AFC8
:102B8000002E6AD0039BB342BFF44FAF3023AA6834
:102B9000501CA86028688354D5E90102824206F1DE
:102BA000FF3618D2002E58D0039AB242EFD13CE73C
:102BB000AA68531CAB602B682B209854D5E90132CE
:102BC0009A42FFF42DAF28460491FFF72DFC04999B
:102BD00026E7034638E52846CDE90413FFF724FC31
:102BE000DDE90413DEE72846CDE90413FFF71CFCFA
:102BF000DDE90413B6E70122F8E646460AE7474650
:102C000060E6AA600CF803B0D5E901329A4226D2F8
:102C10002B689818013245E7AA68531CAB602B68F3
:102C20002D209854D5E901329A42C1F10001FFF4F8
:102C3000F7AEC8E7AA6000F803B0D5E901329A42BE
:102C400017D229681144013264E62846FFF7ECFBED
:102C5000A9682B684A1C19448AE60026E5E628463E
:102C60000391FFF7E1FBA8682B680399421C184405
:102C700018E72846FFF7D8FBAB6829685A1C1944A7
:102C800048E600BFCDCCCCCC7C460400FFF778BB37
:102C90002DE9F041058ACE1C043D2E440746B6FBC3
:102CA000F5F6FFF789FB78B3F6B24FF48073013E77
:102CB0000446C5800760838027D08046002509E050
:102CC0006379AE4203F101036371C8F80000076045
:102CD00080461AD03846FFF76FFB01350028EFD148
:102CE0006679721E14D02346013082421B68FBD1E4
:102CF0001F684EB1002523682146013538461C4621
:102D0000FFF77CFBAE42F6D100242046BDE8F081FF
:102D10002768EFE704300121FFF702BBF8B5012176
:102D200004460430FFF708FBC0B200B1F8BD667975
:102D3000721E12D02346013082421B68FBD11F68ED
:102D4000002EF3D0002523682146013538461C4665
:102D5000FFF754FBAE42F6D1F8BD2768F2E700BF9B
:102D60002DE9F843C788467907FB06F6043E02EBD7
:102D7000030C0446664503F1040015468846B0FB83
:102D8000F7F238BFF51A07FB120012B1013A2468B6
:102D9000FCD13E1AAE4228BF2E469DB14FF000092D
:102DA0000430AD1B2044324608EB09013FF04BFCD8
:102DB000AF42B14424683E464FF0000028BF2E4683
:102DC000002DEDD1BDE8F8832DE9F843C788467999
:102DD000154607FB06F6043E05EB030C1A1D664577
:102DE00004468846B2FBF7F038BFF51A07FB1021FE
:102DF00010B101382468FCD17E1AAE4228BF2E469D
:102E00009DB14FF0000904312144AD1B324608EB5F
:102E100009003FF018FCAF42B14424683E464FF031
:102E2000000128BF2E46002DEDD1BDE8F88300BF7C
:102E300082680023936082681361826853618268AC
:102E4000D3608268536082681360704770B54468CD
:102E5000064620680D4618B908E02468206828B1A5
:102E6000B368294698470028F7D120682860256074
:102E700070BD00BF4368186808B102681A607047E7
:102E800043681868704700BF4068036873B18B429D
:102E900003D107E0814204D0034618680028F9D125
:102EA000704718460B68036001207047184670474A
:102EB00010B570B101280BD10D4C2369A0703BB146
:102EC000D3E900230120226198472369002BF7D121
:102ED00010BD074CA36801226270002BF8D0D3E923
:102EE00000230020A2609847A368002BF7D1EFE7EA
:102EF0009452002038B50A4C23786BB909486360B6
:102F0000A3602361E36000F09BF8054600F0A6F89B
:102F100001232370284638BD8525284638BD00BFCB
:102F200094520020B12E000038B5154CA378054608
:102F300073B110B14368012098470020FEF7FCFEF2
:102F4000E3680133E3600020BDE83840FEF7FCBED3
:102F500003F0FF00FEF7F0FE65B1226942B1954231
:102F600008D0134601E09D4204D01B68002BFAD123
:102F70002A602561E368002BE2D100F081F8DFE7E9
:102F80009452002038B5084C0020FEF7D5FEE368C7
:102F9000013BE360E56815B900F08AF8A5700020F0
:102FA000BDE83840FEF7D0BE945200204FF0804379
:102FB000D3F81804C0F30040704700BF38B5154C73
:102FC0006378054673B110B143680020984700202C
:102FD000FEF7B2FE6368013363600020BDE838404D
:102FE000FEF7B2BE03F0FF00FEF7A6FE65B1A268D1
:102FF00042B1954208D0134601E09D4204D01B68BF
:10300000002BFAD12A60A5606368002BE2D100F0A2
:103010005BF8DFE79452002038B5084C0020FEF73B
:103020008BFE6368013B6360656815B900F05EF86C
:1030300065700020BDE83840FEF786BE945200203F
:10304000054A13792BB9012110605371184611718B
:1030500070478520704700BFA8520020074B1A68B0
:10306000D20704D4C021012283F800131A604FF064
:1030700080430122C3F81825704700BF00E100E03B
:1030800010B4094B094A0021196083B01B680193F1
:10309000019C4FF0804102200123C1F8040313601A
:1030A00003B05DF8044B7047040100400800004085
:1030B000044B01221A604FF08042D2F81834DB032F
:1030C000FBD470470C000040074B00221A6082B00E
:1030D0001B68019301994FF080430122C3F8042338
:1030E0001A6002B0704700BF00010040074B012288
:1030F0001A604FF08042D2F80C3403F00113B3F1A0
:10310000011FF8D0024B00225A71704704000040A2
:10311000A852002010B5154B1A6882B07AB1002170
:10312000134A19601B68507900934FF080410123C6
:10313000009CC1F8083310B91168537188470D4BD2
:103140001A6882B100221A601B6801934FF0804216
:103150000221074B0198C2F808131B68012002B036
:10316000BDE81040184702B010BD00BF000100408C
:10317000A85200200401004030B5204C94F86A5059
:1031800083B0002D36D14FF0FF332946062204F1DB
:103190006400C4E90033C4E90233C4E90433C4E978
:1031A0000633C4E90833C4E90A33C4E90C33C4E97B
:1031B0000E33C4E91033C4E91233C4E91433C4E94B
:1031C000163323663FF063FA0D4A0E4B0E491D601D
:1031D000C02082F80603402010601B68019301980C
:1031E0004FF000430122284684F86A20C1F80433D6
:1031F00003B030BD082003B030BD00BFB052002086
:1032000000E100E07C61004000600040034B93F867
:103210006A00003018BF0120704700BFB052002084
:10322000F0B5744B1C1894F93050002D6ADA8E7882
:10323000C6F340069646002E5ED11D6A013500F0A9
:10324000C48009240C2553F8247001375DD004F1A3
:10325000010C53F82C70013700F0C280A71CAF425C
:1032600048D253F82720013200F0BC8004F1030C4F
:10327000AC453FD253F82C70013700F0B18004F117
:10328000040CAC4536D253F82C70013700F0A880FE
:1032900004F1050CAC452DD253F82C70013700F029
:1032A0009F8004F1060CAC4524D253F82C700137F2
:1032B00000F0968004F1070CAC451BD253F82C703B
:1032C000013700F08D8004F1080CAC4512D253F8A0
:1032D0002C70013700F0848004F1090CAC4509D250
:1032E00053F82C7001377BD00A34AC4202D2DC6A2E
:1032F000013409D00420F0BD1D68013574D00124CB
:103300000825A0E70820F0BD0B241F1865B243F87C
:1033100024E087F83050002E5ED08A7854071AD403
:10332000D60741D41F284A7887BF334E00F01F04C8
:1033300004464FF0A04604F5E074920046F82420BD
:103340002E4EC40800F0070C375D012202FA0CF281
:103350003A4332558A780C7812F0020209D1083DBE
:103360002B44104693F8602042EA841483F86040AE
:10337000F0BDAB0003F1804303F5C0430202D3F874
:10338000101521F44F3121F44071C3F810152404B5
:10339000D3F8101504F4403402F47C5222430A435B
:1033A000C3F810250020F0BD1F2887BF124A00F087
:1033B0001F0404464FF0A04202EB8402D2F80047FB
:1033C00024F00204C2F80047BAE7082684F8306007
:1033D000C3F820E0354634461C4484F858009CE786
:1033E000644692E73C4690E700251A6084F8305026
:1033F00093E700BFB0520020000300501453002098
:1034000070B43A4D2E1883B096F93030072B20DD7A
:103410002B4493F858309B09032B45D0012B14BF44
:103420004FF440314FF400311F284DD900F01F00F8
:103430002F4B03EB8000D0F8002722F44032C0F875
:103440000027D0F800370B43C0F8003703B070BC3A
:103450007047DAB2072AF9D8980000F1804000F5E9
:10346000C04003F14002D0F81045920092B244F0FF
:10347000010402F18042C0F8104502F5C04200206C
:103480000190019C10600029E0D096F9302055F899
:103490002220002ADAD00122164902FA03F3C1F8E9
:1034A000043303B070BC70471F2810D9104BD3F8F9
:1034B000103500F01F00C34013F0010F0CBF4FF494
:1034C00000314FF44031B3E74FF0A043B1E74FF084
:1034D000A0421346D2F81025C24012F0010F14BFCB
:1034E0004FF440314FF40031A3E700BFB052002049
:1034F00000030050006000401F288ABF054B4FF0BA
:10350000A04300F01F00D3F8103523FA00F000F0BC
:1035100001007047000300502DE9F047002388B0F8
:10352000CDE90233CE4A1668012E00F03B821E46DA
:10353000CC4B1A68012A00F02782CB4B1A68012A6B
:1035400000F01482C94B1A68012A00F00182C84BAE
:103550001A68012A00F0EE81C64B1A68012A00F0B1
:10356000DB81C54B1A68012A00F0C881C34B1A6879
:10357000012A00F0B581C24B1A68012A0FD100223E
:103580001A601B6801934FF0A042019BD2F81025EE
:10359000BC4B0292D3F81035039346F0004616F068
:1035A000FF0F1AD0B84F00240125A30003F1804378
:1035B0002E4203F5C0434FEA45050BD0D3F8100562
:1035C00057F82420D3F81015C0F30520C1F30141AA
:1035D00002B190470134082CE7D1002E02DB08B07D
:1035E000BDE8F087A84CA74F4FF0FF33CDE9063375
:1035F00094F960300DF1100800225D1CC8F8042019
:1036000004924FF0010600F0F4805FFA83FC2CF086
:10361000C00008AB4FEAD00903EB090E0CF007031A
:103620001EF8082C06FA03F312EA030521D022182B
:103630004FEA9C1192F9302054F82220002A00F021
:103640002981032900F028811F2800F2F98005460E
:103650004FF0A04C0CEB850C1EF8185CDCF800E772
:103660001D40CEF3014E40F0DF80BEF1030F00F0AD
:10367000BF8194F96130581C32D0DBB223F0C00016
:1036800008AA4FEAD00E02EB0E0C03F007011CF85B
:10369000082C06FA01F912EA090F21D0221899091B
:1036A00092F9302054F82220002A00F0FB800329F0
:1036B00000F0FB801F2800F2E98003464FF0A04E87
:1036C0000EEB83031CF818ECD3F800C71EEA090FB1
:1036D000CCF3014C40F0B880BCF1030F00F0AE8198
:1036E00094F96230591C30D0DBB223F0C00008AA34
:1036F0004FEAD00E02EB0E0C03F007011CF8082C69
:1037000006FA01F912EA090F1FD02218990992F955
:10371000302054F82220002A00F0D880032900F03D
:10372000D8801F287CD803464FF0A04E0EEB8303B1
:103730001CF818ECD3F800C71EEA090FCCF3014CB3
:1037400064D1BCF1030F00F0658194F963305A1C19
:1037500034D0DBB223F0C00008AA4FEAD00E02EB4F
:103760000E0C03F007021CF8081C06FA02F21142C4
:1037700024D004EB0009990999F9309054F8299064
:10378000B9F1000F00F09880032900F098801F28FD
:103790008BBFBE464FF0A04E03F01F0303460EEB57
:1037A00083031CF818ECD3F800C71EEA020FCCF311
:1037B000014C20D1BCF1030F00F00181002D3FF43A
:1037C0000EAF4FF0A0430299D3F81035D7F810256B
:1037D000994203D1039991423FF401AFDDE904011D
:1037E000CDE9023294F960305D1CCDE906017FF429
:1037F0000CAF00253DE7BCF1020FDFD1032900F03B
:103800003481B9F1000F40F0F180D7E7BCF1020F2D
:103810009BD1032900F02681002A96D0904794E797
:1038200003F01F03BE4681E7BEF1020FE1D1032979
:1038300000F021810025002A3FF41BAF904718E7D4
:103840000CF01F05BC4605E7BCF1020F7FF448AF42
:10385000032900F00D81002A3FF442AF90473FE773
:103860000061004004610040086100400C610040BC
:103870001061004014610040186100401C6100406C
:103880007C61004000030050B052002003F01F0391
:10389000BE4615E70329ACD118F809501D4308F8B6
:1038A0000950D1E603297FF41BAF18F80EA04AEAAD
:1038B000090A08F80EA0FDE603297FF47FAF18F887
:1038C0000EA04AEA020A08F80EA060E703297FF476
:1038D0003CAF18F80EA04AEA090A08F80EA020E743
:1038E000664AD2F8042317067FF545AE00221A6017
:1038F0001B680093009B46F080063CE65F4AD2F8C6
:10390000042352067FF532AE00221A601B68009332
:10391000009B46F0400629E6584AD2F80423910657
:103920007FF51FAE00221A601B680093009B46F0D3
:10393000200616E6514AD2F80423D0067FF50CAED5
:1039400000221A601B680093009B46F0100603E6F5
:103950004A4AD2F8042314077FF5F9AD00221A6011
:103960001B680093009B46F00806F0E5434AD2F836
:10397000042355077FF5E6AD00221A601B6800930B
:10398000009B46F00406DDE53C4AD2F80423970785
:103990007FF5D3AD00221A601B680093009B46F0B0
:1039A0000206CAE53549D1F8041311F0010104D02B
:1039B000136013680093009BBAE50E46B8E503292F
:1039C0007FF41FAF4FF4003CD3F8002722F44032BD
:1039D000C3F80027D3F80027013542EA0C02EDB204
:1039E000C3F80027B9F1000F3FF4EBAEC847E5E696
:1039F00003297FF420AF4FF40035DCF8003723F4BF
:103A00004033CCF80037DCF800372B43CCF80037D4
:103A1000012510E703297FF4FFAE4FF4003ED3F8F1
:103A200000C72CF4403CC3F800C7D3F800C70135E9
:103A30004EEA0C0CEDB2C3F800C7EDE603297FF4A3
:103A40000AAF4FF4003ED3F800C72CF4403CC3F853
:103A500000C7D3F800C701354EEA0C0CEDB2C3F82D
:103A600000C7F8E64FF4403ED9E74FF4403CABE7DF
:103A70004FF4403EE7E74FF44035BEE700600040BA
:103A80004FF080531A69B0FBF2F302FB130373B9D2
:103A9000084B0222C3F804251A46C3F80805D2F8D9
:103AA0000034DB07FBD50020C2F804057047102066
:103AB000704700BF00E00140F0B43E4B0124C3F862
:103AC000044510F0030382B02CD0C3F104049442E7
:103AD0004FF0FF3628BF14460196C71ABCB102AD9D
:103AE0001D440E7805F8046C012C03F101050DD07E
:103AF00002AE3544032C4E7805F8046C03F1020342
:103B000004D102AD2B448D7803F8045C019E294D4D
:103B1000D5F80034DB07FBD53E60BFF35F8F121B87
:103B200020442144970811D00D1F224C05EB870734
:103B3000A0EB010C55F8046FD4F80034DB07FBD57B
:103B40004CF80560BFF35F8FBD42F3D112F0030460
:103B500028D022F00302104400F0030302ADEE1857
:103B60008F5C4FF0FF35012C019503F1010506F83C
:103B7000047C0ED00A4402A90D44032C517805F8A8
:103B8000041C03F1020304D102A90B44927803F848
:103B9000042C0199074AD2F80034DB07FBD50160F9
:103BA000BFF35F8F034B0022C3F8042502B0F0BCC3
:103BB000704700BF00E001400220FCF701BC00BFDD
:103BC0002DE9F0470D460646FCF714FC03281ED8E5
:103BD000012D04461DD00ED3022D18D11B4B00EB36
:103BE00040041C44657895B1194B1B687BB128468D
:103BF000BDE8F04718471748FEF77CF8134B164A04
:103C000004EB44010B44125D9D78AA42EBD0BDE861
:103C1000F0870E4F4FEA400808EB0003FA18FD5CEE
:103C200053782BB9A04447440B4BBA781A55DAE7BE
:103C3000DFF8289007484A464FF48041FEF70AF81B
:103C40000028EFD189F80060ECE700BF8053002026
:103C500094530020405300209C5300201C5300200C
:103C600010B50078FCF7C6FB03280BD8064B00EB19
:103C700040001844407828B1044B1B6813B1BDE8DC
:103C80001040184710BD00BF8053002094530020FF
:103C9000B44B1B68DB0700D4704770B5B24DB34E10
:103CA0002B7834786BB1B24B1B7800202870002B36
:103CB0004BD0FCF745FB0120FCF742FB0320FCF74F
:103CC0003FFB172C40D8DFE814F0B600F400F400F6
:103CD000DC000801CA001301EE0050004300500050
:103CE0004300610018001800180018001800660052
:103CF00077008B009F005D005D009E48FDF7FAFF96
:103D0000D4F11104054600F00081002840F0FD8048
:103D1000012C13D0C82303FB04F44FF47A704FF442
:103D200000430021C3FB04014FF4FA62002340F07A
:103D300069F82A4601468F48FDF78CFF0220FCF700
:103D4000EBFA8B4B01221A7070BDFCF70DFBB8E744
:103D5000012318462B70FCF733FB00224FF400516F
:103D60008548BDE87040FDF775BF012318462B70EC
:103D7000FCF726FB002240F266617F48BDE87040F8
:103D8000FDF768BFFCF706FB347070BDFCF702FB63
:103D90000C23337070BD764B1B78002B00F0BF8076
:103DA0000020FCF7CDFA0120FCF7CAFA0320FCF74B
:103DB000C7FA1223337070BD6D4B1B78002B00F0D7
:103DC000B1800020FCF7BCFA0120FCF7B9FA03200F
:103DD000FCF7B6FA0020FCF79FFA1323337070BD8E
:103DE000634B1B78002B00F0AD800020FCF7A8FA95
:103DF0000120FCF7A5FA0320FCF7A2FA0120FCF74A
:103E00008BFA1423337070BD594B1B78002B00F0D4
:103E100083800020FCF794FA0120FCF791FA03203C
:103E2000FCF78EFA0020FCF777FA0120FCF774FA11
:103E30001523337070BD4E4B1B78002B00F08A8029
:103E40000020FCF77DFA0120FCF77AFA0320FCF74A
:103E500077FA4948FDF74EFF0023337070BD00200C
:103E6000FCF746FA002860D00020FCF769FA052329
:103E70003370002240F6CD413F48BDE87040FDF769
:103E8000E9BE0020FCF734FA00285ED00020FCF7E1
:103E900057FA43F233310323337000223648BDE82A
:103EA0007040FDF7D7BE0020FCF736FA07233370C9
:103EB00070BD0020FCF71CFAD0B30020FCF740FADC
:103EC000022C47F2333118BF4FF480313470002296
:103ED0002948BDE87040FDF7BDBE0020FCF708FA98
:103EE000D8B30020FCF72CFA4FF480310423D3E739
:103EF0000020FCF765FA06233370002240F2666169
:103F00001D48BDE87040FDF7A5BE0220FCF718FA79
:103F1000174B00221A7070BDFCF726FA82E7FCF7F7
:103F200023FA46E7FCF720FA54E7FCF7F5F99EE799
:103F3000FCF7F2F941F69A1140F6CD43022C08BF86
:103F40001946C3E7FCF710FA58E7FCF7E5F940F625
:103F5000CD41A0E7FCF708FA7BE7FCF7DDF941F675
:103F60009A11C3E78C5300209053002098530020EF
:103F70001D530020205300206053002038B5C54B4E
:103F80001C6814F0010401D1204638BDC24C2378CE
:103F9000054663B1C14B1B780020207023B3FCF7AA
:103FA000CFF90120FCF7CCF90320FCF7C9F9172D54
:103FB00000F26D81DFE815F0C300EC00EC001001A9
:103FC000D90023010201360128001B0028001B0034
:103FD0006A00710071007100710071009A00AD00FB
:103FE00035004B0064006400FCF7BEF9DFE70123F5
:103FF00018462370FCF7E4F900224FF40051A8485A
:10400000BDE83840FDF726BE012318462370FCF7B3
:10401000D7F9002240F26661A148BDE83840FDF7BB
:1040200019BE9E4B1B78002B00F016810020FCF778
:1040300087F90120FCF784F90320FCF781F90120BE
:10404000FCF76AF9974B14221A7000249CE7934BF3
:104050001B78002B00F003810020FCF771F9012090
:10406000FCF76EF90320FCF76BF90020FCF754F91C
:104070000120FCF751F98B4B15221A70002483E7BD
:10408000FCF788F9874B00241D707DE7FCF782F967
:10409000844B0C221A70002476E78348FDF72AFE31
:1040A0000446D5F1110000F0C580002C40F0C2801C
:1040B000012814D0C82505FB00F54FF400434FF448
:1040C0007A700021C3FB05014FF4FA6200233FF030
:1040D00099FE224601467448FDF7BCFD04460220C5
:1040E000FCF71AF96D4B01221A704DE76B4B1B78E8
:1040F000002B00F0AE800020FCF722F90120FCF735
:104100001FF90320FCF71CF9664B12221A700024D9
:104110003AE7624B1B78002B00F093800020FCF7FD
:104120000FF90120FCF70CF90320FCF709F9002036
:10413000FCF7F2F85B4B13221A70002424E7574B6C
:104140001B78002B00F08E800020FCF7F9F801208E
:10415000FCF7F6F80320FCF7F3F85148FDF7CAFD29
:10416000504B002204461A700EE70020FCF7C0F8FE
:10417000002869D00020FCF7E3F84FF48031494B68
:10418000474804241C700022BDE83840FDF762BD9A
:104190000020FCF7ADF800286CD00020FCF7D0F828
:1041A000022D47F2333118BF4FF480313D4B3C486C
:1041B0001D700022BDE83840FDF74CBD0020FCF723
:1041C000FFF8384B364806241C70002240F2666126
:1041D000BDE83840FDF73EBD0020FCF789F8002817
:1041E00043D00020FCF7ACF843F233312D4B2C4880
:1041F00003241C700022BDE83840FDF72BBD0020D1
:10420000FCF776F800283FD00020FCF799F8254B02
:10421000234805241C70002240F6CD41BDE83840FB
:10422000FDF718BD0020FCF777F81E4B07221A7027
:104230000024A9E60220FCF783F8184B00221A702C
:10424000A2E6FCF791F872E7FCF766F841F69A11DE
:1042500095E7FCF789F857E7FCF786F8EFE6FCF7F7
:1042600083F802E7FCF780F877E7FCF755F840F6AB
:10427000CD41BBE7FCF750F841F69A1140F6CD432B
:10428000022D08BF194691E7FCF746F8BFE7002466
:104290007AE600BF8C530020905300201D5300206D
:1042A00060530020985300202053002038B5244B41
:1042B000244A19608307106000F0010503D4CDB9CA
:1042C0002C46204638BD204B20480E240F221021BA
:1042D0001C701124DA7099715C7240F2333204213F
:1042E000FDF71CFA0446B8B115B10120FCF794F8AB
:1042F000204638BD0120FCF78FF8154A15480021EB
:10430000FDF79AFC04460028F2D1134A1348012114
:10431000BDE83840FDF790BCFDF75CFA0446002884
:10432000E2D101460E4A0F48FDF786FC0446002DF7
:10433000DED00120FCF770F8002CD9D1DDE700BFFA
:10434000945300208C53002080530020BC4604006E
:10435000913C0000E4460400B93B0000DC46040048
:10436000613C0000E046040008B51B78802B00D0BB
:1043700008BD0D4B072201201A70FBF7B9FF60B989
:10438000FBF7CAFF0120FBF7C7FF002240F6CD4133
:104390000648BDE80840FDF75DBC0020FBF7D0FFF4
:1043A0000120FBF7CDFFF0E7D0530020D8530020C9
:1043B000420700D4704708B5084615F09FFD88B144
:1043C000831E022B0A4A06D9062313701846BDE83D
:1043D0000840FFF7D3BD072313701846BDE8084017
:1043E000FFF7CCBD024A1070BDE80840FFF7C6BD1C
:1043F000C153002008B51C4B1B78032B27D8DFE8DE
:1044000003F0211207020120BDE80840FBF784BF3A
:104410000120FBF7D5FF002240F266611348BDE89A
:104420000840FDF717BC0120FBF762FF80B90120AF
:10443000FBF772FF40F6CD4100220C48BDE8084072
:10444000FDF708BC0120BDE80840FBF779BF08BDB7
:104450000120FBF775FF43F2333100220348BDE82A
:104460000840FDF7F7BB00BFC0530020A053002059
:1044700008B52C4A1378013BDBB2137083B10120DD
:10448000FBF736FFA0B9FBF747FF0120FBF744FF1E
:10449000002240F6CD412448BDE80840FDF7DABBD4
:1044A000224B1B78032B0DD8DFE803F0121B2B09DE
:1044B0000020FBF745FF0120FBF742FFE8E7012062
:1044C000FBF72AFF1A4B1878BDE80840FFF756BDE6
:1044D0000120FBF735FF164B1878BDE80840FFF7C1
:1044E0004DBD0120FBF704FFA8B10120FBF728FF19
:1044F00043F2333100220F48FDF7ACFB0028E1D036
:1045000008BD0120FBF75CFF002240F2666109480C
:10451000FDF7A0FBF2E70120FBF7FEFE40F6CD41E0
:10452000E8E700BFD0530020D8530020C05300203C
:10453000C1530020A053002070B5134A134E144BF2
:1045400000242146147005460C2230461C703EF0B3
:104550009EF821460F4B104A10483360FDF76CFB64
:10456000044628B901460E4A0E48FDF765FB04468D
:104570002A460D49284609F001FF2846034909F05B
:1045800073FE204670BD00BFC1530020C4530020FD
:10459000C053002069430000F5430000E8460400D2
:1045A00071440000EC460400B1430000F0B502F194
:1045B000080583B007460C46164695E807000197A4
:1045C00000F0F0FA053000F073FAA0422ADC014650
:1045D000019800F073FA019B02AC184444F8040DF2
:1045E0000421204600F09AFAB27DF37D00216FF39A
:1045F000070162F3820163F3C3012046C9B200F0F0
:104600008DFA2046012100F089FAB18A204600F097
:104610008BFA204695E80E0000F0A0FA0198C01B26
:1046200003B0F0BD6FF00100FAE700BF30B50B46F4
:1046300083B01146054601AA1846009300F04CFAD3
:10464000DDE900320344022A0446009302DC2046DE
:1046500003B030BD684600F05BFA0528F7D1684624
:1046600000F056FA01242860F1E700BF70B582B06F
:10467000161E044601900D4619DD032000F018FABD
:10468000854227DB0146019800F018FA019B02AD34
:10469000184445F8040D1821284600F03FFA314629
:1046A000284600F041FA0198001B02B070BD0120BD
:1046B00000F0FEF9854201460CDB019800F0FEF99E
:1046C000019A02AB104443F8040D1821184600F07B
:1046D00025FAE8E76FF0010002B070BD82B030B596
:1046E00083B006AC84E80C0006AB05460C4693E8A4
:1046F0000700019500F056FA013000F0D9F9A04208
:1047000018DC0146019800F0D9F9019B02AC18446D
:1047100044F8040D1621204600F000FA06AB2046AE
:104720000ECB00F01BFA0198401B03B0BDE83040EF
:1047300002B070476FF00100F7E700BF2DE9F041CC
:1047400084B090460AAA06460D4607CA01AC84E822
:1047500007001F46009600F025FA023000F0A8F985
:10476000854221DB0146009800F0A8F9009B04ADCA
:10477000184445F8100D0721284600F0CFF9002114
:104780006FF3070168F3461167F304112846C9B2B5
:1047900000F0C4F9284694E80E0000F0DFF9009814
:1047A000801B04B0BDE8F0816FF00100F9E700BFA5
:1047B00082B070B584B008AC84E80C0006460D46A3
:1047C00094E8070001AC84E80700009600F0EAF9DD
:1047D000013000F06DF9854218DB0146009800F0C9
:1047E0006DF9009B04AD184445F8100D09212846C9
:1047F00000F094F9284694E80E0000F0AFF9009814
:10480000801B04B0BDE8704002B070476FF001003B
:10481000F7E700BF10B50B4682B01146044601AA67
:104820001846009300F058F9DDE900321844022AD6
:10483000009003DC0023184602B010BD684600F06B
:1048400067F91B28F6D1684600F062F90123206061
:10485000F1E700BF10B50B4682B01146044601AA2D
:104860001846009300F038F9DDE900321844022AB6
:10487000009003DC0023184602B010BD684600F02B
:1048800047F91D28F6D1684600F042F9012320605F
:10489000F1E700BF2DE9F04383B002AF002447F8F1
:1048A000044DDDE90D4581460E46204690462946D9
:1048B0003A4600941F4600F00FF9DDE90032184433
:1048C0001444231AAB42009003DD002003B0BDE87E
:1048D000F083684600F01CF90C28F6D1684600F019
:1048E00017F9002360F30703C3F3010243F3C01178
:1048F000C3F34110C3F3001389F80010306088F847
:1049000000300A9BD1B21A70D1B101291BD0684680
:1049100000F0FEF80A9B1871684600F0F9F80A9B4F
:104920005871684600F0ECF80A9B38801B7883B118
:10493000009B0C9AE41A14600B9A01201360C5E7DF
:104940003368032B0FD0684600F0DAF80A9B988092
:10495000E7E73268009B032AEBD10A9A0A9992682A
:104960004B601344E5E7684600F0CAF80A9B98607C
:10497000D7E700BF2DE9F04182B00DF1080C00240B
:104980004CF8044D089D009380460F461846164685
:10499000294662461C4600F09FF8DDE900231044DA
:1049A0001C44241AAC42009004DD0023184602B0D7
:1049B000BDE8F081684600F0ABF80D28F5D16846F7
:1049C00000F09EF8A8F80000684600F099F83880DA
:1049D000684600F09DF801233070E7E72DE9F043C9
:1049E00083B00DF1080C00260A9D4CF8046D814639
:1049F000884618461746294662461C46009300F032
:104A00006BF8DDE9002310441C44231AAB420090EC
:104A100003DD002003B0BDE8F083684600F078F8BD
:104A20000A28F6D1684600F06BF8A9F8000068463D
:104A300000F066F8009BA8F80000E41AC7E90064DB
:104A4000BB600120E6E700BF2DE9F04182B00DF127
:104A5000080C00244CF8044D089D009380460F4636
:104A600018461646294662461C4600F035F8DDE930
:104A7000002310441C44241AAC42009004DD00239F
:104A8000184602B0BDE8F081684600F041F80B28F6
:104A9000F5D1684600F034F8A8F80000684600F048
:104AA0002FF83880684600F033F801233070E7E7CC
:104AB000FF28CCBF03300130704700BFFF290346F9
:104AC000CAB202DC01201A707047827009120122FA
:104AD000417003201A70704700290EDD0378012B06
:104AE00002D0136001207047022906DD41788378E7
:104AF00003EB01231360032070474FF0FF30704732
:104B0000036819785A780233036002EB012070477A
:104B10000368024613F8010B1360704703681970AD
:104B2000036801330360704700290268B4BF01F1D4
:104B3000FF030B461B1210B4137002684B42DBB22A
:104B4000C9B202F1010458BF5942046051700368B0
:104B50005DF8044B01330360704700BF70B584B04B
:104B600004AC04E90E00029D002D04460FDC019DFB
:104B70005DB128463EF08BF929460646024620687C
:104B80003DF061FD20683044206004B070BD2A46CD
:104B9000039900683DF057FD23681D44256004B06B
:104BA00070BD00BF84B004AB03E90700019810B9E1
:104BB000029804B0704704B03EF069B970B582B095
:104BC000054602200C4601951646FFF771FFA042EC
:104BD00014DC01460198FFF771FF019B02AC1844F9
:104BE00044F8040D01212046FFF798FF2046314686
:104BF000FFF794FF0198401B02B070BD6FF00100F9
:104C0000FAE700BF2DE9F04F85B08B469DF8404094
:104C1000129E01969DF83890BDF83C80149D03903B
:104C2000064692461F460CB9032B4BD0062028445B
:104C3000FFF73EFF58455ADC01460398FFF73EFF59
:104C4000039A0DF1100B10444BF8040D0C2158463B
:104C5000FFF764FF00216FF307016AF3C71167F3E1
:104C6000461169F3041164F30101C9B25846FFF714
:104C700055FFD4B1012C1AD99DF844105846FFF7BE
:104C80004DFF9DF845105846FFF748FF58464146EE
:104C9000FFF74AFF039813992A463DF0D4FC039886
:104CA0002844801B05B0BDE8F08F032F0DD0BDF860
:104CB00044105846FFF738FF58464146FFF734FF87
:104CC0000398E8E7019B981DB1E7019C58462146EF
:104CD000FFF72AFF41465846FFF726FF2246119963
:104CE00003983DF0B0FC039820440390D3E76FF0A5
:104CF0000100D7E72DE9F04182B0054606200C46B9
:104D0000019590461F469DF82060FFF7D1FEA04216
:104D10001DDC01460198FFF7D1FE019B02AC18444F
:104D200044F8040D0D212046FFF7F8FE41462046C9
:104D3000FFF7FAFE39462046FFF7F6FE20463146D9
:104D4000FFF7ECFE0198401B02B0BDE8F0816FF068
:104D50000100F9E72DE9F04782B007460A9E01906D
:104D600034688A46914698464CB320463EF08FF808
:104D70000546681DFFF79CFE504524DC014601985E
:104D8000FFF79CFE019B02AC184444F8040D0A2175
:104D90002046FFF7C3FE49462046FFF7C5FE4146C1
:104DA0002046FFF7C1FE3168019851B12A463DF017
:104DB0004AFC01982844C01B02B0BDE8F087756822
:104DC000D7E7B168F2E76FF00100F5E72DE9F041B0
:104DD00082B0054606200C46019590461F469DF878
:104DE0002060FFF765FEA0421DDC01460198FFF739
:104DF00065FE019B02AC184444F8040D0B212046CB
:104E0000FFF78CFE41462046FFF78EFE39462046CE
:104E1000FFF78AFE20463146FFF780FE0198401BCF
:104E200002B0BDE8F0816FF00100F9E72DE9F04331
:104E300083B002AE002446F8044DDDE90A45814600
:104E40008846204617462946324600941E46FFF7FC
:104E500043FEDDE9003218441444241AAC420090A9
:104E600004DD0023184603B0BDE8F0836846FFF771
:104E70004FFE1328F5D16846FFF74AFEC0F34110F4
:104E8000C9F800006846FFF73BFEA8F80000684636
:104E9000FFF736FE38806846FFF73AFE0123307090
:104EA000E0E700BF70B582B002AB002443F8044DC8
:104EB00015460C461A460646294620460094FFF73A
:104EC0000BFEDDE9003218441444241AAC42009071
:104ED00003DD0023184602B070BD6846FFF718FED8
:104EE0001528F6D16846FFF70BFE01233080F1E765
:104EF0002DE9F84F4400DFF85CB126180BEBC6062D
:104F00008146F76A012F8A46904667D03DD3022F2B
:104F100030D100F1010909EB4909756A4FEAC90965
:104F20000027B36A346AAB4203F1FF329CBF1B19FE
:104F300003F1FF33A4EB05048CBF531B5B1B0BEB8E
:104F40000902444528BF44469C42506828BF1C467D
:104F50002844514622463DF076FB336A25449D4263
:104F60002744A8EB0408A24408D07562B8F1000FEA
:104F7000D7D100E000273846BDE8F88F00231D4652
:104F80007362B8F1000FCCD1F5E7B36A756AAB4232
:104F90009CBF326A9B18013B5B1B9845EBD80444CD
:104FA00000F101090BEBC40409EB49090BEBC90B38
:104FB000266ADBF80400761BB045284443D332460A
:104FC000A8EB06053DF03FFB0AEB0601DBF8040009
:104FD0002A463DF038FB47466562CCE7D6E908250E
:104FE000B76AAF4298BFBF18461C013F06EB4606A2
:104FF0007F1B0BEBC606474528BF47467068A2EBF0
:1050000005084745284412D3A1444246A7EB0805AA
:105010000BEBC90B3DF017FB0AEB080170682A4641
:105020003DF011FBCBF824503846BDE8F88FA14481
:105030000BEBC90B3A463D443DF005FBCBF8245041
:105040003846BDE8F88F424645443DF0FCFA4746F5
:10505000656290E7C0F4002070B51C4C23780546CB
:105060000E467BB12369AB422CD905EB450504EB19
:10507000C5040020FCF760FE0020E662FCF764FE39
:10508000002070BD124AA36202216362E362A3653D
:105090006365E3650F4BA261C4E90411A2644FF498
:1050A00000710D4AE361102323652162E2640B491C
:1050B000E01D3DF0E4FE0A4920463DF0E0FE2023DD
:1050C000A371CFE74FF0FF3070BD00BFC0F40020E8
:1050D000F046040008540020F8530020FC46040069
:1050E0000047040038B5114C114B1248E3611025FC
:1050F0004FF40073104A11492362E06400232565D0
:10510000E01D0225A3626362E362A3656365E36554
:10511000A261A264C4E904553DF0B1FE20460849ED
:105120003DF0ADFE2023A37138BD00BFC0F40020C8
:1051300008540020F8530020F0460400FC46040008
:105140000047040010B44FF080414FF0805200201F
:10515000C1F80C015E4BC1F81001C1F83805D2F856
:105160000414C3F82015D2F80814C3F82415D2F893
:105170000C14C3F82815D2F81014C3F82C15D2F863
:105180001414C3F83015D2F81814C3F83415D2F833
:105190001C14C3F84015D2F82014C3F84415D2F8F3
:1051A0002414C3F84815D2F82814C3F84C15D2F8C3
:1051B0002C14C3F85015D2F83014C3F85415D2F893
:1051C0003414C3F86015D2F83814C3F86415D2F853
:1051D0003C04C3F86805D2F840043E49C3F86C05A6
:1051E0000968D2F84424C3F87025082924D04FF068
:1051F0008043D3F80024D20744BF6FF00102C3F804
:105200000024354AD2F8883043F47003C2F888305D
:10521000BFF34F8FBFF36F8F4FF01023D3F80022EF
:10522000002A23DBD3F80432002B1FDB2B4B2C4A44
:105230001A605DF8044B70472A4B1B68002BD6D1CF
:1052400029482A4A2A4C04602A492B4BFB20C2F8E1
:1052500018050A681B68294822F00F0203F00F03A3
:1052600013434FF400720B600260C0E7244B01222D
:10527000C3F80425D3F80024002AFBD04FF01023F4
:1052800012221F49C3F80022D1F80034002BFBD0B2
:105290004FF0102212211A4BC2F80412D3F8002446
:1052A000002AFBD000221649C3F80425D1F80034A7
:1052B000002BFBD0BFF34F8F0749124BCA6802F493
:1052C000E0621343CB60BFF34F8F00BFFDE700BF29
:1052D00000C000403001001000ED00E0440000205C
:1052E0000090D003340100108C56004000F00040C4
:1052F00048810300E40E004058020010409602402E
:1053000000E001400400FA0590F82830013B062B2C
:1053100033D8DFE803F0070E162B202804000729F6
:105320001DD07047022934D00C2918D0012920D073
:105330007047042913D00929F8D1012380F82830B7
:105340007047042921D00C2909D00329F0D1062364
:1053500080F828307047052913D00B2910D1042379
:1053600080F8283070470629E7D07047012900D01F
:105370007047052380F8283070470829EFD0D7E719
:105380007047032380F828307047072380F82830BF
:10539000704780F82810704790F82800704700BFC9
:1053A000D0B1CAB1C3B1F8B507461C4615460E4682
:1053B00000F078FBFCF72AFE80B9224631463846D9
:1053C00001F086FDB0B901F0DFFCB8B90423C7F8DD
:1053D000145187F82830F8BD0E20704709480A4B51
:1053E0000A49C01AC008000440F00100FBF7D4FBD2
:1053F0000320F8BD0348044B0549F2E70148024B7E
:105400000449EEE794CF040084CF04000847040069
:105410003047040054470400B0B1A9B1A3B19AB118
:105420002DE9F0415C88B4B19C88A4B15C78012C72
:105430000CD090F82840002C6FD0042C0ED0013CEA
:10544000012C0BD9082007E00E207047DC8814B12E
:105450001C89002CEDD10E20BDE8F08100F13A0846
:10546000054617460E461222002140461C463DF0D6
:105470000EF94046314612223DF0E5F885F83870C5
:105480006388A5F84E30237885F84C30637885F82A
:105490004D30637803BBA388A5F8503005F156065C
:1054A000A288002130463DF0F2F83046A28804F18F
:1054B0000A013DF0C8F8284601F0B4F90028CBD124
:1054C00095F82830002BC7D0022B01D9042BC3D16B
:1054D000052385F82830BFE72389A5F8543005F166
:1054E0008D062289304600213DF0D1F8228904F151
:1054F000410130463DF0A7F8E388A5F8523005F1A8
:105500006D06E288304600213DF0C1F83046E28861
:1055100004F121013DF097F8BDE70F209CE700BFA3
:10552000B8B110B590F82830023B012B044604D8DE
:10553000002101F0E5FB10B110BD0F2010BD94F863
:105540002830022B07D0032BF6D1072384F828300C
:1055500010BD0E207047042384F8283010BD00BF12
:1055600008B370B582B0C2B1B9B1B3B190F82850E8
:1055700005F0FD05012D13D10C4600266946CDE945
:1055800000660546ADF8044001F0CCFA069B2BB14D
:105590001A462B88138002B070BD0E2002B070BD79
:1055A0000F2002B070BD0E20704700BF68B161B11E
:1055B00070B582B032B190F82850032D07D00F207B
:1055C00002B070BD0E2002B070BD0E2070470C46B8
:1055D00002A91E4641F8084D00230546019301F03B
:1055E000C3F9002EECD02B88338002B070BD00BF11
:1055F000F8B5044601F0F8FB94F82D30002B3ED0AE
:10560000314B1B78002B53D1236B1B1A94F810617C
:10561000EEB1D4F8BC10091A8B4228BF0B46012EFC
:1056200015D0D4F8D410091A8B4228BF0B46022E8D
:105630000DD0D4F8EC10091A8B4228BF0B46032E6C
:1056400005D0D4F80421121A934228BF1346656886
:105650002D1A9D4219D20023237301F0C7FB074680
:1056600001F0BCFB0646B0B9B5FBF7F1204607FBDD
:10567000115101F097FB0646E8B93046F8BD94F8A1
:105680001061E6B14FF0FF33C3E75A1C08BF002694
:10569000F3D01D46E1E70D480D4B0E49C01AC00876
:1056A000000440F001003246FBF71AFC3046F8BD1A
:1056B000636B1B1AAAE70548054B0749EEE76568C7
:1056C0002D1A691CC7D1D8E70856002094CF0400D2
:1056D00084CF0400A8470400E44704002DE9F04FFC
:1056E000054689B001F080FB95F82D308146C3B1A5
:1056F000874E337853B92C6B01F078FB044001F0EE
:1057000075FB09EA0000844240F2D7806C6B01F01F
:105710006DFB044001F06AFB09EA0000844240F29C
:10572000C68095F81031FBB17A4B7B4AA3EB020897
:105730004FEAD8084FEA084848F001082C460027ED
:1057400005F13A0AD4F8BC6001F050FB064001F0C4
:105750004DFB09EA0000864212D995F81031013755
:10576000BB4204F11804EDDC95F8283003F0FD038A
:10577000012B4ED02846FFF73BFF09B0BDE8F08F64
:1057800094F8B06066BB2022314668463CF07FFF4B
:105790004FF0010B0C23D4F8B4008DF800308DF8D5
:1057A00004B000F053FBB4F8BA308DF80500D4F81B
:1057B000B400ADF8063000F049FB06286AD007288F
:1057C00000F0848000287ED03246B4F8BA10284613
:1057D00000F098F96946D5F8143128469847BCE797
:1057E000013E84F8B0604FF4FA5001F003FBB4F8C6
:1057F000B830C4F8BC00D4F8B4205146284600F0B4
:1058000045FF0028A9D0024644494046FBF768FB03
:10581000A3E76C6801F0EAFA044001F0E7FA09EA4C
:1058200000008442A6D82B7C002B52D0297B002973
:10583000A0D195F82820012A0FD1022385F828301D
:10584000202268463CF023FF0A238DF80030694689
:10585000D5F81431284698472B7C013B2B744FF424
:10586000FA5001F0C7FA2B8B68606A6905F13A01BA
:10587000284600F00BFF00283FF47CAF264A254B5A
:1058800026499B1ADB081B04024643F00100FBF784
:1058900027FB6FE75A461A21284600F033F995F89E
:1058A0002830052B96D1042385F8283092E7002371
:1058B0002846337000F0C0F833E7012328463370E0
:1058C00000F088F82DE75A460421E5E75A461C21E6
:1058D000E2E795F82830012B15D0032B13D068464A
:1058E000202200213CF0D3FE0C20012205238DF85C
:1058F00000008DF8053069468DF80420D5F8143184
:105900002846984736E7042385F82830E7E700BFA4
:105910000856002094CF040084CF0400744704008C
:1059200000284CD090F82830042B27D170B590F87F
:105930002D6088B026BB04464FF4FA600D4601F096
:105940005FFA01F057FA1F4B206301224FF47A707F
:1059500084F82C6084F82D2000FB05F01E705E702A
:1059600001F048FA60632046FFF742FE58B920462E
:105970000021FFF7C9FC002008B070BD0F20704760
:10598000112008B070BD104A104B11499B1ADB085A
:105990001B04024643F00100FBF7A2FA31466846B9
:1059A00020223CF074FE082202238DF80430694660
:1059B0008DF80020D4F8143120469847D7E70E2000
:1059C000704700BF0C56002084CF040094CF040021
:1059D0003448040070B5144B1C7888B00CB108B082
:1059E00070BD012605461E7000F052FE0028F6D05C
:1059F0000E4A0F4B0F499B1ADB081B04024643EA71
:105A00000600FBF76DFA2146202268463CF03FFE77
:105A100008238DF8003069468DF80460D5F81431FC
:105A20002846984708B070BD0C56002084CF04006B
:105A300094CF04003448040070B5194B5D7888B0E9
:105A4000B5B990F82C6080F82D50012204465A70A8
:105A500086B12946684620223CF019FE08238DF8BD
:105A6000003069468DF80450D4F814312046984728
:105A700008B070BD0A21FFF747FC31466846202276
:105A80003CF005FE082203238DF8043069468DF8AA
:105A90000020D4F814312046984708B070BD00BFEC
:105AA0000C560020B030642200213CF0F0BD00BF55
:105AB000F8B590F81061042E11D00D4607460FCDB1
:105AC00006EB460407EBC404B0340FC495E80300AA
:105AD00084E80300013687F810610020F8BD064B0A
