:020000022000DC
:1070000000000420B5720200DD720200DF7202008F
:10701000E1720200E3720200E5720200000000006B
:10702000000000000000000000000000E772020005
:10703000E972020000000000EB720200ED72020033
:10704000C1BB0200EF72020089C00200EF720200B1
:10705000EF720200EF720200E5BE0200E9C1020019
:10706000EF720200EF72020091C50200EF7202009F
:10707000EF720200A5C10200EF720200EF7202007F
:10708000EF7202006D8A0200EF720200EF720200DE
:10709000EF720200EF7202009D2D0300BD45060055
:1070A000EF720200EF720200A5C50200EF7202004B
:1070B000EF720200EF72020000000000000000000A
:1070C000EF720200EF720200EF720200EF72020034
:1070D00009350600EF720200EF720200EF72020043
:1070E000EF720200EF720200EF7202000000000077
:1070F00000000000EF72020000000000EF720200CA
:10710000000000000000000000000000000000007F
:10711000000000000000000000000000000000006F
:10712000000000000000000000000000000000005F
:10713000000000000000000000000000000000004F
:10714000000000000000000000000000000000003F
:10715000000000000000000000000000000000002F
:10716000000000000000000000000000000000001F
:10717000000000000000000000000000000000000F
:1071800000000000000000000000000000000000FF
:1071900000000000000000000000000000000000EF
:1071A00000000000000000000000000000000000DF
:1071B00000000000000000000000000000000000CF
:1071C00000000000000000000000000000000000BF
:1071D00000000000000000000000000000000000AF
:1071E000000000000000000000000000000000009F
:1071F000000000000000000000000000000000008F
:1072000010B5054C237833B9044B13B10448AFF3E0
:1072100000800123237010BD4031002000000000D9
:1072200064A9060008B5034B1BB103490348AFF33B
:10723000008008BD000000004431002064A9060061
:10724000154B002B08BF134B9D46A3F5803A002138
:107250008B460F461348144A121A3DF070FB0F4B31
:10726000002B00D098470E4B002B00D098470020F1
:10727000002104000D000D48002802D00C48AFF397
:1072800000803DF0E5FA2000290006F069FA3DF0A3
:10729000B9FA00BF00000800000004200000000050
:1072A0000000000040310020888E00200000000017
:1072B000000000000649074A074B9B1A03DD043B08
:1072C000C858D050FBDC0AF027FFFFF7B9FF0000D9
:1072D00070AB0600E82A002040310020FEE7FEE700
:1072E000FEE7FEE7FEE7FEE7FEE7FEE7FEE7FEE776
:1072F000F0B595B01C46164608460D4603F046FA12
:107300001A9B0D93CDE9086400242346082205A9A1
:1073100028460A948DF82C400C9403F055FA079BEC
:107320000293BDF81830ADF80C30BDF81A30ADF846
:107330000E309DF814308DF8114003F00302012A3D
:107340001DD1BDF81440059EC3F3C203C4F38314DA
:107350008DF81030A20008230EA9284603F034FA55
:10736000C6F3952608AB0093224602AB0EA9304621
:1073700000F034FD284603F00DFA15B0F0BD022AE6
:10738000F8D1BDF81640C3F3C203A4098DF810303C
:107390000827082C264628BF08263B4632460EA959
:1073A000284603F011FAA41B08AB02AA31460EA826
:1073B000374400F077FD002CEBD1DBE7014B0122D5
:1073C0001A7070479D3100207047000070B50F4D56
:1073D00006460FCD88B06C460FC495E80F00002E0E
:1073E00084E80F004FF006030093094A09484FF064
:1073F000805308BF00226946069304F03FFB08B1A2
:1074000000F022FF044B1E7008B070BDFC60060047
:10741000BD730200E82A00205C31002007B5044B50
:107420000093044A4023FFF763FF03B05DF804FBB9
:10743000397402005D31002038B50D4B0D4D002030
:1074400018700D4804782D5DD2B21C4665B1043029
:1074500005F046FD08B100F0F7FE084B1A7812B1AE
:107460002378002BFBD038BD0C3005F0D5FAF1E7BE
:107470009D310020F0710020E82A00205C310020BE
:1074800008B50848084A0378D35C3BB1043005F0DE
:10749000B9FC0020BDE80840FFF798BF0C3005F0AC
:1074A00061FAF6E7E82A0020F07100200120FFF7DA
:1074B0008DBF000008B5FFF7F9FF0421034800F075
:1074C000EBFB034B01225A7108BD00BF58AB06000D
:1074D000FC2A0020037813F0040216D003F0030303
:1074E000012B03D0022B09D0012070470A680088C5
:1074F0000232C0F3831002440A60F5E70B68428849
:10750000023303EB92130B60EEE710467047000066
:107510002DE9F04F89B00546861C08A8484C019219
:1075200000230F4600F8113D01F01CF923683B6071
:10753000D4E901231344226801339B1A04F21C4747
:1075400004F5836A04F21448B3421AD3019A002363
:10755000002A6DD0012262F3010343F0040365F3B6
:1075600089132168A2689DF80F000A4003320E4477
:1075700044F82230266001F019F9012009B0BDE875
:10758000F08F0121384602F027FB504602F03DFB08
:10759000404602F03AFB0DF120096068D4F808B0CB
:1075A00049F8100D00EA0B00033004EB8000494657
:1075B000FFF790FF049BB0B90BEA030204EB8202D1
:1075C000D16805919A1C013303EA0B0B04EB8B0C79
:1075D00001F00303012B0492DCF80CB020D0022B45
:1075E00004D083460BE00BEA0300DDE7BDF816305C
:1075F0009B0903334FEA1B4B02EB93030493404672
:1076000002F006FB08B1049B63605946384602F05D
:10761000E3FAD4E901231344226801339B1A93E768
:10762000BDF81430C3F383134FEA1B4B1344E5E753
:10763000022262F3010343F0040365F39F5390E7D2
:107640007032002030B50A4B0A4A0B49D21AD208D0
:1076500000239A4201D1052006E031F82350046846
:10766000A54202D10360002030BD0133F1E700BF25
:1076700018AA060058AB0600003000202DE9F84F8C
:10768000224B2348FF229A600022C3F81824C3E942
:107690000022C3F8142483F8202403F030F8804635
:1076A00088B91C481C4E1D4DDFF874A003F092F9F8
:1076B000AD1BED084446AC4208D1002318491948D7
:1076C0001A469C421BD14046BDE8F88F4FF0000996
:1076D0004F4606EBC40BBC420AD0142256F83710B2
:1076E000DBF800003DF096FC0028C8BF09F1010955
:1076F0000137BD42EFD12AF824900134DBE701EBDA
:10770000830540F823206A800133DAE770320020D5
:1077100000AA06003C61060018AA060058AB060045
:1077200000300020A030002007B5019031B9019A47
:10773000064B53F8320003B05DF804FB01A8FFF7D5
:1077400081FF0028F3D00020F5E700BF18AA06004B
:10775000094B013903EBC000032909D8DFE801F028
:107760000A02040604207047007970474079704788
:10777000002070470220704718AA060030B5124C4E
:1077800000EB400054F821508240072303FA00F038
:107790006A4002400D4B6A40C2F3821044F8212037
:1077A00003EB8101C2F3C203834238BF0346C2F335
:1077B0004220834202F0070238BF03469A4238BF94
:1077C0001A464A8030BD00BFA030002000300020A3
:1077D00037B5164B93F8203404460BB918B900247A
:1077E000204603B030BD3DF00DFC02AA013042F846
:1077F000080D012301A90E4803F0FAF805460028F8
:10780000EDD12146009A01983DF075F8DDE900239D
:107810001344074803F8015C009903F020F900992C
:10782000034803F035F9019CDAE700BF703200200D
:107830003C610600034BD3E90030C31A584258415B
:10784000704700BF703200202DE9F04F87B0FFF77E
:10785000F1FF0646002840F01B818E4DC5F8180444
:10786000BFF34F8F6868AC6806AF47F8100D204033
:10787000033005EB80003946FFF72CFE029B18B160
:10788000D5F81824002A66D004EA0302991C0133B3
:1078900005EB8202234005EB8303D268DB68049387
:1078A00002F00303022B0392029169D1BDF80E305E
:1078B00079489DF80C604FEA931ABAF1500FD146FF
:1078C00028BF4FF0500969F38F1309F10801ADF893
:1078D0000E3002F02CFFC6F3C2068046002800F0EE
:1078E000BE8002F053FF03A900230822404602F0A5
:1078F00060FF029924EA01070137BF00B94538D972
:107900005FFA89F997B3FFB2A9EB07092140033168
:107910005FFA89FBB946614F05EB810108234A46AE
:10792000404602F046FF37B109F108035A4639468E
:10793000404602F03EFF029B0AF1030A03EB9A0362
:107940000293D5F81834002B50D1D5F81044DFF845
:10795000609107276FE02A689A4204D86A6030462F
:1079600007B0BDE8F08F04EA030081E74B49BB464E
:10797000D4E72140033108234A4605EB8101D7E7CC
:10798000012B6CD1BDF80C604348C6F38311062966
:1079900028BF062161F3891602318900ADF80C6019
:1079A00002F0C5FEC6F3C2068046002857D002F09A
:1079B000EDFE0023082203A9404602F0FAFE00274C
:1079C000BDF80C20C2F38312BB1C97424FEA83031D
:1079D000B7D202994A1C21400331029205EB810182
:1079E0000422404602F0E5FE0137E9E7404602F096
:1079F000D1FEFFF71FFF80F00100C6B2AFE7E368DA
:107A00005A79B2B11B79BDF8101003EB430259F853
:107A1000211007FA02F3052E03EA010323FA02F309
:107A200008BF0326B34204D3236841461B6820469F
:107A30009847E3681C68002CE1D1404602F0AAFE9A
:107A400006A800F8114D00F08DFED5F818340BB9DA
:107A5000029B6B609DF8070000F0A8FEC9E7D5F80F
:107A6000104474B90E4B5B88012BC2D90D4B0E48E4
:107A70000E49C01AC008000440F0020000F072F87D
:107A8000B7E7236820469B689847E3681C68E8E7E7
:107A9000002664E77032002000AA06007C32002035
:107AA0002430002018AA060060AA060048610600DB
:107AB000A03000202DE9F74F284C80460F46924613
:107AC00001A9012218469B46D4F80890FFF720FD33
:107AD00088B3019D0026A91C5E4506EB010234D146
:107AE00000211F4802F037F880F310006A1C02EAF8
:107AF000090204EB8202000405EA0903033340EAA9
:107B00001840D06014F8232068F3C50204F823203D
:107B100034F8232066F3891224F8232054F8232014
:107B2000012167F39F2244F8232061F301026FF3E0
:107B3000820204F8232094F820341BB1FFF784FE5E
:107B40000028FBD103B0BDE8F08F09EA020204EB84
:107B500082025AF82630D3600136BDE77032002029
:107B60008C36002000231A46FFF7A4BF13B502ACE1
:107B7000012344F8042D2246FFF79CFF02B010BDFC
:107B800007B5CDE9002302236A46FFF793FF03B050
:107B90005DF804FB1FB5CDE90123069B039301AA01
:107BA0000323FFF787FF05B05DF804FB1FB5CDE9A0
:107BB0000023069B0293079B03936A460423FFF767
:107BC00079FF05B05DF804FB2DE9F3478046304CA2
:107BD000D01C8A46174601A900228008A568FFF735
:107BE00097FC002840D0DDF80490A66809F1020057
:107BF000019001362840361AB6000330B74204EB34
:107C000080003BD83A4651463CF075FE00212148A1
:107C100001F0A1FF80F3100009F101032B4004EBF8
:107C200083034FEA184242EA0040D86005EA09039C
:107C3000033304EB830214F8231068F3C50104F83E
:107C4000231034F823106FF38F1124F82310518878
:107C500067F38F11518014F82320022161F3010290
:107C60006FF3820204F8232094F820341BB1FFF74D
:107C7000EBFD0028FBD102B0BDE8F087324651464B
:107C80003CF039FEBA1B0AEB060104F10C00BBE71D
:107C9000703200208C3600202DE9F8431F4B8846B7
:107CA000D3F81014054600240A469AB9E9680C7105
:107CB000D3F81014A1B9C3F81054EB681A60184F28
:107CC000184EF61BF6084FF00009B14511D12046B9
:107CD000BDE8F883D2681079A04218D01268E4E7B2
:107CE000C968EA6809681160D3F81034DB681D6060
:107CF000E5E707EBC9034946DA79EB68424528BF57
:107D000042461879FFF73AFD09F10109DDE7013430
:107D10000A2CC9D14FF0FF34D9E700BF70320020E0
:107D200018AA060058AB060010B5037A052B0C46BE
:107D30000FD0437A23B1084A0849204601F0CEFF0C
:107D40000749204601F0CAFF2046BDE8104001F077
:107D5000BABF002AF8D0F3E7A3610600DF7E060071
:107D6000C561060073B5C38804460D4633B1144A95
:107D700000921449144A284601F0B0FF217A0529DF
:107D80001CD0637A4BB1A088FFF7E2FC0F4B10497F
:107D900053F82020284601F0A1FF227A0D4BA0883D
:107DA00053F822600021FFF7BFFC0B49034632461F
:107DB000284602B0BDE8704001F090BF02B070BD2F
:107DC000A3610600B0610600A861060070610600AC
:107DD000DF7E0600D4610600C86106002DE9F0438D
:107DE00085B01F460C9D002306460C46904695F82C
:107DF0000C902B7329463846FFF7B4FFB8F1060FF5
:107E000009D8DFE808F00412181F28334000314673
:107E1000284601F063FF002229463846FFF784FF19
:107E200085F80C9005B0BDE8F083226831462846FD
:107E300001F054FFEFE7D4E900233146284601F072
:107E40004DFFE8E7A36800933146D4E900232846B4
:107E500001F044FFDFE7E3680193A3680093314634
:107E6000D4E90023284601F039FFD4E723690293BF
:107E7000E3680193A36800933146D4E900232846C0
:107E800001F02CFFC7E76369039323690293E3685A
:107E90000193A36800933146D4E90023284601F0FA
:107EA0001DFFB8E708292DE9F84F80460E46174612
:107EB0001C4635D8002593F80C901D7319461046C2
:107EC000FFF750FFDFF88CA0DFF88CB0AE4229D965
:107ED00018F805205946204601F000FF0135082D0D
:107EE000F4D11A49DFF874B0204601F0F7FE4FF0E4
:107EF000000A564524D918F80A507E2D17D92E228B
:107F00005946204601F0EAFE0AF1010ABAF1080FCB
:107F1000EFD1012221463846FFF706FF84F80C9086
:107F2000BDE8F88F5146204601F0D8FED6E73CF078
:107F3000B3FC2844427812F0970FE0D02A46DFE7DE
:107F40000349204601F0CAFEDEE700BF9E6106003D
:107F50009C6106009A61060094610600A06106001B
:107F6000C30710B507D4F0234008054A145C23402A
:107F70001943115410BD0901C9B20F23F4E700BF22
:107F80004037002030B5094B1C78094B1968002395
:107F90009C4202DC0022104630BD11F8335085426D
:107FA00001EBC302F7D00133F2E700BF2C3700200A
:107FB0006037002070B504460D46FFF7E3FF30B18F
:107FC000436823B129462046BDE87040184770BD7C
:107FD000034B044819680022490800F0D0BA00BFDA
:107FE00030370020082B002010B5C0B2FFF7CAFFC1
:107FF0000446007803F066FF63785A1E53425341EB
:10800000834208D1044BD3E90023134303D1BDE8D5
:108010001040FFF7DDBF10BD383700202DE9F348D1
:10802000394A43080446D35CC2074CBF1B0903F01E
:108030000F030D46042B39D8DFE803F00328303D49
:10804000410099B30121FFF78BFF02A8002600F839
:10805000016D00F087FB2D4D0121A4F12007C4F133
:10806000200001FA07FC21FA00F04CEA000C01FAAA
:1080700004FBD5E900014BEA00024CEA0103C5E923
:1080800000239DF8070000F091FB0FE0002914BFCA
:10809000022100212046FFF763FF07E049B10321D9
:1080A000FFF75EFF01212046FFF784FF02B0BDE825
:1080B000F0880121EEE70029F8D10421EAE709B1AF
:1080C0000321E7E7FFF74CFF29462046FFF772FF41
:1080D00002A80E4E00F8015D00F044FBA4F1200759
:1080E0000121C4F1200001FA07FC21FA00F04CEA5A
:1080F000000C01FA04FBD6E9000120EA0B0221EA98
:108100000C03C6E90023BCE74037002038370020C5
:108110002DE9F041124E134F00243378A34208DCBE
:10812000114BD3E90023134318D0BDE8F041FFF70A
:108130004FBF3D6805EBC40815F8340003F0C2FEDC
:1081400098F801104B1E594259410A1A514215F82C
:1081500034005141FFF762FF0134DEE7BDE8F081F2
:108160002C3700206037002038370020092AF7B567
:1081700005460C4616463FD903F0CAFDD8B11F4B41
:108180001F481D601F4B204F1C70204B00212022D8
:108190001E603CF0D4FB1E4B00200021C3E900010F
:1081A000013CE4B20326FF2C0BD11A4A1A480021E5
:1081B00000F0DAF903E003F075FD0028DFD003B02A
:1081C000F0BD9DF806308DF8046020B203F0FC038A
:1081D00005EBC0026FF382038DF80630937815F833
:1081E00030008DF805303A4601A903F09BFD013CB3
:1081F000E4B20028D7D0E2E70720E0E760370020AC
:10820000403700202C370020E97F02003037002063
:1082100038370020118102003C62060070B5084D1D
:10822000084E00242B789C4201D3002070BD336897
:10823000012113F8340003F0FBFD0134F2E700BF25
:108240002C370020603700201FB50021039001AAC1
:1082500044F20100CDE9011102F08BFD05B05DF89B
:1082600004FB000012F0030310B511D1094C226089
:108270004C1CE400A4B22244074C2260074A13704D
:10828000074A1370074A1080074A1846118010BD2C
:108290000720FCE76C370020683700206437002097
:1082A0007437002070370020723700202DE9F34723
:1082B0002B4D2B888B4206460C4617464BD302A803
:1082C0004FF0000800F8018D00F04CFA254B264ACB
:1082D00018781178CBB2254909888B4238BF013311
:1082E000C0B238BF5FFA83F840452ED092F80080C4
:1082F0001378DBB2994286BF0133DBB200231370DF
:108300009DF8070000F052FA4FF6FF73984524D00D
:10831000DFF860A0DAF800304FEAC80903EB090281
:1083200043F83870A6B19CB1114B28881B682246CF
:1083300008FB003031463CF0DEFADAF800304B44FE
:1083400000209C8002B0BDE8F0874FF6FF78D7E7A9
:1083500000209080F6E70920F4E70420F2E700BF50
:1083600070370020743700206437002072370020F7
:10837000683700206C370020F8B5124C124D2646A5
:1083800022782B789A4200D1F8BD23780F48104A02
:10839000078812680F48DBB219B202EBC10C006803
:1083A00052F83120BCF8041003FB070090470A4A3A
:1083B00023781288DBB29A4286BF0133DBB20023F6
:1083C0003370DDE7743700206437002070370020F9
:1083D0006C3700206837002072370020D0E9022374
:1083E000D1E90201994208BF90422CBF0120002030
:1083F0007047D0E9003018472DE900480C4800F0DC
:1084000021FB0C4BD3E9002312EB000B43F1000CD2
:10841000094BD3E900239C4508BF93455846614664
:1084200003D21BF180704CF10001BDE8008800BF51
:10843000442B002080370020E837002037B5054660
:108440000C460A4801A901F0BAFA60B1057044600F
:1084500001A9064801F0DDFA18B1054800F0F6FA66
:10846000002003B030BD0420FBE700BF302B00200C
:10847000442B00202DE933481F4B1D780446002D66
:1084800033D0002835D090F8203003F0FF0563B3D7
:10849000FFF7B2FFD4E90223994208BF90421ED3EE
:1084A00023690BB984F8203063690093134AA369E8
:1084B000019308216846FFF7F9FE08B1FFF7C4FEF3
:1084C000216989B194F8203003F0FF056BB1D4E93C
:1084D000022312EB010B43F1000CC4E902BC21465C
:1084E000074802F0FEFA00E00D46284602B0BDE85B
:1084F00030880546F9E700BF88370020F383020083
:108500007462060013B5114B1149186801900823D5
:108510005822104801F01EFA044698B90E4A0F4836
:1085200001A900F067F9044660B901210B4800F089
:1085300069FA01230A4A0948194600F0C7F9094BAC
:1085400001221A70204602B010BD00BF7062060002
:108550008C370020302B0020CD850200442B0020DA
:10856000FFFF7F00883700203AB103685A614A1E36
:10857000514251411961002070470720704738B5BA
:1085800090F8203004460D4683B98261FFF734FF2E
:10859000421941F10003C4E90223236903B12561B3
:1085A00021460020BDE83840FFF748BF002038BD15
:1085B0000023014680F820300120FFF73FBF000074
:1085C000014800F03FBA00BF442B00202DE9F74FCF
:1085D000064600F020FA40B15A49D1E9002312F1D1
:1085E000807443F10005C1E900450021304600F0E8
:1085F00022FA38B1544C236823B12068FFF73AFFC0
:10860000002323600121304600F015FA20B1FFF766
:10861000F3FE4E4BC3E9000101A94D484A4D4D4CB4
:108620004D4F01F006FA002845D1DFF828A1464C4D
:10863000DFF82CB1504602F06AFA2368002878D09F
:1086400083B12368D0E90201D3E90223994208BF2C
:1086500090422DD2236893F820301BB121685046F8
:1086600002F03FFA504602F04CFAD0E90289074680
:10867000FFF7C2FEB8EB000869EB010940464B4624
:10868000012873F1000347DB344DA84542D9FFF7B9
:1086900097FF42194FF496030021584600F03AF92B
:1086A000002841D1236813B9304600F007F927604C
:1086B00003B0BDE8F08F0378012B20D00BD3022B41
:1086C00014D14FF00008204602F01BFA002836D0E3
:1086D00080F82080F7E7436893F8202032B9012220
:1086E00083F820204168204602F0FBF901A91848D0
:1086F00001F0CAF901A9164801F09BF993E7416816
:108700002B68994202D100232B60EFE7204602F04C
:1087100001FAEBE7BA68BDE70021584600F080F99E
:108720003846FFF7A7FE01E00D28F9D000232360AB
:1087300080E7002BBCD1304600F0C4F8B8E7012335
:108740003B70D3E780370020F0370020E837002067
:10875000302B00207462060088370020FFFFB40031
:10876000442B002070B5EFF3108672B60C4A946863
:1087700001239CB993600B4B0B4DD3F8801029401B
:108780001160C3F88050D3F8841051604FF0FF326D
:10879000C3F88420047006B962B670BD0370FAE7AE
:1087A000E471002000E100E0FC06FFBD10B5084BBD
:1087B0009A685AB150B9EFF3108172B6054A1C6835
:1087C00014605C685460986001B962B610BD00BF67
:1087D000E471002000E100E0435882B03BB1002387
:1087E000435043580193019B012002B07047184643
:1087F000FBE7000070B5284C4379284D44F823204E
:10880000274C04EBC3031B7973B16B88012B09D987
:108810002448254B2549C01AC008000440F0020036
:10882000FFF7A0F9082070BD03680A88C3F808257F
:1088300090F904308A78002B4FEA4212AFBF03F15F
:10884000604303F00F031A49D2B2A9BF03F5614395
:10885000CA54D2B283F8002390F9043015495E0956
:10886000012203F01F0302FA03F341F82630437993
:1088700004EBC30144F833006B880A71022B09D959
:108880000848094B0C49C01AC008000440F0030016
:10889000FFF768F90020C6E7FC3700202C300020E5
:1088A000F437002070AA060018AA0600A662060087
:1088B00014ED00E000E100E0C86206000368012258
:1088C0001A607047036801225A607047F7B505685F
:1088D0004FF480348C40C5F808430568C5F8484318
:1088E0008D0005F5A0750668ADB200277751755962
:1088F0000195019D056801F5A87122F07F4245F8B8
:1089000021200268C2F8444313B10368C3F804434A
:1089100003B0F0BD2DE9F34799464FF48038036862
:1089200008FA01F8C3F848830368C3F8088322F003
:108930007F4502688E000F46D2F80415324406F5D2
:10894000A076D2F84035C2F84015B6B202684FF0B2
:10895000000A42F806A05B1A9259009223F07F4366
:10896000012B0446009A0BD1254B4FF4806043F055
:1089700001039847236843F806A09B590193019B84
:108980002368D3F80465C3F84483AB1B23F07F430B
:10899000012B07F5A877236819D1013543F8275033
:1089A000174B4FF4806043F0010398472368D3F8D6
:1089B00004359E4209D12368C3F84483236800200C
:1089C000C3F8048302B0BDE8F0870D20FAE743F84E
:1089D00027502068D0F804156A1A013AC9F1FF132C
:1089E00022F07F4203F57F439342EED3002AE2D187
:1089F000013540F827502368D3F804359942D9E768
:108A0000A062060002680223C2F8443311B1026872
:108A1000C2F8043370474FF482710068FFF7DCBE80
:108A20004FF4803303FA01F10368C3F84813036875
:108A3000C3F808137047890001F5A07189B2006876
:108A4000FFF7CABE0368D3F80405704790F90430F5
:108A500001215A0903F01F0301FA03F340320249CE
:108A600041F82230704700BF00E100E0024B034AAA
:108A70001B681068184700BFFC370020F43700203F
:108A800070B5064E0546002456F824300BB1284632
:108A900098470134042CF7D170BD00BF0C3800207A
:108AA000033080B240F2FE33984230B51FD8134BEA
:108AB0001A783AB91C895D892C440444A4B2B4F5EF
:108AC000806F0AD91A7DAAB99A8BDC8B22440244A2
:108AD00092B2B2F5806F0DD801220A80144614229A
:108AE00002FB04335A8910445881002030BD48F2FB
:108AF0000860FBE748F20660F8E700BF4038002056
:108B00000B4A0C4B5188142000FB0131CB6833B960
:108B10000420496810700122074801F09DBB05231D
:108B20000649137002238B80012200230968F3E7B2
:108B30002438002040380020D82F0020F8380020AA
:108B400007B5002305490093054A0968054808232D
:108B500001F0C2FA03B05DF804FB00BFF838002052
:108B6000E8620600D82F002007B5002300930146D5
:108B70000823034A034801F0AFFA03B05DF804FB91
:108B8000E0620600D82F002013B500230C460093A6
:108B900001460423074A084801F09EFA38B9074BFA
:108BA000142202FB04340123237402B010BD48F2E6
:108BB0000D60FAE7DC620600D82F00204038002064
:108BC00037B50A480A4B42689C88196853880325C0
:108BD000033305709BB2002000909B0001EB8401E1
:108BE000044801F079FA03B030BD00BF24380020FA
:108BF000F8380020D82F002010B50146044800F0B6
:108C0000DEFE1C22044600213BF099FE204610BDEA
:108C10004C2B00204388033300EB830399420BD392
:108C200082884FF6FF739A4208D0038833B1806878
:108C3000431C58425841704702207047012070473A
:108C40002DE9F8430223DFF860800B800D461746BC
:108C500000F5805600F108044FF00109B4420FD22C
:108C6000236801330CD031462046FFF7D3FF48B1CB
:108C70000FB187F8009002280BD14FF480632B804E
:108C8000BDE8F883A368D8F80020934201D9C8F85A
:108C900000302B886288033313442B8063880333AE
:108CA00004EB8304DAE700BF3838002070B5144ABB
:108CB000142303FB00200B6844680D4604F580561E
:108CC0009BB15C88033403EB8404B4420BD2236869
:108CD000013308D031462046FFF79CFF012809D018
:108CE00005D30228F1D1002003E00834EDE72C6021
:108CF000012070BD6388033304EB8304E5E700BF04
:108D00004038002073B5436805460C4673B3254AC6
:108D1000D1688B422AD31269934227D813F00302F9
:108D200024D121490089098988421FD1286899687E
:108D300088421BD11D494868834203D900F5805001
:108D400083420ED38A6993420DD902F58052934231
:108D500009D2012323800020B0FA80F0400902B03C
:108D600070BD1346F6E748F20960F5E7002323805B
:108D70001E462388012B01D90020F0E7019601A9A6
:108D80002088FFF793FF18B9238801332380F0E789
:108D9000019B2A6899689142F1D16B60024B1B8953
:108DA0002B81DCE7D82F0020243800204038002019
:108DB0002DE9F8431C46204B1B7806460F46154606
:108DC000002B33D0002A34D0002C32D0DFF8708052
:108DD0004FF01409A388012B02D948F209601BE067
:108DE00009FB03F318F80330C3B1A3880133A38050
:108DF000F0E723681EB19988328891420ED11FB1E5
:108E000019883A88914209D19B682B6023686B606E
:108E10000A4B1B892B810020BDE8F8832146A088DE
:108E2000FFF744FF0028E4D12060DEE748F201604C
:108E3000F2E748F20460EFE71C38002024380020F5
:108E40004038002008B5074B191D5888FFF72EFF42
:108E500018B1BDE80840FFF7B3BEBDE80840FFF712
:108E60004FBE00BF243800202DE9F04FA34FDFF89C
:108E7000B09289B00646B8463B6823B94946A04837
:108E800000F0D7FD3860D8F8005029784B1E052B2C
:108E900000F21781DFE813F00600780078000B017C
:108EA0000B0165012EB1974B00225A604FF4064426
:108EB00025E02B79032B1DD8DFE803F01502434E84
:108EC00091490B78022B084632D00B7D022B4FF0D4
:108ED00001032FD114225343C2180020C8545068F4
:108EE000FFF742FE03E001232B71FFF729FE002864
:108EF00000F0D780834B00225A6048F20D641422A0
:108F0000002103A83BF01BFD41F61D539C4208BF06
:108F10000024D8F8003004941A78023A042A00F2A7
:108F2000D981DFE812F0BA01C601E901F101F801C7
:108F30000023CFE7734A13700023536041F61D549A
:108F4000DDE772497248002302222B718A800122D8
:108F5000096801F081F9CAE76C4C00262E7120687F
:108F6000694DFFF701FE6B4BD4F800C05A881423FB
:108F70005343EA18EE5451682160A188C2F804C036
:108F800011810222A280B2E7B5F814A0AA7DDFF811
:108F900078B11423AEB1022A06D903FB0AB3EA88DA
:108FA000198903320A441A81142303FB0ABAEB8895
:108FB000BAF80A20C3F57F43FD331344AAF80A30F8
:108FC00074E703FB0AB318895C6804EB8004062A83
:108FD00005D8DFE802F0284F37451E5B690048F2EC
:108FE0000E64AB7D022B07D9142202FB0AB2EB8878
:108FF000118903330B441381142303FB0ABAEB8852
:10900000BAF80A20C3F57F43FD331344AAF80A30A7
:1090100075E74148414900234360AB690360FFF7AE
:1090200071FE00285CD00223AB750023009304235B
:10903000EA182146364801F04FF8002831D048F2AE
:109040000D64CEE72B69002B0CBF01230323AB7506
:109050000023009305F10C02042304F10801E9E761
:109060000123AB750022EB8800929B002A6904F172
:109070000C01DFE7032914BF06230523AB7500238A
:109080000093042305F10802E118D3E70623AB752A
:10909000224B1988204B5868FFF776FD04460028BC
:1090A0009FD109B0BDE8F08F41F61D5499E7002E1D
:1090B0007FF4FCAE2B79012B34D005D3022B3FF487
:1090C0003DAF48F20E641AE702232B71CDE9046626
:1090D0000DF10A01EB68039303A8FFF713FE10B923
:1090E00048F209640BE70498BDF80A108388EB8006
:1090F00003882B81FFF748FD044628E03C38002018
:109100004C2B00201C38002040380020F83800206C
:10911000D82F0020243800200038002004390020F7
:1091200034380020DFF80CA203AA53463146A81DAC
:10913000FFF73EFE044670B9BAF804100498FFF732
:1091400023FD044648F209639C423FF4F7AE002C2D
:109150007FF4D5AEA5E70822314650463BF0EFFB41
:10916000F0E7002E7FF4A2AE6D4B1A7BB2B11E73F6
:109170001A78013A062AA4D801A151F822F000BFBA
:10918000279202004D9202006B920200719202003F
:10919000C3900200779202008D9202001A78072A8B
:1091A000E6D801A151F822F0C991020071910200A4
:1091B00071910200EF9102000392020023920200DB
:1091C00023920200EB9102001A89564901321A815A
:1091D00000225A801A730A78B2FA82F252099A72FD
:1091E0000A7DB2FA82F25209DA72012207E04E4990
:1091F00058688A884088033202448A8002221A70A2
:10920000B6E7484C5A884849142505FB02420868CD
:10921000546850608888108102228A800C6006227F
:10922000EDE70722EBE79A7A32B9DA7A8AB90022B7
:109230001A705A805A6081E63A4900229A72CA68C6
:10924000002AF2D1097C0029EFD05A80FFF7FAFDFD
:1092500052E70022DA72334A116A0029E7D192F804
:109260002420002AE3D00122EFE7FFF7A9FC43E71F
:10927000FFF746FC40E706221A702A4A5B88142151
:1092800001FB03235868FFF76FFC35E707221A70CC
:1092900000225A60FFF754FC2EE701228DF80C20C3
:1092A0001A89ADF818209A88ADF81A20DB68059362
:1092B00010E002228DF80C201A89ADF818209A8847
:1092C000ADF81A20DA6805929B7D9A1F53425341EC
:1092D0008DF81C3003A8FFF7D3FB0026494613483E
:1092E000C8F8006000F0D0FB0121114800F07FFCBD
:1092F00000287FF4C1ADD4E603228DF80C20DA8873
:10930000ADF818201A89CFE704228DF80C20DB88ED
:10931000ADF81830DEE705238DF80C30DAE700BF32
:109320002438002040380020F83800204C2B002042
:10933000F4380020083900204068FFF795BD000090
:1093400008B50121044800F03CFC18B9BDE808400C
:10935000FFF78ABD08BD00BFF43800202DE9F341B6
:109360009846364B1B7806460D46002B5AD00029EE
:109370005BD009884FF6FF73994259D06B88002B58
:1093800056D06B689B0756D14AB92F890DF102015F
:109390003846FFF785FB30B102B0BDE8F081138895
:1093A0005788ADF8023001A8FFF726FC044660B9E3
:1093B000BDF80230224A142101FB032358890338E7
:1093C000C01B588148F20760E6E780F80080002360
:1093D0008375BDF8023083826B68036101211948EF
:1093E00000F0FAFBE0602B8823816B88A380B8F142
:1093F000030F04BF0423A375E78004BF3368A36190
:109400000025658101A9104800F003FB36B17560A5
:10941000E36833600D4BB5721B893381FFF790FF12
:109420000020B9E748F20160B6E748F20460B3E70C
:1094300048F20360B0E748F20260ADE71C38002054
:1094400040380020383800204C2B002024380020E1
:1094500008B5084B1A68042A09D01968064A42F868
:1094600021000121184600F0B7FB002008BD48F29A
:109470000B60FBE7003900200C3800202DE9F04F8D
:1094800089B01422002103A83BF059FA794A1378D5
:10949000914603F0FF0B3BB103A8FFF7F1FA002759
:1094A000384609B0BDE8F08F101D00F0ABFB054653
:1094B0000028F4D140F6F8734FF080521B685C1C12
:1094C00008BF6D4B6D4C08BF1B6811695269581C71
:1094D00008BF02FB01F3A3F510422261A3F540434C
:1094E00000226749E360204600F0BAFD0094074679
:1094F0000028D5D11C238C2262496348634E00F0BA
:1095000029FAB8464FF0030A3C46009BD86858F841
:10951000003018EB00002ED05D4A934240F0A78047
:1095200042685C498A4214D001318A4223D15A4BA5
:10953000BBF1000F60D10022584918600193FFF77A
:109540007FFB019B9B88022B14BF082304231D4330
:1095500035E01421614373180022725401F11002A6
:109560000831586032443144FFF76AFB45F0020588
:109570000134A4B223E05A1C02D0454A934230D1B0
:10958000031D00F580511A6801322AD10433994233
:10959000F9D1414B1A682AB9022218609A804FF01B
:1095A000010B0AE0142363430221F218F1543C4BEF
:1095B00050605C8001341181A4B245F0010508F5CA
:1095C0008058B8F5405FA0D1BAF1010F98BF0025CF
:1095D000EDB2022D02D0062D1ED03DBB48F20A6727
:1095E0005EE714236343F2180AF1FF3A5060032246
:1095F0001FFA8AFAF254BBE714226243B1184FF003
:10960000020C06F802C01A684A60254AA1F808C090
:1096100054800134A4B28EE7012389F8003003A8F6
:109620000023C9F80430FFF72BFA39E702A8FFF747
:10963000E3FAC8B10123013D03700A2D09D8DFE820
:1096400005F006080608070807080F110F00002399
:10965000037102A90C4800F0DCF9FFF771FE1FE767
:109660000323F5E70223F3E748F2076718E701331E
:1096700085E700BF1C38002014100010D82F0020F0
:10968000EC640600683800204C2B00204038002095
:10969000DEC0ADDEFE011EF1F8380020FC380020EF
:1096A0002438002073B50D460446C8B1C1B10DF190
:1096B0000601FFF727FBB0B10C4BBDF8060066684A
:1096C000142202FB003001210C3000F085FA2E60DC
:1096D00063680C336B600123A372002002B070BD7D
:1096E00048F20460FAE748F20960F7E740380020E2
:1096F00013B50446A8B10DF10601FFF703FB98B1BD
:109700000C4ABDF80630142101FB0323DA6872B15C
:10971000A27A62B1DA680020013ADA60A07202B07F
:1097200010BD48F20460FAE748F20960F7E748F232
:109730000560F4E74038002002230022FFF70EBE48
:1097400018B103230022FFF709BE48F204607047F6
:1097500013B5114B1B780446ABB14FF6FF7398421B
:1097600014D001A8FFF748FA98B10523037001232C
:109770000371C48001A9094800F04BF9FFF7E0FD2F
:10978000002002B010BD48F20160FAE748F2036021
:10979000F7E748F20760F4E71C3800204C2B002064
:1097A00007B50F4B1B78A3B101A8FFF725FA98B1B5
:1097B0000623037001A90B4800F02BF90A4B1A7815
:1097C0000AB101221A73FFF7BBFD002003B05DF858
:1097D00004FB48F20160F9E748F20760F6E700BFD2
:1097E0001C3800204C2B00202438002007B5ADF891
:1097F000060002A820F8041D01460DF10600FFF73F
:10980000D7FA03B05DF804FB13B502AC134624F895
:10981000020D0A4600202146FFF7CAFA02B010BD29
:1098200013B502AC134624F8020D0A462046002167
:10983000FFF7BEFA02B010BD20B119B103680B608A
:109840000020704748F20460704700002DE9F74F90
:109850003D4B1B780446002B70D0002871D012229B
:1098600000213A4E3BF06BF80323394A238000274E
:10987000B1464FF014084FF0010A338971897068BE
:109880000B449BB250B10168914207D1416801F18C
:109890006E6101F5FF310231012902D921880139B8
:1098A000218008FB07916088C96801446180708944
:1098B000218901442181618919446181C3F5806353
:1098C000A1899BB2994238BFA381736803F108054F
:1098D00003F5805BAB4518D92968013115D059468D
:1098E00028460192FFF796F90128019A15D021D355
:1098F0000228EFD1E18884F810A0ABEB0503E589DD
:10990000013105EBA305E180E58114361FB100208C
:1099100003B0BDE8F08F0127AFE7E1880131E180B6
:10992000E189688803310144E1816988033105EBED
:109930008105CFE7A1880131A180F6E748F20160F7
:10994000E6E748F20460E3E71C38002040380020D6
:10995000DEC0ADDE10B561B1B2FBF3F403FB14243D
:10996000A4B244B9C0E9001484608281C381204656
:1099700010BD0E20FCE70920FAE782B050E8022F64
:10998000C188B2EB324F4FF0000317BF92B241EAE9
:10999000014142EA014104E04268B2EB324F08BFA4
:1099A000012340E80212002AE8D18DF807309DF823
:1099B0000730002B0CBF1120002002B0704737B5D4
:1099C00050E8013F9DB2C48925448489A54228BF3F
:1099D0002D1B0489A54202BFBFF32F8F002207E091
:1099E000C5EA030540E80154002CE9D14FF001021B
:1099F0008DF803200193019B9DF803200B6002F07A
:109A0000FF0322B10B880068184403B030BD18462C
:109A1000FBE70A884B889A4209D150E8012FC2EA35
:109A2000024240E80123002BF7D1012070470020BB
:109A3000704737B550E8023F1FFAA3F5C488A54226
:109A400002BFBFF32F8F00220DE0C4892544848913
:109A5000A54228BF2D1BC3EA054540E80254002C4F
:109A6000E8D14FF001028DF803200193019B9DF88E
:109A700003200B6002F0FF0322B14B8800681844FA
:109A800003B030BD1846FBE70A884B889A4209D1DB
:109A900050E8022FC2EA224240E80223002BF7D10D
:109AA000012070470020704701F01F024B0901217F
:109AB000914000EB830000F063B84B0910B501F052
:109AC0001F040121A14000EB830000F04EF8E040AC
:109AD00000F0010010BD01F01F0301229A404B0964
:109AE00000EB8300D14300F061B84B0901F01F0186
:109AF00050F82300C84000F0010070472DE9F047FE
:109B00004E1E760980460F460136002558F825403E
:109B100008EB850AE44394FAA4F4B4FA84F44FEA17
:109B20004519202C06D10135AE42EFD83C462046DF
:109B3000BDE8F0874C44A742F5D921464046FFF7DF
:109B4000BCFF0028F3D0DAF80040E44394FAA4F410
:109B5000B4FA84F4E5E750E8002F0B4640E8003CF7
:109B60009CF0000FF7D11046704750E8002F42EAF2
:109B7000010340E8003C9CF0000FF6D1104670470E
:109B800050E8003F43EA010240E8002C9CF0000F3F
:109B9000F6D11046704750E8002F02EA010340E872
:109BA000003C9CF0000FF6D11046704750E8003F93
:109BB00003EA010240E8002C9CF0000FF6D11046A9
:109BC000704750E8002F02EB010340E8003C9CF096
:109BD000000FF6D11046704750E8003F03EB01023A
:109BE00040E8002C9CF0000FF6D11046704750E87A
:109BF000003FA3EB010240E8002C9CF0000FF6D1DF
:109C0000104670470121FFF7B0BF0121FFF7B8BF31
:109C10000021FFF7C0BF0021FFF7C8BF10B590B10A
:109C2000D0E9012301689B1ADBB20A60013BDBB279
:109C3000FF2B026802D10020107110BD11684C1C6E
:109C400014600B70F2E70E20F7E737B5054602A85F
:109C5000002400F8014DFEF785FD2A686968136845
:109C60008B4210D9591E116013F8014CAA8AEB6877
:109C700002FB04342A68AB6811685B1A1179DBB205
:109C8000994238BF13719DF80700FEF78FFD2046FB
:109C900003B030BD37B5054602A8002300F8013DEA
:109CA0000C46FEF75FFD2A681368591C1160E968CD
:109CB000641AA98AB4FBF1F41C709DF80700FEF742
:109CC00075FD03B030BD10B5826804462AB1436902
:109CD0000168006998470023A36010BD0EB403B566
:109CE000039929B102AA04AB42F8043D00F072F8CE
:109CF00002B05DF804EB03B070470A2938B504469A
:109D00000D4602D10D21FFF7F8FFA3682268591C08
:109D1000A160D554D4E901329A4204D32046BDE86B
:109D20003840FFF7D0BF38BD2DE9F84F9946DDE93F
:109D30000A431746824688460A460126BA420FD28F
:109D40004E4538BF4E4613F0010B01D164B90024D3
:109D50000125B9F1010F1AD909F1FF397D43F8E75F
:109D6000B2FBF7F20136E9E79B070ED5B9F1000F18
:109D70000CBF30252025A642EAD2013C2946504698
:109D8000FFF7BBFF002CF6D1E1E72025F3E7B8FB96
:109D9000F5F39F42E2D9DFF83890B8FBF5F350466F
:109DA00019F8031005FB1388FFF7A7FFB5FBF7F5BC
:109DB000002DF2D1BBF1000F02D00CB1A64201D3AD
:109DC000BDE8F88F20215046013CFFF796FFF4E7ED
:109DD000FF6206002DE9F74F054690460E46002922
:109DE00000F03A8116F8011B002958D0252940F0CF
:109DF000D180002702E047F001071646324612F8EC
:109E0000013B2D2BF7D0302B04D02B2B05D147F065
:109E10000407F2E747F00207EFE700242A2B06F1D8
:109E200001021BD1D8F80030191DC8F800101B68BA
:109E300016461C4433782E2B1CD101364FF0000AF5
:109E4000314611F8012BA2F13000092814D80A2359
:109E500003FB0A23A3F1300A0E46F1E712F8013C96
:109E6000A3F130010929E5D80A2101FB0434303C73
:109E70001646D3E74FF0000A324612F8011B01F0F4
:109E8000FB0068281646F8D0692916D054D85829FE
:109E900070D00ED825297DD03378002BA2D12B7B12
:109EA000002B00F0D980284603B0BDE8F04FFFF743
:109EB0000ABF632968D06429EED1D8F80020111DAB
:109EC000C8F80010D2F8009089EAE972A2EBE972B2
:109ED0004FF0010B092A61DCD34538BFD3462CB1C2
:109EE000B9F1000F01DB790700D5013CBA0702D5B3
:109EF000BAF1000F04D0FB0702D4002C54D1002487
:109F0000B9F1000F58DAC9F100092D212846FFF7F1
:109F1000F4FE07F00302022A05D1BAF1000F02D1C4
:109F2000002C4DD10024CDE9004753460A22494672
:109F30002846FFF7F9FEAFE7732954D016D87029E9
:109F4000AAD1D8F800301A1DC8F8002030212846C0
:109F50001C68FFF7D2FE78212846FFF7CEFE0022CC
:109F60000823CDE9003221461022E1E775292FD0E0
:109F7000782991D1D8F800100A1DC8F80020CDE941
:109F80000047534610222CE0D8F800301A1DC8F8BC
:109F9000002019782846FFF7B0FE7DE70A230BF171
:109FA000010B92FBF3F295E7A345A9D220212846A5
:109FB000013CFFF7A2FEA0E77807AAD52B21A5E771
:109FC000A345B0D230212846013CFFF796FEA7E713
:109FD000D8F80010CDE900470A1DC8F80020534604
:109FE0000A220968A4E7D8F800301A1DC8F8002032
:109FF000F907D3F8009012D54F46A7EB090B17F8D5
:10A00000011B41B9A345BFF447AF20212846013CBD
:10A01000FFF773FEF6E72846FFF76FFEEDE7B9F1AD
:10A02000000F17D048463AF0EDFF0746BC4200D972
:10A0300054B909F1FF3919F8011F00293FF42CAF79
:10A040002846FFF75AFEF6E720212846013CFFF795
:10A0500054FEEBE74F46E9E703B0BDE8F08F0000A0
:10A0600007B50B46A0B9154B5B886BB1144B15486F
:10A07000154AC01A0E23C0080093144B000414495B
:10A0800040F00100FDF786FD0E2003B05DF804FBF3
:10A090006BB90A4B5B88002BF6D0094B09480D4A77
:10A0A000C01AC0080E2300930004084BE7E70360C2
:10A0B0001B68114603B05DF804EB184758300020C8
:10A0C00018AA0600C8AA0600BC6306000F630600B3
:10A0D000C1630600386406002DE9F3419646B0B925
:10A0E000504B5B88002B00F095804F4B4F48504AF7
:10A0F000C01AC0080E244F4B009400044E4940F093
:10A100000100FDF747FD204602B0BDE8F0816AB9C5
:10A11000444B5B88002B7DD0434B4448474AC01AD0
:10A12000C0080E2400040094424BE7E7D0F800C0BA
:10A13000BCF1000F0DD13B4B5B88002B6CD03A4B30
:10A140003A483F4AC01AC008082400040094394B1A
:10A15000D4E76BB9334B5B88002B5FD0324B33486D
:10A16000384AC01AC008092400040094314BC5E7DE
:10A170004768D7F80480B3FBF8F708FB17376FB1CF
:10A18000284B5B88002B49D0274B28482E4AC01A01
:10A19000C008092400040094264BAFE78F070DD0B8
:10A1A000204B5B88002B3BD01F4B2048274AC01A0E
:10A1B000C0081024000400941E4B9FE712F0030F08
:10A1C0000CD0184B5B885BB3174B1848204AC01A59
:10A1D000C008102400040094164B8FE7C768B942EA
:10A1E0000BD34C1E05691C44AC4206D8DCF80C406D
:10A1F000A44602B0BDE8F04160470A4B5B887BB1E2
:10A20000094B0A48134AC01AC008102400040094DD
:10A21000084B73E70E2476E7082474E7092472E7F5
:10A22000102470E75830002018AA0600C8AA0600BB
:10A23000BC63060021630600C16306003E6406009D
:10A2400032640600F1630600446406006E64060092
:10A2500086640600A9640600F7B5A0B9374B5B8891
:10A26000002B63D0364B3748374AC01AC0080E243B
:10A27000364B00940004364940F00100FDF78AFC9B
:10A28000204603B0F0BDD0F800C0BCF1000F0DD1E6
:10A290002A4B5B88002B4BD0294B2A482D4AC01AE9
:10A2A000C008082400040094284BE4E76AB9234B53
:10A2B0005B88002B3ED0224B2248274AC01AC00898
:10A2C000092400040094214BD5E74768D7F800E043
:10A2D0000EF1FF370F420CD0184B5B8863B3184B5D
:10A2E00018481E4AC01AC008102400040094174BD6
:10A2F000C1E7C768B9420CD34C1E05690EFB024486
:10A30000AC4206D8DCF81040A44603B0BDE8F040EB
:10A3100060470A4B5B887BB1094B0A48104AC01A58
:10A32000C008102400040094084BA4E70E24A7E7FB
:10A330000824A5E70924A3E71024A1E7583000204A
:10A3400018AA0600C8AA0600BC630600346306000B
:10A35000C163060032640600F1630600476306002D
:10A360006D63060029DF704728DF704770B5056808
:10A37000AB6886B004460E4673B1142200216846CD
:10A380003AF0DDFAA36805932379019633B1012BE6
:10A390000ED0AB686846984706B070BD01238DF8B3
:10A3A000003023690293E368039363690493F0E741
:10A3B00002238DF80030E3681B030293F5E708469B
:10A3C0007047002070470000024B187A003018BF19
:10A3D000012070479C390020034B187A0122B0FA03
:10A3E00080F05A74400970479C39002008B5104627
:10A3F0001A463AF080FA002008BD000008B5142281
:10A40000002104483AF09BFA0348FFF7B6FA00200F
:10A4100008BD00BF9C390020602B002010B5094CFE
:10A42000094B43602046FFF7EDFB40B908F09CFC68
:10A430001C2320748C2205490548FFF78BFA002065
:10A4400010BD00BF9C390020E064060010390020D8
:10A45000602B002070B5244D244E2B7A2C463BB93E
:10A4600023492448FFF7E5FA306008B9686070BDF9
:10A470000223237233681A7972B1012A24D0184654
:10A480000321FFF773FF0023237263601849194803
:10A49000BDE87040FFF7F8BAD3E90520121AB2F50B
:10A4A000805F28BF4FF48052D3E903159208012A38
:10A4B000014438BF01222844FFF754FF50B111284E
:10A4C000DDD101232372D2E7D3E903021044FFF761
:10A4D0004BFFF3E7237C002BC9D10146BDE8704058
:10A4E000022000F009B800BF9C390020B4390020D8
:10A4F000B0390020602B002038B5831E012B45D8D1
:10A50000234C237A002B41D0022B09D1032830D0D1
:10A51000204B00221B68E2601A793AB1012A22D04E
:10A52000637C7BBBBDE83840FFF794BFD3E90512DD
:10A530008D1AB5F5805F94BF521902F580529A6169
:10A540009142EDD102284FF0000308BF1946237253
:10A55000104B18BF0D211868FFF708FF0E490F4870
:10A56000FFF792FADCE71A6901321A615B699A42D5
:10A57000E7E7E3680133082B01D8E360D0E7002365
:10A58000E360DFE7BDE8384008F0DEBB38BD00BF60
:10A590009C390020B4390020B0390020602B002005
:10A5A00000F0FD03012B08D1044B00225A74421E17
:10A5B000504250411874FFF74DBF70479C3900203E
:10A5C00010B5064C201DFFF71DFB28B9637C1BB995
:10A5D000BDE81040FFF73EBF10BD00BF9C39002012
:10A5E0002DE9F34180460D460F4801A916461F4646
:10A5F000FFF7E5F90446A8B11C2200213AF09FF9C3
:10A600002D0B0123237101A9C4F80080A760E56028
:10A6100066610548FFF7FDF9FFF7D2FF002002B0A1
:10A62000BDE8F0810420FAE7602B00202DE9F74314
:10A6300081468846104801A917461E46FFF7BFF914
:10A640000446B0B11C2200213AF079F900250A9B9A
:10A65000A36001A92571C4F80090C4E9037866617C
:10A660000548FFF7D6F9FFF7ABFF284603B0BDE872
:10A67000F0830420FAE700BF602B00202DE9F047AB
:10A68000B0F806904479D2F800A09DF8208009FB2C
:10A6900004F4043C06460AEB0300A0420F4688BFC0
:10A6A000A4EB030A191DC2F800A0B1FBF9F509FBE0
:10A6B00015114DB9A9EB0104544528BF5446BAF110
:10A6C000000F04D1BDE8F0873668013DF1E70431A1
:10A6D0007B1970182246B8F1000F0ED001461846BB
:10A6E000AAEB040A3AF007F9D145254436684C46EE
:10A6F0004FF0000128BF5446E1E71946F0E7FFF7A5
:10A700008DBAF8B546790146721E0546002393427C
:10A710002D6803D30024A64202D8F8BD0133F6E722
:10A720000F682846FFF7B6FA01343946F3E72DE9FA
:10A73000F843CD1C868A0746FFF787FA043E354466
:10A740000446B5FBF6F5F0B14FF48073EDB28380AB
:10A75000C680013D076081464FF00008A84512D22F
:10A760003846FFF772FA064648B1637901336371E0
:10A7700008F10108C9F8000007608146EEE72046AD
:10A78000FFF7BFFF34462046BDE8F88301210430BF
:10A79000FFF722BA10B5012104460430FFF727FA6B
:10A7A00010F0FF0F04D12046BDE81040FFF7A9BF0D
:10A7B00010BD1FB504AC44F8042D002200922246BF
:10A7C000FFF75CFF04B010BD1FB504AC44F8042DC6
:10A7D000012200922246FFF751FF04B010BD41DF75
:10A7E0007047000007B502A8002300F8013DFDF7FF
:10A7F000B9FFF1EE103A23F09F03E1EE103ABFF3F8
:10A800005F8F0A4B4022C3F884219DF80700FDF7B3
:10A81000CDFF08F0A9FA20B1FFF7E1FF03B05DF822
:10A8200004FB20BF40BF20BFF8E700BF00E100E00D
:10A83000026813685268934291BFD01A8068013051
:10A84000801888BFC01A70472DE9F04103681F685F
:10A850001D685B689D4284BF836801331646884645
:10A860005D1BC2684168AE42044607FB02110CD86A
:10A87000724340463AF03FF8A3683E449E4288BF88
:10A88000002623681E60BDE8F08105FB02F73A460A
:10A8900040463AF030F8E2686168751B6A4308EB9D
:10A8A00007003AF028F823681D60ECE70368816828
:10A8B0001A685B688B4234BF01330023D31A5842B5
:10A8C00058417047F7B5044602A8002300F8013D3F
:10A8D0000D46FDF747FF2046FFF7E8FF10B1237C48
:10A8E000002B3DD12168A6684B684A68B24234BF4C
:10A8F000013200224A6038B12168A0680A688242A9
:10A9000034BF013200220A60E2686068511E0729E4
:10A9100020D8DFE801F004101F141F1F1F182A7829
:10A92000C2542046FFF784FF23689A68824200D20F
:10A930009860002415E02A8820F81320F1E72A689F
:10A9400040F82320EDE7D5E9006700EBC300C0E93C
:10A950000067E6E7294602FB030039F0CCFFE0E799
:10A9600004249DF80700FDF721FF204603B0F0BD49
:10A97000F7B506460F46144600259AB102A800F81E
:10A98000015DFDF7EFFE3046FFF752FFA0420CD30A
:10A99000224639463046FFF757FF2C469DF8070000
:10A9A000FDF704FF204603B0F0BD0524F6E713B51C
:10A9B000044602A8002300F8013DFDF7D3FE20461F
:10A9C000FFF736FF04469DF80700FDF7EFFE20462F
:10A9D00002B010BD826800239360826813618268B0
:10A9E00053618268D36082685360826813607047E5
:10A9F000F8B505460F4616461C4683B9AB6868682D
:10AA0000D3E9031300F1010CCA1A62450ED10027E5
:10AA1000376014B3A868FFF7FEF80020F8BD80681F
:10AA2000FFF7F0F80028E9D01120F7E701EA00026B
:10AA30001840824236BF6344ACEB02035B1A3168B4
:10AA4000994294BF316033602B6813443B60AA681D
:10AA50003168D3680B44D360DFE72046DEE738B5C2
:10AA6000846843682569A26801332B449B1A8B4292
:10AA70000CD30A44A26083689A68DA608068FFF7A2
:10AA8000C7F800280CBF0820002038BD0420FCE7D0
:10AA900010B5826813699468E41A8C420AD30B4497
:10AAA000136183681A695A6180680430FFF7B3F84C
:10AAB000002010BD0420FCE701600B6843604A6879
:10AAC000934204BF002343607047436843B1026868
:10AAD00091680B4443605268934204BF0023436073
:10AAE000704770B5446806460D46206818B1B368D3
:10AAF0002946984718B923682B60256070BD2468E3
:10AB0000F3E74368186808B102681A607047436841
:10AB1000186870474368186800B97047884202682F
:10AB200002D11A600120704703461046F4E7000086
:10AB30000D4930B5A1F594720225914201D800204B
:10AB40000EE08B1ADB1093FBF5F302EBC30452F813
:10AB50003330834205D802D204F10802EDE7606881
:10AB600030BD2146E9E700BF6866060008B5FFF77B
:10AB7000DFFF024B002808BF184608BD2C65060001
:10AB80000D4930B5A1F5BC720225914201D80020D3
:10AB90000EE08B1ADB1093FBF5F302EBC30452F8C3
:10ABA0003330834205DC02DA04F10802EDE7606825
:10ABB00030BD2146E9E700BFA86E060008B5FFF7E3
:10ABC000DFFF024B002808BF184608BD166A0600C2
:10ABD00046DF704713B502AC002304F8053D01932E
:10ABE0009DF80330032B08D904210DEB010000F080
:10ABF000DFFE30B9019802B010BD204600F0C6FE5D
:10AC0000EEE70020F7E700000B2802460CD80123EE
:10AC1000834040F2F1110B4204D140F60C610B422B
:10AC200002D0704739F0D6B8074B5B88012B09D9A1
:10AC30000648074B0749C01AC008000440F002004C
:10AC4000FCF794BF704700BF2430002060AA0600C4
:10AC500018AA0600A86E060008B500F09FFA00F0DA
:10AC600089F8002000F066FE20B1852802D000F0AF
:10AC7000D7F8FCE7FFF7AEFFBDE808403AF02EB981
:10AC800008B500F0CDF8FCE70020FDF78FBD07B553
:10AC900002A8002300F8013DFDF764FD03B05DF854
:10ACA00004FBFFF797BF00F0BFBA0000034A431A46
:10ACB000934288BF0B1A1846704700BFFEFFFF7F04
:10ACC00010B5044600F0B0FA241804D300F0ACFA32
:10ACD0008442FBD310BD00F0A7FA8442FBD8F9E709
:10ACE00030B50D468DB01446A2B199B190B1014670
:10ACF0001022684639F0FFFD102229460DEB0200B4
:10AD000039F0F9FD6846FFF763FF102208A92046D5
:10AD100039F0F1FD0DB030BDEFF30580003018BF04
:10AD20000120704700000000F7B54FF08053002568
:10AD30001C6E596E04F0FF0745EA010206A5D5E92D
:10AD4000004502A9224347EA050361E902230822DC
:10AD500039F0D1FD03B0F0BD000000000036CEF4A4
:10AD600000487047B8390020002007F097B9FFF776
:10AD700039BD704708B50FF097F948B9054B1B78F6
:10AD800013B9054B1B781BB1BDE808400FF092B911
:10AD900008BD00BFDC2C0020E02C00202DE9F8438A
:10ADA00007460E460FF080F958B1184C184BDFF8E3
:10ADB0006890DFF86880E41AE408240444F003048F
:10ADC0000EB9BDE8F883D9F80000C0F10805B54216
:10ADD000A8BF35462A463946404439F08CFDD9F89B
:10ADE00000202A44082AC9F800202F44A6EB0506B3
:10ADF000E6D1084B5B88022B03D941462046FCF77D
:10AE0000E3FE0023C9F80030DAE700BF50AB0600CC
:10AE100018AA06009C300020043A0020FC390020CB
:10AE200010B50C4C226882B10B4B5B88022B0AD9FF
:10AE30000A480B4B0B49C01AC008000492B240F0FC
:10AE40000300FCF7C1FE00232360BDE81040FCF7BF
:10AE5000FBBC00BF043A00209C30002050AB060031
:10AE600018AA0600FC39002040F6F8731868431C45
:10AE700004BF054B18684FF08053411C1A695B6989
:10AE800008BF03FB02F070471410001008B5FFF76D
:10AE9000EBFFA0F5104008BD0378022B01D80FF09E
:10AEA00017B9704710B5FFF7DFFF094C2061FFF7B6
:10AEB000EDFF084BE06000220749C3F80821204657
:10AEC000FFF7CEF818B1BDE81040FFF7D9BE10BDAE
:10AED000EC2F0020083A0020EC6406004FF480407C
:10AEE00070470220704708B513460A4631B143B196
:10AEF0000146184639F0FFFC002008BD6FF00A003B
:10AF0000FBE76FF00B00F8E70128F8B507460C46A1
:10AF100016461D4610D80B44B3F5804F0FD28AB1A8
:10AF20009DB1FFF7B3FF04EB873101442A46304659
:10AF300039F0E1FC0020F8BD6FF03800FBE76FF05E
:10AF40001600F8E76FF00B00F5E76FF00C00F2E782
:10AF50000128F7B507460C4616461D4624D80B4473
:10AF6000B3F5804F23D22AB3AB0826D0FFF78EFF6C
:10AF700004EB873404440FF0B3F807460028FAD1F5
:10AF80000FF09EF8214600972B4632460C48FFF7FB
:10AF9000A3F804460FF0A4F80028FBD1201C18BF2A
:10AFA0000120404203B0F0BD6FF03800FAE76FF0C7
:10AFB0001600F7E76FF00B00F4E76FF00C00F1E715
:10AFC000EC2F002001282DE9F041064624D8FFF798
:10AFD0005DFFDFF8508000EB863505F580470FF008
:10AFE0007FF804460028FAD10FF06AF823460122C0
:10AFF00029464046FFF730F988B90FF071F804464A
:10B000000028FAD105F58055BD42E8D130460FF051
:10B010006FF82046BDE8F0816FF03800FAE74FF096
:10B02000FF30F7E7EC2F002010B5084CD4F80831BA
:10B0300053B19BB22246D4F8041194F80001FFF7F3
:10B0400087FF0023C4F8083110BD00BF083A002074
:10B050002DE9F8431C4C1E46D4F8083181460F46B2
:10B0600090466BB194F80021824207D1D4F80421B4
:10B070001A44914202D1B3F5807F01D1FFF7D4FF8A
:10B08000D4F8080118B984F80091C4F80471C0F527
:10B090008075B54234BFADB235464DB12A46414602
:10B0A000204439F028FCD4F808312B44C4F8083186
:10B0B000761BB6B216B93046BDE8F883FFF7B4FF89
:10B0C0002F44A844DCE700BF083A002007B50C4B2A
:10B0D00018680090FFF7DAFE042200F500410DEB3E
:10B0E000020039F008FC042269460DEB020039F039
:10B0F000F3FBB0FA80F0400903B05DF804FB00BF39
:10B10000C96E060038B505460C46FFF7BFFE00F5D0
:10B1100000402A4621460430BDE83840FFF7E3BE30
:10B1200070B506460D461446FFF7B0FE04F5004420
:10B130000434324629462044BDE87040FFF7D3BEB0
:10B1400000487047D06E060004220321027081700F
:10B15000002206214270C17042607047B0F5A27FA4
:10B1600001D10EF0C7BF704710B5084CFFF78FFD37
:10B170002378012B05D1FFF7E3FF01F095F90023B8
:10B180002370BDE81040FFF77FBD00BF143B0020D7
:10B19000014B1878704700BF143B00201FB502A870
:10B1A000FFF7D2FFFFF7CCFF104A02A901F0F6F833
:10B1B00008B1FFF765FDFFF7C3FF0368D3F810453B
:10B1C000FFF7BEFFE2B24FF47031012421FA02F220
:10B1D00002232146009401F0C3F9FFF7B1FF01F00B
:10B1E00049F9034B1C7004B010BD00BF5DB10200F3
:10B1F000143B002008B5FFF74AFD0A4B1B782BB91A
:10B20000FFF7CCFFBDE80840FFF73EBDFFF798FF12
:10B2100001F072F90028F5D1FFF792FF01F02AF949
:10B22000F0E700BF143B002038B5FFF730FD0B4BB3
:10B230001B78012B0FD1FFF783FF022101F068F982
:10B24000044613F0C9F90546FFF71EFD4FF4705090
:10B2500000FB054038BD0024F3E700BF143B00208D
:10B2600030B50F4D8BB033F0B7FE0FCD01AC0FC42E
:10B270000FCD0FC42B68236001A836F085FDFFF7C2
:10B2800073FD012033F024FF33F0CEFE032801D1FB
:10B2900033F0D6FE012033F01FFF0BB030BD00BFEE
:10B2A000D86E060033F094BE07B502AB23F8020D4A
:10B2B000184633F08BFE03B05DF804FB07B502AB14
:10B2C00023F8020D184633F085FE03B05DF804FB49
:10B2D00010B54FF470544443204633F0D6FE002896
:10B2E000FAD010BD33F05CBE33F069BE10B5044631
:10B2F00033F067FE207010BD003018BF012033F01E
:10B30000E9BE003018BF012033F0E2BE003018BFA4
:10B31000012033F0DBBE08B933F095BE33F09BBE9D
:10B3200008B533F081FEC31E5842584108BD08B528
:10B3300033F07AFE023818BF012008BD13B5044669
:10B34000032C104608D0042C10D0012C14D133F05B
:10B35000D4FE204602B010BDA1F59C420093203AD5
:10B3600044F62063002133F088FEF3E7002102B0A9
:10B37000BDE8104033F075BE0020EBE710B50C4679
:10B38000FFF7EEFC036A013303622046BDE810407C
:10B3900008F0FAB833F07EBE10B50C46072942D843
:10B3A000DFE801F004171D23292F353BFFF7D8FCF8
:10B3B000436A01334362012000FA04F414F0DA0F07
:10B3C00003D114F0240F2ED00420BDE8104008F063
:10B3D00015B9FFF7C5FC836A01338362EBE7FFF71A
:10B3E000BFFCC36A0133C362E5E7FFF7B9FC036B37
:10B3F00001330363DFE7FFF7B3FC436B01334363C0
:10B40000D9E7FFF7ADFC836B01338363D3E7FFF725
:10B41000A7FCC36B0133C363CDE7FFF7A1FC036C4B
:10B4200001330364C7E710BD2DE9F04105460E4620
:10B4300017469846FFF794FC0468013404604346BD
:10B440003A4631462846BDE8F04108F0FBB8000016
:10B4500008B506280AD8DFE800F0040D13191F25E7
:10B460002B00FFF77DFC436801334360134B002240
:10B470001A6008BDFFF774FC836801338360F5E749
:10B48000FFF76EFCC3680133C360EFE7FFF768FCAA
:10B49000036901330361E9E7FFF762FC43690133A4
:10B4A0004361E3E7FFF75CFC836901338361DDE718
:10B4B000FFF756FCC3690133C361D7E7C07E0020A4
:10B4C000003218BF012211B1114633F010BE1146EF
:10B4D00033F004BE08B5002033F00CFE0120BDE8B7
:10B4E000084033F007BE0000074B1B5C1F2B8ABFD0
:10B4F000064A4FF0A04203F01F03D2F80405D840DB
:10B50000C04300F001007047006F060000030050C8
:10B51000074B1B5C1F2B86BF03F01F0305494FF031
:10B52000A041012202FA03F3C1F80C35704700BFB5
:10B53000006F060000030050074B1B5C1F2B86BFEB
:10B5400003F01F0305494FF0A041012202FA03F363
:10B55000C1F80835704700BF006F060000030050B7
:10B5600008B50020FFF7E8FF0120FFF7E5FF022004
:10B57000FFF7E2FF0320BDE80840FFF7DDBF08B595
:10B580000020FFF7C5FF0120FFF7C2FF0220FFF7F1
:10B59000BFFF0320BDE80840FFF7BABF0A4B185CA5
:10B5A0001F288ABF094B4FF0A04300F01F00D3F8BB
:10B5B00004250121814021EA02000A40C3F8080560
:10B5C000C3F80C25704700BF006F06000003005051
:10B5D000074B1B5C1F2B8ABF064A4FF0A04203F0AB
:10B5E0001F03D2F81005D840C04300F00100704797
:10B5F000FC6E0600000300500B2809D00C2809D06F
:10B60000182809D019280CBF03204FF0FF307047CD
:10B61000002070470120704702207047C20710B514
:10B6200004460CD54FF0A0430322C3F83427C3F8D7
:10B630003827C3F83C27C3F84027FFF791FFA3073B
:10B640000AD54FF0A0430C22C3F82C27C3F83027AB
:10B65000C3F86027C3F8642710BD42DF704743DF9B
:10B660007047000038B5084C04F10803054600286F
:10B6700018BF1C4623682BB11A6822605B682846F5
:10B680009847F7E738BD00BF203B002020B9054BA5
:10B6900001225A70FFF7E6BF012802D1014A9070DB
:10B6A000F8E77047183B002020B9034B01225A707D
:10B6B000FFF7D8BF704700BF183B002038B50B4CD0
:10B6C000237883B90A486360A3602361E36000F0D4
:10B6D00013FA054607F048FB08B900F01BFA0123EE
:10B6E0002370284638BD8525FBE700BF183B0020A6
:10B6F0008DB6020037B5184CA378054603F0FF025B
:10B700009BB110B143680120984700230DF1070059
:10B710008DF80730FDF726F8E3689DF80700013340
:10B72000E360FDF743F803B030BD0DF107008DF87D
:10B730000720FDF717F825B1226913463BB92A60A7
:10B740002561E368002BE7D100F0F6F9E4E79D42BC
:10B75000F7D01B68F2E700BF183B002037B502A8FE
:10B760000023094C00F8013DFCF7FCFFE368013BB6
:10B77000E360E56815B900F0F1F9A5709DF80700E0
:10B78000FDF714F803B030BD183B0020012813B5B5
:10B7900009D003D303281BD002B010BD0F4B0122E8
:10B7A000C3F88020F8E702A800230D4C00F8013D03
:10B7B000FCF7D8FF23780BB9FFF780FFE3689DF80B
:10B7C00007000133E3600123A370FCF7EFFFE3E719
:10B7D00000F0A0F9FFF7C2FFDEE700BF00E100E0E4
:10B7E000183B002037B51B4C6378054603F0FF0279
:10B7F0009BB110B143680020984700230DF107006A
:10B800008DF80730FCF7AEFF63689DF80700013341
:10B810006360FCF7CBFF03B030BD0DF107008DF87E
:10B820000720FCF79FFF25B1A268134653B92A6091
:10B83000A5606368002BE7D107F096FA30B1FFF7F7
:10B840000CFFE1E79D42F4D01B68EFE700F092F9AE
:10B85000DAE700BF183B002073B502A800230D4CA7
:10B8600000F8013DFCF77EFF6368013B636066689A
:10B8700036B907F079FA054640B1FFF7F0FE667079
:10B880009DF80700FCF792FF02B070BD00F084F94C
:10B890006570F5E7183B002030DF704731DF7047F7
:10B8A0001FB58DF8070004A8002300F8013DFCF740
:10B8B00059FF07F059FA50B90DF107010748FFF792
:10B8C00001F80648FEF7F2FF08B100F04FFC9DF8C2
:10B8D0000F00FCF76BFF05B05DF804FBB8A906008C
:10B8E00007B520B103280BD003B05DF804FB0F4B64
:10B8F0001B78012BF8D100F039FC00F03FFCF3E796
:10B9000002A8002300F8013DFCF72CFF074803784C
:10B91000012B05D10649013000F0E8FB00F014FCD2
:10B920009DF80700FCF742FFDEE700BF7C3B0020EC
:10B93000A1B8020013B5124C2378F3B9114A0028BC
:10B9400008BF10460288A4F8012002A800F8013DB3
:10B95000FCF708FF07F008FA30B90B49601C00F04B
:10B96000C5FB40B900F0F0FB01239DF807002370F0
:10B97000FCF71CFF002002B010BD8520FBE700BFD4
:10B980007C3B00200A6F0600A1B8020010B50446F7
:10B9900007F0EAF920B90548FFF709F8207010BD53
:10B9A0002046FFF779FF0028F5D1F8E7B8A906008F
:10B9B0002DE9F7430024DFF8589005460E46A046CF
:10B9C0000DF107008DF80780FCF7CCFE07F0CCF9ED
:10B9D000074638B9324629464846FEF7C9FF0446AD
:10B9E00000F0B2FB9DF80700FCF7E0FE47B13146DE
:10B9F0002846FFF753FF42F207039842044605D05A
:10BA0000022CDDD0204603B0BDE8F0830524F9E721
:10BA1000B8A906001FB503788DF80030436801937C
:10BA200083688DF80830C3680393054A054B684660
:10BA300053F8213052F82110984705B05DF804FB07
:10BA4000803B0020883B00201FB503788DF8003034
:10BA50004368019383688DF80830C3680393054AEF
:10BA6000054B684653F8213052F82110984705B02D
:10BA70005DF804FB803B0020883B0020F0B5194BAB
:10BA80000778DFF870E043F82720174B94460A69DF
:10BA900043F827204B7F0EF807300C4606460FCCA4
:10BAA00089B06D460FC594E80F0085E80F00337824
:10BAB00004971EF8033053B1BCF1000F0B4A6946DE
:10BAC00008BF0022301D01F0A9F809B0F0BDBCF19B
:10BAD000000F074A694608BF002206F10C0000F07B
:10BAE00059FEF2E7883B0020803B002015BA020097
:10BAF00049BA0200F0710020054A13792BB90121DF
:10BB0000106011715371184670478520704700BF4F
:10BB1000903B0020074B1A68D2075FBFC02283F812
:10BB2000002301221A604FF080430122C3F8182538
:10BB3000704700BF00E100E0074B00221A6082B0AE
:10BB40001B680193019B4FF080430222C3F804233A
:10BB500001229A6002B0704704010040044B0122A8
:10BB60001A604FF08042D2F81834DB03FBD47047E0
:10BB70000C000040074B00221A6082B01B68019342
:10BB8000019B4FF080430122C3F804231A6002B0E6
:10BB9000704700BF00010040074B01221A604FF0C0
:10BBA0008042D2F80C3403F00113B3F1011FF8D036
:10BBB000024B00225A71704704000040903B002065
:10BBC00007B5154B1A687AB100221A601B680093FA
:10BBD000009B4FF080430122C3F808230F4B587994
:10BBE00010B95A711B6898470D4B1A6882B1002230
:10BBF0001A601B680193019B4FF080430222C3F837
:10BC00000823064B1B68012003B05DF804EB1847BE
:10BC100003B05DF804FB00BF00010040903B002032
:10BC20000401004000F1804000F5C040002382B0D4
:10BC3000036003680193019B02B0704703681F2BE8
:10BC400083BF03F01F03036001484FF0A04070471B
:10BC50000003005007B502AB43F8040D1846FFF788
:10BC6000EDFF019B00EB8300D0F8003723F4403355
:10BC7000C0F80037D0F8003743EA0141C0F8001798
:10BC800003B05DF804FB0000054B4FF0FF320728BE
:10BC900043F8202084BF1B1883F85820704700BF4A
:10BCA000983B002010B5164C94F86A3033BBFF2146
:10BCB000E2180133302B82F83010F9D10021C8B2DC
:10BCC000FFF7E2FF01310C29F9D1062200210D48CE
:10BCD00038F035FE0C4BC02283F8062340221A6050
:10BCE0004FF4BE70FFF79EFF084B4FF00042C3F8C1
:10BCF0000423012384F86A30002010BD0820FCE7EB
:10BD0000983B0020FC3B002000E100E00060004088
:10BD1000034B93F86A00003018BF0120704700BF42
:10BD2000983B0020F7B5404F3B18044693F930305C
:10BD3000002B944675DA8B78C3F34003002B15BFB4
:10BD40000025082508200C20854202D1042003B0DC
:10BD5000F0BD57F8252001324FEA850649D1381940
:10BD600047F825C080F8305013B97B1983F8584044
:10BD70008B785A071BD4D8073DD502A840F8084D48
:10BD8000FFF75CFF009B00EB8300D0F8003723F047
:10BD90000203C0F800372548E20804F0070C01232D
:10BDA00003FA0CF310F802C043EA0C0383548878BA
:10BDB00091F800C010F002002AD006F1804303F58C
:10BDC000C0432402D3F8102522F44F3222F44072EB
:10BDD000C3F810254FEA0C4CD3F8102504F47C541A
:10BDE0000CF4403C44EA0C041443C3F81045002012
:10BDF000ADE70135A8E702A84A7840F8044DFFF7FF
:10BE00001DFF019B03F5E073920040F82320C2E779
:10BE1000083D3D4495F8604044EA8C1C85F860C0BC
:10BE200095E7082093E700BF983B0020FC3B0020EB
:10BE300073B5224C2518064695F93020072A1ADDDD
:10BE4000224492F858309B09032B10D102A840F8E5
:10BE5000046DFFF7F3FE019AD0F81035D340DB07ED
:10BE600007D402213046FFF7F5FE02B070BD012B6A
:10BE7000F7D00321F6E7D3B2072BF6D8930003F1EE
:10BE8000804303F5C043D3F8100540F00100C3F828
:10BE9000100502F14000800080B2FFF7C3FE0029C8
:10BEA000E3D095F9303054F82330002BDDD0012356
:10BEB00003FA02F2024BC3F80423D6E7983B0020B2
:10BEC0000060004007B502AB43F8040D1846FFF7C9
:10BED000B5FE019BD0F81005D84000F0010003B07A
:10BEE0005DF804FB2DE9F04F002489B0CDE9024450
:10BEF0005F4A604E604D01211368A2F5C040012BDE
:10BF000080B206D1D6F804330B4202D0FFF78AFE86
:10BF10000C430432AA424FEA4101EDD1574B1B6852
:10BF2000012B0ED14FF4BE70FFF77CFE4FF0A04303
:10BF300044F00044D3F810350293514BD3F8103538
:10BF4000039314F0FF0F1AD04E4F00250126344200
:10BF500010D0AB0003F1804303F5C043D3F81005C4
:10BF6000D3F8101557F82530C0F30520C1F301416F
:10BF700003B198470135082D4FEA4606E7D1002C5A
:10BF800072DA04AE0023049373604FF0FF33CDE9FF
:10BF900006333C4F4FF0010800252C467B1993F9DE
:10BFA0006020531C47D0D2B222F0C00908A84FEA43
:10BFB000D90300EB030B02F007011BF8080C08FA89
:10BFC00001F1084237D007EB0900920990F93000DF
:10BFD00057F820A0BAF1000F05D1032A2BD1F05C4D
:10BFE0000843F05401E0032AF9D001A8CDF80490E9
:10BFF000FFF724FE019B03F5E07350F823301BF894
:10C00000180C0842C3F3014305D0022B13D1032AB5
:10C010000BD1114604E0032B0DD1032A05D10221D7
:10C020004846FFF717FE0134E4B2BAF1000F02D020
:10C0300011464846D0470135042DAFD1A4B14FF089
:10C04000A0430299D3F8102503F540739142D3F829
:10C05000103502D10399994206D002920393049AB3
:10C06000059B0692079397E709B0BDE8F08F00BFE4
:10C070000061004000600040206100407C610040A1
:10C0800000030050983B0020014B1B68184700BF7D
:10C09000043C00200D4B984237B50D4610D102A844
:10C0A000002300F8013DFCF75DFB094B1C7914B936
:10C0B00001221D601A719DF80700FCF777FB14B987
:10C0C000002003B030BD1120FBE700BF002000407E
:10C0D000043C0020034B984201BF034B00221A602E
:10C0E0001A71704700200040043C002010B5124C2B
:10C0F0002278FAB9114B1960037813F0010F104B35
:10C100001EBFD3F8042542F00102C3F80425D3F87A
:10C11000002222F00102C3F800224378094A5B01A1
:10C12000DBB282F80D334FF4005313600123237008
:10C13000002010BD8520FCE7103C00200C3C0020B6
:10C1400000D0004000E100E0064B00221A6082B0FF
:10C150001B680193019B044B0122C3F804231A605E
:10C1600002B0704700D1004000D00040024A0123D5
:10C17000C2F808335360704700D00040064A0123DC
:10C18000C2F808335360054B4FF40052C3F88020C7
:10C19000034B00221A70704700D0004000E100E01D
:10C1A000103C0020074B00221A6082B01B680193EC
:10C1B000019B054BD3F80805044B1B68C0B202B0C5
:10C1C000184700BF00D1004000D000400C3C0020C8
:10C1D00000F1804000F5E040002382B00360036876
:10C1E0000193019B02B07047F0B5514B514C1B6855
:10C1F00085B0DBB14FF4827094F82E20FFF7E8FF92
:10C2000012B194F82F30A3B1636802932389ADF87B
:10C210000C30E36800218DF80410002B44D1237406
:10C22000236801A89847002384F82F3094F82E3013
:10C2300003B3414B1B68EBB14FF48070FFF7C8FFAD
:10C2400094F82D20638B91B28B4238D95B1A2189E7
:10C250009BB26383CB1A616801EB4301374BC3F890
:10C260002C16C3F830264FF48270FFF7B1FF344B21
:10C2700001221A60334B1B685BB14FF48870FFF7E3
:10C28000A7FF002304A82374022300F80C3D2368B1
:10C2900098472D4B1B6813B34FF48A70FFF798FF34
:10C2A0000023237405B0F0BD208B60836360208180
:10C2B000E160002AB4D1214B01221A60B0E7D2D14B
:10C2C000E368012184F82F103BB1002161831B49F1
:10C2D000C1F82C36C1F83026C5E76383C3E7666929
:10C2E0004FF000470125002EDCD0B6FA86F227FA7F
:10C2F00002F34632920026EA030602F1804303F578
:10C30000E0431B68002BEED01046FFF761FFA2F55B
:10C310008C72D30882F00402C2F380028DF80830D8
:10C320008DF804508DF80920236801A89847DAE7B2
:10C3300004710040143C0020007100400070004077
:10C340000470004010710040147100402DE9F34763
:10C35000002406460F46904600F5A0754FF480393C
:10C36000A2462B688BB1D6F8043309FA04F21A42BC
:10C370000BD0C5F800A02B68019304F15000800099
:10C38000019B80B2D7E9003198470134E3B2984568
:10C3900005F10405E5D802B0BDE8F087F7B50579E9
:10C3A000314C0C266E43A7193B7A002B5AD1A2516F
:10C3B0004A687A609C46467902685F1CDBB29E42FE
:10C3C00046D8120B53B2CE78284F002BAEBF03F1E4
:10C3D000604302F00F02264B4FEA4616F6B2AABFA0
:10C3E00003F561439E5483F8006303681B0B5EB240
:10C3F0007609012203F01F0302FA03F347F82630FF
:10C4000007684B78D7F8046503F0030326F00306AA
:10C410003343C7F8043507688B78D7F8086503F00D
:10C42000030326F003063343C7F8083506680B7884
:10C43000D6F8100503F00F0320F00F010B43C6F8E8
:10C4400010350C2303FB05440020227203B0F0BD1D
:10C450009B0003F5A07342F803C0D3580193019BDE
:10C460003B46A8E70820F1E7443C002000E100E05B
:10C4700014ED00E0036801221A600379034A0C21DD
:10C4800001FB032302221A72704700BF443C0020C4
:10C490000368044901221A6103790C2000FB03138D
:10C4A0001A727047443C002038B503681B0B5AB21F
:10C4B0000121520903F01F0301FA03F320320C4952
:10C4C00041F8223003680025D3F80022C3F8005257
:10C4D00003684FF0FF320446C3F80823FFF7D8FF84
:10C4E0002379044A0C2101FB03231D7238BD00BFD0
:10C4F00000E100E0443C00200379044A0C2101FBE8
:10C500000323187A831E584258417047443C002048
:10C5100010B58B0040330268DBB20124D45001F522
:10C52000A871036853F8210010BD73B54FF480342F
:10C530008C4005688BB18B0003F5A0730026EE508C
:10C54000EB580193019B0368C3F80443036801F5AA
:10C55000A87143F8212002B070BDC5F80843F5E783
:10C56000F0B407689DF810C0D7F8004240F20115FA
:10C570008D4024EA0504C7F800420568D5F800425A
:10C580002343C5F80032F0BC6346FFF7CEBF00007E
:10C59000042202490248FFF7D9BE00BF443C0020F4
:10C5A00000A00040062202490248FFF7CFBE00BFAC
:10C5B000503C002000A001400023435082B043586B
:10C5C0000193019B02B070470A4610B54FF48E717B
:10C5D000FFF7F2FF136A9168C95C136A01331362B3
:10C5E000C0F81C1510BD10B58B690A464FF4847154
:10C5F00023B9FFF7E1FFD0F8183510BDFFF7DCFFD6
:10C60000536AD168D0F81805C854536A013353628D
:10C61000F3E700001FB501238DF80030044BCDE98E
:10C620000110D3E900126846904705B05DF804FB9D
:10C630005C3C002030B54D4AD2F8043313F4007F3F
:10C6400085B015464FD0D2F82431002B4BD04FF493
:10C6500092711046FFF7B0FF4FF40173C2F8083330
:10C66000434B93F8291009B9012151603F49022237
:10C670008DF80020D1F88024C1F8802403929A69B3
:10C680000292DA6801920022C3E906226846D3E9E1
:10C69000001290473548D0F81C315BB134494A69E3
:10C6A0000B6A9A420A464CD991F82830002B48D19F
:10C6B000FFF78AFF2D4AD2F8443193B14FF4A271AB
:10C6C0001046FFF779FF2A4B93F8291009B1012191
:10C6D00011609A692AB100229A61586AD968FFF7F5
:10C6E00099FF05B030BDD5F804335B07D2D5D5F836
:10C6F0000831002BCED01E4C1C482146FFF773FF9B
:10C70000636AA2699A422346C4D1E26952B123699D
:10C71000E168E3600023606AA261E3616362FFF79E
:10C7200079FFB7E794F829200AB901226A600F4A15
:10C730004FF40171C2F8081300229A61586AD9684F
:10C74000EDE74FF48E710948FFF736FF5369002B70
:10C75000B0D051690291002391688DF800300191A9
:10C7600053616846D2E900139847A3E700200040D0
:10C770005C3C00201F2886BF00F01F00044B4FF0D8
:10C78000A04300F5E070022243F82020704700BF6C
:10C79000000300502DE9F8436C4F067991462C2296
:10C7A00002FB0672054692F82A200C46002A40F049
:10C7B000C68067490068FFF76DFC8046002840F09E
:10C7C000C18023685A1C19D01F2B4FF001028ABF69
:10C7D00060494FF0A04103F01F0302FA03F3C1F8D0
:10C7E000083523681F2B86BF03F01F03594A4FF0FB
:10C7F000A04203F5E073032142F8231061684B1C4B
:10C800000BD01F2986BF01F01F01524B4FF0A043F0
:10C8100001F5E071002243F821202B68A269C3F8DA
:10C820002425217D637D2A680B43C2F86C35D4E949
:10C8300000122B68C3F81425C3F80C15237D012BB7
:10C8400032D1A168481C0BD01F2986BF01F01F01FF
:10C85000404B4FF0A04301F5E071002243F8212046
:10C86000E3685A1C19D01F2B4FF001028ABF3949C7
:10C870004FF0A04103F01F0302FA03F3C1F808359B
:10C88000E3681F2B86BF03F01F03324A4FF0A0421C
:10C8900003F5E073032142F82310D4E902122B6858
:10C8A000C3F80825C3F810152C237343FA18C2F8EF
:10C8B00004902269FA50B9F1000F2DD04FF48E7117
:10C8C0002868227FFFF778FE4FF4A2712868FFF7EF
:10C8D00073FE2B682049C3F804132968090B4BB277
:10C8E000002BAEBF03F1604301F00F011B4B4FEA79
:10C8F0004212D2B2AABF03F561435A5483F800230F
:10C900002B681B0B5AB2012103F01F0301FA03F33A
:10C910005209134941F822302B680422C3F800253C
:10C920002C2303FB06730022C3E9062283F8292087
:10C930005A61012283F82A204046BDE8F8834FF06F
:10C940000808F9E74FF01108F6E700BF5C3C00204B
:10C9500035C60200000300508000020014ED00E024
:10C9600000E100E02DE9F04103680479274D002241
:10C97000C3F800252C2303FB045301465B6883B1F5
:10C980000368234AC3F8082303681B0B5AB201202B
:10C99000520903F01F0300FA03F320321D4840F848
:10C9A00022300B684FF0FF32D3F80C05D3F8148512
:10C9B000D3F80865D3F81075C3F81425C3F80C250F
:10C9C0000B689042C3F80825C3F8102501D0FFF783
:10C9D000D1FEB8F1FF3F02D04046FFF7CBFE7A1CF4
:10C9E00002D03846FFF7C6FE731C02D03046FFF770
:10C9F000C1FE0868FFF76EFB2C2303FB04540023E1
:10CA000084F82A306360BDE8F08100BF5C3C002000
:10CA10008402020000E100E02DE9F047224B077993
:10CA20004FF02C0909FB0734064665699846002D2E
:10CA300036D16261A160256284F828504FF48E716E
:10CA40000068FFF7B9FD336801229A60214630681B
:10CA5000FFF7BAFD6368A14623BB3568D4F814A07C
:10CA6000236A9A4511D83368D3F81C21002AFBD0D9
:10CA70000122DA6000202C2303FB078700237B615F
:10CA8000BDE8F08794F8283043B9D5F81C31002B65
:10CA9000F8D049462846FFF797FDE1E70F20EAE77F
:10CAA0001120EDE72846EBE75C3C002000234350D3
:10CAB00082B043580193019B02B070471FB5012318
:10CAC0008DF80030044BCDE90110D3E9001268461F
:10CAD000904705B05DF804FB883C00201F2886BF06
