:020000022000DC
:1070000000000420B5720200DD720200DF7202008F
:10701000E1720200E3720200E5720200000000006B
:10702000000000000000000000000000E772020005
:10703000E972020000000000EB720200ED72020033
:1070400099A40200E9360600F9890400EF720200F3
:10705000EF720200EF7202009DA80200EF720200C0
:10706000EF720200EF720200EF720200EF72020094
:10707000EF720200B9350500EF720200EF720200F4
:10708000EF720200FD8D0200EF720200EF7202004B
:10709000EF720200EF72020095C50200EF7202006B
:1070A000EF720200EF720200EF720200EF72020054
:1070B000EF720200EF72020000000000000000000A
:1070C000EF720200EF720200EF720200EF72020034
:1070D00005240500EF720200EF720200EF72020059
:1070E00031B10200EF720200EF72020000000000F6
:1070F00000000000EF72020000000000EF720200CA
:10710000000000000000000000000000000000007F
:10711000000000000000000000000000000000006F
:10712000000000000000000000000000000000005F
:10713000000000000000000000000000000000004F
:10714000000000000000000000000000000000003F
:10715000000000000000000000000000000000002F
:10716000000000000000000000000000000000001F
:10717000000000000000000000000000000000000F
:1071800000000000000000000000000000000000FF
:1071900000000000000000000000000000000000EF
:1071A00000000000000000000000000000000000DF
:1071B00000000000000000000000000000000000CF
:1071C00000000000000000000000000000000000BF
:1071D00000000000000000000000000000000000AF
:1071E000000000000000000000000000000000009F
:1071F000000000000000000000000000000000008F
:1072000010B5054C237833B9044B13B10448AFF3E0
:1072100000800123237010BD302E002000000000EC
:10722000A048070008B5034B1BB103490348AFF35F
:10723000008008BD00000000342E0020A048070098
:10724000154B002B08BF134B9D46A3F5803A002138
:107250008B460F461348144A121A42F016FF0F4B82
:10726000002B00D098470E4B002B00D098470020F1
:10727000002104000D000D48002802D00C48AFF397
:10728000008042F07FFE2000290004F009FF42F058
:1072900053FE00BF000008000000042000000000B2
:1072A00000000000302E00203C48012000000000BB
:1072B000000000000649074A074B9B1A03DD043B08
:1072C000C858D050FBDC02F059FDFFF7B9FF0000B1
:1072D000A0490700E82A0020302E0020FEE7FEE744
:1072E000FEE7FEE7FEE7FEE7FEE7FEE7FEE7FEE776
:1072F000704700BF00B583B0044B0093044A40239D
:1073000000F036F803B05DF804FB00BF157302000F
:10731000502E002002B32DE9F843114B114E884640
:10732000144643F0010903270025224608EB050116
:10733000002005F0D1FA03461D444FF47A40E41AC8
:1073400023B9337833B1C847013F06D001233370E6
:10735000002CEAD1BDE8F88370473770BDE8F883A8
:1073600000BB06004C2E0020704700BF05F0B4BBE8
:10737000F0B595B0002415460F4608461E4602F0AB
:10738000CBFB384623460895082205A91A9D099685
:107390000D950A948DF82C400C9402F017FC9DF882
:1073A00014308DF81140DDE9061003F00302012AC4
:1073B000CDE9020127D0022A04D0384602F0B0FB02
:1073C00015B0F0BDBDF81650C3F3C2038DF81030F0
:1073D000AD090826082D2C4628BF0824334622462E
:1073E0000EA9384602F0F2FB2D1B214608AB02AA7B
:1073F0000EA8264400F0ACFC002DEBD1384602F07C
:107400008FFB15B0F0BDBDF81460059DC6F3831663
:10741000C3F3C204B2000EA9384608238DF8104009
:10742000C5F3952502F0D2FB08AB324628460EA9DB
:10743000009302AB00F0E6FB384602F071FB15B09A
:10744000F0BD00BF08B5FFF791FF0421034800F02D
:107450008FFB034B01225A7108BD00BF884907000A
:10746000E82A0020F0B5324C85B004F5836001F0C5
:1074700065FE04F2144001F061FED4E9013703EA2D
:107480000702D01C04EB800114F8200010F0040067
:1074900044D003F1020C0E7806F00306012E654677
:1074A00035D0022E02F1030621D004EB860100281C
:1074B000F1D104EB82020133D26801923B4004EB2C
:1074C000830302F00302012ADE6829D0022A23D1B5
:1074D000BDF806309B090333360C05EB93051548C0
:1074E00001F038FE00B16560304605B0F0BD4B8854
:1074F0000CEB931307EA0302D11C03F1020C14F8FE
:107500002100654604EB810100F00400CFE70B8801
:10751000C3F383136344EDE70026E0E79D1CC8E74F
:10752000BDF80430C3F38313360C1D44D7E700BF06
:10753000602F0020743300200B4B0C4810B5002244
:10754000FF21C3F818249960C3E90022C3F814246A
:1075500083F8202402F09CFA044610B9044802F093
:1075600069FB204610BD00BF602F0020FC480700CB
:1075700024BB060021B9124B03EBC0000068704722
:10758000104A0F49521AD20815D030B40E4D2B882C
:10759000834212D0002303E035F82340844205D013
:1075A00001339A42F8D1002030BC704701EBC30090
:1075B000006830BC7047104670470846F8E700BFC7
:1075C00010490700884907002C2E0020094B01397B
:1075D00003EBC00003290BD8DFE801F00208060422
:1075E0000220704740797047007970470420704747
:1075F00000207047104907002DE9F04383B002AB2B
:10760000002203F8012DDFF8DC9007461846884673
:10761000D9F8084001F066FAD9E90132D9F80060DA
:10762000134401339B1B012B58D809F21C4501213F
:10763000284601F06BFDFFF715FF0146284601F0D3
:1076400065FDD9E90132D9F80010134401335B1A02
:10765000012BECD90A400332052302319DF80700C3
:1076600049F82230C9F8001001F062FA00211C48E4
:1076700001F02AFD80F31000731C234009EB830303
:1076800000043440033440EA1740D86019F824302D
:1076900067F3C50309F8243039F824306FF38913F0
:1076A00029F8243059F8242068F39F221346012139
:1076B00061F301036FF3820349F8242009F82430B1
:1076C00099F820341BB906E000F00EF818B1D9E99A
:1076D00000329A42F8D103B0BDE8F0833146B9E7F1
:1076E0007C330020602F00202DE9F047934C0023CD
:1076F00084B0C4F81834BFF34F8FD4E9015605EABB
:107700000602D31C04EB830114F82330580719D563
:1077100027680B7803F00303012B43D0022B03D11E
:107720004B88023505EB931506EA0502D4F81804D8
:10773000D31C04EB830128B9AF4239D914F82330A4
:107740005B07E6D404EB82026B1CD26801923340E3
:1077500004EB830302F00302DB680293022A05F1C3
:10776000020700F08D80012A26D0D4F810543DB1D4
:107770002B6828469B689847EB681D68002DF7D159
:107780006F48704B7049C01AC008000440F00200F6
:10779000FFF732FFD4E90030C01A18BF012004B04F
:1077A000BDE8F0870B880235C3F383131D44BBE7A4
:1077B000676004B0BDE8F087BDF804206348C2F3F9
:1077C0008313062B28BF062363F389120233990023
:1077D000ADF8042002F05EF980460028C5D002F022
:1077E0009BF90023082201A9404602F0BBF9BDF82D
:1077F000043013F4707F00F09F806FF0010AAAEB51
:10780000050A082506EA070103312B46042204EB8A
:107810008101404602F0A6F9BDF8043007F10109E4
:107820000AEB0902C3F3831393424F4605F10405A3
:10783000E8D8D4F81834002B68D1D4F8105465B1C6
:10784000EB685A7928464146002A5BD02B681B68B2
:107850009847EB681D68002DF2D1404602F060F9B0
:1078600004A8002300F80D3D01F03CF9D4F81834C9
:107870000BB9C4F804909DF8030001F059F989E7A9
:10788000BDF8063031484FEA93194D46502D28BFB8
:10789000502565F38F1305F10801ADF8063002F0AD
:1078A000F9F8804600283FF460AF26EA070A0AF19B
:1078B000010A02F031F94FEA8A0A0023082201A9DD
:1078C000404602F04FF955452BD9EBB2BAF1000F03
:1078D00020D006EA0701A3EB0A03033104EB810180
:1078E000DDB252460823404602F03CF92A460AF12E
:1078F00008031749404602F035F909F1030907EB7F
:10790000990996E71D68002D9AD1A6E7404602F036
:1079100007F93FE72A4608230D49404602F022F9BD
:10792000EBE706EA0701033104EB81012A4608234D
:10793000404602F017F9E0E7B9467AE7602F0020E9
:10794000284907001049070030BB0600FC48070023
:107950006C2F00202DE9F04782B002AB002403F821
:10796000014DDFF8ECA00746184691468846DAF844
:10797000084001F0B7F8DAE90132DAF800601344A0
:1079800001339B1B022B5ED80AF21C4501212846BD
:1079900001F0BCFBFFF766FD0146284601F0B6FB8F
:1079A000DAE90132DAF80010134401335B1A022BD2
:1079B000ECD90A400332033145239DF807004AF809
:1079C0002230CAF8001001F0B3F8B31C23400AEBD0
:1079D000830300211D48C3F80C9001F075FB80F370
:1079E0001000731C23400AEB83030004344003346B
:1079F00040EA1740D8601AF8243067F3C5030AF844
:107A000024303AF82430012161F389132AF8243014
:107A10005AF8242068F39F22134661F301036FF3A1
:107A200082034AF824200AF824309AF820341BB93B
:107A300006E0FFF759FE18B1DAE900329A42F8D1B0
:107A400002B0BDE8F0873146B3E700BF7C330020C9
:107A5000602F00202DE9F04F83B002AD002405F81F
:107A6000014D3B4C8046284693469A468946A56878
:107A700001F038F8D4E90132276813440133DB1BE5
:107A8000032B63D804F21C460121304601F03EFB73
:107A9000FFF7E8FC0146304601F038FBD4E901323B
:107AA0002168134401335B1A032BEDD90A400332DA
:107AB000852344F8223004319DF80700216001F04D
:107AC00037F8BA1CFB1C2A402B4004EB820204EB63
:107AD000830300211F48C2F80CB0C3F80CA001F0CA
:107AE000F3FA80F310007B1C2B4004EB83030004AB
:107AF0003D40033540EA1840D86014F8253068F35B
:107B0000C50304F8253034F82530022262F38913C6
:107B100024F8253054F8252069F39F2213460121CB
:107B200061F301036FF3820344F8252004F8253044
:107B300094F820341BB906E0FFF7D6FD18B1D4E95C
:107B400000329A42F8D103B0BDE8F08F3946ADE774
:107B5000602F00207C330020044BD3E900239A429D
:107B600001D0FFF7C1BD0020704700BF602F00208B
:107B700030B4184DD5F8104400215CB1E3681A798F
:107B80008A4204D116E0DB681A798A4212D01B6857
:107B9000002BF8D1C3681971D5F8103493B1DA68A5
:107BA000C36812681A60D5F81034DB68186030BCFE
:107BB0000846704701310A29DFD14FF0FF310846EE
:107BC00030BC7047C5F81004C2681360084630BC6A
:107BD000704700BF602F002038B5094BD3F8104420
:107BE000012583F820544CB1E3685D712368204679
:107BF0005B689847E3681C68002CF5D138BD00BF6E
:107C0000602F00202DE9F04784B01D460C9C002316
:107C100094F80C802373EB8881460E461746002BA0
:107C200040D1297A05290ED06B7AA88873BB404BC6
:107C300053F821A00021FFF79DFC524603463D4921
:107C4000204601F0FFFA062F09D8DFE807F0046AA2
:107C50004249525D33004946204601F0F3FA2B7A3F
:107C6000052B05D06B7A5BB93349204601F0EAFA5F
:107C7000204601F0DBFA84F80C8004B0BDE8F08700
:107C80002E4A2F49204601F0DDFAEDE7FFF79EFC72
:107C90002C4B2B4953F82020204601F0D3FA297AA7
:107CA000A888C4E7254A00922749284A204601F0BF
:107CB000C9FAB6E7D6E90410D6E900230390D6E95D
:107CC00002070291CDE900074946204601F0BAFAC1
:107CD000C5E74946D6E90023204601F0B3FABEE7DE
:107CE000B168D6E9002320460091494601F0AAFA7E
:107CF000B5E7D6E90201D6E9002301910090494693
:107D0000204601F09FFAAAE7D6E90371B068D6E9E8
:107D100000230291CDE900074946204601F092FA7E
:107D20009DE732684946204601F08CFA97E700BF8C
:107D3000B8BB0600ACBB060040F90600A0BB0600BD
:107D4000A8BB060048BB060088BB060080BB060037
:107D5000082900D970472DE9F04F1D4690460023B1
:107D60002A7B2B7385B0B8F80630039207460E467F
:107D7000002B7BD198F80810052911D098F809300C
:107D8000B8F80400002B63D13C4B53F8214000218C
:107D9000FFF7F0FB224603463949284601F052FA24
:107DA000DFF8FCB0DFF8FC90002405E03A5D013418
:107DB00001F048FA082C09D0A64249462846F5D8D1
:107DC0005946013401F03EFA082CF5D12D49DFF86F
:107DD000D8B0DFF8D890284601F034FA00240CE03F
:107DE00017F804A0BAF17E0F23D92E22494628465F
:107DF000013401F027FA082C08D0A642F0D85946E1
:107E00002846013401F01EFA082CF6D198F8083003
:107E1000052B02D098F80930A3B91B49284601F078
:107E200011FA284601F002FA039B2B7305B0BDE856
:107E3000F08F42F0CFF850445246437813F0970F3A
:107E4000D3D0D3E7114A1249284601F0FBF9E4E701
:107E5000FFF7BCFB0F4B0E4953F82020284601F0DA
:107E6000F1F998F80810B8F804008DE7074A009275
:107E700009490A4A284601F0E5F97BE7B8BB060044
:107E8000ACBB060078BB060040F90600A0BB0600AC
:107E9000A8BB060048BB060088BB060080BB0600E6
:107EA00074BB06006CBB0600B4BB06007CBB0600BE
:107EB00070B51A4B1D789DB1194B1C682378C0B260
:107EC000984210D004F10802002306E014F83310A1
:107ED0008142164602F1080206D001339D42F5D1D7
:107EE00000231B78FFDE264602F0C8FC7378A3F15E
:107EF0000103B3FA83F35B09834200D070BD094BE1
:107F0000D3E900231343F9D1074B0848196800222D
:107F10004908BDE8704000F031BD00BF1C340020AE
:107F20007034002048340020203400202834002001
:107F30002DE9F04F9D4E337887B0002B00F0308153
:107F40009B4F9C4DDFF8788200244FF00109D7F851
:107F500000B01BF8340002F091FC0BEBC4031BF8DB
:107F600034B05B784FEA5B0C1BF0010E15F80C1077
:107F7000A3F10103B3FA83F314BF0A0901F00F025E
:107F80005B09042A00F2D080DFE812F09800D000EC
:107F9000690048000500834200F0E980BEF1000F4F
:107FA0000CBFF0230F233078194005F80C10A8B14E
:107FB000D7F800C09CF800305B4500F0E7800CF17A
:107FC0000802002304E01CF83310594500F0DF805C
:107FD00001338342964602F10802F4D14FF00003C8
:107FE0000DF117008DF817300023039300F07AFD90
:107FF000ABF12002CBF1200329FA03F309FA02F2D4
:108000001A4309FA0BF103920291D8E90023DDE942
:10801000020122EA000023EA01017DE08342327876
:108020000CD0BEF1000F0CBFF0230F2303EA0103B5
:108030000CBF04214021194305F80C10013494426F
:1080400085DBD8E90023134306D05B4B5B481968F6
:108050000022490800F092FC07B0BDE8F08F83428F
:1080600076D1BEF1000F14BF0F23F02303EA010302
:10807000327814BF30210321194305F80C10002A6F
:10808000DFD0D7F800C09CF800305B4500F08B8053
:108090000CF108010023013393428E4601F10801DF
:1080A000CCD01CF833005845F5D1DEF80430002B55
:1080B000C4D05846012198473278BFE7834233D174
:1080C000BEF1000F0CBFF0230F2303EA01030CBF26
:1080D0000121102119434FF000030DF117008DF815
:1080E00017300023019305F80C1000F0FBFCABF1F6
:1080F000200309FA03F301930198CBF1200129FA37
:1081000001F1084309FA0BF101900091D8E900232D
:10811000DDE900011043194302460B469DF81700A4
:10812000C8E9002300F004FD327887E7834213BFDB
:108130000023202302221A46BEF1000F12BF0F2097
:10814000F020134601400B4305F80C30327875E7F8
:10815000BEF1000F0CBFF0230F2303EA01030CBF95
:1081600001211021194305F80C10327866E7BEF1A1
:10817000000F14BF0F23F02303EA010314BF3021C3
:108180000321194305F80C10327857E7E646DEF86C
:108190000430002B3FF422AF0021584698471DE7DA
:1081A000DFF81C804DE7E6467FE700BF1C34002067
:1081B0007034002050340020203400202834002067
:1081C00048340020092A40D9F0B583B00E46054650
:1081D000144602F0DDF9002831D0204A2049214B15
:1081E00015600E70202200211F481C6041F04DFFD9
:1081F0001E4B00200021741EC3E90001E4B236B317
:1082000005EBC4041A4E083D032701E0A5421ED029
:108210009DF8063020788DF8047003F0FC036FF3AE
:1082200082038DF80630A3788DF80530324601A917
:1082300002F0B8F9083C0028E8D003B0F0BD02F025
:108240005DF90028C9D003B0F0BD07207047094A86
:108250000948002100F084FB03B0F0BD7034002019
:108260001C340020203400205034002048340020EA
:10827000B17E0200317F020024BC060070B5084DBB
:108280002B785BB1074E00243368012113F83400CA
:1082900002F078FA2B780134A342F5D8002070BDA3
:1082A0001C3400207034002000B585B000230390FA
:1082B000194601AA44F20100CDE9013300F004F8A7
:1082C00005B05DF804FB00BF10B572B6FFF784FC83
:1082D000FFF742FC0028FBD1104B114C1149E41A66
:1082E000E408240444F00100FFF786F90E4B1B68F4
:1082F000DB0700D500BE44F002000C49FFF77CF913
:10830000BFF34F8F0A490B4BCA6802F4E062134374
:10831000CB60BFF34F8F00BFFDE700BF10490700E0
:108320002849070034BC0600F0ED00E040BC060020
:1083300000ED00E00400FA0510B403468468C0684C
:108340009A88001B82420AD3D8681C680240002029
:10835000A154DA680132DA605DF8044B70470420FA
:108360005DF8044B704700BF03468068DA689042AE
:108370000DD010B498689A881C6802400020A25C56
:108380000A709A6801329A605DF8044B70470520C4
:10839000704700BFF0B412F0030412D14B1CDB0095
:1083A0000A4D0B4E0B4F34709BB213442B600A4E98
:1083B0000A4D0B4B28803A60347019802046F0BC7F
:1083C000704707242046F0BC704700BF7834002077
:1083D000743400207C340020843400208034002059
:1083E000823400202DE9F0472D4F3B888B4282B02C
:1083F0003CD3054602A84FF0000800F8018D164650
:108400000C4600F06FFB274B274A28481978137851
:10841000B0F800C09DF80700DBB2634538BF0133F8
:10842000C9B238BF5FFA83F8414523D092F8008083
:108430001378DFF88090DBB29C4586BF0133DBB256
:1084400000235FFA88F8137000F072FBD9F800304F
:108450000FFA88F24FEAC20A43F83260534405B17A
:1084600074B90020988002B0BDE8F087092002B0FE
:10847000BDE8F08700F05CFB042002B0BDE8F087A7
:108480000B4B38881B68294608FB0030224641F018
:10849000D8FDD9F800309A440020AAF80440E2E759
:1084A0008034002084340020743400208234002082
:1084B000783400207C3400202DE9F84F1B4C1C4DF3
:1084C00022782B789A4226D0DFF86CA0DFF86C90E7
:1084D000184FDFF86CB04FF000082378DAF800206E
:1084E0003888D9F80060DBB20FFA83FE02EBCE01C8
:1084F00003FB0060898852F83E3098472378BBF828
:108500000010DBB25A1C9942D2B206D922702378ED
:108510002A789A42E1D1BDE8F88F84F80080227869
:108520002B789A42D9D1BDE8F88F00BF843400205F
:1085300074340020803400207C3400207834002003
:1085400082340020D0E90223D1E90201994208BF18
:1085500090422CBF01200020704700BFD0E90030BE
:10856000184700BF2DE9F04F87B0029000F004FCDF
:1085700040B1AF49D1E9002312F1807443F1000505
:10858000C1E9004500210298AA4E00F011FC002824
:1085900000F098803368002B00F09480A64B34687C
:1085A0001B7823B11CB1237F002B40F0538104AB17
:1085B0000393002301210298336000F0F9FB0028A7
:1085C00000F089809D489E4F00F004FC984BD3E951
:1085D0000045D7E9002314EB000845F1000999454F
:1085E00008BF90454046494603D218F1807049F1D2
:1085F0000001DDF80C80C7E900014146914800F018
:1086000007FD00286FD1DFF84482DFF830A2DFF8E1
:10861000209204E00D2800F098800023336040464B
:1086200001F046FB3368002800F0F0806BB133683E
:10863000D0E90201D3E90223994208BF90423ED219
:1086400033681B7F002B40F0C580404601F02AFBB9
:108650000746D7E902235046CDE9002300F0BAFBD4
:10866000D9E90023764C12EB000B43F1000CD4E95E
:1086700000239C4508BF93455846614603D21BF131
:1086800080704CF10001DDE90023121A63EB010355
:108690001946012A71F1000353DB6B4DAA4200F227
:1086A0009E80BA684FF496030021504600F0DEFA2F
:1086B0000028AFD13368002B00F0A180376007B0ED
:1086C000BDE8F08F04AB01210298039300F070FB2A
:1086D00000287FF477AFDDF80C805A48414600F05F
:1086E00097FC00288FD00378584D534F554C012BE1
:1086F0001FD079D3022B0ED128464FF0000901F08C
:10870000D1FA30B180F81C90284601F0CBFA00284D
:10871000F8D101233B704146204600F0A7FC4146BA
:10872000204600F075FC00283FF46DAF0378012B64
:10873000DFD141683368994265D0284601F0BCFA20
:10874000E9E70021504600F027FB3B4B1B78002B4C
:108750003FF463AF3B7F002B3FF45FAF504600F028
:1087600039FBD4E90023D9E90045241845F1000577
:108770009D4208BF94422046294603D214F18070DE
:1087800045F10001D7E90223994208BF904246D340
:108790003B69002B41D07B690493BB692C4A039849
:1087A00005930821FFF71EFE00283DD139690029F5
:1087B0003FF433AF3B7F002B3FF42FAFD7E90223C9
:1087C000541843F10005C7E902453946404601F017
:1087D00055FA22E73168404601F050FA35E7504635
:1087E00000F0F8FA42195DE743681A7F002A92D137
:1087F00001221A774168284601F040FA8BE7029877
:1088000000F006FA5AE70023336084E7002B7FF478
:1088100056AF029800F000FA51E73B77BBE73946C4
:10882000404601F02BFAF8E6FFF73EFDBEE700BF39
:10883000903400201035002098340020F02A0020C9
:1088400008350020F4340020FFFFB40054BC0600BB
:108850005D850200224800F0BDFA224A224BD2E98F
:108860000089D3E9002318EB000A49F1000B9B456E
:1088700008BF92455046594603D21AF180704BF119
:108880000001D4E90223994208BF904223D323690F
:1088900003B923776369049304A8A369134A039077
:1088A00008210593FFF79EFD08B1FFF7FDFC216944
:1088B00000293FF47EAE237F002B3FF47AAED4E94B
:1088C0000223571843F10008C4E9027821460848FA
:1088D00001F0D4F96DE62146054801F0CFF966E6CE
:1088E000F02A002090340020083500205D85020029
:1088F00054BC060010B5134B13491B68134882B0D3
:1089000058220193082300F02FFB044610B12046A3
:1089100002B010BD0E4A0F4801A900F021F904462B
:108920000028F4D101210B4800F01CFA012319465C
:10893000094A084800F074F9084B012220461A70D1
:1089400002B010BD50BC06009C340020F43400205E
:1089500065850200F02A0020FFFF7F009834002088
:108960004AB1A1F101010368B1FA81F14909C3E9F2
:108970000412002070470720704700BF037F0BB12F
:10898000002070472DE9F048826182B004461F48FC
:108990000D4600F01FFA1E4B1E49D3E90023D1E912
:1089A000006712EB000B43F1000CBC4508BFB34558
:1089B00003D21BF1807B4CF1000C1BEB05022169FB
:1089C0004CF10003C4E9022379B901A9124800F06F
:1089D000E3FA88B100254460057001A90E4800F053
:1089E00007FB68B902B0BDE8F088256101A90A4813
:1089F00000F0D2FA0028EDD1042002B0BDE8F088E2
:108A0000024800F0EBF92846ECE700BFF02A00200E
:108A10009034002008350020F434002030B50025C3
:108A200083B00446057701A90B4800F0B5FA78B188
:108A300001234460037001A9074800F0D9FA08B97E
:108A400003B030BD054800F0C9F9284603B030BD79
:108A5000042003B030BD00BFF4340020F02A002011
:108A600070B50B4C01460B482678FFF77DFC054698
:108A70000EB9284670BD002301220749074823701C
:108A800002F0C0FA0028F4D0FFF70EFC284670BDB3
:108A9000243500201435002038350020FC2A002021
:108AA00010B501460C48FFF747FC044608B12046C4
:108AB00010BD0A4802F098FA0028F8D10849064883
:108AC000FFF752FC0028F2D1012205490348BDE816
:108AD000104002F033BA00BF28350020FC2A0020E5
:108AE0003C35002070B4EFF3108472B60D4B9A68D9
:108AF000AAB90D490D4E01259D60D1F88050354031
:108B00001D60C1F88060D1F884505D604FF0FF3384
:108B1000C1F88430027004B962B670BC704701239A
:108B20000370F8E7A03F012000E100E0FC06FFBD74
:108B3000094B9A687AB170B910B4EFF3108172B62C
:108B4000064A1C6814605C685460986001B962B69B
:108B50005DF8044B70477047A03F012000E100E042
:108B6000F8B5234E4579234C234F0346234847F855
:108B70002520801B04EBC506C0083679000486BB9F
:108B80001A680D88C2F8085593F904208978002ADC
:108B90001FDB02F1604202F561424901C9B282F86D
:108BA000001393F90420164F1649012602F01F0501
:108BB000520906FA05F547F822505A7904EBC20526
:108BC00040F003002E7144F83230FEF715FD00200E
:108BD000F8BD0D4D02F00F0249011544C9B22976C6
:108BE000DFE740F002000949FEF706FD0820F8BD66
:108BF000104907004035002048350020384907005B
:108C000000E100E09CBC0600FCEC00E078BC060043
:108C1000036801221A607047036801225A60704796
:108C2000F0B404684FF480358D40C4F808530668EA
:108C30008C00C6F8485304F5A0740668A4B2002757
:108C4000375182B036590468019601F5A87122F0B7
:108C50007F42019E44F821200268C2F8445313B1B8
:108C60000368C3F8045302B0F0BC70472DE9F04725
:108C700088464FF48037016807FA08F7C1F848734F
:108C80000168C1F80873064600684FEA88040119B4
:108C9000D0F80455D1F84005C1F8405504F5A0744A
:108CA000A4B231684FF0000941F8049082B0401B33
:108CB0000959009120F07F4001289A4622F07F4513
:108CC000009B0BD1264B4FF4806043F00103984783
:108CD000336843F804901B590193019B3368D3F820
:108CE0000445C3F844732B1B23F07F43012B08F585
:108CF000A87817D130681A4B013540F8285043F056
:108D000001034FF4806098473268D2F804359C42E2
:108D100022D1C2F8447333680020C3F8047302B050
:108D2000BDE8F087336843F828503268D2F804155C
:108D30006B1ACAF1FF1A013B0AF57F4A23F07F4301
:108D40009A4509D3002BE4D1013542F82850326806
:108D5000D2F804359942DCD00D2002B0BDE8F0878E
:108D600070BC060002680223C2F8443311B10268E5
:108D7000C2F80433704700BF0368D3F8040150B150
:108D8000002282B0C3F80421D3F804310193019B7F
:108D9000012002B0704770474FF48033026803FA35
:108DA00001F1C2F848130368C3F80813704700BF05
:108DB000890001F5A07189B20368585840B10022BA
:108DC0005A5082B05B580193019B012002B070475A
:108DD000704700BF0368D3F80405704790F904306A
:108DE00005485A09403203F01F03012101FA03F339
:108DF00040F82230704700BF00E100E0024A034B18
:108E000010681B68184700BF403500204835002017
:108E10000A4830B400220125510902F01F0350F81E
:108E2000214005FA03F301322343592A40F8213047
:108E3000F2D1034B1D70002030BC70474C35002030
:108E400058940020F8B52A4B1C780CB92046F8BD80
:108E500000FB01F14B1EB3F5306F2DD220292ED827
:108E600000242346234F02E0592B144424D03F2BE7
:108E700038D94F2B38D9532B8CBF4FF430624FF475
:108E800000725D0903F01F0657F8251021FA06F05D
:108E900010F0010003F10103E6D0174B01201C4440
:108EA00000FA06F621EA06062046002147F825606A
:108EB00041F0EBF82046F8BD00242046F8BD4029DB
:108EC000CED9B1F5807F03D84FF480544023C9E751
:108ED000B1F5007F8BBF4FF420544FF4005454235E
:108EE0005023BFE74022CCE74FF48072C9E700BFB0
:108EF000589400204C35002058350020174B1B7823
:108F00002BB320B3002210B41346154C0DE03F2BB9
:108F10001ED94F2B1ED9532B8CBF4FF430614FF409
:108F200000710133592B0A440ED0A1188842EED1AA
:108F300058090C4903F01F0351F82040012202FA9E
:108F400003F3234341F820305DF8044B704770472A
:108F50004021E6E74FF48071E3E700BF589400201A
:108F6000583500204C35002099B110B4B2FBF3F411
:108F700003FB1424A4B244B9C0E9001484608281C4
:108F8000C38120465DF8044B704709205DF8044B0F
:108F900070470E20704700BF30B482B050E8013FE8
:108FA0009DB2C48925448489A54228BF2D1B04890C
:108FB000A54202BFBFF32F8F002207E0C5EA0305D9
:108FC00040E80154002CE9D14FF001028DF8032054
:108FD0000193019B9DF803200B602AB10B88006868
:108FE000184402B030BC704702F0FF031846F8E79F
:108FF0000A884B889A4201D00020704750E8012F20
:10900000C2EA024240E80123002BF7D10120704759
:1090100030B482B050E8023F1FFAA3F5C488A542DD
:1090200002BFBFF32F8F00220DE0C489254484893D
:10903000A54228BF2D1BC3EA054540E80254002C79
:10904000E8D14FF001028DF803200193019B9DF8B8
:1090500003200B602AB14B880068184402B030BC72
:10906000704702F0FF031846F8E700BF0A884B88F4
:109070009A4201D00020704750E8022FC2EA2242F3
:1090800040E80223002BF7D10120704701F01F02B6
:109090004B09012100EB8300914000F01FB800BF95
:1090A00001F01F0201234909934000EB8100D943DD
:1090B00000F020B84B0901F01F0150F82300C84010
:1090C00000F00100704700BF50E8002F0B4640E859
:1090D000003C9CF0000FF7D11046704750E8003F6D
:1090E00043EA010240E8002C9CF0000FF6D1104644
:1090F000704700BF50E8003F03EA010240E8002C3F
:109100009CF0000FF6D11046704700BF50E8003FBA
:1091100003EB010240E8002C9CF0000FF6D1104652
:10912000704700BF50E8003FA3EB010240E8002C6D
:109130009CF0000FF6D11046704700BF012350E8A5
:10914000002F42EA030C40E800C191F0000FF6D175
:1091500060467047002350E800CF0CEA030240E865
:10916000002191F0000FF6D160467047B8B130B4DD
:10917000D0E90112521A0468D2B2531E2160DBB248
:1091800042B101680A685C1E551C0D601370E3B2A1
:10919000FF2BF6D103680020187130BC70470E20F9
:1091A000704700BFF0B583B002AB002503F8015D46
:1091B00004461846FFF796FCD4E900311A688A4243
:1091C00010D9511E19602168A3680F6812F8015C5C
:1091D0000A79268AE068DB1BDBB29A4206FB0505AA
:1091E00038BF0B719DF80700FFF7A2FC284603B0BB
:1091F000F0BD00BF30B583B002AB002203F8012DF3
:10920000054618460C46FFF76DFC2A681368591C82
:109210001160E9682A8A641AB4FBF2F41C709DF8A4
:109220000700FFF785FC03B030BD00BF826842B184
:1092300010B5044643690168006998470023A3609C
:1092400010BD70470EB400B582B0039929B102AACF
:1092500004AB42F8043D00F0A9F802B05DF804EB5D
:1092600003B070472DE9F04F924683B051450F4649
:1092700005461E46DDE90CB2C0F092800B464FF069
:109280000108B3FBFAF39A4508F10108F9D9B04592
:1092900038BFB04612F00109A96802D1BBF1000F36
:1092A00054D1012402E0013E0AFB04F4012EFAD855
:1092B000B7FBF4F08245F7D93B4E02E0A968B7FB53
:1092C000F4F0335C2A680A2B04FB107702EB010EE2
:1092D00001F1010029D0A8608EF80030D5E90131F4
:1092E000994202D32846FFF7A1FFB4FBFAF4002C01
:1092F000E4D1B9F1000F15D0BBF1000F12D0C34576
:1093000010D92024AB682A68591CA960D454D5E927
:1093100001329A420BF1FF3B14D2BBF1000F01D096
:10932000C345EFD103B0BDE8F08FA8604FF00D004A
:109330005054D5E9011088421DD2296801EB000E76
:109340000130C8E72846FFF771FFE6E7930722D40C
:109350002024C345A5D92B684A1CAA605C54D5E9D2
:10936000013199420BF1FF3B10D2BBF1000F98D0B5
:10937000C345F0D195E728460193FFF757FFAA6848
:109380002968019B501C01EB020EA4E72846FFF759
:109390004DFFA968E9E7002E0CBF30242024D8E750
:1093A0004FF0010873E700BFBCBC0600002900F0C5
:1093B000B9822DE9F04F054687B091460C460E78EC
:1093C000DFF8C8A64FF00D0B13E0AB6828680A2E33
:1093D00003F1010200EB030100F04B82AA600E7062
:1093E000D5E901329A4280F01B812678002E00F0E8
:1093F0001E810134002E00F01A81252EE5D123466E
:10940000002713F8012B2D2A00F0E380302A00F00A
:10941000E4802B2A00F0D4802A2A00F00D81A2F1EA
:109420003006F1B2092903D97DE2A1F130060346E5
:10943000184606EB860110F8012BA2F13004092C26
:1094400002EB4101F1D92E2A00F002814FF0000811
:10945000013301E013F8012B02F0FB0168291C46DF
:10946000F8D0253A532AC0D801A353F822F000BF00
:109470005B980200EB930200EB930200EB93020077
:10948000EB930200EB930200EB930200EB930200DC
:10949000EB930200EB930200EB930200EB930200CC
:1094A000EB930200EB930200EB930200EB930200BC
:1094B000EB930200EB930200EB930200EB930200AC
:1094C000EB930200EB930200EB930200EB9302009C
:1094D000EB930200EB930200EB930200EB9302008C
:1094E000EB930200EB930200EB930200EB9302007C
:1094F000EB930200EB930200EB930200EB9302006C
:10950000EB930200EB930200EB930200EB9302005B
:10951000EB930200EB930200EB930200EB9302004B
:10952000EB930200EB930200EB930200EB9302003B
:10953000EB930200EB930200EB9302003F980200D2
:10954000EB930200EB930200EB930200EB9302001B
:10955000EB930200EB930200EB930200EB9302000B
:10956000EB930200EB930200E3950200C597020023
:10957000EB930200EB930200EB930200EB930200EB
:10958000C5970200EB930200EB930200EB930200FD
:10959000EB930200EB930200EB9302002D97020085
:1095A000EB930200EB930200A5960200EB930200FE
:1095B00089960200EB930200EB9302003F980200B1
:1095C00047F004071C46234613F8012B2D2A7FF48D
:1095D0001DAF47F001071C46F5E747F002071C46A0
:1095E000F1E7D9F800301A1DC9F800201E78AB68E1
:1095F0000A2E0CD12A68591CA96002F803B0D5E9DB
:109600000123934203D32846FFF710FEAB682A6874
:10961000591CA960D654D5E901329A42FFF4E5AE4F
:109620002846FFF703FE2678002E7FF4E2AE2B7B60
:1096300023BB07B0BDE8F08FD9F80020111DC9F891
:109640000010166862782E2A04F102007FF4FEAE44
:109650005A78A2F13003092B00F2BD814FF00008C7
:1096600008EB880802EB480810F8012FA2F130033C
:10967000092BA8F13008F3D90346E9E6284607B0DC
:10968000BDE8F04FFFF7D2BDD9F800301A1DC9F878
:10969000002019680197434600960A222846FFF7E2
:1096A000E1FDA2E6D9F800301A1DC9F80020D3F870
:1096B0000080FB0700F1E880B8F1000F00F0A18105
:1096C000404641F0E2F80746BE4215D9A6B1202136
:1096D00000E08EB1AA682B68501CA8609954D5E9A7
:1096E00001329A4206F1FF3604D328460391FFF770
:1096F0009DFD0399BE42ECD108F1FF3818F8016FC7
:10970000002E3FF472AEAB6828680A2E03F1010206
:1097100000EB030100F09081AA600E70D5E90132E0
:109720009A42EBD32846FFF781FDE7E7D9F80020FE
:10973000131DC9F80030AB6829681768581C30221F
:10974000A860CA54D5E90123934280F0E6802A68D4
:10975000581C7821A860D154D5E90123934280F0A8
:10976000D7800F2F03D93A4612090F2AFCD84FF0A1
:1097700080560DE0AA6081F80080D5E901329A4256
:1097800002D32846FFF752FD36093FF42EAEAB68F0
:10979000B7FBF6F21AF802802868B8F10A0F06FB48
:1097A000127700EB030103F10102E3D1AA6000F894
:1097B00003B0D5E901329A4280F049812B689918AB
:1097C0000132D7E7D9F800301A1DC9F8002019680E
:1097D00081EAE173A3EBE173092B40F30E81AA4800
:1097E0000122A0FB03C3DB08092B02F10102F8DC14
:1097F0004245134638BF4346039307F00203002E49
:1098000040F09580002B00F0B780B8F1000F00F019
:10981000F680F80740F1B0800029C0F2FF807A0797
:1098200000F1C88007F00303022B00F0A780CDE908
:10983000006743460A222846FFF714FDD5E5D9F80C
:1098400000301A1DC9F80020196801974346009698
:1098500010222846FFF706FDC7E5AB682A68581CAA
:109860002521A860D154D5E901329A42FFF4BDAD5B
:10987000D6E6AA6000F803B0D5E901329A423FD299
:10988000296811440132A9E54146A1EB080311F80A
:10989000017BD7B1AB68D5F800C00A2F03F10102F4
:1098A0000CEB030000F0AF80AA600770D5E901322D
:1098B0009A42EAD328460391FFF7B8FC0399A1EB3B
:1098C000080311F8017B002FE4D19E427FF68DAD95
:1098D000202702E0002E3FF488ADA9682A68481CC2
:1098E000A8605754D5E90121914206F1FF3604D30F
:1098F00028460393FFF79AFC039BB342EAD174E531
:109900002846FFF793FCAB6829685A1C194465E5A3
:109910002846FFF78BFCAB6823E72846FFF786FC59
:10992000AB6814E770471846002623468BE50029EC
:1099300020DB7A071ED41BB1B8F1000F3FF46CAFE7
:10994000F8073FF569AFBEB1039BB342BFF464AF04
:109950002023AA68501CA86028688354D5E9010216
:10996000824206F1FF3640D236B1039AB242F0D1BC
:10997000164651E7013EDEE700264DE7B8F1000F3D
:109980007FF455AF002E6AD0039BB342BFF44FAFB4
:109990003023AA68501CA86028688354D5E90102C6
:1099A000824206F1FF3618D2002E58D0039AB242F6
:1099B000EFD13CE7AA68531CAB602B682B2098546E
:1099C000D5E901329A42FFF42DAF28460491FFF702
:1099D0002DFC049926E7034638E52846CDE9041313
:1099E000FFF724FCDDE90413DEE72846CDE9041384
:1099F000FFF71CFCDDE90413B6E70122F8E6464652
:109A00000AE7474660E6AA600CF803B0D5E90132E0
:109A10009A4226D22B689818013245E7AA68531C4F
:109A2000AB602B682D209854D5E901329A42C1F1E0
:109A30000001FFF4F7AEC8E7AA6000F803B0D5E96B
:109A400001329A4217D229681144013264E628464D
:109A5000FFF7ECFBA9682B684A1C19448AE600262C
:109A6000E5E628460391FFF7E1FBA8682B68039918
:109A7000421C184418E72846FFF7D8FBAB68296852
:109A80005A1C194448E600BFCDCCCCCCBCBC060067
:109A9000FFF76CBB2DE9F041058ACE1C043D2E4436
:109AA0000746B6FBF5F6FFF77DFB78B3F6B24FF449
:109AB0008073013E0446C5800760838027D08046BE
:109AC000002509E06379AE4203F101036371C8F830
:109AD0000000076080461AD03846FFF763FB013567
:109AE0000028EFD16679721E14D0234601308242DD
:109AF0001B68FBD11F684EB1002523682146013544
:109B000038461C46FFF776FBAE42F6D100242046CD
:109B1000BDE8F0812768EFE704300121FFF7F6BACE
:109B2000F8B5012104460430FFF7FCFAC0B200B1D9
:109B3000F8BD6679721E12D02346013082421B683E
:109B4000FBD11F68002EF3D0002523682146013584
:109B500038461C46FFF74EFBAE42F6D1F8BD2768EB
:109B6000F2E700BF2DE9F843C788467907FB06F600
:109B7000043E02EB030C0446664503F1040015465F
:109B80008846B0FBF7F238BFF51A07FB120012B196
:109B9000013A2468FCD13E1AAE4228BF2E469DB140
:109BA0004FF000090430AD1B2044324608EB090198
:109BB00040F047FAAF42B14424683E464FF00000FF
:109BC00028BF2E46002DEDD1BDE8F8832DE9F843DE
:109BD000C7884679154607FB06F6043E05EB030CDD
:109BE0001A1D664504468846B2FBF7F038BFF51AE1
:109BF00007FB102110B101382468FCD17E1AAE4257
:109C000028BF2E469DB14FF0000904312144AD1B01
:109C1000324608EB090040F014FAAF42B144246820
:109C20003E464FF0000128BF2E46002DEDD1BDE885
:109C3000F88300BF826800239360826813618268A2
:109C400053618268D3608268536082681360704792
:109C500001600B6843604A68934204BF002343607D
:109C6000704700BF436843B1026891680B4443608A
:109C70005268934204BF00234360704770B5446844
:109C8000064620680D4618B908E02468206828B107
:109C9000B368294698470028F7D1206828602560D6
:109CA00070BD00BF4368186808B102681A60704749
:109CB00043681868704700BF4068036873B18B42FF
:109CC00003D107E0814204D0034618680028F9D187
:109CD000704718460B6803600120704718467047AC
:109CE00030B4184DA5F59472AB1ADB1003EBD373A7
:109CF0005B1002EBC30152F83330984228BF0C4688
:109D000005D311E052F8333098420CD221468B1A19
:109D1000DB1003EBD3735B108A4202EBC304F1D375
:109D2000094830BC70470D46984204D904F1080236
:109D3000AA42D9D3F4E76068034B002808BF18464D
:109D4000EFE700BF20BE0600E4BC060070B5161E9B
:109D500007DD0C468D1914F8010BFEF7A1FEA54294
:109D6000F9D1304670BD00BF10B50C462046FEF755
:109D700077FE0528FAD0012010BD00BF10B44FF0C7
:109D800080414FF080520020C1F80C015E4BC1F8B9
:109D90001001C1F83805D2F80414C3F82015D2F820
:109DA0000814C3F82415D2F80C14C3F82815D2F8F7
:109DB0001014C3F82C15D2F81414C3F83015D2F8C7
:109DC0001814C3F83415D2F81C14C3F84015D2F88F
:109DD0002014C3F84415D2F82414C3F84815D2F857
:109DE0002814C3F84C15D2F82C14C3F85015D2F827
:109DF0003014C3F85415D2F83414C3F86015D2F8EF
:109E00003814C3F86415D2F83C04C3F86805D2F8D6
:109E100040043E49C3F86C050968D2F84424C3F8ED
:109E20007025082924D04FF08043D3F80024D207AE
:109E300044BF6FF00102C3F80024354AD2F88830DD
:109E400043F47003C2F88830BFF34F8FBFF36F8FB6
:109E50004FF01023D3F80022002A23DBD3F804327A
:109E6000002B1FDB2B4B2C4A1A605DF8044B70470C
:109E70002A4B1B68002BD6D129482A4A2A4C046059
:109E80002A492B4BFB20C2F818050A681B68294891
:109E900022F00F0203F00F0313434FF400720B6024
:109EA0000260C0E7244B0122C3F80425D3F8002444
:109EB000002AFBD04FF0102312221F49C3F80022C2
:109EC000D1F80034002BFBD04FF0102212211A4B96
:109ED000C2F80412D3F80024002AFBD0002216494D
:109EE000C3F80425D1F80034002BFBD0BFF34F8F0B
:109EF0000749124BCA6802F4E0621343CB60BFF318
:109F00004F8F00BFFDE700BF00C0004030010010D0
:109F100000ED00E0042B00200090D003340100107D
:109F20008C56004000F0004048810300E40E0040E1
:109F3000580200104096024000E001400400FA057B
:109F4000074B1B5C1F2B8ABF064A4FF0A04203F051
:109F50001F03D2F80405D840C04300F00100704749
:109F600010C2060000030050074B1B5C1F2B86BF6E
:109F700003F01F0305494FF0A041012202FA03F349
:109F8000C1F80C35704700BF10C206000003005036
:109F9000074B1B5C1F2B86BF03F01F0305494FF0C7
:109FA000A041012202FA03F3C1F80835704700BF4F
:109FB00010C20600000300504FF0A04310B44FF44D
:109FC00080404FF400544FF400414FF48032C3F806
:109FD0000845C3F80805C3F80815C3F808255DF857
:109FE000044B70474FF0A04310B44FF480404FF43F
:109FF00000544FF400414FF48032C3F80C45C3F8CD
:10A000000C05C3F80C15C3F80C255DF8044B70471C
:10A010000A4B195C1F298ABF09484FF0A04001F084
:10A020001F01D0F8043501228A4022EA03011340BF
:10A03000C0F80815C0F80C35704700BF10C2060004
:10A0400000030050074B1B5C1F2B8ABF064A4FF0D2
:10A05000A04203F01F03D2F81005D840C04300F01F
:10A06000010070470CC20600000300500B2809D005
:10A070000C2809D0182809D019280CBF03204FF04C
:10A08000FF30704700207047012070470220704762
:10A09000C20730B40ED483070AD54FF0A0430C2278
:10A0A000C3F82C27C3F83027C3F86027C3F8642708
:10A0B00030BC70474FF0A0430322C3F834274FF45D
:10A0C0000055C3F838274FF48044C3F83C274FF4B9
:10A0D0000041C3F840274FF48032C3F80855C3F855
:10A0E0000845C3F80815C3F80825D4E742DF7047D0
:10A0F00043DF704710B570B101280BD10D4C2369B7
:10A10000A0703BB1D3E90023012022619847236965
:10A11000002BF7D110BD074CA36801226270002B01
:10A12000F8D0D3E900230020A2609847A368002B51
:10A13000F7D1EFE75C94002070B910B5074CA36825
:10A14000012262703BB1D3E900230020A26098474E
:10A15000A368002BF7D110BD704700BF5C940020AE
:10A1600030B5012883B01CD015D3032811D100F0DD
:10A1700037F902A800231F4C00F8013DFEF7B2FC9E
:10A18000E368013BE360E56865B39DF80700FEF70F
:10A19000CFFC03B030BD184B0122C3F8802003B0C0
:10A1A00030BD02A80023134C00F8013DFEF79AFCD5
:10A1B000237853B1E3689DF8070001330122E3607F
:10A1C000A270FEF7B5FC03B030BD0C486360A3601D
:10A1D0002361E36000F0F6F802F0D6F930B1012314
:10A1E0002370E7E700F026F9A570CEE700F0F8F855
:10A1F000F5E700BF5C94002000E100E0F5A002005C
:10A2000038B50C4C237873B90B486360A3602361A5
:10A21000E36000F0D7F8054602F0B6F930B101234B
:10A220002370284638BD8525284638BD00F0D8F86B
:10A23000F5E700BF5C940020F5A0020030B5194C92
:10A24000A37883B0054693B110B1436801209847C5
:10A2500002A8002300F8013DFEF744FCE3689DF8E6
:10A2600007000133E360FEF763FC03B030BD02A8D2
:10A2700003F0FF0200F8012DFEF734FC65B12269FE
:10A2800042B1954208D0134601E09D4204D01B68BC
:10A29000002BFAD12A602561E368002BDED100F0A3
:10A2A000B1F8DBE75C94002030B583B002A800234E
:10A2B000094C00F8013DFEF715FCE368013BE36043
:10A2C000E56815B900F0B6F8A5709DF80700FEF72F
:10A2D0002FFC03B030BD00BF5C94002008B502F035
:10A2E00053F928B94FF08043D3F81804C0F3004065
:10A2F00008BD00BF30B51C4C637883B0054693B1F0
:10A3000010B143680020984702A8002300F8013DDF
:10A31000FEF7E8FB63689DF8070001336360FEF712
:10A3200007FC03B030BD02A803F0FF0200F8012DC6
:10A33000FEF7D8FB65B1A26842B1954208D013463A
:10A3400001E09D4204D01B68002BFAD12A60A56071
:10A350006368002BDED102F017F910B900F076F82F
:10A36000D8E7FFF7C3FED5E75C94002070B582B054
:10A3700002A80023124C00F8013DFEF7B3FB63680E
:10A38000013B636065682DB19DF80700FEF7D0FBC7
:10A3900002B070BD02F0F8F8064640B900F068F867
:10A3A0009DF807006670FEF7C3FB02B070BDFFF7B3
:10A3B0009FFE9DF807006570FEF7BAFB02B070BD06
:10A3C0005C940020054A13792BB901211060537168
:10A3D0001846117170478520704700BF70940020A7
:10A3E000074B1A68D20704D4C021012283F8001356
:10A3F0001A604FF080430122C3F81825704700BF50
:10A4000000E100E010B4094B094A0021196083B053
:10A410001B680193019C4FF0804102200123C1F889
:10A420000403136003B05DF8044B7047040100405F
:10A4300008000040044B01221A604FF08042D2F81D
:10A440001834DB03FBD470470C000040074B00229C
:10A450001A6082B01B68019301994FF0804301227A
:10A46000C3F804231A6002B0704700BF0001004027
:10A47000074B01221A604FF08042D2F80C3403F0EF
:10A480000113B3F1011FF8D0024B00225A7170473B
:10A49000040000407094002010B5154B1A6882B07B
:10A4A0007AB10021134A19601B68507900934FF06C
:10A4B00080410123009CC1F8083310B91168537121
:10A4C00088470D4B1A6882B100221A601B680193FD
:10A4D0004FF080420221074B0198C2F808131B6815
:10A4E000012002B0BDE81040184702B010BD00BF07
:10A4F00000010040709400200401004030B5204C61
:10A5000094F86A5083B0002D36D14FF0FF332946BE
:10A51000062204F16400C4E90033C4E90233C4E94B
:10A520000433C4E90633C4E90833C4E90A33C4E98F
:10A530000C33C4E90E33C4E91033C4E91233C4E95F
:10A540001433C4E9163323663FF09FFD0D4A0E4BCA
:10A550000E491D60C02082F80603402010601B6871
:10A56000019301984FF000430122284684F86A20A5
:10A57000C1F8043303B030BD082003B030BD00BFC4
:10A580007894002000E100E07C6100400060004021
:10A59000034B93F86A00003018BF0120704700BFDA
:10A5A00078940020F0B5744B1C1894F93050002DAD
:10A5B0006ADA8E78C6F340069646002E5ED11D6A92
:10A5C000013500F0C48009240C2553F824700137AC
:10A5D0005DD004F1010C53F82C70013700F0C280FB
:10A5E000A71CAF4248D253F82720013200F0BC80AC
:10A5F00004F1030CAC453FD253F82C70013700F046
:10A60000B18004F1040CAC4536D253F82C700137FC
:10A6100000F0A88004F1050CAC452DD253F82C7045
:10A62000013700F09F8004F1060CAC4524D253F8AA
:10A630002C70013700F0968004F1070CAC451BD25A
:10A6400053F82C70013700F08D8004F1080CAC45F4
:10A6500012D253F82C70013700F0848004F1090CF9
:10A66000AC4509D253F82C7001377BD00A34AC4288
:10A6700002D2DC6A013409D00420F0BD1D68013526
:10A6800074D001240825A0E70820F0BD0B241F1872
:10A6900065B243F824E087F83050002E5ED08A7807
:10A6A00054071AD4D60741D41F284A7887BF334E9F
:10A6B00000F01F0404464FF0A04604F5E074920039
:10A6C00046F824202E4EC40800F0070C375D012206
:10A6D00002FA0CF23A4332558A780C7812F00202F0
:10A6E00009D1083D2B44104693F8602042EA8414B7
:10A6F00083F86040F0BDAB0003F1804303F5C04335
:10A700000202D3F8101521F44F3121F44071C3F83F
:10A7100010152404D3F8101504F4403402F47C52CC
:10A7200022430A43C3F810250020F0BD1F2887BF2D
:10A73000124A00F01F0404464FF0A04202EB8402CC
:10A74000D2F8004724F00204C2F80047BAE708260E
:10A7500084F83060C3F820E0354634461C4484F861
:10A7600058009CE7644692E73C4690E700251A6053
:10A7700084F8305093E700BF789400200003005025
:10A78000DC94002070B43A4D2E1883B096F9303026
:10A79000072B20DD2B4493F858309B09032B45D021
:10A7A000012B14BF4FF440314FF400311F284DD915
:10A7B00000F01F002F4B03EB8000D0F8002722F49D
:10A7C0004032C0F80027D0F800370B43C0F80037FC
:10A7D00003B070BC7047DAB2072AF9D8980000F1CC
:10A7E000804000F5C04003F14002D0F810459200CF
:10A7F00092B244F0010402F18042C0F8104502F523
:10A80000C04200200190019C10600029E0D096F920
:10A81000302055F82220002ADAD00122164902FA07
:10A8200003F3C1F8043303B070BC70471F2810D97C
:10A83000104BD3F8103500F01F00C34013F0010F88
:10A840000CBF4FF400314FF44031B3E74FF0A04359
:10A85000B1E74FF0A0421346D2F81025C24012F0E3
:10A86000010F14BF4FF440314FF40031A3E700BF94
:10A870007894002000030050006000401F288ABF29
:10A88000054B4FF0A04300F01F00D3F8103523FA1A
:10A8900000F000F001007047000300502DE9F04780
:10A8A000002388B0CDE90233CE4A1668012E00F0AD
:10A8B0003B821E46CC4B1A68012A00F02782CB4B04
:10A8C0001A68012A00F01482C94B1A68012A00F0A4
:10A8D0000182C84B1A68012A00F0EE81C64B1A6843
:10A8E000012A00F0DB81C54B1A68012A00F0C881FB
:10A8F000C34B1A68012A00F0B581C24B1A68012ABD
:10A900000FD100221A601B6801934FF0A042019BF7
:10A91000D2F81025BC4B0292D3F81035039346F0C1
:10A92000004616F0FF0F1AD0B84F00240125A300EF
:10A9300003F180432E4203F5C0434FEA45050BD097
:10A94000D3F8100557F82420D3F81015C0F30520CC
:10A95000C1F3014102B190470134082CE7D1002E28
:10A9600002DB08B0BDE8F087A84CA74F4FF0FF33DB
:10A97000CDE9063394F960300DF1100800225D1C1A
:10A98000C8F8042004924FF0010600F0F4805FFA4A
:10A9900083FC2CF0C00008AB4FEAD00903EB090E92
:10A9A0000CF007031EF8082C06FA03F312EA03055D
:10A9B00021D022184FEA9C1192F9302054F822201D
:10A9C000002A00F02981032900F028811F2800F2C5
:10A9D000F98005464FF0A04C0CEB850C1EF8185C76
:10A9E000DCF800E71D40CEF3014E40F0DF80BEF101
:10A9F000030F00F0BF8194F96130581C32D0DBB2F4
:10AA000023F0C00008AA4FEAD00E02EB0E0C03F0B0
:10AA100007011CF8082C06FA01F912EA090F21D0E7
:10AA20002218990992F9302054F82220002A00F0C7
:10AA3000FB80032900F0FB801F2800F2E980034619
:10AA40004FF0A04E0EEB83031CF818ECD3F800C7B0
:10AA50001EEA090FCCF3014C40F0B880BCF1030FA3
:10AA600000F0AE8194F96230591C30D0DBB223F093
:10AA7000C00008AA4FEAD00E02EB0E0C03F007014B
:10AA80001CF8082C06FA01F912EA090F1FD0221847
:10AA9000990992F9302054F82220002A00F0D88039
:10AAA000032900F0D8801F287CD803464FF0A04E21
:10AAB0000EEB83031CF818ECD3F800C71EEA090F4D
:10AAC000CCF3014C64D1BCF1030F00F0658194F923
:10AAD00063305A1C34D0DBB223F0C00008AA4FEA1E
:10AAE000D00E02EB0E0C03F007021CF8081C06FA4D
:10AAF00002F2114224D004EB0009990999F930902F
:10AB000054F82990B9F1000F00F09880032900F063
:10AB100098801F288BBFBE464FF0A04E03F01F0346
:10AB200003460EEB83031CF818ECD3F800C71EEAAB
:10AB3000020FCCF3014C20D1BCF1030F00F00181D6
:10AB4000002D3FF40EAF4FF0A0430299D3F810351B
:10AB5000D7F81025994203D1039991423FF401AFF0
:10AB6000DDE90401CDE9023294F960305D1CCDE9E4
:10AB700006017FF40CAF00253DE7BCF1020FDFD1E9
:10AB8000032900F03481B9F1000F40F0F180D7E7DC
:10AB9000BCF1020F9BD1032900F02681002A96D038
:10ABA000904794E703F01F03BE4681E7BEF1020F12
:10ABB000E1D1032900F021810025002A3FF41BAFD9
:10ABC000904718E70CF01F05BC4605E7BCF1020FE3
:10ABD0007FF448AF032900F00D81002A3FF442AF13
:10ABE00090473FE700610040046100400861004079
:10ABF0000C61004010610040146100401861004089
:10AC00001C6100407C6100400003005078940020EB
:10AC100003F01F03BE4615E70329ACD118F809500D
:10AC20001D4308F80950D1E603297FF41BAF18F83B
:10AC30000EA04AEA090A08F80EA0FDE603297FF4EF
:10AC40007FAF18F80EA04AEA020A08F80EA060E7E3
:10AC500003297FF43CAF18F80EA04AEA090A08F865
:10AC60000EA020E7664AD2F8042317067FF545AE0A
:10AC700000221A601B680093009B46F080063CE6A9
:10AC80005F4AD2F8042352067FF532AE00221A60E2
:10AC90001B680093009B46F0400629E6584AD2F80C
:10ACA000042391067FF51FAE00221A601B680093F3
:10ACB000009B46F0200616E6514AD2F80423D0063F
:10ACC0007FF50CAE00221A601B680093009B46F0D3
:10ACD000100603E64A4AD2F8042314077FF5F9ADBB
:10ACE00000221A601B680093009B46F00806F0E5FE
:10ACF000434AD2F8042355077FF5E6AD00221A60D7
:10AD00001B680093009B46F00406DDE53C4AD2F840
:10AD1000042397077FF5D3AD00221A601B680093C8
:10AD2000009B46F00206CAE53549D1F8041311F03C
:10AD3000010104D0136013680093009BBAE50E462E
:10AD4000B8E503297FF41FAF4FF4003CD3F8002788
:10AD500022F44032C3F80027D3F80027013542EA35
:10AD60000C02EDB2C3F80027B9F1000F3FF4EBAECF
:10AD7000C847E5E603297FF420AF4FF40035DCF83F
:10AD8000003723F44033CCF80037DCF800372B438E
:10AD9000CCF80037012510E703297FF4FFAE4FF40C
:10ADA000003ED3F800C72CF4403CC3F800C7D3F8EA
:10ADB00000C701354EEA0C0CEDB2C3F800C7EDE652
:10ADC00003297FF40AAF4FF4003ED3F800C72CF4F8
:10ADD000403CC3F800C7D3F800C701354EEA0C0C5D
:10ADE000EDB2C3F800C7F8E64FF4403ED9E74FF4A0
:10ADF000403CABE74FF4403EE7E74FF44035BEE759
:10AE0000006000404FF080531A69B0FBF2F302FB80
:10AE1000130373B9084B0222C3F804251A46C3F87A
:10AE20000805D2F80034DB07FBD50020C2F8040582
:10AE300070471020704700BF00E00140F0B43E4B67
:10AE40000124C3F8044510F0030382B02CD0C3F1F1
:10AE5000040494424FF0FF3628BF14460196C71AE7
:10AE6000BCB102AD1D440E7805F8046C012C03F151
:10AE700001050DD002AE3544032C4E7805F8046C64
:10AE800003F1020304D102AD2B448D7803F8045C76
:10AE9000019E294DD5F80034DB07FBD53E60BFF39A
:10AEA0005F8F121B20442144970811D00D1F224CA4
:10AEB00005EB8707A0EB010C55F8046FD4F80034BC
:10AEC000DB07FBD54CF80560BFF35F8FBD42F3D1C4
:10AED00012F0030428D022F00302104400F0030310
:10AEE00002ADEE188F5C4FF0FF35012C019503F198
:10AEF000010506F8047C0ED00A4402A90D44032C77
:10AF0000517805F8041C03F1020304D102A90B4493
:10AF1000927803F8042C0199074AD2F80034DB0731
:10AF2000FBD50160BFF35F8F034B0022C3F80425FC
:10AF300002B0F0BC704700BF00E0014001F0604388
:10AF4000B3F1005F2CD1F0B40579264EEF007C19E7
:10AF500006EB840482B0636923BB6261A16002686E
:10AF6000C2F82031D2F820C10268CDF804C0DDF863
:10AF700004C0C2F85831D2F8582100920268DDF8B6
:10AF800000C0D4F814C0C2F84415C2F848C502681D
:10AF90000121916062684AB1184602B0F0BC704766
:10AFA00010207047112002B0F0BC7047036800E029
:10AFB000B2B9D3F82011D3F858210029F8D07AB9C2
:10AFC0000122DA600268D2F85831002BFBD0002051
:10AFD0003D4406EB85060023736102B0F0BC704768
:10AFE0000F20F5E7E49400200379054A03EBC3033F
:10AFF00002EB83035869003018BF0120704700BF7F
:10B00000E494002001F06043B3F1005F7ED1F0B41E
:10B010000579464CEB005E1904EB860682B0766833
:10B0200026B107684FF4047CC7F808C32B4404EB2F
:10B0300083039D69002D42D19A61DD61D960036867
:10B04000C3F81051D3F8106103680196019EC3F84C
:10B050004451D3F8445103680095009DC3F834155A
:10B06000C3F83825036801221A6005790368EE00E9
:10B07000721904EB820252685AB14FF40472C3F899
:10B080000423002002B0F0BC7047002942D1002800
:10B0900046D1D3F81021D3F84411D3F82401002A63
:10B0A000F3D0354400284FF0000304EB850414BFAF
:10B0B000032018469942A36118BF0F20E2E7DD691B
:10B0C0003DB12EB303684FF40472C3F8042311207A
:10B0D000D8E71961DA610368C3F81051D3F8106139
:10B0E00003680196019EC3F84451D3F844510368A4
:10B0F0000095009DC3F83415C3F838250268D2F8CE
:10B10000003243F02003C2F80032AEE7102070474F
:10B110001120B7E7354404EB85040F20A261B1E7A5
:10B12000354404EB85040320A161ABE7E4940020DF
:10B13000F0B5524BD3F824218BB0002A6ED00021F9
:10B14000C3F82411D3F82421049202228DF8182088
:10B15000049AD3F880044A4AC3F880040990D3F8CB
:10B160003C05D3680890C2E906110793116853683B
:10B1700006A89847414BD3F84421BAB10021404A70
:10B18000C3F84411D3F8444190690394039C68B117
:10B19000D3F83C35D06808930123C2E90611079023
:10B1A0008DF8183006A8D2E900139847334BD3F82E
:10B1B0002021BAB10021C3F82011D3F82021029236
:10B1C00001202F4A029CD860506958B1D3F84C0531
:10B1D000936808908DF818105161079306A8D2E97A
:10B1E00000139847254BD3F85821AAB10021C3F882
:10B1F0005811D3F85801224A01900198506958B16A
:10B20000D3F84C05936808908DF818105161079396
:10B2100006A8D2E9001398470BB0F0BDD3F810117F
:10B220000029A7D0C3F81021D3F8101114480591B4
:10B2300005998169D3F83C458C429BD1C569C768A3
:10B24000D0E900168DB1D3F800C285612CF020053D
:10B25000C261C3F800520369C3600122CDE90774DB
:10B260008DF8182006A8B04784E701238561CDE951
:10B2700007748DF8183006A8B0477BE700800240BD
:10B28000E49400200220FEF7C3BE00BF2DE9F04782
:10B290000D460646FEF7EAFE03281ED8012D044699
:10B2A0001DD00ED3022D18D11B4B00EB40041C44C3
:10B2B000657895B1194B1B687BB12846BDE8F0470E
:10B2C00018471748FDF7AAFB134B164A04EB440135
:10B2D0000B44125D9D78AA42EBD0BDE8F0870E4F7B
:10B2E0004FEA400808EB0003FA18FD5C53782BB9CD
:10B2F000A04447440B4BBA781A55DAE7DFF8289098
:10B3000007484A464FF48041FDF738FB0028EFD14B
:10B3100089F80060ECE700BF70950020849500205C
:10B32000309500208C9500200895002010B50078FD
:10B33000FEF79CFE03280BD8064B00EB4000184498
:10B34000407828B1044B1B6813B1BDE81040184782
:10B3500010BD00BF7095002084950020B44B1B6881
:10B36000DB0700D4704770B5B24DB34E2B783478FC
:10B370006BB1B24B1B7800202870002B4BD0FEF72E
:10B3800007FE0120FEF704FE0320FEF701FE172C46
:10B3900040D8DFE814F0B600F400F400DC00080147
:10B3A000CA001301EE00500043005000430061004A
:10B3B00018001800180018001800660077008B00AD
:10B3C0009F005D005D009E48FDF728FBD4F111044D
:10B3D000054600F00081002840F0FD80012C13D0CC
:10B3E000C82303FB04F44FF47A704FF400430021A8
:10B3F000C3FB04014FF4FA62002340F0F3F92A463C
:10B4000001468F48FDF7BAFA0220FEF7ADFD8B4BDF
:10B4100001221A7070BDFEF7CFFDB8E70123184670
:10B420002B70FEF7F5FD00224FF400518548BDE872
:10B430007040FDF7A3BA012318462B70FEF7E8FD14
:10B44000002240F266617F48BDE87040FDF796BA81
:10B45000FEF7C8FD347070BDFEF7C4FD0C233370D9
:10B4600070BD764B1B78002B00F0BF800020FEF7EC
:10B470008FFD0120FEF78CFD0320FEF789FD1223CE
:10B48000337070BD6D4B1B78002B00F0B180002035
:10B49000FEF77EFD0120FEF77BFD0320FEF778FD21
:10B4A0000020FEF761FD1323337070BD634B1B78E2
:10B4B000002B00F0AD800020FEF76AFD0120FEF7B2
:10B4C00067FD0320FEF764FD0120FEF74DFD142308
:10B4D000337070BD594B1B78002B00F08380002027
:10B4E000FEF756FD0120FEF753FD0320FEF750FD49
:10B4F0000020FEF739FD0120FEF736FD15233370DD
:10B5000070BD4E4B1B78002B00F08A800020FEF7A8
:10B510003FFD0120FEF73CFD0320FEF739FD4948C1
:10B52000FDF77CFA0023337070BD0020FEF708FDA4
:10B53000002860D00020FEF72BFD05233370002289
:10B5400040F6CD413F48BDE87040FDF717BA0020F6
:10B55000FEF7F6FC00285ED00020FEF719FD43F24E
:10B5600033310323337000223648BDE87040FDF7C5
:10B5700005BA0020FEF7F8FC0723337070BD0020E9
:10B58000FEF7DEFCD0B30020FEF702FD022C47F2EE
:10B59000333118BF4FF48031347000222948BDE8A0
:10B5A0007040FDF7EBB90020FEF7CAFCD8B30020CD
:10B5B000FEF7EEFC4FF480310423D3E70020FEF7C2
:10B5C00027FD06233370002240F266611D48BDE866
:10B5D0007040FDF7D3B90220FEF7DAFC174B0022CA
:10B5E0001A7070BDFEF7E8FC82E7FEF7E5FC46E75F
:10B5F000FEF7E2FC54E7FEF7B7FC9EE7FEF7B4FC6B
:10B6000041F69A1140F6CD43022C08BF1946C3E714
:10B61000FEF7D2FC58E7FEF7A7FC40F6CD41A0E7C5
:10B62000FEF7CAFC7BE7FEF79FFC41F69A11C3E7E1
:10B630007C950020809500208895002009950020A9
:10B640001095002050950020032801D90020704754
:10B65000FEF7F8BC38B5C54B1C6814F0010401D1E5
:10B66000204638BDC24C2378054663B1C14B1B78D8
:10B670000020207023B3FEF78BFC0120FEF788FC2E
:10B680000320FEF785FC172D00F26D81DFE815F031
:10B69000C300EC00EC001001D900230102013601C7
:10B6A00028001B0028001B006A0071007100710057
:10B6B000710071009A00AD0035004B006400640019
:10B6C000FEF77AFCDFE7012318462370FEF7A0FCA3
:10B6D00000224FF40051A848BDE83840FDF74EB9AC
:10B6E000012318462370FEF793FC002240F26661A6
:10B6F000A148BDE83840FDF741B99E4B1B78002BAF
:10B7000000F016810020FEF743FC0120FEF740FC0C
:10B710000320FEF73DFC0120FEF726FC974B142288
:10B720001A7000249CE7934B1B78002B00F00381D8
:10B730000020FEF72DFC0120FEF72AFC0320FEF777
:10B7400027FC0020FEF710FC0120FEF70DFC8B4BC0
:10B7500015221A70002483E7FEF744FC874B00246F
:10B760001D707DE7FEF73EFC844B0C221A7000240E
:10B7700076E78348FDF752F90446D5F1110000F051
:10B78000C580002C40F0C280012814D0C82505FBDC
:10B7900000F54FF400434FF47A700021C3FB05011C
:10B7A0004FF4FA62002340F01DF822460146744827
:10B7B000FDF7E4F804460220FEF7D6FB6D4B0122AC
:10B7C0001A704DE76B4B1B78002B00F0AE80002009
:10B7D000FEF7DEFB0120FEF7DBFB0320FEF7D8FBC4
:10B7E000664B12221A7000243AE7624B1B78002B3A
:10B7F00000F093800020FEF7CBFB0120FEF7C8FB92
:10B800000320FEF7C5FB0020FEF7AEFB5B4B1322C7
:10B810001A70002424E7574B1B78002B00F08E8011
:10B820000020FEF7B5FB0120FEF7B2FB0320FEF778
:10B83000AFFB5148FDF7F2F8504B002204461A7056
:10B840000EE70020FEF77CFB002869D00020FEF701
:10B850009FFB4FF48031494B474804241C70002261
:10B86000BDE83840FDF78AB80020FEF769FB0028E4
:10B870006CD00020FEF78CFB022D47F2333118BF4D
:10B880004FF480313D4B3C481D700022BDE83840EC
:10B89000FDF774B80020FEF7BBFB384B3648062492
:10B8A0001C70002240F26661BDE83840FDF766B8C2
:10B8B0000020FEF745FB002843D00020FEF768FB80
:10B8C00043F233312D4B2C4803241C700022BDE879
:10B8D0003840FDF753B80020FEF732FB00283FD078
:10B8E0000020FEF755FB254B234805241C70002241
:10B8F00040F6CD41BDE83840FDF740B80020FEF7E6
:10B9000033FB1E4B07221A700024A9E60220FEF723
:10B910003FFB184B00221A70A2E6FEF74DFB72E7C0
:10B92000FEF722FB41F69A1195E7FEF745FB57E734
:10B93000FEF742FBEFE6FEF73FFB02E7FEF73CFBBC
:10B9400077E7FEF711FB40F6CD41BBE7FEF70CFBB6
:10B9500041F69A1140F6CD43022D08BF194691E7F2
:10B96000FEF702FBBFE700247AE600BF7C950020CB
:10B970008095002009950020509500208895002092
:10B980001095002038B5244B244A196083071060B5
:10B9900000F0010503D4CDB92C46204638BD204B1C
:10B9A00020480E240F2210211C701124DA70997186
:10B9B0005C7240F233320421FCF704FC0446B8B157
:10B9C00015B10120FEF764FB204638BD0120FEF7CB
:10B9D0005FFB154A15480021FCF7C2FF044600280A
:10B9E000F2D1134A13480121BDE83840FCF7B8BF33
:10B9F000FCF744FC04460028E2D101460E4A0F48F9
:10BA0000FCF7AEFF0446002DDED00120FEF740FB20
:10BA1000002CD9D1DDE700BF849500207C95002063
:10BA20007095002034C206005DB302005CC20600BF
:10BA300085B2020054C206002DB3020058C20600AF
:10BA4000032811D8012A0BD0012919D00ED30229BD
:10BA50000AD10E4B00EB4000034400205A7070479F
:10BA600001290AD00022EFE707207047074B00EBBF
:10BA70004000034400209A70704700F10E02D2B2D9
:10BA800000EB400301490020CA5470477095002024
:10BA900010B50388102B07D0112B04D1254B186843
:10BAA0000138186030B110BD224C216881B10131DC
:10BAB000216010BD01220221FFF7C2FF38B3072821
:10BAC00025D01D4B1B68002BEDD0BDE8104018475A
:10BAD00001220846FFF7B4FF38B1072805D0164BFE
:10BAE0001B6803B198472168E1E707220221012082
:10BAF000FFF7A6FF08B10728F1D104220221002098
:10BB0000FFF79EFF0028EED00728E8D1EBE70722D9
:10BB100002210120FFF794FF08B10728D1D10021AD
:10BB200008460A22FFF78CFF0028BCD00728C8D19E
:10BB300010BD00BF9495002090950020184B10B5C3
:10BB4000186031B101200C46FFF77EFDF8B10223E9
:10BB50002370144B186808B1002010BD0122022187
:10BB6000FFF76EFF08B10728F7D107220221012055
:10BB7000FFF766FF08B10728EFD1002108460A2227
:10BB8000FFF75EFF0028E7D00728E5D010BDFFF7DC
:10BB90005BFD08B92070DCE70B232370D9E700BFF9
:10BBA000909500209495002076DF70477ADF7047EB
:10BBB0007CDF70477FDF704790DF7047B0DF7047F2
:10BBC000B1DF704766DF704741DF7047014B0822E5
:10BBD0001A707047DC9D0020FCF766BB10B5038827
:10BBE000013B84B00446552B3FD8DFE803F0783E94
:10BBF0003E3E3E3E3E3E3E3E3E3E3E3E3E2B7F3E37
:10BC0000943E3E3E3E3E3E3E3E3E3E3E3E3E3E3EFE
:10BC10004A3E3E3E3E3E3E3E3E3E3E3E3E3E3E3E38
:10BC20003E3E3E3E3E3E3E3E403E3E3E3E3E3E3E32
:10BC30003E3E3E3E3E3E3E3E3E3E3E3E3E3E576EDB
:10BC40003E3E3E40394B3A483A49C01AC0080004CB
:10BC500040F00300FBF7D0FC0720FFF7FBFC08B126
:10BC6000FCF722FB344BA2881A8004B010BD8088F8
:10BC70001321FFF799FF0028F7D0FCF715FB04B05C
:10BC800010BD0822002168463EF0FFF96946A088F1
:10BC90000022FFF791FF0028E7D0EEE78379002B21
:10BCA000E3D0827B043A022ADFD8022B18BF01239B
:10BCB0008DF8003080884FF4C1736946ADF80430C8
:10BCC000FFF77CFF0028D0D0D7E71B4A002310885D
:10BCD00019461A46FFF774FF0028C6D0CDE78088C2
:10BCE0000021FFF76FFF0028BFD0C6E70F4B1048B9
:10BCF0001249C01AC008000440F00300FBF77CFCA6
:10BD00000F4B0D491A784FF6FF70032A0880ACD10B
:10BD100004221A70A9E7084A0023108885211A46D0
:10BD2000FFF748FF0028A0D0A7E700BF1049070091
:10BD30002849070060C206000C2B00206CC20600D8
:10BD4000DC9D00200C4B4A881B889A4200D070472B
:10BD50000A8840F677239A42F9D1084A08488B8826
:10BD60000849801A033BC0089BB2000440F003005E
:10BD70001A46FBF76FBE00BF0C2B002010490700CE
:10BD8000284907009CC2060008B5037803B108BD26
:10BD9000054B3B211888FFF707FF0028F7D0BDE8C7
:10BDA0000840FCF781BA00BF0C2B002008B530B169
:10BDB000032803D10220FFF74DFC30B908BD032151
:10BDC000044801F03BFB0028F8D0BDE80840FCF730
:10BDD0006BBA00BFA899002038B5037803B138BD0D
:10BDE00004461448A58A3EF050FD8542F7D111481B
:10BDF00024693EF04AFD0F49024620463EF04DFDC3
:10BE00000028ECD10C4B0D480D49C01AC0080004A5
:10BE100040F00300FBF7F0FB0A4B1A78012ADED151
:10BE2000094A11884FF6FF72914214BF0222042280
:10BE30001A7038BD0CC306001049070028490700D6
:10BE400010C30600DC9D00200C2B0020420700D40C
:10BE5000704708B5084615F029FD01280CD90228BD
:10BE600009D10720FFF7F6FB78B9094B1A78052AA4
:10BE700004BF06221A7008BD1420FFF7EBFB002850
:10BE8000F9D0BDE80840FCF70FBAFCF70DFAECE773
:10BE9000DC9D0020072808B528D010280ED00428E3
:10BEA00000D008BD184B13211888FFF77DFE30F035
:10BEB0000803F6D0BDE80840FCF7F6B9134B144868
:10BEC0001449C01AC008000440F00300FBF794FBBB
:10BED000114B1A78012AE4D10B4A11884FF6FF72F0
:10BEE000914214BF022204221A7008BD064B1A8820
:10BEF0004FF6FF739A42D4D1084801F04BFC30F062
:10BF00000803D7D108BD00BF0C2B00201049070043
:10BF10002849070010C30600DC9D0020A8990020D6
:10BF200070B5AEB000F036FA002840F09B802EAC21
:10BF3000002344F8B03D0120214600F079FB0028A1
:10BF400040F08D80204600F051FC002840F08480B5
:10BF50001320FFF77FFB00287BD12EAC112304F8C0
:10BF6000B43D42483EF091FC404982B22046FFF782
:10BF70001FFE00286AD1082203A800213EF085F8A0
:10BF80003B4A4FF4C80303A8CDE90323FFF70EFE95
:10BF900008B1FCF789F93749374801F0D9FF002883
:10BFA00051D14021344801F0EBFF08B1FCF77CF996
:10BFB0000021042203A83EF068F8304B3048039378
:10BFC00003A902F0ADF908B1FCF76EF9AC2200212B
:10BFD00003A83EF05AF80224002005220123294E2E
:10BFE0008DF80C4040258DF80E0044F250648DF819
:10BFF0000F2003A9244A2548ADF858308DF8883021
:10C000001796CDE925542C9201F09EF908B1FCF762
:10C010004BF901211D4801F093F91D4A1D481E4BA3
:10C020001E49801AC008000440F0030001221A7063
:10C03000FBF7E2FA0321154801F000FA08B1FCF71A
:10C0400033F92EB070BDFCF72FF9AAE7FCF72CF9F5
:10C0500091E7FCF729F980E7FCF726F978E7FCF788
:10C0600023F96FE7FCF720F961E700BF7CC2060007
:10C070002800A00045BD0200E09D0020D9BD0200BF
:10C08000102B0020082B0020ADBD0200A899002035
:10C090001049070028490700DC9D002088C20600DF
:10C0A0002DE980484FF4804189B00020FBF744FA25
:10C0B00008B1FCF7F9F8FBF7C5F9A44A40210820BC
:10C0C000FCF768F908B1FCF7EFF8FCF713FC08B1CE
:10C0D000FCF7EAF89E4A9F480021FCF741FC08B1B2
:10C0E000FCF7E2F89C490320FFF74CFC08B1FCF791
:10C0F000DBF801A90020FFF721FD08B1FCF7D4F817
:10C10000FFF70EFF1C22002101A83DF0BEFF002317
:10C110000193ADF812308DF814300323DFF85CA2E0
:10C120008DF810304FF4A0314FF4F0228B4BCDF846
:10C1300018A001A802910392079301F08DFC08B1A9
:10C14000FCF7B2F8DFF838B2854B8649864CDFF849
:10C150003492864FABEB030B4FEADB0B4FEA0B4BF2
:10C160004BF0030B5846FBF747FA814EDFF8188275
:10C170002378023B062B0DD8DFE803F0B30C6F0ADF
:10C18000042A49000021322002F04EFB07232370CD
:10C1900002F07EFCFCF790F9FBF7DEFC0028E7D10B
:10C1A0002378013B072BE3D801A252F823F000BF0C
:10C1B00005C3020005C3020005C3020071C10200ED
:10C1C00015C3020015C3020015C3020015C3020007
:10C1D00002F06AFC05463046FCF720FC002840F0DF
:10C1E000AE80284615F09EFA0028D1D128460BF0E3
:10C1F00023F90028CCD1284626F070FE012804D06F
:10C20000284626F06BFE0028C2D10823237002F0D6
:10C21000E7FA02F031FCFFF783FE1C22002101A89F
:10C220003DF033FF4D48079000234FF4A0354FF405
:10C23000F021032201A8CDF818A00193ADF8123027
:10C240008DF81430CDE902518DF8102001F004FC76
:10C2500000289FD0FCF728F89CE701F03BFC08B1D0
:10C26000FCF722F800F020F900286BD1002038609C
:10C270003B680093009BFFF7EDF908B1FCF714F859
:10C28000012300214EF6602201A83A4D0395CDE925
:10C2900001128DF804308DF8063002F035FB40466F
:10C2A00002F008FC052314202370FFF7D3F908B12E
:10C2B000FBF7FAFF0025012301A88DF804308DF863
:10C2C00005508DF8065002F023FA2A464FF420312B
:10C2D0003046FCF753FB00283FF45CAFFBF7E4FF6C
:10C2E00058E725495846FBF787F903231321B9F886
:10C2F00000002370FFF758FC00283FF44BAFFBF71A
:10C30000D3FF47E7FFF760FC00283FF42EAFFBF7B1
:10C31000CBFF2AE702F0C8FB054615F003FA002818
:10C320007FF423AF284626F0D9FD012805D0284602
:10C3300026F0D4FD00287FF418AF20BF15E7FBF7E7
:10C34000B3FF4EE7FBF7B0FF90E700BF98950020E2
:10C35000CDBB0200B8C2060095BE0200D9BB0200E8
:10C3600010490700BCC20600DC9D0020000100400F
:10C37000F89D002080A90300E8C2060089BD0200E4
:10C38000284907000C2B00204DBE020010DF70472B
:10C3900011DF704770B53B4D2B7884B0002B63D113
:10C3A000394E3A49012302A83370FDF751FC039B33
:10C3B000002B4FD1364902A8FDF74AFC039B4BB135
:10C3C000D3E900210020904702A8FDF74BFC039B16
:10C3D000002BF5D12F4A002312688DF8083002A8EF
:10C3E0000192FCF77FFB2C4901A8FFF7CFFFB0FAC1
:10C3F00080F304465B099DF808002B70FCF798FB5E
:10C40000002C2ED1254B26491C70347091F8162330
:10C41000EC2352091341DB072FD5224B9A683ABB14
:10C420004FF480030B601A4902A8FDF711FC039B2F
:10C43000BBB1D3E900210120904702A8FDF712FC0F
:10C44000039B002BF5D10CE002A8FDF70BFC039B2E
:10C45000002BAFD0D3E90021002090470028F3D172
:10C460000446204604B070BD0824204604B070BDC8
:10C470001A6842F480021A60D5E742F20200FBF724
:10C4800013FFD0E7199E0020189E002038C3060035
:10C4900050C3060034C30600C98202001A9E002061
:10C4A00000E100E0A03F0120F0B5314D2B7883B0D2
:10C4B000002B54D02F4E3049012368463370FDF7CE
:10C4C000C7FB019B002B40D12C496846FDF7C0FB00
:10C4D000019B4BB1D3E90021022090476846FDF74C
:10C4E000C1FB019B002BF5D1002768468DF8007039
:10C4F000FCF7F8FAFFF74CFF04469DF800002F7098
:10C50000FCF716FB44BB1E4B34709A685ABB1D4B9C
:10C510004FF48002C3F8802018496846FDF798FB65
:10C52000019BCBB1D3E90021032090476846FDF77A
:10C5300099FB019B002BF5D1204603B0F0BD684666
:10C54000FDF790FB019B002BBED0D3E90021012019
:10C5500090470028F3D10446204603B0F0BD0824DC
:10C56000204603B0F0BD1A6822F480021A60D3E7B7
:10C57000199E0020189E002038C3060050C30600F4
:10C58000A03F012000E100E0014B1878704700BF98
:10C59000199E002000B583B068460849FDF758FB96
:10C5A000019B43B1D3E9002090476846FDF75AFB51
:10C5B000019B002BF6D103B05DF804FB44C30600D9
:10C5C00060DF704769DF704761DF704730B5134D3A
:10C5D000ADF5017D4FF4FA740DF1020103A8ADF839
:10C5E0000240FFF7F1FF88B9294601A8FDF730FBAB
:10C5F000029B002BF0D0D3E9002103A8904701A8AB
:10C60000FDF730FB029B002BF5D1E5E7052801D0B3
:10C61000FBF74AFE0DF5017D30BD00BFE4C5060005
:10C62000024B1B780BB1FFF7D1BF70471B9E002058
:10C63000002900F0C68030B5634B0B6085B00C4616
:10C6400005460C22002101A83DF01FFD0120062314
:10C650008DF8060001A922688DF804502020ADF85D
:10C660000830FFF7AFFF002840F09D800C2200212A
:10C6700001A83DF00AFD012100238DF80510226874
:10C680008DF8063001A940208DF80730FFF79AFF9A
:10C6900000287AD10C22002101A83DF0F6FCF723F6
:10C6A00022688DF8045001A92320ADF80630FFF769
:10C6B00089FF00285BD10C22002101A83DF0E5FC98
:10C6C0000123184622688DF8043001A9FFF77AFF8C
:10C6D00000283ED10C22002101A83DF0D6FC4FF4E9
:10C6E000B0632268019301A9A120FFF76BFF10BB83
:10C6F0000C22002101A83DF0C8FC9DF804302268FE
:10C700006FF3000301A9A0208DF80430FFF75AFF52
:10C7100008B905B030BDFDF7E3FA2C4A2C4B2D4982
:10C720009B1ADB081B04024643F00100FBF712F9D9
:10C73000002005B030BDFDF7D3FA244A244B26492A
:10C740009B1ADB081B04024643F00100FBF702F9C9
:10C75000CEE7FDF7C5FA1D4A1D4B20499B1ADB08A1
:10C760001B04024643F00100FBF7F4F8B2E7FDF7C3
:10C77000B7FA164A164B1A499B1ADB081B040246E5
:10C7800043F00100FBF7E6F895E7FDF7A9FA0F4A39
:10C790000F4B14499B1ADB081B04024643F00100AF
:10C7A000FBF7D8F876E7FDF79BFA084A084B0E49E5
:10C7B0009B1ADB081B04024643F00100FBF7CAF892
:10C7C00054E70E20704700BFE82A002010490700F8
:10C7D00068490700E0C406008CC4060040C4060097
:10C7E000F8C30600ACC3060064C30600F8B50646ED
:10C7F0000768FFF7E5FE3368BB42054605D825BB51
:10C800001A4B01221A702846F8BD194B194C1A49C7
:10C81000E41AE408240444F002042046FAF7ECFE8B
:10C820003A46204633681549FBF714F94FF0805318
:10C830003268D3F80C3112499B0203F100532046B1
:10C840009A1AFBF787F8002DDAD02846FDF748FA48
:10C85000074A084B0B499B1ADB081B04024643F0AE
:10C860000100FBF777F82846F8BD00BF1B9E0020AB
:10C87000104907006849070034C5060064C5060072
:10C8800098C50600C4C506004BDF704710B5114CB3
:10C8900084B001A8FFF7F8FFA8B9214602A8FDF768
:10C8A000D7F9039B002BF4D0D3E9002101989047DE
:10C8B00002A8FDF7D7F9039B002BF5D101A8FFF7DC
:10C8C000E3FF0028E9D0052801D0FBF7EDFC04B018
:10C8D00010BD00BFFCC506002DE9F84F4400DFF88D
:10C8E0005CB126180BEBC6068146F76A012F8A4613
:10C8F000904667D03DD3022F30D100F1010909EBFA
:10C900004909756A4FEAC9090027B36A346AAB421C
:10C9100003F1FF329CBF1B1903F1FF33A4EB0504A5
:10C920008CBF531B5B1B0BEB0902444528BF4446DD
:10C930009C42506828BF1C462844514622463DF080
:10C9400080FB336A25449D422744A8EB0408A24497
:10C9500008D07562B8F1000FD7D100E00027384643
:10C96000BDE8F88F00231D467362B8F1000FCCD1EB
:10C97000F5E7B36A756AAB429CBF326A9B18013B0C
:10C980005B1B9845EBD8044400F101090BEBC40490
:10C9900009EB49090BEBC90B266ADBF80400761B8F
:10C9A000B045284443D33246A8EB06053DF049FB89
:10C9B0000AEB0601DBF804002A463DF042FB47463D
:10C9C0006562CCE7D6E90825B76AAF4298BFBF18C1
:10C9D000461C013F06EB46067F1B0BEBC606474590
:10C9E00028BF47467068A2EB05084745284412D384
:10C9F000A1444246A7EB08050BEBC90B3DF021FB18
:10CA00000AEB080170682A463DF01BFBCBF8245066
:10CA10003846BDE8F88FA1440BEBC90B3A463D44BC
:10CA20003DF00FFBCBF824503846BDE8F88F424666
:10CA300045443DF006FB4746656290E7AC3F012068
:10CA4000F0B51F4C237883B005460F46A3B1236988
:10CA5000AB4231D902A805EB4505002604EBC5041D
:10CA600000F8016DFCF73EF89DF80700E762FCF75F
:10CA70005FF8304603B0F0BD124AA3620221636240
:10CA8000E362A3656365E3650F4BA261C4E904112A
:10CA9000A2644FF400710D4AE36110232365216203
:10CAA000E2640B49E01D3DF0E8FE0A4920463DF0F6
:10CAB000E4FE2023A371CAE74FF0FF30DAE700BF9E
:10CAC000AC3F012014C606002C9E00201C9E0020B6
:10CAD00020C6060024C6060038B5114C114B12487A
