:020000022000DC
:1070000000000420B5720200DD720200DF7202008F
:10701000E1720200E3720200E5720200000000006B
:10702000000000000000000000000000E772020005
:10703000E972020000000000EB720200ED72020033
:1070400079D60200EF72020071DE0200EF720200D8
:10705000EF720200EF72020081DB0200D1DF02005A
:10706000EF720200EF720200D1E50200EF7202003F
:10707000EF7202008DDF0200EF720200EF72020079
:10708000EF720200998C0200EF720200EF720200B0
:10709000EF720200EF720200150A030091B20600BF
:1070A000EF720200EF720200E5E50200EF720200EB
:1070B000EF720200EF72020000000000000000000A
:1070C000EF720200EF720200EF720200EF72020034
:1070D000DDA10600EF720200EF720200EF72020003
:1070E000EF720200EF720200495C03000000000032
:1070F00000000000EF72020000000000EF720200CA
:10710000000000000000000000000000000000007F
:10711000000000000000000000000000000000006F
:10712000000000000000000000000000000000005F
:10713000000000000000000000000000000000004F
:10714000000000000000000000000000000000003F
:10715000000000000000000000000000000000002F
:10716000000000000000000000000000000000001F
:10717000000000000000000000000000000000000F
:1071800000000000000000000000000000000000FF
:1071900000000000000000000000000000000000EF
:1071A00000000000000000000000000000000000DF
:1071B00000000000000000000000000000000000CF
:1071C00000000000000000000000000000000000BF
:1071D00000000000000000000000000000000000AF
:1071E000000000000000000000000000000000009F
:1071F000000000000000000000000000000000008F
:1072000010B5054C237833B9044B13B10448AFF3E0
:1072100000800123237010BD903400200000000086
:10722000B409070008B5034B1BB103490348AFF38A
:10723000008008BD0000000094340020B40907005D
:10724000154B002B08BF134B9D46A3F5803A002138
:107250008B460F461348144A121A44F0EAF90F4BB2
:10726000002B00D098470E4B002B00D098470020F1
:10727000002104000D000D48002802D00C48AFF397
:10728000008044F057F92000290008F095F844F0F8
:107290002BF900BF000008000000042000000000DF
:1072A000000000009034002038B4002000000000EE
:1072B000000000000649074A074B9B1A03DD043B08
:1072C000C858D050FBDC0CF0AFFAFFF7B9FF000054
:1072D000880B0700E82A002090340020FEE7FEE734
:1072E000FEE7FEE7FEE7FEE7FEE7FEE7FEE7FEE776
:1072F000C30710B507D4F0234008054A145C2340A7
:107300001943115410BD0901C9B20F23F4E700BF9E
:10731000C034002030B5094B1C78094B1968002394
:107320009C4202DC0022104630BD11F833508542E9
:1073300001EBC302F7D00133F2E700BFAC34002009
:10734000E034002070B504460D46FFF7E3FF30B18E
:10735000436823B129462046BDE87040184770BDF8
:10736000034B044819680022490800F096BD00BF8D
:10737000B0340020E82A002010B5C0B2FFF7CAFFE1
:107380000446007806F0ECFB63785A1E53425341E2
:10739000834208D1044BD3E90023134303D1BDE852
:1073A0001040FFF7DDBF10BDB83400202DE9F348D1
:1073B000394A43080446D35CC2074CBF1B0903F09B
:1073C0000F030D46042B39D8DFE803F00328303DC6
:1073D000410099B30121FFF78BFF02A8002600F8B6
:1073E000016D00F041FE2D4D0121A4F12007C4F1F3
:1073F000200001FA07FC21FA00F04CEA000C01FA27
:1074000004FBD5E900014BEA00024CEA0103C5E99F
:1074100000239DF8070000F04BFE0FE0002914BF89
:10742000022100212046FFF763FF07E049B1032155
:10743000FFF75EFF01212046FFF784FF02B0BDE8A1
:10744000F0880121EEE70029F8D10421EAE709B12B
:107450000321E7E7FFF74CFF29462046FFF772FFBD
:1074600002A80E4E00F8015D00F0FEFDA4F1200719
:107470000121C4F1200001FA07FC21FA00F04CEAD6
:10748000000C01FA04FBD6E9000120EA0B0221EA14
:107490000C03C6E90023BCE7C0340020B834002048
:1074A0002DE9F041124E134F00243378A34208DC3B
:1074B000114BD3E90023134318D0BDE8F041FFF787
:1074C0004FBF3D6805EBC40815F8340006F048FBD3
:1074D00098F801104B1E594259410A1A514215F8A9
:1074E00034005141FFF762FF0134DEE7BDE8F0816F
:1074F000AC340020E0340020B8340020092AF7B56D
:1075000005460C4616463FD906F05EF9D8B11F4B2A
:107510001F481D601F4B204F1C70204B0021202254
:107520001E6044F086F81E4B00200021C3E90001D4
:10753000013CE4B20326FF2C0BD11A4A1A48002161
:1075400000F0A0FC03E006F009F90028DFD003B04A
:10755000F0BD9DF806308DF8046020B203F0FC0306
:1075600005EBC0026FF382038DF80630937815F8AF
:1075700030008DF805303A4601A906F021FA013CA9
:10758000E4B20028D7D0E2E70720E0E7E0340020AB
:10759000C0340020AC34002079730200B0340020E5
:1075A000B8340020A1740200D4CD060070B5084D97
:1075B000084E00242B789C4201D3002070BD336814
:1075C000012113F8340006F081FA0134F2E700BF1C
:1075D000AC340020E03400201FB50021039001AA44
:1075E00044F20100CDE901110AF007FA05B05DF897
:1075F00004FB2DE9F8430468054694F8200006F0E2
:10760000C5FB04F11807FF264FF0FF394FF00008C3
:10761000207AFF2802D006F0B9FB2672607AFF2894
:1076200002D006F0B3FB66722068431C03D006F05C
:107630004BF9C4F8009084F80B800C34BC42E7D1BD
:107640006868BDE8F84306F02FBF00002DE9F0415F
:10765000134DDFF850800E460024012705EB41054D
:107660002B5D5BB12B5D013BDBB22B552B5D93B9E1
:1076700058F826301B683046DB6998474CB167B133
:10768000084B53F8263002215868BDE8F04106F057
:1076900096BF0124E4E70027F0E7BDE8F08100BFD2
:1076A000CC960020E434002040680C4902798B5CC1
:1076B000DBB2FF2B0DD0FE2B0DD0006803F5A873B5
:1076C00050F82330064850F82200984203D1FF2397
:1076D0008B54002070470120704700BFF834002011
:1076E000003500202DE9F74F0368904693F82120DC
:1076F000022A04460F4640F09B800C254D435A1940
:107700005268904509D1DB691BB9002003B0BDE880
:10771000F08F426810799847F7E7FFF7C5FF834677
:10772000002840F087806368DFF814911B79FE22FF
:1077300009F80320266896F8200006F081FBCA4667
:10774000B8F1000F1FD13544687A06F079FB287A2A
:1077500006F05EFB63681B79FF2209F803200C2307
:1077600003FB0766C6F804802368DB69002BCCD0D6
:1077700063681A79304B03EB42030221D9556068E4
:1077800006F009FFC1E7B169884507D335441FFA00
:1077900081F8287A06F054FB687AD9E707EB4709A5
:1077A0004FEA890906EB090360685A6891423AD0AA
:1077B000002A38D0904536D25B46032106F0B9FE48
:1077C000636896F820B01B6856F80900354403F545
:1077D000A6730193AB7A1BB306F0CCF8024601996D
:1077E000584606F0F5FA96F8200006F011FB63689B
:1077F0001B790AF8037063681A79104B43F82280EA
:107800000C2505FB0765002342463946606806F0F3
:1078100090FE287A06F0FCFA687A06F0F9FA9EE7FC
:1078200006F09AF8DAE70379FF220AF80320E7E77F
:1078300008206BE7112069E7CC9600200035002076
:10784000F834002003681B8B5A436423B2FBF3F225
:1078500092B2FFF747BF00002DE9F04F89B0044610
:1078600004928946002900F03C81066896F8213090
:10787000002B40F0388105F061FD08B1852821D149
:1078800005F0A2FF00B3994B1B6803F0F003302B07
:1078900020D10023964A00211370FF234FF0FF32BE
:1078A00086F82030F172337273723260F17532757E
:1078B0007375F26006F1200006F034FA60B12046DC
:1078C000FFF797FE04271AE005F048FF0028DAD0FA
:1078D000032714E00123DDE707464FF00C0A59F8AF
:1078E00027B0FBB2BBF1FF3F039300F0898025680E
:1078F00095F8211049B108272046FFF77AFE38464F
:1079000009B0BDE8F08F0127E9E709EB07020AFBA0
:1079100007F8137A029305EB0802584651609372F8
:1079200003228DF818202268424406A9927AB2FAFE
:1079300082F252098DF8192001228DF81A20059241
:1079400005F04CFFD0B9029B45F808B0059A002B12
:1079500000F0AF80BBF11F0F86BF0BF01F0B654916
:107960004FF0A04102FA0BF2C1F80C250AFB07FB0D
:107970000BF10800284406F0D5F908B10427BBE74D
:107980000BF10900284406F0CDF90028F6D105EBEB
:107990000B030593187A06F053FA059B587A06F004
:1079A0004FFA029B55F80800002B00F08F8005F07D
:1079B000E1FF834655F8080005F0CEFF63680AFB37
:1079C00007551B6807F1500103EB810180465A46B9
:1079D000287A06F0FDF96368687A1968424601F56D
:1079E000A47106F0F5F90123EB726368424A1B7932
:1079F000039902EB430320460022DA55FFF772FE9B
:107A0000002F80D0D9F810200023B2F5805F01D379
:107A1000092B63D1364A127812B1002B08BF01231B
:107A20008DF8183000238DF819308DF81A30606801
:107A3000324A07238DF81B300379079306A906F015
:107A4000ADFC074600287FF457AF6368D9F81020D3
:107A50001B68D3F81055EDB2100FC5F120011201CB
:107A600000FA01F1A5F1200322FA05F520FA03F34B
:107A70000D431D43B56160684FF0010806F048FDF5
:107A800004232A4602216068CDF8008006F06CFDD0
:107A90000221606806F093FD049BF3616368184A55
:107AA0001B7986F8218042F82340164AFF21D154E1
:107AB00025E7BBF11F0F86BF0BF01F0B0D494FF0E1
:107AC000A04102FA0BF2C1F808254FE705F044FF88
:107AD000834655F8080005F04DFF6FE75208013363
:107AE00093E70B270BE7082709E700BFE80F00F033
:107AF0001435002000030050CC9600204D76020083
:107B0000E4340020F83400202DE9F0470768DFF85E
:107B10006890002604463D46B0464FF00C0A636864
:107B20001B7909EB430303F80680EB7A73B12368F2
:107B300028680AFB0633997AB1FA81F1490905F000
:107B400027FF286805F0F6FEC5F804800C357EB1E5
:107B50006368084A1B79FF21D154606806F0D8FC9D
:107B6000606806F087FC022387F82130BDE8F087C3
:107B70000126D4E7F8340020CC96002012F003034D
:107B800010B511D1094C22604C1CE400A4B222446F
:107B9000074C2260074A1370074A1370074A108087
:107BA000074A1846118010BD0720FCE71C3500204D
:107BB0001835002015350020243500202035002000
:107BC000223500202DE9F3472B4D2B888B420646AA
:107BD0000C4617464BD302A84FF0000800F8018D61
:107BE00000F042FA254B264A18781178CBB2254985
:107BF00009888B4238BF0133C0B238BF5FFA83F8BF
:107C000040452ED092F800801378DBB2994286BFAF
:107C10000133DBB2002313709DF8070000F048FA2F
:107C20004FF6FF73984524D0DFF860A0DAF80030F3
:107C30004FEAC80903EB090243F83870A6B19CB1BA
:107C4000114B28881B68224608FB0030314643F060
:107C5000CCFCDAF800304B4400209C8002B0BDE838
:107C6000F0874FF6FF78D7E700209080F6E70920ED
:107C7000F4E70420F2E700BF20350020243500207F
:107C80001535002022350020183500201C35002035
:107C9000F8B5124C124D264622782B789A4200D124
:107CA000F8BD23780F48104A078812680F48DBB2E6
:107CB00019B202EBC10C006852F83120BCF8041074
:107CC00003FB070090470A4A23781288DBB29A42E6
:107CD00086BF0133DBB200233370DDE7243500209B
:107CE00015350020203500201C35002018350020D7
:107CF00022350020D0E90223D1E90201994208BFD0
:107D000090422CBF012000207047D0E90030184776
:107D10002DE900480C4800F0ABFF0C4BD3E90023E1
:107D200012EB000B43F1000C094BD3E900239C45F7
:107D300008BF93455846614603D21BF180704CF151
:107D40000001BDE8008800BF242B00203035002052
:107D50009835002037B505460C460A4801A903F0BE
:107D600066FF60B10570446001A9064803F089FF11
:107D700018B1054800F080FF002003B030BD04209A
:107D8000FBE700BF102B0020242B00202DE93348F7
:107D90001F4B1D780446002D33D0002835D090F8B5
:107DA000203003F0FF0563B3FFF7B2FFD4E90223ED
:107DB000994208BF90421ED323690BB984F8203042
:107DC00063690093134AA369019308216846FFF78A
:107DD000F9FE08B1FFF700FC216989B194F8203061
:107DE00003F0FF056BB1D4E9022312EB010B43F161
:107DF000000CC4E902BC2146074805F032F900E056
:107E00000D46284602B0BDE830880546F9E700BFB8
:107E1000383500200B7D02000CCE060013B5124B46
:107E200012491868019008235822114803F0CAFE2D
:107E30000446B0B90F4A104801A900F0F5FD044608
:107E400078B901210C4800F0F3FE01230B4A0A48DF
:107E5000194600F051FE084800F04AFE084B012286
:107E60001A70204602B010BD08CE06003C35002036
:107E7000102B0020F17E0200242B0020FFFF7F004A
:107E8000383500203AB103685A614A1E51425141C7
:107E90001961002070470720704738B590F82030EE
:107EA00004460D4683B98261FFF732FF421941F162
:107EB0000003C4E90223236903B1256121460020A0
:107EC000BDE83840FFF746BF002038BD002301461B
:107ED00080F820300120FFF73DBF401A20F07F409E
:107EE00070470000014800F0C3BE00BF242B0020F3
:107EF0002DE9F34B054600F0A4FE40B15249D1E90B
:107F0000002312F1807643F10007C1E900670021E8
:107F1000284600F0A6FE38B14C4C236823B12068F7
:107F2000FFF734FF002323600121284600F099FE6B
:107F300020B1FFF7EDFE464BC3E9000101A945481A
:107F4000424D454C454E03F0ACFE00283CD1424F1B
:107F50003E4C384605F09BF8002832D0236883B1A8
:107F60002368D0E90201D3E90223994208BF904275
:107F700027D2236893F820301BB12168384605F0DA
:107F800070F8384605F07DF8D0E902890646FFF71B
:107F9000BFFEB8EB000869EB0109B8F1010F79F1F8
:107FA000000340DB2E4DA8453BD9FFF79BFF42194C
:107FB0004FF4960300212B4800F0C2FD00283AD16F
:107FC000266002B0BDE8F08B0378012B1ED009D3E8
:107FD000022B12D10027204605F053F880B380F819
:107FE0002070F8E7436893F8202032B9012283F823
:107FF00020204168204605F034F801A9154803F017
:108000007BFE01A9134803F04CFE9EE741682B68F4
:10801000994202D100232B60EFE7204605F03AF8A1
:10802000EBE7B268C4E700210E4800F00FFE3046CF
:10803000FFF7ACFE01E00D28F9D00023236088E7AC
:1080400001233370D9E700BF30350020A035002070
:1080500098350020102B00200CCE0600383500206B
:10806000FFFFB400242B002070B5EFF3108672B62A
:108070000C4A946801239CB993600B4B0B4DD3F8C9
:10808000801029401160C3F88050D3F884105160EB
:108090004FF0FF32C3F88420047006B962B670BD99
:1080A0000370FAE7D896002000E100E0FC06FFBD6F
:1080B00010B5084B9A685AB150B9EFF3108172B6F7
:1080C000054A1C6814605C685460986001B962B627
:1080D00010BD00BFD896002000E100E02DE9F84F68
:1080E0000D9F884616461D46DDE90A4A814610B1B5
:1080F0000868904201D343F0D1F90BB9002CFAD1B2
:10810000BAF1000FF7D0002FF5D0E8B1E4B1331A7F
:10811000A34228BF23461A46294648449B4643F0BB
:1081200064FAD8F800200BEB0203B3425D44A4EBE1
:108130000B04C8F8003007D1494638464CB90C9BAF
:1081400098470023C8F80030B44204D294B9BDE87F
:10815000F88FD047F5E7D8F80030002BCBD1B442E8
:108160002946384604D10C9B98473544A41BEBE7BD
:10817000D047FAE7D8F80000371AA74228BF2746A9
:108180003A462946484443F030FAD8F800303D4496
:10819000E41B1F44B742C8F80070D7D3ABE730B533
:1081A00085B0DDE90945CDE902450194089C0094BC
:1081B000FFF794FF05B030BD2DE9F84F0C4692460D
:1081C0001E46DDE90AB5DDE90C89074610B10B68EA
:1081D000934201D343F062F90EB9002DFAD1B8F100
:1081E000000FF7D0B9F1000FF4D00DB9BDE8F88F4A
:1081F000236823B939464846C047C4F800A021681F
:10820000AAEB0103A94228BF294600203B44814232
:1082100006D123685B1A23606D1A8B440E44E4E791
:108220001A5C16F800C082EA0C020BF8002001303C
:10823000EDE72DE9F84F0A9E81460F4690469A4693
:108240004FF0000B0EB9BDE8F88F3D68A8EB0504B0
:10825000B44228BF3446BBF1000F05D12246514637
:1082600009EB050043F0E5F91DB9A04508BF4FF043
:10827000010B2544454507D1DDE90B3049469847B8
:1082800000233B60361BDDE73A6822443A60F9E799
:108290002DE9F04F87B0DDE91245012C07468846ED
:1082A00091469DF840B0149E8DF817301BD027D30F
:1082B000022C4FF0010A26D00DF11703CDE901562B
:1082C000CDF800A0FFF76BFF9DF844305B45CDE98A
:1082D000015629D0023C00945B464A464146384646
:1082E000FFF7A7FF17E09DF817709DF844305F4037
:1082F00006AB03F8017DCDE901560094FFF74FFF6F
:1083000007B0BDE8F08FCDE90156CDF800A00DF122
:108310001703FFF744FFCDE90156CDF800A011ABDC
:108320004A4641463846E9E7013C00944A46414600
:108330003846FFF77EFFE3E770B5036888B01D6835
:10834000044600239D420DD104AA0123694604F18D
:10835000280003F0E1FB2268636D12681344636533
:1083600008B070BDC85CD65C70400DF803000133E6
:10837000E8E710B500F118020446FFF7DDFF01231E
:10838000A36510BD10B500F108020446FFF7D4FF45
:108390000123A36510BD1FB504466A46012328309A
:1083A00003F0BAFB2268636D12681344636504B07E
:1083B00010BD70B50B68102B88B004460D461646EC
:1083C00001D043F06BF82822002143F032F92A68EB
:1083D00023782AB10021684643F02BF99DF800303C
:1083E0006B686A4669463046984704A9684603F0B8
:1083F0003FFB04A9084603F04FFB04F1080104A861
:1084000003F015FB04A9084603F046FB04F118012C
:1084100004A803F00CFBC4E9005608B070BD7FB59A
:1084200004461026254632460021684643F001F9ED
:1084300055F8401B62686B4604F1280003F065FBA9
:1084400032460021284643F0F4F894F840300023E7
:10845000C4E91433A36504B070BD10B50446FFF73A
:10846000A8FF2046BDE81040FFF7D9BF2DE9F04135
:108470000546006886B0066822481C46002B3BD0A3
:108480002C6DA31803F00F0342B94CB96C6DB4FA0C
:1084900084F46409AF6D2FB143F000F80024F9E7CC
:1084A0001446F7E70AB9002CF6D03BBB154B164F24
:1084B000002C08BF3B4605F1400705F15008CDE907
:1084C0000020CDE9023532460B4638464146FFF7DB
:1084D00005FE74B10D4B03932B6D0495F31A0293B3
:1084E0000023CDE900333246802341463846FFF76A
:1084F000CFFE06B0BDE8F0810346DCE70124014B66
:10850000D9E700BF978302008583020073830200CE
:1085100008B5826D0B460AB942F0C0FF0146184605
:1085200051F8302BBDE80840126843F05EB800688F
:1085300000BA7047030E0B70030C4B70030A8B706C
:10854000C87070470A680368534003604A6843680C
:10855000534043608A68836853408360CA68C36835
:108560005340C360704770B5D0E90054D0E902139E
:1085700004F47F0605F07F42324301F47F46324324
:10858000DEB23243026001F47F0604F07F423243E0
:1085900003F47F463243EEB23243426003F47F0677
:1085A00001F07F42324303F07F4305F47F4605F438
:1085B0007F0532432B43E6B204F47F442343C9B220
:1085C00032430B438260C36070BDC30903F00132C4
:1085D00040001B23534300F0FE305840704708B55D
:1085E0000146FFF7F2FF4FEA312383EA314343406C
:1085F000484083EA306008BD70B5D0E90253016895
:10860000446803F47F0601F07F42324305F47F465D
:108610003243E6B23243026001F47F0604F07F4247
:10862000324303F47F463243EEB23243426004F4F5
:108630007F0605F07F42324301F47F46324305F462
:108640007F05DEB203F07F432B4304F47F442343D2
:10865000C9B232430B438260C36070BD38B5014676
:10866000FFF7B3FF0546FFF7B0FF0446FFF7ADFF86
:108670004840444069406140454081EA302181EAF8
:10868000356181EA344038BD00222DE9F047944637
:108690004FEA106A134696461446C0F30749C0F3E2
:1086A0000728C7B28AEA0406F0B20D5D461E26EA24
:1086B0000006EDB246F3C0162EEA060E2E404EEA34
:1086C000060E89EA0406F0B2461E26EA000646F3C4
:1086D000C01623EA06032E40334388EA0406F0B2AC
:1086E000461E26EA000646F3C0162CEA060C2E406B
:1086F0004CEA060C87EA0406F0B2461E26EA00069B
:1087000046F3C016013422EA06023540B4F5807FF4
:1087100042EA0502C6D11B0443EA0E63134343EA4F
:108720000C20BDE8F08700002DE9F74F05469208C0
:1087300055F8046B0136B600002494424FEA8400D9
:1087400010D16FF00307DFF87480DFF874900544F0
:108750006743A24600234FF0010BB24509D303B093
:10876000BDE8F08F0844FFF7E2FE45F8240001342D
:10877000E3E79C4255F8040C13D10BF1010B414681
:108780004FEA3060FFF780FF19F80B3080EA036092
:108790000023EA59504045F8040B0AF1010A01335D
:1087A000DBE7002BEBD0062CF3D9042BF1D14146AB
:1087B0000193FFF769FF019BEBE700BF3FCE060087
:1087C00034CE060038B50A4D044629460068FFF746
:1087D0005BFF20606068FFF757FF6060A068FFF7ED
:1087E00053FFA060E068FFF74FFFE06038BD00BFB7
:1087F0003FCE0600F0B50368144623F004020A2AAF
:1088000085B0064603D00C2B01D042F047FE084647
:10881000FFF78DFE0090081DFFF789FE019001F122
:108820000800FFF784FE029001F10C00FFF77FFEC5
:10883000311D03906846FFF785FE06F114050127F8
:108840003368BB4268461CD8FFF7BCFF6846FFF799
:108850008AFE29466846FFF775FE21460098FFF715
:1088600069FE211D0198FFF765FE04F108010298D9
:10887000FFF760FE04F10C010398FFF75BFE05B003
:10888000F0BDFFF79FFF6846FFF76DFE0098FFF70A
:10889000A6FE00900198FFF7A2FE01900298FFF754
:1088A0009EFE02900398FFF79AFE294603906846C1
:1088B000FFF748FE10350137C2E7000038B50A4D12
:1088C000044629460068FFF7DFFE20606068FFF776
:1088D000DBFE6060A068FFF7D7FEA060E068FFF7EE
:1088E000D3FEE06038BD00BF3FCF06002DE9FF4159
:1088F000046824F004030A2B0646154603D00C2C0A
:1089000001D042F0CBFD0846FFF711FE0090081D94
:10891000FFF70DFE019001F10800FFF708FE02903D
:1089200001F10C00FFF703FE06EB0414043403907E
:1089300021466846FFF706FE3668A4F11008771E48
:1089400017BB6FF00F01684601FB0644FFF754FEAA
:108950006846FFF7B3FF21466846FFF7F3FD294657
:108960000098FFF7E7FD291D0198FFF7E3FD05F1EA
:1089700008010298FFF7DEFD05F10C010398FFF7EF
:10898000D9FD04B0BDE8F0816846FFF735FE6846C2
:10899000FFF794FF41466846FFF7D4FD0098FFF7C4
:1089A0005DFE00900198FFF759FE01900298FFF7D5
:1089B00055FE02900398FFF751FEA8F110080390AE
:1089C000013FBDE770B515460E46F422002104466E
:1089D00042F02FFE182D0CD0202D0CD0102D0CD1D4
:1089E0000A2323602A4631462046BDE87040FFF73F
:1089F0009BBE0C23F5E70E23F3E742F04FFD10B5C5
:108A00000446F422002142F014FE237810BD43589E
:108A100082B03BB10023435043580193019B012096
:108A200002B070471846FBE770B5284C4379284DD3
:108A300044F82320274C04EBC3031B7973B16B88E4
:108A4000012B09D92448254B2549C01AC008000428
:108A500040F0020008F0DAFC082070BD03680A88C4
:108A6000C3F8082590F904308A78002B4FEA4212A7
:108A7000AFBF03F1604303F00F031A49D2B2A9BF9D
:108A800003F56143CA54D2B283F8002390F904304D
:108A900015495E09012203F01F0302FA03F341F8AE
:108AA0002630437904EBC30144F833006B880A7124
:108AB000022B09D90848094B0C49C01AC008000408
:108AC00040F0030008F0A2FC0020C6E7AC3500200F
:108AD000A8330020A4350020B80A0700600A070068
:108AE00056D0060014ED00E000E100E078D006006A
:108AF000036801221A607047F7B505684FF48034A7
:108B00008C40C5F808430568C5F848438D0005F555
:108B1000A0750668ADB20027775175590195019D82
:108B2000056801F5A87122F07F4245F8212002680E
:108B3000C2F8444313B10368C3F8044303B0F0BD63
:108B40002DE9F34799464FF48038036808FA01F895
:108B5000C3F848830368C3F8088322F07F4502689E
:108B60008E000F46D2F80415324406F5A076D2F8EE
:108B70004035C2F84015B6B202684FF0000A42F81C
:108B800006A05B1A9259009223F07F43012B044602
:108B9000009A0BD1254B4FF4806043F001039847B6
:108BA000236843F806A09B590193019B2368D3F8DF
:108BB0000465C3F84483AB1B23F07F43012B07F507
:108BC000A877236819D1013543F82750174B4FF484
:108BD000806043F0010398472368D3F804359E4230
:108BE00009D12368C3F8448323680020C3F80483B1
:108BF00002B0BDE8F0870D20FAE743F8275020685F
:108C0000D0F804156A1A013AC9F1FF1322F07F4225
:108C100003F57F439342EED3002AE2D1013540F8B9
:108C200027502368D3F804359942D9E750D006007D
:108C300002680223C2F8443311B10268C2F8043357
:108C400070474FF482710068FFF7E1BE4FF4803344
:108C500003FA01F10368C3F848130368C3F8081363
:108C60007047890001F5A07189B20068FFF7CFBE97
:108C70000368D3F80405704790F9043001215A09BC
:108C800003F01F0301FA03F34032024941F8223096
:108C9000704700BF00E100E0024B034A1B68106808
:108CA000184700BFAC350020A43500202DE9FF4156
:108CB0001E4603681D680446884617460DB942F0F3
:108CC000EDFB2A460021684642F0B3FC04AB2B447E
:108CD000204603F8118CFFF7A2FB96B100232A4629
:108CE00069462046FFF7C2FB01233246394620463B
:108CF000FFF7BCFB0A992046FFF70AFC04B0BDE869
:108D0000F08101232A466946F1E72DE9F04FB3B01F
:108D100081468846934602AD0A4601461BA89A46FC
:108D2000429E06AFFFF799FBDDE93E2300211BA819
:108D30000095FFF7BBFFDDE93C2301211BA800974D
:108D4000FFF7B4FF2B46424649460EA802F00EFF3D
:108D50000AAC5346409A59460EA802F01FFF5346EC
:108D60000094409A02211BA8FFF7A0FFD9F8003019
:108D7000B3420ED242F092FBE15CEA5C4A40F95CFD
:108D80004A404199CA540133B342F5D133B0BDE8EA
:108D9000F08F0023F8E72DE9F04FB7B017460446EF
:108DA0000A46894602AD01461FA89846459E0DF128
:108DB000180AFFF752FB439B429A009500211FA817
:108DC000FFF774FF0DF1280B419B409ACDF800A0EE
:108DD00001211FA8FFF76AFFCDF800B043463A46CD
:108DE00002211FA8FFF762FF16B12368B34201D228
:108DF00042F054FB00230EA91BF80300EA5C42403A
:108E00001AF8030042405A5401339E42F4D1002222
:108E10001646934210D1C6B92B464A46214612A89F
:108E200002F0A4FE12A84346469A394602F0B6FE66
:108E3000304637B0BDE8F08F4498805C11F802C02E
:108E400080EA0C0006430132E3E70120F1E772DF1C
:108E5000704773DF704774DF704777DF704700003B
:108E6000024B1B6803B11847704700BFB0350020A4
:108E700008B5074B1B681878FFF7EDFF30F00803C3
:108E800001D0FEF7A9FBBDE8084000F0D7BA00BF4B
:108E9000F835002010B5044601F098FE0B4B0C4944
:108EA00018682246FFF7D3FF1C4608B1FEF794FB73
:108EB000236800211878FFF7CCFF112804D018B1DF
:108EC000BDE81040FEF788BB10BD00BFF83500209C
:108ED0002C2B002030B587B0054601F0AFFC2F4B9E
:108EE0001B6804461878FFF7B6FF43F2040290426D
:108EF000034604D033F0080301D0FEF76DFB287859
:108F000000283AD16B7804EB8314014694F90120D0
:108F10000120FFF7A2FF43F20402904202D008B101
:108F2000FEF75AFB1E4A0021687800F069F900201C
:108F3000FFF796FF18220021684642F07AFB0523CE
:108F40008DF80030002301934FF48073ADF8143096
:108F5000144B19884B2988BF4B394FF47A7340F270
:108F600071224B43684693FBF2F302930023ADF862
:108F70000C30FFF78FFF07B030BD0128D7D194F830
:108F80004C3104EB8314002194F90120FFF765FFB5
:108F900008B1FEF721FB024A0121C5E7F8350020A0
:108FA0002C2B00203C2B002030B597B04FF4EA4327
:108FB000ADF800301A4B3C221B788DF802300021AE
:108FC00007A842F036FB1749CDF830D002238DF8C0
:108FD0001C30154B8B60002501241F2307A88B81B3
:108FE0008DF81E50ADF82C4000F006F918222946E5
:108FF00001A842F01EFB4FF48073ADF81830A02397
:10900000039301A841F27073ADF810308DF804405D
:109010000295FFF73FFF2046FFF722FF17B030BD54
:10902000B43500202C2B0020D435002008B5054B8A
:109030001B782BB9FFF71CFFBDE80840FFF7B4BF52
:1090400008BD00BFF3350020014B188800F0A6B919
:109050003C2B0020014B1870704700BFF4350020F6
:10906000014B1878704700BFF435002008B503881D
:10907000112B0AD0262B15D0102B1DD10F4B0122FE
:109080001A70BDE80840FFF7DFBF0C4B00221A70D2
:10909000FFF7EEFE0A4B1B78002BF2D0BDE808402C
:1090A000FFF782BF037A012B06D1044B1B781BB953
:1090B0000220FFF7D5FEEDE708BD00BFF335002025
:1090C000F435002010B5044601F0B8FB90F84121BA
:1090D00090F84031AAB190F84D119AB289B102EBE3
:1090E000820000EB8000400180B2A04238BF2046E1
:1090F000B0F5205F064B8ABF4FF4205218801A80CB
:1091000010BDC3EB431003EB80008000ECE700BF11
:109110003C2B0020014B1888704700BF3C2B0020DF
:1091200010B50A4C20700A4801600A4900200870F6
:1091300009490B70094B1A80094B029A1A6001F019
:109140004DFD0848BDE8104000F07EB9B435002060
:10915000B0350020F3350020F43500203C2B0020F2
:10916000F8350020D58E020000F0FCB870B594B040
:109170004FF6AA63154601220646ADF804308DF875
:109180000620ADF808300C4679B3D1E9000103ABF5
:1091900083E803003C22002105A842F04AFA00239C
:1091A0008DF8143006238DF8173001230034ADF804
:1091B000243001AB18BF01240A932A1D02AB296891
:1091C0000F9305A88DF8404009F02EFD08B1FEF779
:1091D00003FA76B105F10C02A968304609F024FDC6
:1091E00008B1FEF7F9F914B070BDADF80C10049198
:1091F000D0E7AE60AE81F6E70A460021FFF7B6BFC2
:10920000F7B5002305460F461646CDE9003301F0B9
:1092100015FB0446AFB1284601F0DEFA94F84C5134
:1092200004EB851304EB851412330193324694F852
:109230002730ADF8003069460020FFF797FF03B0F4
:10924000F0BD00EB851393F82630202BE8D101F018
:10925000B5FAE5E7F7B5284B284D03EB8002044645
:1092600051788DF8051013F820108DF80410297826
:10927000E1B193F82830012B18D9013B834215D96D
:109280005788461C4FF4004C4FF47A7000214FF47D
:10929000FA620023E7FB0C0143F010FC3246014662
:1092A0001748FEF7FAFD08B1FEF796F91CB9154A02
:1092B00013680133136001F0C1FA90F84D3193B196
:1092C0009DF8052090F84C319A4203D09DF8043067
:1092D000012B08D10B4B1A680523B2FBF3F303EB08
:1092E00083039A4206D1084B1B681BB12A780AB146
:1092F00001A8984703B0F0BD003600202C360020AE
:10930000682B0020FC3500203036002038B501F0F5
:1093100095FA90F8403113B10020FFF79BFF0E4BF8
:109320001B78BBB10D4B1C884FF400454FF47A708D
:1093300000214FF4FA620023E4FB050143F0BEFB79
:10934000002201460648FEF7A8FD18B1BDE83840E6
:10935000FEF742B938BD00BF2C3600202A36002067
:10936000402B002008B5094A09480021FEF78AFD74
:1093700008B1FEF731F9074A07480021FEF782FDE0
:1093800018B1BDE80840FEF727B908BD0D930200EB
:109390008CD006005592020090D0060070B586B0C1
:1093A000054601F04BFA214B01221A7090F840312A
:1093B000002B38D01E4C4FF400464FF47A70002139
:1093C0004FF4FA6225800023E5FB060143F076FBAB
:1093D000002201461748FEF760FD08B1FEF7FCF8D1
:1093E00001F02CFA2388ADF8003090F840318DF868
:1093F000023000F5A173019390F841318DF80830E7
:1094000000F24713039390F84D318DF8103090F827
:109410004C318DF811306846074B059300F024F865
:1094200008B1FEF7D9F806B070BD00BF2C36002099
:109430002A360020402B002000360020014B00225D
:109440001A7070472C360020044B00211970044B11
:109450002A221860034842F0ECB800BF2C360020E6
:1094600030360020003600202DE9F74F002864D068
:10947000027C1AB1027A003218BF01228378002BD5
:109480005DD09B1A058895FBF3F51FFA85FE002435
:10949000AEF596732146A14601938378A3420FD877
:1094A000436983F82810426992F82800002120B10E
:1094B000431E02EB83030846598003B0BDE8F08FDA
:1094C00043681E5D12B1437CB34234D0D0F814C05F
:1094D0000BB20CEB83077E700CF823904B1CA7F8A3
:1094E00002E0DBB242B1D0F80C8090F808A0C4468C
:1094F000ACEB080BD34502D301341946CDE71CF879
:1095000001BB5E45F4D1D0F814C01BB24FF496787D
:10951000A7F802800CEB8307B5F5967F7E704FF0BD
:1095200001060CF82360019BD8BF4FF4FA737B80CF
:109530008B1CDBB2E0E70B46DEE70E20BDE7072021
:10954000BBE70000037883B943681B884FF41672A9
:1095500013FB02F34FF4806293FBF2F303EB43033C
:109560005B00024A03F5877313807047363600208C
:109570001FB51249124804F0DDFD08B1FEF72CF8C2
:10958000104A10685168127A01AB03C301A9002088
:109590001A7004F017FE08B1FEF71EF801210A4800
:1095A00004F060FE08B1FEF717F804F0AFFE08B152
:1095B000FEF712F805B05DF804FB00BF4595020008
:1095C000D9D00600D0D006003436002008B598B1B6
:1095D0000A4B1B88038004F0B1FE68B901210848DA
:1095E00004F040FE08B1FDF7F7FF04F08FFE18B15C
:1095F000BDE80840FDF7F0BF08BD00BF36360020CB
:1096000034360020BFF34F8F0549064BCA6802F479
:10961000E0621343CB60BFF34F8F00BFFDE700BF95
:1096200000ED00E00400FA0576DF704770B58AB0FF
:109630004388ADF81C3000254368CDF81E5006461F
:1096400002AA04A90088CDF82250CDE9005508935C
:10965000CDE904550695CDE90255ADF8265002F046
:10966000BFF9B37B04461BB948B320460AB070BDAE
:10967000022B05D148F20963984234D12C46F4E715
:10968000EBB1012BFAD1D6E90101B28941F0ADFF6E
:10969000B38903339B1009933388ADF81E3048F229
:1096A00009639C4207A904A81AD102F019F90446DB
:1096B0000028DAD10E4A136801331360D5E76946F2
:1096C00004A802F0C3F804460028CED1B28901995B
:1096D000B06841F08AFF04A802F0DEF80446C4E74F
:1096E00002F002F9E3E704A802F006F9DFE700BFA1
:1096F0005836002008B50378052B07D8DFE803F0BB
:109700000329290F071A184B00221A6008BD828905
:1097100041F237339A4202BF144B01221A700021E2
:10972000134A0846FEF74EFA0028EFD0BDE808407D
:10973000FDF752BF0D4B1A785AB10E4A10884FF6FA
:10974000FF7290420CD01321FFF76EFF08B1FDF7B6
:1097500043FF054B1A68002AD8D01A68013AD4E7AB
:1097600000221A70FFF74EFF5836002054360020B2
:1097700079970200902B002008B502F00BF9024AFD
:1097800013680133136008BD583600201FB5084B1D
:109790000093084B8DF80E10CDE901301023684678
:1097A000ADF80C30FFF742FF05B05DF804FB00BFD9
:1097B00004003813443600201FB5084B0093084BB3
:1097C0008DF80E10CDE9013004236846ADF80C3059
:1097D000FFF72CFF05B05DF804FB00BF0500371351
:1097E0003836002004281FB518D80D4B8DF80E20F0
:1097F00033F81030ADF8003041F23733ADF80230B5
:10980000084B53F820306846CDE901314023ADF8CC
:109810000C30FFF70BFF05B05DF804FB0720FAE7FB
:10982000DED00600E8D006001FB5084B0093084BB9
:109830008DF80E10CDE9013007236846ADF80C30E5
:10984000FFF7F4FE05B05DF804FB00BF010037131D
:109850003C36002041F2373002F074B8014B1868F2
:10986000704700BF5836002008B50388102B02D07F
:10987000112B04D008BD084B82881A80FAE7064BEA
:109880004FF6FF721A80054B1A78002AF2D0002298
:109890001A70FFF7B7FE00BF902B0020543600204F
:1098A00008B5094B094801221A60094B4FF6FF72AF
:1098B0001A80084B00221A7001F09EFE18B9BDE80C
:1098C000084001F0AFBE08BD58360020F5960200F2
:1098D000902B002054360020B0DF704740B139B1E2
:1098E000B0F864004FF6FF73984203D0FFF7F4BF5F
:1098F0000E2070470820704730B585B004460D46ED
:1099000010220021684641F094FE9CB165B101230C
:109910008DF800304FF4817369462046ADF804306D
:10992000FFF7DCFF05B030BD02238DF8003040F2B8
:109930000313F1E70E20F5E7F7B590F87440BDF892
:1099400020509C4647F207568CB1B14203D100210A
:10995000FFF7D2FF05E00C4C2478CDE9005400F06D
:1099600051F970B103B0BDE8F040FDF735BEB1422A
:1099700005D1134661462A4600F002FAF1E7214676
:10998000E6E703B0F0BD00BF9C37002038B590F883
:10999000745047F2075375B1994207D10121FFF77F
:1099A000ABFF80B1BDE83840FDF716BE064B1B7813
:1099B00000F064F8F5E7994202D100F04CF8F0E7C6
:1099C00000F02CF8EDE738BD9C37002038B1054A8F
:1099D0000267002380F874301370184670470E2019
:1099E000704700BF9C370020ADDF70471FB598B1AE
:1099F00092B10023CDE90033ADF80830ADF80A107C
:109A00000123694603928DF800308DF80630FFF788
:109A100065FF05B05DF804FB0E20FAE707B50246C6
:109A2000B8B147F20C53994208D102AA012102F8B9
:109A3000011DFFF7DBFF03B05DF804FB47F206539F
:109A4000994202D174320121F3E70121FFF754FF5B
:109A5000F1E70E20EFE71FB5044668B1684600F055
:109A60002DFB38B9684600F0F1FA6A46102120460D
:109A7000FFF7BCFF04B010BD0E20FBE72DE9F0435B
:109A80000F468FB090461D460646002800F0B48071
:109A900000F0D4FEA7F5EA41013904460B2900F293
:109AA000AD80DFE801F00606232B301F0606405389
:109AB000AB3B05AB222422460021184641F0B9FDFC
:109AC00001AACDE901404146B6F86400FFF78CFFDA
:109AD00028B9029A9DF804103046FFF787FF0FB0AF
:109AE000BDE8F08306F174020121F5E7FFF712FBF0
:109AF0000EAA40BA22F8240D0221EDE7012101EB64
:109B000085120244E8E7AA0100EB851595F8283094
:109B100013B129322244E7E70132FBE70EAA012103
:109B200002F8241DD8E700EB851393F82A2042B1F0
:109B300093F82630302B04D100EB8512023210212D
:109B4000CAE701213046FFF7D7FEC8E7AF01102270
:109B5000002105A841F06DFDE319B84693F8269061
:109B6000B9F1300F31D1284600F088FB00BA0E233E
:109B700000902846ADF81E308DF8049000F090FB60
:109B800004228DF8050069460DF1060041F02DFD17
:109B900007F11401082221440DF10A0041F025FDCE
:109BA00001AB089301238DF814309DF81A30002280
:109BB00043F0010305A93046ADF818208DF81A309E
:109BC000ADF81C20FFF78AFE89E794F8413153B1C4
:109BD00094F84D313BB194F84C31AB4203D194F839
:109BE000470100F0F9FDA044123798F82730ADF88E
:109BF0001E303C440894D5E70E2070E707206EE73E
:109C0000ACDF70472DE9FF410C461D46BDF82860CA
:109C10009DF82C800746002800F0A080002B00F063
:109C20009D8000211022684641F003FDA4F5EA4121
:109C300002390A290FD8DFE801F00610181E240E99
:109C40000E0E507F87002B78042B82BF40F20D133D
:109C5000ADF80430002600241BE02B88180A40EAE7
:109C6000032080B2FFF72EFAF5E795F90010404681
:109C700000F0BAFCEFE795F90010404600F0C4FC94
:109C8000E9E7012E1AD12B7813F0FD0F22D1002421
:109C90000126ADF80A600395002C61D102238DF8EE
:109CA00000309DF80630ADF8084043F001036946E6
:109CB00038468DF80630FFF711FE08E0112E09D165
:109CC0002B783BB9681C00F097F90028DFD004B06E
:109CD000BDE8F08100242C70DAE7142E94BF002434
:109CE000012416F0FF0104D001292B780AD1002BA2
:109CF00038D12A46404600F097FCFFF70BFAFFF7F1
:109D0000E1F9C6E7102B33D005D863B140F20D134B
:109D1000ADF80430BDE7202B0AD0302BF6D1222934
:109D200008D0122900E0112914BF0023012324E0E8
:109D30000129F9E7012320E02B780B2B8BD1FFF7CA
:109D400089FD002887D0C2E72C781CB10120FFF7DD
:109D500081F980E72046FFF77DF99AE70E20B6E704
:109D60000020B4E7202BE3D0302BDAD0102BCDD15C
:109D70000B1F0F2B8CBF00230123002BC6D0B8E78D
:109D8000F0B50E4687B015461F460446A0B399B3FA
:109D90001022002102A841F04CFC0023102DADF848
:109DA0000050ADF8023001960BD16A463946B4F83E
:109DB0006400FFF725FFD0B9ADF80C00019800F062
:109DC0006BF9019B059302238DF808309DF80E3046
:109DD000ADF8125043F001038DF80E3002A90023B4
:109DE0002046ADF81030FFF779FD07B0F0BD40F226
:109DF0000313ADF80C30E4E70E20F6E72DE9F04F41
:109E000074274FF0100A10FB07F53A4C89B005EBA8
:109E10000A090DF1200BA14406465246002148468E
:109E20004BF804ADCDF818A041F003FC07FB064346
:109E3000FF22DA769A6E3048110E05F1200822FAD8
:109E40000AF29977DA77A04400230093CDE9038BD7
:109E5000CDE9019A63190122284908F029FB08B1CC
:109E6000FDF7BAFB05F130074146274405F14008EC
:109E70001022A044384641F0B8FB10220021404691
:109E800041F0D7FB742202FB064205F1500992F81B
:109E90006C30916E82F84B30D94099400B0E82F8AD
:109EA0004C300B0C82F84D300B0A82F84E30A14436
:109EB00006AB82F84F10CDE903931023CDE901835F
:109EC0000023009301223B460C490B4808F0F0FAAE
:109ED00008B1FDF781FB05F16000082249462044E6
:109EE00041F083FB064B01211B683046984709B0BF
:109EF000BDE8F08FEC3F00208C3D002000DB060029
:109F0000E83F00202DE9F843254B187800F0A0FD2C
:109F10000546002842D0234CDFF8948000262746CF
:109F20004FF0020994F87030CBB1A16E94F86C3008
:109F3000D8F800202944013BA16609FA03F30AB9C5
:109F4000C8F80010D8F800208A1A934207D8B1FB4D
:109F5000F3F1F0B24B43C8F80030FFF74FFF013682
:109F6000052E04F17404DDD10F4C226815440F4A0C
:109F70002560954212D9DFF83C800025742606FB47
:109F8000057393F8703023B1D8F800300421E8B29B
:109F900098470135052DF2D100232360BDE8F883F1
:109FA000E43F0020EC3F0020304200207F510100C0
:109FB0008C3C0020E83F002070B504460C48742615
:109FC00006FB0405284685F86C10AA66194610227F
:109FD00041F00BFB012385F87030064B20461B68CF
:109FE000022198472046BDE87040FFF707BF00BF39
:109FF000EC3F0020E83F002070B58CB0102408AD85
:10A00000064622460021284641F013FB0CAB0022F5
:10A0100043F8144D0A490092CDE90353CDE9016498
:10A02000084B094808F044FA40B929462246054839
:10A0300041F0DBFA01210348FFF7A8FB0CB070BD2B
:10A0400000DB0600E43D00208C3D002070B50F4C85
:10A0500088B0102508AE01462A46204646F8045D21
:10A0600041F0C3FA6319CDE902530023009304962B
:10A070000194A4F1100301220549064808F018FADA
:10A0800008B1FDF7A9FA08B070BD00BFF43D00208B
:10A0900000DB06008C3D0020064910B5102241F07F
:10A0A00095FA014620B9044BBDE810401B681847DB
:10A0B00010BD00BF043E0020E83F0020102108F042
:10A0C00039BD0000F0B5154F89B00446742303FB79
:10A0D000047508A8102640F8046D85F86C204FF42C
:10A0E0007F42AA664FF0010C002285F870C00C4B2D
:10A0F00004900191CDE9026500920A490A4808F0EE
:10A10000D7F908B1FDF768FA2046FFF777FE074B4D
:10A1100002211B682046984709B0F0BDEC3F0020A3
:10A12000E43D002000DB06008C3D0020E83F0020DD
:10A130002DE9F0432025CFB0914604460F462A462C
:10A1400000213D4E1CA841F074FA742202FB046207
:10A1500040230B93012382F870300DF128084FF44F
:10A160007F4382F86C90936624A92B463A46334885
:10A170000995C8F8005008F01DFAB14608B1FDF77E
:10A180002BFA2F4B2D492F48A3F1280208F0EEF9A6
:10A1900008B1FDF721FA14ADCDF800802B4624AAB2
:10A1A00029492A4808F03AFA08B1FDF715FA2022A1
:10A1B00029461CA841F00AFA10B90320FDF70CFA51
:10A1C00009AA0CA91E4808F011FA08B1FDF704FA13
:10A1D0002EAE20223946304641F007FA20220CA943
:10A1E00036A841F002FA0023CDE905330493402359
:10A1F000CDE902632023CDE900533EAA0BAB1449FD
:10A20000144808F090FA08B1FDF7E6F9742010221E
:10A210003EA9114D04FB009041F0E7F92046FFF7FD
:10A22000EDFD2B682046032198472B68022120462C
:10A2300098474FB0BDE8F083EC3F002024DB0600D8
:10A240003C3E0020A0370020143E002000390020B2
:10A2500068DB0600643E0020E83F002007B502AA44
:10A26000202342F8043D044808F0C0F908B1FDF786
:10A27000B3F903B05DF804FB3C3E0020024A7423AE
:10A2800003FB0020806E7047EC3F0020034B7422DC
:10A29000002100FB023041F0CCB900BFEC3F0020B0
:10A2A000034A742303FB002090F86C00704700BF42
:10A2B000EC3F0020044A0B46742101FB0021603171
:10A2C0000822184641F091B9EC3F0020F0B5134B3D
:10A2D000134C89B0102508AE0F46742100FB0131E4
:10A2E0002A46204646F8045D41F07FF96319CDE91E
:10A2F00002530023009304960194A4F11003012259
:10A300000849094808F0D4F808B1FDF765F91022AA
:10A310000649384641F069F909B0F0BDEC3F00202C
:10A32000F43D002000DB06008C3D0020043E0020B0
:10A330000B46054910B4742400FB04111022184682
:10A340005DF8044B41F051B9EC3F00202DE9F04796
:10A3500096B00CAF00240646DFF800910C948846B6
:10A36000154602310C2238464FF0740AC7E9014401
:10A3700041F03BF91022214612A841F05AF906FBA0
:10A380000A910AFB0696102212A841F02EF996F8BF
:10A390006C20B36EADF82C40D34016AE93401A0E2D
:10A3A00026F8384D8DF828201A0C8DF82920022126
:10A3B0001A0A30468DF82A208DF82B3008F0BAFBA7
:10A3C00008B1FDF709F9022231460BA841F00DF959
:10A3D000002312AA1F492048ADF8243007F074FF6B
:10A3E00008B1FDF7F9F8022306930C2309AC0DF12F
:10A3F0003C09CDE902730023CDE900330594CDF883
:10A40000109006230AAA0121134807F08BFF08B118
:10A41000FDF7E2F8104807F06FFF08B1FDF7DCF830
:10A4200098F800302B7001236B7049460C22A81C51
:10A4300041F0DBF83146022205F10E0041F0D5F87B
:10A440000222214605F1100041F0CFF816B0BDE818
:10A45000F08700BFC8D80600903C0020EC3F0020E9
:10A46000F0B5054685B068B300212448FFF78EF9A2
:10A4700048F20962904227D008B1FDF7ADF8204BB1
:10A4800020481D605022002141F0D3F81E4B1F4888
:10A490004FF47F429A66C3F8DC20C3F85021C3F81A
:10A4A000C421C3F838224FF4804100F0F5FA08B116
:10A4B000FDF792F808F040FA08B1FDF78DF800209A
:10A4C00005B0F0BD0720FBE7114B6A4603F110070A
:10A4D000164618685968144603C40833BB4222461E
:10A4E000F7D131461022054841F07FF80121034899
:10A4F000FFF74CF90028C2D0BFE700BFE43D0020C1
:10A50000E83F0020143E0020EC3F0020E43F002004
:10A51000FCD0060030B41E4B86B004460D461868C9
:10A5200059686A4603C2197A53F8090F11705968BD
:10A530001B7A03AA03C217481370A201811803AC47
:10A5400091F828305BB191F92930104490F8262019
:10A55000102A15D010D89AB106B030BC7047E15619
:10A56000A94204DB06A90B4413F9183CEDE70133BB
:10A57000092BF4D10023E8E7202A03D0302AEBD1BD
:10A58000C374E9E7072006B030BCFDF725B800BF6B
:10A590000CD1060038420020F8B5124D05EB8016AC
:10A5A000044696F82A10D1B196F82630302B4FEA9F
:10A5B00080170DD1FFF762FEF0622046FFF770FEB4
:10A5C00007F1300186F82B0029442046FFF7B0FE42
:10A5D0000122E9192046BDE8F840FFF703B902223D
:10A5E000F9E700BF384200200428064B28BF0420AA
:10A5F00003EB8013597093F828300BB9FFF78ABF2B
:10A60000704700BF384200200428064B28BF0420B2
:10A6100003EB8013012283F8282083F82910FFF729
:10A6200079BF00BF38420020042828BF04202DE94C
:10A63000F0470C460546164612B90E20FCF7CCFF33
:10A640001CB1012C337806D12BB929463C48BDE812
:10A65000F04700F081B9302B394F4FEA85182DD1E2
:10A66000222C01D0122C29D1474497F82A301BB153
:10A670002946334800F070F92946314800F06CF95A
:10A680003378302B02D00820FCF7A6FF222C07D10C
:10A6900096F82120711C2846BDE8F047FFF748BD19
:10A6A000122C06D1727C711C2846BDE8F047FFF7DA
:10A6B00009BD0720BDE8F047FCF78EBF07EB080394
:10A6C00093F82A301BB129461D4800F045F932782D
:10A6D000202A02D197F84D3143BB00232946184860
:10A6E00000F071F9A90107EB080A01F112093378AA
:10A6F0008AF82630B944263101223944484640F0D0
:10A7000074FF9AF82630102B02D0202B10D06BB992
:10A71000621E711C09F10200474440F066FF0134DB
:10A7200000212846FFF7F6FE87F82740BDE8F087AE
:10A73000484600F025FA0E238AF82730F6E700BFD6
:10A740003842002049B10428044B28BF042003EB01
:10A7500080101022023040F048BF7047384200207D
:10A760002DE9F041134D05EB80170A2330263946B9
:10A7700087F8273087F8266014310446FFF79AFDE2
:10A78000BE7497F901100C4F2046FFF7C3FE3B78CB
:10A790004BB1012332462146284600F014F900232C
:10A7A0003B70BDE8F081324621462846BDE8F041C5
:10A7B00000F009B93842002034420020054890F8E2
:10A7C0004D3133B190F84C3100EB8310123000F072
:10A7D000D7B970473842002030B5174C8BB00546CA
:10A7E000204600F0B1F820B194F8412100239342B3
:10A7F00001D30BB030BDE11891F84711A94201D047
:10A800000133F4E701A800F0BBF9284605AA01A925
:10A81000FFF79CFD94F84C01122505EB80102044B5
:10A820002A4605A940F0E1FE94F84C3104EB83146C
:10A8300084F82750DDE700BF384200200048704709
:10A84000384200202DE9F34700240746294E2A48C4
:10A850000094CDF8034000F0E6F8214668463470D5
:10A86000FEF7E2FF48F209629042234D0ED14022EA
:10A870003946284640F0B9FE012397F826202146A4
:10A88000284600F0A0F802B0BDE8F08708B1FCF758
:10A89000A3FEDFF86490002409F1300A1DF80420BB
:10A8A000F2B9E7B24FEA841805EB08013846FEF723
:10A8B00099FF48F20962904212D008B1FCF78CFE71
:10A8C00005EB0801012391F82620302A0CD13370C2
:10A8D000CA6A91F82B100AEB08033846FFF76CFBA5
:10A8E0000134052CDAD1CEE73946484600F06BF842
:10A8F000F6E700BF344200203842002070B5002344
:10A900000D4601460E4601313478944218D12C7818
:10A91000013CE4B29C4210D903445A7803F8012B5D
:10A920001A1A9442F9D8C4F10502AB21204440F030
:10A9300080FE2B78013B2B7070BDAB233370F8E7A2
:10A940000133052BDED1F7E790F841310BB190F8D8
:10A950004D3103F001007047F8B58E0183190446AC
:10A9600093F82A700D4607B390F84D3133B190F843
:10A970004C318B4204BF002380F84D312A4604F548
:10A98000A07104F5A170FFF7B9FFA31993F8263061
:10A99000302B16D12A4604F2411104F24710FFF77A
:10A9A000ADFF2644002386F82A304022002104EB24
:10A9B000851040F03EFE17B12846FFF767FC384689
:10A9C000F8BD0027EDE770B5202A04BF012480F808
:10A9D0004D414FEA811400EB040508BF80F84C118B
:10A9E00095F82A6006B1BBB10444012384F82A30EB
:10A9F00090F84031C418302A03F1010384F8421161
:10AA000080F840310ED190F84131C218013382F8FC
:10AA1000471180F8413105E0302A03D195F82630FE
:10AA2000302BF0D170BD38B50025044680F84D516B
:10AA30000522AB2100F5A17040F0FBFD0522AB2102
:10AA400004F2471040F0F5FDA4F8405138BD000075
:10AA5000F8B505460E4EFDF745FA56F82520044692
:10AA600012B90820FCF7B8FD0A4F204657F8251008
:10AA7000FDF733FA56F8253083429FBFB4FBF3F459
:10AA80005C4347F82540B0FBF3F088BF0020F8BDD9
:10AA900098430020AC43002010B570B10A4A1378E7
:10AAA000042B0CD0094C24785CB10370084840F8A2
:10AAB000231001331370002010BD0E20FCE7082086
:10AAC000FAE78020F8E700BFA9430020A843002050
:10AAD0009843002010B5084B084800241022214656
:10AAE0001C7040F0A6FD10222146054840F0A1FD53
:10AAF000044B01221A7010BDA9430020AC43002072
:10AB000098430020A84300204CDF704707B501A8F8
:10AB1000FFF7FAFF019B044A43F38D019B0111717A
:10AB2000537103B05DF804FBC143002007B5094B26
:10AB30001878FFF78DFF084A136802A918441060BF
:10AB400000BA41F8040D0422044840F04EFD03B061
:10AB50005DF804FBC0430020D0430020CB4300201D
:10AB600007B50DF10600FEF731FDBDF80620034BD9
:10AB7000110A9970DA7003B05DF804FBC14300203C
:10AB800013B50446FFF7D2FF0C4B0D481B6802A912
:10AB90001BBA41F8043D042240F027FD094B187808
:10ABA000FFF756FF18B1FFF7B1FFFFF7D9FF0E22ED
:10ABB0000549204640F019FD02B010BDBC430020FD
:10ABC000C7430020CF430020C1430020024A13683E
:10ABD00001331360704700BFBC43002010B5124C16
:10ABE00000210E22204640F024FD104A202323702D
:10ABF000002363701360FFF799FFFFF7B1FFFFF7C2
:10AC000085FF40F266610A48FFF746FF08B1FCF78E
:10AC1000E3FC4FF420310748FFF73EFF18B1BDE8D1
:10AC20001040FCF7D9BC10BDC1430020BC4300203C
:10AC3000C0430020CF43002070B5064E05460024D7
:10AC400056F824300BB1284698470134042CF7D12C
:10AC500070BD00BFE04300200330F0B540F2FE338A
:10AC600086B29E421ED8114D0024142707FB04F320
:10AC70001FFA84FC585D78B92B441A89B3F80AE0AE
:10AC80007244324492B2B2F5806F05D8A1F800C088
:10AC90005A8932445A81F0BD0134092CE6D148F278
:10ACA0000660F8E748F20860F5E700BF18440020A6
:10ACB0000B4A0C4B5188142000FB0131CB6833B98F
:10ACC0000420496810700122074801F085BD052362
:10ACD0000649137002238B80012200230968F3E7E1
:10ACE000F84300201844002054330020044600207C
:10ACF00007B5002305490093054A0968054808235C
:10AD000001F0AAFC03B05DF804FB00BF044600207C
:10AD10002CD106005433002007B5002300930146D0
:10AD20000823034A034801F097FC03B05DF804FBD5
:10AD300024D106005433002013B500230C460093A1
:10AD400001460423074A084801F086FC38B9074B3E
:10AD5000142202FB04340123237402B010BD48F214
:10AD60000D60FAE720D1060054330020184400207B
:10AD700037B50A480A4B42689C88196853880325EE
:10AD8000033305709BB2002000909B0001EB84010F
:10AD9000044801F061FC03B030BD00BFF84300205F
:10ADA000044600205433002010B50146044800F04A
:10ADB0003EFF1C220446002140F03BFC204610BD13
:10ADC000942B00204388033300EB830399420BD379
:10ADD00082884FF6FF739A4208D0038833B18068A7
:10ADE000431C584258417047022070470120704769
:10ADF0002DE9F8430223DFF860800B800D461746EB
:10AE000000F5805600F108044FF00109B4420FD25A
:10AE1000236801330CD031462046FFF7D3FF48B1F9
:10AE20000FB187F8009002280BD14FF480632B807C
:10AE3000BDE8F883A368D8F80020934201D9C8F888
:10AE400000302B886288033313442B8063880333DC
:10AE500004EB8304DAE700BF1044002070B5144A05
:10AE6000142303FB00200B6844680D4604F580564C
:10AE70009BB15C88033403EB8404B4420BD2236897
:10AE8000013308D031462046FFF79CFF012809D046
:10AE900005D30228F1D1002003E00834EDE72C604F
:10AEA000012070BD6388033304EB8304E5E700BF32
:10AEB0001844002073B5436805460C465BB3244A2A
:10AEC000D1688B4227D31269934224D813F003022E
:10AED00021D120490089098988421CD128689968B4
:10AEE000884218D11C48142505FB020196B2496816
:10AEF0008B420AD901F580518B4206D22680002070
:10AF0000B0FA80F0400902B070BD0132092AEBD1DD
:10AF100048F20960F4E7002323801E462388082BAB
:10AF200001D90020EFE7019601A92088FFF796FFDD
:10AF300018B9238801332380F0E7019B2A689968B8
:10AF40009142F1D16B60034B1B892B81DBE700BF82
:10AF500054330020F8430020184400202DE9F84322
:10AF60001C46204B1B7806460F461546002B33D057
:10AF7000002A34D0002C32D0DFF870804FF0140952
:10AF8000A388082B02D948F209601BE009FB03F3F0
:10AF900018F80330C3B1A3880133A380F0E7236816
:10AFA0001EB19988328891420ED11FB119883A8812
:10AFB000914209D19B682B6023686B600A4B1B8907
:10AFC0002B810020BDE8F8832146A088FFF746FFCB
:10AFD0000028E4D12060DEE748F20160F2E748F2A1
:10AFE0000460EFE7F0430020F843002018440020FD
:10AFF00008B5074B191D5888FFF730FF18B1BDE899
:10B000000840FFF7B5BEBDE80840FFF751BE00BFDE
:10B01000F84300202DE9F04FA24FDFF8AC9289B041
:10B020000646B8463B6823B949469F4800F039FEBA
:10B030003860D8F8005029784B1E052B00F2128199
:10B04000DFE813F0060074007400070107016101D6
:10B050002EB1964B00225A604FF4064412E02B7931
:10B06000032B0AD8DFE803F002273F4A01232B71A4
:10B07000FFF73EFE002800F0E6808C4B00225A606D
:10B0800048F20D641422002103A840F0D2FA41F6E0
:10B090001D539C4208BF0024D8F8003004941A784D
:10B0A000023A042A00F2E881DFE812F0C901D50172
:10B0B000F801000207027E4A0023142000FB03F17E
:10B0C0008C5C022C06D15318002050545868FFF7AE
:10B0D00023FECFE70133092BF0D1744B01221A7004
:10B0E00000225A6006E173497348002302222B7143
:10B0F0008A800122096801F06FFBBBE76D4C0026D6
:10B100002E7120686A4DFFF707FE6C4BD4F800C023
:10B110005A8814235343EA18EE5451682160A188D9
:10B12000C2F804C011810222A280A3E7B5F814A0DE
:10B13000AA7DDFF87CB11423AEB1022A06D903FB45
:10B140000AB3EA88198903320A441A81142303FBDB
:10B150000ABAEB88BAF80A20C3F57F43FD331344DB
:10B16000AAF80A3078E703FB0AB318895C6804EB95
:10B170008004062A05D8DFE802F0284F37451E5B19
:10B18000690048F20E64AB7D022B07D9142202FB42
:10B190000AB2EB88118903330B441381142303FB98
:10B1A0000ABAEB88BAF80A20C3F57F43FD3313448B
:10B1B000AAF80A3066E74248424900234360AB6977
:10B1C0000360FFF777FE00285BD00223AB750023F6
:10B1D00000930423EA182146374801F03DFA00287D
:10B1E00031D048F20D64CEE72B69002B0CBF012350
:10B1F0000323AB750023009305F10C02042304F133
:10B200000801E9E70123AB750022EB8800929B005F
:10B210002A6904F10C01DFE7032914BF0623052383
:10B22000AB7500230093042305F10802E118D3E76E
:10B230000623AB75234B1988214B5868FFF77CFD1B
:10B24000044600289FD109B0BDE8F08F41F61D5497
:10B2500099E7002E7FF400AF2B79012B36D004D371
:10B26000022B47D048F20E640CE702232B71CDE984
:10B2700004660DF10A01EB68039303A8FFF71AFEB9
:10B2800010B948F20964FDE60498BDF80A108388F5
:10B29000EB8003882B81FFF74FFD0446002C7FF4E1
:10B2A000F1AED0E714440020942B0020F04300209E
:10B2B000184400200446002054330020F8430020A6
:10B2C000D4430020104600200C440020DFF80CA2DC
:10B2D00003AA53463146A81DFFF740FE044660B955
:10B2E000BAF804100498FFF727FD044648F20963F2
:10B2F0009C42D3D141F61D54C4E608223146504643
:10B3000040F097F9F2E7002E7FF4A6AE6D4BDA7CA1
:10B310001C46AAB1DE741A78013A062AA2D801A105
:10B3200051F822F0CFB30200FBB302000FB40200C9
:10B3300015B4020065B202001BB4020031B4020071
:10B340001A78072AE7D801A151F822F06DB302005C
:10B3500017B3020017B3020097B30200ABB30200A9
:10B36000CBB30200CBB3020093B302001A89564D4F
:10B3700001321A8100225A80DA74142606FB02F187
:10B38000A018495D0132B1FA81F14909092A817297
:10B39000F4D1012207E04D4958688A884088033279
:10B3A00002448A8002221A70B5E7474C5A884749FE
:10B3B000142505FB02420868546850608888108193
:10B3C00002228A800C600622EDE70722EBE70022CA
:10B3D0003F493D4D1446142611F8010F1FFA82FC17
:10B3E00070B106FB02500C70D0F80CE0BEF1000FFB
:10B3F00006D1007C20B1A3F802C0FFF7F9FD4CE7AD
:10B400000132092AE8D100221A705A8069E6FFF752
:10B41000AFFC42E7FFF74CFC3FE706221A702A4ACE
:10B420005B88142101FB03235868FFF775FC34E7A0
:10B4300007221A7000225A60FFF75AFC2DE70122FA
:10B440008DF80C201A89ADF818209A88ADF81A20CA
:10B45000DB68059310E002228DF80C201A89ADF804
:10B4600018209A88ADF81A20DA6805929B7D9A1FF9
:10B47000534253418DF81C3003A8FFF7DDFB002633
:10B4800049461448C8F8006000F036FC0121124813
:10B4900000F0AAFC00287FF4C5ADD4E603228DF8A5
:10B4A0000C20DA88ADF818201A89CFE704228DF82D
:10B4B0000C20DB88ADF81830DEE705238DF80C3062
:10B4C000DAE700BFF84300201844002004460020BB
:10B4D00001440020942B0020004600201446002048
:10B4E0004068FFF797BD000008B50121044800F04F
:10B4F00065FC18B9BDE80840FFF78CBD08BD00BF6A
:10B50000004600202DE9F3419846364B1B7806464D
:10B510000D46002B5AD000295BD009884FF6FF73E7
:10B52000994259D06B88002B56D06B689B0756D137
:10B530004AB92F890DF102013846FFF78DFB30B172
:10B5400002B0BDE8F08113885788ADF8023001A839
:10B55000FFF72AFC044660B9BDF80230224A1421E4
:10B5600001FB032358890338C01B588148F2076048
:10B57000E6E780F8008000238375BDF802308382FF
:10B580006B6803610121194800F023FCE0602B88FF
:10B5900023816B88A380B8F1030F04BF0423A37534
:10B5A000E78004BF3368A3610025658101A91048C5
:10B5B00000F067FB36B17560E36833600D4BB57220
:10B5C0001B893381FFF790FF0020B9E748F2016043
:10B5D000B6E748F20460B3E748F20360B0E748F228
:10B5E0000260ADE7F0430020184400201044002022
:10B5F000942B0020F843002008B5084B1A68042A51
:10B6000009D01968064A42F821000121184600F0C5
:10B61000E0FB002008BD48F20B60FBE70C46002071
:10B62000E04300202DE9F04F89B01422002103A847
:10B630003FF0FFFF794A1378914603F0FF0B3BB1CF
:10B6400003A8FFF7F9FA0027384609B0BDE8F08FE4
:10B65000101D00F0D4FB05460028F4D140F6F87325
:10B660004FF080521B685C1C08BF6D4B6D4C08BFCF
:10B670001B6811695269581C08BF02FB01F3A3F54E
:10B6800010422261A3F5983300226749E360204607
:10B6900000F0A6FF009407460028D5D11C234FF4E4
:10B6A0009A7262496248634E00F08CFAB8464FF0D5
:10B6B0000A0A3C46009BD86858F8003018EB000096
:10B6C0002ED05D4A934240F0A78042685B498A428F
:10B6D00014D001318A4223D1594BBBF1000F60D104
:10B6E0000022584918600193FFF782FB019B9B8859
:10B6F000022B14BF082304231D4335E014216143AA
:10B7000073180022725401F110020831586032445B
:10B710003144FFF76DFB45F002050134A4B223E08C
:10B720005A1C02D0444A934230D1031D00F5805187
:10B730001A6801322AD104339942F9D1404B1A6870
:10B740002AB9022218609A804FF0010B0AE01423F4
:10B7500063430221F218F1543B4B50605C8001348A
:10B760001181A4B245F0010508F58058B8F5204FC5
:10B77000A0D1BAF1010F98BF0025EDB2022D02D081
:10B78000062D1ED03DBB48F20A675DE714236343D4
:10B79000F2180AF1FF3A506003221FFA8AFAF254B3
:10B7A000BBE714226243B1184FF0020C06F802C046
:10B7B0001A684A60244AA1F808C054800134A4B22F
:10B7C0008EE7012389F8003003A80023C9F804306C
:10B7D000FFF732FA38E702A8FFF7E6FAC8B101230B
:10B7E000013D03700A2D09D8DFE805F006080608B8
:10B7F000070807080F110F000023037102A90C4866
:10B8000000F03FFAFFF770FE1EE70323F5E702237F
:10B81000F3E748F2076717E7013385E7F0430020B5
:10B82000141000105433002050D30600CC440020E4
:10B83000942B002018440020DEC0ADDEFE011EF176
:10B840000446002008460020F843002073B50D464A
:10B850000446C8B1C1B10DF10601FFF72BFBB0B131
:10B860000C4BBDF806006668142202FB0030012173
:10B870000C3000F0AEFA2E6063680C336B6001236D
:10B88000A372002002B070BD48F20460FAE748F2EB
:10B890000960F7E71844002013B50446A8B10DF17C
:10B8A0000601FFF707FB98B10C4ABDF806301421DA
:10B8B00001FB0323DA6872B1A27A62B1DA68002070
:10B8C000013ADA60A07202B010BD48F20460FAE7F3
:10B8D00048F20960F7E748F20560F4E718440020F1
:10B8E00002230022FFF70EBE18B103230022FFF748
:10B8F00009BE48F20460704737B5104B1B78054607
:10B900009BB1A8B101A8FFF74FFAA0B1042300240E
:10B91000037004712B68C36001A9094800F0B1F9F4
:10B92000FFF7E2FD204603B030BD48F20160FAE7C0
:10B9300048F20460F7E748F20760F4E7F0430020BC
:10B94000942B002013B5114B1B780446ABB14FF676
:10B95000FF73984214D001A8FFF726FA98B1052387
:10B96000037001230371C48001A9094800F089F91B
:10B97000FFF7BAFD002002B010BD48F20160FAE7FF
:10B9800048F20360F7E748F20760F4E7F04300206D
:10B99000942B002007B50F4B1B78A3B101A8FFF72C
:10B9A00003FA98B10623037001A90B4800F069F966
:10B9B0000A4B1A780AB10122DA74FFF795FD0020CC
:10B9C00003B05DF804FB48F20160F9E748F2076054
:10B9D000F6E700BFF0430020942B0020F84300203E
:10B9E00013B502AC134624F8020D0A460020214686
:10B9F000FFF7B4FA02B010BD006800BA704710B586
:10BA0000C4B280F00100C0B2431E23EA000040F33C
:10BA1000C013601E0A78497820EA040040F3C01081
:10BA2000024022EA030201EA0300104310BD03684A
:10BA3000CB701A0E0A701A0C4A701A0A8A70436880
:10BA4000CB711A0E0A711A0C4A711A0A8A7183682C
:10BA5000CB721A0E0A721A0C4A721A0A8A72C368D8
:10BA6000CB731A0E0A731A0C4A731A0A8A73704738
:10BA700008B50346FFF7C0FF0860181DFFF7BCFFBD
:10BA8000486003F10800FFF7B7FF886003F10C007E
:10BA9000FFF7B2FFC86008BD13B50C4602A94FF40A
:10BAA000074321F8043DC3685A00E2608268DB0F57
:10BAB00043EA4203A3604368D20F42EA4302626052
:10BAC0000068DB0F43EA40032360C00FFFF797FFD6
:10BAD000E3685840E06002B010BD38B5036800F17B
:10BAE000080504465B6840680A4629469847D4E939
:10BAF0000B130B442B4413F8012D0132D2B21A70F0
:10BB000012B95A1A9542F6D138BDC0E90012083070
:10BB10000A6819463FF069BD2DE9F04304461E4608
:10BB200054F8083B1D6885B007468846914616F1D3
:10BB3000FF3602D205B0BDE8F083002295420DD158
:10BB40003B6878685B6822466946984748462A46BB
:10BB500021463FF04AFDA844A944E8E718F802301E
:10BB6000A15C4B400DF802300132E7E7F8B504461E
:10BB70000D461746002134221E463FF05AFD002292
:10BB8000E2622B682363C4E90057A2622A68314647
:10BB900004F10800BDE8F8403FF027BD7FB504463A
:10BBA000074E54F8285B0390CDE9013600920B460E
:10BBB0002A6821461830FCF7FFFA04B070BD00BFB8
:10BBC000DBBA020010B561B1B2FBF3F403FB14243D
:10BBD000A4B244B9C0E9001484608281C3812046C4
:10BBE00010BD0E20FCE70920FAE782B050E8022FD2
:10BBF000C188B2EB324F4FF0000317BF92B241EA57
:10BC0000014142EA014104E04268B2EB324F08BF11
:10BC1000012340E80212002AE8D18DF807309DF890
:10BC20000730002B0CBF1120002002B0704737B541
:10BC300050E8013F9DB2C48925448489A54228BFAC
:10BC40002D1B0489A54202BFBFF32F8F002207E0FE
:10BC5000C5EA030540E80154002CE9D14FF0010288
:10BC60008DF803200193019B9DF803200B6002F0E7
:10BC7000FF0322B10B880068184403B030BD18469A
:10BC8000FBE70A884B889A4209D150E8012FC2EAA3
:10BC9000024240E80123002BF7D101207047002029
:10BCA000704737B550E8023F1FFAA3F5C488A54294
:10BCB00002BFBFF32F8F00220DE0C4892544848981
:10BCC000A54228BF2D1BC3EA054540E80254002CBD
:10BCD000E8D14FF001028DF803200193019B9DF8FC
:10BCE00003200B6002F0FF0322B14B880068184468
:10BCF00003B030BD1846FBE70A884B889A4209D149
:10BD000050E8022FC2EA224240E80223002BF7D17A
:10BD1000012070470020704701F01F024B090121EC
:10BD2000914000EB830000F028B801F01F030122CE
:10BD30009A404B0900EB8300D14300F034B84B0923
:10BD400001F01F0150F82300C84000F001007047C7
:10BD500050E8002F0B4640E8003C9CF0000FF7D164
:10BD60001046704750E8002F42EA010340E8003CCB
:10BD70009CF0000FF6D11046704750E8003F43EAB0
:10BD8000010240E8002C9CF0000FF6D110467047ED
:10BD900050E8002F02EA010340E8003C9CF0000F4D
:10BDA000F6D11046704750E8003F03EA010240E830
:10BDB000002C9CF0000FF6D11046704750E8002F81
:10BDC00002EB010340E8003C9CF0000FF6D1104666
:10BDD000704750E8003F03EB010240E8002C9CF064
:10BDE000000FF6D11046704750E8003FA3EB010268
:10BDF00040E8002C9CF0000FF6D11046704701215E
:10BE0000FFF7B0BF0121FFF7B8BF0021FFF7C0BFA8
:10BE10000021FFF7C8BF10B590B1D0E90123016838
:10BE20009B1ADBB20A60013BDBB2FF2B026802D136
:10BE30000020107110BD11684C1C14600B70F2E7EB
:10BE40000E20F7E737B5054602A8002400F8014D9B
:10BE5000FCF70AF92A68696813688B4210D9591EE1
:10BE6000116013F8014CAA8AEB6802FB04342A68BB
:10BE7000AB6811685B1A1179DBB2994238BF137154
:10BE80009DF80700FCF714F9204603B030BD37B524
:10BE9000054602A8002300F8013D0C46FCF7E4F833
:10BEA0002A681368591C1160E968641AA98AB4FBEE
:10BEB000F1F41C709DF80700FCF7FAF803B030BDF0
:10BEC0006CDF704774DF7047ACDF704730DF70475E
:10BED00031DF7047024B1B6803B11847704700BF42
:10BEE000944600201FB59DF808306FF347038DF886
:10BEF00008300DF10700FFF7E9FF9DF80730052B2B
:10BF0000F7D906210DF10900FFF7E2FF0B4B187876
:10BF1000FFF7D8FF02A8FFF7D3FF0828FAD008B12F
:10BF2000FBF75AFBFDF79CF820B1FDF77FF805B051
:10BF30005DF804FBFDF788F8F9E700BFA82B0020A7
:10BF400010B5044688B004293ED8DFE801F00309A3
:10BF500019213A001D4B012283F8742008B010BD4E
:10BF6000FEF7FEFB1A4B01221A701A4A11884FF68F
:10BF7000FF729142F2D100221A70FFF7B3FFEDE792
:10BF80006946FEF7A3F969462046FEF7DBFBE5E7C5
:10BF90006946FEF763F9104A202313600D4BC2F87F
:10BFA00004D019884FF6FF739942D7D0074B998F69
:10BFB000B3F86400FFF788FF0028CFD0FBF70CFB35
:10BFC000CCE7FEF7E9FAF7E70720F7E71C46002081
:10BFD00098460020AA2B00209C460020012808B586
:10BFE0000AD002D3022807D008BD0020FFF772FF55
:10BFF000BDE80840FDF786BFBDE80840FFF76ABF0F
:10C000002DE9FF410546FDF731F82946304804F097
:10C0100057FA08B1FBF7E0FA02AE00240294C6F822
:10C020000340FEF70BFC2B88102B074607D0112B83
:10C030000CD02846FDF718FC04B0BDE8F081254B74
:10C04000AA881A80224B1B6F1C70F2E7214B4FF617
:10C05000FF721A809846E0B2FEF79EFA08B1FBF72D
:10C06000BBFA07EB841393F82A3083F001033355AE
:10C070000134052CEFD101213046FDF7D5FB08B185
:10C08000FBF7AAFAFDF746F8ADF80400FCF7E8FF65
:10C0900001218DF8060001A8FDF78EFB08B1FBF722
:10C0A0009BFA0B4B93F87420012A04BF002283F8FB
:10C0B0007420B8F800204FF6FF739A42B9D1064BAE
:10C0C0001A78002AB5D000221A70FFF70BFFB0E7EC
:10C0D0001C460020AA2B002098460020FCF7A6BF93
:10C0E00070B54D4B18604D4B9AB04FF6FF721A80E9
:10C0F000FEF7F0FC4A48FDF769FC08B1FBF76CFA63
:10C10000FDF7CEFB08B1FBF767FAFDF7A7FB0028A8
:10C11000FBD14448FEF7A4F908B1FBF75DFAFDF73F
:10C1200023F8414A10685168127A03AB03C30AAC82
:10C130001A7000210F2220463FF07BFA3B4B0A93F6
:10C1400009220F2303A90DF12E00ADF82C303FF08A
:10C150004CFA4FF47A730E9300214FF480730C2243
:10C1600006A8ADF83C303FF064FA314B079306A9BE
:10C17000304B2B480893069404F06EFA08B1FBF795
:10C180002BFA2D4B06AA03F10806186859681546C4
:10C1900003C50833B3422A46F7D118689B88286044
:10C1A000AB804022002120463FF043FA10230E22AC
:10C1B00006A98DF84E300DF13A0001238DF84F207D
:10C1C0008DF852303FF011FA2046FEF73BFBFDF7A9
:10C1D000CFF900212046FDF7EFFA48F209629042BC
:10C1E00015D14FF47A73ADF8283000238DF82A303A
:10C1F0000B499DF82A3008781049BDF82820009195
:10C200000F49FCF78DFFFCF71FFF1AB070BD002827
:10C21000EED0FBF7E1F9EBE794460020AA2B0020D3
:10C220001C46002041BF02004CD10600000505025B
:10C23000399902008D99020055D10600A82B0020E3
:10C24000DDBF020010B5826804462AB14369016867
:10C25000006998470023A36010BD0EB403B503998D
:10C2600029B102AA04AB42F8043D00F073F802B011
:10C270005DF804EB03B070470A2938B504460D4653
:10C2800002D10D21FFF7F8FFA3682268591CA160B5
:10C29000D554D4E901329A4204D32046BDE838404F
:10C2A000FFF7D0BF38BD00002DE9F84F9946DDE912
:10C2B0000A431746824688460A460126BA420FD2EA
:10C2C0004E4538BF4E4613F0010B01D164B900242E
:10C2D0000125B9F1010F1AD909F1FF397D43F8E7BA
:10C2E000B2FBF7F20136E9E79B070ED5B9F1000F73
:10C2F0000CBF30252025A642EAD2013C29465046F3
:10C30000FFF7BAFF002CF6D1E1E72025F3E7B8FBF1
:10C31000F5F39F42E2D9DFF83890B8FBF5F35046C9
:10C3200019F8031005FB1388FFF7A6FFB5FBF7F517
:10C33000002DF2D1BBF1000F02D00CB1A64201D307
:10C34000BDE8F88F20215046013CFFF795FFF4E748
:10C3500063D106002DE9F74F054690460E460029A9
:10C3600000F03A8116F8011B002958D0252940F029
:10C37000D180002702E047F001071646324612F846
:10C38000013B2D2BF7D0302B04D02B2B05D147F0C0
:10C390000407F2E747F00207EFE700242A2B06F133
:10C3A00001021BD1D8F80030191DC8F800101B6815
:10C3B00016461C4433782E2B1CD101364FF0000A50
:10C3C000314611F8012BA2F13000092814D80A23B4
:10C3D00003FB0A23A3F1300A0E46F1E712F8013CF1
:10C3E000A3F130010929E5D80A2101FB0434303CCE
:10C3F0001646D3E74FF0000A324612F8011B01F04F
:10C40000FB0068281646F8D0692916D054D8582958
:10C4100070D00ED825297DD03378002BA2D12B7B6C
:10C42000002B00F0D980284603B0BDE8F04FFFF79D
:10C4300009BF632968D06429EED1D8F80020111D06
:10C44000C8F80010D2F8009089EAE972A2EBE9720C
:10C450004FF0010B092A61DCD34538BFD3462CB11C
:10C46000B9F1000F01DB790700D5013CBA0702D50D
:10C47000BAF1000F04D0FB0702D4002C54D10024E1
:10C48000B9F1000F58DAC9F100092D212846FFF74C
:10C49000F3FE07F00302022A05D1BAF1000F02D120
:10C4A000002C4DD10024CDE9004753460A224946CD
:10C4B0002846FFF7F9FEAFE7732954D016D8702944
:10C4C000AAD1D8F800301A1DC8F80020302128461B
:10C4D0001C68FFF7D1FE78212846FFF7CDFE002229
:10C4E0000823CDE9003221461022E1E775292FD03B
:10C4F000782991D1D8F800100A1DC8F80020CDE99C
:10C500000047534610222CE0D8F800301A1DC8F816
:10C51000002019782846FFF7AFFE7DE70A230BF1CC
:10C52000010B92FBF3F295E7A345A9D220212846FF
:10C53000013CFFF7A1FEA0E77807AAD52B21A5E7CC
:10C54000A345B0D230212846013CFFF795FEA7E76E
:10C55000D8F80010CDE900470A1DC8F8002053465E
:10C560000A220968A4E7D8F800301A1DC8F800208C
:10C57000F907D3F8009012D54F46A7EB090B17F82F
:10C58000011B41B9A345BFF447AF20212846013C18
:10C59000FFF772FEF6E72846FFF76EFEEDE7B9F10A
:10C5A000000F17D048463FF0A5FC0746BC4200D913
:10C5B00054B909F1FF3919F8011F00293FF42CAFD4
:10C5C0002846FFF759FEF6E720212846013CFFF7F1
:10C5D00053FEEBE74F46E9E703B0BDE8F08F0000FC
:10C5E00007B50B46A0B9154B5B886BB1144B1548CA
:10C5F000154AC01A0E23C0080093144B00041449B6
:10C6000040F0010004F01AFF0E2003B05DF804FBB7
:10C610006BB90A4B5B88002BF6D0094B09480D4AD1
:10C62000C01AC0080E2300930004084BE7E703601C
:10C630001B68114603B05DF804EB1847E033002097
:10C64000600A0700280B070020D2060073D10600FD
:10C6500025D206009CD206002DE9F3419646B0B9DA
:10C66000504B5B88002B00F095804F4B4F48504A51
:10C67000C01AC0080E244F4B009400044E4940F0ED
:10C68000010004F0DBFE204602B0BDE8F0816AB98B
:10C69000444B5B88002B7DD0434B4448474AC01A2B
:10C6A000C0080E2400040094424BE7E7D0F800C015
:10C6B000BCF1000F0DD13B4B5B88002B6CD03A4B8B
:10C6C0003A483F4AC01AC008082400040094394B75
:10C6D000D4E76BB9334B5B88002B5FD0324B3348C8
:10C6E000384AC01AC008092400040094314BC5E739
:10C6F0004768D7F80480B3FBF8F708FB17376FB12A
:10C70000284B5B88002B49D0274B28482E4AC01A5B
:10C71000C008092400040094264BAFE78F070DD012
:10C72000204B5B88002B3BD01F4B2048274AC01A68
:10C73000C0081024000400941E4B9FE712F0030F62
:10C740000CD0184B5B885BB3174B1848204AC01AB3
:10C75000C008102400040094164B8FE7C768B94244
:10C760000BD34C1E05691C44AC4206D8DCF80C40C7
:10C77000A44602B0BDE8F04160470A4B5B887BB13C
:10C78000094B0A48134AC01AC00810240004009438
:10C79000084B73E70E2476E7082474E7092472E750
:10C7A000102470E7E0330020600A0700280B070020
:10C7B00020D2060085D1060025D20600A2D20600AE
:10C7C00096D2060055D20600A8D20600D2D20600A4
:10C7D000EAD206000DD30600F7B5A0B9374B5B8847
:10C7E000002B63D0364B3748374AC01AC0080E2496
:10C7F000364B00940004364940F0010004F01EFE60
:10C80000204603B0F0BDD0F800C0BCF1000F0DD140
:10C810002A4B5B88002B4BD0294B2A482D4AC01A43
:10C82000C008082400040094284BE4E76AB9234BAD
:10C830005B88002B3ED0224B2248274AC01AC008F2
:10C84000092400040094214BD5E74768D7F800E09D
:10C850000EF1FF370F420CD0184B5B8863B3184BB7
:10C8600018481E4AC01AC008102400040094174B30
:10C87000C1E7C768B9420CD34C1E05690EFB0244E0
:10C88000AC4206D8DCF81040A44603B0BDE8F04046
:10C8900060470A4B5B887BB1094B0A48104AC01AB3
:10C8A000C008102400040094084BA4E70E24A7E756
:10C8B0000824A5E70924A3E71024A1E7E03300201A
:10C8C000600A0700280B070020D2060098D1060056
:10C8D00025D2060096D2060055D20600ABD106003E
:10C8E000D1D1060029DF704728DF704770B5056891
:10C8F000AB6886B004460E4673B114220021684628
:10C900003EF097FEA36805932379019633B1012B7E
:10C910000ED0AB686846984706B070BD01238DF80D
:10C92000003023690293E368039363690493F0E79B
:10C9300002238DF80030E3681B030293F5E70846F5
:10C940007047002070470000024B187A003018BF73
:10C950000120704730470020034B187A0122B0FABB
:10C9600080F05A74400970473047002008B51046DF
:10C970001A463EF03AFE002008BD000008B5142219
:10C98000002104483EF055FE0348FFF72EF9002031
:10C9900008BD00BF30470020AC2B002010B5094C6B
:10C9A000094B43602046FFF72AFA40B904F018F813
:10C9B0001C2320748C2205490548FFF703F9002049
:10C9C00010BD00BF3047002044D30600A44600201D
:10C9D000AC2B002070B5244D244E2B7A2C463BB94D
:10C9E00023492448FFF75DF9306008B9686070BDDD
:10C9F0000223237233681A7972B1012A24D01846AF
:10CA00000321FFF773FF002323726360184919485D
:10CA1000BDE87040FFF770B9D3E90520121AB2F5EE
:10CA2000805F28BF4FF48052D3E903159208012A92
:10CA3000014438BF01222844FFF754FF50B11128A8
:10CA4000DDD101232372D2E7D3E903021044FFF7BB
:10CA50004BFFF3E7237C002BC9D10146BDE87040B2
:10CA6000022000F009B800BF3047002048470020EE
:10CA700044470020AC2B002038B5831E012B45D83D
:10CA8000234C237A002B41D0022B09D1032830D02C
:10CA9000204B00221B68E2601A793AB1012A22D0A9
:10CAA000637C7BBBBDE83840FFF794BFD3E9051238
:10CAB0008D1AB5F5805F94BF521902F580529A61C4
:10CAC0009142EDD102284FF0000308BF19462372AE
:10CAD000104B18BF0D211868FFF708FF0E490F48CB
