:020000040000FA
:1000000060480020F5040000FD0400001503000016
:1000100001050000030500000505000000000000C8
:1000200000000000000000000000000007050000C4
:1000300009050000000000000B0500000D05000090
:100040004D1000000F050000911300000F05000087
:100050000F0500000F050000710C00000F050000E7
:100060000F0500000F0500000F0500000F05000040
:100070000F0500000F0500000F0500000F05000030
:100080000F0500005D1000000F0500000F050000C7
:100090000F0500000F0500000F0500000F05000010
:1000A0000F0500000F0500000F0500000F05000000
:1000B0000F0500000F050000000000000000000018
:1000C0000F0500000F0500000F0500000F050000E0
:1000D0000F0500000F0500000F050000E9130000E8
:1000E0000F0500000F0500000F05000000000000D4
:1000F000000000000F050000000000000F050000D8
:1001000000000000000000000000000000000000EF
:1001100000000000000000000000000000000000DF
:1001200000000000000000000000000000000000CF
:1001300000000000000000000000000000000000BF
:1001400000000000000000000000000000000000AF
:10015000000000000000000000000000000000009F
:10016000000000000000000000000000000000008F
:10017000000000000000000000000000000000007F
:10018000000000000000000000000000000000006F
:10019000000000000000000000000000000000005F
:1001A000000000000000000000000000000000004F
:1001B000000000000000000000000000000000003F
:1001C000000000000000000000000000000000002F
:1001D000000000000000000000000000000000001F
:1001E000000000000000000000000000000000000F
:1001F00000000000000000000000000000000000FF
:10020000DFF80CD000F0E8FC00480047358C000017
:100210006048002030B4044654E8000F0D4644E81E
:100220000053002BF8D1156030BC704730B4044641
:1002300054E8000F40EA010544E80053002BF7D1D1
:10024000156030BC704730B4044654E8000F00EA33
:10025000010544E80053002BF7D1156030BC70470E
:1002600030B4044654E8000F80EA010544E8005326
:10027000002BF7D1156030BC704730B4044654E809
:10028000000F00EB010544E80053002BF7D1156087
:1002900030BC704730B4044654E8000FA0EB0105B1
:1002A00044E80053002BF7D1156030BC704770B4A0
:1002B00004464FF0000054E8006F0D68AE4207BFDF
:1002C00044E80023012044E800630E60002B1CBFBB
:1002D0000020F0E770BC704730B4044654E8000FCB
:1002E00088422CBF451A054644E80053002BF5D13F
:1002F000156030BC7047000000B583B002900091DB
:10030000019244F2010071466A4601F069FA03B0B5
:1003100000BD0000094B1EF0040F1CBFEFF3098065
:100320001847EFF308800649064A884201D89042F0
:1003300002D88D464FF0000018470000250E00003F
:10034000604800206028002030B450E8012F93B2AC
:10035000C48923448489A34228BF1B1B0489A34268
:1003600002BFBFF32F8F002007E0C3EA020340E87B
:100370000134002CE9D14FF001000A6030BC704715
:1003800050E8012FC2EA024240E801210029F7D1DA
:10039000704730B450E8022F1FFAA2F3C488A3427A
:1003A00002BFBFF32F8F00200DE0C489234484894E
:1003B000A34228BF1B1BC2EA034340E80234002CBF
:1003C000E8D14FF001000A6030BC704750E8022FBE
:1003D000C2EA224240E802210029F7D170470346D1
:1003E00053E8022FD988B2EB324F4FF0000017BF0D
:1003F00092B241EA014142EA014104E05A68B2EB9B
:10040000324F08BF012043E80212002AE8D17047AA
:1004100030B4044654E8000F0D4644E80053002B66
:10042000F8D1156030BC704730B4044654E8000F72
:1004300040EA010544E80053002BF7D1156030BCB9
:10044000704730B4044654E8000F00EA010544E860
:100450000053002BF7D1156030BC704730B4044610
:1004600054E8000F80EA010544E80053002BF7D15F
:10047000156030BC704730B4044654E8000F00EB00
:10048000010544E80053002BF7D1156030BC7047DC
:1004900030B4044654E8000FA0EB010544E80053D3
:1004A000002BF7D1156030BC704770B404464FF094
:1004B000000054E8006F0D68AE4207BF44E8002317
:1004C000012044E800630E60002B1CBF0020F0E711
:1004D00070BC704730B4044654E8000F88422CBF0B
:1004E000451A054644E80053002BF5D1156030BC91
:1004F000704700000648804706480047FEE7FEE7D1
:10050000FEE7FEE7FEE7FEE7FEE7FEE7FEE7FEE7C3
:10051000B5110000010200002DE9F05F0546002042
:1005200092469B4688460646814640241BE0284664
:1005300041464746224600F02FF853465A46C01A15
:10054000914110D311461846224600F016F82D1A94
:1005500067EB01084F4622460120002100F00DF80C
:1005600017EB00094E41201EA4F10104DFDC4846D0
:1005700031462A464346BDE8F09F202A04DB203A54
:1005800000FA02F1002070479140C2F1200320FAE6
:1005900003F3194390407047202A04DB203A21FAE4
:1005A00002F00021704721FA02F3D040C2F120028C
:1005B00091400843194670470048704714280100CD
:1005C000A0F14101192900D8203070472DE9FE43E0
:1005D000994615468846074601AC022942D3002DAC
:1005E00040D000200290A8F101004FF0FF360090AB
:1005F00022E000FB057201FB057011464A46904758
:10060000002805DC54F82600304444F8260013E0A6
:1006100060682A4600FB057154F8040C00FB057065
:1006200007E00B7890F800C001F801CB00F8013B1F
:10063000521E002AF5D1764254F8040C61688842B3
:10064000D7DC4B462A463846FFF7C0FF54F8040C67
:100650004B46A8EB0001401C00FB05702A46491ED2
:10066000FFF7B4FFBDE8FE8310B5431A934209D2E9
:100670008318881803E010F8011D03F8011D521EAD
:10068000F9D210BD40EA01039B0703D009E008C975
:10069000121F08C0042AFAD203E011F8013B00F847
:1006A000013B521EF9D210BDD2B201E000F8012B7D
:1006B000491EFBD270470022F6E710B513460A46E2
:1006C00004461946FFF7F0FF204610BD30B5054639
:1006D0002A460B4612F8010B13F8014B08B1A04251
:1006E000F8D01CB1002802D06D1CF1E7284630BDBF
:1006F000CAB2401E10F8011F8A4202D00029F9D167
:1007000000207047421C10F8011B0029FBD1801A01
:10071000704710B5002200E0521C835C8C5CA34241
:1007200001D1002BF8D1D8B2E1B2401A10BD034676
:1007300011F8012B00F8012B002AF9D11846704757
:1007400030B505460020034600E05B1C934205D20D
:10075000EC5CC85C201A01D1002CF6D130BD2DE92B
:10076000F04791460F4680460446002614F8015B88
:100770002DB1FFF721FF0068405DC007F6D12B2D9A
:1007800002D02D2D18D0641E4A463946204600F06E
:1007900077F927B13968A14201D1C7F80080710506
:1007A0004FF002040BD54042002803DD00F082FF29
:1007B0000460A007BDE8F08746F48066E4E70028FF
:1007C000F8DA00F077FF04606FF00040F2E72DE9FF
:1007D000FE4F804681EA0300C00F0C46009021F0D6
:1007E000004123F00045B8EB0200A94105D2404684
:1007F000214690461C460B46024623F0004010431B
:1008000047D0270DC7F30A00C3F30A510290401ADC
:10081000019040286BDAC3F3130040F4801B00986A
:10082000924620B10023D2EB030A63EB0B0B019835
:100830005946C0F140025046FFF79FFE06460D465E
:1008400050465946019A00F009F910EB0800614141
:10085000002487EA115284EAE7731A4340D0009AD1
:1008600062B3019A012A4FEA075215DC001B61EBC3
:1008700002014FF0004202EA0752CDE90042001C9B
:1008800041F5801132462B4600F058F903B0BDE81F
:10089000F08F40462146F9E7001B61EB0201001C86
:1008A00041F5801300185B412018A2F5001747EBB3
:1008B000030140EAD570B6196D4111E06D084FEAA9
:1008C000360645EAC0754FEA0752001B61EB02018C
:1008D000001C41F5801149084FEA300000195141D0
:1008E00032462B4603B0BDE8F04F00F018B900982F
:1008F000012240000023D0EB020263EBE07300987A
:1009000021464FEAE074B8EB000061EB0401E9E72F
:1009100083F000435BE781F0004158E72DE9F04D9B
:1009200081EA030404F0004B21F0004514464FF027
:10093000000A23F0004150EA050220D054EA0102E7
:100940001DD0C5F30A570246C5F31303C1F31300C4
:10095000C1F30A5640F4801543F48013A7EB060850
:10096000101BD64608F2FD3873EB050002D308F1E0
:10097000010801E092185B41B8F1000F03DA002092
:100980000146BDE8F08D00204FF4801106468446F4
:100990000EE0171B73EB050705D3121B63EB050372
:1009A00006434CEA010C49084FEA300092185B41BB
:1009B00050EA0107EDD152EA030012D082EA0400A6
:1009C00083EA0501084305D0101BAB4106D2012282
:1009D000002306E000224FF0004302E06FF0010226
:1009E00053101AEB06004CEB085110EB0A0041EBD8
:1009F0000B01BDE8F04D00F092B8000030B5041EC8
:100A000071F1000404DB4FF00044404264EB01014B
:100A1000141E73F1000405DB1C464FF000435242E4
:100A200063EB04038B4208BF824230BD30B5041E25
:100A300071F1000404DB4FF00044404264EB01011B
:100A4000141E73F1000405DB1C464FF000435242B4
:100A500063EB0403994208BF904230BD202A06DBB5
:100A6000CB17203A41FA02F043EAE07306E041FA7C
:100A700002F3D040C2F1200291400843194670476A
:100A80002DE9F05F82460078002715468B460AF173
:100A90000104B946302801D09DB113E014F8010BD0
:100AA0000127782803D0582801D045B10AE00DB1BC
:100AB000102D07D10027102514F8010B02E008259E
:100AC00000E00A250026B0460EE005FB080005FB05
:100AD00006F1012701EB10461FFA80F8B6F5803FBA
:100AE00000D3B94614F8010B294600F087F8002816
:100AF000EBDABBF1000F05D00FB1641E00E05446E5
:100B0000CBF80040B9F1000F06D000F0D3FD022170
:100B10000160C81EBDE8F09F48EA0640FAE710B53C
:100B2000141E73F1000408DA401C41F10001921810
:100B30005B411A4301D120F0010010BD2DE9F04DB9
:100B400092469B4611B1B1FA81F202E0B0FA80F20E
:100B500020329046FFF711FD04460F4640EA0A0096
:100B600041EA0B0153465A46084313D0114653EA53
:100B7000010019D0C8F140025046FFF70DFD0546AF
:100B80000E46504659464246FFF7F7FC084305D04B
:100B9000012004E020463946BDE8F08D00200543E1
:100BA00046EAE0762C4337430A986305E40AA0EB53
:100BB00008000022FD0A44EA47540A3002D500200A
:100BC0000146E9E7010510196941DDE90845001909
:100BD0006941BDE8F04DA2E7064C074D06E0E0682C
:100BE00040F0010394E8070098471034AC42F6D374
:100BF000FFF70AFBDC480100FC4801003A2800D25C
:100C0000303820F02002412A01D3A2F13700884277
:100C100001D34FF0FF30704770B58C1810F8015BAE
:100C200015F0070301D110F8013B2A1106D110F885
:100C3000012B03E010F8016B01F8016B5B1EF9D189
:100C40002B0705D40023521E0DD401F8013BFAE70F
:100C500010F8013BCB1A921C03E013F8015B01F87A
:100C6000015B521EF9D5A142D8D3002070BD00000F
:100C70002DE9F04F00268DB0DFF8A081B146049633
:100C80004FF4807501243746059628460AF01AFB72
:100C900038B1D8F80403204203D028460AF008FBF4
:100CA00026432D1D64007F1CADB2082FEDD34FF4F9
:100CB000BE7420460AF006FB48B120460AF0F8FA56
:100CC00046F0004604AA022100200AF0BBFA544C68
:100CD00016F0FF0F15D00127002537420DD008EB85
:100CE0008501D1F81005D1F81015C0F3052054F88E
:100CF0002520C1F3014102B190477F006D1C082DF2
:100D0000EBD3002E7EDA0020CDF82890411E0DF1A5
:100D1000100B07AACDF82C9042F82010401C9146E9
:100D20000228F9D300252E46A11911F8607F91F908
:100D3000000027F0C008401C40D007A9404608F03A
:100D400045FC40B34FEA971A404602F005FE54F8BE
:100D500020701FB1BAF1030F03D006E0BAF1030F00
:100D60002CD10AA9404608F039FC02A8CDF8088029
:100D70000AF0C4F9029900EB8100D0F8000704A939
:100D8000C0F301400290404608F020FC0028029881
:100D900002D0022802D011E003280FD1BAF1030FCC
:100DA00008D10298022833D0022140460AF08EF979
:100DB0006D1CEDB217B151464046B847761C042E63
:100DC000B2D3002D21D001AA022100200AF03AFA64
:100DD00000205A460DF1040152F8206051F82030ED
:100DE000B34217D000200AAE4FEA090351F8207031
:100DF00042F8207056F8207043F82070401C0228FA
:100E0000F4D300E001E0002D8CD10DB0BDE8F08FEF
:100E10000321CAE7401C0228DED3F6E70060004049
:100E2000C81700201CB582460AF0D0FF0AF048FD22
:100E30000028FBD139485FEA0A05076839483A4972
:100E4000374EA0EB01004FEAD0004FF0010808EB4D
:100E5000004470881ED0002821D0204633A1AA6902
:100E60000AF068FE7088002819D0D5E90201CDE9A2
:100E70000001D5E90023204632A10AF073FE7088F4
:100E800068B1E8690090D5E9042320463BA10AF047
:100E900060FE04E018B1204642A10AF047FE1F4858
:100EA000001D0068800705D5708818B120464A49A2
:100EB0000AF03CFEDFF82491002500BF08FA05F097
:100EC000384208D059F825202AB1708818B1204638
:100ED00043A10AF02FFE6D1C1A2DEFD3380608D55A
:100EE000708830B10D480C30026820463FA10AF0EE
:100EF00021FE380408D5708830B1084810300268E7
:100F0000204642A10AF016FE0448C8300068C00717
:100F100000D000BE504600F087F8000028ED00E049
:100F2000BC040020DC4A0100F4490100484152445D
:100F3000204641554C542061742030782530385873
:100F400000000000202052303A2020307825303830
:100F500058202052313A202030782530385820202F
:100F600052323A2020307825303858202052333AF7
:100F700020203078253038580000000020205231E1
:100F8000323A2030782530385820204C523A2020F0
:100F900030782530385820205053523A2030782568
:100FA00030385800537461636B2076696F6C6174DC
:100FB000696F6E3A20737461636B20706F696E7431
:100FC0006572206F75747369646520737461636BF7
:100FD00020617265612E0000443301008802002008
:100FE00043617573653A2025732E00004D656D4D84
:100FF000616E616765204661756C7420416464723E
:101000006573733A20307825303858004275732064
:101010004661756C7420416464726573733A203064
:101020007825303858000000BFF34F8F054801681D
:10103000054A01F4E06111430160BFF34F8F00BF27
:10104000FDE700000CED00E00400FA0510B50CF01F
:10105000A1FABDE810400CF0C7B9000002490248EF
:10106000091F0968006808473C020020044900EB9A
:10107000400001EBC000416D806D081A7047000010
:10108000D825002000F060BA70B5064614460D461B
:10109000002001F0FDFD22462946304600F006F80A
:1010A0000446002001F022FE204670BD2DE9F047E5
:1010B0001B4D0746164628780C4608B900F044FA3E
:1010C00007EB470005EBC007A046D7E915950024BC
:1010D00048374D4511D9B868441BB44200D3344653
:1010E0007868224641194046FFF7BEFAB868361BB9
:1010F0002544A044A84200D10025A9EB0500B04238
:1011000000D206463EB17868324641194046FFF7A4
:10111000ABFA3444354404B13D612046BDE8F08764
:10112000D825002070B50B4B0646144618780D469E
:1011300008B900F009FA002001F0AAFD224629466C
:10114000304600F009F80446002001F0CFFD2046AB
:1011500070BD0000D825002070B50E46144900EB84
:10116000400001EBC0051446E86A183520B101289B
:101170000FD0022805D113E0284600F019FAA0424A
:1011800001D2002411E022463146284600F05DFAE3
:101190000BE0284600F00CFAA042F4D20446F2E735
:1011A0003146284600F024FA0446204670BD00006F
:1011B000D825002030B54FF0805000228300D0F8B1
:1011C0003011C3F80C21C3F81021624B1A60624B36
:1011D0001B68624C2360604B1B1D1B68241D236031
:1011E0005D4B08331B68241D23605B4B0C331B686D
:1011F000241D2360584B10331B68241D2360564B5D
:1012000014331B68241D2360534B18331B68534C45
:1012100020342360504B1C331B68241D23604E4B2D
:1012200020331B68241D23604B4B24331B68241D73
:101230002360494B28331B68241D2360464B2C3305
:101240001B68241D2360444B30331B68434C4034DF
:101250002360414B34331B68241D23603E4B3833DD
:101260001B68241D23603C4B3C331B68241D2360FA
:10127000394B40331B68241D23600123082902D108
:10128000D0F8344114B1082904D006E0354C344973
:10129000216005E0D0F8344114B1082904D006E0FB
:1012A000314CFB21216005E0D0F8344114B108290C
:1012B00008D00EE090F858422C48016864F303010E
:1012C000016002E0D0F834411CB929494FF40070A4
:1012D000086028480168C90702D06FF00101016069
:1012E0002548016841F470010160BFF34F8FBFF3DF
:1012F0006F8F4FF01021D1F80002002803DBD1F8E6
:101300000402002822DA1D4C23601D480368002BCC
:10131000FCD01223C1F800320568002DFCD0C1F8C2
:10132000043201680029FCD0226001680029FCD049
:10133000BFF34F8F10487C380168124A01F4E06116
:1013400011430160BFF34F8F00BFFDE70F490E4807
:10135000086030BD380500400404001020C500407E
:10136000488103008C56004018F50040E40E004010
:10137000409602400004004088ED00E004E5014092
:1013800000E401400400FA050090D003CC030020E3
:1013900010B5054C206818B904A12B2001F05CFDA4
:1013A0002068BDE810400047900100202E2E5C2EE2
:1013B0002E5C2E2E5C2E2E5C2E2E5C2E2E5C6D6FE7
:1013C00064756C65735C6E7266785C647269766570
:1013D00072735C7372635C7072735C6E7266785F5A
:1013E0007072732E630000002DE9F05F5248D0F850
:1013F000045300242E464FF001090FE096FAA6F0A0
:10140000B0FA80F7B80000F580700BF0F1FE10B173
:1014100009FA07F0044309FA07F08643002EEDD1DC
:101420000DF0B1FA002869D0444AD078F0BBA00290
:1014300064D5434940F2A978C1F80080081D0368CB
:1014400013F0FF0C02D0036803EA0C0C40F2AA7AF6
:10145000C1F800A0036813F0FF0301D00668334011
:1014600040F2AB7BC1F800B0066816F0FF0601D071
:1014700007683E4040F2AC770F60076817EA0C0738
:1014800009D0D2F810C04CEA070CC2F810C0C1F85D
:1014900000800760076840F2AD770F6007681F4063
:1014A00009D0136943EA0743136100E026E0C1F85D
:1014B00000A00760036840F2AE730B60036833401E
:1014C0000BD0DE0701D044F40004DE0601D544F061
:1014D0000104C1F800B003600068106930F0011128
:1014E00002D005F080710C4310F0011F06D0690591
:1014F00004D520F0011044F480641061C4F3C05698
:1015000024F400044F46DFF83C8009E094FAA4F08C
:10151000B0FA80F558F82500804707FA05F08443B3
:10152000002CF3D10FF082FF002E03D0BDE8F05F56
:1015300005F014BDBDE8F09F007002409801002046
:1015400000780240541E010010B5124C02202061A8
:10155000606111A0A06104F17800E0614FF40070B7
:1015600020620020A06260620BA1A164E06204F529
:101570001E71E1641021A065C4E91410E06509A1A1
:10158000E01DFFF7D4F808A12046FFF7D0F820208F
:10159000A07110BDD82500205465726D696E616C14
:1015A0000000000052545400534547474552000084
:1015B0000269C1688A4203D88068401A104400E07A
:1015C000501A401E70470000C11700EBD161074B55
:1015D0004A1153F8222021F01F01411A01208840AE
:1015E000024201D0012070470020704700E100E076
:1015F0002DE9F047C4681746894606464FF00008B3
:101600003069A04201D9051B02E0B168201A0D1A09
:10161000B0686D1E001BA84200D80546BD4200D32D
:101620003D4670682A4620444946FFF71DF8B068D9
:101630007F1B2C44A844A944A04200D10024F4609C
:10164000002FDDD14046BDE8F0872DE9F04104468A
:101650008846D4E90207C51BE1686068164608445D
:10166000B54206D94146FEF7FFFFB819E060BDE874
:10167000F0812A464146FEF7F7FF761B08EB05018D
:1016800032466068FEF7F0FFE660F0E70FB4084B03
:1016900010B504A902AA039800F01FF8044602A995
:1016A000002000F085F8204610BC5DF814FB000017
:1016B000B117000000487047D003002002E008C8BE
:1016C000121F08C1002AFAD170477047002001E0BC
:1016D00001C1121F002AFBD170472DE9F84F99462E
:1016E000924688460546002706E025280AD051463E
:1016F0004A4690476D1C7F1C28780028F5D1384653
:10170000BDE8F88F002315F8011F18462E2915D1C2
:1017100015F8011F04232A290DD06FF02F02297814
:10172000A1F13004092C09D800EB800002EB400045
:1017300008446D1CF3E758F8040B6D1C2A78002A46
:10174000DDD0632A07D0732A0FD0104651464A468F
:1017500090477F1C2AE018F8042B8DF80020002108
:101760008DF801106E46012103E058F8046B4FF02C
:10177000FF315A074FF0000401D409E0641C844291
:101780000BDA8C42FADB325D002AF7D105E0641CEB
:101790008C42FCDB305D0028F9D1274404E016F8C8
:1017A000010B51464A469047641EF8D26D1CA3E7D0
:1017B0000A68531C0B6010707047800701D000202E
:1017C000704701207047C3688B4206D811440069F6
:1017D000491E814201D80120704700207047000057
:1017E0002DE9FE4314460F46804672B60AF0EEFA23
:1017F0000AF066F80028FBD12448254A6FF480419E
:10180000A0EB0200204E4FEAD0004FF0010218EB8F
:10181000010102EB00451ED07088012912D020B1D1
:1018200028463A461BA10AF085F920480068C007FF
:1018300000D000BE224603B039464046BDE8F04322
:1018400000F062B80028F0D02388284618A162680A
:101850000AF077F9E9E770880028E6D0A0680BF075
:10186000C7FA0346D4E90001CDE9001002972846E3
:1018700016A1A2680AF080F970880028D5D0284601
:101880001CA10AF053F9D0E7E0040020244B01002A
:10189000F4490100554E4B4E4F574E204641554C92
:1018A000542061742030782530385800F0ED00E085
:1018B000415353455254494F4E204641494C4544AB
:1018C0002061742025733A25750000004552524F5F
:1018D00052202575205B25735D2061742025733AA5
:1018E00025750D0A50432061743A20307825303830
:1018F00078000000456E64206F66206572726F721A
:10190000207265706F72740008B501238DF8003085
:101910009DF80030144B186059609A606FF4804154
:10192000401807D001280FD1DA60D8680088986184
:10193000D86807E01A6118698068586118690068FA
:10194000986118694068D861186858689868D868BC
:10195000186958699869D86972B600BF9DF8000087
:101960000028FBD162B608BDBC1A0020014804F073
:101970005BBF0000B801002070B514460E4605009C
:1019800004D10BA14FF4027001F066FA3CB1286853
:10199000012E44610AD000210161002070BD04A124
:1019A00040F2092001F058FA072070BD0121F3E749
:1019B0002E2E5C2E2E5C2E2E5C2E2E5C2E2E5C2E61
:1019C0002E5C636F6D706F6E656E74735C6C6962B4
:1019D0007261726965735C74696D65725C61707067
:1019E0005F74696D6572322E6300000038B511486E
:1019F00008235822416800910F49006807F0DDFB79
:101A0000002815D10D4A69460D4804F011FF040065
:101A10000ED101210A4805F000F80123094A1946B0
:101A2000074804F0B7FE064901200839087020462F
:101A300038BD0000F01E0100DC1A002015FB00007C
:101A4000B8010020FFFF7F0070B516460D46040068
:101A500004D10DA14FF4067001F0FEF994F82000B6
:101A600008B1002070BDA66106F036FA401941F1B8
:101A70000001C4E90201206900B125612146BDE8E9
:101A8000704000200FF0B0B82E2E5C2E2E5C2E2E53
:101A90005C2E2E5C2E2E5C2E2E5C636F6D706F6E36
:101AA000656E74735C6C69627261726965735C7493
:101AB000696D65725C6170705F74696D6572322EFC
:101AC0006300000010B5040004D107A140F22E20ED
:101AD00001F0C2F90020214684F82000BDE8104042
:101AE00001200FF081B800002E2E5C2E2E5C2E2ED1
:101AF0005C2E2E5C2E2E5C2E2E5C636F6D706F6ED6
:101B0000656E74735C6C69627261726965735C7432
:101B1000696D65725C6170705F74696D6572322E9B
:101B20006300000070B505460648446807E0294692
:101B3000204602F08BF8204600F02AFA0446002CDA
:101B4000F5D170BDE801002070B50A4845680EE087
:101B50002E7A002405E02146284600F063FE641C2E
:101B6000E4B2B442F7D3284600F012FA0546002D3D
:101B7000EED170BDE80100202DE9F0410E4840F2A1
:101B80004477456814E02E7A00240BE000222146B9
:101B9000284600F0ABFE18B108A1384601F05CF908
:101BA000641CE4B2B442F1D3284600F0F1F90546D2
:101BB000002DE8D1BDE8F081E80100202E2E5C2E3A
:101BC0002E5C2E2E5C2E2E5C2E2E5C2E2E5C636FD9
:101BD0006D706F6E656E74735C6C69627261726950
:101BE00065735C757362645C6170705F7573626469
:101BF0002E63000070B506460948062544680AE0D1
:101C00003146204602F022F80546062805D1204636
:101C100000F0BEF90446002CF2D1284670BD000049
:101C2000E80100202DE9FC4115460F00064604D1CD
:101C30001E4940F2FB3001F00FF9304601F0C2F9C5
:101C40000446007DC00715D0002001F021F8E06EA9
:101C500098B1A84200D805462A463846A16EFEF73C
:101C600003FDE06E401BE066A06E65672844A06639
:101C7000002405E00820BDE8FC81A06928B11124FA
:101C8000002001F033F82046F5E7C4E90675304638
:101C900004F019FD06498969CDE90014694600F090
:101CA000C3FB0400ECD19224EAE7000010310100EC
:101CB000581F010010B501F085F9406F10BD0000FC
:101CC000FEB515460E46044601F07CF9007D10F085
:101CD000010F0CD0204604F0EDFCA90609D000212C
:101CE0000096CDE90151694600F0EAFBFEBD0820EF
:101CF000FEBD0149896AF3E7581F0100F8B50400E9
:101D000004D138A140F2445001F0A6F8606820B92F
:101D100034A140F2455001F09FF86068006820B996
:101D200030A140F2465001F097F82068006820B1D9
:101D30002CA140F2475001F08FF80CF0EBFF10B9E6
:101D40000CF0F2FF20B927A140F24B5001F084F8CB
:101D500000250FE0002705E0007800F079FB08B1CE
:101D60001120F8BD3946781CC7B2304600F0C0F8E3
:101D70000028F1D12946681CC5B2204600F0E0F8E1
:101D80000600E7D100250DE0002703E0007821469A
:101D900000F064FB3946781CC7B2304600F0A8F862
:101DA0000028F3D12946681CC5B2204600F0C8F8C7
:101DB0000600E9D1194D40F2715607E0A04203D167
:101DC00008A1304601F048F828680568286800280E
:101DD000F4D113482C60694680690090204601F0D8
:101DE00035FFF8BD2E2E5C2E2E5C2E2E5C2E2E5C2A
:101DF0002E2E5C2E2E5C636F6D706F6E656E74732D
:101E00005C6C69627261726965735C757362645C53
:101E10006170705F757362642E630000EC010020D6
:101E2000041F01002DE9F04F87B04FF000081D4658
:101E3000934689460446DDF840A04646CDF80C801E
:101E400000E0761C6068012300224768214603A851
:101E5000B8470028F5D140468DF800800027B846E5
:101E600001903BE0606801236A46D0F804C0214637
:101E700001A8E0476068012305AAD0F804C0214604
:101E800001A8E0479DF8141049451AD1D84514D14E
:101E90009DF80000CAF8000005F8010B6A1C85F8DF
:101EA000009060689DF800302146456801A89B1E9F
:101EB000A847002007B0BDE8F08F08F1010000F04E
:101EC000FF0860689DF800300022D0F804C0214669
:101ED00001A89B1EE0479DF800000744B742C1D30C
:101EE0000520E7E70148406870470000E80100204E
:101EF00070B50D46040004D1064940F21D1000F0F3
:101F0000ABFF6078A84201D8002070BDA0782044C3
:101F1000284470BDCC30010070B50D46040004D1DA
:101F2000064940F21D1000F097FF6078A84201D8E2
:101F3000002070BDA0782044284470BDCC30010042
:101F400070B50D46040003D10649EA2000F084FF75
:101F5000207AA84201D8002070BD05EB4500093465
:101F6000204470BDCC30010070B50D46040003D193
:101F70000649EA2000F070FF207AA84201D800202C
:101F800070BD05EB45000934204470BDCC30010024
:101F900010B5040004D1044940F21D2000F05CFF9C
:101FA0002068006810BD00008C27000010B50400F8
:101FB00004D104A140F21D2000F04EFF206800680B
:101FC00010BD00002E2E5C2E2E5C2E2E5C2E2E5C64
:101FD0002E2E5C2E2E5C636F6D706F6E656E74734B
:101FE0005C6C69627261726965735C757362645C72
:101FF0006170705F757362642E68000002484078FB
:10200000002800D001207047E801002010B5002012
:1020100000F0F6F9BDE81040802000F0F1B910B5ED
:10202000002000F0EFF9BDE81040802000F0EAB990
:102030002DE9F0414B4E0D460246097806243078D2
:102040000B2934D009DC4FF0010707296DD2DFE8F6
:1020500001F06C0D0F116C2951000C292FD00D29A6
:1020600036D00E293DD085295FD115E0032016E03A
:1020700000245AE03B48001D07F0E1F828B13A4837
:102080000760BFF36F8FBFF34F8F30780028EFD119
:1020900036A140F212400FE0032846D104200FF091
:1020A000CBF842E0104600F09BF804463DE00028E3
:1020B000DED02EA140F2264000F0CEFED8E7012867
:1020C00004D02AA140F22C4000F0C6FE002005E01A
:1020D0003548006810F0010F0AD002200FF0ACF86C
:1020E000C6E7022804D221A14FF4886000F0B4FEB4
:1020F0000120F3E7E878032817D0A87830B18028CA
:1021000004D01AA140F24E4000F0A6FE1549E8782E
:1021100008310A6832B100230B6049689047040017
:1021200006D000E00E240CF059FE2046BDE8F081F8
:102130000FF07AF828B1A8780028F6D10CF011FE3B
:10214000F3E70CF043FC48B10CF040FC0028ECD065
:102150004FF08050D0F834010028E6D00CF0FEFD9E
:10216000E3E700000C0200205C7002402E2E5C2E83
:102170002E5C2E2E5C2E2E5C2E2E5C2E2E5C636F23
:102180006D706F6E656E74735C6C6962726172699A
:1021900065735C757362645C6170705F75736264B3
:1021A0005F636F72652E630038040040024A014687
:1021B000D2E90002104700007C1B002070B50C46DD
:1021C00005460CF0C5FDA84201D0102070BD0348A3
:1021D000D4E90012C0E90212002070BD0C020020F8
:1021E0007FB5054605208DF8000006240DF101009D
:1021F0000CF0CCFD0FF018F82949002008609DF87C
:10220000010010F01F0006D001280FD0022826D0B0
:10221000032833D106E0694628460DF0ADFF044699
:1022200006282AD16846FFF7E5FC25E09DF8050061
:1022300003A900F037FB050008D06A469DF80C1092
:1022400000F0ECFA0446062802D016E0102415E04F
:102250006A469DF80C1028460EF0E0F80CE09DF858
:102260000500010705D0694600F080F804460628FD
:1022700003D168460EF022F8044624B10CF0AEFDFE
:1022800004B0204670BD0EF0CFFF30B10CF060FD01
:102290000028F5D10CF065FDF2E70CF05FFDEFE7EB
:1022A00014020020FEB5C08814460E46A04201D29A
:1022B000054600E01546844207D280200CF0B0F9B4
:1022C000B4FBF0F100FB114068B100200096CDE9AD
:1022D0000150002000F0DCFC6946802000F0F0F89E
:1022E000040002D006E00120F0E705498020FFF756
:1022F00065FF0446002000F0F9FC2046FEBD00000A
:10230000941F010008B1402101600148704700009E
:10231000D01B002010B50CF00FFD20B104A140F23D
:10232000AB3000F099FDBDE810400BF075BF000028
:102330002E2E5C2E2E5C2E2E5C2E2E5C2E2E5C2ED7
:102340002E5C636F6D706F6E656E74735C6C69622A
:102350007261726965735C757362645C6170705FF1
:10236000757362642E6300000BF094BF10B50C46C9
:10237000010600F00F02092A08D200F009F80068EF
:1023800020B12146BDE8104001F060BC102010BD16
:1023900010B5010600F00F0408D5092C04D309A1DB
:1023A0004FF4B97000F058FD144808E0092C04D32C
:1023B00004A14FF4BC7000F04FFD1048483000EB12
:1023C000C40010BD2E2E5C2E2E5C2E2E5C2E2E5C9C
:1023D0002E2E5C2E2E5C636F6D706F6E656E747347
:1023E0005C6C69627261726965735C757362645C6E
:1023F0006170705F757362642E630000341B00208F
:102400000CF00AB810B5044600F00F00082805D2F9
:1024100020460CF031F820460CF086F92046BDE845
:1024200010400CF04DB8000070B50C4605460CF09D
:1024300097F818B105480078022801D0082070BD2F
:1024400021462846BDE870400CF092B8E801002013
:1024500010B5FFF79DFF006810BD000070B50D4678
:102460000646FFF795FF0446056015B168680068E9
:1024700008E00EB1802E04D103A14FF4CE7000F01D
:10248000EBFC0020606070BD2E2E5C2E2E5C2E2E8C
:102490005C2E2E5C2E2E5C2E2E5C636F6D706F6E2C
:1024A000656E74735C6C69627261726965735C7588
:1024B0007362645C6170705F757362642E630000A8
:1024C00070B50C4605460CF04BF818B1054800787D
:1024D000022801D0082070BD21462846BDE8704082
:1024E0000CF0B6B9E8010020017805290BD10749A5
:1024F0000968064AC9B2121F126812F0FF0F02D112
:10250000052900D10248034909680847847402403C
:10251000221F0100C41B002070B58B4C054660686B
:1025200020B98AA140F2FF3000F096FC03F03DFF95
:10253000062804D285A140F2064000F08DFC2878E0
:10254000092877D008DC092818D2DFE800F0749455
:10255000C39DB0CCD117F40082282DD008DC0A2806
:10256000EFD00F28EDD0802841D0812806D10CE093
:10257000832847D084284ED0852872D0BDE870408B
:1025800072A14FF4A06000F067BC7E48FFF70EFE1A
:102590007C48FFF7C7FA0D200FF056F9FFF7D4FA81
:1025A000FFF734FDA06810B97748007A00B1012028
:1025B0000CF018FC012089E0FFF7C6FA0CF062FC71
:1025C00000200EF0D7F86F48401CFFF7ABFA6D48BB
:1025D000401CFFF7EBFD0E200FF036F9207800F0DD
:1025E0003DFB002846D0BDE8704007F093BF20783F
:1025F000052803D0062803D007283BD1022065E038
:10260000082063E02078032834D10CF083FC0028F4
:1026100030D004205AE02078032805D10CF07AFC51
:1026200010B104200EF0A6F80CF054FD002821D0C3
:1026300006204BE080E02078032801D0082803D151
:102640005048801CFFF768FF00200FF0FDF8A468D9
:1026500040F239260CE02946204601F0F7FA2CB961
:1026600000E040E049A1304600F0F6FB20684468F5
:10267000002CF0D170BDFFF767FAFFF7D0FC022005
:102680000EF078F8012006E02078082809D005200F
:102690000EF070F803200FF0D7F82846FFF786FDFC
:1026A0004CE002200EF066F80CF0CCFAF2E70320C2
:1026B0000FF0CAF83348C01CFFF778FD3148C01C42
:1026C000FFF730FA2078062898D10720BDE870403F
:1026D0000EF050B803200EF04DF802200FF0B4F8C1
:1026E0002846FFF71FFA2846BDE87040FFF75EBD99
:1026F000A878FFF74DFE0446006820B913A140F208
:10270000DC4000F0A9FB606820B910A140F2DD4078
:1027100000F0A2FBD4E90002294690470028A9D086
:10272000A8780107A6D000F00F010829A2D2BDE8C1
:1027300070400BF0C7BF08200FF086F82846BDE8B0
:102740007040FFF7EFB90000E80100202E2E5C2E4C
:102750002E5C2E2E5C2E2E5C2E2E5C2E2E5C636F3D
:102760006D706F6E656E74735C6C696272617269B4
:1027700065735C757362645C6170705F75736264CD
:102780002E630000151F0100C41B00202E2E5C2E9E
:102790002E5C2E2E5C2E2E5C2E2E5C2E2E5C636FFD
:1027A0006D706F6E656E74735C6C69627261726974
:1027B00065735C757362645C6170705F757362648D
:1027C0002E680000FFF790BE10B520B104A140F2C2
:1027D000552000F041FBBDE810400F48FFF784BED4
:1027E0002E2E5C2E2E5C2E2E5C2E2E5C2E2E5C2E23
:1027F0002E5C636F6D706F6E656E74735C6C696276
:102800007261726965735C757362645C6170705F3C
:10281000757362642E630000041F0100114601F00D
:1028200015BA000070B5044640680D46C2680AB18A
:1028300020469047207AA84204D20CA140F2F22010
:1028400000F00AFB29462046FFF77AFB054646784A
:10285000002408E021462846FFF74AFB00780BF0E9
:10286000DBFD641CE4B2B442F4D370BD2E2E5C2EAA
:102870002E5C2E2E5C2E2E5C2E2E5C2E2E5C636F1C
:102880006D706F6E656E74735C6C69627261726993
:1028900065735C757362645C6170705F75736264AC
:1028A0002E6300002DE9F04180460F480E46456832
:1028B00016E02F7A00240DE021462846FFF740FB62
:1028C0000178414504D106B134702846BDE8F08155
:1028D000641CE4B2BC42EFD32846FFF759FB05461F
:1028E000002DE6D10020F1E7E801002070B5044694
:1028F000406815460E4683681BB120469847062857
:1029000009D1207AB04204D20E4940F2D32000F01F
:10291000A3FA0DB1072070BD31462046FFF710FB2A
:1029200005464678002408E021462846FFF7E0FAED
:102930000078FFF767FD641CE4B2B442F4D30020D2
:1029400070BD00006C280000034600205A68126920
:10295000002A01D018461047704700002DE9F843BF
:10296000044607F085FE20B92FA140F20B3000F09D
:1029700073FA3B480CF06CF9002850D139490870C3
:102980004860886048213848FDF795FE3648482160
:102990004830FDF790FE3448344D80304CB194E817
:1029A0000E00103080E80E002F489030016821B1F1
:1029B00005E005F134010EC9F3E72D49016000205F
:1029C00007F0ACFE30B1852804D017A240F23931AF
:1029D000FDF792FC274E00240DE0002703E000786D
:1029E0003146FFF73BFD3946781CC7B24046FFF73A
:1029F0007FFA0028F3D12146641CE4B23046FFF789
:102A00009FFA5FEA0008E8D168680090694630469E
:102A100001F01CF9040004D00CF030FB2046BDE8A6
:102A2000F8830020FBE700002E2E5C2E2E5C2E2E5D
:102A30005C2E2E5C2E2E5C2E2E5C636F6D706F6E86
:102A4000656E74735C6C69627261726965735C75E2
:102A50007362645C6170705F757362642E63000002
:102A6000C5270000E8010020341B0020041F0100DE
:102A700019250000D41F010040B1012808D0022808
:102A800009D007A14FF40F7000F0E6B9124804E036
:102A90001148001D01E010480830FFF725BD000077
:102AA0002E2E5C2E2E5C2E2E5C2E2E5C2E2E5C2E60
:102AB0002E5C636F6D706F6E656E74735C6C6962B3
:102AC0007261726965735C757362645C6170705F7A
:102AD000757362642E630000261F010010B50CF0B0
:102AE00023F910B10CF016F908B1082010BD054803
:102AF00007F028FE20B104A24FF46771FDF7FCFB3C
:102B0000002010BD341F01002E2E5C2E2E5C2E2EB8
:102B10005C2E2E5C2E2E5C2E2E5C636F6D706F6EA5
:102B2000656E74735C6C69627261726965735C7501
:102B30007362645C6170705F757362642E63000021
:102B40002DE9F0410D46164901EB800757F82500A5
:102B5000017849B10020FFF7D5FB57F8255006460C
:102B60000024287848B911E0801CBDE8F0811F2CB2
:102B700003D30C49C02000F06FF9641CE4B215F8CF
:102B8000010B26F8140028780028F0D1022000EB71
:102B90004400C0B240F4407030803046E5E70000A9
:102BA0001C0200206031010010B50CF0B3F820B910
:102BB00009A140F2B23000F04FF915480168C1F3A5
:102BC000400121B1BDE810401248FFF78DBC0168FB
:102BD00011F0010FF2D110BD2E2E5C2E2E5C2E2E88
:102BE0005C2E2E5C2E2E5C2E2E5C636F6D706F6ED5
:102BF000656E74735C6C69627261726965735C7531
:102C00007362645C6170705F757362642E63000050
:102C100038040040091F0100034808B5806800908F
:102C20006846FFF761FC08BD041F01004FF000017A
:102C300050B106280BD2074A105C002808D0064A7B
:102C400052F820201AB100E00020FFF779BF0020E1
:102C5000704700003C2001001C020020092808D217
:102C6000DFE800F007070507070505050500012057
:102C7000704700207047092808D2DFE800F00707F6
:102C80000507070707070500012070470020704768
:102C900010B50CF091FC012803D004A11D2000F018
:102CA000DBF8BDE8104000F04FB800002E2E5C2E7F
:102CB0002E5C2E2E5C2E2E5C2E2E5C2E2E5C636FD8
:102CC0006D706F6E656E74735C6C6962726172694F
:102CD00065735C7574696C5C6170705F7574696C48
:102CE0005F706C6174666F726D2E630010B50CF0CE
:102CF00063FC012803D004A12B2000F0ADF8BDE84F
:102D0000104000F029B800002E2E5C2E2E5C2E2ED6
:102D10005C2E2E5C2E2E5C2E2E5C636F6D706F6EA3
:102D2000656E74735C6C69627261726965735C75FF
:102D300074696C5C6170705F7574696C5F706C61F4
:102D400074666F726D2E630072B602480168491C8A
:102D5000016070473402002003490868401E086083
:102D600000D162B6704700003402002070B50546FD
:102D700008680C46411C04D008F050FA206808F09E
:102D800091F96068411C02D0002108F079F92968A6
:102D9000A069C1F82405607D227D29681043C1F82F
:102DA0006C05D4E900122868C0F81425C0F80C1589
:102DB000207D012814D1A068411C02D0002108F018
:102DC0005FF9E068411C04D008F028FAE06808F0D8
:102DD00069F9D4E902122868C0F80825C0F810156E
:102DE00070BD70B5054608680C46411C04D008F05B
:102DF0001FFA206808F060F96068411C02D00021C9
:102E000008F047F92968A069C1F82405607D217D93
:102E10002A680843C2F86C05D4E900122868C0F893
:102E20000C15C0F81425207D012814D1A068411C80
:102E300002D0002108F02DF9E068411C04D008F010
:102E4000F7F9E06808F038F9D4E902122868C0F808
:102E50000825C0F8101570BD1CB56A46ADF8000015
:102E60000191002144F20200FEF7BAFC1CBD0000F3
:102E7000F0B500220D4BCA60C1E901230C4B0D4D8A
:102E80001446EE1A0A600CE003EB0215EF683F7976
:102E9000FF2F05D0A04202D1A8680860F0BD641CD5
:102EA000521CB2EB161FEFD3F0BD0000202601002C
:102EB00094490100F4490100102802D31038C0B22F
:102EC000704740F0800070472DE9F0470546C61C6A
:102ED00090460F464FF001090020FFF7D9FE1B4C2A
:102EE00020683860D4E90001401AA16804F21C4748
:102EF000081A0EE00121384606F0AAF905F0A4FDF3
:102F00000146384606F0A4F9D4E90001401AA16848
:102F1000081A401C8642EDD8B8F1000F03D00520F6
:102F200065F3891002E0062065F39F50A2682168CE
:102F3000114004EB8101C86020683044206000200B
:102F4000FFF7D4FE4846BDE8F0870000B42100201A
:102F500070B50D4604460A2902D10D21FFF7F8FF8E
:102F6000A0682268411CA1601554D4E90101814286
:102F700004D32046BDE8704007F0B4BC70BD00002B
:102F8000034803C8814201D10120704700207047E7
:102F9000B42100204360CA699A420DD38A69026055
:102FA000886918448861086F18440867C869C01A9E
:102FB000C86100D00120704701F1280202600020A2
:102FC0008B67704710B5040003D106493920FFF71D
:102FD00043FF206818B903493A20FFF73DFF2068F6
:102FE0000C3010BD1031010070B50C46060004D144
:102FF000254940F2B720FFF72FFF24B922494FF4AB
:103000002E70FFF729FF207800250F2838D2DFE83F
:1030100000F038083838370C11373732373838383D
:103020003800304600F0DBFB2BE0214630460DF047
:103030008FF90FE0304603F08EF80146A0780025A6
:1030400081421ED00106E1784FF0030004D531B96A
:1030500001210CE0054614E021B1012911D003291A
:10306000F8D10EE0304600F0CBFB0546002130469B
:103070000EF0DCFB05E0032130460EF0D7FBD0E775
:103080000625284670BD0000103101002DE9FF5FC4
:1030900005460198DFF8F4931F46017A89F800107D
:1030A0001646019800F044FB804625B9F84940F2E5
:1030B000EB20FFF7D1FE29684FF0000A40F22132E1
:1030C0005446A1F221304FF0020B914276D04ADCF7
:1030D00040F20332A1F20330914270D027DC40F27B
:1030E000F320A1F2F32281426AD013DC4FF43C7248
:1030F00091426ED007DCE9B3A1F50071EE3971D0D1
:10310000012960D17FE0A1F50071F13976D0012964
:1031100059D19EE0092A72D004DC012A70D0022A1B
:1031200051D1BAE00A2A6CD00F2A4CD1E0E00E2827
:1031300068D00EDC072865D006DC01286FD0052892
:103140006ED006283FD119E10C286AD00D283AD15B
:103150003BE11538092836D2DFE800F0F83535357F
:1031600035F7F6F5F400132872D00FDCA0F1030058
:10317000102800E02FE026D2DFE800F0F4F3F2F1AF
:10318000F02525EFEEEDEC2525EBEAE937280CD00C
:103190000CDC292871D004DC14286FD0282812D127
:1031A0002AE22D286BD032280DD155E2442867D071
:1031B00007DC3E2870D03F2805D174E25AE1A2E036
:1031C0004FE04928F3D00020C5F800A004B0BDE8C6
:1031D000F09F27E006E008212971002F02D840F275
:1031E000EE2009E00EB1297931700B2101242971FB
:1031F000012F08D840F2EF2028600EE01DE05AE0D1
:103200003FE063E0C6E00EB12979315598F814101B
:10321000641C2971BC4205D32A600120D6E77FE0F7
:10322000A1E0C7E00EB129793155641C85F804B0DE
:10323000BC4202D340F2F120DEE70EB129793155CC
:10324000641C85F804B0BC4203D340F2F220D3E7FB
:10325000A7E10EB129793155641C85F804B0BC4250
:10326000CAD20EB12879305598F81900641C28711B
:10327000BC4206D34FF43D70BEE7C8E19DE1D9E101
:1032800025E20EB128793055641C85F804A0BC42B3
:1032900003D340F2F520AFE7FAE10EB128793055BB
:1032A00089F801A0641C36E209202871BC4202D3CF
:1032B0004FF43F70A0E70EB1287930550420641C0C
:1032C0002871BC4202D340F2FD2095E70EB1287967
:1032D000305599F80110641C0198FEF745FEC9F8B5
:1032E000040000782871BC4202D340F2023083E728
:1032F0000EB128793055641C85F804A0BC4202D375
:1033000040F2033078E70EB128793055D9F804003F
:10331000641CBC424078287102D34FF441706BE7C3
:103320000EB128793055D9F8040098F81410641CAF
:103330000078814233D185F804B0BC4213D34FF4F6
:10334000427059E78BE07FE073E067E054E01CE1F6
:1033500010E104E1F8E0ECE0E0E0D4E0C8E0BAE03D
:10336000AEE0A2E096E00EB128793055641C85F8F5
:1033700004B0BC4202D340F209303DE70EB12879D7
:10338000305598F81900641C2871BC4202D340F2F1
:103390000A3031E70EB128793055641C25E098F8E1
:1033A000161081421CD10A202871BC4202D340F27F
:1033B0000F3021E70EB128793055641C85F804A040
:1033C000BC4202D34FF4447016E70EB12879305551
:1033D000641C85F804A0BC42DCD340F211300BE73A
:1033E0002B4940F21530FFF737FD85F804A0BC42A9
:1033F00002D34FF44670FFE60EB128793055D9F864
:10340000040098F81410641C007881426FD10520E4
:103410002871BC4202D340F21D30EDE60EB128798E
:1034200030552420641C2871BC4202D340F21E3067
:10343000E2E60EB128793055641C85F804A0BC4240
:1034400002D340F21F30D7E60EB128793055102054
:10345000641C2871BC4202D34FF44870CCE60EB114
:10346000287930550120641C2871BC4202D340F2F7
:103470002130C1E60EB1287930550520641C287131
:10348000BC4207D34FF44970B6E6000000020020AA
:10349000103101000EB1287930552420641C2871A8
:1034A000BC4202D340F22530A6E60EB12879305551
:1034B0000120641C2871BC4202D340F226309BE6F6
:1034C0000EB1287930550320641C2871BC4202D308
:1034D00040F2273090E60EB12879305598F8160062
:1034E000641C2871BC4203D34FF44A7084E669E03F
:1034F0000EB1287930550420641C2871BC4202D3D7
:1035000040F22B3078E60EB1287930552420641C27
:103510002871BC4202D34FF44B706DE60EB128798E
:103520003055641C85F804B0BC4202D340F22D3003
:1035300062E60EB128793055641C85F804B0BC42AF
:1035400002D340F22E3057E60EB1287930550520CF
:10355000641C2871BC4202D340F231304CE60EB1FB
:10356000287930552420641C2871BC4202D340F2D3
:10357000323041E60EB1287930550620641C28719E
:10358000BC4202D340F2333036E60EB128793055D2
:1035900098F81400641C2871BC4202D34FF44D709B
:1035A0002AE60EB12879305598F81600641C287167
:1035B000BC4202D340F235301EE60EB128793055B8
:1035C000641C08E098F81610814204D0574940F274
:1035D0003E30FFF741FCD9F804104846497889F895
:1035E0000210514689F803A08CE007202871BC42E4
:1035F00002D340F24930FFE50EB12879305505205D
:10360000641C2871BC4202D340F24A30F4E50EB18A
:103610002879305599F80310641CD9F80400FEF796
:103620007BFCC9F8080000782871BC4202D340F244
:103630004E30E1E50EB128793055D9F8040098F8FC
:103640001410641C007881420BD103202871BC4205
:1036500002D340F25330CFE50EB128793055641CC7
:103660000FE098F81610814206D185F804B0BC42EC
:10367000F2D34FF45670BFE52C494FF45770FFF763
:10368000EBFB40202871BC4202D340F25F30B3E52F
:103690000EB128793055641C85F804A0BC4202D3D1
:1036A0004FF45870A8E50EB128793055D9F80400C8
:1036B00098F81410641C007881420DD1D8F82000CD
:1036C000BC420078287102D340F2653094E50EB117
:1036D00028793055641C0FE098F81610814206D105
:1036E00085F804A0BC42F2D340F26A3084E50F4969
:1036F00040F26E30FFF7B0FB99F803104846491CC2
:1037000089F803108278C9B29142FFF46EAF417814
:10371000491C89F8011099F8011099F800008142BC
:10372000FFF4C2AD40F2753066E5000010310100D3
:1037300010B5040003D103492C20FFF78DFB204670
:1037400010BD00001031010070B50546144808F0A6
:10375000F3FD30B9134800684068D0E9002100202B
:103760009047402210491148FEF75CFA38B1922880
:1037700015D0BDE870400E4A4B21FCF7BDBD284670
:10378000FEF798FA044602460749054808F08AFD04
:103790008442DBD006494220FFF75EFBD6E770BDCE
:1037A000F04B0100F80200202C1E0020D82201005E
:1037B000603B010010B508B1032010BD0846FFF7BB
:1037C00001FC0178202901D0062010BDD0F802109C
:1037D000C160C1880182017A8174002010BD10B5DA
:1037E000FFF7A6FFFFF7EEFB0021818281610162F6
:1037F000C16601674167816700F12801816610BDDC
:103800002DE9FC478146FFF793FFFFF7DBFB0446FA
:10381000484602F058FF07462F4800268068CDE949
:103820000004E069B0B1D4F878804546404500D244
:1038300005462A4604F12801A069FCF715FF206F10
:103840002844C4E91C60A8EB0500E0666019283034
:10385000A06627E0206F60672667E666216A30462B
:1038600021B1626AA161C4E907202CE0A06130E0C7
:1038700004F11802616A82E84300E26E1AB38A42D8
:1038800015D3A36E0A461946FCF7EEFEE16EE06919
:10389000091AE166A16E0144A166606700214846ED
:1038A0000DF0C4FF206A0028E2D1A66111E0A16EEC
:1038B000FCF7DAFEE06E2067E169091AE161A169AF
:1038C0000818A06105D069463846FEF7ADFDBDE891
:1038D000FC870020FBE70000581F01004360CA6915
:1038E0009A4204D38A6902600B67CB6103E001F15D
:1038F000280202608B6700207047000070B5044604
:1039000071B111480129006803D0022916D003299A
:1039100019D14068D0E90021BDE87040012010476E
:10392000FEF7C8F9054602460849094808F0BAFCFE
:10393000854203D007496E20FFF78EFA2046BDE886
:103940007040FFF701BF70BDF80200202C1E002060
:10395000F04B0100603B01000249084490F930003F
:1039600070470000C817002070B581680446CA8CF3
:10397000002A4DD0088D00284AD0121A084495B26A
:1039800000F12C016A1C2B30FCF76EFEA068018D43
:10399000491E0185A068C18C491EC1848DB30822CF
:1039A0001C49206906F05EFF204605F0DEFB818899
:1039B000C088814211D1A06817A2018D4318082147
:1039C00020462C3306F016FA204600F0BDF92946B1
:1039D0002046BDE8704002F073BD204600F0C0FAFA
:1039E000204600F0B1F9A0680BA2018D4318082110
:1039F00020462C3306F0FEF92046BDE8704000F06A
:103A000079BA2069BDE87040044A03A106F02ABFD4
:103A100070BD0000483C00002573000091220100A9
:103A200070B504468068C28C018D521A15042D0CA5
:103A300048D0084400F12D012A462C30FCF714FE32
:103A4000A068C18C491EC184204605F08EFB818888
:103A5000C08881420CD1A0681BA2018D43180821A7
:103A600020462C3306F0C6F940F26946C4B913E08B
:103A7000204600F075FA204600F066F9A06812A210
:103A8000018D4318082120462C3306F0B3F9204657
:103A9000BDE8704000F02EBA0CA13046FFF7DCF90B
:103AA000206918B909A13046FFF7D6F9154A06A1D1
:103AB000206906F0D7FE6D1EA9B22046BDE8704011
:103AC00002F0FEBC70BD0000257300002E2E5C2E9F
:103AD0002E5C2E2E5C2E2E5C2E2E5C2E2E5C636FAA
:103AE0006D706F6E656E74735C6C69627261726921
:103AF00065735C636C695C6E72665F636C692E6390
:103B000000000000952201002DE9F0410446806884
:103B10000F46D0F85413028D11F00106C18CA1EBB1
:103B200002039DB24FF4BF730BD0994201D9002D0F
:103B30007ED0A068018D0844002180F82C7066B109
:103B400013E099427CD8002DF3D0831803F12C01A7
:103B50002A46481CFCF788FDEBE7A068C28C521C83
:103B600092B2C284A0682C3281544DB3204605F035
:103B7000FCFA8188C08881420ED1A06831A2018DF3
:103B80004318082120462C3306F034F9A81B81B2D3
:103B9000204602F095FC21E0204600F0E1F9A06803
:103BA00028A2018D4318082120462C3306F022F963
:103BB000204600F09FF90121204602F063FD0DE050
:103BC0003EB1A068C28C521C92B2C284A0682C3252
:103BD00081543A461CA1206906F044FEA168088D74
:103BE000401C0885204602F058FC0028204603D0DF
:103BF000BDE8F04102F070BC04F064F800281FD06A
:103C0000204605F0B2FA0546C088A988401A401E31
:103C100081B2204602F0E2FB204602F05DFCE8881B
:103C2000A988401A81B2204602F038FD288800E0B9
:103C300006E0401E81B22046BDE8F04102F022BD00
:103C4000BDE8F081257300002563000070B50D46C6
:103C5000040003D10BA1E920FFF7FEF8606818B952
:103C600008A1EA20FFF7F8F86068006818B905A114
:103C7000EB20FFF7F1F86068294602682046BDE8AE
:103C8000704010472E2E5C2E2E5C2E2E5C2E2E5C4D
:103C90002E2E5C2E2E5C636F6D706F6E656E74736E
:103CA0005C6C69627261726965735C757362645C95
:103CB0006170705F757362642E63000009B1062045
:103CC000704700207047000041680A6041684B60FF
:103CD0000149086000207047F802002070B51C0000
:103CE00015460E4603D10649A220FFF7B5F82A462D
:103CF0003146044808F0E8FB2060002070BD000059
:103D0000603B0100F04B01000020704770B51C00C3
:103D100015460E4603D10A49AF20FFF79DF82A4603
:103D200031460848FDF7CCFF38B1082805D01128E6
:103D300002D100202060002070BD2560FBE700005C
:103D4000603B0100D822010070B504004FF4D77524
:103D500003D108A12846FFF77FF8206918B905A10B
:103D60002846FFF779F82069BDE870400F4A10A196
:103D700006F078BD2E2E5C2E2E5C2E2E5C2E2E5C38
:103D80002E2E5C2E2E5C636F6D706F6E656E74737D
:103D90005C6C69627261726965735C636C695C6EAC
:103DA00072665F636C692E63000000008922010067
:103DB000257300008268002182F82C10826811852A
:103DC0008068C184704700002DE9F047816805468E
:103DD000C88C00287CD0088D002879D004460026A5
:103DE00003E0761C641EB6B2A4B284B104F12B02C7
:103DF0008A5C202AF5D0641E240406F10106240CF6
:103E0000B6B204D004F12B028A5C202AF3D180469A
:103E10002146284600F0B0FA07464146284600F001
:103E2000ABFAA7EB0008A8682146B0F8289028460E
:103E300000F052F807464946284600F04DF83F1A70
:103E4000A8680319C18C8A1B06F12C01194404F1DE
:103E50002C031844FCF708FCA868C18C891BC1849A
:103E6000A8680021002F0485A868C28C104480F83F
:103E70002C10284603DDB9B202F004FC05E004DA98
:103E8000C7F1000189B202F01BFB2846B8F1000F10
:103E900004DD1FFA88F102F0A1FA05E004DAC8F1A6
:103EA000000189B202F0FAFB284600F059F8A86830
:103EB00008A2018D4318082128462C3305F09AFFEB
:103EC0002846FFF741FF2846BDE8F04700F012B84A
:103ED000BDE8F0872573000070B584680D46006862
:103EE00000F02CFEE18B2844B0FBF1F201FB120044
:103EF000401C70BD70B504004FF4DD7503D108A1FE
:103F00002846FEF7A9FF206918B905A12846FEF743
:103F1000A3FF2069BDE870400F4A10A106F0A2BCC3
:103F20002E2E5C2E2E5C2E2E5C2E2E5C2E2E5C2ECB
:103F30002E5C636F6D706F6E656E74735C6C69621E
:103F40007261726965735C636C695C6E72665F63F3
:103F50006C692E63000000008322010025730000BD
:103F600070B504004FF4DA7503D108A12846FEF7B6
:103F700073FF206918B905A12846FEF76DFF206977
:103F8000BDE870400F4A10A106F06CBC2E2E5C2ECE
:103F90002E5C2E2E5C2E2E5C2E2E5C2E2E5C636FE5
:103FA0006D706F6E656E74735C6C6962726172695C
:103FB00065735C636C695C6E72665F636C692E63CB
:103FC000000000008022010025730000074A084B12
:103FD000ADF59E4D0020134469469A1A01E008543D
:103FE000401C8242FBD80DF59E4D70476028002092
:103FF000002000002DE9F04F4FF000099BB005466E
:104000004E464C4602F05AF8284604F0BBF8A86821
:10401000CA464FF4C07100F5D670FCF74CFBA86897
:1040200000F12C01C28C00F5D670FCF71DFBA868CE
:1040300000F5D6700CF0B8FAA86800F5D67000F05C
:104040007DFDA968401C4885284602F0D3F9284622
:1040500002F023FA10B9284602F03EFAAA680C23AF
:1040600004A911A82C3204F0B3FE0346119840B104
:104070005BB16CA20221284605F0BCFE1BB0BDE876
:10408000F08F284602F028FAF8E76B496B480027C2
:10409000A1EB00080DF1100B13E008D368A000900D
:1040A0006CA202212846049B05F0A4FEE6E700EB83
:1040B000C704606801685BF82900FCF72AFB20B19F
:1040C0007F1C5E48B7EBD80FE7D9207820B163A1F9
:1040D00040F67D10FEF7C0FE00201690A9684860EB
:1040E0008860C86008616168C86828B18AC9AA6820
:1040F000C2E90370C2E90113606809F101044FF0DD
:10410000000880680390119884425FD25F465BF894
:10411000240060A1FCF7FDFAD0B157F824005EA19D
:10412000FCF7F7FAA0B157F824000DF0E1FBB8B1A5
:104130000020149014A8009057F8243022462846F6
:10414000039902F049F8022840D014998A443BE0D0
:10415000A868D0F8541341F00201C0F8541335E0B8
:1041600017A84246009008F1010816AB21460398B3
:1041700001F006FDB8F1000F28D0169830B30168A1
:1041800057F82400FCF7C5FA0028BCD11698C1687E
:10419000B1B1BAF1000F0BD0284602F02BF9284636
:1041A00002F07BF910B9284602F096F93CA22CE007
:1041B00090E88810AA682646C2E903C1C2E901371F
:1041C00080684FF000080390641C9CE7BAF1000F70
:1041D00010D0A86800F5D671428D2C30FCF744FA57
:1041E000A8680C23418DC184AA6804A911A82C32A7
:1041F00004F0EEFDA868036933B111980BEB860259
:10420000811B2846984704E031A20221284605F088
:10421000F1FDA868D0F8541321F00201C0F854133E
:104220002CE700006E6F74207465726D696E6174A6
:1042300065643A2025630A0094490100FC480100A6
:104240003A20636F6D6D616E64206E6F7420666FCF
:10425000756E6400257325730A0000002E2E5C2EF7
:104260002E5C2E2E5C2E2E5C2E2E5C2E2E5C636F12
:104270006D706F6E656E74735C6C69627261726989
:1042800065735C636C695C6E72665F636C692E63F8
:10429000000000002D6800002D2D68656C70000086
:1042A0004572726F723A20726571756573746564D8
:1042B000206D756C7469706C652066756E637469C9
:1042C0006F6E20657865637574696F6E730A0000A0
:1042D000506C6561736520737065636966792061F0
:1042E00020737562636F6D6D616E642E0A0000004D
:1042F0008068D0F85403C0F3C000704710B58AB08E
:10430000032401231A4600211948009405F04CFFAC
:1043100018B1184AB821FBF7EFFF154920224831A0
:1043200001A8FCF7A1F906200190082002900020C6
:104330008DF818000E4801231A4601A91830009480
:1043400005F032FF18B10B4AC121FBF7D5FF084831
:1043500001231A4600213030009405F025FF002883
:1043600003D0044AC521FBF7C7FF0AB010BD000007
:10437000381D01004C8D000070B584680D46006842
:1043800000F0DCFBE18B2844B0FBF1F070BD0000D5
:104390002DE9F0410446C0688EB00D464068002605
:1043A0003246006801A907F00FFF18B100200EB0D7
:1043B000BDE8F0816DB1019807F0D9FDA168D1F891
:1043C0004403401CC1F8440300F0070001287AD1DF
:1043D0000126204604F0C9FE05468088012804D93C
:1043E000401E81B2204602F059F92888012804D9DC
:1043F000401E81B2204602F063F82046FFF7A4FC7D
:104400002EB132A20221204605F0F4FC5BE04FF011
:10441000010800230C2202A9019807F0B7FD0498B7
:104420000590BDF80C00ADF81800BDF80E00ADF811
:104430001A008DF81D8002980C2700F00300012857
:1044400002D0022818D032E002983B46860AC0F318
:10445000C2008DF81C00029808A9C0F38315AA00B9
:10446000019807F093FD2069009005AB2A4608A942
:10447000304607F0C1FC1AE00298850DC0F3C20077
:104480008DF81C00082D01D22E4600E008263B4680
:10449000324608A9019807F079FD3744AD1B05AAFB
:1044A000314608A8236907F075FB002DEAD1019871
:1044B00007F05DFDE068002201A94068006807F090
:1044C00083FE0028A5D0012071E700004C6F7374B3
:1044D000206C6F6773202D20696E63726561736550
:1044E000206C6F67206261636B656E642071756517
:1044F00075652073697A652E0A0000002DE9F04188
:104500001E4617460D46040000D01DB909A1FD2026
:10451000FEF7A2FC606818B906A1FE20FEF79CFC1D
:10452000606833463A4601680C692946A446BDE8EE
:10453000F04160472E2E5C2E2E5C2E2E5C2E2E5CC3
:104540002E2E5C2E2E5C636F6D706F6E656E7473B5
:104550005C6C69627261726965735C636C695C6EE4
:1045600072665F636C692E630000000070B50446DC
:1045700040680E460025007A38B1A0680068FDF753
:10458000A1FA08B108281AD10025BEB96068007ADE
:1045900050B90B4A0021A068FDF7EEF961680500EB
:1045A0004FF00100087209D1A068224640F266610E
:1045B0000068FDF749FA0546FCF764FD284670BD22
:1045C000C109010010B541680A6041684B6040684C
:1045D00000210172FCF756FD0249012008700020FD
:1045E00010BD0000FC02002070B51C0015460E46F0
:1045F00003D106A16620FEF72FFC2A463146002093
:10460000FCF742FD2060002070BD00002E2E5C2EC5
:104610002E5C2E2E5C2E2E5C2E2E5C2E2E5C636F5E
:104620006D706F6E656E74735C6C696272617269D5
:1046300065735C636C695C7274745C6E72665F63F4
:104640006C695F7274742E630000000080680068FB
:10465000FDF738BA2DE9F05F5FEA030815460E460C
:1046600003D11DA17420FEF7F7FB2B480068C0079B
:104670000FD0DFF8A8B000244FF0050AB14600BF04
:1046800009EB04012A460020FCF74CFD060003D08C
:1046900011E0C8F8005018E09BF8000088B10A2724
:1046A0001F494FF47A4088477F1EF9D1AAF10100D3
:1046B0005FEA000A0CD001218BF800103444AD1BD6
:1046C000DED1002CE5D0C8F800400020BDE8F09F06
:1046D00000218BF80010F4E72E2E5C2E2E5C2E2E7F
:1046E0005C2E2E5C2E2E5C2E2E5C636F6D706F6EBA
:1046F000656E74735C6C69627261726965735C6328
:104700006C695C7274745C6E72665F636C695F7214
:1047100074742E6300000000F0ED00E0FC02002045
:104720003123010010B50F4805F094FE18B10E4A70
:10473000A621FBF7E1FD0B48183005F08BFE18B100
:10474000094AAB21FBF7D8FD0648303005F082FE60
:10475000002805D0BDE81040034AAF21FBF7CCBDCF
:1047600010BD0000381D01004C8D00002DE9FC47F4
:104770000025044640F2C67740F2C778012601952D
:1047800001AB012269462046FFF7B8FE01980028D8
:1047900037D09DF800007F28F2D807F003FDA0680D
:1047A000417821B1012978D0022977D1FBE09DF829
:1047B000001089460D2909D00A2907D0D0F85423C2
:1047C000002161F38D12C0F8542322E0D0F8542365
:1047D000C2F387122AB1D0F85423C2F387128A4257
:1047E00017D1D0F8542361F38D12C0F85423A06878
:1047F000C18C41B12046FFF7FDFB0221204600F0AD
:1048000089F9BDE8FC87C0F85053204601F064FEEA
:10481000F3E74846B9F1090F78D00ADCB9F1090F7E
:1048200015D2DFE809F005FE142B14FD14148E00D8
:10483000A6E7172876D005DC0C2830D0B9F1150F83
:1048400005D165E01B2815D0B9F17F0F77D0FBF7B4
:10485000B3FE016811F8090010F03E0F90D0204619
:10486000FFF746FD00287ED09DF800102046FFF798
:104870004BF985E7A1680120487081E7204601F0E7
:10488000B9FD204601F009FE10B9204601F024FED2
:104890000221204600F03EF972E77BE07EE01CB981
:1048A0008CA13846FEF7D8FA206918B989A1384694
:1048B000FEF7D2FA954A96A1206905F0D3FF1CB9FC
:1048C00084A14046FEF7C8FA206918B981A1404684
:1048D000FEF7C2FA8D4A8EA11132206905F0C2FF9F
:1048E0008BA203212046236805F084FA2046FFF7B7
:1048F000FFFC00289CD0A36885A2082120462C3309
:1049000005F078FA204601F087FE39E70EE009E06D
:10491000204601F098FD2046FFF74CFA2046FFF7AD
:1049200013FA2DE72046FFF74FFA29E72046FFF755
:10493000DFFC00289DD0204600F006F920E709E0C2
:1049400011E02046FFF7D4FC002892D02046FFF764
:104950000BF815E72046FFF7CBFC002889D020464E
:10496000FFF75EF80CE7A1689DF80020C88CB0F551
:10497000BF7F91D8088D0B18401C088583F82C2028
:10498000A068018D084480F82C50A068C18C491C97
:10499000C184F5E69DF800105B2901D0002100E0FC
:1049A00002214170ECE6002141702046FFF7A0FC97
:1049B00000283FF426AF9DF80000422844D01BDCBD
:1049C000332872D012DC312878D032289DD1A168EA
:1049D00003204870A068D0F85413D0F8542326EA76
:1049E000010161F30002C0F85423C9E634285ED007
:1049F00041288AD1012128E046285BD01FDC4328CA
:104A000027D044288DD1204604F0AFFB8146018891
:104A1000007B401C814206D1B9F80400012801E066
:104A200048E04EE081D001294FF00101204634D00A
:104A300001F046FDA168088D401E0885A0E64828C3
:104A40003FD04C2885D1C5E70021204603F07EFAEF
:104A500096E6204604F089FB814601884088814221
:104A600005D1B9F80420B9F80600824291D0B9F80E
:104A70000A0081424FF00101204607D101F0AEFC4F
:104A8000B9F80A10204601F01BFD01E001F0FAFD23
:104A9000A068018D491C018572E601F0FFFDB9F89F
:104AA0000A10204601F0EEFDC4E70EE006E0A16822
:104AB00003204870204601F09DFC61E6A1680320B8
:104AC0004870204601F0BFFC5AE6A16803204870F8
:104AD00040E700002E2E5C2E2E5C2E2E5C2E2E5CCF
:104AE0002E2E5C2E2E5C636F6D706F6E656E747310
:104AF0005C6C69627261726965735C636C695C6E3F
:104B000072665F636C692E630000000099220100E9
:104B10002573000010B504468068022901700AD18F
:104B20002046FFF747F920462368BDE8104002A25F
:104B3000032105F05FB910BD25730000002801D0E6
:104B4000FBF7E0BD704700002DE9F04F054600205F
:104B5000A7B007460990064620900690A868C18C29
:104B6000A1F27F11494289B25FEA010973D0028D37
:104B700000F12C0100F5D670FBF776FDA868002443
:104B8000018D084480F8AC41FBF716FD21900168C7
:104B9000A8680C23028D024492F82B20895CC0F88F
:104BA0005043AA6801F0010A0BA918A802F5D672B1
:104BB00004F00EF90B98FFF7C1FF1FFA80F8A34627
:104BC00019941A94189818B15044401EB0426DD8E8
:104BD000BAF1000F01D0002005E00BA850F8260024
:104BE000FFF7ACFF80B2804600241BA8224600904D
:104BF000641C19AB3146584600F0C2FF19980028D2
:104C00007DD001680BA8424650F8260003F090FCC6
:104C10000028EAD01A987F1CF0B119980068FFF7B5
:104C20008DFF069980B2884200D90690B9F1000F35
:104C30002ED022A800901AAB31465846099A00F0AF
:104C40009FFF199801681A9801EB0802016800207B
:104C500001EB080316E043E0601E209019980068FD
:104C6000FFF76CFF80B20690A0EB080048450FDA12
:104C700080B20CE013F800C0614506D1401C00046E
:104C8000000C10D0115C0029F4D1814500D9814677
:104C9000601E099019981A90A7D26AA2042128468A
:104CA00005F0A8F82BE04FF6FF70EEE700241BA8F4
:104CB00022460090641C19AB3146584600F060FF54
:104CC0004CB1199800280BD00BA850F826000CF016
:104CD0000FFEA0B907E05BA20421284605F08AF880
:104CE00027B0BDE8F08F199801680BA850F826008E
:104CF000FBF70FFD0028DAD11998D0F808B0BBF106
:104D0000000F09D0199838B11899761CB6B201EB8A
:104D10000A008642FFF456AF002FE1D0012F3AD0AF
:104D200000212846069A0AF083FA209C0DF16C0AAD
:104D30002246641C19AB31465846CDF800A000F05D
:104D40001FFF1998424601680BA850F8260003F08F
:104D5000EFFB30B119987F1E069A016828460AF0C9
:104D600067FA002FE4D142A2032128462B6805F000
:104D700041F8AB683FA2082128462C3305F03AF8E9
:104D8000284601F049FC1A984A46016828464144E1
:104D900001F08CFAA4E79BF8000038B11BA8009042
:104DA0001AAB31465846099A00F0EAFE1A98006894
:104DB000FFF7C4FE404506D01A984A4601682846C7
:104DC000414401F073FA2198A9680268088D0B1814
:104DD00093F82C30D25CD20715D0C98C8842D9D236
:104DE000284604F0C2F98488A868018D491C018511
:104DF000284604F0BAF98088A0421FD10121284634
:104E000001F040FC6CE7D1F85403C00711D0D1F891
:104E1000540320F00100C1F8540320212846FEF776
:104E200073FEA868D0F8541341F00101C0F8541380
:104E300056E720212846FEF767FE51E7284601F095
:104E40004BFB4DE75461622066756E6374696F6E4B
:104E50003A20636F6D6D616E647320636F756E745D
:104E60006572206F766572666C6F7765642E0A00D6
:104E70000A2573002573000070B505460C0004D1A7
:104E800007A140F60920FDF7E7FF002D06D0A06836
:104E9000D0F8541341F02001C0F8541370BD000045
:104EA0002E2E5C2E2E5C2E2E5C2E2E5C2E2E5C2E3C
:104EB0002E5C636F6D706F6E656E74735C6C69628F
:104EC0007261726965735C636C695C6E72665F6364
:104ED0006C692E630000000000238B540A460068B2
:104EE000194604F087BF000070B5044640680D46BF
:104EF00090F8280030B1A0680068FCF7E3FD08B125
:104F000008280CD1012685B1606905F09FFC616815
:104F100000220831606905F027FC08B1062070BD49
:104F2000606880F82960002070BD606890F82800F3
:104F300048B9074A0021A068FCF71EFD61680028F7
:104F400081F82860F0D12046BDE870400AF09ABF91
:104F5000410A010070B5044640680D460260606871
:104F600000224360606880F82820606880F829206B
:104F7000606820220830FBF777FB2C61074A29463E
:104F8000606905F0F1FB050005D1E06807F0AAFDB6
:104F9000206907F0A7FD284670BD0000550D0100EF
:104FA0002DE9F0411C0016460F46054603D106A127
:104FB000D220FDF751FF266022463946E868BDE859
:104FC000F04107F04BBC00002E2E5C2E2E5C2E2EE6
:104FD0005C2E2E5C2E2E5C2E2E5C636F6D706F6EC1
:104FE000656E74735C6C69627261726965735C632F
:104FF0006C695C756172745C6E72665F636C695F2C
:10500000756172742E63000010B50446406905F0A6
:105010001DFCA0680068BDE81040FCF753BD00000F
:105020002DE9FC411D0016460F46044603D11AA186
:10503000E620FDF711FF2E602A463946206907F069
:1050400077FC050025D16069234A0178515C19B1CC
:10505000001D09F00DF802E00C3008F0DBFDC0B9CE
:10506000FF20009001236A4601A9206907F0D8FCBF
:1050700078B900980199C2B2606905F0D7FB05467E
:10508000606890F8290020B11DB92069009907F0E7
:10509000B3FC2846BDE8FC812E2E5C2E2E5C2E2E05
:1050A0005C2E2E5C2E2E5C2E2E5C636F6D706F6EF0
:1050B000656E74735C6C69627261726965735C635E
:1050C0006C695C756172745C6E72665F636C695F5B
:1050D000756172742E630000600100202DE9F843B1
:1050E0001F4614468846050002D0B8F1000F03D1D0
:1050F0001EA1CE20FDF7B0FE6868006818B91BA19C
:10510000CF20FDF7A9FE002628E000BF686808EB65
:1051100006016B460268D2F80CC02246E04718B17F
:1051200012A1D920FDF798FE0098844203D20FA166
:10513000DA20FDF791FE00980644241A70B9A86899
:10514000017803290AD000BFD0F854138906FBD593
:10515000D0F8541321F02001C0F85413002CD5D1FD
:10516000002F01D000983860BDE8F8832E2E5C2E09
:105170002E5C2E2E5C2E2E5C2E2E5C2E2E5C636FF3
:105180006D706F6E656E74735C6C6962726172696A
:1051900065735C636C695C6E72665F636C692E63D9
:1051A0000000000070B5084C050009D010342168DB
:1051B000002907D008682060496828468847F6E734
:1051C0000834F4E770BD0000B4170020054A01213F
:1051D00020B1012805D19170FFF7E4BF5170002084
:1051E000FAE77047B41700203EB5044604F0D0FF3C
:1051F00038B103B02046BDE830400022114604F02B
:1052000057BE06490648CDE900010346029105A2B2
:105210000821204604F0EEFD3EBD0000604D010077
:10522000000000004170706C69636174696F6E20EA
:10523000616464726573733A256420283078253080
:105240003858292C2073697A653A20256420283043
:105250007825303858290D0A00000000F8B51446AA
:105260000E46050004D121A140F20F10FDF7F4FD18
:10527000A86818B1686808B1286820B91BA14FF464
:105280008870FDF7E9FD012E03D0284604F07AFF6F
:1052900030B12846BDE8F84001221B4904F008BEA1
:1052A000022E08D0236801B02846BDE8F04017A2BE
:1052B000022104F09FBD1CA16068FBF72AFA68B1C7
:1052C0001AA16068FBF725FA40B16068009019A246
:1052D00002212846236804F08DFDF8BD2846BDE86C
:1052E000F8401BA2002104F085BD00002E2E5C2E8C
:1052F0002E5C2E2E5C64656D6F5F636C695F636D01
:1053000064732E6300000000101D010025733A2015
:1053100062616420706172616D6574657220636F93
:10532000756E740A000000002D7400002D2D746548
:105330007374000025733A20756E6B6E6F776E2064
:10534000706172616D657465723A2025730A0000A0
:1053500044756D6D792074657374206F7074696F16
:105360006E2E0A00012904D0136804A2022104F061
:1053700041BD0949002048607047000025733A206C
:1053800062616420706172616D6574657220636F23
:10539000756E740A0000000000000020012904D08E
:1053A000136804A2022104F025BD094901200870F8
:1053B0007047000025733A20626164207061726159
:1053C0006D6574657220636F756E740A000000006D
:1053D00000000020012904D0136804A2022104F077
:1053E00009BD0949002008707047000025733A2064
:1053F00062616420706172616D6574657220636FB3
:10540000756E740A000000000000002070B514469C
:105410000D460646012902D004F0B4FE30B13046F4
:10542000BDE870400022114604F042BD2368022D01
:1054300001D904A200E00AA23046BDE87040022172
:1054400004F0D8BC25733A206261642070617261F7
:105450006D6574657220636F756E740A00000000DC
:1054600025733A20706C656173652073706563699C
:10547000667920737562636F6D6D616E640A0000FA
:105480002DE9F04714460D46814604F07BFE30B10D
:105490004846BDE8F0470022114604F009BD022D40
:1054A00007D048462368BDE8F04728A2022104F04F
:1054B000A1BCDFF8B48098F80100142801D32BA216
:1054C00006E06068FBF71EF986B2212E02D32DA2FA
:1054D000022132E0002567680AE000BFFBF76CF8A4
:1054E0000068795D405C10F0380F2BD06D1CEDB278
:1054F000B542F3D3284E002505EB451030446168D2
:10550000FBF707F900281FD06D1CEDB2142DF3D363
:1055100098F80110454601EB4110491C88F801102C
:1055200030441EA16268FCF7B1F81D4B2122697856
:105530001948FBF74BF81BA200214846BDE8F0478D
:1055400004F058BC1EA2C3E72DA2C1E725733A2080
:1055500062616420706172616D6574657220636F51
:10556000756E740A0000000000000020636F6D6D0E
:10557000616E64206C696D69742072656163686531
:10558000640A0000746F6F206C6F6E6720636F6D2C
:105590006D616E640A000000800500202573000024
:1055A000CD060100636F6D6D616E6420616464659A
:1055B00064207375636365737366756C6C790A0038
:1055C00062616420636F6D6D616E64206E616D65F4
:1055D000202D20706C6561736520757365206F6E7A
:1055E0006C7920616C7068616E756D65726963615C
:1055F0006C20636861726163746572730A000000F5
:105600006475706C69636174656420636F6D6D614E
:105610006E640A002DE9F84314460D46804604F0F6
:10562000B1FD30B14046BDE8F8430022114604F018
:105630003FBC022D03D014A2022123681DE00025E7
:10564000184F194E09E000BF05EB4510384461685A
:10565000FBF75FF870B16D1CEDB270788542F3D343
:105660006068009011A202214046236804F0C2FB4A
:10567000BDE8F883636814A2002101B04046BDE88C
:10568000F04304F0B7BB000025733A206261642048
:10569000706172616D6574657220636F756E740AF6
:1056A00000000000800500200000002025733A2043
:1056B000756B6E6F776E20706172616D6574657267
:1056C0003A2025730A00000064796E616D696320D9
:1056D000636F6D6D616E643A2025730A00000000EF
:1056E0002DE9F04117460C468046012902D004F00E
:1056F00049FD30B14046BDE8F0410022114604F0BA
:10570000D7BB022C02D01BA23B6811E00024204E24
:10571000204D08E004EB441030447968FAF7F9FFB3
:1057200060B1641CE4B268788442F3D37B681AA247
:105730004046BDE8F041022104F05CBB132C14D0BC
:105740006878001B00EB401204EB4410304400F179
:105750002101FAF789FF687816A2401E687040465A
:10576000BDE8F041002104F045BB002086F873023B
:10577000F1E7000025733A20626164207061726174
:105780006D6574657220636F756E740A00000000A9
:105790008005002000000020646964206E6F742082
:1057A00066696E6420636F6D6D616E643A20257367
:1057B0000A000000636F6D6D616E642072656D6F2D
:1057C000766564207375636365737366756C6C7955
:1057D0000A000000F8B514460D46074604F0D2FC56
:1057E00030B13846BDE8F8400022114604F060BBF5
:1057F000012D08D0236801B03846BDE8F04013A25F
:10580000022104F0F7BA184D687838B117A20021C8
:10581000384604F0EFFA00241A4E13E03846BDE88B
:10582000F84019A2042104F0E5BA00BF04EB4410CB
:105830003044009023461DA20021384604F0DAFAD5
:10584000641CE4B268788442F0D3F8BD25733A2032
:1058500062616420706172616D6574657220636F4E
:10586000756E740A000000000000002044796E612B
:105870006D696320636F6D6D616E64206C69737414
:105880003A0A000080050020506C65617365206154
:10589000646420736F6D6520636F6D6D616E6473FA
:1058A0002066697273742E0A000000005B25336461
:1058B0005D2025730A00000010B5044604F068FC62
:1058C00030B120460022BDE81040114604F0F0BA85
:1058D0001F21BDE8104002A20320FAF70DBD000011
:1058E0002E2E5C2E2E5C2E2E5C2E2E5C2E2E5C2EF2
:1058F0002E5C636F6D706F6E656E74735C6C696245
:105900007261726965735C636C695C636C695F7515
:1059100074696C735F636D64732E630030B5054604
:105920002DED048B83B09FED690B6AA28DED000B0A
:10593000002104F05FFA9FED690B66A28DED000B6C
:105940000021284604F056FA9FED669B67A28DED74
:10595000009B0021284604F04DFA9FED658B63A261
:105960008DED008B0021284604F044FA624C51EC86
:10597000190B94ED020B53EC102BFAF7CFFFCDE986
:1059800000015AA20021284604F034FA94ED020BDB
:1059900053EC102B9FED590B51EC100BFAF7BEFF97
:1059A000CDE9000157A20021284604F023FA94ED26
:1059B000020B51EC180B53EC102BFAF7AFFFCDE9AB
:1059C00000014AA20021284604F014FA94ED020BCB
:1059D00053EC102B9FED4C0B51EC100BFAF79EFF84
:1059E000CDE9000147A20021284604F003FA9FED0B
:1059F000480B3EA28DED000B0021284604F0FAF979
:105A00009FED450B39A28DED000B0021284604F0D7
:105A1000F1F99FED430B35A28DED000B00212846D7
:105A200004F0E8F99FED400B30A28DED000B002152
:105A3000284604F0DFF99FED3E0B2CA28DED000B04
:105A40000021284604F0D6F99FED3B0B27A28DEDEF
:105A5000000B0021284604F0CDF99FED398B3AA2C6
:105A60008DED008B0021284604F0C4F98DED008BEC
:105A700037A20021284604F0BDF98DED008B37A236
:105A80000021284604F0B6F98DED008B36A20021E6
:105A9000284604F0AFF98DED008B36A20021284690
:105AA00004F0A8F994ED020B51EC190B53EC102BF8
:105AB000FAF734FFCDE9000123A20021284604F0C3
:105AC00099F903B0BDEC048B30BD0000BBBDD7D944
:105AD000DF7CEB3D252E3130660A00007D1B000087
