:1000000000000220B5020000DD020000DF02000057
:10001000E1020000E3020000E50200000000000031
:10002000000000000000000000000000E7020000E7
:10003000E902000000000000EB020000ED020000F9
:1000400085350000251C0300453A0000EF02000042
:10005000EF020000EF020000A1380000EF020000F4
:10006000EF020000EF020000EF020000EF020000CC
:10007000EF0200002D3B0000EF020000EF02000045
:10008000EF020000B5220000EF020000EF020000C6
:10009000EF020000EF020000EF020000EF0200009C
:1000A000EF020000EF0200004D3D0000EF020000F3
:1000B000EF020000EF02000000000000000000005E
:1000C000EF020000EF020000EF020000EF0200006C
:1000D000354A0300EF020000EF020000EF020000CB
:1000E000EF0200000000000000000000000000001F
:1000F00000000000EF02000000000000EF0200001E
:1001000000000000000000000000000000000000EF
:1001100000000000000000000000000000000000DF
:1001200000000000000000000000000000000000CF
:1001300000000000000000000000000000000000BF
:1001400000000000000000000000000000000000AF
:10015000000000000000000000000000000000009F
:10016000000000000000000000000000000000008F
:10017000000000000000000000000000000000007F
:10018000000000000000000000000000000000006F
:10019000000000000000000000000000000000005F
:1001A000000000000000000000000000000000004F
:1001B000000000000000000000000000000000003F
:1001C000000000000000000000000000000000002F
:1001D000000000000000000000000000000000001F
:1001E000000000000000000000000000000000000F
:1001F00000000000000000000000000000000000FF
:1002000010B5054C237833B9044B13B10448AFF350
:1002100000800123237010BDC004002000000000F6
:100220008090030008B5034B1BB103490348AFF3AB
:10023000008008BD00000000C4040020809003007E
:10024000154B002B08BF134B9D46A3F5803A0021A8
:100250008B460F461348144A121A34F07AFF0F4B9C
:10026000002B00D098470E4B002B00D09847002061
:10027000002104000D000D48002802D00C48AFF307
:10028000008034F0EFFE2000290004F0CBFD34F0B4
:10029000C3FE00BF000008000000022000000000B4
:1002A00000000000C00400202C900020000000008E
:1002B000000000000649074A074B9B1A03DD043B78
:1002C000C858D050FBDC04F02DFEFFF7B9FF00004A
:1002D0008491030000000020C0040020FEE7FEE738
:1002E000FEE7FEE7FEE7FEE7FEE7FEE7FEE7FEE7E6
:1002F000F0B595B01C46164608460D4602F066FD60
:100300001A9B0D93CDE9086400242346082205A911
:1003100028460A948DF82C400C9402F075FD079B3A
:100320000293BDF81830ADF80C30BDF81A30ADF8B6
:100330000E309DF814308DF8114003F00302012AAD
:100340001DD1BDF81440059EC3F3C203C4F383144A
:100350008DF81030A20008230EA9284602F054FDA3
:10036000C6F3952608AB0093224602AB0EA9304691
:1003700000F02EFD284602F02DFD15B0F0BD022A3A
:10038000F8D1BDF81640C3F3C203A4098DF81030AC
:100390000827082C264628BF08263B4632460EA9C9
:1003A000284602F031FDA41B08AB02AA31460EA874
:1003B000374400F071FD002CEBD1DBE7014B01224B
:1003C0001A7070471D0500207047000070B50F4D72
:1003D00006460FCD88B06C460FC495E80F00002E7E
:1003E00084E80F004FF006030093094A09484FF0D4
:1003F000805308BF00226946069302F0A7FF08B1A8
:1004000001F036FC044B1E7008B070BD1C6903007F
:10041000BD03000000000020DC04002007B5044BF1
:100420000093044A4023FFF763FF03B05DF804FB29
:1004300039040000DD04002038B50D4B0D4D0020BF
:1004400018700D4804782D5DD2B21C4665B1043099
:1004500004F038F908B101F00BFC084B1A7812B11E
:100460002378002BFBD038BD0C3003F0C7FEF1E73A
:100470001D0500209473002000000020DC040020F3
:1004800008B50848084A0378D35C3BB1043004F04F
:10049000ABF80020BDE80840FFF798BF0C3003F030
:1004A00053FEF6E700000020947300200120FFF7C0
:1004B0008DBF000008B5FFF7F9FF0421034800F0E5
:1004C000E5FB034B01225A7108BD00BF54910300A4
:1004D00014000020037813F0040216D003F0030385
:1004E000012B03D0022B09D0012070470A68008835
:1004F0000232C0F3831002440A60F5E70B684288B9
:10050000023303EB92130B60EEE7104670470000D6
:100510002DE9F04F484C87B00F460546861C002059
:10052000019201F079FD23683B60D4E90123134473
:10053000226801339B1A04F21C4704F5836A04F213
:100540001448B34219D3019A0023002A6CD0012227
:1005500062F3010343F0040365F389132168A26881
:100560000A4003320E44002044F82230266001F095
:1005700055FD012007B0BDE8F08F0121384601F09C
:1005800061FF504601F077FF404601F074FF0DF126
:1005900018096068D4F808B049F8100D00EA0B009B
:1005A000033004EB80004946FFF794FF029BB0B98B
:1005B0000BEA030204EB8202D16803919A1C013317
:1005C00003EA0B0B04EB8B0C01F00303012B0292EB
:1005D000DCF80CB020D0022B04D083460BE00BEAF1
:1005E0000300DDE7BDF80E309B0903334FEA1B4BD8
:1005F00002EB93030293404601F040FF08B1029BD7
:1006000063605946384601F01DFFD4E901231344C5
:10061000226801339B1A94E7BDF80C30C3F38313AF
:100620004FEA1B4B1344E5E7022262F3010343F058
:10063000040365F39F5391E7F005002030B50A4BA2
:100640000A4A0B49D21AD20800239A4201D1052046
:1006500006E031F823500468A54202D1036000206F
:1006600030BD0133F1E700BF9C90030054910300BB
:10067000F40300202DE9F84F224B2348FF229A6013
:100680000022C3F81824C3E90022C3F8142483F815
:10069000202402F054FB804688B91C481C4E1D4D96
:1006A000DFF874A002F099FCAD1BED084446AC42A3
:1006B00008D10023184919481A469C421BD14046CC
:1006C000BDE8F88F4FF000094F4606EBC40BBC4263
:1006D0000AD0142256F83710DBF8000035F0A4F8E1
:1006E0000028C8BF09F101090137BD42EFD12AF83E
:1006F00024900134DBE701EB830540F823206A8076
:100700000133DAE7F0050020649103005C6903001F
:100710009C90030054910300F40300205004002037
:1007200007B5019031B9019A064B53F8320003B076
:100730005DF804FB01A8FFF781FF0028F3D000203B
:10074000F5E700BF9C900300094B013903EBC000A3
:10075000032909D8DFE801F00A02040604207047E3
:100760000079704740797047002070470220704739
:100770009C90030030B5124C00EB400054F821501F
:100780008240072303FA00F06A4002400D4B6A40A2
:10079000C2F3821044F8212003EB8101C2F3C203AB
:1007A000834238BF0346C2F34220834202F007026D
:1007B00038BF03469A4238BF1A464A8030BD00BF50
:1007C00050040020F403002037B5164B93F8203472
:1007D00004460BB918B90024204603B030BD35F0EB
:1007E0001BF802AA013042F8080D012301A90E48A6
:1007F00002F001FC05460028EDD12146009A01983F
:1008000034F083FCDDE900231344074803F8015C5E
:10081000009902F027FC0099034802F03CFC019C7F
:10082000DAE700BFF00500205C690300034BD3E961
:100830000030C31A58425841704700BFF0050020ED
:100840002DE9F04F85B0FFF7F1FF0646002840F094
:1008500018818D4DC5F81804BFF34F8F6868AC68D8
:1008600004AF47F8100D2040033005EB80003946F7
:10087000FFF730FE009B18B1D5F81824002A66D087
:1008800004EA0302991C013305EB8202234005EBC5
:100890008303D268DB68029302F00303022B019208
:1008A000009169D1BDF8063078489DF804604FEAA0
:1008B000931ABAF1500FD14628BF4FF0500969F38F
:1008C0008F1309F10801ADF8063002F050FAC6F3B3
:1008D000C2068046002800F0BB8002F077FA01A92A
:1008E00000230822404602F084FA009924EA010716
:1008F0000137BF00B94538D95FFA89F997B3FFB21C
:10090000A9EB0709214003315FFA89FBB946604F23
:1009100005EB810108234A46404602F06AFA37B1E6
:1009200009F108035A463946404602F062FA009B34
:100930000AF1030A03EB9A030093D5F81834002B4D
:1009400050D1D5F81044DFF85C9107276FE02A6892
:100950009A4204D86A60304605B0BDE8F08F04EAD8
:10096000030081E74A49BB46D4E72140033108230D
:100970004A4605EB8101D7E7012B69D1BDF8046038
:100980004248C6F38311062928BF062161F3891660
:1009900002318900ADF8046002F0E9F9C6F3C2063D
:1009A0008046002854D002F011FA0023082201A941
:1009B000404602F01EFA0027BDF80420C2F383125D
:1009C000BB1C97424FEA8303B7D200994A1C2140CF
:1009D0000331009205EB81010422404602F009FA3E
:1009E0000137E9E7404602F0F5F9FFF71FFF80F015
:1009F0000100C6B2AFE7E3685A79B2B11B79BDF81E
:100A0000081003EB430259F8211007FA02F3052EF0
:100A100003EA010323FA02F308BF0326B34204D317
:100A2000236841461B6820469847E3681C68002CF1
:100A3000E1D1404602F0CEF9204601F0EDFAD5F8BA
:100A400018340BB9009B6B60002001F0E7FACCE78B
:100A5000D5F8104474B90F4B5B88012BC5D90E4BE8
:100A60000E480F49C01AC008000440F0020000F010
:100A700073F8BAE7236820469B689847E3681C68C8
:100A8000E8E7002667E700BFF00500206491030057
:100A9000FC050020100400209C900300D49003006B
:100AA00068690300500400202DE9F74F284C804668
:100AB0000F46924601A9012218469B46D4F8089099
:100AC000FFF726FD88B3019D0026A91C5E4506EBB5
:100AD000010234D100211F4801F07EFC80F3100098
:100AE0006A1C02EA090204EB8202000405EA090317
:100AF000033340EA1840D06014F8232068F3C5029D
:100B000004F8232034F8232066F3891224F82320E4
:100B100054F82320012167F39F2244F8232061F336
:100B200001026FF3820204F8232094F820341BB1F1
:100B3000FFF786FE0028FBD103B0BDE8F08F09EA7D
:100B4000020204EB82025AF82630D3600136BDE778
:100B5000F00500200C0A002000231A46FFF7A4BF6E
:100B600013B502AC012344F8042D2246FFF79CFF85
:100B700002B010BD07B5CDE9002302236A46FFF796
:100B800093FF03B05DF804FB1FB5CDE90123069B7D
:100B9000039301AA0323FFF787FF05B05DF804FB69
:100BA0001FB5CDE90023069B0293079B03936A467A
:100BB0000423FFF779FF05B05DF804FB2DE9F34747
:100BC0008046304CD01C8A46174601A90022800876
:100BD000A568FFF79DFC002840D0DDF80490A668CA
:100BE00009F10200019001362840361AB6000330A0
:100BF000B74204EB80003BD83A46514634F085FAC0
:100C00000021214801F0E8FB80F3100009F1010305
:100C10002B4004EB83034FEA184242EA0040D860BD
:100C200005EA0903033304EB830214F8231068F385
:100C3000C50104F8231034F823106FF38F1124F842
:100C40002310518867F38F11518014F8232002215B
:100C500061F301026FF3820204F8232094F8203438
:100C60001BB1FFF7EDFD0028FBD102B0BDE8F08716
:100C70003246514634F049FABA1B0AEB060104F138
:100C80000C00BBE7F00500200C0A00202DE9F8431A
:100C90001F4B8846D3F81014054600240A469AB91B
:100CA000E9680C71D3F81014A1B9C3F81054EB68BB
:100CB0001A60184F184EF61BF6084FF00009B145A0
:100CC00011D12046BDE8F883D2681079A04218D02F
:100CD0001268E4E7C968EA6809681160D3F810345B
:100CE000DB681D60E5E707EBC9034946DA79EB6885
:100CF000424528BF42461879FFF73CFD09F101093A
:100D0000DDE701340A2CC9D14FF0FF34D9E700BF29
:100D1000F00500209C9003005491030010B5037A65
:100D2000052B0C460FD0437A23B1084A08492046C8
:100D300001F003FC0749204601F0FFFB2046BDE817
:100D4000104001F0EFBB002AF8D0F3E7C3690300BD
:100D5000FE740300E569030073B5C38804460D46BD
:100D600033B1144A00921449144A284601F0E5FBB5
:100D7000217A05291CD0637A4BB1A088FFF7E4FCE7
:100D80000F4B104953F82020284601F0D6FB227A59
:100D90000D4BA08853F822600021FFF7C1FC0B49DE
:100DA00003463246284602B0BDE8704001F0C5BB9C
:100DB00002B070BDC3690300D0690300C8690300B5
:100DC00090690300FE740300F4690300E8690300FE
:100DD0002DE9F04385B01F460C9D002306460C46C6
:100DE000904695F80C902B7329463846FFF7B4FFD0
:100DF000B8F1060F09D8DFE808F00412181F2833ED
:100E000040003146284601F098FB0022294638462A
:100E1000FFF784FF85F80C9005B0BDE8F0832268E9
:100E20003146284601F089FBEFE7D4E9002331463B
:100E3000284601F082FBE8E7A36800933146D4E935
:100E40000023284601F079FBDFE7E3680193A368FC
:100E500000933146D4E90023284601F06EFBD4E725
:100E600023690293E3680193A36800933146D4E9B0
:100E70000023284601F061FBC7E7636903932369F8
:100E80000293E3680193A36800933146D4E90023F9
:100E9000284601F052FBB8E708292DE9F84F8046B3
:100EA0000E4617461C4635D8002593F80C901D7346
:100EB00019461046FFF750FFDFF88CA0DFF88CB022
:100EC000AE4229D918F805205946204601F035FBD5
:100ED0000135082DF4D11A49DFF874B0204601F02D
:100EE0002CFB4FF0000A564524D918F80A507E2DE5
:100EF00017D92E225946204601F01FFB0AF1010A9C
:100F0000BAF1080FEFD1012221463846FFF706FF5C
:100F100084F80C90BDE8F88F5146204601F00DFB97
:100F2000D6E734F0C3F82844427812F0970FE0D0A7
:100F30002A46DFE70349204601F0FFFADEE700BF5B
:100F4000BE690300BC690300BA690300B469030009
:100F5000C0690300074B1B5C1F2B8ABF064A4FF07A
:100F6000A04203F01F03D2F80405D840C04300F0AC
:100F700001007047596A030000030050074B1B5CD7
:100F80001F2B86BF03F01F0305494FF0A04101222C
:100F900002FA03F3C1F80C35704700BF596A030029
:100FA00000030050074B1B5C1F2B86BF03F01F0381
:100FB00005494FF0A041012202FA03F3C1F80835B8
:100FC000704700BF596A03000003005008B50020B5
:100FD000FFF7E8FF0120FFF7E5FF0220FFF7E2FF40
:100FE0000320BDE80840FFF7DDBF08B50020FFF78C
:100FF000C5FF0120FFF7C2FF0220FFF7BFFF03205C
:10100000BDE80840FFF7BABF0A4B185C1F288ABF2B
:10101000094B4FF0A04300F01F00D3F80425012135
:10102000814021EA02000A40C3F80805C3F80C25F4
:10103000704700BF596A0300000300500B2809D015
:101040000C2809D0182809D019280CBF03204FF00C
:10105000FF30704700207047012070470220704722
:10106000C20710B504460CD54FF0A0430322C3F8C5
:101070003427C3F83827C3F83C27C3F84027FFF7C5
:10108000A5FFA3070AD54FF0A0430C22C3F82C27D5
:10109000C3F83027C3F86027C3F8642710BD0000E9
:1010A0000D4930B5A1F5BC720225914201D800204E
:1010B0000EE08B1ADB1093FBF5F302EBC30452F83E
:1010C0003330834205DC02DA04F10802EDE76068A0
:1010D00030BD2146E9E700BFF06E030008B5FFF719
:1010E000DFFF024B002808BF184608BD5D6A0300F9
:1010F00013B502AC002304F8053D01939DF80330BD
:10110000032B08D904210DEB010002F0DDF830B902
:10111000019802B010BD204602F0CCF8EEE70020A6
:10112000F7E708B500F08CFA00F076F8002002F03E
:10113000A1F820B1852802D000F0C4F8FCE7FFF741
:10114000D7FF34F0D5FA02F03FF910B900F0BAF841
:10115000FCE708BD08B500F0B5F8FCE762B67047DB
:1011600072B67047FFF7C4BF00F0B0BA034A431A23
:10117000934288BF0B1A1846704700BFFEFFFF7FDF
:1011800010B5044600F0A2FA241804D300F09EFA29
:101190008442FBD310BD00F099FA8442FBD8F9E7F2
:1011A00038B50D4614465AB151B148B102F050F964
:1011B0002946204602F022F910B900F083F8FCE736
:1011C00038BDEFF30580003018BF012070470000E4
:1011D000F7B54FF0805300251C6E596E04F0FF07E1
:1011E00045EA010206A5D5E9004502A9224347EADE
:1011F000050361E90223082233F087FF03B0F0BD45
:10120000000000000036CEF400487047AC0A002011
:10121000704701F005BE704708B50BF0E3F948B917
:10122000054B1B7813B9054B1B781BB1BDE8084073
:101230000BF0DEB908BD00BF1C010020200100201A
:101240002DE9F84307460E460BF0CCF958B1184C7F
:10125000184BDFF86890DFF86880E41AE40824048B
:1012600044F003040EB9BDE8F883D9F80000C0F1DA
:101270000805B542A8BF35462A463946404433F0F2
:1012800044FFD9F800202A44082AC9F800202F4436
:10129000A6EB0506E6D1084B5B88022B03D9414635
:1012A0002046FFF78BFC0023C9F80030DAE700BFC7
:1012B0004C9103009C9003004C040020F80A00208D
:1012C000F00A002010B50C4C226882B10B4B5B88F1
:1012D000022B0AD90A480B4B0B49C01AC00800045C
:1012E00092B240F00300FFF769FC00232360BDE8E1
:1012F0001040FFF7A5BA00BFF80A00204C040020F8
:101300004C9103009C900300F00A00200378022B0C
:1013100001D80BF07BB970474FF0102358694FF09C
:101320008053411C1A695B6908BF03FB02F0A0F5FA
:10133000A040704710B54FF010234FF080525B690A
:10134000116952690B4C581C08BF02FB01F3236161
:10135000FFF7E2FF084BE06000220849C3F80821CC
:10136000204601F0ADFA18B1BDE81040FFF7F2BE1B
:1013700010BD00BFAC040020FC0A0020B4710300C3
:101380004FF4005070470220704708B513460A46D4
:1013900031B143B10146184633F0B7FE002008BD15
:1013A0006FF00A00FBE76FF00B00F8E70128F8B5D3
:1013B00007460C4616461D4610D80B44B3F5005F91
:1013C0000FD28AB19DB1FFF7A7FF04EB473101446B
:1013D0002A46304633F099FE0020F8BD6FF0380001
:1013E000FBE76FF01600F8E76FF00B00F5E76FF022
:1013F0000C00F2E70128F7B507460C4616461D46D5
:1014000024D80B44B3F5005F23D22AB3AB0826D00F
:10141000FFF782FF04EB473404440BF0FFF8074664
:101420000028FAD10BF0EAF8214600972B46324605
:101430000C4801F081FA04460BF0F0F80028FBD1CB
:10144000201C18BF0120404203B0F0BD6FF03800EF
:10145000FAE76FF01600F7E76FF00B00F4E76FF0B4
:101460000C00F1E7AC04002001282DE9F04106460C
:1014700024D8FFF751FFDFF8508000EB463505F523
:1014800000570BF0CBF804460028FAD10BF0B6F861
:10149000234601222946404601F00EFB88B90BF095
:1014A000BDF804460028FAD105F58055BD42E8D1C3
:1014B00030460BF0BBF82046BDE8F0816FF03800F5
:1014C000FAE74FF0FF30F7E7AC04002010B5084C06
:1014D000D4F8083153B19BB22246D4F8041194F8E1
:1014E0000001FFF787FF0023C4F8083110BD00BFDB
:1014F000FC0A00202DE9F8431C4C1E46D4F80831A4
:1015000081460F4690466BB194F80021824207D184
:10151000D4F804211A44914202D1B3F5807F01D15D
:10152000FFF7D4FFD4F8080118B984F80091C4F883
:101530000471C0F58075B54234BFADB235464DB1CA
:101540002A464146204433F0E0FDD4F808312B44CC
:10155000C4F80831761BB6B216B93046BDE8F88338
:10156000FFF7B4FF2F44A844DCE700BFFC0A0020CB
:1015700007B50C4B18680090FFF7CEFE042200F56B
:1015800080410DEB020033F0C0FD042269460DEBF3
:10159000020033F0ABFDB0FA80F0400903B05DF813
:1015A00004FB00BFF66E030038B505460C46FFF796
:1015B000B3FE00F580402A4621460430BDE838409D
:1015C000FFF7E3BE70B506460D461446FFF7A4FECE
:1015D00004F580440434324629462044BDE8704076
:1015E000FFF7D3BE00487047FC6E030004220321BE
:1015F00002708170002206214270C1704260704703
:10160000B0F5A27F01D10BF013B8704710B5084CAC
:10161000FFF7A6FD2378012B05D1FFF7E3FF02F0CA
:1016200021FB00232370BDE81040FFF797BD00BFEA
:10163000080C0020014B1878704700BF080C0020F0
:101640001FB502A8FFF7D2FFFFF7CCFF104A02A98F
:1016500002F082FA08B1FFF77DFDFFF7C3FF0368D0
:10166000D3F81045FFF7BEFFE2B24FF4703101240A
:1016700021FA02F202232146009402F04FFBFFF709
:10168000B1FF02F0D5FA034B1C7004B010BD00BFCF
:1016900001160000080C002008B5FFF761FD0A4B99
:1016A0001B782BB9FFF7CCFFBDE80840FFF756BD0C
:1016B000FFF798FF02F0FEFA0028F5D1FFF792FF3E
:1016C00002F0B6FAF0E700BF080C002038B5FFF7CB
:1016D00047FD0B4B1B78012B0FD1FFF783FF022136
:1016E00002F0F4FA04460FF015FA0546FFF736FD4E
:1016F0004FF4705000FB054038BD0024F3E700BFF5
:10170000080C002030B50F4D8BB02EF099FF0FCD97
:1017100001AC0FC40FCD0FC42B68236001A831F0BA
:10172000C9FDFFF775FD01202FF004F82EF0AEFF84
:10173000032801D12EF0B6FF01202EF0FFFF0BB0E1
:1017400030BD00BF046F03002EF076BF07B502ABBB
:1017500023F8020D18462EF06DFF03B05DF804FB70
:1017600007B502AB23F8020D18462EF067FF03B051
:101770005DF804FB10B54FF47054444320462EF03E
:10178000B6FF0028FAD010BD2EF03EBF2EF04BBFA2
:1017900010B504462EF049FF207010BD003018BF70
:1017A00001202EF0C9BF003018BF01202EF0C2BFAB
:1017B000003018BF01202EF0BBBF08B92EF075BF56
:1017C0002EF07BBF08B52EF061FFC31E5842584172
:1017D00008BD08B52EF05AFF023818BF012008BD19
:1017E00013B50446032C104608D0042C10D0012C4D
:1017F00014D12EF0B4FF204602B010BDA1F59C42DA
:101800000093203A44F6206300212EF068FFF3E7AE
:10181000002102B0BDE810402EF055BF0020EBE7DC
:1018200010B50C46FFF7F0FC036A01330362204653
:10183000BDE8104004F046B92EF05EBF10B50C466E
:10184000072942D8DFE801F004171D23292F353B73
:10185000FFF7DAFC436A01334362012000FA04F423
:1018600014F0DA0F03D114F0240F2ED00420BDE8B9
:10187000104004F061B9FFF7C7FC836A013383624B
:10188000EBE7FFF7C1FCC36A0133C362E5E7FFF78B
:10189000BBFC036B01330363DFE7FFF7B5FC436B6E
:1018A00001334363D9E7FFF7AFFC836B01338363F5
:1018B000D3E7FFF7A9FCC36B0133C363CDE7FFF7A1
:1018C000A3FC036C01330364C7E710BD2DE9F041AD
:1018D00005460E4617469846FFF796FC0468013405
:1018E000046043463A4631462846BDE8F04104F0DC
:1018F00047B9000008B506280AD8DFE800F0040D53
:1019000013191F252B00FFF77FFC43680133436049
:10191000134B00221A6008BDFFF776FC8368013381
:101920008360F5E7FFF770FCC3680133C360EFE73E
:10193000FFF76AFC036901330361E9E7FFF764FC21
:10194000436901334361E3E7FFF75EFC83690133D9
:101950008361DDE7FFF758FCC3690133C361D7E753
:1019600064800020003218BF012211B111462EF010
:10197000F0BE11462EF0E4BE08B500202EF0ECFEBD
:101980000120BDE808402EF0E7BE0000C30710B5F7
:1019900007D4F0234008054A145C2340194311542E
:1019A00010BD0901C9B20F23F4E700BF180C0020D5
:1019B00030B5094B1C78094B196800239C4202DCA6
:1019C0000022104630BD11F83350854201EBC302AE
:1019D000F7D00133F2E700BF090C0020380C0020DB
:1019E00070B504460D46FFF7E3FF30B1436823B1FD
:1019F00029462046BDE87040184770BD034B044897
:101A000019680022490800F002BA00BF0C0C00203F
:101A10002000002010B5C0B2FFF7CAFF04460078CE
:101A200001F02EFF63785A1E53425341834208D17E
:101A3000044BD3E90023134303D1BDE81040FFF763
:101A4000DDBF10BD100C00202DE9F048384A4308D6
:101A50000446D35CC2074CBF1B0903F00F030D46BD
:101A6000042B63D8DFE803F003262F3B3E00002958
:101A70005CD00121FFF78AFF002000F0CDFA2D4E47
:101A80000121A4F12007C4F1200521FA05F501FA8E
:101A900007FC4CEA050C01FA04FBD6E900454BEAC9
:101AA00004024CEA0503C6E900230020BDE8F04823
:101AB00000F0B4BA002914BF022100212046BDE87D
:101AC000F048FFF763BF41B10321FFF75FFF2046F6
:101AD0000121BDE8F048FFF783BF0121EEE729BBF4
:101AE0000421EBE709B10321E8E7FFF74FFF29469F
:101AF0002046FFF775FF284600F08EFA0D4E0121B3
:101B0000A4F12007C4F1200001FA07FC21FA00F03B
:101B10004CEA000C01FA04FBD6E9000120EA0B02B2
:101B200021EA0C03C6E900232846BFE7BDE8F08898
:101B3000180C0020100C00202DE9F041124E134F1C
:101B400000243378A34208DC114BD3E9002313436C
:101B500018D0BDE8F041FFF751BF3D6805EBC40860
:101B600015F8340001F08CFE98F801104B1E594214
:101B700059410A1A514215F834005141FFF764FFE8
:101B80000134DEE7BDE8F081090C0020380C0020AC
:101B9000100C0020092AF7B505460C4616463FD919
:101BA00001F094FDD8B11F4B1F481D601F4B204F03
:101BB0001C70204B002120221E6033F0CAFA1E4BFD
:101BC00000200021C3E90001013CE4B20326FF2C00
:101BD0000BD11A4A1A48002100F00EF903E001F077
:101BE0003FFD0028DFD003B0F0BD9DF806308DF832
:101BF000046020B203F0FC0305EBC0026FF3820324
:101C00008DF80630937815F830008DF805303A4697
:101C100001A901F065FD013CE4B20028D7D0E2E75C
:101C20000720E0E7380C0020180C0020090C0020E9
:101C3000151A00000C0C0020100C0020391B0000AD
:101C4000286F030070B5084D084E00242B789C4285
:101C500001D3002070BD3368012113F8340001F076
:101C6000C5FD0134F2E700BF090C0020380C00204C
:101C70001FB50021039001AA44F20100CDE9011132
:101C8000FFF7C9FA05B05DF804FBD0E90223D1E9FA
:101C90000201994208BF90422CBF012000207047EA
:101CA0002DE900480C4800F0F1FA0C4BD3E9002371
:101CB00012EB000B43F1000C094BD3E900239C45C8
:101CC00008BF93455846614603D21BF180704CF122
:101CD0000001BDE8008800BF5C000020400C00202F
:101CE000A80C002037B505460C460A4801A900F0AB
:101CF000FEFA60B10570446001A9064800F021FBBE
:101D000018B1054800F0C6FA002003B030BD042029
:101D1000FBE700BF480000205C0000202DE93048B0
:101D20001A4B1B7804461BB900252846BDE83088AD
:101D30000028F9D090F8203003F0FF05002BF3D0F5
:101D4000FFF7AEFFD4E90223994208BF904217D3B0
:101D500023690BB984F82030D4E90530984721690C
:101D60000029E1D094F8203003F0FF05002BDBD0F0
:101D7000D4E9022312EB010B43F1000CC4E902BCCD
:101D80002146034801F09BF9CFE700BF480C002033
:101D9000606F030013B5114B1149186801900823B7
:101DA0005822104800F090FA044698B90E4A0F489D
:101DB00001A900F043F9044660B901210B4800F085
:101DC00045FA01230A4A0948194600F0A3F9094BCC
:101DD00001221A70204602B010BD00BF5C6F0300E4
:101DE0004C0C0020480000205D1E00005C0000201C
:101DF000FFFF7F00480C00203AB103685A614A1E79
:101E0000514251411961002070470720704738B591
:101E100090F8203004460D4683B98261FFF740FFF9
:101E2000421941F10003C4E90223236903B125618A
:101E300021460020BDE83840FFF754BF002038BDE0
:101E40000023014680F820300120FFF74BBF00003F
:101E5000014800F01BBA00BF5C0000202DE9F74FDD
:101E6000064600F0FCF940B15A49D1E9002312F1CD
:101E7000807443F10005C1E900450021304600F0BF
:101E8000FEF938B1544C236823B12068FFF746FFB0
:101E9000002323600121304600F0F1F920B1FFF763
:101EA000FFFE4E4BC3E9000101A94D484A4D4D4C80
:101EB0004D4F00F056FA002845D1DFF828A1464CD6
:101EC000DFF82CB1504601F010F92368002878D0D3
:101ED00083B12368D0E90201D3E90223994208BF04
:101EE00090422DD2236893F820301BB121685046D0
:101EF00001F0E5F8504601F0F2F8D0E90289074612
:101F0000FFF7CEFEB8EB000869EB010940464B46EF
:101F1000012873F1000347DB344DA84542D9FFF790
:101F200097FF42194FF496030021584600F016F926
:101F3000002841D1236813B9304600F0E3F8276048
:101F400003B0BDE8F08F0378012B20D00BD3022B18
:101F500014D14FF00008204601F0C1F8002836D017
:101F600080F82080F7E7436893F8202032B90122F7
:101F700083F820204168204601F0A1F801A9184803
:101F800000F01AFA01A9164800F0EBF993E741684E
:101F90002B68994202D100232B60EFE7204601F025
:101FA000A7F8EBE7BA68BDE70021584600F05CF9F6
:101FB0003846FFF7B3FE01E00D28F9D00023236077
:101FC00080E7002BBCD1304600F0A0F8B8E7012331
:101FD0003B70D3E7400C0020B00C0020A80C002080
:101FE00048000020606F0300480C0020FFFFB40091
:101FF0005C00002072B6024A136801331360704718
:10200000B40C0020034A1368013B136003B962B6A5
:10201000704700BFB40C0020FFF7ECBFFFF7F2BF22
:10202000435882B03BB10023435043580193019B76
:10203000012002B070471846FBE7000070B5284C3D
:102040004379284D44F82320274C04EBC3031B7924
:1020500073B16B88012B09D92448254B2549C01A37
:10206000C008000440F00200FEF776FD082070BDB5
:1020700003680A88C3F8082590F904308A78002B91
:102080004FEA4212AFBF03F1604303F00F031A4956
:10209000D2B2A9BF03F56143CA54D2B283F8002378
:1020A00090F9043015495E09012203F01F0302FA7A
:1020B00003F341F82630437904EBC30144F83300BD
:1020C0006B880A71022B09D90848094B0C49C01AC0
:1020D000C008000440F00300FEF73EFD0020C6E704
:1020E000C00C002018040020B80C0020E49003006D
:1020F0009C900300966F030014ED00E000E100E007
:10210000B86F0300036801221A6070470368012258
:102110005A607047F7B505684FF480348C40C5F8B5
:1021200008430568C5F848438D0005F5A0750668A5
:10213000ADB20027775175590195019D056801F5EC
:10214000A87122F07F4245F821200268C2F844437A
:1021500013B10368C3F8044303B0F0BD2DE9F3479E
:1021600099464FF48038036808FA01F8C3F84883A9
:102170000368C3F8088322F07F4502688E000F468B
:10218000D2F80415324406F5A076D2F84035C2F8EC
:102190004015B6B202684FF0000A42F806A05B1A7A
:1021A0009259009223F07F43012B0446009A0BD1F1
:1021B000254B4FF4806043F001039847236843F8B0
:1021C00006A09B590193019B2368D3F80465C3F8CB
:1021D0004483AB1B23F07F43012B07F5A8772368CB
:1021E00019D1013543F82750174B4FF4806043F065
:1021F000010398472368D3F804359E4209D1236828
:10220000C3F8448323680020C3F8048302B0BDE808
:10221000F0870D20FAE743F827502068D0F804151E
:102220006A1A013AC9F1FF1322F07F4203F57F4396
:102230009342EED3002AE2D1013540F827502368BB
:10224000D3F804359942D9E7906F0300026802235E
:10225000C2F8443311B10268C2F8043370474FF436
:1022600082710068FFF7DCBE4FF4803303FA01F19E
:102270000368C3F848130368C3F80813704789005C
:1022800001F5A07189B20068FFF7CABE0368D3F8F0
:102290000405704790F9043001215A0903F01F0327
:1022A00001FA03F34032024941F82230704700BF7F
:1022B00000E100E0024B034A1B681068184700BFAA
:1022C000C00C0020B80C002010B561B1B2FBF3F4D3
:1022D00003FB1424A4B244B9C0E9001484608281D1
:1022E000C381204610BD0E20FCE70920FAE737B570
:1022F00050E8013F9DB2C48925448489A54228BF86
:102300002D1B0489A54202BFBFF32F8F002207E0D7
:10231000C5EA030540E80154002CE9D14FF0010261
:102320008DF803200193019B9DF803200B6002F0C0
:10233000FF0322B10B880068184403B030BD184673
:10234000FBE70A884B889A4209D150E8012FC2EA7C
:10235000024240E80123002BF7D101207047002002
:10236000704737B550E8023F1FFAA3F5C488A5426D
:1023700002BFBFF32F8F00220DE0C489254484895A
:10238000A54228BF2D1BC3EA054540E80254002C96
:10239000E8D14FF001028DF803200193019B9DF8D5
:1023A00003200B6002F0FF0322B14B880068184441
:1023B00003B030BD1846FBE70A884B889A4209D122
:1023C00050E8022FC2EA224240E80223002BF7D154
:1023D000012070470020704750E8002F0B4640E86E
:1023E000003C9CF0000FF7D11046704750E8002FDA
:1023F00042EA010340E8003C9CF0000FF6D1104691
:10240000704750E8003F43EA010240E8002C9CF08E
:10241000000FF6D11046704750E8002F02EA010382
:1024200040E8003C9CF0000FF6D11046704750E8A1
:10243000003F03EA010240E8002C9CF0000FF6D1B7
:102440001046704750E8003F03EB010240E8002CC3
:102450009CF0000FF6D11046704750E8003FA3EB08
:10246000010240E8002C9CF0000FF6D110467047A6
:102470000121FFF7BBBF0121FFF7C3BF0021FFF719
:10248000CBBF0021FFF7D3BF10B590B1D0E9012336
:1024900001689B1ADBB20A60013BDBB2FF2B0268CA
:1024A00002D10020107110BD11684C1C14600B701B
:1024B000F2E70E20F7E738B504460020FFF7ACFD41
:1024C0002268616813688B4215D9591E116013F890
:1024D000015CA28AE36802FB05352268A3681168E3
:1024E0005B1A1179DBB2994200D213710020FFF719
:1024F00095FD284638BD0025F8E738B5054600208B
:102500000C46FFF789FD2A681368591C1160E968B9
:10251000641AA98AB4FBF1F41C700020BDE83840AD
:10252000FFF77CBD10B5826804462AB14369016893
:10253000006998470023A36010BD0EB403B503994A
:1025400029B102AA04AB42F8043D00F073F802B0CE
:102550005DF804EB03B070470A2938B504460D4610
:1025600002D10D21FFF7F8FFA3682268591CA16072
:10257000D554D4E901329A4204D32046BDE838400C
:10258000FFF7D0BF38BD00002DE9F84F9946DDE9CF
:102590000A431746824688460A460126BA420FD2A7
:1025A0004E4538BF4E4613F0010B01D164B90024EB
:1025B0000125B9F1010F1AD909F1FF397D43F8E777
:1025C000B2FBF7F20136E9E79B070ED5B9F1000F30
:1025D0000CBF30252025A642EAD2013C29465046B0
:1025E000FFF7BAFF002CF6D1E1E72025F3E7B8FBAF
:1025F000F5F39F42E2D9DFF83890B8FBF5F3504687
:1026000019F8031005FB1388FFF7A6FFB5FBF7F5D4
:10261000002DF2D1BBF1000F02D00CB1A64201D3C4
:10262000BDE8F88F20215046013CFFF795FFF4E705
:10263000CA6F03002DE9F74F054690460E46002964
:1026400000F03A8116F8011B002958D0252940F0E6
:10265000D180002702E047F001071646324612F803
:10266000013B2D2BF7D0302B04D02B2B05D147F07D
:102670000407F2E747F00207EFE700242A2B06F1F0
:1026800001021BD1D8F80030191DC8F800101B68D2
:1026900016461C4433782E2B1CD101364FF0000A0D
:1026A000314611F8012BA2F13000092814D80A2371
:1026B00003FB0A23A3F1300A0E46F1E712F8013CAE
:1026C000A3F130010929E5D80A2101FB0434303C8B
:1026D0001646D3E74FF0000A324612F8011B01F00C
:1026E000FB0068281646F8D0692916D054D8582916
:1026F00070D00ED825297DD03378002BA2D12B7B2A
:10270000002B00F0D980284603B0BDE8F04FFFF75A
:1027100009BF632968D06429EED1D8F80020111DC3
:10272000C8F80010D2F8009089EAE972A2EBE972C9
:102730004FF0010B092A61DCD34538BFD3462CB1D9
:10274000B9F1000F01DB790700D5013CBA0702D5CA
:10275000BAF1000F04D0FB0702D4002C54D100249E
:10276000B9F1000F58DAC9F100092D212846FFF709
:10277000F3FE07F00302022A05D1BAF1000F02D1DD
:10278000002C4DD10024CDE9004753460A2249468A
:102790002846FFF7F9FEAFE7732954D016D8702901
:1027A000AAD1D8F800301A1DC8F8002030212846D8
:1027B0001C68FFF7D1FE78212846FFF7CDFE0022E6
:1027C0000823CDE9003221461022E1E775292FD0F8
:1027D000782991D1D8F800100A1DC8F80020CDE959
:1027E0000047534610222CE0D8F800301A1DC8F8D4
:1027F000002019782846FFF7AFFE7DE70A230BF18A
:10280000010B92FBF3F295E7A345A9D220212846BC
:10281000013CFFF7A1FEA0E77807AAD52B21A5E789
:10282000A345B0D230212846013CFFF795FEA7E72B
:10283000D8F80010CDE900470A1DC8F8002053461B
:102840000A220968A4E7D8F800301A1DC8F8002049
:10285000F907D3F8009012D54F46A7EB090B17F8EC
:10286000011B41B9A345BFF447AF20212846013CD5
:10287000FFF772FEF6E72846FFF76EFEEDE7B9F1C7
:10288000000F17D0484632F0C7FF0746BC4200D9B8
:1028900054B909F1FF3919F8011F00293FF42CAF91
:1028A0002846FFF759FEF6E720212846013CFFF7AE
:1028B00053FEEBE74F46E9E703B0BDE8F08F0000B9
:1028C00007B50B46A0B9154B5B886BB1144B154887
:1028D000154AC01A0E23C0080093144B0004144973
:1028E00040F00100FEF750F90E2003B05DF804FB44
:1028F0006BB90A4B5B88002BF6D0094B09480D4A8F
:10290000C01AC0080E2300930004084BE7E70360D9
:102910001B68114603B05DF804EB1847380400202B
:102920009C9003002491030087700300DA6F03007A
:102930008C700300037103002DE9F3419646B0B992
:10294000504B5B88002B00F095804F4B4F48504A0E
:10295000C01AC0080E244F4B009400044E4940F0AA
:102960000100FEF711F9204602B0BDE8F0816AB916
:10297000444B5B88002B7DD0434B4448474AC01AE8
:10298000C0080E2400040094424BE7E7D0F800C0D2
:10299000BCF1000F0DD13B4B5B88002B6CD03A4B48
:1029A0003A483F4AC01AC008082400040094394B32
:1029B000D4E76BB9334B5B88002B5FD0324B334885
:1029C000384AC01AC008092400040094314BC5E7F6
:1029D0004768D7F80480B3FBF8F708FB17376FB1E7
:1029E000284B5B88002B49D0274B28482E4AC01A19
:1029F000C008092400040094264BAFE78F070DD0D0
:102A0000204B5B88002B3BD01F4B2048274AC01A25
:102A1000C0081024000400941E4B9FE712F0030F1F
:102A20000CD0184B5B885BB3174B1848204AC01A70
:102A3000C008102400040094164B8FE7C768B94201
:102A40000BD34C1E05691C44AC4206D8DCF80C4084
:102A5000A44602B0BDE8F04160470A4B5B887BB1F9
:102A6000094B0A48134AC01AC008102400040094F5
:102A7000084B73E70E2476E7082474E7092472E70D
:102A8000102470E7380400209C9003002491030078
:102A900087700300EC6F03008C7003000971030062
:102AA000FD700300BC7003000F7103003971030057
:102AB0005171030074710300F7B5A0B9374B5B88FF
:102AC000002B63D0364B3748374AC01AC0080E2453
:102AD000364B00940004364940F00100FEF754F8EC
:102AE000204603B0F0BDD0F800C0BCF1000F0DD1FE
:102AF0002A4B5B88002B4BD0294B2A482D4AC01A01
:102B0000C008082400040094284BE4E76AB9234B6A
:102B10005B88002B3ED0224B2248274AC01AC008AF
:102B2000092400040094214BD5E74768D7F800E05A
:102B30000EF1FF370F420CD0184B5B8863B3184B74
:102B400018481E4AC01AC008102400040094174BED
:102B5000C1E7C768B9420CD34C1E05690EFB02449D
:102B6000AC4206D8DCF81040A44603B0BDE8F04003
:102B700060470A4B5B887BB1094B0A48104AC01A70
:102B8000C008102400040094084BA4E70E24A7E713
:102B90000824A5E70924A3E71024A1E738040020AE
:102BA0009C9003002491030087700300FF6F0300D3
:102BB0008C700300FD700300BC70030012700300F2
:102BC00038700300014B436000207047A871030078
:102BD0000846704700207047024B1868003018BF45
:102BE00001207047C40C002008B50248FFF749FCDB
:102BF000002008BDC40C002008B510461A4632F06B
:102C000084FA002008BD00002DE9F041804686B01E
:102C100013480E4615461F46FFF72AFC044630B1FE
:102C2000112018E006EB043000F022FC0134A5422C
:102C3000F8D10B48FFF725FCD8F8083000246BB119
:102C4000022268468DF80020CDE90146CDE9034512
:102C500005979847204606B0BDE8F0811846FAE788
:102C6000C40C00202DE9F041804686B012480F4682
:102C700016461D46FFF7FCFB0446D8B9AA083146A4
:102C8000384600F00DFC0C48FFF7FBFBD8F8083085
:102C900073B101228DF800200C9A05926846CDE9A7
:102CA0000147CDE903659847204606B0BDE8F081AD
:102CB0001846FAE71120F8E7C40C00202DE9F04788
:102CC000B0F806904479D2F800A09DF8208009FB66
:102CD00004F4043C06460AEB0300A0420F4688BFFA
:102CE000A4EB030A191DC2F800A0B1FBF9F509FB1A
:102CF00015114DB9A9EB0104544528BF5446BAF14A
:102D0000000F04D1BDE8F0873668013DF1E70431DA
:102D10007B1970182246B8F1000F0ED001461846F4
:102D2000AAEB040A32F0F1F9D145254436684C4645
:102D30004FF0000128BF5446E1E71946F0E7FFF7DE
:102D4000A3BBF8B546790146721E0546002393429F
:102D50002D6803D30024A64202D8F8BD0133F6E75C
:102D60000F682846FFF7C9FB01343946F3E72DE920
:102D7000F843CD1C868A0746FFF79DFB043E354489
:102D80000446B5FBF6F5F0B14FF48073EDB28380E5
:102D9000C680013D076081464FF00008A84512D269
:102DA0003846FFF788FB064648B163790133637103
:102DB00008F10108C9F8000007608146EEE72046E7
:102DC000FFF7BFFF34462046BDE8F88301210430F9
:102DD000FFF738BB10B5012104460430FFF73DFB77
:102DE00010F0FF0F04D12046BDE81040FFF7A9BF47
:102DF00010BD1FB504AC44F8042D002200922246F9
:102E0000FFF75CFF04B010BD1FB504AC44F8042DFF
:102E1000012200922246FFF751FF04B010BD0000CE
:102E200008B50020FFF7F8F8F1EE103A23F09F0301
:102E3000E1EE103ABFF35F8F054B4022C3F88421C7
:102E40000020FFF7EBF820BF40BF20BF08BD00BF48
:102E500000E100E0026813685268934291BFD01A03
:102E600080680130801888BFC01A70472DE9F04192
:102E700003681F681D685B689D4284BF83680133D7
:102E8000164688465D1BC2684168AE42044607FB91
:102E900002110CD87243404632F037F9A3683E4421
:102EA0009E4288BF002623681E60BDE8F08105FBB6
:102EB00002F73A46404632F028F9E2686168751B2D
:102EC0006A4308EB070032F020F923681D60ECE745
:102ED000036881681A685B688B4234BF0133002342
:102EE000D31A584258417047F8B5044600200D46A1
:102EF000FFF792F82046FFF7EBFF10B1237C002B81
:102F00003DD12168A6684B684A68B24234BF01329D
:102F100000224A6038B12168A0680A68824234BF42
:102F2000013200220A60E2686068511E072920D839
:102F3000DFE801F004101F141F1F1F182A78C25465
:102F40002046FFF787FF23689A68824200D2986084
:102F5000002415E02A8820F81320F1E72A6840F8B9
:102F60002320EDE7D5E9006700EBC300C0E9006767
:102F7000E6E7294602FB030032F0C7F8E0E7042445
:102F80000020FFF74BF82046F8BD70B505460E4609
:102F9000144682B10020FFF73FF82846FFF75AFF9A
:102FA000A0420AD3224631462846FFF75FFF00249D
:102FB0000020FFF733F8204670BD0524F8E710B570
:102FC00004460020FFF728F82046FFF743FF044699
:102FD0000020FFF723F8204610BD8268002393608D
:102FE00082681361826853618268D360826853602B
:102FF000826813607047F8B505460F4616461C46B2
:1030000083B9AB686868D3E9031300F1010CCA1AED
:1030100062450ED10027376014B3A868FFF731FA74
:103020000020F8BD8068FFF723FA0028E9D01120BE
:10303000F7E701EA00021840824236BF6344ACEB76
:1030400002035B1A3168994294BF316033602B6888
:1030500013443B60AA683168D3680B44D360DFE750
:103060002046DEE738B5846843682569A2680133E5
:103070002B449B1A8B420CD30A44A26083689A6843
:10308000DA608068FFF7FAF900280CBF08200020FA
:1030900038BD0420FCE710B5826813699468E41A0F
:1030A0008C420AD30B44136183681A695A618068A1
:1030B0000430FFF7E6F9002010BD0420FCE770B5EE
:1030C000446806460D46206818B1B36829469847FB
:1030D00018B923682B60256070BD2468F3E7436846
:1030E000186808B102681A6070474368186870472A
:1030F0004368186800B970478842026802D11A60B4
:103100000120704703461046F4E7000038B5084C2C
:1031100004F108030546002818BF1C4623682BB19C
:103120001A6822605B6828469847F7E738BD00BFF9
:10313000D00C002020B9054B01225A70FFF7E6BFE2
:10314000012802D1014A9070F8E77047C80C0020AE
:1031500038B5094C23786BB908486360A3602361D4
:10316000E36000F0BDF9054600F0C6F901232370C5
:10317000284638BD8525FBE7C80C00203531000006
:1031800038B5134CA378054603F0FF0073B115B1B1
:103190006B68012098470020FEF73EFFE36801338B
:1031A000E3600020BDE83840FEF738BFFEF734FF8B
:1031B00025B1226913463BB92A602561E368002BDB
:1031C000ECD100F0ABF9E9E79D42F7D01B68F2E7DC
:1031D000C80C002038B5134C6378054603F0FF0097
:1031E00073B115B16B68002098470020FEF714FFFB
:1031F0006368013363600020BDE83840FEF70EBF0E
:10320000FEF70AFF25B1A26813463BB92A60A56004
:103210006368002BECD100F093F9E9E79D42F7D009
:103220001B68F2E7C80C002038B5084C0020FEF7F8
:10323000F3FE6368013B6360656815B900F092F9BD
:1032400065700020BDE83840FEF7E8BEC80C0020DD
:1032500007B502A901F8010D0548FFF745FE04482E
:10326000FFF736FE08B100F059FC03B05DF804FB2F
:103270008490030038B50C4D2B7893B90B4B0C4957
:10328000002808BF18460388284620F8013F00F0B0
:1032900005FC044618B900F02FFC01232B702046D2
:1032A00038BD8524FBE700BF2C0D0020EC71030026
:1032B0005132000010B504460248FFF780FE20702E
:1032C00010BD00BF8490030010B50A4601460448B3
:1032D000FFF75BFE044600F00FFC204610BD00BF68
:1032E000849003001FB503788DF800304368019384
:1032F00083688DF80830C3680393054A054B684618
:1033000053F8213052F82110984705B05DF804FBBE
:10331000300D0020380D00201FB503788DF80030E7
:103320004368019383688DF80830C3680393054AA6
:10333000054B684653F8213052F82110984705B0E4
:103340005DF804FB300D0020380D0020F0B5194B5E
:103350000778DFF870E043F82720174B94460A6996
:1033600043F827204B7F0EF807300C4606460FCC5B
:1033700089B06D460FC594E80F0085E80F003378DB
:1033800004971EF8033053B1BCF1000F0B4A694695
:1033900008BF0022301D01F033F809B0F0BDBCF1C8
:1033A000000F074A694608BF002206F10C0000F032
:1033B000E3FDF2E7380D0020300D0020E53200007B
:1033C0001933000094730020074A084B1360084A21
:1033D00003F110011160074A03F120011160064A50
:1033E0000120C2F804357047780D0020480D0020F8
:1033F000440D0020400D002000E0004010B5114BAE
:1034000004461868884202D0102231F07EFE0E4B2E
:103410000022C3F8002101221A604FF08070D3F817
:10342000002162B10022C3F80021084B1968A142B3
:1034300003D01022204631F068FE012001E001385F
:10344000EDD110BD440D002000E00040400D0020F3
:10345000024B01461022186831F057BE780D00204B
:10346000024AD2F80034002BFBD0704700E0014044
:103470000A4908B50223C1F80435BFF36F8FBFF3C3
:103480004F8FC1F80805FFF7EBFF0023C1F80435A3
:10349000BFF36F8FBFF34F8F08BD00BF00E0014047
:1034A0000E4B10B50124C3F80445BFF36F8FBFF373
:1034B0004F8F01EB8204401AA14208D1074B002232
:1034C000C3F80425BFF36F8FBFF34F8F10BD4318B0
:1034D00051F8042B1A60FFF7C3FFEDE700E001404D
:1034E000044A137923B901211060117118467047FD
:1034F000852070477C0D0020074B1A68D2075FBFFC
:10350000C02283F8002301221A604FF08043012279
:10351000C3F81825704700BF00E100E0074B002208
:103520001A6082B01B680193019B4FF08043022216
:10353000C3F8042301229A6002B0704704010040DE
:10354000074B00221A6082B01B680193019B4FF069
:1035500080430122C3F804231A6002B0704700BF01
:1035600000010040064B01221A604FF08042D2F861
:103570000C3403F00113B3F1011FF8D0704700BF02
:103580000400004007B5134B1A6862B100201860B0
:103590001B680093009B4FF080430122C3F808236F
:1035A0000D4B1B6898470D4B1A6882B100221A60B8
:1035B0001B680193019B4FF080430222C3F808234C
:1035C000054B1B68012003B05DF804EB184703B0FE
:1035D0005DF804FB000100407C0D00200401004068
:1035E00000F1804000F5C040002382B00360036812
:1035F0000193019B02B0704703681F2B83BF03F048
:103600001F03036001484FF0A040704700030050C3
:1036100007B502AB43F8040D1846FFF7EDFF019B19
:1036200000EB8300D0F8003723F44033C0F80037B4
:10363000D0F8003743EA0141C0F8001703B05DF845
:1036400004FB0000054B4FF0FF32072843F8202011
:1036500084BF1B1883F85220704700BF840D0020E0
:1036600010B5164C94F8643033BBFF21E2180133D7
:103670002A2B82F83010F9D10021C8B2FFF7E2FFFF
:1036800001310C29F9D1062200210D4831F061FDEC
:103690000C4BC02283F8062340221A604FF4BE7000
:1036A000FFF79EFF084B4FF00042C3F804230123AD
:1036B00084F86430002010BD0820FCE7840D002051
:1036C000E20D002000E100E000600040034B93F8B1
:1036D0006400003018BF0120704700BF840D002037
:1036E000F7B5404F3B18044693F93030002B944611
:1036F00075DA8B78C3F34003002B15BF002508252E
:1037000008200C20854202D1042003B0F0BD57F8F8
:10371000252001324FEA850649D1381947F825C0DE
:1037200080F8305013B97B1983F852408B785A07D0
:103730001BD4D8073DD502A840F8084DFFF75CFF21
:10374000009B00EB8300D0F8003723F00203C0F8A1
:1037500000372548E20804F0070C012303FA0CF3B4
:1037600010F802C043EA0C038354887891F800C033
:1037700010F002002AD006F1804303F5C043240272
:10378000D3F8102522F44F3222F44072C3F81025EA
:103790004FEA0C4CD3F8102504F47C540CF4403C54
:1037A00044EA0C041443C3F810450020ADE701358A
:1037B000A8E702A84A7840F8044DFFF71DFF019BD7
:1037C00003F5E073920040F82320C2E7083D3D4432
:1037D00095F85A4044EA8C1C85F85AC095E70820B1
:1037E00093E700BF840D0020E20D002073B5224C4A
:1037F0002518064695F93020072A1ADD224492F84A
:1038000052309B09032B10D102A840F8046DFFF73A
:10381000F3FE019AD0F81035D340DB0707D402211C
:103820003046FFF7F5FE02B070BD012BF7D0032143
:10383000F6E7D3B2072BF6D8930003F1804303F5E4
:10384000C043D3F8100540F00100C3F8100502F1A1
:103850004000800080B2FFF7C3FE0029E3D095F955
:10386000303054F82330002BDDD0012303FA02F26C
:10387000024BC3F80423D6E7840D0020006000400B
:1038800007B502AB43F8040D1846FFF7B5FE019BE0
:10389000D0F81005D84000F0010003B05DF804FB3B
:1038A0002DE9F04F002489B0CDE902445F4A604E13
:1038B000604D01211368A2F5C040012B80B206D1F2
:1038C000D6F804330B4202D0FFF78AFE0C430432D1
:1038D000AA424FEA4101EDD1574B1B68012B0ED193
:1038E0004FF4BE70FFF77CFE4FF0A04344F000445D
:1038F000D3F810350293514BD3F81035039314F0DD
:10390000FF0F1AD04E4F00250126344210D0AB00D5
:1039100003F1804303F5C043D3F81005D3F8101525
:1039200057F82530C0F30520C1F3014103B1984792
:103930000135082D4FEA4606E7D1002C72DA04AEB5
:103940000023049373604FF0FF33CDE906333C4FFF
:103950004FF0010800252C467B1993F95A20531C7F
:1039600047D0D2B222F0C00908A84FEAD90300EB31
:10397000030B02F007011BF8080C08FA01F10842DA
:1039800037D007EB0900920990F9300057F820A0D2
:10399000BAF1000F05D1032A2BD1F05C0843F05493
:1039A00001E0032AF9D001A8CDF80490FFF724FE26
:1039B000019B03F5E07350F823301BF8180C084204
:1039C000C3F3014305D0022B13D1032A0BD11146B7
:1039D00004E0032B0DD1032A05D102214846FFF74D
:1039E00017FE0134E4B2BAF1000F02D01146484686
:1039F000D0470135042DAFD1A4B14FF0A0430299B7
:103A0000D3F8102503F540739142D3F8103502D155
:103A10000399994206D002920393049A059B069259
:103A2000079397E709B0BDE8F08F00BF0061004041
:103A300000600040206100407C61004000030050B5
:103A4000840D0020014B1B68184700BFEC0D0020BF
:103A500038B50A4B98420D460CD10020FEF7DCFA2F
:103A6000074B1C7914B901221D601A710020FEF762
:103A7000D5FA0CB9002038BD1120FCE70020004029
:103A8000EC0D0020034B984201BF034B00221A604B
:103A90001A71704700200040EC0D002010B5124C48
:103AA0002278FAB9114B1960037813F0010F104B0B
:103AB0001EBFD3F8042542F00102C3F80425D3F851
:103AC000002222F00102C3F800224378094A5B0178
:103AD000DBB282F80D334FF40053136001232370DF
:103AE000002010BD8520FCE7F80D0020F40D00201B
:103AF00000D0004000E100E0064B00221A6082B0D6
:103B00001B680193019B044B0122C3F804231A6034
:103B100002B0704700D1004000D00040024A0123AB
:103B2000C2F808335360704700D00040074B0022B2
:103B30001A6082B01B680193019B054BD3F80805FE
:103B4000044B1B68C0B202B0184700BF00D1004050
:103B500000D00040F40D0020F7B50579314C0C265B
:103B60006E43A7193B7A002B5AD1A2514A687A605A
:103B70009C46467902685F1CDBB29E4246D8120B17
:103B800053B2CE78284F002BAEBF03F1604302F052
:103B90000F02264B4FEA4616F6B2AABF03F5614361
:103BA0009E5483F8006303681B0B5EB27609012202
:103BB00003F01F0302FA03F347F8263007684B7837
:103BC000D7F8046503F0030326F003063343C7F870
:103BD000043507688B78D7F8086503F0030326F0EF
:103BE00003063343C7F8083506680B78D6F8100586
:103BF00003F00F0320F00F010B43C6F810350C2320
:103C000003FB05440020227203B0F0BD9B0003F5C6
:103C1000A07342F803C0D3580193019B3B46A8E729
:103C20000820F1E7FC0D002000E100E014ED00E0C9
:103C3000036801221A600379034A0C2101FB032364
:103C400002221A72704700BFFC0D0020036804496D
:103C500001221A6103790C2000FB03131A727047CA
:103C6000FC0D002038B503681B0B5AB20121520924
:103C700003F01F0301FA03F320320C4941F822300C
:103C800003680025D3F80022C3F8005203684FF000
:103C9000FF320446C3F80823FFF7D8FF2379044A0C
:103CA0000C2101FB03231D7238BD00BF00E100E0C1
:103CB000FC0D00200379044A0C2101FB0323187A30
:103CC000831E584258417047FC0D002010B58B00F0
:103CD00040330268DBB20124D45001F5A8710368B7
:103CE00053F8210010BD73B54FF480348C40056843
:103CF0008BB18B0003F5A0730026EE50EB580193B7
:103D0000019B0368C3F80443036801F5A87143F8F5
:103D1000212002B070BDC5F80843F5E7F0B407688C
:103D20009DF810C0D7F8004240F201158D4024EAFA
:103D30000504C7F800420568D5F800422343C5F8DA
:103D40000032F0BC6346FFF7CEBF0000F7B5104E5F
:103D5000104F114D0024A3199B001A6892B1D7F897
:103D600004134FF48032A2400A420BD000221A60A2
:103D70001B68019304F150008000019B80B2D5E9DB
:103D8000003198470134062CE5D103B0F0BD00BFE7
:103D90005068001000A00140FC0D0020002343509B
:103DA00082B043580193019B02B070470A4610B598
:103DB0004FF48E71FFF7F2FF136A9168C95C136AC2
:103DC00001331362C0F81C1510BD10B58B690A468B
:103DD0004FF4847123B9FFF7E1FFD0F8183510BD17
:103DE000FFF7DCFF536AD168D0F81805C854536A4E
:103DF00001335362F3E700001FB501238DF8003053
:103E0000044BCDE90110D3E900126846904705B094
:103E10005DF804FB080E002030B54D4AD2F804339B
:103E200013F4007F85B015464FD0D2F82431002B13
:103E30004BD04FF492711046FFF7B0FF4FF401736F
:103E4000C2F80833434B93F8291009B90121516096
:103E50003F4902228DF80020D1F88024C1F8802447
:103E600003929A690292DA6801920022C3E906225B
:103E70006846D3E9001290473548D0F81C315BB151
:103E800034494A690B6A9A420A464CD991F828305B
:103E9000002B48D1FFF78AFF2D4AD2F8443193B165
:103EA0004FF4A2711046FFF779FF2A4B93F82910BF
:103EB00009B1012111609A692AB100229A61586AF8
:103EC000D968FFF799FF05B030BDD5F804335B071B
:103ED000D2D5D5F80831002BCED01E4C1C48214637
:103EE000FFF773FF636AA2699A422346C4D1E2696D
:103EF00052B12369E168E3600023606AA261E36173
:103F00006362FFF779FFB7E794F829200AB9012225
:103F10006A600F4A4FF40171C2F8081300229A61D7
:103F2000586AD968EDE74FF48E710948FFF736FFFC
:103F30005369002BB0D051690291002391688DF82C
:103F40000030019153616846D2E900139847A3E716
:103F500000200040080E00201F2886BF00F01F0030
:103F6000044B4FF0A04300F5E070022243F82020FC
:103F7000704700BF000300502DE9F8436C4F0679ED
:103F800091462C2202FB0672054692F82A200C4626
:103F9000002A40F0C68067490068FFF759FD804657
:103FA000002840F0C18023685A1C19D01F2B4FF005
:103FB00001028ABF60494FF0A04103F01F0302FADB
:103FC00003F3C1F8083523681F2B86BF03F01F03D6
:103FD000594A4FF0A04203F5E073032142F8231041
:103FE00061684B1C0BD01F2986BF01F01F01524B8B
:103FF0004FF0A04301F5E071002243F821202B6827
:10400000A269C3F82425217D637D2A680B43C2F889
:104010006C35D4E900122B68C3F81425C3F80C15CD
:10402000237D012B32D1A168481C0BD01F2986BFEC
:1040300001F01F01404B4FF0A04301F5E071002259
:1040400043F82120E3685A1C19D01F2B4FF00102BE
:104050008ABF39494FF0A04103F01F0302FA03F36E
:10406000C1F80835E3681F2B86BF03F01F03324AEF
:104070004FF0A04203F5E073032142F82310D4E986
:1040800002122B68C3F80825C3F810152C237343BC
:10409000FA18C2F804902269FA50B9F1000F2DD035
:1040A0004FF48E712868227FFFF778FE4FF4A271DB
:1040B0002868FFF773FE2B682049C3F804132968AA
:1040C000090B4BB2002BAEBF03F1604301F00F01AF
:1040D0001B4B4FEA4212D2B2AABF03F561435A54B6
:1040E00083F800232B681B0B5AB2012103F01F0336
:1040F00001FA03F35209134941F822302B680422D4
:10410000C3F800252C2303FB06730022C3E9062213
:1041100083F829205A61012283F82A204046BDE80D
:10412000F8834FF00808F9E74FF01108F6E700BFF1
:10413000080E0020193E000000030050800002001D
:1041400014ED00E000E100E02DE9F041036804799E
:10415000274D0022C3F800252C2303FB04530146FE
:104160005B6883B10368234AC3F8082303681B0B09
:104170005AB20120520903F01F0300FA03F3203260
:104180001D4840F822300B684FF0FF32D3F80C0581
:10419000D3F81485D3F80865D3F81075C3F814253F
:1041A000C3F80C250B689042C3F80825C3F8102506
:1041B00001D0FFF7D1FEB8F1FF3F02D04046FFF734
:1041C000CBFE7A1C02D03846FFF7C6FE731C02D025
:1041D0003046FFF7C1FE0868FFF754FC2C2303FBB1
:1041E0000454002384F82A306360BDE8F08100BFE6
:1041F000080E00208402020000E100E02DE9F047F3
:10420000224B07794FF02C0909FB073406466569F4
:104210009846002D36D16261A160256284F828504D
:104220004FF48E710068FFF7B9FD336801229A6080
:1042300021463068FFF7BAFD6368A14623BB3568A5
:10424000D4F814A0236A9A4511D83368D3F81C21F6
:10425000002AFBD00122DA6000202C2303FB078711
:1042600000237B61BDE8F08794F8283043B9D5F886
:104270001C31002BF8D049462846FFF797FDE1E7AF
:104280000F20EAE71120EDE72846EBE7080E0020B3
:104290000023435082B043580193019B02B0704702
:1042A0001FB501238DF80030044BCDE90110D3E98F
:1042B00000126846904705B05DF804FB340E0020FC
:1042C0001F2886BF00F01F00044B4FF0A04300F5ED
:1042D000E070022243F82020704700BF0003005026
:1042E0007FB5454AD2F82461002E63D010464FF4C2
:1042F0009271FFF7CDFF02238DF80030D2F88034A1
:10430000C2F880340393D2F83C3502933B4BDA6811
:1043100001920022C3E906226846D3E900129047C1
:10432000354AD2F844317BB14FF4A2711046FFF701
:10433000AFFF324B996939B10021C3E90611D96841
:10434000D2F83C05FFF7ACFF2B4AD2F82031B3B1CD
:104350004FF490711046FFF79BFF0123D360274B6A
:10436000596961B1D2F84C150291002299688DF813
:10437000002001915A616846D3E9001290471E4A15
:10438000D2F85831A3B14FF4AC711046FFF780FF5B
:104390001A4B596961B1D2F84C1502910022996803
:1043A0008DF8002001915A616846D3E900129047C8
:1043B00004B070BDD2F81031002BB1D04FF4887129
:1043C0001046FFF765FF0D4BD2F83C05996988420E
:1043D000A6D1DC69D96864B1D2F8005225F0200575
:1043E000C2F800521A699C61DA60DE61FFF758FF7B
:1043F00096E79C61FAE700BF00200040340E0020E1
:104400002DE9F843724F06799146242202FB067289
:10441000054692F820200C46002A40F0D3806D49D2
:104420000068FFF715FB8046002840F0CE80236827
:104430005A1C19D01F2B4FF001028ABF66494FF05A
:10444000A04103F01F0302FA03F3C1F80835236803
:104450001F2B86BF03F01F035F4A4FF0A04203F5F6
:10446000E073032142F8231061684B1C0BD01F2915
:1044700086BF01F01F01584B4FF0A04301F5E071DA
:10448000002243F821202B68A269C3F82425217D4E
:10449000637D2A680B43C2F86C35D4E900212B6890
:1044A000C3F80C25C3F81415237D012B32D1A16864
:1044B000481C0BD01F2986BF01F01F01464B4FF04F
:1044C000A04301F5E071002243F82120E3685A1C63
:1044D00019D01F2B4FF001028ABF3F494FF0A04176
:1044E00003F01F0302FA03F3C1F80835E3681F2B3A
:1044F00086BF03F01F03384A4FF0A04203F5E07374
:10450000032142F82310D4E902122B68C3F80825CE
:10451000C3F8101524237343FA18C2F804902269D3
:10452000FA50B9F1000F3CD04FF488712868227F0F
:10453000FFF7AEFE4FF490712868FFF7A9FE4FF425
:1045400092712868FFF7A4FE4FF4A2712868FFF764
:104550009FFE4FF4AC712868FFF79AFE2B681F4945
:10456000C3F804132968090B4BB2002BAEBF03F14B
:10457000604301F00F011A4B4FEA4212D2B2AABFB8
:1045800003F561435A5483F800232B681B0B5AB27E
:10459000012103F01F0301FA03F35209114941F805
:1045A00022302B680822C3F80025242303FB06735E
:1045B0000022C3E906225A61012283F820204046E6
:1045C000BDE8F8834FF00808F9E74FF01108F6E767
:1045D000340E0020E14200000003005010034200AE
:1045E00014ED00E000E100E02DE9F041324E0579E4
:1045F000242303FB056304465B6883B103682F4AE9
:10460000C3F8082303681B0B5AB20121520903F0B7
:104610001F0301FA03F32032294941F822302268AE
:10462000D2F8003223F02003C2F8003223680122BE
:104630005A604FF4AC712068FFF72AFE2368DA60F5
:104640002368D3F85821002AFBD00022C3F80025A4
:1046500023684FF0FF32D3F80C05D3F81485D3F854
:104660000815D3F81075C3F80C25C3F81425236872
:104670009042C3F80825C3F8102501D0FFF720FEAB
:10468000B8F1FF3F02D04046FFF71AFE7A1C02D075
:104690003846FFF715FE4B1C02D00846FFF710FE08
:1046A0002068FFF7EFF9242303FB0565002385F855
:1046B00020306B60BDE8F081340E00201003420012
:1046C00000E100E001F06043B3F1005F2DE9F0414B
:1046D00006463BD1204B0779242505FB0735984634
:1046E0006C69002C34D16A61A96000684FF4907144
:1046F000FFF7CEFD4FF4AC713068FFF7C9FD3368AA
:104700006A69A968C3F84415C3F8482533680122CB
:104710009A606B68F3B93368D3F82011D3F8582145
:1047200019B9002AF8D00F2009E0002AFBD1012294
:10473000DA603268D2F85831002BFBD000202423F5
:1047400003FB078700237B61BDE8F0811020FBE7B6
:104750001120F9E72046F7E7340E00200220FCF78D
:1047600053BC00002DE9F04781460D46FCF766FC7E
:104770000328044604D8012D04D024D3022D2FD0C1
:10478000BDE8F087194D47003A18A918AE5C4A7881
:1047900052B1DFF86880164842464FF48041FDF779
:1047A00036FB08B988F800903B192B449A78114BD6
:1047B0001A55002EE4D0104B1B68002BE0D0304679
:1047C000BDE8F04718470A48FDF73AFB074B04EBF2
:1047D000440213449E78074B1B5DB342D0D1E8E7F7
:1047E000024B00EB40041C446678E2E75A0E0020BE
:1047F00090000020750E0020700E0020580E002042
:1048000002210078FFF7AEBF08B5094B1B7853B102
:104810000020FCF7C7FB0120FCF7C4FB0320BDE828
:104820000840FCF7BFBBBDE80840FCF7CFBB00BFAA
:10483000590E0020F8B57B4C237805461BB10023A8
:104840002370FFF7E1FF172D00F28880DFE805F005
:104850000C17174354657680888D888D959A9A9A9F
:104860009A9AC4C9D1D9E4E4FFF7CEFF6E48FDF7A8
:10487000E7FA6E4B002204461A702046F8BD00206D
:10488000FCF768FBF8B10020FCF78CFB022D0CBF95
:104890004FF4E1614FF47A61644B1D704FF40040B6
:1048A0004FF47A740025E0FB01454FF4FA620023CF
:1048B0002046294631F0A6FE002201465A48BDE8AE
:1048C000F840FDF7A4BAFCF759FB022D0CBFC82134
:1048D0004FF4C871E0E70020FCF73CFB40B100203A
:1048E000FCF760FB4FF44871504B03221A70D5E778
:1048F000FCF744FBC821F7E70020FCF72BFB38B19D
:104900000020FCF74FFB4FF47A61484B0422EDE79F
:10491000FCF734FB4FF4C871F7E70020FCF71AFBF3
:1049200048B10020FCF73EFB404B05221A7040F6D0
:10493000CD410022C2E7FCF721FBF5E70020FCF7A0
:1049400063FB3A4B06221A70002240F26661B5E71B
:104950000020FCF713FB354B07221A7000248CE76C
:1049600001202070FCF750FBEEE701202070FCF7DF
:104970004BFB00224FF40051A0E7FCF736FB2B4B1A
:104980000C22EAE72A482B4EFDF75AFAD5F1110519
:1049900004461CD0D8B9012D13D0C8235D434FF471
:1049A00000474FF47A7000214FF4FA620023C7FBEE
:1049B000050131F027FE224601461D48FDF727FA82
:1049C00004460220FCF7DAFA0123337055E702208F
:1049D000FCF7E8FA0023F8E7FFF716FF134B122263
:1049E000BBE7FFF711FF0020FCF7C8FA0F4B1322BB
:1049F000B3E7FFF709FF0120FCF7C0FA0B4B1422C5
:104A0000ABE7FFF701FF0020FCF7B8FA0120FCF745
:104A1000B5FA064B1522A0E7FCF7E7FA034B1D7029
:104A20009CE700BF6C0E0020B8000020740E002030
:104A300068000020590E0020044B1B68DB0703D5DB
:104A4000034B1878FFF7F6BE704700BF680E0020D2
:104A5000740E002038B51C4B18601C4B10F002047B
:104A6000054619601AD01A4B1A480E221A700F22E6
:104A7000DA7010229A7111225A72042140F23332F4
:104A8000FDF788F8044648B9FDF7DCF8044628B974
:104A90000146114A1148FDF7AFF90446EB0711D55D
:104AA0000120FCF7DDFA6CB921460D4A0D48FDF7EF
:104AB000A3F9044630B90C4A0C480121BDE838403E
:104AC000FDF79AB9204638BD680E0020700E002010
:104AD0005A0E00202C72030001480000507203009F
:104AE000394A0000547203005D4700004C72030015
:104AF00008B5094B5B88022B09D90848084B0949BE
:104B0000C01AC008000440F00300FCF725F802209A
:104B1000BDE80840FCF746BA10040020D49003001A
:104B20009C900300137303000E2810B50246194C25
:104B300020D10022FF2118480BF0A8FD022013F01D
:104B400035FF638868B1022B23D91448144B1549EB
:104B5000C01AC008000440F00300BDE81040FBF795
:104B6000FBBF022B15D90D480D4B0F49C01AC008C9
:104B70000004F0E76388022B0BD90948074B0B4967
:104B80001B1ADB081B0443F00300BDE81040FBF7D1
:104B9000E7BF10BD10040020F14A0000D4900300CC
:104BA0009C900300A6720300C6720300F272030019
:104BB000F0B585B004A9002341F8083D054611F081
:104BC000C1FA0446284606F0D3FE062C024650D011
:104BD000072C00F0AE80022C40F0E680854C638804
:104BE000022B0BD9844B85488549C01AC008029B0B
:104BF00000049A8840F00300FBF7B2FF0022FF2177
:104C000080480BF043FD00287FD16388022B09D92F
:104C10007A48794B7C49C01AC008000440F0030070
:104C2000FBF79AFF42F6B452002176480BF00EFDD6
:104C300046420746002E68D0638893B13046FCF7A1
:104C40004DFA6E4C6C4B7149E41AE408B623240407
:104C500001936F4B00933246034644F00100FBF78B
:104C60009FFFFBF7EDFD0028FBD1C7F59C402030EE
:104C70003DE0604C638800283CD1022B09D95F4895
:104C80005D4B6449C01AC008000440F00300FBF704
:104C900063FF022013F08AFE012836D063885BB1DF
:104CA000554B56485A4A5C49C01AC00800048C2328
:104CB00040F00100FBF75EFF638893B10120FCF731
:104CC0000DFA4E4C4C4B5149E41AE4088C23240451
:104CD000019301224E4B0093034644EA0200FBF786
:104CE0005FFFFBF7ADFD0028FBD144F62160FCF728
:104CF000BFFF0AE04BB14048404B48491B1ADB0854
:104D00001B0443F00100FBF72BFF10F0D3FF00283A
:104D10006CD003AAFF213B480BF03EFD002865D173
:104D20000220FCF72BF915B1284606F0C1FB05B0AF
:104D3000F0BD002834D12F4C6288022A09D92F48AF
:104D40002D4B3749C01AC008000440F00300FBF7A0
:104D500003FF42F6B45200212A480BF077FC46428A
:104D60000746EEB1638893B13046FCF7B7F9234CA0
:104D7000214B2649E41AE408A52324040193244B7B
:104D800000933246034644F00100FBF709FFFBF7AE
:104D900057FD0028FBD1C7F59C402030FCF768FF89
:104DA000002004F05BFAB0E7284600F043FA4642E0
:104DB0000746002EA9D00F4B5B8893B13046FCF715
:104DC0008DF90E4C0C4B1149E41AE408BD23240460
:104DD00001930F4B00933246034644F00100FBF76A
:104DE000DFFEFBF72DFD0028FBD13EE70220FCF79C
:104DF000D9F898E7100400209C900300D490030099
:104E0000EF730300F14A0000247403007F73030072
:104E1000447303002D73030054730300967303005F
:104E2000D67303007FB5FCF7B5FF08B1FCF720FF90
:104E30004FF480410020FBF71DFC08B1FCF718FF80
:104E4000FBF738FB26490320FFF704FE08B1FCF707
:104E50000FFFFCF7BBF8234B00241C70224B1C8077
:104E6000224B1C7007F0AAFA07F0AAFA02A8FCF776
:104E7000AFF902A80BF0EEFE4FF480300BF010FFFC
:104E80000A200BF017FF204600F06EF90BF018FF18
:104E900045420646F5B1164B5B8893B12846FCF7B0
:104EA0001DF9144C144B1549E41AE408F2232404A8
:104EB0000193134B00932A46034644F00100FBF78D
:104EC0006FFEFBF7BDFC0028FBD1C6F59C402030EF
:104ED000FCF7CEFE0BF0F6FEFBF7B2FCFAE700BFE4
:104EE000294B00001C0100201E0100202001002091
:104EF00010040020D49003009C9003007F730300F3
:104F000044730300054B1B680D2B01BF044B18684D
:104F1000B0FA80F0400918BF00207047300100103F
:104F20003401001008B5FFF7EDFF40B14FF08043AA
:104F30000022C3F80C21C3F81021C3F83825FFF76D
:104F4000E1FF002846D04FF080524D4BD2F80414B8
:104F5000C3F82015D2F80814C3F82415D2F80C149D
:104F6000C3F82815D2F81014C3F82C15D2F814146D
:104F7000C3F83015D2F81814C3F83415D2F81C143D
:104F8000C3F84015D2F82014C3F84415D2F82414FD
:104F9000C3F84815D2F82814C3F84C15D2F82C14CD
:104FA000C3F85015D2F83014C3F85415D2F834149D
:104FB000C3F86015D2F83814C3F86415D2F83C145D
:104FC000C3F86815D2F84014C3F86C15D2F844241D
:104FD000C3F87025FFF796FF48B14FF08043D3F830
:104FE0000024D20744BF6FF00102C3F80024254A11
:104FF000D2F8883043F47003C2F88830BFF34F8F83
:10500000BFF36F8F4FF01023D3F80022002A03DB89
:10501000D3F80432002B2FDA1B4B0122C3F80425EE
:10502000D3F80024002AFBD04FF010221221C2F83E
:105030000012D3F80024002AFBD04FF010231222D4
:10504000C3F80422104B1A46D3F800140029FBD0F1
:105050000021C3F80415D2F80034002BFBD0BFF3B5
:105060004F8F0849094BCA6802F4E0621343CB60D2
:10507000BFF34F8F00BFFDE7054B064A1A6008BD1E
:1050800000C0004000ED00E000E001400400FA052F
:10509000180100200090D003022013F087BC00000C
:1050A00010B50F4C2378D3B10022FF210D480BF02F
:1050B000EDFA0D4B88B918700C4B20705B88022BF1
:1050C0000DD90B480B4B0C49C01AC008000440F026
:1050D0000300BDE81040FBF73FBD01221A7010BD70
:1050E000216F002099500000226F00201004002042
:1050F000D49003009C9003005F74030008B510F087
:10510000D9FDE8B90F4B1B78D3B10F4B0F4A18707C
:105110001378ABB9012111700D4A13700D4A137049
:105120000D4B5B88022B0BD90C4B0D480D49C01A57
:10513000C008000440F00300BDE80840FBF70CBDC8
:1051400008BD00BF246F0020206F0020216F0020C9
:10515000226F0020236F0020100400209C90030089
:10516000D49003003D74030007B500BB124B0C2222
:10517000C3F818270A22D3F81015013AC1F3801199
:105180000191F8D1019B73B90C4B5B88022B09D9B3
:105190000B480C4B0C49C01AC008000440F0030037
:1051A000FBF7DAFC0120044B0222C3F8182703B0F6
:1051B0005DF804EB0BF05CBD000300501004002010
:1051C000D49003009C900300C07903002DE9F84FB0
:1051D0001C469DF8283080468946924663B1661E7B
:1051E000002BDFF838B014BF4FF0FF370127002540
:1051F00024B92846BDE8F88F1E46F1E71AF80630B4
:105200005A46A9EB050108EB050030F0C9FA002861
:10521000F0DB013C05443E44E4B2E9E7B569030034
:1052200007B5012300930823FFF7D0FF03B05DF813
:1052300004FB00002DE9F0438BB00AA9002341F8DC
:10524000203D074610F07EFF8046384606F090FB72
:1052500005460BF029FDA14E0446B8F1140F00F2EB
:105260000383DFE818F01C007A005C02F7010103F9
:105270009000CD006501B601A30201031C001102DC
:10528000010301030103150095026A023302D502EE
:10529000934CB4F8028075B1B8F1020F01D8012522
:1052A0006FE09048904B9149C01AC00800042A460C
:1052B00040F00300A1E01122294605A8029F2FF02B
:1052C00048FFB8F1020F09D98648874B8849C01AB0
:1052D000C008000440F00300FBF73EFC07F1100299
:1052E000112105A8FFF79CFF002803DA814905A8D2
:1052F00030F08AFA6388022B0DD905A8FBF764FA0F
:10530000794A784B7C499B1ADB081B04024643F020
:105310000300FBF725FCF8680BF088FCF8680BF03D
:1053200091FC6388022B0AD96E486F4BFA68734967
:10533000C01AC008000440F00300FBF711FC6388AA
:10534000022BACD96748684B6D49C01AC0080004ED
:1053500040F00300FBF700FCA1E701233370604B32
:105360005B88022B09D95F485F4B6649C01AC008A9
:10537000000440F00300FBF7EFFB002013F016FBE6
:105380000546002484E0564F7A88022A09D95548F8
:10539000554B5D49C01AC008000440F00300FBF7FC
:1053A000DBFB7B88EDB974B1022B09D94D484E4B1C
:1053B0005649C01AC008000440F00300FBF7CCFBBC
:1053C000FFF79CFE6BE7022B09D94648464B504934
:1053D000C01AC008000440F00300FBF7BDFB042026
:1053E000CCE7002B3FF45BAF3E483F4B4949C01A26
:1053F000C00800042A4640F00100FBF7B1FB4EE76D
:10540000374F5DBB1122294605A82FF0A2FE03A845
:105410000BF028FC03AA112105A8FFF701FF0028C3
:1054200003DA344905A830F0EFF9FFF739FE7B883D
:10543000022B7FF634AF05A8FBF7C6F9294C0546C9
:1054400000F0DCFD284B3449E41AE40843882404C6
:105450002A4644F00300FBF78DFB20E77B8840B130
:10546000022BADD91F48204B2C49C01AC00800049C
:10547000A2E7002B3FF413AF1A481B4B2849C01A70
:10548000C00800042A4640F00100FBF769FB012533
:105490003378C3B123490B78ABB1234B1A78002A78
:1054A00000F0F28100221A700D4B0A705B88022B0B
:1054B00009D90C480C4B1D49C01AC008000440F023
:1054C0000300FBF749FB24B915F1FF3418BF4FF077
:1054D000FF3420460BB0BDE8F08300BF246F0020EE
:1054E00010040020D49003009C90030081740300FA
:1054F000C1740300E7740300EF7403000175030037
:1055000015750300427503005B7503002D730300DE
:105510007D75030095750300C475030018760300BC
:1055200096730300216F0020226F00205F74030038
:10553000A54F75BB1122294605A82FF00AFE03A826
:105540000BF090FB03AA112105A8FFF769FE0028C4
:1055500003DA9E4905A830F057F97B88022B11D950
:1055600005A8FBF731F99A4D074600F047FD994B26
:105570009949ED1AED082D0443883A4645F0030099
:10558000FBF7F8FA0CB1FFF78BFD002003F066FE85
:1055900085E67B8878B1022B0AD98D488D4B8F49DF
:1055A000C01AC00800042A4640F00300FBF7D8FAEE
:1055B000FFF7A4FDE9E7022BE7D98548854B884929
:1055C000C01AC00800042A4640F00300FBF7C8FADE
:1055D000DBE77D4C4DBB1122294605A82FF0B9FD14
:1055E00003A80BF03FFB03AA112105A8FFF718FE43
:1055F000002803DA754905A830F006F96388022B04
:1056000011D905A8FBF7E0F8714C054600F0F6FC4F
:10561000704B7449E41AE408240443882A4644F091
:105620000300FBF7A7FA0220A8E66388022B0AD939
:105630006748684B6C49C01AC00800042A4640F00D
:105640000300FBF78DFA4122042168480AF0FEFFAF
:1056500004461CE75C4B5B8855B9022BA8D95D4B0F
:105660005B486349C01A029BC00800041A799BE793
:10567000002B8AD05648574B5E49C01AC008000418
:105680002A4640F00100A1E7029D1122002105A851
:105690002FF05FFD2A1D112105A8FFF7C1FD00288D
:1056A00003DA4A4905A830F0AFF8474B5B88022B74
:1056B0007FF6F5AD05A8FBF787F8454C454B4E49FD
:1056C000E41AE40824042B7B0246C2E6029D112260
:1056D000002105A82FF03DFD2A1D112105A8FFF787
:1056E0009FFD002803DA394905A830F08DF8364BC4
:1056F0005B88022B7FF6D3AD05A8AF89344CFBF74E
:1057000063F8344B3D49E41AE408AB7B009324046E
:1057100003463A4644F00300FBF736FABFE52A4B4E
:105720005B88022B7FF6BBAD2A4B29483449C01A4F
:10573000029BC00800049A88BAE5029D112200214C
:1057400005A82FF006FD2A1D112105A8FFF768FD09
:10575000002803DA1D4905A830F056F81A4B5B887B
:10576000022B7FF69CAD05A8AF89194CFBF72CF8EE
:10577000184B2449E41AEB7B0193E408AB7B0093BC
:10578000240403463A4644F00300FBF709FA86E591
:105790000D4B5B88012B7FF682AD0D480D4B1A49EE
:1057A000C01AC008000440F00200D3E5064B5B8835
:1057B000022B7FF674AD0648064B1449C01AC00888
:1057C00000042A4674E500BF10040020E7740300BB
:1057D000D49003009C9003004B7603008E76030068
:1057E000BF760300FA76030055770300AD89010008
:1057F0007C7703009A770300BF770300F2770300FA
:10580000EF73030030780300A1780300B77803003A
:105810003F4D6A88022A09D93E483F4B3F49C01A8A
:10582000C008000440F00300FBF796F905F0E9FD1D
:10583000044650B1394605F0B8FE0421204605F073
:105840005EFF204603F050FD29E56B88002B3FF4F6
:1058500026AD314B2F483249C01AC008000440F031
:105860000100FBF779F912E6294B5B88022B7FF6E2
:1058700016AD294B27482B49C01AC00800042B46F7
:10588000424640F00300E6E5274F3B78002B7FF4CB
:105890001AAE264926480B7801229A40B2F5617F5C
:1058A000DCBF01330B70234BC8BF4FF461725A4306
:1058B00000214FF47053B2FBF3F20AF0C7FEC0F1BF
:1058C00000098046B9F1000F1FD0114B5B889BB1D6
:1058D0004846FBF703FC0F4E0F4B1749F61AF60824
:1058E00040F2C62336040193144B00934A46034604
:1058F00046F00100FBF754F9FAF7A2FF0028FBD1AC
:10590000C8F59C402030FCF7B3F901233B70DAE581
:1059100010040020D49003009C900300E278030060
:105920001279030053790300206F0020236F0020B9
:105930009950000040420F007F73030081790300FB
:1059400008B5FBF7DFFE024B012283F8282108BDD2
:10595000CC860020034B93F828310BB9FFF7F0BF3A
:10596000704700BFCC860020024B01229A75FBF7DE
:1059700001BF00BFCC8600200148FBF7E5BE00BF99
:10598000C9840020034B9A7D012AFCD093F817317B
:1059900003707047CC86002010B50B4B044693F87B
:1059A0004600FBF705FF64B9FBF7DAFB074B9C6881
:1059B000FBF7D4FB14F0FF0005D1BDE81040FBF766
:1059C000FCBE0120F9E710BD90840020CC860020A9
:1059D000F7B5124C012506460F46FBF7C1FBA56043
:1059E000FBF7BCFB0E4B304693F8373004F117023F
:1059F0003946FBF7F5FE064668B900904FF49373FD
:105A000046F67A6229464FF0FF300BF019F8E56050
:105A100025602575A66003B0F0BD00BFCC860020D0
:105A2000908400202DE9F0411E4D07460E46FBF7FD
:105A300097FBAC68FBF792FB14F0FF04A84605D077
:105A40000123EB602B602B75BDE8F081032E85F8F8
:105A500018410DD11621384605F009FF0468837CF2
:105A6000002C08BF0426DB075CBF032385F8183130
:105A7000384605F083FD0230C0B288F8170038467A
:105A800005F072FD0546384605F078FD29460246C8
:105A900005482FF03AFB21463046BDE8F041FFF7BC
:105AA00097BF00BFCC860020E4860020044B9A7D7F
:105AB000012A02BF00229A7583F81701704700BFC0
:105AC000CC8600202DE9F041194C1A4D4FF000080A
:105AD000012607462E60C4F80C80FBF745FBC4F88E
